{
	"contracts/Twitter-Interaction-Main.sol": {
		"Twitter": {
			"abi": [
				{
					"inputs": [
						{
							"internalType": "address",
							"name": "_profileContract",
							"type": "address"
						}
					],
					"stateMutability": "nonpayable",
					"type": "constructor"
				},
				{
					"inputs": [
						{
							"internalType": "address",
							"name": "owner",
							"type": "address"
						}
					],
					"name": "OwnableInvalidOwner",
					"type": "error"
				},
				{
					"inputs": [
						{
							"internalType": "address",
							"name": "account",
							"type": "address"
						}
					],
					"name": "OwnableUnauthorizedAccount",
					"type": "error"
				},
				{
					"anonymous": false,
					"inputs": [
						{
							"indexed": true,
							"internalType": "address",
							"name": "previousOwner",
							"type": "address"
						},
						{
							"indexed": true,
							"internalType": "address",
							"name": "newOwner",
							"type": "address"
						}
					],
					"name": "OwnershipTransferred",
					"type": "event"
				},
				{
					"anonymous": false,
					"inputs": [
						{
							"indexed": false,
							"internalType": "uint256",
							"name": "id",
							"type": "uint256"
						},
						{
							"indexed": false,
							"internalType": "address",
							"name": "author",
							"type": "address"
						},
						{
							"indexed": false,
							"internalType": "string",
							"name": "content",
							"type": "string"
						},
						{
							"indexed": false,
							"internalType": "uint256",
							"name": "timestamps",
							"type": "uint256"
						}
					],
					"name": "TweetCreated",
					"type": "event"
				},
				{
					"anonymous": false,
					"inputs": [
						{
							"indexed": false,
							"internalType": "address",
							"name": "liker",
							"type": "address"
						},
						{
							"indexed": false,
							"internalType": "address",
							"name": "tweetAuthor",
							"type": "address"
						},
						{
							"indexed": false,
							"internalType": "uint256",
							"name": "id",
							"type": "uint256"
						},
						{
							"indexed": false,
							"internalType": "uint256",
							"name": "newLikeCount",
							"type": "uint256"
						}
					],
					"name": "TweetLiked",
					"type": "event"
				},
				{
					"anonymous": false,
					"inputs": [
						{
							"indexed": false,
							"internalType": "address",
							"name": "unliker",
							"type": "address"
						},
						{
							"indexed": false,
							"internalType": "address",
							"name": "tweetAuthor",
							"type": "address"
						},
						{
							"indexed": false,
							"internalType": "uint256",
							"name": "id",
							"type": "uint256"
						},
						{
							"indexed": false,
							"internalType": "uint256",
							"name": "newLikeCount",
							"type": "uint256"
						}
					],
					"name": "TweetUnliked",
					"type": "event"
				},
				{
					"inputs": [],
					"name": "MAX_TWEET_LENGTH",
					"outputs": [
						{
							"internalType": "uint16",
							"name": "",
							"type": "uint16"
						}
					],
					"stateMutability": "view",
					"type": "function"
				},
				{
					"inputs": [
						{
							"internalType": "uint16",
							"name": "newTweetLength",
							"type": "uint16"
						}
					],
					"name": "changeTweetLength",
					"outputs": [],
					"stateMutability": "nonpayable",
					"type": "function"
				},
				{
					"inputs": [
						{
							"internalType": "string",
							"name": "_tweet",
							"type": "string"
						}
					],
					"name": "createTweet",
					"outputs": [],
					"stateMutability": "nonpayable",
					"type": "function"
				},
				{
					"inputs": [
						{
							"internalType": "address",
							"name": "_owner",
							"type": "address"
						}
					],
					"name": "getAllTweets",
					"outputs": [
						{
							"components": [
								{
									"internalType": "uint256",
									"name": "id",
									"type": "uint256"
								},
								{
									"internalType": "address",
									"name": "author",
									"type": "address"
								},
								{
									"internalType": "string",
									"name": "content",
									"type": "string"
								},
								{
									"internalType": "uint256",
									"name": "timestamps",
									"type": "uint256"
								},
								{
									"internalType": "uint256",
									"name": "likes",
									"type": "uint256"
								}
							],
							"internalType": "struct Twitter.Tweet[]",
							"name": "",
							"type": "tuple[]"
						}
					],
					"stateMutability": "view",
					"type": "function"
				},
				{
					"inputs": [
						{
							"internalType": "uint256",
							"name": "_i",
							"type": "uint256"
						}
					],
					"name": "getTweet",
					"outputs": [
						{
							"components": [
								{
									"internalType": "uint256",
									"name": "id",
									"type": "uint256"
								},
								{
									"internalType": "address",
									"name": "author",
									"type": "address"
								},
								{
									"internalType": "string",
									"name": "content",
									"type": "string"
								},
								{
									"internalType": "uint256",
									"name": "timestamps",
									"type": "uint256"
								},
								{
									"internalType": "uint256",
									"name": "likes",
									"type": "uint256"
								}
							],
							"internalType": "struct Twitter.Tweet",
							"name": "",
							"type": "tuple"
						}
					],
					"stateMutability": "view",
					"type": "function"
				},
				{
					"inputs": [
						{
							"internalType": "address",
							"name": "author",
							"type": "address"
						},
						{
							"internalType": "uint256",
							"name": "id",
							"type": "uint256"
						}
					],
					"name": "likeTweet",
					"outputs": [],
					"stateMutability": "nonpayable",
					"type": "function"
				},
				{
					"inputs": [],
					"name": "owner",
					"outputs": [
						{
							"internalType": "address",
							"name": "",
							"type": "address"
						}
					],
					"stateMutability": "view",
					"type": "function"
				},
				{
					"inputs": [],
					"name": "renounceOwnership",
					"outputs": [],
					"stateMutability": "nonpayable",
					"type": "function"
				},
				{
					"inputs": [
						{
							"internalType": "address",
							"name": "newOwner",
							"type": "address"
						}
					],
					"name": "transferOwnership",
					"outputs": [],
					"stateMutability": "nonpayable",
					"type": "function"
				},
				{
					"inputs": [
						{
							"internalType": "address",
							"name": "",
							"type": "address"
						},
						{
							"internalType": "uint256",
							"name": "",
							"type": "uint256"
						}
					],
					"name": "tweets",
					"outputs": [
						{
							"internalType": "uint256",
							"name": "id",
							"type": "uint256"
						},
						{
							"internalType": "address",
							"name": "author",
							"type": "address"
						},
						{
							"internalType": "string",
							"name": "content",
							"type": "string"
						},
						{
							"internalType": "uint256",
							"name": "timestamps",
							"type": "uint256"
						},
						{
							"internalType": "uint256",
							"name": "likes",
							"type": "uint256"
						}
					],
					"stateMutability": "view",
					"type": "function"
				},
				{
					"inputs": [
						{
							"internalType": "address",
							"name": "author",
							"type": "address"
						},
						{
							"internalType": "uint256",
							"name": "id",
							"type": "uint256"
						}
					],
					"name": "unlikeTweet",
					"outputs": [],
					"stateMutability": "nonpayable",
					"type": "function"
				}
			],
			"devdoc": {
				"errors": {
					"OwnableInvalidOwner(address)": [
						{
							"details": "The owner is not a valid owner account. (eg. `address(0)`)"
						}
					],
					"OwnableUnauthorizedAccount(address)": [
						{
							"details": "The caller account is not authorized to perform an operation."
						}
					]
				},
				"kind": "dev",
				"methods": {
					"owner()": {
						"details": "Returns the address of the current owner."
					},
					"renounceOwnership()": {
						"details": "Leaves the contract without owner. It will not be possible to call `onlyOwner` functions. Can only be called by the current owner. NOTE: Renouncing ownership will leave the contract without an owner, thereby disabling any functionality that is only available to the owner."
					},
					"transferOwnership(address)": {
						"details": "Transfers ownership of the contract to a new account (`newOwner`). Can only be called by the current owner."
					}
				},
				"version": 1
			},
			"evm": {
				"assembly": "    /* \"contracts/Twitter-Interaction-Main.sol\":313:3073  contract Twitter is Ownable {... */\n  mstore(0x40, 0x80)\n    /* \"contracts/Twitter-Interaction-Main.sol\":383:386  280 */\n  0x0118\n    /* \"contracts/Twitter-Interaction-Main.sol\":350:386  uint16 public MAX_TWEET_LENGTH = 280 */\n  0x00\n  exp(0x0100, 0x14)\n  dup2\n  sload\n  dup2\n  0xffff\n  mul\n  not\n  and\n  swap1\n  dup4\n  0xffff\n  and\n  mul\n  or\n  swap1\n  sstore\n  pop\n    /* \"contracts/Twitter-Interaction-Main.sol\":1261:1457  constructor(address _profileContract) Ownable(msg.sender) {... */\n  callvalue\n  dup1\n  iszero\n  tag_1\n  jumpi\n  0x00\n  dup1\n  revert\ntag_1:\n  pop\n  mload(0x40)\n  sub(codesize, bytecodeSize)\n  dup1\n  bytecodeSize\n  dup4\n  codecopy\n  dup2\n  dup2\n  add\n  0x40\n  mstore\n  dup2\n  add\n  swap1\n  tag_2\n  swap2\n  swap1\n  tag_3\n  jump\t// in\ntag_2:\n    /* \"contracts/Twitter-Interaction-Main.sol\":1307:1317  msg.sender */\n  caller\n    /* \"@openzeppelin/contracts/access/Ownable.sol\":1297:1298  0 */\n  0x00\n    /* \"@openzeppelin/contracts/access/Ownable.sol\":1273:1299  initialOwner == address(0) */\n  0xffffffffffffffffffffffffffffffffffffffff\n  and\n    /* \"@openzeppelin/contracts/access/Ownable.sol\":1273:1285  initialOwner */\n  dup2\n    /* \"@openzeppelin/contracts/access/Ownable.sol\":1273:1299  initialOwner == address(0) */\n  0xffffffffffffffffffffffffffffffffffffffff\n  and\n  sub\n    /* \"@openzeppelin/contracts/access/Ownable.sol\":1269:1364  if (initialOwner == address(0)) {... */\n  tag_7\n  jumpi\n    /* \"@openzeppelin/contracts/access/Ownable.sol\":1350:1351  0 */\n  0x00\n    /* \"@openzeppelin/contracts/access/Ownable.sol\":1322:1353  OwnableInvalidOwner(address(0)) */\n  mload(0x40)\n  0x1e4fbdf700000000000000000000000000000000000000000000000000000000\n  dup2\n  mstore\n  0x04\n  add\n  tag_8\n  swap2\n  swap1\n  tag_9\n  jump\t// in\ntag_8:\n  mload(0x40)\n  dup1\n  swap2\n  sub\n  swap1\n  revert\n    /* \"@openzeppelin/contracts/access/Ownable.sol\":1269:1364  if (initialOwner == address(0)) {... */\ntag_7:\n    /* \"@openzeppelin/contracts/access/Ownable.sol\":1373:1405  _transferOwnership(initialOwner) */\n  tag_10\n    /* \"@openzeppelin/contracts/access/Ownable.sol\":1392:1404  initialOwner */\n  dup2\n    /* \"@openzeppelin/contracts/access/Ownable.sol\":1373:1391  _transferOwnership */\n  shl(0x20, tag_11)\n    /* \"@openzeppelin/contracts/access/Ownable.sol\":1373:1405  _transferOwnership(initialOwner) */\n  0x20\n  shr\n  jump\t// in\ntag_10:\n    /* \"@openzeppelin/contracts/access/Ownable.sol\":1225:1412  constructor(address initialOwner) {... */\n  pop\n    /* \"contracts/Twitter-Interaction-Main.sol\":1432:1448  _profileContract */\n  dup1\n    /* \"contracts/Twitter-Interaction-Main.sol\":1405:1420  profileContract */\n  0x02\n  0x00\n    /* \"contracts/Twitter-Interaction-Main.sol\":1405:1449  profileContract = IProfile(_profileContract) */\n  0x0100\n  exp\n  dup2\n  sload\n  dup2\n  0xffffffffffffffffffffffffffffffffffffffff\n  mul\n  not\n  and\n  swap1\n  dup4\n  0xffffffffffffffffffffffffffffffffffffffff\n  and\n  mul\n  or\n  swap1\n  sstore\n  pop\n    /* \"contracts/Twitter-Interaction-Main.sol\":1261:1457  constructor(address _profileContract) Ownable(msg.sender) {... */\n  pop\n    /* \"contracts/Twitter-Interaction-Main.sol\":313:3073  contract Twitter is Ownable {... */\n  jump(tag_13)\n    /* \"@openzeppelin/contracts/access/Ownable.sol\":2912:3099  function _transferOwnership(address newOwner) internal virtual {... */\ntag_11:\n    /* \"@openzeppelin/contracts/access/Ownable.sol\":2985:3001  address oldOwner */\n  0x00\n    /* \"@openzeppelin/contracts/access/Ownable.sol\":3004:3010  _owner */\n  dup1\n  0x00\n  swap1\n  sload\n  swap1\n  0x0100\n  exp\n  swap1\n  div\n  0xffffffffffffffffffffffffffffffffffffffff\n  and\n    /* \"@openzeppelin/contracts/access/Ownable.sol\":2985:3010  address oldOwner = _owner */\n  swap1\n  pop\n    /* \"@openzeppelin/contracts/access/Ownable.sol\":3029:3037  newOwner */\n  dup2\n    /* \"@openzeppelin/contracts/access/Ownable.sol\":3020:3026  _owner */\n  0x00\n  dup1\n    /* \"@openzeppelin/contracts/access/Ownable.sol\":3020:3037  _owner = newOwner */\n  0x0100\n  exp\n  dup2\n  sload\n  dup2\n  0xffffffffffffffffffffffffffffffffffffffff\n  mul\n  not\n  and\n  swap1\n  dup4\n  0xffffffffffffffffffffffffffffffffffffffff\n  and\n  mul\n  or\n  swap1\n  sstore\n  pop\n    /* \"@openzeppelin/contracts/access/Ownable.sol\":3083:3091  newOwner */\n  dup2\n    /* \"@openzeppelin/contracts/access/Ownable.sol\":3052:3092  OwnershipTransferred(oldOwner, newOwner) */\n  0xffffffffffffffffffffffffffffffffffffffff\n  and\n    /* \"@openzeppelin/contracts/access/Ownable.sol\":3073:3081  oldOwner */\n  dup2\n    /* \"@openzeppelin/contracts/access/Ownable.sol\":3052:3092  OwnershipTransferred(oldOwner, newOwner) */\n  0xffffffffffffffffffffffffffffffffffffffff\n  and\n  0x8be0079c531659141344cd1fd0a4f28419497f9722a3daafe3b4186f6b6457e0\n  mload(0x40)\n  mload(0x40)\n  dup1\n  swap2\n  sub\n  swap1\n  log3\n    /* \"@openzeppelin/contracts/access/Ownable.sol\":2975:3099  {... */\n  pop\n    /* \"@openzeppelin/contracts/access/Ownable.sol\":2912:3099  function _transferOwnership(address newOwner) internal virtual {... */\n  pop\n  jump\t// out\n    /* \"#utility.yul\":88:205   */\ntag_16:\n    /* \"#utility.yul\":197:198   */\n  0x00\n    /* \"#utility.yul\":194:195   */\n  dup1\n    /* \"#utility.yul\":187:199   */\n  revert\n    /* \"#utility.yul\":334:460   */\ntag_18:\n    /* \"#utility.yul\":371:378   */\n  0x00\n    /* \"#utility.yul\":411:453   */\n  0xffffffffffffffffffffffffffffffffffffffff\n    /* \"#utility.yul\":404:409   */\n  dup3\n    /* \"#utility.yul\":400:454   */\n  and\n    /* \"#utility.yul\":389:454   */\n  swap1\n  pop\n    /* \"#utility.yul\":334:460   */\n  swap2\n  swap1\n  pop\n  jump\t// out\n    /* \"#utility.yul\":466:562   */\ntag_19:\n    /* \"#utility.yul\":503:510   */\n  0x00\n    /* \"#utility.yul\":532:556   */\n  tag_29\n    /* \"#utility.yul\":550:555   */\n  dup3\n    /* \"#utility.yul\":532:556   */\n  tag_18\n  jump\t// in\ntag_29:\n    /* \"#utility.yul\":521:556   */\n  swap1\n  pop\n    /* \"#utility.yul\":466:562   */\n  swap2\n  swap1\n  pop\n  jump\t// out\n    /* \"#utility.yul\":568:690   */\ntag_20:\n    /* \"#utility.yul\":641:665   */\n  tag_31\n    /* \"#utility.yul\":659:664   */\n  dup2\n    /* \"#utility.yul\":641:665   */\n  tag_19\n  jump\t// in\ntag_31:\n    /* \"#utility.yul\":634:639   */\n  dup2\n    /* \"#utility.yul\":631:666   */\n  eq\n    /* \"#utility.yul\":621:684   */\n  tag_32\n  jumpi\n    /* \"#utility.yul\":680:681   */\n  0x00\n    /* \"#utility.yul\":677:678   */\n  dup1\n    /* \"#utility.yul\":670:682   */\n  revert\n    /* \"#utility.yul\":621:684   */\ntag_32:\n    /* \"#utility.yul\":568:690   */\n  pop\n  jump\t// out\n    /* \"#utility.yul\":696:839   */\ntag_21:\n    /* \"#utility.yul\":753:758   */\n  0x00\n    /* \"#utility.yul\":784:790   */\n  dup2\n    /* \"#utility.yul\":778:791   */\n  mload\n    /* \"#utility.yul\":769:791   */\n  swap1\n  pop\n    /* \"#utility.yul\":800:833   */\n  tag_34\n    /* \"#utility.yul\":827:832   */\n  dup2\n    /* \"#utility.yul\":800:833   */\n  tag_20\n  jump\t// in\ntag_34:\n    /* \"#utility.yul\":696:839   */\n  swap3\n  swap2\n  pop\n  pop\n  jump\t// out\n    /* \"#utility.yul\":845:1196   */\ntag_3:\n    /* \"#utility.yul\":915:921   */\n  0x00\n    /* \"#utility.yul\":964:966   */\n  0x20\n    /* \"#utility.yul\":952:961   */\n  dup3\n    /* \"#utility.yul\":943:950   */\n  dup5\n    /* \"#utility.yul\":939:962   */\n  sub\n    /* \"#utility.yul\":935:967   */\n  slt\n    /* \"#utility.yul\":932:1051   */\n  iszero\n  tag_36\n  jumpi\n    /* \"#utility.yul\":970:1049   */\n  tag_37\n  tag_16\n  jump\t// in\ntag_37:\n    /* \"#utility.yul\":932:1051   */\ntag_36:\n    /* \"#utility.yul\":1090:1091   */\n  0x00\n    /* \"#utility.yul\":1115:1179   */\n  tag_38\n    /* \"#utility.yul\":1171:1178   */\n  dup5\n    /* \"#utility.yul\":1162:1168   */\n  dup3\n    /* \"#utility.yul\":1151:1160   */\n  dup6\n    /* \"#utility.yul\":1147:1169   */\n  add\n    /* \"#utility.yul\":1115:1179   */\n  tag_21\n  jump\t// in\ntag_38:\n    /* \"#utility.yul\":1105:1179   */\n  swap2\n  pop\n    /* \"#utility.yul\":1061:1189   */\n  pop\n    /* \"#utility.yul\":845:1196   */\n  swap3\n  swap2\n  pop\n  pop\n  jump\t// out\n    /* \"#utility.yul\":1202:1320   */\ntag_22:\n    /* \"#utility.yul\":1289:1313   */\n  tag_40\n    /* \"#utility.yul\":1307:1312   */\n  dup2\n    /* \"#utility.yul\":1289:1313   */\n  tag_19\n  jump\t// in\ntag_40:\n    /* \"#utility.yul\":1284:1287   */\n  dup3\n    /* \"#utility.yul\":1277:1314   */\n  mstore\n    /* \"#utility.yul\":1202:1320   */\n  pop\n  pop\n  jump\t// out\n    /* \"#utility.yul\":1326:1548   */\ntag_9:\n    /* \"#utility.yul\":1419:1423   */\n  0x00\n    /* \"#utility.yul\":1457:1459   */\n  0x20\n    /* \"#utility.yul\":1446:1455   */\n  dup3\n    /* \"#utility.yul\":1442:1460   */\n  add\n    /* \"#utility.yul\":1434:1460   */\n  swap1\n  pop\n    /* \"#utility.yul\":1470:1541   */\n  tag_42\n    /* \"#utility.yul\":1538:1539   */\n  0x00\n    /* \"#utility.yul\":1527:1536   */\n  dup4\n    /* \"#utility.yul\":1523:1540   */\n  add\n    /* \"#utility.yul\":1514:1520   */\n  dup5\n    /* \"#utility.yul\":1470:1541   */\n  tag_22\n  jump\t// in\ntag_42:\n    /* \"#utility.yul\":1326:1548   */\n  swap3\n  swap2\n  pop\n  pop\n  jump\t// out\n    /* \"contracts/Twitter-Interaction-Main.sol\":313:3073  contract Twitter is Ownable {... */\ntag_13:\n  dataSize(sub_0)\n  dup1\n  dataOffset(sub_0)\n  0x00\n  codecopy\n  0x00\n  return\nstop\n\nsub_0: assembly {\n        /* \"contracts/Twitter-Interaction-Main.sol\":313:3073  contract Twitter is Ownable {... */\n      mstore(0x40, 0x80)\n      callvalue\n      dup1\n      iszero\n      tag_1\n      jumpi\n      0x00\n      dup1\n      revert\n    tag_1:\n      pop\n      jumpi(tag_2, lt(calldatasize, 0x04))\n      shr(0xe0, calldataload(0x00))\n      dup1\n      0x6eb10797\n      gt\n      tag_14\n      jumpi\n      dup1\n      0x6eb10797\n      eq\n      tag_8\n      jumpi\n      dup1\n      0x715018a6\n      eq\n      tag_9\n      jumpi\n      dup1\n      0x7c9cd2bc\n      eq\n      tag_10\n      jumpi\n      dup1\n      0x8da5cb5b\n      eq\n      tag_11\n      jumpi\n      dup1\n      0xc3ad5ecb\n      eq\n      tag_12\n      jumpi\n      dup1\n      0xf2fde38b\n      eq\n      tag_13\n      jumpi\n      jump(tag_2)\n    tag_14:\n      dup1\n      0x05a1b4a9\n      eq\n      tag_3\n      jumpi\n      dup1\n      0x12e7ee1c\n      eq\n      tag_4\n      jumpi\n      dup1\n      0x3d9b569f\n      eq\n      tag_5\n      jumpi\n      dup1\n      0x58bfa4ab\n      eq\n      tag_6\n      jumpi\n      dup1\n      0x63378216\n      eq\n      tag_7\n      jumpi\n    tag_2:\n      0x00\n      dup1\n      revert\n        /* \"contracts/Twitter-Interaction-Main.sol\":575:616  mapping(address => Tweet[]) public tweets */\n    tag_3:\n      tag_15\n      0x04\n      dup1\n      calldatasize\n      sub\n      dup2\n      add\n      swap1\n      tag_16\n      swap2\n      swap1\n      tag_17\n      jump\t// in\n    tag_16:\n      tag_18\n      jump\t// in\n    tag_15:\n      mload(0x40)\n      tag_19\n      swap6\n      swap5\n      swap4\n      swap3\n      swap2\n      swap1\n      tag_20\n      jump\t// in\n    tag_19:\n      mload(0x40)\n      dup1\n      swap2\n      sub\n      swap1\n      return\n        /* \"contracts/Twitter-Interaction-Main.sol\":2955:3070  function getAllTweets(address _owner) public view returns (Tweet[] memory) {... */\n    tag_4:\n      tag_21\n      0x04\n      dup1\n      calldatasize\n      sub\n      dup2\n      add\n      swap1\n      tag_22\n      swap2\n      swap1\n      tag_23\n      jump\t// in\n    tag_22:\n      tag_24\n      jump\t// in\n    tag_21:\n      mload(0x40)\n      tag_25\n      swap2\n      swap1\n      tag_26\n      jump\t// in\n    tag_25:\n      mload(0x40)\n      dup1\n      swap2\n      sub\n      swap1\n      return\n        /* \"contracts/Twitter-Interaction-Main.sol\":2448:2826  function unlikeTweet(address author, uint256 id) external onlyRegistered {... */\n    tag_5:\n      tag_27\n      0x04\n      dup1\n      calldatasize\n      sub\n      dup2\n      add\n      swap1\n      tag_28\n      swap2\n      swap1\n      tag_17\n      jump\t// in\n    tag_28:\n      tag_29\n      jump\t// in\n    tag_27:\n      stop\n        /* \"contracts/Twitter-Interaction-Main.sol\":1465:1584  function changeTweetLength(uint16 newTweetLength) public onlyOwner {... */\n    tag_6:\n      tag_30\n      0x04\n      dup1\n      calldatasize\n      sub\n      dup2\n      add\n      swap1\n      tag_31\n      swap2\n      swap1\n      tag_32\n      jump\t// in\n    tag_31:\n      tag_33\n      jump\t// in\n    tag_30:\n      stop\n        /* \"contracts/Twitter-Interaction-Main.sol\":2137:2440  function likeTweet(address author, uint256 id) external onlyRegistered {... */\n    tag_7:\n      tag_34\n      0x04\n      dup1\n      calldatasize\n      sub\n      dup2\n      add\n      swap1\n      tag_35\n      swap2\n      swap1\n      tag_17\n      jump\t// in\n    tag_35:\n      tag_36\n      jump\t// in\n    tag_34:\n      stop\n        /* \"contracts/Twitter-Interaction-Main.sol\":350:386  uint16 public MAX_TWEET_LENGTH = 280 */\n    tag_8:\n      tag_37\n      tag_38\n      jump\t// in\n    tag_37:\n      mload(0x40)\n      tag_39\n      swap2\n      swap1\n      tag_40\n      jump\t// in\n    tag_39:\n      mload(0x40)\n      dup1\n      swap2\n      sub\n      swap1\n      return\n        /* \"@openzeppelin/contracts/access/Ownable.sol\":2293:2394  function renounceOwnership() public virtual onlyOwner {... */\n    tag_9:\n      tag_41\n      tag_42\n      jump\t// in\n    tag_41:\n      stop\n        /* \"contracts/Twitter-Interaction-Main.sol\":1592:2129  function createTweet(string memory _tweet) public onlyRegistered{... */\n    tag_10:\n      tag_43\n      0x04\n      dup1\n      calldatasize\n      sub\n      dup2\n      add\n      swap1\n      tag_44\n      swap2\n      swap1\n      tag_45\n      jump\t// in\n    tag_44:\n      tag_46\n      jump\t// in\n    tag_43:\n      stop\n        /* \"@openzeppelin/contracts/access/Ownable.sol\":1638:1723  function owner() public view virtual returns (address) {... */\n    tag_11:\n      tag_47\n      tag_48\n      jump\t// in\n    tag_47:\n      mload(0x40)\n      tag_49\n      swap2\n      swap1\n      tag_50\n      jump\t// in\n    tag_49:\n      mload(0x40)\n      dup1\n      swap2\n      sub\n      swap1\n      return\n        /* \"contracts/Twitter-Interaction-Main.sol\":2834:2947  function getTweet(uint256 _i) public view returns (Tweet memory) {... */\n    tag_12:\n      tag_51\n      0x04\n      dup1\n      calldatasize\n      sub\n      dup2\n      add\n      swap1\n      tag_52\n      swap2\n      swap1\n      tag_53\n      jump\t// in\n    tag_52:\n      tag_54\n      jump\t// in\n    tag_51:\n      mload(0x40)\n      tag_55\n      swap2\n      swap1\n      tag_56\n      jump\t// in\n    tag_55:\n      mload(0x40)\n      dup1\n      swap2\n      sub\n      swap1\n      return\n        /* \"@openzeppelin/contracts/access/Ownable.sol\":2543:2758  function transferOwnership(address newOwner) public virtual onlyOwner {... */\n    tag_13:\n      tag_57\n      0x04\n      dup1\n      calldatasize\n      sub\n      dup2\n      add\n      swap1\n      tag_58\n      swap2\n      swap1\n      tag_23\n      jump\t// in\n    tag_58:\n      tag_59\n      jump\t// in\n    tag_57:\n      stop\n        /* \"contracts/Twitter-Interaction-Main.sol\":575:616  mapping(address => Tweet[]) public tweets */\n    tag_18:\n      mstore(0x20, 0x01)\n      dup2\n      0x00\n      mstore\n      keccak256(0x00, 0x40)\n      dup2\n      dup2\n      sload\n      dup2\n      lt\n      tag_60\n      jumpi\n      0x00\n      dup1\n      revert\n    tag_60:\n      swap1\n      0x00\n      mstore\n      keccak256(0x00, 0x20)\n      swap1\n      0x05\n      mul\n      add\n      0x00\n      swap2\n      pop\n      swap2\n      pop\n      pop\n      dup1\n      0x00\n      add\n      sload\n      swap1\n      dup1\n      0x01\n      add\n      0x00\n      swap1\n      sload\n      swap1\n      0x0100\n      exp\n      swap1\n      div\n      0xffffffffffffffffffffffffffffffffffffffff\n      and\n      swap1\n      dup1\n      0x02\n      add\n      dup1\n      sload\n      tag_62\n      swap1\n      tag_63\n      jump\t// in\n    tag_62:\n      dup1\n      0x1f\n      add\n      0x20\n      dup1\n      swap2\n      div\n      mul\n      0x20\n      add\n      mload(0x40)\n      swap1\n      dup2\n      add\n      0x40\n      mstore\n      dup1\n      swap3\n      swap2\n      swap1\n      dup2\n      dup2\n      mstore\n      0x20\n      add\n      dup3\n      dup1\n      sload\n      tag_64\n      swap1\n      tag_63\n      jump\t// in\n    tag_64:\n      dup1\n      iszero\n      tag_65\n      jumpi\n      dup1\n      0x1f\n      lt\n      tag_66\n      jumpi\n      0x0100\n      dup1\n      dup4\n      sload\n      div\n      mul\n      dup4\n      mstore\n      swap2\n      0x20\n      add\n      swap2\n      jump(tag_65)\n    tag_66:\n      dup3\n      add\n      swap2\n      swap1\n      0x00\n      mstore\n      keccak256(0x00, 0x20)\n      swap1\n    tag_67:\n      dup2\n      sload\n      dup2\n      mstore\n      swap1\n      0x01\n      add\n      swap1\n      0x20\n      add\n      dup1\n      dup4\n      gt\n      tag_67\n      jumpi\n      dup3\n      swap1\n      sub\n      0x1f\n      and\n      dup3\n      add\n      swap2\n    tag_65:\n      pop\n      pop\n      pop\n      pop\n      pop\n      swap1\n      dup1\n      0x03\n      add\n      sload\n      swap1\n      dup1\n      0x04\n      add\n      sload\n      swap1\n      pop\n      dup6\n      jump\t// out\n        /* \"contracts/Twitter-Interaction-Main.sol\":2955:3070  function getAllTweets(address _owner) public view returns (Tweet[] memory) {... */\n    tag_24:\n        /* \"contracts/Twitter-Interaction-Main.sol\":3014:3028  Tweet[] memory */\n      0x60\n        /* \"contracts/Twitter-Interaction-Main.sol\":3048:3054  tweets */\n      0x01\n        /* \"contracts/Twitter-Interaction-Main.sol\":3048:3062  tweets[_owner] */\n      0x00\n        /* \"contracts/Twitter-Interaction-Main.sol\":3055:3061  _owner */\n      dup4\n        /* \"contracts/Twitter-Interaction-Main.sol\":3048:3062  tweets[_owner] */\n      0xffffffffffffffffffffffffffffffffffffffff\n      and\n      0xffffffffffffffffffffffffffffffffffffffff\n      and\n      dup2\n      mstore\n      0x20\n      add\n      swap1\n      dup2\n      mstore\n      0x20\n      add\n      0x00\n      keccak256\n        /* \"contracts/Twitter-Interaction-Main.sol\":3041:3062  return tweets[_owner] */\n      dup1\n      sload\n      dup1\n      0x20\n      mul\n      0x20\n      add\n      mload(0x40)\n      swap1\n      dup2\n      add\n      0x40\n      mstore\n      dup1\n      swap3\n      swap2\n      swap1\n      dup2\n      dup2\n      mstore\n      0x20\n      add\n      0x00\n      swap1\n    tag_69:\n      dup3\n      dup3\n      lt\n      iszero\n      tag_70\n      jumpi\n      dup4\n      dup3\n      swap1\n      0x00\n      mstore\n      keccak256(0x00, 0x20)\n      swap1\n      0x05\n      mul\n      add\n      mload(0x40)\n      dup1\n      0xa0\n      add\n      0x40\n      mstore\n      swap1\n      dup2\n      0x00\n      dup3\n      add\n      sload\n      dup2\n      mstore\n      0x20\n      add\n      0x01\n      dup3\n      add\n      0x00\n      swap1\n      sload\n      swap1\n      0x0100\n      exp\n      swap1\n      div\n      0xffffffffffffffffffffffffffffffffffffffff\n      and\n      0xffffffffffffffffffffffffffffffffffffffff\n      and\n      0xffffffffffffffffffffffffffffffffffffffff\n      and\n      dup2\n      mstore\n      0x20\n      add\n      0x02\n      dup3\n      add\n      dup1\n      sload\n      tag_72\n      swap1\n      tag_63\n      jump\t// in\n    tag_72:\n      dup1\n      0x1f\n      add\n      0x20\n      dup1\n      swap2\n      div\n      mul\n      0x20\n      add\n      mload(0x40)\n      swap1\n      dup2\n      add\n      0x40\n      mstore\n      dup1\n      swap3\n      swap2\n      swap1\n      dup2\n      dup2\n      mstore\n      0x20\n      add\n      dup3\n      dup1\n      sload\n      tag_73\n      swap1\n      tag_63\n      jump\t// in\n    tag_73:\n      dup1\n      iszero\n      tag_74\n      jumpi\n      dup1\n      0x1f\n      lt\n      tag_75\n      jumpi\n      0x0100\n      dup1\n      dup4\n      sload\n      div\n      mul\n      dup4\n      mstore\n      swap2\n      0x20\n      add\n      swap2\n      jump(tag_74)\n    tag_75:\n      dup3\n      add\n      swap2\n      swap1\n      0x00\n      mstore\n      keccak256(0x00, 0x20)\n      swap1\n    tag_76:\n      dup2\n      sload\n      dup2\n      mstore\n      swap1\n      0x01\n      add\n      swap1\n      0x20\n      add\n      dup1\n      dup4\n      gt\n      tag_76\n      jumpi\n      dup3\n      swap1\n      sub\n      0x1f\n      and\n      dup3\n      add\n      swap2\n    tag_74:\n      pop\n      pop\n      pop\n      pop\n      pop\n      dup2\n      mstore\n      0x20\n      add\n      0x03\n      dup3\n      add\n      sload\n      dup2\n      mstore\n      0x20\n      add\n      0x04\n      dup3\n      add\n      sload\n      dup2\n      mstore\n      pop\n      pop\n      dup2\n      mstore\n      0x20\n      add\n      swap1\n      0x01\n      add\n      swap1\n      jump(tag_69)\n    tag_70:\n      pop\n      pop\n      pop\n      pop\n      swap1\n      pop\n        /* \"contracts/Twitter-Interaction-Main.sol\":2955:3070  function getAllTweets(address _owner) public view returns (Tweet[] memory) {... */\n      swap2\n      swap1\n      pop\n      jump\t// out\n        /* \"contracts/Twitter-Interaction-Main.sol\":2448:2826  function unlikeTweet(address author, uint256 id) external onlyRegistered {... */\n    tag_29:\n        /* \"contracts/Twitter-Interaction-Main.sol\":985:1028  IProfile.UserProfile memory userProfileTemp */\n      0x00\n        /* \"contracts/Twitter-Interaction-Main.sol\":1031:1046  profileContract */\n      0x02\n      0x00\n      swap1\n      sload\n      swap1\n      0x0100\n      exp\n      swap1\n      div\n      0xffffffffffffffffffffffffffffffffffffffff\n      and\n        /* \"contracts/Twitter-Interaction-Main.sol\":1031:1057  profileContract.getProfile */\n      0xffffffffffffffffffffffffffffffffffffffff\n      and\n      0x0f53a470\n        /* \"contracts/Twitter-Interaction-Main.sol\":1058:1068  msg.sender */\n      caller\n        /* \"contracts/Twitter-Interaction-Main.sol\":1031:1069  profileContract.getProfile(msg.sender) */\n      mload(0x40)\n      dup3\n      0xffffffff\n      and\n      0xe0\n      shl\n      dup2\n      mstore\n      0x04\n      add\n      tag_78\n      swap2\n      swap1\n      tag_50\n      jump\t// in\n    tag_78:\n      0x00\n      mload(0x40)\n      dup1\n      dup4\n      sub\n      dup2\n      dup7\n      gas\n      staticcall\n      iszero\n      dup1\n      iszero\n      tag_80\n      jumpi\n      returndatasize\n      0x00\n      dup1\n      returndatacopy\n      revert(0x00, returndatasize)\n    tag_80:\n      pop\n      pop\n      pop\n      pop\n      mload(0x40)\n      returndatasize\n      0x00\n      dup3\n      returndatacopy\n      returndatasize\n      not(0x1f)\n      0x1f\n      dup3\n      add\n      and\n      dup3\n      add\n      dup1\n      0x40\n      mstore\n      pop\n      dup2\n      add\n      swap1\n      tag_81\n      swap2\n      swap1\n      tag_82\n      jump\t// in\n    tag_81:\n        /* \"contracts/Twitter-Interaction-Main.sol\":985:1069  IProfile.UserProfile memory userProfileTemp = profileContract.getProfile(msg.sender) */\n      swap1\n      pop\n        /* \"contracts/Twitter-Interaction-Main.sol\":1134:1135  0 */\n      0x00\n        /* \"contracts/Twitter-Interaction-Main.sol\":1096:1111  userProfileTemp */\n      dup2\n        /* \"contracts/Twitter-Interaction-Main.sol\":1096:1123  userProfileTemp.displayName */\n      0x00\n      add\n      mload\n        /* \"contracts/Twitter-Interaction-Main.sol\":1090:1131  bytes(userProfileTemp.displayName).length */\n      mload\n        /* \"contracts/Twitter-Interaction-Main.sol\":1090:1135  bytes(userProfileTemp.displayName).length > 0 */\n      gt\n        /* \"contracts/Twitter-Interaction-Main.sol\":1082:1159  require(bytes(userProfileTemp.displayName).length > 0,\"User not Registered\" ) */\n      tag_83\n      jumpi\n      mload(0x40)\n      0x08c379a000000000000000000000000000000000000000000000000000000000\n      dup2\n      mstore\n      0x04\n      add\n      tag_84\n      swap1\n      tag_85\n      jump\t// in\n    tag_84:\n      mload(0x40)\n      dup1\n      swap2\n      sub\n      swap1\n      revert\n    tag_83:\n        /* \"contracts/Twitter-Interaction-Main.sol\":2545:2551  tweets */\n      0x01\n        /* \"contracts/Twitter-Interaction-Main.sol\":2545:2559  tweets[author] */\n      0x00\n        /* \"contracts/Twitter-Interaction-Main.sol\":2552:2558  author */\n      dup5\n        /* \"contracts/Twitter-Interaction-Main.sol\":2545:2559  tweets[author] */\n      0xffffffffffffffffffffffffffffffffffffffff\n      and\n      0xffffffffffffffffffffffffffffffffffffffff\n      and\n      dup2\n      mstore\n      0x20\n      add\n      swap1\n      dup2\n      mstore\n      0x20\n      add\n      0x00\n      keccak256\n        /* \"contracts/Twitter-Interaction-Main.sol\":2545:2566  tweets[author].length */\n      dup1\n      sload\n      swap1\n      pop\n        /* \"contracts/Twitter-Interaction-Main.sol\":2540:2542  id */\n      dup3\n        /* \"contracts/Twitter-Interaction-Main.sol\":2540:2566  id < tweets[author].length */\n      lt\n        /* \"contracts/Twitter-Interaction-Main.sol\":2540:2597  id < tweets[author].length && tweets[author][id].id == id */\n      dup1\n      iszero\n      tag_87\n      jumpi\n      pop\n        /* \"contracts/Twitter-Interaction-Main.sol\":2595:2597  id */\n      dup2\n        /* \"contracts/Twitter-Interaction-Main.sol\":2570:2576  tweets */\n      0x01\n        /* \"contracts/Twitter-Interaction-Main.sol\":2570:2584  tweets[author] */\n      0x00\n        /* \"contracts/Twitter-Interaction-Main.sol\":2577:2583  author */\n      dup6\n        /* \"contracts/Twitter-Interaction-Main.sol\":2570:2584  tweets[author] */\n      0xffffffffffffffffffffffffffffffffffffffff\n      and\n      0xffffffffffffffffffffffffffffffffffffffff\n      and\n      dup2\n      mstore\n      0x20\n      add\n      swap1\n      dup2\n      mstore\n      0x20\n      add\n      0x00\n      keccak256\n        /* \"contracts/Twitter-Interaction-Main.sol\":2585:2587  id */\n      dup4\n        /* \"contracts/Twitter-Interaction-Main.sol\":2570:2588  tweets[author][id] */\n      dup2\n      sload\n      dup2\n      lt\n      tag_88\n      jumpi\n      tag_89\n      tag_90\n      jump\t// in\n    tag_89:\n    tag_88:\n      swap1\n      0x00\n      mstore\n      keccak256(0x00, 0x20)\n      swap1\n      0x05\n      mul\n      add\n        /* \"contracts/Twitter-Interaction-Main.sol\":2570:2591  tweets[author][id].id */\n      0x00\n      add\n      sload\n        /* \"contracts/Twitter-Interaction-Main.sol\":2570:2597  tweets[author][id].id == id */\n      eq\n        /* \"contracts/Twitter-Interaction-Main.sol\":2540:2597  id < tweets[author].length && tweets[author][id].id == id */\n    tag_87:\n        /* \"contracts/Twitter-Interaction-Main.sol\":2532:2622  require(id < tweets[author].length && tweets[author][id].id == id, \"Tweet Does Not Exist\") */\n      tag_92\n      jumpi\n      mload(0x40)\n      0x08c379a000000000000000000000000000000000000000000000000000000000\n      dup2\n      mstore\n      0x04\n      add\n      tag_93\n      swap1\n      tag_94\n      jump\t// in\n    tag_93:\n      mload(0x40)\n      dup1\n      swap2\n      sub\n      swap1\n      revert\n    tag_92:\n        /* \"contracts/Twitter-Interaction-Main.sol\":2668:2669  0 */\n      0x00\n        /* \"contracts/Twitter-Interaction-Main.sol\":2641:2647  tweets */\n      0x01\n        /* \"contracts/Twitter-Interaction-Main.sol\":2641:2655  tweets[author] */\n      0x00\n        /* \"contracts/Twitter-Interaction-Main.sol\":2648:2654  author */\n      dup6\n        /* \"contracts/Twitter-Interaction-Main.sol\":2641:2655  tweets[author] */\n      0xffffffffffffffffffffffffffffffffffffffff\n      and\n      0xffffffffffffffffffffffffffffffffffffffff\n      and\n      dup2\n      mstore\n      0x20\n      add\n      swap1\n      dup2\n      mstore\n      0x20\n      add\n      0x00\n      keccak256\n        /* \"contracts/Twitter-Interaction-Main.sol\":2656:2658  id */\n      dup4\n        /* \"contracts/Twitter-Interaction-Main.sol\":2641:2659  tweets[author][id] */\n      dup2\n      sload\n      dup2\n      lt\n      tag_95\n      jumpi\n      tag_96\n      tag_90\n      jump\t// in\n    tag_96:\n    tag_95:\n      swap1\n      0x00\n      mstore\n      keccak256(0x00, 0x20)\n      swap1\n      0x05\n      mul\n      add\n        /* \"contracts/Twitter-Interaction-Main.sol\":2641:2665  tweets[author][id].likes */\n      0x04\n      add\n      sload\n        /* \"contracts/Twitter-Interaction-Main.sol\":2641:2669  tweets[author][id].likes > 0 */\n      gt\n        /* \"contracts/Twitter-Interaction-Main.sol\":2633:2693  require(tweets[author][id].likes > 0, \"Tweets has no likes\") */\n      tag_98\n      jumpi\n      mload(0x40)\n      0x08c379a000000000000000000000000000000000000000000000000000000000\n      dup2\n      mstore\n      0x04\n      add\n      tag_99\n      swap1\n      tag_100\n      jump\t// in\n    tag_99:\n      mload(0x40)\n      dup1\n      swap2\n      sub\n      swap1\n      revert\n    tag_98:\n        /* \"contracts/Twitter-Interaction-Main.sol\":2714:2720  tweets */\n      0x01\n        /* \"contracts/Twitter-Interaction-Main.sol\":2714:2728  tweets[author] */\n      0x00\n        /* \"contracts/Twitter-Interaction-Main.sol\":2721:2727  author */\n      dup5\n        /* \"contracts/Twitter-Interaction-Main.sol\":2714:2728  tweets[author] */\n      0xffffffffffffffffffffffffffffffffffffffff\n      and\n      0xffffffffffffffffffffffffffffffffffffffff\n      and\n      dup2\n      mstore\n      0x20\n      add\n      swap1\n      dup2\n      mstore\n      0x20\n      add\n      0x00\n      keccak256\n        /* \"contracts/Twitter-Interaction-Main.sol\":2729:2731  id */\n      dup3\n        /* \"contracts/Twitter-Interaction-Main.sol\":2714:2732  tweets[author][id] */\n      dup2\n      sload\n      dup2\n      lt\n      tag_101\n      jumpi\n      tag_102\n      tag_90\n      jump\t// in\n    tag_102:\n    tag_101:\n      swap1\n      0x00\n      mstore\n      keccak256(0x00, 0x20)\n      swap1\n      0x05\n      mul\n      add\n        /* \"contracts/Twitter-Interaction-Main.sol\":2714:2738  tweets[author][id].likes */\n      0x04\n      add\n      0x00\n        /* \"contracts/Twitter-Interaction-Main.sol\":2714:2740  tweets[author][id].likes-- */\n      dup2\n      sload\n      dup1\n      swap3\n      swap2\n      swap1\n      tag_104\n      swap1\n      tag_105\n      jump\t// in\n    tag_104:\n      swap2\n      swap1\n      pop\n      sstore\n      pop\n        /* \"contracts/Twitter-Interaction-Main.sol\":2756:2818  TweetUnliked(msg.sender, author, id, tweets[author][id].likes) */\n      0x762c2616349603ac16eba0de8e6141b79129a07ab63bd99e0a80b3a471716943\n        /* \"contracts/Twitter-Interaction-Main.sol\":2769:2779  msg.sender */\n      caller\n        /* \"contracts/Twitter-Interaction-Main.sol\":2781:2787  author */\n      dup5\n        /* \"contracts/Twitter-Interaction-Main.sol\":2789:2791  id */\n      dup5\n        /* \"contracts/Twitter-Interaction-Main.sol\":2793:2799  tweets */\n      0x01\n        /* \"contracts/Twitter-Interaction-Main.sol\":2793:2807  tweets[author] */\n      0x00\n        /* \"contracts/Twitter-Interaction-Main.sol\":2800:2806  author */\n      dup9\n        /* \"contracts/Twitter-Interaction-Main.sol\":2793:2807  tweets[author] */\n      0xffffffffffffffffffffffffffffffffffffffff\n      and\n      0xffffffffffffffffffffffffffffffffffffffff\n      and\n      dup2\n      mstore\n      0x20\n      add\n      swap1\n      dup2\n      mstore\n      0x20\n      add\n      0x00\n      keccak256\n        /* \"contracts/Twitter-Interaction-Main.sol\":2808:2810  id */\n      dup7\n        /* \"contracts/Twitter-Interaction-Main.sol\":2793:2811  tweets[author][id] */\n      dup2\n      sload\n      dup2\n      lt\n      tag_106\n      jumpi\n      tag_107\n      tag_90\n      jump\t// in\n    tag_107:\n    tag_106:\n      swap1\n      0x00\n      mstore\n      keccak256(0x00, 0x20)\n      swap1\n      0x05\n      mul\n      add\n        /* \"contracts/Twitter-Interaction-Main.sol\":2793:2817  tweets[author][id].likes */\n      0x04\n      add\n      sload\n        /* \"contracts/Twitter-Interaction-Main.sol\":2756:2818  TweetUnliked(msg.sender, author, id, tweets[author][id].likes) */\n      mload(0x40)\n      tag_109\n      swap5\n      swap4\n      swap3\n      swap2\n      swap1\n      tag_110\n      jump\t// in\n    tag_109:\n      mload(0x40)\n      dup1\n      swap2\n      sub\n      swap1\n      log1\n        /* \"contracts/Twitter-Interaction-Main.sol\":964:1183  {... */\n      pop\n        /* \"contracts/Twitter-Interaction-Main.sol\":2448:2826  function unlikeTweet(address author, uint256 id) external onlyRegistered {... */\n      pop\n      pop\n      jump\t// out\n        /* \"contracts/Twitter-Interaction-Main.sol\":1465:1584  function changeTweetLength(uint16 newTweetLength) public onlyOwner {... */\n    tag_33:\n        /* \"@openzeppelin/contracts/access/Ownable.sol\":1531:1544  _checkOwner() */\n      tag_112\n        /* \"@openzeppelin/contracts/access/Ownable.sol\":1531:1542  _checkOwner */\n      tag_113\n        /* \"@openzeppelin/contracts/access/Ownable.sol\":1531:1544  _checkOwner() */\n      jump\t// in\n    tag_112:\n        /* \"contracts/Twitter-Interaction-Main.sol\":1562:1576  newTweetLength */\n      dup1\n        /* \"contracts/Twitter-Interaction-Main.sol\":1543:1559  MAX_TWEET_LENGTH */\n      0x00\n      0x14\n        /* \"contracts/Twitter-Interaction-Main.sol\":1543:1576  MAX_TWEET_LENGTH = newTweetLength */\n      0x0100\n      exp\n      dup2\n      sload\n      dup2\n      0xffff\n      mul\n      not\n      and\n      swap1\n      dup4\n      0xffff\n      and\n      mul\n      or\n      swap1\n      sstore\n      pop\n        /* \"contracts/Twitter-Interaction-Main.sol\":1465:1584  function changeTweetLength(uint16 newTweetLength) public onlyOwner {... */\n      pop\n      jump\t// out\n        /* \"contracts/Twitter-Interaction-Main.sol\":2137:2440  function likeTweet(address author, uint256 id) external onlyRegistered {... */\n    tag_36:\n        /* \"contracts/Twitter-Interaction-Main.sol\":985:1028  IProfile.UserProfile memory userProfileTemp */\n      0x00\n        /* \"contracts/Twitter-Interaction-Main.sol\":1031:1046  profileContract */\n      0x02\n      0x00\n      swap1\n      sload\n      swap1\n      0x0100\n      exp\n      swap1\n      div\n      0xffffffffffffffffffffffffffffffffffffffff\n      and\n        /* \"contracts/Twitter-Interaction-Main.sol\":1031:1057  profileContract.getProfile */\n      0xffffffffffffffffffffffffffffffffffffffff\n      and\n      0x0f53a470\n        /* \"contracts/Twitter-Interaction-Main.sol\":1058:1068  msg.sender */\n      caller\n        /* \"contracts/Twitter-Interaction-Main.sol\":1031:1069  profileContract.getProfile(msg.sender) */\n      mload(0x40)\n      dup3\n      0xffffffff\n      and\n      0xe0\n      shl\n      dup2\n      mstore\n      0x04\n      add\n      tag_116\n      swap2\n      swap1\n      tag_50\n      jump\t// in\n    tag_116:\n      0x00\n      mload(0x40)\n      dup1\n      dup4\n      sub\n      dup2\n      dup7\n      gas\n      staticcall\n      iszero\n      dup1\n      iszero\n      tag_118\n      jumpi\n      returndatasize\n      0x00\n      dup1\n      returndatacopy\n      revert(0x00, returndatasize)\n    tag_118:\n      pop\n      pop\n      pop\n      pop\n      mload(0x40)\n      returndatasize\n      0x00\n      dup3\n      returndatacopy\n      returndatasize\n      not(0x1f)\n      0x1f\n      dup3\n      add\n      and\n      dup3\n      add\n      dup1\n      0x40\n      mstore\n      pop\n      dup2\n      add\n      swap1\n      tag_119\n      swap2\n      swap1\n      tag_82\n      jump\t// in\n    tag_119:\n        /* \"contracts/Twitter-Interaction-Main.sol\":985:1069  IProfile.UserProfile memory userProfileTemp = profileContract.getProfile(msg.sender) */\n      swap1\n      pop\n        /* \"contracts/Twitter-Interaction-Main.sol\":1134:1135  0 */\n      0x00\n        /* \"contracts/Twitter-Interaction-Main.sol\":1096:1111  userProfileTemp */\n      dup2\n        /* \"contracts/Twitter-Interaction-Main.sol\":1096:1123  userProfileTemp.displayName */\n      0x00\n      add\n      mload\n        /* \"contracts/Twitter-Interaction-Main.sol\":1090:1131  bytes(userProfileTemp.displayName).length */\n      mload\n        /* \"contracts/Twitter-Interaction-Main.sol\":1090:1135  bytes(userProfileTemp.displayName).length > 0 */\n      gt\n        /* \"contracts/Twitter-Interaction-Main.sol\":1082:1159  require(bytes(userProfileTemp.displayName).length > 0,\"User not Registered\" ) */\n      tag_120\n      jumpi\n      mload(0x40)\n      0x08c379a000000000000000000000000000000000000000000000000000000000\n      dup2\n      mstore\n      0x04\n      add\n      tag_121\n      swap1\n      tag_85\n      jump\t// in\n    tag_121:\n      mload(0x40)\n      dup1\n      swap2\n      sub\n      swap1\n      revert\n    tag_120:\n        /* \"contracts/Twitter-Interaction-Main.sol\":2232:2238  tweets */\n      0x01\n        /* \"contracts/Twitter-Interaction-Main.sol\":2232:2246  tweets[author] */\n      0x00\n        /* \"contracts/Twitter-Interaction-Main.sol\":2239:2245  author */\n      dup5\n        /* \"contracts/Twitter-Interaction-Main.sol\":2232:2246  tweets[author] */\n      0xffffffffffffffffffffffffffffffffffffffff\n      and\n      0xffffffffffffffffffffffffffffffffffffffff\n      and\n      dup2\n      mstore\n      0x20\n      add\n      swap1\n      dup2\n      mstore\n      0x20\n      add\n      0x00\n      keccak256\n        /* \"contracts/Twitter-Interaction-Main.sol\":2232:2253  tweets[author].length */\n      dup1\n      sload\n      swap1\n      pop\n        /* \"contracts/Twitter-Interaction-Main.sol\":2227:2229  id */\n      dup3\n        /* \"contracts/Twitter-Interaction-Main.sol\":2227:2253  id < tweets[author].length */\n      lt\n        /* \"contracts/Twitter-Interaction-Main.sol\":2227:2284  id < tweets[author].length && tweets[author][id].id == id */\n      dup1\n      iszero\n      tag_123\n      jumpi\n      pop\n        /* \"contracts/Twitter-Interaction-Main.sol\":2282:2284  id */\n      dup2\n        /* \"contracts/Twitter-Interaction-Main.sol\":2257:2263  tweets */\n      0x01\n        /* \"contracts/Twitter-Interaction-Main.sol\":2257:2271  tweets[author] */\n      0x00\n        /* \"contracts/Twitter-Interaction-Main.sol\":2264:2270  author */\n      dup6\n        /* \"contracts/Twitter-Interaction-Main.sol\":2257:2271  tweets[author] */\n      0xffffffffffffffffffffffffffffffffffffffff\n      and\n      0xffffffffffffffffffffffffffffffffffffffff\n      and\n      dup2\n      mstore\n      0x20\n      add\n      swap1\n      dup2\n      mstore\n      0x20\n      add\n      0x00\n      keccak256\n        /* \"contracts/Twitter-Interaction-Main.sol\":2272:2274  id */\n      dup4\n        /* \"contracts/Twitter-Interaction-Main.sol\":2257:2275  tweets[author][id] */\n      dup2\n      sload\n      dup2\n      lt\n      tag_124\n      jumpi\n      tag_125\n      tag_90\n      jump\t// in\n    tag_125:\n    tag_124:\n      swap1\n      0x00\n      mstore\n      keccak256(0x00, 0x20)\n      swap1\n      0x05\n      mul\n      add\n        /* \"contracts/Twitter-Interaction-Main.sol\":2257:2278  tweets[author][id].id */\n      0x00\n      add\n      sload\n        /* \"contracts/Twitter-Interaction-Main.sol\":2257:2284  tweets[author][id].id == id */\n      eq\n        /* \"contracts/Twitter-Interaction-Main.sol\":2227:2284  id < tweets[author].length && tweets[author][id].id == id */\n    tag_123:\n        /* \"contracts/Twitter-Interaction-Main.sol\":2219:2309  require(id < tweets[author].length && tweets[author][id].id == id, \"Tweet Does Not Exist\") */\n      tag_127\n      jumpi\n      mload(0x40)\n      0x08c379a000000000000000000000000000000000000000000000000000000000\n      dup2\n      mstore\n      0x04\n      add\n      tag_128\n      swap1\n      tag_94\n      jump\t// in\n    tag_128:\n      mload(0x40)\n      dup1\n      swap2\n      sub\n      swap1\n      revert\n    tag_127:\n        /* \"contracts/Twitter-Interaction-Main.sol\":2330:2336  tweets */\n      0x01\n        /* \"contracts/Twitter-Interaction-Main.sol\":2330:2344  tweets[author] */\n      0x00\n        /* \"contracts/Twitter-Interaction-Main.sol\":2337:2343  author */\n      dup5\n        /* \"contracts/Twitter-Interaction-Main.sol\":2330:2344  tweets[author] */\n      0xffffffffffffffffffffffffffffffffffffffff\n      and\n      0xffffffffffffffffffffffffffffffffffffffff\n      and\n      dup2\n      mstore\n      0x20\n      add\n      swap1\n      dup2\n      mstore\n      0x20\n      add\n      0x00\n      keccak256\n        /* \"contracts/Twitter-Interaction-Main.sol\":2345:2347  id */\n      dup3\n        /* \"contracts/Twitter-Interaction-Main.sol\":2330:2348  tweets[author][id] */\n      dup2\n      sload\n      dup2\n      lt\n      tag_129\n      jumpi\n      tag_130\n      tag_90\n      jump\t// in\n    tag_130:\n    tag_129:\n      swap1\n      0x00\n      mstore\n      keccak256(0x00, 0x20)\n      swap1\n      0x05\n      mul\n      add\n        /* \"contracts/Twitter-Interaction-Main.sol\":2330:2354  tweets[author][id].likes */\n      0x04\n      add\n      0x00\n        /* \"contracts/Twitter-Interaction-Main.sol\":2330:2356  tweets[author][id].likes++ */\n      dup2\n      sload\n      dup1\n      swap3\n      swap2\n      swap1\n      tag_132\n      swap1\n      tag_133\n      jump\t// in\n    tag_132:\n      swap2\n      swap1\n      pop\n      sstore\n      pop\n        /* \"contracts/Twitter-Interaction-Main.sol\":2372:2432  TweetLiked(msg.sender, author, id, tweets[author][id].likes) */\n      0xe8a76fc0f16d11a00d1e93b689b63d76cf60af914dd3d915375dc41d01a0c3c8\n        /* \"contracts/Twitter-Interaction-Main.sol\":2383:2393  msg.sender */\n      caller\n        /* \"contracts/Twitter-Interaction-Main.sol\":2395:2401  author */\n      dup5\n        /* \"contracts/Twitter-Interaction-Main.sol\":2403:2405  id */\n      dup5\n        /* \"contracts/Twitter-Interaction-Main.sol\":2407:2413  tweets */\n      0x01\n        /* \"contracts/Twitter-Interaction-Main.sol\":2407:2421  tweets[author] */\n      0x00\n        /* \"contracts/Twitter-Interaction-Main.sol\":2414:2420  author */\n      dup9\n        /* \"contracts/Twitter-Interaction-Main.sol\":2407:2421  tweets[author] */\n      0xffffffffffffffffffffffffffffffffffffffff\n      and\n      0xffffffffffffffffffffffffffffffffffffffff\n      and\n      dup2\n      mstore\n      0x20\n      add\n      swap1\n      dup2\n      mstore\n      0x20\n      add\n      0x00\n      keccak256\n        /* \"contracts/Twitter-Interaction-Main.sol\":2422:2424  id */\n      dup7\n        /* \"contracts/Twitter-Interaction-Main.sol\":2407:2425  tweets[author][id] */\n      dup2\n      sload\n      dup2\n      lt\n      tag_134\n      jumpi\n      tag_135\n      tag_90\n      jump\t// in\n    tag_135:\n    tag_134:\n      swap1\n      0x00\n      mstore\n      keccak256(0x00, 0x20)\n      swap1\n      0x05\n      mul\n      add\n        /* \"contracts/Twitter-Interaction-Main.sol\":2407:2431  tweets[author][id].likes */\n      0x04\n      add\n      sload\n        /* \"contracts/Twitter-Interaction-Main.sol\":2372:2432  TweetLiked(msg.sender, author, id, tweets[author][id].likes) */\n      mload(0x40)\n      tag_137\n      swap5\n      swap4\n      swap3\n      swap2\n      swap1\n      tag_110\n      jump\t// in\n    tag_137:\n      mload(0x40)\n      dup1\n      swap2\n      sub\n      swap1\n      log1\n        /* \"contracts/Twitter-Interaction-Main.sol\":964:1183  {... */\n      pop\n        /* \"contracts/Twitter-Interaction-Main.sol\":2137:2440  function likeTweet(address author, uint256 id) external onlyRegistered {... */\n      pop\n      pop\n      jump\t// out\n        /* \"contracts/Twitter-Interaction-Main.sol\":350:386  uint16 public MAX_TWEET_LENGTH = 280 */\n    tag_38:\n      0x00\n      0x14\n      swap1\n      sload\n      swap1\n      0x0100\n      exp\n      swap1\n      div\n      0xffff\n      and\n      dup2\n      jump\t// out\n        /* \"@openzeppelin/contracts/access/Ownable.sol\":2293:2394  function renounceOwnership() public virtual onlyOwner {... */\n    tag_42:\n        /* \"@openzeppelin/contracts/access/Ownable.sol\":1531:1544  _checkOwner() */\n      tag_139\n        /* \"@openzeppelin/contracts/access/Ownable.sol\":1531:1542  _checkOwner */\n      tag_113\n        /* \"@openzeppelin/contracts/access/Ownable.sol\":1531:1544  _checkOwner() */\n      jump\t// in\n    tag_139:\n        /* \"@openzeppelin/contracts/access/Ownable.sol\":2357:2387  _transferOwnership(address(0)) */\n      tag_141\n        /* \"@openzeppelin/contracts/access/Ownable.sol\":2384:2385  0 */\n      0x00\n        /* \"@openzeppelin/contracts/access/Ownable.sol\":2357:2375  _transferOwnership */\n      tag_142\n        /* \"@openzeppelin/contracts/access/Ownable.sol\":2357:2387  _transferOwnership(address(0)) */\n      jump\t// in\n    tag_141:\n        /* \"@openzeppelin/contracts/access/Ownable.sol\":2293:2394  function renounceOwnership() public virtual onlyOwner {... */\n      jump\t// out\n        /* \"contracts/Twitter-Interaction-Main.sol\":1592:2129  function createTweet(string memory _tweet) public onlyRegistered{... */\n    tag_46:\n        /* \"contracts/Twitter-Interaction-Main.sol\":985:1028  IProfile.UserProfile memory userProfileTemp */\n      0x00\n        /* \"contracts/Twitter-Interaction-Main.sol\":1031:1046  profileContract */\n      0x02\n      0x00\n      swap1\n      sload\n      swap1\n      0x0100\n      exp\n      swap1\n      div\n      0xffffffffffffffffffffffffffffffffffffffff\n      and\n        /* \"contracts/Twitter-Interaction-Main.sol\":1031:1057  profileContract.getProfile */\n      0xffffffffffffffffffffffffffffffffffffffff\n      and\n      0x0f53a470\n        /* \"contracts/Twitter-Interaction-Main.sol\":1058:1068  msg.sender */\n      caller\n        /* \"contracts/Twitter-Interaction-Main.sol\":1031:1069  profileContract.getProfile(msg.sender) */\n      mload(0x40)\n      dup3\n      0xffffffff\n      and\n      0xe0\n      shl\n      dup2\n      mstore\n      0x04\n      add\n      tag_144\n      swap2\n      swap1\n      tag_50\n      jump\t// in\n    tag_144:\n      0x00\n      mload(0x40)\n      dup1\n      dup4\n      sub\n      dup2\n      dup7\n      gas\n      staticcall\n      iszero\n      dup1\n      iszero\n      tag_146\n      jumpi\n      returndatasize\n      0x00\n      dup1\n      returndatacopy\n      revert(0x00, returndatasize)\n    tag_146:\n      pop\n      pop\n      pop\n      pop\n      mload(0x40)\n      returndatasize\n      0x00\n      dup3\n      returndatacopy\n      returndatasize\n      not(0x1f)\n      0x1f\n      dup3\n      add\n      and\n      dup3\n      add\n      dup1\n      0x40\n      mstore\n      pop\n      dup2\n      add\n      swap1\n      tag_147\n      swap2\n      swap1\n      tag_82\n      jump\t// in\n    tag_147:\n        /* \"contracts/Twitter-Interaction-Main.sol\":985:1069  IProfile.UserProfile memory userProfileTemp = profileContract.getProfile(msg.sender) */\n      swap1\n      pop\n        /* \"contracts/Twitter-Interaction-Main.sol\":1134:1135  0 */\n      0x00\n        /* \"contracts/Twitter-Interaction-Main.sol\":1096:1111  userProfileTemp */\n      dup2\n        /* \"contracts/Twitter-Interaction-Main.sol\":1096:1123  userProfileTemp.displayName */\n      0x00\n      add\n      mload\n        /* \"contracts/Twitter-Interaction-Main.sol\":1090:1131  bytes(userProfileTemp.displayName).length */\n      mload\n        /* \"contracts/Twitter-Interaction-Main.sol\":1090:1135  bytes(userProfileTemp.displayName).length > 0 */\n      gt\n        /* \"contracts/Twitter-Interaction-Main.sol\":1082:1159  require(bytes(userProfileTemp.displayName).length > 0,\"User not Registered\" ) */\n      tag_148\n      jumpi\n      mload(0x40)\n      0x08c379a000000000000000000000000000000000000000000000000000000000\n      dup2\n      mstore\n      0x04\n      add\n      tag_149\n      swap1\n      tag_85\n      jump\t// in\n    tag_149:\n      mload(0x40)\n      dup1\n      swap2\n      sub\n      swap1\n      revert\n    tag_148:\n        /* \"contracts/Twitter-Interaction-Main.sol\":1699:1715  MAX_TWEET_LENGTH */\n      0x00\n      0x14\n      swap1\n      sload\n      swap1\n      0x0100\n      exp\n      swap1\n      div\n      0xffff\n      and\n        /* \"contracts/Twitter-Interaction-Main.sol\":1675:1715  bytes(_tweet).length <= MAX_TWEET_LENGTH */\n      0xffff\n      and\n        /* \"contracts/Twitter-Interaction-Main.sol\":1681:1687  _tweet */\n      dup3\n        /* \"contracts/Twitter-Interaction-Main.sol\":1675:1695  bytes(_tweet).length */\n      mload\n        /* \"contracts/Twitter-Interaction-Main.sol\":1675:1715  bytes(_tweet).length <= MAX_TWEET_LENGTH */\n      gt\n      iszero\n        /* \"contracts/Twitter-Interaction-Main.sol\":1667:1743  require(bytes(_tweet).length <= MAX_TWEET_LENGTH, \"Tweet is too long bro: \") */\n      tag_151\n      jumpi\n      mload(0x40)\n      0x08c379a000000000000000000000000000000000000000000000000000000000\n      dup2\n      mstore\n      0x04\n      add\n      tag_152\n      swap1\n      tag_153\n      jump\t// in\n    tag_152:\n      mload(0x40)\n      dup1\n      swap2\n      sub\n      swap1\n      revert\n    tag_151:\n        /* \"contracts/Twitter-Interaction-Main.sol\":1764:1785  Tweet memory newTweet */\n      0x00\n        /* \"contracts/Twitter-Interaction-Main.sol\":1788:1978  Tweet({... */\n      mload(0x40)\n      dup1\n      0xa0\n      add\n      0x40\n      mstore\n      dup1\n        /* \"contracts/Twitter-Interaction-Main.sol\":1813:1819  tweets */\n      0x01\n        /* \"contracts/Twitter-Interaction-Main.sol\":1813:1831  tweets[msg.sender] */\n      0x00\n        /* \"contracts/Twitter-Interaction-Main.sol\":1820:1830  msg.sender */\n      caller\n        /* \"contracts/Twitter-Interaction-Main.sol\":1813:1831  tweets[msg.sender] */\n      0xffffffffffffffffffffffffffffffffffffffff\n      and\n      0xffffffffffffffffffffffffffffffffffffffff\n      and\n      dup2\n      mstore\n      0x20\n      add\n      swap1\n      dup2\n      mstore\n      0x20\n      add\n      0x00\n      keccak256\n        /* \"contracts/Twitter-Interaction-Main.sol\":1813:1838  tweets[msg.sender].length */\n      dup1\n      sload\n      swap1\n      pop\n        /* \"contracts/Twitter-Interaction-Main.sol\":1788:1978  Tweet({... */\n      dup2\n      mstore\n      0x20\n      add\n        /* \"contracts/Twitter-Interaction-Main.sol\":1861:1871  msg.sender */\n      caller\n        /* \"contracts/Twitter-Interaction-Main.sol\":1788:1978  Tweet({... */\n      0xffffffffffffffffffffffffffffffffffffffff\n      and\n      dup2\n      mstore\n      0x20\n      add\n        /* \"contracts/Twitter-Interaction-Main.sol\":1895:1901  _tweet */\n      dup5\n        /* \"contracts/Twitter-Interaction-Main.sol\":1788:1978  Tweet({... */\n      dup2\n      mstore\n      0x20\n      add\n        /* \"contracts/Twitter-Interaction-Main.sol\":1928:1943  block.timestamp */\n      timestamp\n        /* \"contracts/Twitter-Interaction-Main.sol\":1788:1978  Tweet({... */\n      dup2\n      mstore\n      0x20\n      add\n        /* \"contracts/Twitter-Interaction-Main.sol\":1965:1966  0 */\n      0x00\n        /* \"contracts/Twitter-Interaction-Main.sol\":1788:1978  Tweet({... */\n      dup2\n      mstore\n      pop\n        /* \"contracts/Twitter-Interaction-Main.sol\":1764:1978  Tweet memory newTweet = Tweet({... */\n      swap1\n      pop\n        /* \"contracts/Twitter-Interaction-Main.sol\":1991:1997  tweets */\n      0x01\n        /* \"contracts/Twitter-Interaction-Main.sol\":1991:2009  tweets[msg.sender] */\n      0x00\n        /* \"contracts/Twitter-Interaction-Main.sol\":1998:2008  msg.sender */\n      caller\n        /* \"contracts/Twitter-Interaction-Main.sol\":1991:2009  tweets[msg.sender] */\n      0xffffffffffffffffffffffffffffffffffffffff\n      and\n      0xffffffffffffffffffffffffffffffffffffffff\n      and\n      dup2\n      mstore\n      0x20\n      add\n      swap1\n      dup2\n      mstore\n      0x20\n      add\n      0x00\n      keccak256\n        /* \"contracts/Twitter-Interaction-Main.sol\":2015:2023  newTweet */\n      dup2\n        /* \"contracts/Twitter-Interaction-Main.sol\":1991:2024  tweets[msg.sender].push(newTweet) */\n      swap1\n      dup1\n      0x01\n      dup2\n      sload\n      add\n      dup1\n      dup3\n      sstore\n      dup1\n      swap2\n      pop\n      pop\n      0x01\n      swap1\n      sub\n      swap1\n      0x00\n      mstore\n      keccak256(0x00, 0x20)\n      swap1\n      0x05\n      mul\n      add\n      0x00\n      swap1\n      swap2\n      swap1\n      swap2\n      swap1\n      swap2\n      pop\n      0x00\n      dup3\n      add\n      mload\n      dup2\n      0x00\n      add\n      sstore\n      0x20\n      dup3\n      add\n      mload\n      dup2\n      0x01\n      add\n      exp(0x0100, 0x00)\n      dup2\n      sload\n      dup2\n      0xffffffffffffffffffffffffffffffffffffffff\n      mul\n      not\n      and\n      swap1\n      dup4\n      0xffffffffffffffffffffffffffffffffffffffff\n      and\n      mul\n      or\n      swap1\n      sstore\n      pop\n      0x40\n      dup3\n      add\n      mload\n      dup2\n      0x02\n      add\n      swap1\n      dup2\n      tag_155\n      swap2\n      swap1\n      tag_156\n      jump\t// in\n    tag_155:\n      pop\n      0x60\n      dup3\n      add\n      mload\n      dup2\n      0x03\n      add\n      sstore\n      0x80\n      dup3\n      add\n      mload\n      dup2\n      0x04\n      add\n      sstore\n      pop\n      pop\n        /* \"contracts/Twitter-Interaction-Main.sol\":2040:2121  TweetCreated(newTweet.id, newTweet.author, newTweet.content, newTweet.timestamps) */\n      0x16fd3c13e9d46923e0a8bce11c7b473ec508a72e6c96cd2404b29ce972afc29e\n        /* \"contracts/Twitter-Interaction-Main.sol\":2053:2061  newTweet */\n      dup2\n        /* \"contracts/Twitter-Interaction-Main.sol\":2053:2064  newTweet.id */\n      0x00\n      add\n      mload\n        /* \"contracts/Twitter-Interaction-Main.sol\":2066:2074  newTweet */\n      dup3\n        /* \"contracts/Twitter-Interaction-Main.sol\":2066:2081  newTweet.author */\n      0x20\n      add\n      mload\n        /* \"contracts/Twitter-Interaction-Main.sol\":2083:2091  newTweet */\n      dup4\n        /* \"contracts/Twitter-Interaction-Main.sol\":2083:2099  newTweet.content */\n      0x40\n      add\n      mload\n        /* \"contracts/Twitter-Interaction-Main.sol\":2101:2109  newTweet */\n      dup5\n        /* \"contracts/Twitter-Interaction-Main.sol\":2101:2120  newTweet.timestamps */\n      0x60\n      add\n      mload\n        /* \"contracts/Twitter-Interaction-Main.sol\":2040:2121  TweetCreated(newTweet.id, newTweet.author, newTweet.content, newTweet.timestamps) */\n      mload(0x40)\n      tag_157\n      swap5\n      swap4\n      swap3\n      swap2\n      swap1\n      tag_158\n      jump\t// in\n    tag_157:\n      mload(0x40)\n      dup1\n      swap2\n      sub\n      swap1\n      log1\n        /* \"contracts/Twitter-Interaction-Main.sol\":1656:2129  {... */\n      pop\n        /* \"contracts/Twitter-Interaction-Main.sol\":964:1183  {... */\n      pop\n        /* \"contracts/Twitter-Interaction-Main.sol\":1592:2129  function createTweet(string memory _tweet) public onlyRegistered{... */\n      pop\n      jump\t// out\n        /* \"@openzeppelin/contracts/access/Ownable.sol\":1638:1723  function owner() public view virtual returns (address) {... */\n    tag_48:\n        /* \"@openzeppelin/contracts/access/Ownable.sol\":1684:1691  address */\n      0x00\n        /* \"@openzeppelin/contracts/access/Ownable.sol\":1710:1716  _owner */\n      dup1\n      0x00\n      swap1\n      sload\n      swap1\n      0x0100\n      exp\n      swap1\n      div\n      0xffffffffffffffffffffffffffffffffffffffff\n      and\n        /* \"@openzeppelin/contracts/access/Ownable.sol\":1703:1716  return _owner */\n      swap1\n      pop\n        /* \"@openzeppelin/contracts/access/Ownable.sol\":1638:1723  function owner() public view virtual returns (address) {... */\n      swap1\n      jump\t// out\n        /* \"contracts/Twitter-Interaction-Main.sol\":2834:2947  function getTweet(uint256 _i) public view returns (Tweet memory) {... */\n    tag_54:\n        /* \"contracts/Twitter-Interaction-Main.sol\":2885:2897  Tweet memory */\n      tag_160\n      tag_161\n      jump\t// in\n    tag_160:\n        /* \"contracts/Twitter-Interaction-Main.sol\":2917:2923  tweets */\n      0x01\n        /* \"contracts/Twitter-Interaction-Main.sol\":2917:2935  tweets[msg.sender] */\n      0x00\n        /* \"contracts/Twitter-Interaction-Main.sol\":2924:2934  msg.sender */\n      caller\n        /* \"contracts/Twitter-Interaction-Main.sol\":2917:2935  tweets[msg.sender] */\n      0xffffffffffffffffffffffffffffffffffffffff\n      and\n      0xffffffffffffffffffffffffffffffffffffffff\n      and\n      dup2\n      mstore\n      0x20\n      add\n      swap1\n      dup2\n      mstore\n      0x20\n      add\n      0x00\n      keccak256\n        /* \"contracts/Twitter-Interaction-Main.sol\":2936:2938  _i */\n      dup3\n        /* \"contracts/Twitter-Interaction-Main.sol\":2917:2939  tweets[msg.sender][_i] */\n      dup2\n      sload\n      dup2\n      lt\n      tag_163\n      jumpi\n      tag_164\n      tag_90\n      jump\t// in\n    tag_164:\n    tag_163:\n      swap1\n      0x00\n      mstore\n      keccak256(0x00, 0x20)\n      swap1\n      0x05\n      mul\n      add\n        /* \"contracts/Twitter-Interaction-Main.sol\":2910:2939  return tweets[msg.sender][_i] */\n      mload(0x40)\n      dup1\n      0xa0\n      add\n      0x40\n      mstore\n      swap1\n      dup2\n      0x00\n      dup3\n      add\n      sload\n      dup2\n      mstore\n      0x20\n      add\n      0x01\n      dup3\n      add\n      0x00\n      swap1\n      sload\n      swap1\n      0x0100\n      exp\n      swap1\n      div\n      0xffffffffffffffffffffffffffffffffffffffff\n      and\n      0xffffffffffffffffffffffffffffffffffffffff\n      and\n      0xffffffffffffffffffffffffffffffffffffffff\n      and\n      dup2\n      mstore\n      0x20\n      add\n      0x02\n      dup3\n      add\n      dup1\n      sload\n      tag_166\n      swap1\n      tag_63\n      jump\t// in\n    tag_166:\n      dup1\n      0x1f\n      add\n      0x20\n      dup1\n      swap2\n      div\n      mul\n      0x20\n      add\n      mload(0x40)\n      swap1\n      dup2\n      add\n      0x40\n      mstore\n      dup1\n      swap3\n      swap2\n      swap1\n      dup2\n      dup2\n      mstore\n      0x20\n      add\n      dup3\n      dup1\n      sload\n      tag_167\n      swap1\n      tag_63\n      jump\t// in\n    tag_167:\n      dup1\n      iszero\n      tag_168\n      jumpi\n      dup1\n      0x1f\n      lt\n      tag_169\n      jumpi\n      0x0100\n      dup1\n      dup4\n      sload\n      div\n      mul\n      dup4\n      mstore\n      swap2\n      0x20\n      add\n      swap2\n      jump(tag_168)\n    tag_169:\n      dup3\n      add\n      swap2\n      swap1\n      0x00\n      mstore\n      keccak256(0x00, 0x20)\n      swap1\n    tag_170:\n      dup2\n      sload\n      dup2\n      mstore\n      swap1\n      0x01\n      add\n      swap1\n      0x20\n      add\n      dup1\n      dup4\n      gt\n      tag_170\n      jumpi\n      dup3\n      swap1\n      sub\n      0x1f\n      and\n      dup3\n      add\n      swap2\n    tag_168:\n      pop\n      pop\n      pop\n      pop\n      pop\n      dup2\n      mstore\n      0x20\n      add\n      0x03\n      dup3\n      add\n      sload\n      dup2\n      mstore\n      0x20\n      add\n      0x04\n      dup3\n      add\n      sload\n      dup2\n      mstore\n      pop\n      pop\n      swap1\n      pop\n        /* \"contracts/Twitter-Interaction-Main.sol\":2834:2947  function getTweet(uint256 _i) public view returns (Tweet memory) {... */\n      swap2\n      swap1\n      pop\n      jump\t// out\n        /* \"@openzeppelin/contracts/access/Ownable.sol\":2543:2758  function transferOwnership(address newOwner) public virtual onlyOwner {... */\n    tag_59:\n        /* \"@openzeppelin/contracts/access/Ownable.sol\":1531:1544  _checkOwner() */\n      tag_172\n        /* \"@openzeppelin/contracts/access/Ownable.sol\":1531:1542  _checkOwner */\n      tag_113\n        /* \"@openzeppelin/contracts/access/Ownable.sol\":1531:1544  _checkOwner() */\n      jump\t// in\n    tag_172:\n        /* \"@openzeppelin/contracts/access/Ownable.sol\":2647:2648  0 */\n      0x00\n        /* \"@openzeppelin/contracts/access/Ownable.sol\":2627:2649  newOwner == address(0) */\n      0xffffffffffffffffffffffffffffffffffffffff\n      and\n        /* \"@openzeppelin/contracts/access/Ownable.sol\":2627:2635  newOwner */\n      dup2\n        /* \"@openzeppelin/contracts/access/Ownable.sol\":2627:2649  newOwner == address(0) */\n      0xffffffffffffffffffffffffffffffffffffffff\n      and\n      sub\n        /* \"@openzeppelin/contracts/access/Ownable.sol\":2623:2714  if (newOwner == address(0)) {... */\n      tag_174\n      jumpi\n        /* \"@openzeppelin/contracts/access/Ownable.sol\":2700:2701  0 */\n      0x00\n        /* \"@openzeppelin/contracts/access/Ownable.sol\":2672:2703  OwnableInvalidOwner(address(0)) */\n      mload(0x40)\n      0x1e4fbdf700000000000000000000000000000000000000000000000000000000\n      dup2\n      mstore\n      0x04\n      add\n      tag_175\n      swap2\n      swap1\n      tag_50\n      jump\t// in\n    tag_175:\n      mload(0x40)\n      dup1\n      swap2\n      sub\n      swap1\n      revert\n        /* \"@openzeppelin/contracts/access/Ownable.sol\":2623:2714  if (newOwner == address(0)) {... */\n    tag_174:\n        /* \"@openzeppelin/contracts/access/Ownable.sol\":2723:2751  _transferOwnership(newOwner) */\n      tag_176\n        /* \"@openzeppelin/contracts/access/Ownable.sol\":2742:2750  newOwner */\n      dup2\n        /* \"@openzeppelin/contracts/access/Ownable.sol\":2723:2741  _transferOwnership */\n      tag_142\n        /* \"@openzeppelin/contracts/access/Ownable.sol\":2723:2751  _transferOwnership(newOwner) */\n      jump\t// in\n    tag_176:\n        /* \"@openzeppelin/contracts/access/Ownable.sol\":2543:2758  function transferOwnership(address newOwner) public virtual onlyOwner {... */\n      pop\n      jump\t// out\n        /* \"@openzeppelin/contracts/access/Ownable.sol\":1796:1958  function _checkOwner() internal view virtual {... */\n    tag_113:\n        /* \"@openzeppelin/contracts/access/Ownable.sol\":1866:1878  _msgSender() */\n      tag_178\n        /* \"@openzeppelin/contracts/access/Ownable.sol\":1866:1876  _msgSender */\n      tag_179\n        /* \"@openzeppelin/contracts/access/Ownable.sol\":1866:1878  _msgSender() */\n      jump\t// in\n    tag_178:\n        /* \"@openzeppelin/contracts/access/Ownable.sol\":1855:1878  owner() != _msgSender() */\n      0xffffffffffffffffffffffffffffffffffffffff\n      and\n        /* \"@openzeppelin/contracts/access/Ownable.sol\":1855:1862  owner() */\n      tag_180\n        /* \"@openzeppelin/contracts/access/Ownable.sol\":1855:1860  owner */\n      tag_48\n        /* \"@openzeppelin/contracts/access/Ownable.sol\":1855:1862  owner() */\n      jump\t// in\n    tag_180:\n        /* \"@openzeppelin/contracts/access/Ownable.sol\":1855:1878  owner() != _msgSender() */\n      0xffffffffffffffffffffffffffffffffffffffff\n      and\n      eq\n        /* \"@openzeppelin/contracts/access/Ownable.sol\":1851:1952  if (owner() != _msgSender()) {... */\n      tag_181\n      jumpi\n        /* \"@openzeppelin/contracts/access/Ownable.sol\":1928:1940  _msgSender() */\n      tag_182\n        /* \"@openzeppelin/contracts/access/Ownable.sol\":1928:1938  _msgSender */\n      tag_179\n        /* \"@openzeppelin/contracts/access/Ownable.sol\":1928:1940  _msgSender() */\n      jump\t// in\n    tag_182:\n        /* \"@openzeppelin/contracts/access/Ownable.sol\":1901:1941  OwnableUnauthorizedAccount(_msgSender()) */\n      mload(0x40)\n      0x118cdaa700000000000000000000000000000000000000000000000000000000\n      dup2\n      mstore\n      0x04\n      add\n      tag_183\n      swap2\n      swap1\n      tag_50\n      jump\t// in\n    tag_183:\n      mload(0x40)\n      dup1\n      swap2\n      sub\n      swap1\n      revert\n        /* \"@openzeppelin/contracts/access/Ownable.sol\":1851:1952  if (owner() != _msgSender()) {... */\n    tag_181:\n        /* \"@openzeppelin/contracts/access/Ownable.sol\":1796:1958  function _checkOwner() internal view virtual {... */\n      jump\t// out\n        /* \"@openzeppelin/contracts/access/Ownable.sol\":2912:3099  function _transferOwnership(address newOwner) internal virtual {... */\n    tag_142:\n        /* \"@openzeppelin/contracts/access/Ownable.sol\":2985:3001  address oldOwner */\n      0x00\n        /* \"@openzeppelin/contracts/access/Ownable.sol\":3004:3010  _owner */\n      dup1\n      0x00\n      swap1\n      sload\n      swap1\n      0x0100\n      exp\n      swap1\n      div\n      0xffffffffffffffffffffffffffffffffffffffff\n      and\n        /* \"@openzeppelin/contracts/access/Ownable.sol\":2985:3010  address oldOwner = _owner */\n      swap1\n      pop\n        /* \"@openzeppelin/contracts/access/Ownable.sol\":3029:3037  newOwner */\n      dup2\n        /* \"@openzeppelin/contracts/access/Ownable.sol\":3020:3026  _owner */\n      0x00\n      dup1\n        /* \"@openzeppelin/contracts/access/Ownable.sol\":3020:3037  _owner = newOwner */\n      0x0100\n      exp\n      dup2\n      sload\n      dup2\n      0xffffffffffffffffffffffffffffffffffffffff\n      mul\n      not\n      and\n      swap1\n      dup4\n      0xffffffffffffffffffffffffffffffffffffffff\n      and\n      mul\n      or\n      swap1\n      sstore\n      pop\n        /* \"@openzeppelin/contracts/access/Ownable.sol\":3083:3091  newOwner */\n      dup2\n        /* \"@openzeppelin/contracts/access/Ownable.sol\":3052:3092  OwnershipTransferred(oldOwner, newOwner) */\n      0xffffffffffffffffffffffffffffffffffffffff\n      and\n        /* \"@openzeppelin/contracts/access/Ownable.sol\":3073:3081  oldOwner */\n      dup2\n        /* \"@openzeppelin/contracts/access/Ownable.sol\":3052:3092  OwnershipTransferred(oldOwner, newOwner) */\n      0xffffffffffffffffffffffffffffffffffffffff\n      and\n      0x8be0079c531659141344cd1fd0a4f28419497f9722a3daafe3b4186f6b6457e0\n      mload(0x40)\n      mload(0x40)\n      dup1\n      swap2\n      sub\n      swap1\n      log3\n        /* \"@openzeppelin/contracts/access/Ownable.sol\":2975:3099  {... */\n      pop\n        /* \"@openzeppelin/contracts/access/Ownable.sol\":2912:3099  function _transferOwnership(address newOwner) internal virtual {... */\n      pop\n      jump\t// out\n        /* \"@openzeppelin/contracts/utils/Context.sol\":656:752  function _msgSender() internal view virtual returns (address) {... */\n    tag_179:\n        /* \"@openzeppelin/contracts/utils/Context.sol\":709:716  address */\n      0x00\n        /* \"@openzeppelin/contracts/utils/Context.sol\":735:745  msg.sender */\n      caller\n        /* \"@openzeppelin/contracts/utils/Context.sol\":728:745  return msg.sender */\n      swap1\n      pop\n        /* \"@openzeppelin/contracts/utils/Context.sol\":656:752  function _msgSender() internal view virtual returns (address) {... */\n      swap1\n      jump\t// out\n    tag_161:\n      mload(0x40)\n      dup1\n      0xa0\n      add\n      0x40\n      mstore\n      dup1\n      0x00\n      dup2\n      mstore\n      0x20\n      add\n      and(0xffffffffffffffffffffffffffffffffffffffff, 0x00)\n      dup2\n      mstore\n      0x20\n      add\n      0x60\n      dup2\n      mstore\n      0x20\n      add\n      0x00\n      dup2\n      mstore\n      0x20\n      add\n      0x00\n      dup2\n      mstore\n      pop\n      swap1\n      jump\t// out\n        /* \"#utility.yul\":7:82   */\n    tag_186:\n        /* \"#utility.yul\":40:46   */\n      0x00\n        /* \"#utility.yul\":73:75   */\n      0x40\n        /* \"#utility.yul\":67:76   */\n      mload\n        /* \"#utility.yul\":57:76   */\n      swap1\n      pop\n        /* \"#utility.yul\":7:82   */\n      swap1\n      jump\t// out\n        /* \"#utility.yul\":88:205   */\n    tag_187:\n        /* \"#utility.yul\":197:198   */\n      0x00\n        /* \"#utility.yul\":194:195   */\n      dup1\n        /* \"#utility.yul\":187:199   */\n      revert\n        /* \"#utility.yul\":211:328   */\n    tag_188:\n        /* \"#utility.yul\":320:321   */\n      0x00\n        /* \"#utility.yul\":317:318   */\n      dup1\n        /* \"#utility.yul\":310:322   */\n      revert\n        /* \"#utility.yul\":334:460   */\n    tag_189:\n        /* \"#utility.yul\":371:378   */\n      0x00\n        /* \"#utility.yul\":411:453   */\n      0xffffffffffffffffffffffffffffffffffffffff\n        /* \"#utility.yul\":404:409   */\n      dup3\n        /* \"#utility.yul\":400:454   */\n      and\n        /* \"#utility.yul\":389:454   */\n      swap1\n      pop\n        /* \"#utility.yul\":334:460   */\n      swap2\n      swap1\n      pop\n      jump\t// out\n        /* \"#utility.yul\":466:562   */\n    tag_190:\n        /* \"#utility.yul\":503:510   */\n      0x00\n        /* \"#utility.yul\":532:556   */\n      tag_264\n        /* \"#utility.yul\":550:555   */\n      dup3\n        /* \"#utility.yul\":532:556   */\n      tag_189\n      jump\t// in\n    tag_264:\n        /* \"#utility.yul\":521:556   */\n      swap1\n      pop\n        /* \"#utility.yul\":466:562   */\n      swap2\n      swap1\n      pop\n      jump\t// out\n        /* \"#utility.yul\":568:690   */\n    tag_191:\n        /* \"#utility.yul\":641:665   */\n      tag_266\n        /* \"#utility.yul\":659:664   */\n      dup2\n        /* \"#utility.yul\":641:665   */\n      tag_190\n      jump\t// in\n    tag_266:\n        /* \"#utility.yul\":634:639   */\n      dup2\n        /* \"#utility.yul\":631:666   */\n      eq\n        /* \"#utility.yul\":621:684   */\n      tag_267\n      jumpi\n        /* \"#utility.yul\":680:681   */\n      0x00\n        /* \"#utility.yul\":677:678   */\n      dup1\n        /* \"#utility.yul\":670:682   */\n      revert\n        /* \"#utility.yul\":621:684   */\n    tag_267:\n        /* \"#utility.yul\":568:690   */\n      pop\n      jump\t// out\n        /* \"#utility.yul\":696:835   */\n    tag_192:\n        /* \"#utility.yul\":742:747   */\n      0x00\n        /* \"#utility.yul\":780:786   */\n      dup2\n        /* \"#utility.yul\":767:787   */\n      calldataload\n        /* \"#utility.yul\":758:787   */\n      swap1\n      pop\n        /* \"#utility.yul\":796:829   */\n      tag_269\n        /* \"#utility.yul\":823:828   */\n      dup2\n        /* \"#utility.yul\":796:829   */\n      tag_191\n      jump\t// in\n    tag_269:\n        /* \"#utility.yul\":696:835   */\n      swap3\n      swap2\n      pop\n      pop\n      jump\t// out\n        /* \"#utility.yul\":841:918   */\n    tag_193:\n        /* \"#utility.yul\":878:885   */\n      0x00\n        /* \"#utility.yul\":907:912   */\n      dup2\n        /* \"#utility.yul\":896:912   */\n      swap1\n      pop\n        /* \"#utility.yul\":841:918   */\n      swap2\n      swap1\n      pop\n      jump\t// out\n        /* \"#utility.yul\":924:1046   */\n    tag_194:\n        /* \"#utility.yul\":997:1021   */\n      tag_272\n        /* \"#utility.yul\":1015:1020   */\n      dup2\n        /* \"#utility.yul\":997:1021   */\n      tag_193\n      jump\t// in\n    tag_272:\n        /* \"#utility.yul\":990:995   */\n      dup2\n        /* \"#utility.yul\":987:1022   */\n      eq\n        /* \"#utility.yul\":977:1040   */\n      tag_273\n      jumpi\n        /* \"#utility.yul\":1036:1037   */\n      0x00\n        /* \"#utility.yul\":1033:1034   */\n      dup1\n        /* \"#utility.yul\":1026:1038   */\n      revert\n        /* \"#utility.yul\":977:1040   */\n    tag_273:\n        /* \"#utility.yul\":924:1046   */\n      pop\n      jump\t// out\n        /* \"#utility.yul\":1052:1191   */\n    tag_195:\n        /* \"#utility.yul\":1098:1103   */\n      0x00\n        /* \"#utility.yul\":1136:1142   */\n      dup2\n        /* \"#utility.yul\":1123:1143   */\n      calldataload\n        /* \"#utility.yul\":1114:1143   */\n      swap1\n      pop\n        /* \"#utility.yul\":1152:1185   */\n      tag_275\n        /* \"#utility.yul\":1179:1184   */\n      dup2\n        /* \"#utility.yul\":1152:1185   */\n      tag_194\n      jump\t// in\n    tag_275:\n        /* \"#utility.yul\":1052:1191   */\n      swap3\n      swap2\n      pop\n      pop\n      jump\t// out\n        /* \"#utility.yul\":1197:1671   */\n    tag_17:\n        /* \"#utility.yul\":1265:1271   */\n      0x00\n        /* \"#utility.yul\":1273:1279   */\n      dup1\n        /* \"#utility.yul\":1322:1324   */\n      0x40\n        /* \"#utility.yul\":1310:1319   */\n      dup4\n        /* \"#utility.yul\":1301:1308   */\n      dup6\n        /* \"#utility.yul\":1297:1320   */\n      sub\n        /* \"#utility.yul\":1293:1325   */\n      slt\n        /* \"#utility.yul\":1290:1409   */\n      iszero\n      tag_277\n      jumpi\n        /* \"#utility.yul\":1328:1407   */\n      tag_278\n      tag_187\n      jump\t// in\n    tag_278:\n        /* \"#utility.yul\":1290:1409   */\n    tag_277:\n        /* \"#utility.yul\":1448:1449   */\n      0x00\n        /* \"#utility.yul\":1473:1526   */\n      tag_279\n        /* \"#utility.yul\":1518:1525   */\n      dup6\n        /* \"#utility.yul\":1509:1515   */\n      dup3\n        /* \"#utility.yul\":1498:1507   */\n      dup7\n        /* \"#utility.yul\":1494:1516   */\n      add\n        /* \"#utility.yul\":1473:1526   */\n      tag_192\n      jump\t// in\n    tag_279:\n        /* \"#utility.yul\":1463:1526   */\n      swap3\n      pop\n        /* \"#utility.yul\":1419:1536   */\n      pop\n        /* \"#utility.yul\":1575:1577   */\n      0x20\n        /* \"#utility.yul\":1601:1654   */\n      tag_280\n        /* \"#utility.yul\":1646:1653   */\n      dup6\n        /* \"#utility.yul\":1637:1643   */\n      dup3\n        /* \"#utility.yul\":1626:1635   */\n      dup7\n        /* \"#utility.yul\":1622:1644   */\n      add\n        /* \"#utility.yul\":1601:1654   */\n      tag_195\n      jump\t// in\n    tag_280:\n        /* \"#utility.yul\":1591:1654   */\n      swap2\n      pop\n        /* \"#utility.yul\":1546:1664   */\n      pop\n        /* \"#utility.yul\":1197:1671   */\n      swap3\n      pop\n      swap3\n      swap1\n      pop\n      jump\t// out\n        /* \"#utility.yul\":1677:1795   */\n    tag_196:\n        /* \"#utility.yul\":1764:1788   */\n      tag_282\n        /* \"#utility.yul\":1782:1787   */\n      dup2\n        /* \"#utility.yul\":1764:1788   */\n      tag_193\n      jump\t// in\n    tag_282:\n        /* \"#utility.yul\":1759:1762   */\n      dup3\n        /* \"#utility.yul\":1752:1789   */\n      mstore\n        /* \"#utility.yul\":1677:1795   */\n      pop\n      pop\n      jump\t// out\n        /* \"#utility.yul\":1801:1919   */\n    tag_197:\n        /* \"#utility.yul\":1888:1912   */\n      tag_284\n        /* \"#utility.yul\":1906:1911   */\n      dup2\n        /* \"#utility.yul\":1888:1912   */\n      tag_190\n      jump\t// in\n    tag_284:\n        /* \"#utility.yul\":1883:1886   */\n      dup3\n        /* \"#utility.yul\":1876:1913   */\n      mstore\n        /* \"#utility.yul\":1801:1919   */\n      pop\n      pop\n      jump\t// out\n        /* \"#utility.yul\":1925:2024   */\n    tag_198:\n        /* \"#utility.yul\":1977:1983   */\n      0x00\n        /* \"#utility.yul\":2011:2016   */\n      dup2\n        /* \"#utility.yul\":2005:2017   */\n      mload\n        /* \"#utility.yul\":1995:2017   */\n      swap1\n      pop\n        /* \"#utility.yul\":1925:2024   */\n      swap2\n      swap1\n      pop\n      jump\t// out\n        /* \"#utility.yul\":2030:2199   */\n    tag_199:\n        /* \"#utility.yul\":2114:2125   */\n      0x00\n        /* \"#utility.yul\":2148:2154   */\n      dup3\n        /* \"#utility.yul\":2143:2146   */\n      dup3\n        /* \"#utility.yul\":2136:2155   */\n      mstore\n        /* \"#utility.yul\":2188:2192   */\n      0x20\n        /* \"#utility.yul\":2183:2186   */\n      dup3\n        /* \"#utility.yul\":2179:2193   */\n      add\n        /* \"#utility.yul\":2164:2193   */\n      swap1\n      pop\n        /* \"#utility.yul\":2030:2199   */\n      swap3\n      swap2\n      pop\n      pop\n      jump\t// out\n        /* \"#utility.yul\":2205:2344   */\n    tag_200:\n        /* \"#utility.yul\":2294:2300   */\n      dup3\n        /* \"#utility.yul\":2289:2292   */\n      dup2\n        /* \"#utility.yul\":2284:2287   */\n      dup4\n        /* \"#utility.yul\":2278:2301   */\n      mcopy\n        /* \"#utility.yul\":2335:2336   */\n      0x00\n        /* \"#utility.yul\":2326:2332   */\n      dup4\n        /* \"#utility.yul\":2321:2324   */\n      dup4\n        /* \"#utility.yul\":2317:2333   */\n      add\n        /* \"#utility.yul\":2310:2337   */\n      mstore\n        /* \"#utility.yul\":2205:2344   */\n      pop\n      pop\n      pop\n      jump\t// out\n        /* \"#utility.yul\":2350:2452   */\n    tag_201:\n        /* \"#utility.yul\":2391:2397   */\n      0x00\n        /* \"#utility.yul\":2442:2444   */\n      0x1f\n        /* \"#utility.yul\":2438:2445   */\n      not\n        /* \"#utility.yul\":2433:2435   */\n      0x1f\n        /* \"#utility.yul\":2426:2431   */\n      dup4\n        /* \"#utility.yul\":2422:2436   */\n      add\n        /* \"#utility.yul\":2418:2446   */\n      and\n        /* \"#utility.yul\":2408:2446   */\n      swap1\n      pop\n        /* \"#utility.yul\":2350:2452   */\n      swap2\n      swap1\n      pop\n      jump\t// out\n        /* \"#utility.yul\":2458:2835   */\n    tag_202:\n        /* \"#utility.yul\":2546:2549   */\n      0x00\n        /* \"#utility.yul\":2574:2613   */\n      tag_290\n        /* \"#utility.yul\":2607:2612   */\n      dup3\n        /* \"#utility.yul\":2574:2613   */\n      tag_198\n      jump\t// in\n    tag_290:\n        /* \"#utility.yul\":2629:2700   */\n      tag_291\n        /* \"#utility.yul\":2693:2699   */\n      dup2\n        /* \"#utility.yul\":2688:2691   */\n      dup6\n        /* \"#utility.yul\":2629:2700   */\n      tag_199\n      jump\t// in\n    tag_291:\n        /* \"#utility.yul\":2622:2700   */\n      swap4\n      pop\n        /* \"#utility.yul\":2709:2774   */\n      tag_292\n        /* \"#utility.yul\":2767:2773   */\n      dup2\n        /* \"#utility.yul\":2762:2765   */\n      dup6\n        /* \"#utility.yul\":2755:2759   */\n      0x20\n        /* \"#utility.yul\":2748:2753   */\n      dup7\n        /* \"#utility.yul\":2744:2760   */\n      add\n        /* \"#utility.yul\":2709:2774   */\n      tag_200\n      jump\t// in\n    tag_292:\n        /* \"#utility.yul\":2799:2828   */\n      tag_293\n        /* \"#utility.yul\":2821:2827   */\n      dup2\n        /* \"#utility.yul\":2799:2828   */\n      tag_201\n      jump\t// in\n    tag_293:\n        /* \"#utility.yul\":2794:2797   */\n      dup5\n        /* \"#utility.yul\":2790:2829   */\n      add\n        /* \"#utility.yul\":2783:2829   */\n      swap2\n      pop\n        /* \"#utility.yul\":2550:2835   */\n      pop\n        /* \"#utility.yul\":2458:2835   */\n      swap3\n      swap2\n      pop\n      pop\n      jump\t// out\n        /* \"#utility.yul\":2841:3596   */\n    tag_20:\n        /* \"#utility.yul\":3066:3070   */\n      0x00\n        /* \"#utility.yul\":3104:3107   */\n      0xa0\n        /* \"#utility.yul\":3093:3102   */\n      dup3\n        /* \"#utility.yul\":3089:3108   */\n      add\n        /* \"#utility.yul\":3081:3108   */\n      swap1\n      pop\n        /* \"#utility.yul\":3118:3189   */\n      tag_295\n        /* \"#utility.yul\":3186:3187   */\n      0x00\n        /* \"#utility.yul\":3175:3184   */\n      dup4\n        /* \"#utility.yul\":3171:3188   */\n      add\n        /* \"#utility.yul\":3162:3168   */\n      dup9\n        /* \"#utility.yul\":3118:3189   */\n      tag_196\n      jump\t// in\n    tag_295:\n        /* \"#utility.yul\":3199:3271   */\n      tag_296\n        /* \"#utility.yul\":3267:3269   */\n      0x20\n        /* \"#utility.yul\":3256:3265   */\n      dup4\n        /* \"#utility.yul\":3252:3270   */\n      add\n        /* \"#utility.yul\":3243:3249   */\n      dup8\n        /* \"#utility.yul\":3199:3271   */\n      tag_197\n      jump\t// in\n    tag_296:\n        /* \"#utility.yul\":3318:3327   */\n      dup2\n        /* \"#utility.yul\":3312:3316   */\n      dup2\n        /* \"#utility.yul\":3308:3328   */\n      sub\n        /* \"#utility.yul\":3303:3305   */\n      0x40\n        /* \"#utility.yul\":3292:3301   */\n      dup4\n        /* \"#utility.yul\":3288:3306   */\n      add\n        /* \"#utility.yul\":3281:3329   */\n      mstore\n        /* \"#utility.yul\":3346:3424   */\n      tag_297\n        /* \"#utility.yul\":3419:3423   */\n      dup2\n        /* \"#utility.yul\":3410:3416   */\n      dup7\n        /* \"#utility.yul\":3346:3424   */\n      tag_202\n      jump\t// in\n    tag_297:\n        /* \"#utility.yul\":3338:3424   */\n      swap1\n      pop\n        /* \"#utility.yul\":3434:3506   */\n      tag_298\n        /* \"#utility.yul\":3502:3504   */\n      0x60\n        /* \"#utility.yul\":3491:3500   */\n      dup4\n        /* \"#utility.yul\":3487:3505   */\n      add\n        /* \"#utility.yul\":3478:3484   */\n      dup6\n        /* \"#utility.yul\":3434:3506   */\n      tag_196\n      jump\t// in\n    tag_298:\n        /* \"#utility.yul\":3516:3589   */\n      tag_299\n        /* \"#utility.yul\":3584:3587   */\n      0x80\n        /* \"#utility.yul\":3573:3582   */\n      dup4\n        /* \"#utility.yul\":3569:3588   */\n      add\n        /* \"#utility.yul\":3560:3566   */\n      dup5\n        /* \"#utility.yul\":3516:3589   */\n      tag_196\n      jump\t// in\n    tag_299:\n        /* \"#utility.yul\":2841:3596   */\n      swap7\n      swap6\n      pop\n      pop\n      pop\n      pop\n      pop\n      pop\n      jump\t// out\n        /* \"#utility.yul\":3602:3931   */\n    tag_23:\n        /* \"#utility.yul\":3661:3667   */\n      0x00\n        /* \"#utility.yul\":3710:3712   */\n      0x20\n        /* \"#utility.yul\":3698:3707   */\n      dup3\n        /* \"#utility.yul\":3689:3696   */\n      dup5\n        /* \"#utility.yul\":3685:3708   */\n      sub\n        /* \"#utility.yul\":3681:3713   */\n      slt\n        /* \"#utility.yul\":3678:3797   */\n      iszero\n      tag_301\n      jumpi\n        /* \"#utility.yul\":3716:3795   */\n      tag_302\n      tag_187\n      jump\t// in\n    tag_302:\n        /* \"#utility.yul\":3678:3797   */\n    tag_301:\n        /* \"#utility.yul\":3836:3837   */\n      0x00\n        /* \"#utility.yul\":3861:3914   */\n      tag_303\n        /* \"#utility.yul\":3906:3913   */\n      dup5\n        /* \"#utility.yul\":3897:3903   */\n      dup3\n        /* \"#utility.yul\":3886:3895   */\n      dup6\n        /* \"#utility.yul\":3882:3904   */\n      add\n        /* \"#utility.yul\":3861:3914   */\n      tag_192\n      jump\t// in\n    tag_303:\n        /* \"#utility.yul\":3851:3914   */\n      swap2\n      pop\n        /* \"#utility.yul\":3807:3924   */\n      pop\n        /* \"#utility.yul\":3602:3931   */\n      swap3\n      swap2\n      pop\n      pop\n      jump\t// out\n        /* \"#utility.yul\":3937:4073   */\n    tag_203:\n        /* \"#utility.yul\":4026:4032   */\n      0x00\n        /* \"#utility.yul\":4060:4065   */\n      dup2\n        /* \"#utility.yul\":4054:4066   */\n      mload\n        /* \"#utility.yul\":4044:4066   */\n      swap1\n      pop\n        /* \"#utility.yul\":3937:4073   */\n      swap2\n      swap1\n      pop\n      jump\t// out\n        /* \"#utility.yul\":4079:4285   */\n    tag_204:\n        /* \"#utility.yul\":4200:4211   */\n      0x00\n        /* \"#utility.yul\":4234:4240   */\n      dup3\n        /* \"#utility.yul\":4229:4232   */\n      dup3\n        /* \"#utility.yul\":4222:4241   */\n      mstore\n        /* \"#utility.yul\":4274:4278   */\n      0x20\n        /* \"#utility.yul\":4269:4272   */\n      dup3\n        /* \"#utility.yul\":4265:4279   */\n      add\n        /* \"#utility.yul\":4250:4279   */\n      swap1\n      pop\n        /* \"#utility.yul\":4079:4285   */\n      swap3\n      swap2\n      pop\n      pop\n      jump\t// out\n        /* \"#utility.yul\":4291:4445   */\n    tag_205:\n        /* \"#utility.yul\":4380:4384   */\n      0x00\n        /* \"#utility.yul\":4403:4406   */\n      dup2\n        /* \"#utility.yul\":4395:4406   */\n      swap1\n      pop\n        /* \"#utility.yul\":4433:4437   */\n      0x20\n        /* \"#utility.yul\":4428:4431   */\n      dup3\n        /* \"#utility.yul\":4424:4438   */\n      add\n        /* \"#utility.yul\":4416:4438   */\n      swap1\n      pop\n        /* \"#utility.yul\":4291:4445   */\n      swap2\n      swap1\n      pop\n      jump\t// out\n        /* \"#utility.yul\":4451:4559   */\n    tag_206:\n        /* \"#utility.yul\":4528:4552   */\n      tag_308\n        /* \"#utility.yul\":4546:4551   */\n      dup2\n        /* \"#utility.yul\":4528:4552   */\n      tag_193\n      jump\t// in\n    tag_308:\n        /* \"#utility.yul\":4523:4526   */\n      dup3\n        /* \"#utility.yul\":4516:4553   */\n      mstore\n        /* \"#utility.yul\":4451:4559   */\n      pop\n      pop\n      jump\t// out\n        /* \"#utility.yul\":4565:4673   */\n    tag_207:\n        /* \"#utility.yul\":4642:4666   */\n      tag_310\n        /* \"#utility.yul\":4660:4665   */\n      dup2\n        /* \"#utility.yul\":4642:4666   */\n      tag_190\n      jump\t// in\n    tag_310:\n        /* \"#utility.yul\":4637:4640   */\n      dup3\n        /* \"#utility.yul\":4630:4667   */\n      mstore\n        /* \"#utility.yul\":4565:4673   */\n      pop\n      pop\n      jump\t// out\n        /* \"#utility.yul\":4679:4838   */\n    tag_208:\n        /* \"#utility.yul\":4753:4764   */\n      0x00\n        /* \"#utility.yul\":4787:4793   */\n      dup3\n        /* \"#utility.yul\":4782:4785   */\n      dup3\n        /* \"#utility.yul\":4775:4794   */\n      mstore\n        /* \"#utility.yul\":4827:4831   */\n      0x20\n        /* \"#utility.yul\":4822:4825   */\n      dup3\n        /* \"#utility.yul\":4818:4832   */\n      add\n        /* \"#utility.yul\":4803:4832   */\n      swap1\n      pop\n        /* \"#utility.yul\":4679:4838   */\n      swap3\n      swap2\n      pop\n      pop\n      jump\t// out\n        /* \"#utility.yul\":4844:5201   */\n    tag_209:\n        /* \"#utility.yul\":4922:4925   */\n      0x00\n        /* \"#utility.yul\":4950:4989   */\n      tag_313\n        /* \"#utility.yul\":4983:4988   */\n      dup3\n        /* \"#utility.yul\":4950:4989   */\n      tag_198\n      jump\t// in\n    tag_313:\n        /* \"#utility.yul\":5005:5066   */\n      tag_314\n        /* \"#utility.yul\":5059:5065   */\n      dup2\n        /* \"#utility.yul\":5054:5057   */\n      dup6\n        /* \"#utility.yul\":5005:5066   */\n      tag_208\n      jump\t// in\n    tag_314:\n        /* \"#utility.yul\":4998:5066   */\n      swap4\n      pop\n        /* \"#utility.yul\":5075:5140   */\n      tag_315\n        /* \"#utility.yul\":5133:5139   */\n      dup2\n        /* \"#utility.yul\":5128:5131   */\n      dup6\n        /* \"#utility.yul\":5121:5125   */\n      0x20\n        /* \"#utility.yul\":5114:5119   */\n      dup7\n        /* \"#utility.yul\":5110:5126   */\n      add\n        /* \"#utility.yul\":5075:5140   */\n      tag_200\n      jump\t// in\n    tag_315:\n        /* \"#utility.yul\":5165:5194   */\n      tag_316\n        /* \"#utility.yul\":5187:5193   */\n      dup2\n        /* \"#utility.yul\":5165:5194   */\n      tag_201\n      jump\t// in\n    tag_316:\n        /* \"#utility.yul\":5160:5163   */\n      dup5\n        /* \"#utility.yul\":5156:5195   */\n      add\n        /* \"#utility.yul\":5149:5195   */\n      swap2\n      pop\n        /* \"#utility.yul\":4926:5201   */\n      pop\n        /* \"#utility.yul\":4844:5201   */\n      swap3\n      swap2\n      pop\n      pop\n      jump\t// out\n        /* \"#utility.yul\":5259:6381   */\n    tag_210:\n        /* \"#utility.yul\":5362:5365   */\n      0x00\n        /* \"#utility.yul\":5398:5402   */\n      0xa0\n        /* \"#utility.yul\":5393:5396   */\n      dup4\n        /* \"#utility.yul\":5389:5403   */\n      add\n        /* \"#utility.yul\":5483:5487   */\n      0x00\n        /* \"#utility.yul\":5476:5481   */\n      dup4\n        /* \"#utility.yul\":5472:5488   */\n      add\n        /* \"#utility.yul\":5466:5489   */\n      mload\n        /* \"#utility.yul\":5502:5565   */\n      tag_318\n        /* \"#utility.yul\":5559:5563   */\n      0x00\n        /* \"#utility.yul\":5554:5557   */\n      dup7\n        /* \"#utility.yul\":5550:5564   */\n      add\n        /* \"#utility.yul\":5536:5548   */\n      dup3\n        /* \"#utility.yul\":5502:5565   */\n      tag_206\n      jump\t// in\n    tag_318:\n        /* \"#utility.yul\":5413:5575   */\n      pop\n        /* \"#utility.yul\":5659:5663   */\n      0x20\n        /* \"#utility.yul\":5652:5657   */\n      dup4\n        /* \"#utility.yul\":5648:5664   */\n      add\n        /* \"#utility.yul\":5642:5665   */\n      mload\n        /* \"#utility.yul\":5678:5741   */\n      tag_319\n        /* \"#utility.yul\":5735:5739   */\n      0x20\n        /* \"#utility.yul\":5730:5733   */\n      dup7\n        /* \"#utility.yul\":5726:5740   */\n      add\n        /* \"#utility.yul\":5712:5724   */\n      dup3\n        /* \"#utility.yul\":5678:5741   */\n      tag_207\n      jump\t// in\n    tag_319:\n        /* \"#utility.yul\":5585:5751   */\n      pop\n        /* \"#utility.yul\":5836:5840   */\n      0x40\n        /* \"#utility.yul\":5829:5834   */\n      dup4\n        /* \"#utility.yul\":5825:5841   */\n      add\n        /* \"#utility.yul\":5819:5842   */\n      mload\n        /* \"#utility.yul\":5889:5892   */\n      dup5\n        /* \"#utility.yul\":5883:5887   */\n      dup3\n        /* \"#utility.yul\":5879:5893   */\n      sub\n        /* \"#utility.yul\":5872:5876   */\n      0x40\n        /* \"#utility.yul\":5867:5870   */\n      dup7\n        /* \"#utility.yul\":5863:5877   */\n      add\n        /* \"#utility.yul\":5856:5894   */\n      mstore\n        /* \"#utility.yul\":5915:5988   */\n      tag_320\n        /* \"#utility.yul\":5983:5987   */\n      dup3\n        /* \"#utility.yul\":5969:5981   */\n      dup3\n        /* \"#utility.yul\":5915:5988   */\n      tag_209\n      jump\t// in\n    tag_320:\n        /* \"#utility.yul\":5907:5988   */\n      swap2\n      pop\n        /* \"#utility.yul\":5761:5999   */\n      pop\n        /* \"#utility.yul\":6087:6091   */\n      0x60\n        /* \"#utility.yul\":6080:6085   */\n      dup4\n        /* \"#utility.yul\":6076:6092   */\n      add\n        /* \"#utility.yul\":6070:6093   */\n      mload\n        /* \"#utility.yul\":6106:6169   */\n      tag_321\n        /* \"#utility.yul\":6163:6167   */\n      0x60\n        /* \"#utility.yul\":6158:6161   */\n      dup7\n        /* \"#utility.yul\":6154:6168   */\n      add\n        /* \"#utility.yul\":6140:6152   */\n      dup3\n        /* \"#utility.yul\":6106:6169   */\n      tag_206\n      jump\t// in\n    tag_321:\n        /* \"#utility.yul\":6009:6179   */\n      pop\n        /* \"#utility.yul\":6262:6266   */\n      0x80\n        /* \"#utility.yul\":6255:6260   */\n      dup4\n        /* \"#utility.yul\":6251:6267   */\n      add\n        /* \"#utility.yul\":6245:6268   */\n      mload\n        /* \"#utility.yul\":6281:6344   */\n      tag_322\n        /* \"#utility.yul\":6338:6342   */\n      0x80\n        /* \"#utility.yul\":6333:6336   */\n      dup7\n        /* \"#utility.yul\":6329:6343   */\n      add\n        /* \"#utility.yul\":6315:6327   */\n      dup3\n        /* \"#utility.yul\":6281:6344   */\n      tag_206\n      jump\t// in\n    tag_322:\n        /* \"#utility.yul\":6189:6354   */\n      pop\n        /* \"#utility.yul\":6371:6375   */\n      dup1\n        /* \"#utility.yul\":6364:6375   */\n      swap2\n      pop\n        /* \"#utility.yul\":5367:6381   */\n      pop\n        /* \"#utility.yul\":5259:6381   */\n      swap3\n      swap2\n      pop\n      pop\n      jump\t// out\n        /* \"#utility.yul\":6387:6631   */\n    tag_211:\n        /* \"#utility.yul\":6500:6510   */\n      0x00\n        /* \"#utility.yul\":6535:6625   */\n      tag_324\n        /* \"#utility.yul\":6621:6624   */\n      dup4\n        /* \"#utility.yul\":6613:6619   */\n      dup4\n        /* \"#utility.yul\":6535:6625   */\n      tag_210\n      jump\t// in\n    tag_324:\n        /* \"#utility.yul\":6521:6625   */\n      swap1\n      pop\n        /* \"#utility.yul\":6387:6631   */\n      swap3\n      swap2\n      pop\n      pop\n      jump\t// out\n        /* \"#utility.yul\":6637:6772   */\n    tag_212:\n        /* \"#utility.yul\":6729:6733   */\n      0x00\n        /* \"#utility.yul\":6761:6765   */\n      0x20\n        /* \"#utility.yul\":6756:6759   */\n      dup3\n        /* \"#utility.yul\":6752:6766   */\n      add\n        /* \"#utility.yul\":6744:6766   */\n      swap1\n      pop\n        /* \"#utility.yul\":6637:6772   */\n      swap2\n      swap1\n      pop\n      jump\t// out\n        /* \"#utility.yul\":6834:7921   */\n    tag_213:\n        /* \"#utility.yul\":6997:7000   */\n      0x00\n        /* \"#utility.yul\":7026:7102   */\n      tag_327\n        /* \"#utility.yul\":7096:7101   */\n      dup3\n        /* \"#utility.yul\":7026:7102   */\n      tag_203\n      jump\t// in\n    tag_327:\n        /* \"#utility.yul\":7118:7226   */\n      tag_328\n        /* \"#utility.yul\":7219:7225   */\n      dup2\n        /* \"#utility.yul\":7214:7217   */\n      dup6\n        /* \"#utility.yul\":7118:7226   */\n      tag_204\n      jump\t// in\n    tag_328:\n        /* \"#utility.yul\":7111:7226   */\n      swap4\n      pop\n        /* \"#utility.yul\":7252:7255   */\n      dup4\n        /* \"#utility.yul\":7297:7301   */\n      0x20\n        /* \"#utility.yul\":7289:7295   */\n      dup3\n        /* \"#utility.yul\":7285:7302   */\n      mul\n        /* \"#utility.yul\":7280:7283   */\n      dup6\n        /* \"#utility.yul\":7276:7303   */\n      add\n        /* \"#utility.yul\":7327:7405   */\n      tag_329\n        /* \"#utility.yul\":7399:7404   */\n      dup6\n        /* \"#utility.yul\":7327:7405   */\n      tag_205\n      jump\t// in\n    tag_329:\n        /* \"#utility.yul\":7428:7435   */\n      dup1\n        /* \"#utility.yul\":7459:7460   */\n      0x00\n        /* \"#utility.yul\":7444:7876   */\n    tag_330:\n        /* \"#utility.yul\":7469:7475   */\n      dup6\n        /* \"#utility.yul\":7466:7467   */\n      dup2\n        /* \"#utility.yul\":7463:7476   */\n      lt\n        /* \"#utility.yul\":7444:7876   */\n      iszero\n      tag_332\n      jumpi\n        /* \"#utility.yul\":7540:7549   */\n      dup5\n        /* \"#utility.yul\":7534:7538   */\n      dup5\n        /* \"#utility.yul\":7530:7550   */\n      sub\n        /* \"#utility.yul\":7525:7528   */\n      dup10\n        /* \"#utility.yul\":7518:7551   */\n      mstore\n        /* \"#utility.yul\":7591:7597   */\n      dup2\n        /* \"#utility.yul\":7585:7598   */\n      mload\n        /* \"#utility.yul\":7619:7727   */\n      tag_333\n        /* \"#utility.yul\":7722:7726   */\n      dup6\n        /* \"#utility.yul\":7707:7720   */\n      dup3\n        /* \"#utility.yul\":7619:7727   */\n      tag_211\n      jump\t// in\n    tag_333:\n        /* \"#utility.yul\":7611:7727   */\n      swap5\n      pop\n        /* \"#utility.yul\":7750:7832   */\n      tag_334\n        /* \"#utility.yul\":7825:7831   */\n      dup4\n        /* \"#utility.yul\":7750:7832   */\n      tag_212\n      jump\t// in\n    tag_334:\n        /* \"#utility.yul\":7740:7832   */\n      swap3\n      pop\n        /* \"#utility.yul\":7861:7865   */\n      0x20\n        /* \"#utility.yul\":7856:7859   */\n      dup11\n        /* \"#utility.yul\":7852:7866   */\n      add\n        /* \"#utility.yul\":7845:7866   */\n      swap10\n      pop\n        /* \"#utility.yul\":7504:7876   */\n      pop\n        /* \"#utility.yul\":7491:7492   */\n      0x01\n        /* \"#utility.yul\":7488:7489   */\n      dup2\n        /* \"#utility.yul\":7484:7493   */\n      add\n        /* \"#utility.yul\":7479:7493   */\n      swap1\n      pop\n        /* \"#utility.yul\":7444:7876   */\n      jump(tag_330)\n    tag_332:\n        /* \"#utility.yul\":7448:7462   */\n      pop\n        /* \"#utility.yul\":7892:7896   */\n      dup3\n        /* \"#utility.yul\":7885:7896   */\n      swap8\n      pop\n        /* \"#utility.yul\":7912:7915   */\n      dup8\n        /* \"#utility.yul\":7905:7915   */\n      swap6\n      pop\n        /* \"#utility.yul\":7002:7921   */\n      pop\n      pop\n      pop\n      pop\n      pop\n        /* \"#utility.yul\":6834:7921   */\n      swap3\n      swap2\n      pop\n      pop\n      jump\t// out\n        /* \"#utility.yul\":7927:8388   */\n    tag_26:\n        /* \"#utility.yul\":8114:8118   */\n      0x00\n        /* \"#utility.yul\":8152:8154   */\n      0x20\n        /* \"#utility.yul\":8141:8150   */\n      dup3\n        /* \"#utility.yul\":8137:8155   */\n      add\n        /* \"#utility.yul\":8129:8155   */\n      swap1\n      pop\n        /* \"#utility.yul\":8201:8210   */\n      dup2\n        /* \"#utility.yul\":8195:8199   */\n      dup2\n        /* \"#utility.yul\":8191:8211   */\n      sub\n        /* \"#utility.yul\":8187:8188   */\n      0x00\n        /* \"#utility.yul\":8176:8185   */\n      dup4\n        /* \"#utility.yul\":8172:8189   */\n      add\n        /* \"#utility.yul\":8165:8212   */\n      mstore\n        /* \"#utility.yul\":8229:8381   */\n      tag_336\n        /* \"#utility.yul\":8376:8380   */\n      dup2\n        /* \"#utility.yul\":8367:8373   */\n      dup5\n        /* \"#utility.yul\":8229:8381   */\n      tag_213\n      jump\t// in\n    tag_336:\n        /* \"#utility.yul\":8221:8381   */\n      swap1\n      pop\n        /* \"#utility.yul\":7927:8388   */\n      swap3\n      swap2\n      pop\n      pop\n      jump\t// out\n        /* \"#utility.yul\":8394:8483   */\n    tag_214:\n        /* \"#utility.yul\":8430:8437   */\n      0x00\n        /* \"#utility.yul\":8470:8476   */\n      0xffff\n        /* \"#utility.yul\":8463:8468   */\n      dup3\n        /* \"#utility.yul\":8459:8477   */\n      and\n        /* \"#utility.yul\":8448:8477   */\n      swap1\n      pop\n        /* \"#utility.yul\":8394:8483   */\n      swap2\n      swap1\n      pop\n      jump\t// out\n        /* \"#utility.yul\":8489:8609   */\n    tag_215:\n        /* \"#utility.yul\":8561:8584   */\n      tag_339\n        /* \"#utility.yul\":8578:8583   */\n      dup2\n        /* \"#utility.yul\":8561:8584   */\n      tag_214\n      jump\t// in\n    tag_339:\n        /* \"#utility.yul\":8554:8559   */\n      dup2\n        /* \"#utility.yul\":8551:8585   */\n      eq\n        /* \"#utility.yul\":8541:8603   */\n      tag_340\n      jumpi\n        /* \"#utility.yul\":8599:8600   */\n      0x00\n        /* \"#utility.yul\":8596:8597   */\n      dup1\n        /* \"#utility.yul\":8589:8601   */\n      revert\n        /* \"#utility.yul\":8541:8603   */\n    tag_340:\n        /* \"#utility.yul\":8489:8609   */\n      pop\n      jump\t// out\n        /* \"#utility.yul\":8615:8752   */\n    tag_216:\n        /* \"#utility.yul\":8660:8665   */\n      0x00\n        /* \"#utility.yul\":8698:8704   */\n      dup2\n        /* \"#utility.yul\":8685:8705   */\n      calldataload\n        /* \"#utility.yul\":8676:8705   */\n      swap1\n      pop\n        /* \"#utility.yul\":8714:8746   */\n      tag_342\n        /* \"#utility.yul\":8740:8745   */\n      dup2\n        /* \"#utility.yul\":8714:8746   */\n      tag_215\n      jump\t// in\n    tag_342:\n        /* \"#utility.yul\":8615:8752   */\n      swap3\n      swap2\n      pop\n      pop\n      jump\t// out\n        /* \"#utility.yul\":8758:9085   */\n    tag_32:\n        /* \"#utility.yul\":8816:8822   */\n      0x00\n        /* \"#utility.yul\":8865:8867   */\n      0x20\n        /* \"#utility.yul\":8853:8862   */\n      dup3\n        /* \"#utility.yul\":8844:8851   */\n      dup5\n        /* \"#utility.yul\":8840:8863   */\n      sub\n        /* \"#utility.yul\":8836:8868   */\n      slt\n        /* \"#utility.yul\":8833:8952   */\n      iszero\n      tag_344\n      jumpi\n        /* \"#utility.yul\":8871:8950   */\n      tag_345\n      tag_187\n      jump\t// in\n    tag_345:\n        /* \"#utility.yul\":8833:8952   */\n    tag_344:\n        /* \"#utility.yul\":8991:8992   */\n      0x00\n        /* \"#utility.yul\":9016:9068   */\n      tag_346\n        /* \"#utility.yul\":9060:9067   */\n      dup5\n        /* \"#utility.yul\":9051:9057   */\n      dup3\n        /* \"#utility.yul\":9040:9049   */\n      dup6\n        /* \"#utility.yul\":9036:9058   */\n      add\n        /* \"#utility.yul\":9016:9068   */\n      tag_216\n      jump\t// in\n    tag_346:\n        /* \"#utility.yul\":9006:9068   */\n      swap2\n      pop\n        /* \"#utility.yul\":8962:9078   */\n      pop\n        /* \"#utility.yul\":8758:9085   */\n      swap3\n      swap2\n      pop\n      pop\n      jump\t// out\n        /* \"#utility.yul\":9091:9206   */\n    tag_217:\n        /* \"#utility.yul\":9176:9199   */\n      tag_348\n        /* \"#utility.yul\":9193:9198   */\n      dup2\n        /* \"#utility.yul\":9176:9199   */\n      tag_214\n      jump\t// in\n    tag_348:\n        /* \"#utility.yul\":9171:9174   */\n      dup3\n        /* \"#utility.yul\":9164:9200   */\n      mstore\n        /* \"#utility.yul\":9091:9206   */\n      pop\n      pop\n      jump\t// out\n        /* \"#utility.yul\":9212:9430   */\n    tag_40:\n        /* \"#utility.yul\":9303:9307   */\n      0x00\n        /* \"#utility.yul\":9341:9343   */\n      0x20\n        /* \"#utility.yul\":9330:9339   */\n      dup3\n        /* \"#utility.yul\":9326:9344   */\n      add\n        /* \"#utility.yul\":9318:9344   */\n      swap1\n      pop\n        /* \"#utility.yul\":9354:9423   */\n      tag_350\n        /* \"#utility.yul\":9420:9421   */\n      0x00\n        /* \"#utility.yul\":9409:9418   */\n      dup4\n        /* \"#utility.yul\":9405:9422   */\n      add\n        /* \"#utility.yul\":9396:9402   */\n      dup5\n        /* \"#utility.yul\":9354:9423   */\n      tag_217\n      jump\t// in\n    tag_350:\n        /* \"#utility.yul\":9212:9430   */\n      swap3\n      swap2\n      pop\n      pop\n      jump\t// out\n        /* \"#utility.yul\":9436:9553   */\n    tag_218:\n        /* \"#utility.yul\":9545:9546   */\n      0x00\n        /* \"#utility.yul\":9542:9543   */\n      dup1\n        /* \"#utility.yul\":9535:9547   */\n      revert\n        /* \"#utility.yul\":9559:9676   */\n    tag_219:\n        /* \"#utility.yul\":9668:9669   */\n      0x00\n        /* \"#utility.yul\":9665:9666   */\n      dup1\n        /* \"#utility.yul\":9658:9670   */\n      revert\n        /* \"#utility.yul\":9682:9862   */\n    tag_220:\n        /* \"#utility.yul\":9730:9807   */\n      0x4e487b7100000000000000000000000000000000000000000000000000000000\n        /* \"#utility.yul\":9727:9728   */\n      0x00\n        /* \"#utility.yul\":9720:9808   */\n      mstore\n        /* \"#utility.yul\":9827:9831   */\n      0x41\n        /* \"#utility.yul\":9824:9825   */\n      0x04\n        /* \"#utility.yul\":9817:9832   */\n      mstore\n        /* \"#utility.yul\":9851:9855   */\n      0x24\n        /* \"#utility.yul\":9848:9849   */\n      0x00\n        /* \"#utility.yul\":9841:9856   */\n      revert\n        /* \"#utility.yul\":9868:10149   */\n    tag_221:\n        /* \"#utility.yul\":9951:9978   */\n      tag_355\n        /* \"#utility.yul\":9973:9977   */\n      dup3\n        /* \"#utility.yul\":9951:9978   */\n      tag_201\n      jump\t// in\n    tag_355:\n        /* \"#utility.yul\":9943:9949   */\n      dup2\n        /* \"#utility.yul\":9939:9979   */\n      add\n        /* \"#utility.yul\":10081:10087   */\n      dup2\n        /* \"#utility.yul\":10069:10079   */\n      dup2\n        /* \"#utility.yul\":10066:10088   */\n      lt\n        /* \"#utility.yul\":10045:10063   */\n      0xffffffffffffffff\n        /* \"#utility.yul\":10033:10043   */\n      dup3\n        /* \"#utility.yul\":10030:10064   */\n      gt\n        /* \"#utility.yul\":10027:10089   */\n      or\n        /* \"#utility.yul\":10024:10112   */\n      iszero\n      tag_356\n      jumpi\n        /* \"#utility.yul\":10092:10110   */\n      tag_357\n      tag_220\n      jump\t// in\n    tag_357:\n        /* \"#utility.yul\":10024:10112   */\n    tag_356:\n        /* \"#utility.yul\":10132:10142   */\n      dup1\n        /* \"#utility.yul\":10128:10130   */\n      0x40\n        /* \"#utility.yul\":10121:10143   */\n      mstore\n        /* \"#utility.yul\":9911:10149   */\n      pop\n        /* \"#utility.yul\":9868:10149   */\n      pop\n      pop\n      jump\t// out\n        /* \"#utility.yul\":10155:10284   */\n    tag_222:\n        /* \"#utility.yul\":10189:10195   */\n      0x00\n        /* \"#utility.yul\":10216:10236   */\n      tag_359\n      tag_186\n      jump\t// in\n    tag_359:\n        /* \"#utility.yul\":10206:10236   */\n      swap1\n      pop\n        /* \"#utility.yul\":10245:10278   */\n      tag_360\n        /* \"#utility.yul\":10273:10277   */\n      dup3\n        /* \"#utility.yul\":10265:10271   */\n      dup3\n        /* \"#utility.yul\":10245:10278   */\n      tag_221\n      jump\t// in\n    tag_360:\n        /* \"#utility.yul\":10155:10284   */\n      swap2\n      swap1\n      pop\n      jump\t// out\n        /* \"#utility.yul\":10290:10598   */\n    tag_223:\n        /* \"#utility.yul\":10352:10356   */\n      0x00\n        /* \"#utility.yul\":10442:10460   */\n      0xffffffffffffffff\n        /* \"#utility.yul\":10434:10440   */\n      dup3\n        /* \"#utility.yul\":10431:10461   */\n      gt\n        /* \"#utility.yul\":10428:10484   */\n      iszero\n      tag_362\n      jumpi\n        /* \"#utility.yul\":10464:10482   */\n      tag_363\n      tag_220\n      jump\t// in\n    tag_363:\n        /* \"#utility.yul\":10428:10484   */\n    tag_362:\n        /* \"#utility.yul\":10502:10531   */\n      tag_364\n        /* \"#utility.yul\":10524:10530   */\n      dup3\n        /* \"#utility.yul\":10502:10531   */\n      tag_201\n      jump\t// in\n    tag_364:\n        /* \"#utility.yul\":10494:10531   */\n      swap1\n      pop\n        /* \"#utility.yul\":10586:10590   */\n      0x20\n        /* \"#utility.yul\":10580:10584   */\n      dup2\n        /* \"#utility.yul\":10576:10591   */\n      add\n        /* \"#utility.yul\":10568:10591   */\n      swap1\n      pop\n        /* \"#utility.yul\":10290:10598   */\n      swap2\n      swap1\n      pop\n      jump\t// out\n        /* \"#utility.yul\":10604:10752   */\n    tag_224:\n        /* \"#utility.yul\":10702:10708   */\n      dup3\n        /* \"#utility.yul\":10697:10700   */\n      dup2\n        /* \"#utility.yul\":10692:10695   */\n      dup4\n        /* \"#utility.yul\":10679:10709   */\n      calldatacopy\n        /* \"#utility.yul\":10743:10744   */\n      0x00\n        /* \"#utility.yul\":10734:10740   */\n      dup4\n        /* \"#utility.yul\":10729:10732   */\n      dup4\n        /* \"#utility.yul\":10725:10741   */\n      add\n        /* \"#utility.yul\":10718:10745   */\n      mstore\n        /* \"#utility.yul\":10604:10752   */\n      pop\n      pop\n      pop\n      jump\t// out\n        /* \"#utility.yul\":10758:11183   */\n    tag_225:\n        /* \"#utility.yul\":10836:10841   */\n      0x00\n        /* \"#utility.yul\":10861:10927   */\n      tag_367\n        /* \"#utility.yul\":10877:10926   */\n      tag_368\n        /* \"#utility.yul\":10919:10925   */\n      dup5\n        /* \"#utility.yul\":10877:10926   */\n      tag_223\n      jump\t// in\n    tag_368:\n        /* \"#utility.yul\":10861:10927   */\n      tag_222\n      jump\t// in\n    tag_367:\n        /* \"#utility.yul\":10852:10927   */\n      swap1\n      pop\n        /* \"#utility.yul\":10950:10956   */\n      dup3\n        /* \"#utility.yul\":10943:10948   */\n      dup2\n        /* \"#utility.yul\":10936:10957   */\n      mstore\n        /* \"#utility.yul\":10988:10992   */\n      0x20\n        /* \"#utility.yul\":10981:10986   */\n      dup2\n        /* \"#utility.yul\":10977:10993   */\n      add\n        /* \"#utility.yul\":11026:11029   */\n      dup5\n        /* \"#utility.yul\":11017:11023   */\n      dup5\n        /* \"#utility.yul\":11012:11015   */\n      dup5\n        /* \"#utility.yul\":11008:11024   */\n      add\n        /* \"#utility.yul\":11005:11030   */\n      gt\n        /* \"#utility.yul\":11002:11114   */\n      iszero\n      tag_369\n      jumpi\n        /* \"#utility.yul\":11033:11112   */\n      tag_370\n      tag_219\n      jump\t// in\n    tag_370:\n        /* \"#utility.yul\":11002:11114   */\n    tag_369:\n        /* \"#utility.yul\":11123:11177   */\n      tag_371\n        /* \"#utility.yul\":11170:11176   */\n      dup5\n        /* \"#utility.yul\":11165:11168   */\n      dup3\n        /* \"#utility.yul\":11160:11163   */\n      dup6\n        /* \"#utility.yul\":11123:11177   */\n      tag_224\n      jump\t// in\n    tag_371:\n        /* \"#utility.yul\":10842:11183   */\n      pop\n        /* \"#utility.yul\":10758:11183   */\n      swap4\n      swap3\n      pop\n      pop\n      pop\n      jump\t// out\n        /* \"#utility.yul\":11203:11543   */\n    tag_226:\n        /* \"#utility.yul\":11259:11264   */\n      0x00\n        /* \"#utility.yul\":11308:11311   */\n      dup3\n        /* \"#utility.yul\":11301:11305   */\n      0x1f\n        /* \"#utility.yul\":11293:11299   */\n      dup4\n        /* \"#utility.yul\":11289:11306   */\n      add\n        /* \"#utility.yul\":11285:11312   */\n      slt\n        /* \"#utility.yul\":11275:11397   */\n      tag_373\n      jumpi\n        /* \"#utility.yul\":11316:11395   */\n      tag_374\n      tag_218\n      jump\t// in\n    tag_374:\n        /* \"#utility.yul\":11275:11397   */\n    tag_373:\n        /* \"#utility.yul\":11433:11439   */\n      dup2\n        /* \"#utility.yul\":11420:11440   */\n      calldataload\n        /* \"#utility.yul\":11458:11537   */\n      tag_375\n        /* \"#utility.yul\":11533:11536   */\n      dup5\n        /* \"#utility.yul\":11525:11531   */\n      dup3\n        /* \"#utility.yul\":11518:11522   */\n      0x20\n        /* \"#utility.yul\":11510:11516   */\n      dup7\n        /* \"#utility.yul\":11506:11523   */\n      add\n        /* \"#utility.yul\":11458:11537   */\n      tag_225\n      jump\t// in\n    tag_375:\n        /* \"#utility.yul\":11449:11537   */\n      swap2\n      pop\n        /* \"#utility.yul\":11265:11543   */\n      pop\n        /* \"#utility.yul\":11203:11543   */\n      swap3\n      swap2\n      pop\n      pop\n      jump\t// out\n        /* \"#utility.yul\":11549:12058   */\n    tag_45:\n        /* \"#utility.yul\":11618:11624   */\n      0x00\n        /* \"#utility.yul\":11667:11669   */\n      0x20\n        /* \"#utility.yul\":11655:11664   */\n      dup3\n        /* \"#utility.yul\":11646:11653   */\n      dup5\n        /* \"#utility.yul\":11642:11665   */\n      sub\n        /* \"#utility.yul\":11638:11670   */\n      slt\n        /* \"#utility.yul\":11635:11754   */\n      iszero\n      tag_377\n      jumpi\n        /* \"#utility.yul\":11673:11752   */\n      tag_378\n      tag_187\n      jump\t// in\n    tag_378:\n        /* \"#utility.yul\":11635:11754   */\n    tag_377:\n        /* \"#utility.yul\":11821:11822   */\n      0x00\n        /* \"#utility.yul\":11810:11819   */\n      dup3\n        /* \"#utility.yul\":11806:11823   */\n      add\n        /* \"#utility.yul\":11793:11824   */\n      calldataload\n        /* \"#utility.yul\":11851:11869   */\n      0xffffffffffffffff\n        /* \"#utility.yul\":11843:11849   */\n      dup2\n        /* \"#utility.yul\":11840:11870   */\n      gt\n        /* \"#utility.yul\":11837:11954   */\n      iszero\n      tag_379\n      jumpi\n        /* \"#utility.yul\":11873:11952   */\n      tag_380\n      tag_188\n      jump\t// in\n    tag_380:\n        /* \"#utility.yul\":11837:11954   */\n    tag_379:\n        /* \"#utility.yul\":11978:12041   */\n      tag_381\n        /* \"#utility.yul\":12033:12040   */\n      dup5\n        /* \"#utility.yul\":12024:12030   */\n      dup3\n        /* \"#utility.yul\":12013:12022   */\n      dup6\n        /* \"#utility.yul\":12009:12031   */\n      add\n        /* \"#utility.yul\":11978:12041   */\n      tag_226\n      jump\t// in\n    tag_381:\n        /* \"#utility.yul\":11968:12041   */\n      swap2\n      pop\n        /* \"#utility.yul\":11764:12051   */\n      pop\n        /* \"#utility.yul\":11549:12058   */\n      swap3\n      swap2\n      pop\n      pop\n      jump\t// out\n        /* \"#utility.yul\":12064:12286   */\n    tag_50:\n        /* \"#utility.yul\":12157:12161   */\n      0x00\n        /* \"#utility.yul\":12195:12197   */\n      0x20\n        /* \"#utility.yul\":12184:12193   */\n      dup3\n        /* \"#utility.yul\":12180:12198   */\n      add\n        /* \"#utility.yul\":12172:12198   */\n      swap1\n      pop\n        /* \"#utility.yul\":12208:12279   */\n      tag_383\n        /* \"#utility.yul\":12276:12277   */\n      0x00\n        /* \"#utility.yul\":12265:12274   */\n      dup4\n        /* \"#utility.yul\":12261:12278   */\n      add\n        /* \"#utility.yul\":12252:12258   */\n      dup5\n        /* \"#utility.yul\":12208:12279   */\n      tag_197\n      jump\t// in\n    tag_383:\n        /* \"#utility.yul\":12064:12286   */\n      swap3\n      swap2\n      pop\n      pop\n      jump\t// out\n        /* \"#utility.yul\":12292:12621   */\n    tag_53:\n        /* \"#utility.yul\":12351:12357   */\n      0x00\n        /* \"#utility.yul\":12400:12402   */\n      0x20\n        /* \"#utility.yul\":12388:12397   */\n      dup3\n        /* \"#utility.yul\":12379:12386   */\n      dup5\n        /* \"#utility.yul\":12375:12398   */\n      sub\n        /* \"#utility.yul\":12371:12403   */\n      slt\n        /* \"#utility.yul\":12368:12487   */\n      iszero\n      tag_385\n      jumpi\n        /* \"#utility.yul\":12406:12485   */\n      tag_386\n      tag_187\n      jump\t// in\n    tag_386:\n        /* \"#utility.yul\":12368:12487   */\n    tag_385:\n        /* \"#utility.yul\":12526:12527   */\n      0x00\n        /* \"#utility.yul\":12551:12604   */\n      tag_387\n        /* \"#utility.yul\":12596:12603   */\n      dup5\n        /* \"#utility.yul\":12587:12593   */\n      dup3\n        /* \"#utility.yul\":12576:12585   */\n      dup6\n        /* \"#utility.yul\":12572:12594   */\n      add\n        /* \"#utility.yul\":12551:12604   */\n      tag_195\n      jump\t// in\n    tag_387:\n        /* \"#utility.yul\":12541:12604   */\n      swap2\n      pop\n        /* \"#utility.yul\":12497:12614   */\n      pop\n        /* \"#utility.yul\":12292:12621   */\n      swap3\n      swap2\n      pop\n      pop\n      jump\t// out\n        /* \"#utility.yul\":12679:13811   */\n    tag_227:\n        /* \"#utility.yul\":12792:12795   */\n      0x00\n        /* \"#utility.yul\":12828:12832   */\n      0xa0\n        /* \"#utility.yul\":12823:12826   */\n      dup4\n        /* \"#utility.yul\":12819:12833   */\n      add\n        /* \"#utility.yul\":12913:12917   */\n      0x00\n        /* \"#utility.yul\":12906:12911   */\n      dup4\n        /* \"#utility.yul\":12902:12918   */\n      add\n        /* \"#utility.yul\":12896:12919   */\n      mload\n        /* \"#utility.yul\":12932:12995   */\n      tag_389\n        /* \"#utility.yul\":12989:12993   */\n      0x00\n        /* \"#utility.yul\":12984:12987   */\n      dup7\n        /* \"#utility.yul\":12980:12994   */\n      add\n        /* \"#utility.yul\":12966:12978   */\n      dup3\n        /* \"#utility.yul\":12932:12995   */\n      tag_206\n      jump\t// in\n    tag_389:\n        /* \"#utility.yul\":12843:13005   */\n      pop\n        /* \"#utility.yul\":13089:13093   */\n      0x20\n        /* \"#utility.yul\":13082:13087   */\n      dup4\n        /* \"#utility.yul\":13078:13094   */\n      add\n        /* \"#utility.yul\":13072:13095   */\n      mload\n        /* \"#utility.yul\":13108:13171   */\n      tag_390\n        /* \"#utility.yul\":13165:13169   */\n      0x20\n        /* \"#utility.yul\":13160:13163   */\n      dup7\n        /* \"#utility.yul\":13156:13170   */\n      add\n        /* \"#utility.yul\":13142:13154   */\n      dup3\n        /* \"#utility.yul\":13108:13171   */\n      tag_207\n      jump\t// in\n    tag_390:\n        /* \"#utility.yul\":13015:13181   */\n      pop\n        /* \"#utility.yul\":13266:13270   */\n      0x40\n        /* \"#utility.yul\":13259:13264   */\n      dup4\n        /* \"#utility.yul\":13255:13271   */\n      add\n        /* \"#utility.yul\":13249:13272   */\n      mload\n        /* \"#utility.yul\":13319:13322   */\n      dup5\n        /* \"#utility.yul\":13313:13317   */\n      dup3\n        /* \"#utility.yul\":13309:13323   */\n      sub\n        /* \"#utility.yul\":13302:13306   */\n      0x40\n        /* \"#utility.yul\":13297:13300   */\n      dup7\n        /* \"#utility.yul\":13293:13307   */\n      add\n        /* \"#utility.yul\":13286:13324   */\n      mstore\n        /* \"#utility.yul\":13345:13418   */\n      tag_391\n        /* \"#utility.yul\":13413:13417   */\n      dup3\n        /* \"#utility.yul\":13399:13411   */\n      dup3\n        /* \"#utility.yul\":13345:13418   */\n      tag_209\n      jump\t// in\n    tag_391:\n        /* \"#utility.yul\":13337:13418   */\n      swap2\n      pop\n        /* \"#utility.yul\":13191:13429   */\n      pop\n        /* \"#utility.yul\":13517:13521   */\n      0x60\n        /* \"#utility.yul\":13510:13515   */\n      dup4\n        /* \"#utility.yul\":13506:13522   */\n      add\n        /* \"#utility.yul\":13500:13523   */\n      mload\n        /* \"#utility.yul\":13536:13599   */\n      tag_392\n        /* \"#utility.yul\":13593:13597   */\n      0x60\n        /* \"#utility.yul\":13588:13591   */\n      dup7\n        /* \"#utility.yul\":13584:13598   */\n      add\n        /* \"#utility.yul\":13570:13582   */\n      dup3\n        /* \"#utility.yul\":13536:13599   */\n      tag_206\n      jump\t// in\n    tag_392:\n        /* \"#utility.yul\":13439:13609   */\n      pop\n        /* \"#utility.yul\":13692:13696   */\n      0x80\n        /* \"#utility.yul\":13685:13690   */\n      dup4\n        /* \"#utility.yul\":13681:13697   */\n      add\n        /* \"#utility.yul\":13675:13698   */\n      mload\n        /* \"#utility.yul\":13711:13774   */\n      tag_393\n        /* \"#utility.yul\":13768:13772   */\n      0x80\n        /* \"#utility.yul\":13763:13766   */\n      dup7\n        /* \"#utility.yul\":13759:13773   */\n      add\n        /* \"#utility.yul\":13745:13757   */\n      dup3\n        /* \"#utility.yul\":13711:13774   */\n      tag_206\n      jump\t// in\n    tag_393:\n        /* \"#utility.yul\":13619:13784   */\n      pop\n        /* \"#utility.yul\":13801:13805   */\n      dup1\n        /* \"#utility.yul\":13794:13805   */\n      swap2\n      pop\n        /* \"#utility.yul\":12797:13811   */\n      pop\n        /* \"#utility.yul\":12679:13811   */\n      swap3\n      swap2\n      pop\n      pop\n      jump\t// out\n        /* \"#utility.yul\":13817:14178   */\n    tag_56:\n        /* \"#utility.yul\":13954:13958   */\n      0x00\n        /* \"#utility.yul\":13992:13994   */\n      0x20\n        /* \"#utility.yul\":13981:13990   */\n      dup3\n        /* \"#utility.yul\":13977:13995   */\n      add\n        /* \"#utility.yul\":13969:13995   */\n      swap1\n      pop\n        /* \"#utility.yul\":14041:14050   */\n      dup2\n        /* \"#utility.yul\":14035:14039   */\n      dup2\n        /* \"#utility.yul\":14031:14051   */\n      sub\n        /* \"#utility.yul\":14027:14028   */\n      0x00\n        /* \"#utility.yul\":14016:14025   */\n      dup4\n        /* \"#utility.yul\":14012:14029   */\n      add\n        /* \"#utility.yul\":14005:14052   */\n      mstore\n        /* \"#utility.yul\":14069:14171   */\n      tag_395\n        /* \"#utility.yul\":14166:14170   */\n      dup2\n        /* \"#utility.yul\":14157:14163   */\n      dup5\n        /* \"#utility.yul\":14069:14171   */\n      tag_227\n      jump\t// in\n    tag_395:\n        /* \"#utility.yul\":14061:14171   */\n      swap1\n      pop\n        /* \"#utility.yul\":13817:14178   */\n      swap3\n      swap2\n      pop\n      pop\n      jump\t// out\n        /* \"#utility.yul\":14184:14364   */\n    tag_228:\n        /* \"#utility.yul\":14232:14309   */\n      0x4e487b7100000000000000000000000000000000000000000000000000000000\n        /* \"#utility.yul\":14229:14230   */\n      0x00\n        /* \"#utility.yul\":14222:14310   */\n      mstore\n        /* \"#utility.yul\":14329:14333   */\n      0x22\n        /* \"#utility.yul\":14326:14327   */\n      0x04\n        /* \"#utility.yul\":14319:14334   */\n      mstore\n        /* \"#utility.yul\":14353:14357   */\n      0x24\n        /* \"#utility.yul\":14350:14351   */\n      0x00\n        /* \"#utility.yul\":14343:14358   */\n      revert\n        /* \"#utility.yul\":14370:14690   */\n    tag_63:\n        /* \"#utility.yul\":14414:14420   */\n      0x00\n        /* \"#utility.yul\":14451:14452   */\n      0x02\n        /* \"#utility.yul\":14445:14449   */\n      dup3\n        /* \"#utility.yul\":14441:14453   */\n      div\n        /* \"#utility.yul\":14431:14453   */\n      swap1\n      pop\n        /* \"#utility.yul\":14498:14499   */\n      0x01\n        /* \"#utility.yul\":14492:14496   */\n      dup3\n        /* \"#utility.yul\":14488:14500   */\n      and\n        /* \"#utility.yul\":14519:14537   */\n      dup1\n        /* \"#utility.yul\":14509:14590   */\n      tag_398\n      jumpi\n        /* \"#utility.yul\":14575:14579   */\n      0x7f\n        /* \"#utility.yul\":14567:14573   */\n      dup3\n        /* \"#utility.yul\":14563:14580   */\n      and\n        /* \"#utility.yul\":14553:14580   */\n      swap2\n      pop\n        /* \"#utility.yul\":14509:14590   */\n    tag_398:\n        /* \"#utility.yul\":14637:14639   */\n      0x20\n        /* \"#utility.yul\":14629:14635   */\n      dup3\n        /* \"#utility.yul\":14626:14640   */\n      lt\n        /* \"#utility.yul\":14606:14624   */\n      dup2\n        /* \"#utility.yul\":14603:14641   */\n      sub\n        /* \"#utility.yul\":14600:14684   */\n      tag_399\n      jumpi\n        /* \"#utility.yul\":14656:14674   */\n      tag_400\n      tag_228\n      jump\t// in\n    tag_400:\n        /* \"#utility.yul\":14600:14684   */\n    tag_399:\n        /* \"#utility.yul\":14421:14690   */\n      pop\n        /* \"#utility.yul\":14370:14690   */\n      swap2\n      swap1\n      pop\n      jump\t// out\n        /* \"#utility.yul\":14696:14813   */\n    tag_229:\n        /* \"#utility.yul\":14805:14806   */\n      0x00\n        /* \"#utility.yul\":14802:14803   */\n      dup1\n        /* \"#utility.yul\":14795:14807   */\n      revert\n        /* \"#utility.yul\":14819:14936   */\n    tag_230:\n        /* \"#utility.yul\":14928:14929   */\n      0x00\n        /* \"#utility.yul\":14925:14926   */\n      dup1\n        /* \"#utility.yul\":14918:14930   */\n      revert\n        /* \"#utility.yul\":14942:15376   */\n    tag_231:\n        /* \"#utility.yul\":15031:15036   */\n      0x00\n        /* \"#utility.yul\":15056:15122   */\n      tag_404\n        /* \"#utility.yul\":15072:15121   */\n      tag_405\n        /* \"#utility.yul\":15114:15120   */\n      dup5\n        /* \"#utility.yul\":15072:15121   */\n      tag_223\n      jump\t// in\n    tag_405:\n        /* \"#utility.yul\":15056:15122   */\n      tag_222\n      jump\t// in\n    tag_404:\n        /* \"#utility.yul\":15047:15122   */\n      swap1\n      pop\n        /* \"#utility.yul\":15145:15151   */\n      dup3\n        /* \"#utility.yul\":15138:15143   */\n      dup2\n        /* \"#utility.yul\":15131:15152   */\n      mstore\n        /* \"#utility.yul\":15183:15187   */\n      0x20\n        /* \"#utility.yul\":15176:15181   */\n      dup2\n        /* \"#utility.yul\":15172:15188   */\n      add\n        /* \"#utility.yul\":15221:15224   */\n      dup5\n        /* \"#utility.yul\":15212:15218   */\n      dup5\n        /* \"#utility.yul\":15207:15210   */\n      dup5\n        /* \"#utility.yul\":15203:15219   */\n      add\n        /* \"#utility.yul\":15200:15225   */\n      gt\n        /* \"#utility.yul\":15197:15309   */\n      iszero\n      tag_406\n      jumpi\n        /* \"#utility.yul\":15228:15307   */\n      tag_407\n      tag_219\n      jump\t// in\n    tag_407:\n        /* \"#utility.yul\":15197:15309   */\n    tag_406:\n        /* \"#utility.yul\":15318:15370   */\n      tag_408\n        /* \"#utility.yul\":15363:15369   */\n      dup5\n        /* \"#utility.yul\":15358:15361   */\n      dup3\n        /* \"#utility.yul\":15353:15356   */\n      dup6\n        /* \"#utility.yul\":15318:15370   */\n      tag_200\n      jump\t// in\n    tag_408:\n        /* \"#utility.yul\":15037:15376   */\n      pop\n        /* \"#utility.yul\":14942:15376   */\n      swap4\n      swap3\n      pop\n      pop\n      pop\n      jump\t// out\n        /* \"#utility.yul\":15396:15751   */\n    tag_232:\n        /* \"#utility.yul\":15463:15468   */\n      0x00\n        /* \"#utility.yul\":15512:15515   */\n      dup3\n        /* \"#utility.yul\":15505:15509   */\n      0x1f\n        /* \"#utility.yul\":15497:15503   */\n      dup4\n        /* \"#utility.yul\":15493:15510   */\n      add\n        /* \"#utility.yul\":15489:15516   */\n      slt\n        /* \"#utility.yul\":15479:15601   */\n      tag_410\n      jumpi\n        /* \"#utility.yul\":15520:15599   */\n      tag_411\n      tag_218\n      jump\t// in\n    tag_411:\n        /* \"#utility.yul\":15479:15601   */\n    tag_410:\n        /* \"#utility.yul\":15630:15636   */\n      dup2\n        /* \"#utility.yul\":15624:15637   */\n      mload\n        /* \"#utility.yul\":15655:15745   */\n      tag_412\n        /* \"#utility.yul\":15741:15744   */\n      dup5\n        /* \"#utility.yul\":15733:15739   */\n      dup3\n        /* \"#utility.yul\":15726:15730   */\n      0x20\n        /* \"#utility.yul\":15718:15724   */\n      dup7\n        /* \"#utility.yul\":15714:15731   */\n      add\n        /* \"#utility.yul\":15655:15745   */\n      tag_231\n      jump\t// in\n    tag_412:\n        /* \"#utility.yul\":15646:15745   */\n      swap2\n      pop\n        /* \"#utility.yul\":15469:15751   */\n      pop\n        /* \"#utility.yul\":15396:15751   */\n      swap3\n      swap2\n      pop\n      pop\n      jump\t// out\n        /* \"#utility.yul\":15792:16734   */\n    tag_233:\n        /* \"#utility.yul\":15880:15885   */\n      0x00\n        /* \"#utility.yul\":15924:15928   */\n      0x40\n        /* \"#utility.yul\":15912:15921   */\n      dup3\n        /* \"#utility.yul\":15907:15910   */\n      dup5\n        /* \"#utility.yul\":15903:15922   */\n      sub\n        /* \"#utility.yul\":15899:15929   */\n      slt\n        /* \"#utility.yul\":15896:16013   */\n      iszero\n      tag_414\n      jumpi\n        /* \"#utility.yul\":15932:16011   */\n      tag_415\n      tag_229\n      jump\t// in\n    tag_415:\n        /* \"#utility.yul\":15896:16013   */\n    tag_414:\n        /* \"#utility.yul\":16031:16052   */\n      tag_416\n        /* \"#utility.yul\":16047:16051   */\n      0x40\n        /* \"#utility.yul\":16031:16052   */\n      tag_222\n      jump\t// in\n    tag_416:\n        /* \"#utility.yul\":16022:16052   */\n      swap1\n      pop\n        /* \"#utility.yul\":16139:16140   */\n      0x00\n        /* \"#utility.yul\":16128:16137   */\n      dup3\n        /* \"#utility.yul\":16124:16141   */\n      add\n        /* \"#utility.yul\":16118:16142   */\n      mload\n        /* \"#utility.yul\":16169:16187   */\n      0xffffffffffffffff\n        /* \"#utility.yul\":16161:16167   */\n      dup2\n        /* \"#utility.yul\":16158:16188   */\n      gt\n        /* \"#utility.yul\":16155:16272   */\n      iszero\n      tag_417\n      jumpi\n        /* \"#utility.yul\":16191:16270   */\n      tag_418\n      tag_230\n      jump\t// in\n    tag_418:\n        /* \"#utility.yul\":16155:16272   */\n    tag_417:\n        /* \"#utility.yul\":16311:16381   */\n      tag_419\n        /* \"#utility.yul\":16377:16380   */\n      dup5\n        /* \"#utility.yul\":16368:16374   */\n      dup3\n        /* \"#utility.yul\":16357:16366   */\n      dup6\n        /* \"#utility.yul\":16353:16375   */\n      add\n        /* \"#utility.yul\":16311:16381   */\n      tag_232\n      jump\t// in\n    tag_419:\n        /* \"#utility.yul\":16304:16308   */\n      0x00\n        /* \"#utility.yul\":16297:16302   */\n      dup4\n        /* \"#utility.yul\":16293:16309   */\n      add\n        /* \"#utility.yul\":16286:16382   */\n      mstore\n        /* \"#utility.yul\":16062:16393   */\n      pop\n        /* \"#utility.yul\":16472:16474   */\n      0x20\n        /* \"#utility.yul\":16461:16470   */\n      dup3\n        /* \"#utility.yul\":16457:16475   */\n      add\n        /* \"#utility.yul\":16451:16476   */\n      mload\n        /* \"#utility.yul\":16503:16521   */\n      0xffffffffffffffff\n        /* \"#utility.yul\":16495:16501   */\n      dup2\n        /* \"#utility.yul\":16492:16522   */\n      gt\n        /* \"#utility.yul\":16489:16606   */\n      iszero\n      tag_420\n      jumpi\n        /* \"#utility.yul\":16525:16604   */\n      tag_421\n      tag_230\n      jump\t// in\n    tag_421:\n        /* \"#utility.yul\":16489:16606   */\n    tag_420:\n        /* \"#utility.yul\":16645:16715   */\n      tag_422\n        /* \"#utility.yul\":16711:16714   */\n      dup5\n        /* \"#utility.yul\":16702:16708   */\n      dup3\n        /* \"#utility.yul\":16691:16700   */\n      dup6\n        /* \"#utility.yul\":16687:16709   */\n      add\n        /* \"#utility.yul\":16645:16715   */\n      tag_232\n      jump\t// in\n    tag_422:\n        /* \"#utility.yul\":16638:16642   */\n      0x20\n        /* \"#utility.yul\":16631:16636   */\n      dup4\n        /* \"#utility.yul\":16627:16643   */\n      add\n        /* \"#utility.yul\":16620:16716   */\n      mstore\n        /* \"#utility.yul\":16403:16727   */\n      pop\n        /* \"#utility.yul\":15792:16734   */\n      swap3\n      swap2\n      pop\n      pop\n      jump\t// out\n        /* \"#utility.yul\":16740:17300   */\n    tag_82:\n        /* \"#utility.yul\":16838:16844   */\n      0x00\n        /* \"#utility.yul\":16887:16889   */\n      0x20\n        /* \"#utility.yul\":16875:16884   */\n      dup3\n        /* \"#utility.yul\":16866:16873   */\n      dup5\n        /* \"#utility.yul\":16862:16885   */\n      sub\n        /* \"#utility.yul\":16858:16890   */\n      slt\n        /* \"#utility.yul\":16855:16974   */\n      iszero\n      tag_424\n      jumpi\n        /* \"#utility.yul\":16893:16972   */\n      tag_425\n      tag_187\n      jump\t// in\n    tag_425:\n        /* \"#utility.yul\":16855:16974   */\n    tag_424:\n        /* \"#utility.yul\":17034:17035   */\n      0x00\n        /* \"#utility.yul\":17023:17032   */\n      dup3\n        /* \"#utility.yul\":17019:17036   */\n      add\n        /* \"#utility.yul\":17013:17037   */\n      mload\n        /* \"#utility.yul\":17064:17082   */\n      0xffffffffffffffff\n        /* \"#utility.yul\":17056:17062   */\n      dup2\n        /* \"#utility.yul\":17053:17083   */\n      gt\n        /* \"#utility.yul\":17050:17167   */\n      iszero\n      tag_426\n      jumpi\n        /* \"#utility.yul\":17086:17165   */\n      tag_427\n      tag_188\n      jump\t// in\n    tag_427:\n        /* \"#utility.yul\":17050:17167   */\n    tag_426:\n        /* \"#utility.yul\":17191:17283   */\n      tag_428\n        /* \"#utility.yul\":17275:17282   */\n      dup5\n        /* \"#utility.yul\":17266:17272   */\n      dup3\n        /* \"#utility.yul\":17255:17264   */\n      dup6\n        /* \"#utility.yul\":17251:17273   */\n      add\n        /* \"#utility.yul\":17191:17283   */\n      tag_233\n      jump\t// in\n    tag_428:\n        /* \"#utility.yul\":17181:17283   */\n      swap2\n      pop\n        /* \"#utility.yul\":16984:17293   */\n      pop\n        /* \"#utility.yul\":16740:17300   */\n      swap3\n      swap2\n      pop\n      pop\n      jump\t// out\n        /* \"#utility.yul\":17306:17475   */\n    tag_234:\n        /* \"#utility.yul\":17446:17467   */\n      0x55736572206e6f74205265676973746572656400000000000000000000000000\n        /* \"#utility.yul\":17442:17443   */\n      0x00\n        /* \"#utility.yul\":17434:17440   */\n      dup3\n        /* \"#utility.yul\":17430:17444   */\n      add\n        /* \"#utility.yul\":17423:17468   */\n      mstore\n        /* \"#utility.yul\":17306:17475   */\n      pop\n      jump\t// out\n        /* \"#utility.yul\":17481:17847   */\n    tag_235:\n        /* \"#utility.yul\":17623:17626   */\n      0x00\n        /* \"#utility.yul\":17644:17711   */\n      tag_431\n        /* \"#utility.yul\":17708:17710   */\n      0x13\n        /* \"#utility.yul\":17703:17706   */\n      dup4\n        /* \"#utility.yul\":17644:17711   */\n      tag_199\n      jump\t// in\n    tag_431:\n        /* \"#utility.yul\":17637:17711   */\n      swap2\n      pop\n        /* \"#utility.yul\":17720:17813   */\n      tag_432\n        /* \"#utility.yul\":17809:17812   */\n      dup3\n        /* \"#utility.yul\":17720:17813   */\n      tag_234\n      jump\t// in\n    tag_432:\n        /* \"#utility.yul\":17838:17840   */\n      0x20\n        /* \"#utility.yul\":17833:17836   */\n      dup3\n        /* \"#utility.yul\":17829:17841   */\n      add\n        /* \"#utility.yul\":17822:17841   */\n      swap1\n      pop\n        /* \"#utility.yul\":17481:17847   */\n      swap2\n      swap1\n      pop\n      jump\t// out\n        /* \"#utility.yul\":17853:18272   */\n    tag_85:\n        /* \"#utility.yul\":18019:18023   */\n      0x00\n        /* \"#utility.yul\":18057:18059   */\n      0x20\n        /* \"#utility.yul\":18046:18055   */\n      dup3\n        /* \"#utility.yul\":18042:18060   */\n      add\n        /* \"#utility.yul\":18034:18060   */\n      swap1\n      pop\n        /* \"#utility.yul\":18106:18115   */\n      dup2\n        /* \"#utility.yul\":18100:18104   */\n      dup2\n        /* \"#utility.yul\":18096:18116   */\n      sub\n        /* \"#utility.yul\":18092:18093   */\n      0x00\n        /* \"#utility.yul\":18081:18090   */\n      dup4\n        /* \"#utility.yul\":18077:18094   */\n      add\n        /* \"#utility.yul\":18070:18117   */\n      mstore\n        /* \"#utility.yul\":18134:18265   */\n      tag_434\n        /* \"#utility.yul\":18260:18264   */\n      dup2\n        /* \"#utility.yul\":18134:18265   */\n      tag_235\n      jump\t// in\n    tag_434:\n        /* \"#utility.yul\":18126:18265   */\n      swap1\n      pop\n        /* \"#utility.yul\":17853:18272   */\n      swap2\n      swap1\n      pop\n      jump\t// out\n        /* \"#utility.yul\":18278:18458   */\n    tag_90:\n        /* \"#utility.yul\":18326:18403   */\n      0x4e487b7100000000000000000000000000000000000000000000000000000000\n        /* \"#utility.yul\":18323:18324   */\n      0x00\n        /* \"#utility.yul\":18316:18404   */\n      mstore\n        /* \"#utility.yul\":18423:18427   */\n      0x32\n        /* \"#utility.yul\":18420:18421   */\n      0x04\n        /* \"#utility.yul\":18413:18428   */\n      mstore\n        /* \"#utility.yul\":18447:18451   */\n      0x24\n        /* \"#utility.yul\":18444:18445   */\n      0x00\n        /* \"#utility.yul\":18437:18452   */\n      revert\n        /* \"#utility.yul\":18464:18634   */\n    tag_236:\n        /* \"#utility.yul\":18604:18626   */\n      0x547765657420446f6573204e6f74204578697374000000000000000000000000\n        /* \"#utility.yul\":18600:18601   */\n      0x00\n        /* \"#utility.yul\":18592:18598   */\n      dup3\n        /* \"#utility.yul\":18588:18602   */\n      add\n        /* \"#utility.yul\":18581:18627   */\n      mstore\n        /* \"#utility.yul\":18464:18634   */\n      pop\n      jump\t// out\n        /* \"#utility.yul\":18640:19006   */\n    tag_237:\n        /* \"#utility.yul\":18782:18785   */\n      0x00\n        /* \"#utility.yul\":18803:18870   */\n      tag_438\n        /* \"#utility.yul\":18867:18869   */\n      0x14\n        /* \"#utility.yul\":18862:18865   */\n      dup4\n        /* \"#utility.yul\":18803:18870   */\n      tag_199\n      jump\t// in\n    tag_438:\n        /* \"#utility.yul\":18796:18870   */\n      swap2\n      pop\n        /* \"#utility.yul\":18879:18972   */\n      tag_439\n        /* \"#utility.yul\":18968:18971   */\n      dup3\n        /* \"#utility.yul\":18879:18972   */\n      tag_236\n      jump\t// in\n    tag_439:\n        /* \"#utility.yul\":18997:18999   */\n      0x20\n        /* \"#utility.yul\":18992:18995   */\n      dup3\n        /* \"#utility.yul\":18988:19000   */\n      add\n        /* \"#utility.yul\":18981:19000   */\n      swap1\n      pop\n        /* \"#utility.yul\":18640:19006   */\n      swap2\n      swap1\n      pop\n      jump\t// out\n        /* \"#utility.yul\":19012:19431   */\n    tag_94:\n        /* \"#utility.yul\":19178:19182   */\n      0x00\n        /* \"#utility.yul\":19216:19218   */\n      0x20\n        /* \"#utility.yul\":19205:19214   */\n      dup3\n        /* \"#utility.yul\":19201:19219   */\n      add\n        /* \"#utility.yul\":19193:19219   */\n      swap1\n      pop\n        /* \"#utility.yul\":19265:19274   */\n      dup2\n        /* \"#utility.yul\":19259:19263   */\n      dup2\n        /* \"#utility.yul\":19255:19275   */\n      sub\n        /* \"#utility.yul\":19251:19252   */\n      0x00\n        /* \"#utility.yul\":19240:19249   */\n      dup4\n        /* \"#utility.yul\":19236:19253   */\n      add\n        /* \"#utility.yul\":19229:19276   */\n      mstore\n        /* \"#utility.yul\":19293:19424   */\n      tag_441\n        /* \"#utility.yul\":19419:19423   */\n      dup2\n        /* \"#utility.yul\":19293:19424   */\n      tag_237\n      jump\t// in\n    tag_441:\n        /* \"#utility.yul\":19285:19424   */\n      swap1\n      pop\n        /* \"#utility.yul\":19012:19431   */\n      swap2\n      swap1\n      pop\n      jump\t// out\n        /* \"#utility.yul\":19437:19606   */\n    tag_238:\n        /* \"#utility.yul\":19577:19598   */\n      0x54776565747320686173206e6f206c696b657300000000000000000000000000\n        /* \"#utility.yul\":19573:19574   */\n      0x00\n        /* \"#utility.yul\":19565:19571   */\n      dup3\n        /* \"#utility.yul\":19561:19575   */\n      add\n        /* \"#utility.yul\":19554:19599   */\n      mstore\n        /* \"#utility.yul\":19437:19606   */\n      pop\n      jump\t// out\n        /* \"#utility.yul\":19612:19978   */\n    tag_239:\n        /* \"#utility.yul\":19754:19757   */\n      0x00\n        /* \"#utility.yul\":19775:19842   */\n      tag_444\n        /* \"#utility.yul\":19839:19841   */\n      0x13\n        /* \"#utility.yul\":19834:19837   */\n      dup4\n        /* \"#utility.yul\":19775:19842   */\n      tag_199\n      jump\t// in\n    tag_444:\n        /* \"#utility.yul\":19768:19842   */\n      swap2\n      pop\n        /* \"#utility.yul\":19851:19944   */\n      tag_445\n        /* \"#utility.yul\":19940:19943   */\n      dup3\n        /* \"#utility.yul\":19851:19944   */\n      tag_238\n      jump\t// in\n    tag_445:\n        /* \"#utility.yul\":19969:19971   */\n      0x20\n        /* \"#utility.yul\":19964:19967   */\n      dup3\n        /* \"#utility.yul\":19960:19972   */\n      add\n        /* \"#utility.yul\":19953:19972   */\n      swap1\n      pop\n        /* \"#utility.yul\":19612:19978   */\n      swap2\n      swap1\n      pop\n      jump\t// out\n        /* \"#utility.yul\":19984:20403   */\n    tag_100:\n        /* \"#utility.yul\":20150:20154   */\n      0x00\n        /* \"#utility.yul\":20188:20190   */\n      0x20\n        /* \"#utility.yul\":20177:20186   */\n      dup3\n        /* \"#utility.yul\":20173:20191   */\n      add\n        /* \"#utility.yul\":20165:20191   */\n      swap1\n      pop\n        /* \"#utility.yul\":20237:20246   */\n      dup2\n        /* \"#utility.yul\":20231:20235   */\n      dup2\n        /* \"#utility.yul\":20227:20247   */\n      sub\n        /* \"#utility.yul\":20223:20224   */\n      0x00\n        /* \"#utility.yul\":20212:20221   */\n      dup4\n        /* \"#utility.yul\":20208:20225   */\n      add\n        /* \"#utility.yul\":20201:20248   */\n      mstore\n        /* \"#utility.yul\":20265:20396   */\n      tag_447\n        /* \"#utility.yul\":20391:20395   */\n      dup2\n        /* \"#utility.yul\":20265:20396   */\n      tag_239\n      jump\t// in\n    tag_447:\n        /* \"#utility.yul\":20257:20396   */\n      swap1\n      pop\n        /* \"#utility.yul\":19984:20403   */\n      swap2\n      swap1\n      pop\n      jump\t// out\n        /* \"#utility.yul\":20409:20589   */\n    tag_240:\n        /* \"#utility.yul\":20457:20534   */\n      0x4e487b7100000000000000000000000000000000000000000000000000000000\n        /* \"#utility.yul\":20454:20455   */\n      0x00\n        /* \"#utility.yul\":20447:20535   */\n      mstore\n        /* \"#utility.yul\":20554:20558   */\n      0x11\n        /* \"#utility.yul\":20551:20552   */\n      0x04\n        /* \"#utility.yul\":20544:20559   */\n      mstore\n        /* \"#utility.yul\":20578:20582   */\n      0x24\n        /* \"#utility.yul\":20575:20576   */\n      0x00\n        /* \"#utility.yul\":20568:20583   */\n      revert\n        /* \"#utility.yul\":20595:20766   */\n    tag_105:\n        /* \"#utility.yul\":20634:20637   */\n      0x00\n        /* \"#utility.yul\":20657:20681   */\n      tag_450\n        /* \"#utility.yul\":20675:20680   */\n      dup3\n        /* \"#utility.yul\":20657:20681   */\n      tag_193\n      jump\t// in\n    tag_450:\n        /* \"#utility.yul\":20648:20681   */\n      swap2\n      pop\n        /* \"#utility.yul\":20703:20707   */\n      0x00\n        /* \"#utility.yul\":20696:20701   */\n      dup3\n        /* \"#utility.yul\":20693:20708   */\n      sub\n        /* \"#utility.yul\":20690:20731   */\n      tag_451\n      jumpi\n        /* \"#utility.yul\":20711:20729   */\n      tag_452\n      tag_240\n      jump\t// in\n    tag_452:\n        /* \"#utility.yul\":20690:20731   */\n    tag_451:\n        /* \"#utility.yul\":20758:20759   */\n      0x01\n        /* \"#utility.yul\":20751:20756   */\n      dup3\n        /* \"#utility.yul\":20747:20760   */\n      sub\n        /* \"#utility.yul\":20740:20760   */\n      swap1\n      pop\n        /* \"#utility.yul\":20595:20766   */\n      swap2\n      swap1\n      pop\n      jump\t// out\n        /* \"#utility.yul\":20772:21325   */\n    tag_110:\n        /* \"#utility.yul\":20949:20953   */\n      0x00\n        /* \"#utility.yul\":20987:20990   */\n      0x80\n        /* \"#utility.yul\":20976:20985   */\n      dup3\n        /* \"#utility.yul\":20972:20991   */\n      add\n        /* \"#utility.yul\":20964:20991   */\n      swap1\n      pop\n        /* \"#utility.yul\":21001:21072   */\n      tag_454\n        /* \"#utility.yul\":21069:21070   */\n      0x00\n        /* \"#utility.yul\":21058:21067   */\n      dup4\n        /* \"#utility.yul\":21054:21071   */\n      add\n        /* \"#utility.yul\":21045:21051   */\n      dup8\n        /* \"#utility.yul\":21001:21072   */\n      tag_197\n      jump\t// in\n    tag_454:\n        /* \"#utility.yul\":21082:21154   */\n      tag_455\n        /* \"#utility.yul\":21150:21152   */\n      0x20\n        /* \"#utility.yul\":21139:21148   */\n      dup4\n        /* \"#utility.yul\":21135:21153   */\n      add\n        /* \"#utility.yul\":21126:21132   */\n      dup7\n        /* \"#utility.yul\":21082:21154   */\n      tag_197\n      jump\t// in\n    tag_455:\n        /* \"#utility.yul\":21164:21236   */\n      tag_456\n        /* \"#utility.yul\":21232:21234   */\n      0x40\n        /* \"#utility.yul\":21221:21230   */\n      dup4\n        /* \"#utility.yul\":21217:21235   */\n      add\n        /* \"#utility.yul\":21208:21214   */\n      dup6\n        /* \"#utility.yul\":21164:21236   */\n      tag_196\n      jump\t// in\n    tag_456:\n        /* \"#utility.yul\":21246:21318   */\n      tag_457\n        /* \"#utility.yul\":21314:21316   */\n      0x60\n        /* \"#utility.yul\":21303:21312   */\n      dup4\n        /* \"#utility.yul\":21299:21317   */\n      add\n        /* \"#utility.yul\":21290:21296   */\n      dup5\n        /* \"#utility.yul\":21246:21318   */\n      tag_196\n      jump\t// in\n    tag_457:\n        /* \"#utility.yul\":20772:21325   */\n      swap6\n      swap5\n      pop\n      pop\n      pop\n      pop\n      pop\n      jump\t// out\n        /* \"#utility.yul\":21331:21564   */\n    tag_133:\n        /* \"#utility.yul\":21370:21373   */\n      0x00\n        /* \"#utility.yul\":21393:21417   */\n      tag_459\n        /* \"#utility.yul\":21411:21416   */\n      dup3\n        /* \"#utility.yul\":21393:21417   */\n      tag_193\n      jump\t// in\n    tag_459:\n        /* \"#utility.yul\":21384:21417   */\n      swap2\n      pop\n        /* \"#utility.yul\":21439:21505   */\n      0xffffffffffffffffffffffffffffffffffffffffffffffffffffffffffffffff\n        /* \"#utility.yul\":21432:21437   */\n      dup3\n        /* \"#utility.yul\":21429:21506   */\n      sub\n        /* \"#utility.yul\":21426:21529   */\n      tag_460\n      jumpi\n        /* \"#utility.yul\":21509:21527   */\n      tag_461\n      tag_240\n      jump\t// in\n    tag_461:\n        /* \"#utility.yul\":21426:21529   */\n    tag_460:\n        /* \"#utility.yul\":21556:21557   */\n      0x01\n        /* \"#utility.yul\":21549:21554   */\n      dup3\n        /* \"#utility.yul\":21545:21558   */\n      add\n        /* \"#utility.yul\":21538:21558   */\n      swap1\n      pop\n        /* \"#utility.yul\":21331:21564   */\n      swap2\n      swap1\n      pop\n      jump\t// out\n        /* \"#utility.yul\":21570:21743   */\n    tag_241:\n        /* \"#utility.yul\":21710:21735   */\n      0x547765657420697320746f6f206c6f6e672062726f3a20000000000000000000\n        /* \"#utility.yul\":21706:21707   */\n      0x00\n        /* \"#utility.yul\":21698:21704   */\n      dup3\n        /* \"#utility.yul\":21694:21708   */\n      add\n        /* \"#utility.yul\":21687:21736   */\n      mstore\n        /* \"#utility.yul\":21570:21743   */\n      pop\n      jump\t// out\n        /* \"#utility.yul\":21749:22115   */\n    tag_242:\n        /* \"#utility.yul\":21891:21894   */\n      0x00\n        /* \"#utility.yul\":21912:21979   */\n      tag_464\n        /* \"#utility.yul\":21976:21978   */\n      0x17\n        /* \"#utility.yul\":21971:21974   */\n      dup4\n        /* \"#utility.yul\":21912:21979   */\n      tag_199\n      jump\t// in\n    tag_464:\n        /* \"#utility.yul\":21905:21979   */\n      swap2\n      pop\n        /* \"#utility.yul\":21988:22081   */\n      tag_465\n        /* \"#utility.yul\":22077:22080   */\n      dup3\n        /* \"#utility.yul\":21988:22081   */\n      tag_241\n      jump\t// in\n    tag_465:\n        /* \"#utility.yul\":22106:22108   */\n      0x20\n        /* \"#utility.yul\":22101:22104   */\n      dup3\n        /* \"#utility.yul\":22097:22109   */\n      add\n        /* \"#utility.yul\":22090:22109   */\n      swap1\n      pop\n        /* \"#utility.yul\":21749:22115   */\n      swap2\n      swap1\n      pop\n      jump\t// out\n        /* \"#utility.yul\":22121:22540   */\n    tag_153:\n        /* \"#utility.yul\":22287:22291   */\n      0x00\n        /* \"#utility.yul\":22325:22327   */\n      0x20\n        /* \"#utility.yul\":22314:22323   */\n      dup3\n        /* \"#utility.yul\":22310:22328   */\n      add\n        /* \"#utility.yul\":22302:22328   */\n      swap1\n      pop\n        /* \"#utility.yul\":22374:22383   */\n      dup2\n        /* \"#utility.yul\":22368:22372   */\n      dup2\n        /* \"#utility.yul\":22364:22384   */\n      sub\n        /* \"#utility.yul\":22360:22361   */\n      0x00\n        /* \"#utility.yul\":22349:22358   */\n      dup4\n        /* \"#utility.yul\":22345:22362   */\n      add\n        /* \"#utility.yul\":22338:22385   */\n      mstore\n        /* \"#utility.yul\":22402:22533   */\n      tag_467\n        /* \"#utility.yul\":22528:22532   */\n      dup2\n        /* \"#utility.yul\":22402:22533   */\n      tag_242\n      jump\t// in\n    tag_467:\n        /* \"#utility.yul\":22394:22533   */\n      swap1\n      pop\n        /* \"#utility.yul\":22121:22540   */\n      swap2\n      swap1\n      pop\n      jump\t// out\n        /* \"#utility.yul\":22546:22687   */\n    tag_243:\n        /* \"#utility.yul\":22595:22599   */\n      0x00\n        /* \"#utility.yul\":22618:22621   */\n      dup2\n        /* \"#utility.yul\":22610:22621   */\n      swap1\n      pop\n        /* \"#utility.yul\":22641:22644   */\n      dup2\n        /* \"#utility.yul\":22638:22639   */\n      0x00\n        /* \"#utility.yul\":22631:22645   */\n      mstore\n        /* \"#utility.yul\":22675:22679   */\n      0x20\n        /* \"#utility.yul\":22672:22673   */\n      0x00\n        /* \"#utility.yul\":22662:22680   */\n      keccak256\n        /* \"#utility.yul\":22654:22680   */\n      swap1\n      pop\n        /* \"#utility.yul\":22546:22687   */\n      swap2\n      swap1\n      pop\n      jump\t// out\n        /* \"#utility.yul\":22693:22786   */\n    tag_244:\n        /* \"#utility.yul\":22730:22736   */\n      0x00\n        /* \"#utility.yul\":22777:22779   */\n      0x20\n        /* \"#utility.yul\":22772:22774   */\n      0x1f\n        /* \"#utility.yul\":22765:22770   */\n      dup4\n        /* \"#utility.yul\":22761:22775   */\n      add\n        /* \"#utility.yul\":22757:22780   */\n      div\n        /* \"#utility.yul\":22747:22780   */\n      swap1\n      pop\n        /* \"#utility.yul\":22693:22786   */\n      swap2\n      swap1\n      pop\n      jump\t// out\n        /* \"#utility.yul\":22792:22899   */\n    tag_245:\n        /* \"#utility.yul\":22836:22844   */\n      0x00\n        /* \"#utility.yul\":22886:22891   */\n      dup3\n        /* \"#utility.yul\":22880:22884   */\n      dup3\n        /* \"#utility.yul\":22876:22892   */\n      shl\n        /* \"#utility.yul\":22855:22892   */\n      swap1\n      pop\n        /* \"#utility.yul\":22792:22899   */\n      swap3\n      swap2\n      pop\n      pop\n      jump\t// out\n        /* \"#utility.yul\":22905:23298   */\n    tag_246:\n        /* \"#utility.yul\":22974:22980   */\n      0x00\n        /* \"#utility.yul\":23024:23025   */\n      0x08\n        /* \"#utility.yul\":23012:23022   */\n      dup4\n        /* \"#utility.yul\":23008:23026   */\n      mul\n        /* \"#utility.yul\":23047:23144   */\n      tag_472\n        /* \"#utility.yul\":23077:23143   */\n      0xffffffffffffffffffffffffffffffffffffffffffffffffffffffffffffffff\n        /* \"#utility.yul\":23066:23075   */\n      dup3\n        /* \"#utility.yul\":23047:23144   */\n      tag_245\n      jump\t// in\n    tag_472:\n        /* \"#utility.yul\":23165:23204   */\n      tag_473\n        /* \"#utility.yul\":23195:23203   */\n      dup7\n        /* \"#utility.yul\":23184:23193   */\n      dup4\n        /* \"#utility.yul\":23165:23204   */\n      tag_245\n      jump\t// in\n    tag_473:\n        /* \"#utility.yul\":23153:23204   */\n      swap6\n      pop\n        /* \"#utility.yul\":23237:23241   */\n      dup1\n        /* \"#utility.yul\":23233:23242   */\n      not\n        /* \"#utility.yul\":23226:23231   */\n      dup5\n        /* \"#utility.yul\":23222:23243   */\n      and\n        /* \"#utility.yul\":23213:23243   */\n      swap4\n      pop\n        /* \"#utility.yul\":23286:23290   */\n      dup1\n        /* \"#utility.yul\":23276:23284   */\n      dup7\n        /* \"#utility.yul\":23272:23291   */\n      and\n        /* \"#utility.yul\":23265:23270   */\n      dup5\n        /* \"#utility.yul\":23262:23292   */\n      or\n        /* \"#utility.yul\":23252:23292   */\n      swap3\n      pop\n        /* \"#utility.yul\":22981:23298   */\n      pop\n      pop\n        /* \"#utility.yul\":22905:23298   */\n      swap4\n      swap3\n      pop\n      pop\n      pop\n      jump\t// out\n        /* \"#utility.yul\":23304:23364   */\n    tag_247:\n        /* \"#utility.yul\":23332:23335   */\n      0x00\n        /* \"#utility.yul\":23353:23358   */\n      dup2\n        /* \"#utility.yul\":23346:23358   */\n      swap1\n      pop\n        /* \"#utility.yul\":23304:23364   */\n      swap2\n      swap1\n      pop\n      jump\t// out\n        /* \"#utility.yul\":23370:23512   */\n    tag_248:\n        /* \"#utility.yul\":23420:23429   */\n      0x00\n        /* \"#utility.yul\":23453:23506   */\n      tag_476\n        /* \"#utility.yul\":23471:23505   */\n      tag_477\n        /* \"#utility.yul\":23480:23504   */\n      tag_478\n        /* \"#utility.yul\":23498:23503   */\n      dup5\n        /* \"#utility.yul\":23480:23504   */\n      tag_193\n      jump\t// in\n    tag_478:\n        /* \"#utility.yul\":23471:23505   */\n      tag_247\n      jump\t// in\n    tag_477:\n        /* \"#utility.yul\":23453:23506   */\n      tag_193\n      jump\t// in\n    tag_476:\n        /* \"#utility.yul\":23440:23506   */\n      swap1\n      pop\n        /* \"#utility.yul\":23370:23512   */\n      swap2\n      swap1\n      pop\n      jump\t// out\n        /* \"#utility.yul\":23518:23593   */\n    tag_249:\n        /* \"#utility.yul\":23561:23564   */\n      0x00\n        /* \"#utility.yul\":23582:23587   */\n      dup2\n        /* \"#utility.yul\":23575:23587   */\n      swap1\n      pop\n        /* \"#utility.yul\":23518:23593   */\n      swap2\n      swap1\n      pop\n      jump\t// out\n        /* \"#utility.yul\":23599:23868   */\n    tag_250:\n        /* \"#utility.yul\":23709:23748   */\n      tag_481\n        /* \"#utility.yul\":23740:23747   */\n      dup4\n        /* \"#utility.yul\":23709:23748   */\n      tag_248\n      jump\t// in\n    tag_481:\n        /* \"#utility.yul\":23770:23861   */\n      tag_482\n        /* \"#utility.yul\":23819:23860   */\n      tag_483\n        /* \"#utility.yul\":23843:23859   */\n      dup3\n        /* \"#utility.yul\":23819:23860   */\n      tag_249\n      jump\t// in\n    tag_483:\n        /* \"#utility.yul\":23811:23817   */\n      dup5\n        /* \"#utility.yul\":23804:23808   */\n      dup5\n        /* \"#utility.yul\":23798:23809   */\n      sload\n        /* \"#utility.yul\":23770:23861   */\n      tag_246\n      jump\t// in\n    tag_482:\n        /* \"#utility.yul\":23764:23768   */\n      dup3\n        /* \"#utility.yul\":23757:23862   */\n      sstore\n        /* \"#utility.yul\":23675:23868   */\n      pop\n        /* \"#utility.yul\":23599:23868   */\n      pop\n      pop\n      pop\n      jump\t// out\n        /* \"#utility.yul\":23874:23947   */\n    tag_251:\n        /* \"#utility.yul\":23919:23922   */\n      0x00\n        /* \"#utility.yul\":23874:23947   */\n      swap1\n      jump\t// out\n        /* \"#utility.yul\":23953:24142   */\n    tag_252:\n        /* \"#utility.yul\":24030:24062   */\n      tag_486\n      tag_251\n      jump\t// in\n    tag_486:\n        /* \"#utility.yul\":24071:24136   */\n      tag_487\n        /* \"#utility.yul\":24129:24135   */\n      dup2\n        /* \"#utility.yul\":24121:24127   */\n      dup5\n        /* \"#utility.yul\":24115:24119   */\n      dup5\n        /* \"#utility.yul\":24071:24136   */\n      tag_250\n      jump\t// in\n    tag_487:\n        /* \"#utility.yul\":24006:24142   */\n      pop\n        /* \"#utility.yul\":23953:24142   */\n      pop\n      pop\n      jump\t// out\n        /* \"#utility.yul\":24148:24334   */\n    tag_253:\n        /* \"#utility.yul\":24208:24328   */\n    tag_489:\n        /* \"#utility.yul\":24225:24228   */\n      dup2\n        /* \"#utility.yul\":24218:24223   */\n      dup2\n        /* \"#utility.yul\":24215:24229   */\n      lt\n        /* \"#utility.yul\":24208:24328   */\n      iszero\n      tag_491\n      jumpi\n        /* \"#utility.yul\":24279:24318   */\n      tag_492\n        /* \"#utility.yul\":24316:24317   */\n      0x00\n        /* \"#utility.yul\":24309:24314   */\n      dup3\n        /* \"#utility.yul\":24279:24318   */\n      tag_252\n      jump\t// in\n    tag_492:\n        /* \"#utility.yul\":24252:24253   */\n      0x01\n        /* \"#utility.yul\":24245:24250   */\n      dup2\n        /* \"#utility.yul\":24241:24254   */\n      add\n        /* \"#utility.yul\":24232:24254   */\n      swap1\n      pop\n        /* \"#utility.yul\":24208:24328   */\n      jump(tag_489)\n    tag_491:\n        /* \"#utility.yul\":24148:24334   */\n      pop\n      pop\n      jump\t// out\n        /* \"#utility.yul\":24340:24883   */\n    tag_254:\n        /* \"#utility.yul\":24441:24443   */\n      0x1f\n        /* \"#utility.yul\":24436:24439   */\n      dup3\n        /* \"#utility.yul\":24433:24444   */\n      gt\n        /* \"#utility.yul\":24430:24876   */\n      iszero\n      tag_494\n      jumpi\n        /* \"#utility.yul\":24475:24513   */\n      tag_495\n        /* \"#utility.yul\":24507:24512   */\n      dup2\n        /* \"#utility.yul\":24475:24513   */\n      tag_243\n      jump\t// in\n    tag_495:\n        /* \"#utility.yul\":24559:24588   */\n      tag_496\n        /* \"#utility.yul\":24577:24587   */\n      dup5\n        /* \"#utility.yul\":24559:24588   */\n      tag_244\n      jump\t// in\n    tag_496:\n        /* \"#utility.yul\":24549:24557   */\n      dup2\n        /* \"#utility.yul\":24545:24589   */\n      add\n        /* \"#utility.yul\":24742:24744   */\n      0x20\n        /* \"#utility.yul\":24730:24740   */\n      dup6\n        /* \"#utility.yul\":24727:24745   */\n      lt\n        /* \"#utility.yul\":24724:24773   */\n      iszero\n      tag_497\n      jumpi\n        /* \"#utility.yul\":24763:24771   */\n      dup2\n        /* \"#utility.yul\":24748:24771   */\n      swap1\n      pop\n        /* \"#utility.yul\":24724:24773   */\n    tag_497:\n        /* \"#utility.yul\":24786:24866   */\n      tag_498\n        /* \"#utility.yul\":24842:24864   */\n      tag_499\n        /* \"#utility.yul\":24860:24863   */\n      dup6\n        /* \"#utility.yul\":24842:24864   */\n      tag_244\n      jump\t// in\n    tag_499:\n        /* \"#utility.yul\":24832:24840   */\n      dup4\n        /* \"#utility.yul\":24828:24865   */\n      add\n        /* \"#utility.yul\":24815:24826   */\n      dup3\n        /* \"#utility.yul\":24786:24866   */\n      tag_253\n      jump\t// in\n    tag_498:\n        /* \"#utility.yul\":24445:24876   */\n      pop\n      pop\n        /* \"#utility.yul\":24430:24876   */\n    tag_494:\n        /* \"#utility.yul\":24340:24883   */\n      pop\n      pop\n      pop\n      jump\t// out\n        /* \"#utility.yul\":24889:25006   */\n    tag_255:\n        /* \"#utility.yul\":24943:24951   */\n      0x00\n        /* \"#utility.yul\":24993:24998   */\n      dup3\n        /* \"#utility.yul\":24987:24991   */\n      dup3\n        /* \"#utility.yul\":24983:24999   */\n      shr\n        /* \"#utility.yul\":24962:24999   */\n      swap1\n      pop\n        /* \"#utility.yul\":24889:25006   */\n      swap3\n      swap2\n      pop\n      pop\n      jump\t// out\n        /* \"#utility.yul\":25012:25181   */\n    tag_256:\n        /* \"#utility.yul\":25056:25062   */\n      0x00\n        /* \"#utility.yul\":25089:25140   */\n      tag_502\n        /* \"#utility.yul\":25137:25138   */\n      0x00\n        /* \"#utility.yul\":25133:25139   */\n      not\n        /* \"#utility.yul\":25125:25130   */\n      dup5\n        /* \"#utility.yul\":25122:25123   */\n      0x08\n        /* \"#utility.yul\":25118:25131   */\n      mul\n        /* \"#utility.yul\":25089:25140   */\n      tag_255\n      jump\t// in\n    tag_502:\n        /* \"#utility.yul\":25085:25141   */\n      not\n        /* \"#utility.yul\":25170:25174   */\n      dup1\n        /* \"#utility.yul\":25164:25168   */\n      dup4\n        /* \"#utility.yul\":25160:25175   */\n      and\n        /* \"#utility.yul\":25150:25175   */\n      swap2\n      pop\n        /* \"#utility.yul\":25063:25181   */\n      pop\n        /* \"#utility.yul\":25012:25181   */\n      swap3\n      swap2\n      pop\n      pop\n      jump\t// out\n        /* \"#utility.yul\":25186:25481   */\n    tag_257:\n        /* \"#utility.yul\":25262:25266   */\n      0x00\n        /* \"#utility.yul\":25408:25437   */\n      tag_504\n        /* \"#utility.yul\":25433:25436   */\n      dup4\n        /* \"#utility.yul\":25427:25431   */\n      dup4\n        /* \"#utility.yul\":25408:25437   */\n      tag_256\n      jump\t// in\n    tag_504:\n        /* \"#utility.yul\":25400:25437   */\n      swap2\n      pop\n        /* \"#utility.yul\":25470:25473   */\n      dup3\n        /* \"#utility.yul\":25467:25468   */\n      0x02\n        /* \"#utility.yul\":25463:25474   */\n      mul\n        /* \"#utility.yul\":25457:25461   */\n      dup3\n        /* \"#utility.yul\":25454:25475   */\n      or\n        /* \"#utility.yul\":25446:25475   */\n      swap1\n      pop\n        /* \"#utility.yul\":25186:25481   */\n      swap3\n      swap2\n      pop\n      pop\n      jump\t// out\n        /* \"#utility.yul\":25486:26881   */\n    tag_156:\n        /* \"#utility.yul\":25603:25640   */\n      tag_506\n        /* \"#utility.yul\":25636:25639   */\n      dup3\n        /* \"#utility.yul\":25603:25640   */\n      tag_198\n      jump\t// in\n    tag_506:\n        /* \"#utility.yul\":25705:25723   */\n      0xffffffffffffffff\n        /* \"#utility.yul\":25697:25703   */\n      dup2\n        /* \"#utility.yul\":25694:25724   */\n      gt\n        /* \"#utility.yul\":25691:25747   */\n      iszero\n      tag_507\n      jumpi\n        /* \"#utility.yul\":25727:25745   */\n      tag_508\n      tag_220\n      jump\t// in\n    tag_508:\n        /* \"#utility.yul\":25691:25747   */\n    tag_507:\n        /* \"#utility.yul\":25771:25809   */\n      tag_509\n        /* \"#utility.yul\":25803:25807   */\n      dup3\n        /* \"#utility.yul\":25797:25808   */\n      sload\n        /* \"#utility.yul\":25771:25809   */\n      tag_63\n      jump\t// in\n    tag_509:\n        /* \"#utility.yul\":25856:25923   */\n      tag_510\n        /* \"#utility.yul\":25916:25922   */\n      dup3\n        /* \"#utility.yul\":25908:25914   */\n      dup3\n        /* \"#utility.yul\":25902:25906   */\n      dup6\n        /* \"#utility.yul\":25856:25923   */\n      tag_254\n      jump\t// in\n    tag_510:\n        /* \"#utility.yul\":25950:25951   */\n      0x00\n        /* \"#utility.yul\":25974:25978   */\n      0x20\n        /* \"#utility.yul\":25961:25978   */\n      swap1\n      pop\n        /* \"#utility.yul\":26006:26008   */\n      0x1f\n        /* \"#utility.yul\":25998:26004   */\n      dup4\n        /* \"#utility.yul\":25995:26009   */\n      gt\n        /* \"#utility.yul\":26023:26024   */\n      0x01\n        /* \"#utility.yul\":26018:26636   */\n      dup2\n      eq\n      tag_512\n      jumpi\n        /* \"#utility.yul\":26680:26681   */\n      0x00\n        /* \"#utility.yul\":26697:26703   */\n      dup5\n        /* \"#utility.yul\":26694:26771   */\n      iszero\n      tag_513\n      jumpi\n        /* \"#utility.yul\":26746:26755   */\n      dup3\n        /* \"#utility.yul\":26741:26744   */\n      dup8\n        /* \"#utility.yul\":26737:26756   */\n      add\n        /* \"#utility.yul\":26731:26757   */\n      mload\n        /* \"#utility.yul\":26722:26757   */\n      swap1\n      pop\n        /* \"#utility.yul\":26694:26771   */\n    tag_513:\n        /* \"#utility.yul\":26797:26864   */\n      tag_514\n        /* \"#utility.yul\":26857:26863   */\n      dup6\n        /* \"#utility.yul\":26850:26855   */\n      dup3\n        /* \"#utility.yul\":26797:26864   */\n      tag_257\n      jump\t// in\n    tag_514:\n        /* \"#utility.yul\":26791:26795   */\n      dup7\n        /* \"#utility.yul\":26784:26865   */\n      sstore\n        /* \"#utility.yul\":26653:26875   */\n      pop\n        /* \"#utility.yul\":25988:26875   */\n      jump(tag_511)\n        /* \"#utility.yul\":26018:26636   */\n    tag_512:\n        /* \"#utility.yul\":26070:26074   */\n      0x1f\n        /* \"#utility.yul\":26066:26075   */\n      not\n        /* \"#utility.yul\":26058:26064   */\n      dup5\n        /* \"#utility.yul\":26054:26076   */\n      and\n        /* \"#utility.yul\":26104:26141   */\n      tag_515\n        /* \"#utility.yul\":26136:26140   */\n      dup7\n        /* \"#utility.yul\":26104:26141   */\n      tag_243\n      jump\t// in\n    tag_515:\n        /* \"#utility.yul\":26163:26164   */\n      0x00\n        /* \"#utility.yul\":26177:26385   */\n    tag_516:\n        /* \"#utility.yul\":26191:26198   */\n      dup3\n        /* \"#utility.yul\":26188:26189   */\n      dup2\n        /* \"#utility.yul\":26185:26199   */\n      lt\n        /* \"#utility.yul\":26177:26385   */\n      iszero\n      tag_518\n      jumpi\n        /* \"#utility.yul\":26270:26279   */\n      dup5\n        /* \"#utility.yul\":26265:26268   */\n      dup10\n        /* \"#utility.yul\":26261:26280   */\n      add\n        /* \"#utility.yul\":26255:26281   */\n      mload\n        /* \"#utility.yul\":26247:26253   */\n      dup3\n        /* \"#utility.yul\":26240:26282   */\n      sstore\n        /* \"#utility.yul\":26321:26322   */\n      0x01\n        /* \"#utility.yul\":26313:26319   */\n      dup3\n        /* \"#utility.yul\":26309:26323   */\n      add\n        /* \"#utility.yul\":26299:26323   */\n      swap2\n      pop\n        /* \"#utility.yul\":26368:26370   */\n      0x20\n        /* \"#utility.yul\":26357:26366   */\n      dup6\n        /* \"#utility.yul\":26353:26371   */\n      add\n        /* \"#utility.yul\":26340:26371   */\n      swap5\n      pop\n        /* \"#utility.yul\":26214:26218   */\n      0x20\n        /* \"#utility.yul\":26211:26212   */\n      dup2\n        /* \"#utility.yul\":26207:26219   */\n      add\n        /* \"#utility.yul\":26202:26219   */\n      swap1\n      pop\n        /* \"#utility.yul\":26177:26385   */\n      jump(tag_516)\n    tag_518:\n        /* \"#utility.yul\":26413:26419   */\n      dup7\n        /* \"#utility.yul\":26404:26411   */\n      dup4\n        /* \"#utility.yul\":26401:26420   */\n      lt\n        /* \"#utility.yul\":26398:26577   */\n      iszero\n      tag_519\n      jumpi\n        /* \"#utility.yul\":26471:26480   */\n      dup5\n        /* \"#utility.yul\":26466:26469   */\n      dup10\n        /* \"#utility.yul\":26462:26481   */\n      add\n        /* \"#utility.yul\":26456:26482   */\n      mload\n        /* \"#utility.yul\":26514:26562   */\n      tag_520\n        /* \"#utility.yul\":26556:26560   */\n      0x1f\n        /* \"#utility.yul\":26548:26554   */\n      dup10\n        /* \"#utility.yul\":26544:26561   */\n      and\n        /* \"#utility.yul\":26533:26542   */\n      dup3\n        /* \"#utility.yul\":26514:26562   */\n      tag_256\n      jump\t// in\n    tag_520:\n        /* \"#utility.yul\":26506:26512   */\n      dup4\n        /* \"#utility.yul\":26499:26563   */\n      sstore\n        /* \"#utility.yul\":26421:26577   */\n      pop\n        /* \"#utility.yul\":26398:26577   */\n    tag_519:\n        /* \"#utility.yul\":26623:26624   */\n      0x01\n        /* \"#utility.yul\":26619:26620   */\n      0x02\n        /* \"#utility.yul\":26611:26617   */\n      dup9\n        /* \"#utility.yul\":26607:26621   */\n      mul\n        /* \"#utility.yul\":26603:26625   */\n      add\n        /* \"#utility.yul\":26597:26601   */\n      dup9\n        /* \"#utility.yul\":26590:26626   */\n      sstore\n        /* \"#utility.yul\":26025:26636   */\n      pop\n      pop\n      pop\n        /* \"#utility.yul\":25988:26875   */\n    tag_511:\n      pop\n        /* \"#utility.yul\":25578:26881   */\n      pop\n      pop\n      pop\n        /* \"#utility.yul\":25486:26881   */\n      pop\n      pop\n      jump\t// out\n        /* \"#utility.yul\":26887:27531   */\n    tag_158:\n        /* \"#utility.yul\":27084:27088   */\n      0x00\n        /* \"#utility.yul\":27122:27125   */\n      0x80\n        /* \"#utility.yul\":27111:27120   */\n      dup3\n        /* \"#utility.yul\":27107:27126   */\n      add\n        /* \"#utility.yul\":27099:27126   */\n      swap1\n      pop\n        /* \"#utility.yul\":27136:27207   */\n      tag_522\n        /* \"#utility.yul\":27204:27205   */\n      0x00\n        /* \"#utility.yul\":27193:27202   */\n      dup4\n        /* \"#utility.yul\":27189:27206   */\n      add\n        /* \"#utility.yul\":27180:27186   */\n      dup8\n        /* \"#utility.yul\":27136:27207   */\n      tag_196\n      jump\t// in\n    tag_522:\n        /* \"#utility.yul\":27217:27289   */\n      tag_523\n        /* \"#utility.yul\":27285:27287   */\n      0x20\n        /* \"#utility.yul\":27274:27283   */\n      dup4\n        /* \"#utility.yul\":27270:27288   */\n      add\n        /* \"#utility.yul\":27261:27267   */\n      dup7\n        /* \"#utility.yul\":27217:27289   */\n      tag_197\n      jump\t// in\n    tag_523:\n        /* \"#utility.yul\":27336:27345   */\n      dup2\n        /* \"#utility.yul\":27330:27334   */\n      dup2\n        /* \"#utility.yul\":27326:27346   */\n      sub\n        /* \"#utility.yul\":27321:27323   */\n      0x40\n        /* \"#utility.yul\":27310:27319   */\n      dup4\n        /* \"#utility.yul\":27306:27324   */\n      add\n        /* \"#utility.yul\":27299:27347   */\n      mstore\n        /* \"#utility.yul\":27364:27442   */\n      tag_524\n        /* \"#utility.yul\":27437:27441   */\n      dup2\n        /* \"#utility.yul\":27428:27434   */\n      dup6\n        /* \"#utility.yul\":27364:27442   */\n      tag_202\n      jump\t// in\n    tag_524:\n        /* \"#utility.yul\":27356:27442   */\n      swap1\n      pop\n        /* \"#utility.yul\":27452:27524   */\n      tag_525\n        /* \"#utility.yul\":27520:27522   */\n      0x60\n        /* \"#utility.yul\":27509:27518   */\n      dup4\n        /* \"#utility.yul\":27505:27523   */\n      add\n        /* \"#utility.yul\":27496:27502   */\n      dup5\n        /* \"#utility.yul\":27452:27524   */\n      tag_196\n      jump\t// in\n    tag_525:\n        /* \"#utility.yul\":26887:27531   */\n      swap6\n      swap5\n      pop\n      pop\n      pop\n      pop\n      pop\n      jump\t// out\n\n    auxdata: 0xa2646970667358221220c39468c4e5bb494d9c3f466270756fb2647a1ad11eef8c6b87fc5759ea0418ce64736f6c634300081a0033\n}\n",
				"bytecode": {
					"linkReferences": {},
					"object": "60806040526101185f60146101000a81548161ffff021916908361ffff16021790555034801561002d575f80fd5b5060405161222b38038061222b833981810160405281019061004f9190610235565b335f73ffffffffffffffffffffffffffffffffffffffff168173ffffffffffffffffffffffffffffffffffffffff16036100c0575f6040517f1e4fbdf70000000000000000000000000000000000000000000000000000000081526004016100b7919061026f565b60405180910390fd5b6100cf8161011660201b60201c565b508060025f6101000a81548173ffffffffffffffffffffffffffffffffffffffff021916908373ffffffffffffffffffffffffffffffffffffffff16021790555050610288565b5f805f9054906101000a900473ffffffffffffffffffffffffffffffffffffffff169050815f806101000a81548173ffffffffffffffffffffffffffffffffffffffff021916908373ffffffffffffffffffffffffffffffffffffffff1602179055508173ffffffffffffffffffffffffffffffffffffffff168173ffffffffffffffffffffffffffffffffffffffff167f8be0079c531659141344cd1fd0a4f28419497f9722a3daafe3b4186f6b6457e060405160405180910390a35050565b5f80fd5b5f73ffffffffffffffffffffffffffffffffffffffff82169050919050565b5f610204826101db565b9050919050565b610214816101fa565b811461021e575f80fd5b50565b5f8151905061022f8161020b565b92915050565b5f6020828403121561024a576102496101d7565b5b5f61025784828501610221565b91505092915050565b610269816101fa565b82525050565b5f6020820190506102825f830184610260565b92915050565b611f96806102955f395ff3fe608060405234801561000f575f80fd5b50600436106100a7575f3560e01c80636eb107971161006f5780636eb1079714610163578063715018a6146101815780637c9cd2bc1461018b5780638da5cb5b146101a7578063c3ad5ecb146101c5578063f2fde38b146101f5576100a7565b806305a1b4a9146100ab57806312e7ee1c146100df5780633d9b569f1461010f57806358bfa4ab1461012b5780636337821614610147575b5f80fd5b6100c560048036038101906100c09190611289565b610211565b6040516100d6959493929190611355565b60405180910390f35b6100f960048036038101906100f491906113ad565b610302565b604051610106919061156c565b60405180910390f35b61012960048036038101906101249190611289565b61049d565b005b610145600480360381019061014091906115c3565b61081f565b005b610161600480360381019061015c9190611289565b610846565b005b61016b610b28565b60405161017891906115fd565b60405180910390f35b610189610b3b565b005b6101a560048036038101906101a09190611742565b610b4e565b005b6101af610e39565b6040516101bc9190611789565b60405180910390f35b6101df60048036038101906101da91906117a2565b610e60565b6040516101ec9190611840565b60405180910390f35b61020f600480360381019061020a91906113ad565b610fd7565b005b6001602052815f5260405f20818154811061022a575f80fd5b905f5260205f2090600502015f9150915050805f015490806001015f9054906101000a900473ffffffffffffffffffffffffffffffffffffffff16908060020180546102759061188d565b80601f01602080910402602001604051908101604052809291908181526020018280546102a19061188d565b80156102ec5780601f106102c3576101008083540402835291602001916102ec565b820191905f5260205f20905b8154815290600101906020018083116102cf57829003601f168201915b5050505050908060030154908060040154905085565b606060015f8373ffffffffffffffffffffffffffffffffffffffff1673ffffffffffffffffffffffffffffffffffffffff1681526020019081526020015f20805480602002602001604051908101604052809291908181526020015f905b82821015610492578382905f5260205f2090600502016040518060a00160405290815f8201548152602001600182015f9054906101000a900473ffffffffffffffffffffffffffffffffffffffff1673ffffffffffffffffffffffffffffffffffffffff1673ffffffffffffffffffffffffffffffffffffffff1681526020016002820180546103ef9061188d565b80601f016020809104026020016040519081016040528092919081815260200182805461041b9061188d565b80156104665780601f1061043d57610100808354040283529160200191610466565b820191905f5260205f20905b81548152906001019060200180831161044957829003601f168201915b505050505081526020016003820154815260200160048201548152505081526020019060010190610360565b505050509050919050565b5f60025f9054906101000a900473ffffffffffffffffffffffffffffffffffffffff1673ffffffffffffffffffffffffffffffffffffffff16630f53a470336040518263ffffffff1660e01b81526004016104f89190611789565b5f60405180830381865afa158015610512573d5f803e3d5ffd5b505050506040513d5f823e3d601f19601f8201168201806040525081019061053a91906119b8565b90505f815f01515111610582576040517f08c379a000000000000000000000000000000000000000000000000000000000815260040161057990611a49565b60405180910390fd5b60015f8473ffffffffffffffffffffffffffffffffffffffff1673ffffffffffffffffffffffffffffffffffffffff1681526020019081526020015f20805490508210801561062d57508160015f8573ffffffffffffffffffffffffffffffffffffffff1673ffffffffffffffffffffffffffffffffffffffff1681526020019081526020015f20838154811061061c5761061b611a67565b5b905f5260205f2090600502015f0154145b61066c576040517f08c379a000000000000000000000000000000000000000000000000000000000815260040161066390611ade565b60405180910390fd5b5f60015f8573ffffffffffffffffffffffffffffffffffffffff1673ffffffffffffffffffffffffffffffffffffffff1681526020019081526020015f2083815481106106bc576106bb611a67565b5b905f5260205f209060050201600401541161070c576040517f08c379a000000000000000000000000000000000000000000000000000000000815260040161070390611b46565b60405180910390fd5b60015f8473ffffffffffffffffffffffffffffffffffffffff1673ffffffffffffffffffffffffffffffffffffffff1681526020019081526020015f20828154811061075b5761075a611a67565b5b905f5260205f2090600502016004015f81548092919061077a90611b91565b91905055507f762c2616349603ac16eba0de8e6141b79129a07ab63bd99e0a80b3a47171694333848460015f8873ffffffffffffffffffffffffffffffffffffffff1673ffffffffffffffffffffffffffffffffffffffff1681526020019081526020015f2086815481106107f2576107f1611a67565b5b905f5260205f209060050201600401546040516108129493929190611bb8565b60405180910390a1505050565b61082761105b565b805f60146101000a81548161ffff021916908361ffff16021790555050565b5f60025f9054906101000a900473ffffffffffffffffffffffffffffffffffffffff1673ffffffffffffffffffffffffffffffffffffffff16630f53a470336040518263ffffffff1660e01b81526004016108a19190611789565b5f60405180830381865afa1580156108bb573d5f803e3d5ffd5b505050506040513d5f823e3d601f19601f820116820180604052508101906108e391906119b8565b90505f815f0151511161092b576040517f08c379a000000000000000000000000000000000000000000000000000000000815260040161092290611a49565b60405180910390fd5b60015f8473ffffffffffffffffffffffffffffffffffffffff1673ffffffffffffffffffffffffffffffffffffffff1681526020019081526020015f2080549050821080156109d657508160015f8573ffffffffffffffffffffffffffffffffffffffff1673ffffffffffffffffffffffffffffffffffffffff1681526020019081526020015f2083815481106109c5576109c4611a67565b5b905f5260205f2090600502015f0154145b610a15576040517f08c379a0000000000000000000000000000000000000000000000000000000008152600401610a0c90611ade565b60405180910390fd5b60015f8473ffffffffffffffffffffffffffffffffffffffff1673ffffffffffffffffffffffffffffffffffffffff1681526020019081526020015f208281548110610a6457610a63611a67565b5b905f5260205f2090600502016004015f815480929190610a8390611bfb565b91905055507fe8a76fc0f16d11a00d1e93b689b63d76cf60af914dd3d915375dc41d01a0c3c833848460015f8873ffffffffffffffffffffffffffffffffffffffff1673ffffffffffffffffffffffffffffffffffffffff1681526020019081526020015f208681548110610afb57610afa611a67565b5b905f5260205f20906005020160040154604051610b1b9493929190611bb8565b60405180910390a1505050565b5f60149054906101000a900461ffff1681565b610b4361105b565b610b4c5f6110e2565b565b5f60025f9054906101000a900473ffffffffffffffffffffffffffffffffffffffff1673ffffffffffffffffffffffffffffffffffffffff16630f53a470336040518263ffffffff1660e01b8152600401610ba99190611789565b5f60405180830381865afa158015610bc3573d5f803e3d5ffd5b505050506040513d5f823e3d601f19601f82011682018060405250810190610beb91906119b8565b90505f815f01515111610c33576040517f08c379a0000000000000000000000000000000000000000000000000000000008152600401610c2a90611a49565b60405180910390fd5b5f60149054906101000a900461ffff1661ffff1682511115610c8a576040517f08c379a0000000000000000000000000000000000000000000000000000000008152600401610c8190611c8c565b60405180910390fd5b5f6040518060a0016040528060015f3373ffffffffffffffffffffffffffffffffffffffff1673ffffffffffffffffffffffffffffffffffffffff1681526020019081526020015f208054905081526020013373ffffffffffffffffffffffffffffffffffffffff1681526020018481526020014281526020015f815250905060015f3373ffffffffffffffffffffffffffffffffffffffff1673ffffffffffffffffffffffffffffffffffffffff1681526020019081526020015f2081908060018154018082558091505060019003905f5260205f2090600502015f909190919091505f820151815f01556020820151816001015f6101000a81548173ffffffffffffffffffffffffffffffffffffffff021916908373ffffffffffffffffffffffffffffffffffffffff1602179055506040820151816002019081610dd19190611e47565b50606082015181600301556080820151816004015550507f16fd3c13e9d46923e0a8bce11c7b473ec508a72e6c96cd2404b29ce972afc29e815f0151826020015183604001518460600151604051610e2c9493929190611f16565b60405180910390a1505050565b5f805f9054906101000a900473ffffffffffffffffffffffffffffffffffffffff16905090565b610e686111aa565b60015f3373ffffffffffffffffffffffffffffffffffffffff1673ffffffffffffffffffffffffffffffffffffffff1681526020019081526020015f208281548110610eb757610eb6611a67565b5b905f5260205f2090600502016040518060a00160405290815f8201548152602001600182015f9054906101000a900473ffffffffffffffffffffffffffffffffffffffff1673ffffffffffffffffffffffffffffffffffffffff1673ffffffffffffffffffffffffffffffffffffffff168152602001600282018054610f3c9061188d565b80601f0160208091040260200160405190810160405280929190818152602001828054610f689061188d565b8015610fb35780601f10610f8a57610100808354040283529160200191610fb3565b820191905f5260205f20905b815481529060010190602001808311610f9657829003601f168201915b50505050508152602001600382015481526020016004820154815250509050919050565b610fdf61105b565b5f73ffffffffffffffffffffffffffffffffffffffff168173ffffffffffffffffffffffffffffffffffffffff160361104f575f6040517f1e4fbdf70000000000000000000000000000000000000000000000000000000081526004016110469190611789565b60405180910390fd5b611058816110e2565b50565b6110636111a3565b73ffffffffffffffffffffffffffffffffffffffff16611081610e39565b73ffffffffffffffffffffffffffffffffffffffff16146110e0576110a46111a3565b6040517f118cdaa70000000000000000000000000000000000000000000000000000000081526004016110d79190611789565b60405180910390fd5b565b5f805f9054906101000a900473ffffffffffffffffffffffffffffffffffffffff169050815f806101000a81548173ffffffffffffffffffffffffffffffffffffffff021916908373ffffffffffffffffffffffffffffffffffffffff1602179055508173ffffffffffffffffffffffffffffffffffffffff168173ffffffffffffffffffffffffffffffffffffffff167f8be0079c531659141344cd1fd0a4f28419497f9722a3daafe3b4186f6b6457e060405160405180910390a35050565b5f33905090565b6040518060a001604052805f81526020015f73ffffffffffffffffffffffffffffffffffffffff168152602001606081526020015f81526020015f81525090565b5f604051905090565b5f80fd5b5f80fd5b5f73ffffffffffffffffffffffffffffffffffffffff82169050919050565b5f611225826111fc565b9050919050565b6112358161121b565b811461123f575f80fd5b50565b5f813590506112508161122c565b92915050565b5f819050919050565b61126881611256565b8114611272575f80fd5b50565b5f813590506112838161125f565b92915050565b5f806040838503121561129f5761129e6111f4565b5b5f6112ac85828601611242565b92505060206112bd85828601611275565b9150509250929050565b6112d081611256565b82525050565b6112df8161121b565b82525050565b5f81519050919050565b5f82825260208201905092915050565b8281835e5f83830152505050565b5f601f19601f8301169050919050565b5f611327826112e5565b61133181856112ef565b93506113418185602086016112ff565b61134a8161130d565b840191505092915050565b5f60a0820190506113685f8301886112c7565b61137560208301876112d6565b8181036040830152611387818661131d565b905061139660608301856112c7565b6113a360808301846112c7565b9695505050505050565b5f602082840312156113c2576113c16111f4565b5b5f6113cf84828501611242565b91505092915050565b5f81519050919050565b5f82825260208201905092915050565b5f819050602082019050919050565b61140a81611256565b82525050565b6114198161121b565b82525050565b5f82825260208201905092915050565b5f611439826112e5565b611443818561141f565b93506114538185602086016112ff565b61145c8161130d565b840191505092915050565b5f60a083015f83015161147c5f860182611401565b50602083015161148f6020860182611410565b50604083015184820360408601526114a7828261142f565b91505060608301516114bc6060860182611401565b5060808301516114cf6080860182611401565b508091505092915050565b5f6114e58383611467565b905092915050565b5f602082019050919050565b5f611503826113d8565b61150d81856113e2565b93508360208202850161151f856113f2565b805f5b8581101561155a578484038952815161153b85826114da565b9450611546836114ed565b925060208a01995050600181019050611522565b50829750879550505050505092915050565b5f6020820190508181035f83015261158481846114f9565b905092915050565b5f61ffff82169050919050565b6115a28161158c565b81146115ac575f80fd5b50565b5f813590506115bd81611599565b92915050565b5f602082840312156115d8576115d76111f4565b5b5f6115e5848285016115af565b91505092915050565b6115f78161158c565b82525050565b5f6020820190506116105f8301846115ee565b92915050565b5f80fd5b5f80fd5b7f4e487b71000000000000000000000000000000000000000000000000000000005f52604160045260245ffd5b6116548261130d565b810181811067ffffffffffffffff821117156116735761167261161e565b5b80604052505050565b5f6116856111eb565b9050611691828261164b565b919050565b5f67ffffffffffffffff8211156116b0576116af61161e565b5b6116b98261130d565b9050602081019050919050565b828183375f83830152505050565b5f6116e66116e184611696565b61167c565b9050828152602081018484840111156117025761170161161a565b5b61170d8482856116c6565b509392505050565b5f82601f83011261172957611728611616565b5b81356117398482602086016116d4565b91505092915050565b5f60208284031215611757576117566111f4565b5b5f82013567ffffffffffffffff811115611774576117736111f8565b5b61178084828501611715565b91505092915050565b5f60208201905061179c5f8301846112d6565b92915050565b5f602082840312156117b7576117b66111f4565b5b5f6117c484828501611275565b91505092915050565b5f60a083015f8301516117e25f860182611401565b5060208301516117f56020860182611410565b506040830151848203604086015261180d828261142f565b91505060608301516118226060860182611401565b5060808301516118356080860182611401565b508091505092915050565b5f6020820190508181035f83015261185881846117cd565b905092915050565b7f4e487b71000000000000000000000000000000000000000000000000000000005f52602260045260245ffd5b5f60028204905060018216806118a457607f821691505b6020821081036118b7576118b6611860565b5b50919050565b5f80fd5b5f80fd5b5f6118d76118d284611696565b61167c565b9050828152602081018484840111156118f3576118f261161a565b5b6118fe8482856112ff565b509392505050565b5f82601f83011261191a57611919611616565b5b815161192a8482602086016118c5565b91505092915050565b5f60408284031215611948576119476118bd565b5b611952604061167c565b90505f82015167ffffffffffffffff811115611971576119706118c1565b5b61197d84828501611906565b5f83015250602082015167ffffffffffffffff8111156119a05761199f6118c1565b5b6119ac84828501611906565b60208301525092915050565b5f602082840312156119cd576119cc6111f4565b5b5f82015167ffffffffffffffff8111156119ea576119e96111f8565b5b6119f684828501611933565b91505092915050565b7f55736572206e6f742052656769737465726564000000000000000000000000005f82015250565b5f611a336013836112ef565b9150611a3e826119ff565b602082019050919050565b5f6020820190508181035f830152611a6081611a27565b9050919050565b7f4e487b71000000000000000000000000000000000000000000000000000000005f52603260045260245ffd5b7f547765657420446f6573204e6f742045786973740000000000000000000000005f82015250565b5f611ac86014836112ef565b9150611ad382611a94565b602082019050919050565b5f6020820190508181035f830152611af581611abc565b9050919050565b7f54776565747320686173206e6f206c696b6573000000000000000000000000005f82015250565b5f611b306013836112ef565b9150611b3b82611afc565b602082019050919050565b5f6020820190508181035f830152611b5d81611b24565b9050919050565b7f4e487b71000000000000000000000000000000000000000000000000000000005f52601160045260245ffd5b5f611b9b82611256565b91505f8203611bad57611bac611b64565b5b600182039050919050565b5f608082019050611bcb5f8301876112d6565b611bd860208301866112d6565b611be560408301856112c7565b611bf260608301846112c7565b95945050505050565b5f611c0582611256565b91507fffffffffffffffffffffffffffffffffffffffffffffffffffffffffffffffff8203611c3757611c36611b64565b5b600182019050919050565b7f547765657420697320746f6f206c6f6e672062726f3a200000000000000000005f82015250565b5f611c766017836112ef565b9150611c8182611c42565b602082019050919050565b5f6020820190508181035f830152611ca381611c6a565b9050919050565b5f819050815f5260205f209050919050565b5f6020601f8301049050919050565b5f82821b905092915050565b5f60088302611d067fffffffffffffffffffffffffffffffffffffffffffffffffffffffffffffffff82611ccb565b611d108683611ccb565b95508019841693508086168417925050509392505050565b5f819050919050565b5f611d4b611d46611d4184611256565b611d28565b611256565b9050919050565b5f819050919050565b611d6483611d31565b611d78611d7082611d52565b848454611cd7565b825550505050565b5f90565b611d8c611d80565b611d97818484611d5b565b505050565b5b81811015611dba57611daf5f82611d84565b600181019050611d9d565b5050565b601f821115611dff57611dd081611caa565b611dd984611cbc565b81016020851015611de8578190505b611dfc611df485611cbc565b830182611d9c565b50505b505050565b5f82821c905092915050565b5f611e1f5f1984600802611e04565b1980831691505092915050565b5f611e378383611e10565b9150826002028217905092915050565b611e50826112e5565b67ffffffffffffffff811115611e6957611e6861161e565b5b611e73825461188d565b611e7e828285611dbe565b5f60209050601f831160018114611eaf575f8415611e9d578287015190505b611ea78582611e2c565b865550611f0e565b601f198416611ebd86611caa565b5f5b82811015611ee457848901518255600182019150602085019450602081019050611ebf565b86831015611f015784890151611efd601f891682611e10565b8355505b6001600288020188555050505b505050505050565b5f608082019050611f295f8301876112c7565b611f3660208301866112d6565b8181036040830152611f48818561131d565b9050611f5760608301846112c7565b9594505050505056fea2646970667358221220c39468c4e5bb494d9c3f466270756fb2647a1ad11eef8c6b87fc5759ea0418ce64736f6c634300081a0033",
					"opcodes": "PUSH1 0x80 PUSH1 0x40 MSTORE PUSH2 0x118 PUSH0 PUSH1 0x14 PUSH2 0x100 EXP DUP2 SLOAD DUP2 PUSH2 0xFFFF MUL NOT AND SWAP1 DUP4 PUSH2 0xFFFF AND MUL OR SWAP1 SSTORE POP CALLVALUE DUP1 ISZERO PUSH2 0x2D JUMPI PUSH0 DUP1 REVERT JUMPDEST POP PUSH1 0x40 MLOAD PUSH2 0x222B CODESIZE SUB DUP1 PUSH2 0x222B DUP4 CODECOPY DUP2 DUP2 ADD PUSH1 0x40 MSTORE DUP2 ADD SWAP1 PUSH2 0x4F SWAP2 SWAP1 PUSH2 0x235 JUMP JUMPDEST CALLER PUSH0 PUSH20 0xFFFFFFFFFFFFFFFFFFFFFFFFFFFFFFFFFFFFFFFF AND DUP2 PUSH20 0xFFFFFFFFFFFFFFFFFFFFFFFFFFFFFFFFFFFFFFFF AND SUB PUSH2 0xC0 JUMPI PUSH0 PUSH1 0x40 MLOAD PUSH32 0x1E4FBDF700000000000000000000000000000000000000000000000000000000 DUP2 MSTORE PUSH1 0x4 ADD PUSH2 0xB7 SWAP2 SWAP1 PUSH2 0x26F JUMP JUMPDEST PUSH1 0x40 MLOAD DUP1 SWAP2 SUB SWAP1 REVERT JUMPDEST PUSH2 0xCF DUP2 PUSH2 0x116 PUSH1 0x20 SHL PUSH1 0x20 SHR JUMP JUMPDEST POP DUP1 PUSH1 0x2 PUSH0 PUSH2 0x100 EXP DUP2 SLOAD DUP2 PUSH20 0xFFFFFFFFFFFFFFFFFFFFFFFFFFFFFFFFFFFFFFFF MUL NOT AND SWAP1 DUP4 PUSH20 0xFFFFFFFFFFFFFFFFFFFFFFFFFFFFFFFFFFFFFFFF AND MUL OR SWAP1 SSTORE POP POP PUSH2 0x288 JUMP JUMPDEST PUSH0 DUP1 PUSH0 SWAP1 SLOAD SWAP1 PUSH2 0x100 EXP SWAP1 DIV PUSH20 0xFFFFFFFFFFFFFFFFFFFFFFFFFFFFFFFFFFFFFFFF AND SWAP1 POP DUP2 PUSH0 DUP1 PUSH2 0x100 EXP DUP2 SLOAD DUP2 PUSH20 0xFFFFFFFFFFFFFFFFFFFFFFFFFFFFFFFFFFFFFFFF MUL NOT AND SWAP1 DUP4 PUSH20 0xFFFFFFFFFFFFFFFFFFFFFFFFFFFFFFFFFFFFFFFF AND MUL OR SWAP1 SSTORE POP DUP2 PUSH20 0xFFFFFFFFFFFFFFFFFFFFFFFFFFFFFFFFFFFFFFFF AND DUP2 PUSH20 0xFFFFFFFFFFFFFFFFFFFFFFFFFFFFFFFFFFFFFFFF AND PUSH32 0x8BE0079C531659141344CD1FD0A4F28419497F9722A3DAAFE3B4186F6B6457E0 PUSH1 0x40 MLOAD PUSH1 0x40 MLOAD DUP1 SWAP2 SUB SWAP1 LOG3 POP POP JUMP JUMPDEST PUSH0 DUP1 REVERT JUMPDEST PUSH0 PUSH20 0xFFFFFFFFFFFFFFFFFFFFFFFFFFFFFFFFFFFFFFFF DUP3 AND SWAP1 POP SWAP2 SWAP1 POP JUMP JUMPDEST PUSH0 PUSH2 0x204 DUP3 PUSH2 0x1DB JUMP JUMPDEST SWAP1 POP SWAP2 SWAP1 POP JUMP JUMPDEST PUSH2 0x214 DUP2 PUSH2 0x1FA JUMP JUMPDEST DUP2 EQ PUSH2 0x21E JUMPI PUSH0 DUP1 REVERT JUMPDEST POP JUMP JUMPDEST PUSH0 DUP2 MLOAD SWAP1 POP PUSH2 0x22F DUP2 PUSH2 0x20B JUMP JUMPDEST SWAP3 SWAP2 POP POP JUMP JUMPDEST PUSH0 PUSH1 0x20 DUP3 DUP5 SUB SLT ISZERO PUSH2 0x24A JUMPI PUSH2 0x249 PUSH2 0x1D7 JUMP JUMPDEST JUMPDEST PUSH0 PUSH2 0x257 DUP5 DUP3 DUP6 ADD PUSH2 0x221 JUMP JUMPDEST SWAP2 POP POP SWAP3 SWAP2 POP POP JUMP JUMPDEST PUSH2 0x269 DUP2 PUSH2 0x1FA JUMP JUMPDEST DUP3 MSTORE POP POP JUMP JUMPDEST PUSH0 PUSH1 0x20 DUP3 ADD SWAP1 POP PUSH2 0x282 PUSH0 DUP4 ADD DUP5 PUSH2 0x260 JUMP JUMPDEST SWAP3 SWAP2 POP POP JUMP JUMPDEST PUSH2 0x1F96 DUP1 PUSH2 0x295 PUSH0 CODECOPY PUSH0 RETURN INVALID PUSH1 0x80 PUSH1 0x40 MSTORE CALLVALUE DUP1 ISZERO PUSH2 0xF JUMPI PUSH0 DUP1 REVERT JUMPDEST POP PUSH1 0x4 CALLDATASIZE LT PUSH2 0xA7 JUMPI PUSH0 CALLDATALOAD PUSH1 0xE0 SHR DUP1 PUSH4 0x6EB10797 GT PUSH2 0x6F JUMPI DUP1 PUSH4 0x6EB10797 EQ PUSH2 0x163 JUMPI DUP1 PUSH4 0x715018A6 EQ PUSH2 0x181 JUMPI DUP1 PUSH4 0x7C9CD2BC EQ PUSH2 0x18B JUMPI DUP1 PUSH4 0x8DA5CB5B EQ PUSH2 0x1A7 JUMPI DUP1 PUSH4 0xC3AD5ECB EQ PUSH2 0x1C5 JUMPI DUP1 PUSH4 0xF2FDE38B EQ PUSH2 0x1F5 JUMPI PUSH2 0xA7 JUMP JUMPDEST DUP1 PUSH4 0x5A1B4A9 EQ PUSH2 0xAB JUMPI DUP1 PUSH4 0x12E7EE1C EQ PUSH2 0xDF JUMPI DUP1 PUSH4 0x3D9B569F EQ PUSH2 0x10F JUMPI DUP1 PUSH4 0x58BFA4AB EQ PUSH2 0x12B JUMPI DUP1 PUSH4 0x63378216 EQ PUSH2 0x147 JUMPI JUMPDEST PUSH0 DUP1 REVERT JUMPDEST PUSH2 0xC5 PUSH1 0x4 DUP1 CALLDATASIZE SUB DUP2 ADD SWAP1 PUSH2 0xC0 SWAP2 SWAP1 PUSH2 0x1289 JUMP JUMPDEST PUSH2 0x211 JUMP JUMPDEST PUSH1 0x40 MLOAD PUSH2 0xD6 SWAP6 SWAP5 SWAP4 SWAP3 SWAP2 SWAP1 PUSH2 0x1355 JUMP JUMPDEST PUSH1 0x40 MLOAD DUP1 SWAP2 SUB SWAP1 RETURN JUMPDEST PUSH2 0xF9 PUSH1 0x4 DUP1 CALLDATASIZE SUB DUP2 ADD SWAP1 PUSH2 0xF4 SWAP2 SWAP1 PUSH2 0x13AD JUMP JUMPDEST PUSH2 0x302 JUMP JUMPDEST PUSH1 0x40 MLOAD PUSH2 0x106 SWAP2 SWAP1 PUSH2 0x156C JUMP JUMPDEST PUSH1 0x40 MLOAD DUP1 SWAP2 SUB SWAP1 RETURN JUMPDEST PUSH2 0x129 PUSH1 0x4 DUP1 CALLDATASIZE SUB DUP2 ADD SWAP1 PUSH2 0x124 SWAP2 SWAP1 PUSH2 0x1289 JUMP JUMPDEST PUSH2 0x49D JUMP JUMPDEST STOP JUMPDEST PUSH2 0x145 PUSH1 0x4 DUP1 CALLDATASIZE SUB DUP2 ADD SWAP1 PUSH2 0x140 SWAP2 SWAP1 PUSH2 0x15C3 JUMP JUMPDEST PUSH2 0x81F JUMP JUMPDEST STOP JUMPDEST PUSH2 0x161 PUSH1 0x4 DUP1 CALLDATASIZE SUB DUP2 ADD SWAP1 PUSH2 0x15C SWAP2 SWAP1 PUSH2 0x1289 JUMP JUMPDEST PUSH2 0x846 JUMP JUMPDEST STOP JUMPDEST PUSH2 0x16B PUSH2 0xB28 JUMP JUMPDEST PUSH1 0x40 MLOAD PUSH2 0x178 SWAP2 SWAP1 PUSH2 0x15FD JUMP JUMPDEST PUSH1 0x40 MLOAD DUP1 SWAP2 SUB SWAP1 RETURN JUMPDEST PUSH2 0x189 PUSH2 0xB3B JUMP JUMPDEST STOP JUMPDEST PUSH2 0x1A5 PUSH1 0x4 DUP1 CALLDATASIZE SUB DUP2 ADD SWAP1 PUSH2 0x1A0 SWAP2 SWAP1 PUSH2 0x1742 JUMP JUMPDEST PUSH2 0xB4E JUMP JUMPDEST STOP JUMPDEST PUSH2 0x1AF PUSH2 0xE39 JUMP JUMPDEST PUSH1 0x40 MLOAD PUSH2 0x1BC SWAP2 SWAP1 PUSH2 0x1789 JUMP JUMPDEST PUSH1 0x40 MLOAD DUP1 SWAP2 SUB SWAP1 RETURN JUMPDEST PUSH2 0x1DF PUSH1 0x4 DUP1 CALLDATASIZE SUB DUP2 ADD SWAP1 PUSH2 0x1DA SWAP2 SWAP1 PUSH2 0x17A2 JUMP JUMPDEST PUSH2 0xE60 JUMP JUMPDEST PUSH1 0x40 MLOAD PUSH2 0x1EC SWAP2 SWAP1 PUSH2 0x1840 JUMP JUMPDEST PUSH1 0x40 MLOAD DUP1 SWAP2 SUB SWAP1 RETURN JUMPDEST PUSH2 0x20F PUSH1 0x4 DUP1 CALLDATASIZE SUB DUP2 ADD SWAP1 PUSH2 0x20A SWAP2 SWAP1 PUSH2 0x13AD JUMP JUMPDEST PUSH2 0xFD7 JUMP JUMPDEST STOP JUMPDEST PUSH1 0x1 PUSH1 0x20 MSTORE DUP2 PUSH0 MSTORE PUSH1 0x40 PUSH0 KECCAK256 DUP2 DUP2 SLOAD DUP2 LT PUSH2 0x22A JUMPI PUSH0 DUP1 REVERT JUMPDEST SWAP1 PUSH0 MSTORE PUSH1 0x20 PUSH0 KECCAK256 SWAP1 PUSH1 0x5 MUL ADD PUSH0 SWAP2 POP SWAP2 POP POP DUP1 PUSH0 ADD SLOAD SWAP1 DUP1 PUSH1 0x1 ADD PUSH0 SWAP1 SLOAD SWAP1 PUSH2 0x100 EXP SWAP1 DIV PUSH20 0xFFFFFFFFFFFFFFFFFFFFFFFFFFFFFFFFFFFFFFFF AND SWAP1 DUP1 PUSH1 0x2 ADD DUP1 SLOAD PUSH2 0x275 SWAP1 PUSH2 0x188D JUMP JUMPDEST DUP1 PUSH1 0x1F ADD PUSH1 0x20 DUP1 SWAP2 DIV MUL PUSH1 0x20 ADD PUSH1 0x40 MLOAD SWAP1 DUP2 ADD PUSH1 0x40 MSTORE DUP1 SWAP3 SWAP2 SWAP1 DUP2 DUP2 MSTORE PUSH1 0x20 ADD DUP3 DUP1 SLOAD PUSH2 0x2A1 SWAP1 PUSH2 0x188D JUMP JUMPDEST DUP1 ISZERO PUSH2 0x2EC JUMPI DUP1 PUSH1 0x1F LT PUSH2 0x2C3 JUMPI PUSH2 0x100 DUP1 DUP4 SLOAD DIV MUL DUP4 MSTORE SWAP2 PUSH1 0x20 ADD SWAP2 PUSH2 0x2EC JUMP JUMPDEST DUP3 ADD SWAP2 SWAP1 PUSH0 MSTORE PUSH1 0x20 PUSH0 KECCAK256 SWAP1 JUMPDEST DUP2 SLOAD DUP2 MSTORE SWAP1 PUSH1 0x1 ADD SWAP1 PUSH1 0x20 ADD DUP1 DUP4 GT PUSH2 0x2CF JUMPI DUP3 SWAP1 SUB PUSH1 0x1F AND DUP3 ADD SWAP2 JUMPDEST POP POP POP POP POP SWAP1 DUP1 PUSH1 0x3 ADD SLOAD SWAP1 DUP1 PUSH1 0x4 ADD SLOAD SWAP1 POP DUP6 JUMP JUMPDEST PUSH1 0x60 PUSH1 0x1 PUSH0 DUP4 PUSH20 0xFFFFFFFFFFFFFFFFFFFFFFFFFFFFFFFFFFFFFFFF AND PUSH20 0xFFFFFFFFFFFFFFFFFFFFFFFFFFFFFFFFFFFFFFFF AND DUP2 MSTORE PUSH1 0x20 ADD SWAP1 DUP2 MSTORE PUSH1 0x20 ADD PUSH0 KECCAK256 DUP1 SLOAD DUP1 PUSH1 0x20 MUL PUSH1 0x20 ADD PUSH1 0x40 MLOAD SWAP1 DUP2 ADD PUSH1 0x40 MSTORE DUP1 SWAP3 SWAP2 SWAP1 DUP2 DUP2 MSTORE PUSH1 0x20 ADD PUSH0 SWAP1 JUMPDEST DUP3 DUP3 LT ISZERO PUSH2 0x492 JUMPI DUP4 DUP3 SWAP1 PUSH0 MSTORE PUSH1 0x20 PUSH0 KECCAK256 SWAP1 PUSH1 0x5 MUL ADD PUSH1 0x40 MLOAD DUP1 PUSH1 0xA0 ADD PUSH1 0x40 MSTORE SWAP1 DUP2 PUSH0 DUP3 ADD SLOAD DUP2 MSTORE PUSH1 0x20 ADD PUSH1 0x1 DUP3 ADD PUSH0 SWAP1 SLOAD SWAP1 PUSH2 0x100 EXP SWAP1 DIV PUSH20 0xFFFFFFFFFFFFFFFFFFFFFFFFFFFFFFFFFFFFFFFF AND PUSH20 0xFFFFFFFFFFFFFFFFFFFFFFFFFFFFFFFFFFFFFFFF AND PUSH20 0xFFFFFFFFFFFFFFFFFFFFFFFFFFFFFFFFFFFFFFFF AND DUP2 MSTORE PUSH1 0x20 ADD PUSH1 0x2 DUP3 ADD DUP1 SLOAD PUSH2 0x3EF SWAP1 PUSH2 0x188D JUMP JUMPDEST DUP1 PUSH1 0x1F ADD PUSH1 0x20 DUP1 SWAP2 DIV MUL PUSH1 0x20 ADD PUSH1 0x40 MLOAD SWAP1 DUP2 ADD PUSH1 0x40 MSTORE DUP1 SWAP3 SWAP2 SWAP1 DUP2 DUP2 MSTORE PUSH1 0x20 ADD DUP3 DUP1 SLOAD PUSH2 0x41B SWAP1 PUSH2 0x188D JUMP JUMPDEST DUP1 ISZERO PUSH2 0x466 JUMPI DUP1 PUSH1 0x1F LT PUSH2 0x43D JUMPI PUSH2 0x100 DUP1 DUP4 SLOAD DIV MUL DUP4 MSTORE SWAP2 PUSH1 0x20 ADD SWAP2 PUSH2 0x466 JUMP JUMPDEST DUP3 ADD SWAP2 SWAP1 PUSH0 MSTORE PUSH1 0x20 PUSH0 KECCAK256 SWAP1 JUMPDEST DUP2 SLOAD DUP2 MSTORE SWAP1 PUSH1 0x1 ADD SWAP1 PUSH1 0x20 ADD DUP1 DUP4 GT PUSH2 0x449 JUMPI DUP3 SWAP1 SUB PUSH1 0x1F AND DUP3 ADD SWAP2 JUMPDEST POP POP POP POP POP DUP2 MSTORE PUSH1 0x20 ADD PUSH1 0x3 DUP3 ADD SLOAD DUP2 MSTORE PUSH1 0x20 ADD PUSH1 0x4 DUP3 ADD SLOAD DUP2 MSTORE POP POP DUP2 MSTORE PUSH1 0x20 ADD SWAP1 PUSH1 0x1 ADD SWAP1 PUSH2 0x360 JUMP JUMPDEST POP POP POP POP SWAP1 POP SWAP2 SWAP1 POP JUMP JUMPDEST PUSH0 PUSH1 0x2 PUSH0 SWAP1 SLOAD SWAP1 PUSH2 0x100 EXP SWAP1 DIV PUSH20 0xFFFFFFFFFFFFFFFFFFFFFFFFFFFFFFFFFFFFFFFF AND PUSH20 0xFFFFFFFFFFFFFFFFFFFFFFFFFFFFFFFFFFFFFFFF AND PUSH4 0xF53A470 CALLER PUSH1 0x40 MLOAD DUP3 PUSH4 0xFFFFFFFF AND PUSH1 0xE0 SHL DUP2 MSTORE PUSH1 0x4 ADD PUSH2 0x4F8 SWAP2 SWAP1 PUSH2 0x1789 JUMP JUMPDEST PUSH0 PUSH1 0x40 MLOAD DUP1 DUP4 SUB DUP2 DUP7 GAS STATICCALL ISZERO DUP1 ISZERO PUSH2 0x512 JUMPI RETURNDATASIZE PUSH0 DUP1 RETURNDATACOPY RETURNDATASIZE PUSH0 REVERT JUMPDEST POP POP POP POP PUSH1 0x40 MLOAD RETURNDATASIZE PUSH0 DUP3 RETURNDATACOPY RETURNDATASIZE PUSH1 0x1F NOT PUSH1 0x1F DUP3 ADD AND DUP3 ADD DUP1 PUSH1 0x40 MSTORE POP DUP2 ADD SWAP1 PUSH2 0x53A SWAP2 SWAP1 PUSH2 0x19B8 JUMP JUMPDEST SWAP1 POP PUSH0 DUP2 PUSH0 ADD MLOAD MLOAD GT PUSH2 0x582 JUMPI PUSH1 0x40 MLOAD PUSH32 0x8C379A000000000000000000000000000000000000000000000000000000000 DUP2 MSTORE PUSH1 0x4 ADD PUSH2 0x579 SWAP1 PUSH2 0x1A49 JUMP JUMPDEST PUSH1 0x40 MLOAD DUP1 SWAP2 SUB SWAP1 REVERT JUMPDEST PUSH1 0x1 PUSH0 DUP5 PUSH20 0xFFFFFFFFFFFFFFFFFFFFFFFFFFFFFFFFFFFFFFFF AND PUSH20 0xFFFFFFFFFFFFFFFFFFFFFFFFFFFFFFFFFFFFFFFF AND DUP2 MSTORE PUSH1 0x20 ADD SWAP1 DUP2 MSTORE PUSH1 0x20 ADD PUSH0 KECCAK256 DUP1 SLOAD SWAP1 POP DUP3 LT DUP1 ISZERO PUSH2 0x62D JUMPI POP DUP2 PUSH1 0x1 PUSH0 DUP6 PUSH20 0xFFFFFFFFFFFFFFFFFFFFFFFFFFFFFFFFFFFFFFFF AND PUSH20 0xFFFFFFFFFFFFFFFFFFFFFFFFFFFFFFFFFFFFFFFF AND DUP2 MSTORE PUSH1 0x20 ADD SWAP1 DUP2 MSTORE PUSH1 0x20 ADD PUSH0 KECCAK256 DUP4 DUP2 SLOAD DUP2 LT PUSH2 0x61C JUMPI PUSH2 0x61B PUSH2 0x1A67 JUMP JUMPDEST JUMPDEST SWAP1 PUSH0 MSTORE PUSH1 0x20 PUSH0 KECCAK256 SWAP1 PUSH1 0x5 MUL ADD PUSH0 ADD SLOAD EQ JUMPDEST PUSH2 0x66C JUMPI PUSH1 0x40 MLOAD PUSH32 0x8C379A000000000000000000000000000000000000000000000000000000000 DUP2 MSTORE PUSH1 0x4 ADD PUSH2 0x663 SWAP1 PUSH2 0x1ADE JUMP JUMPDEST PUSH1 0x40 MLOAD DUP1 SWAP2 SUB SWAP1 REVERT JUMPDEST PUSH0 PUSH1 0x1 PUSH0 DUP6 PUSH20 0xFFFFFFFFFFFFFFFFFFFFFFFFFFFFFFFFFFFFFFFF AND PUSH20 0xFFFFFFFFFFFFFFFFFFFFFFFFFFFFFFFFFFFFFFFF AND DUP2 MSTORE PUSH1 0x20 ADD SWAP1 DUP2 MSTORE PUSH1 0x20 ADD PUSH0 KECCAK256 DUP4 DUP2 SLOAD DUP2 LT PUSH2 0x6BC JUMPI PUSH2 0x6BB PUSH2 0x1A67 JUMP JUMPDEST JUMPDEST SWAP1 PUSH0 MSTORE PUSH1 0x20 PUSH0 KECCAK256 SWAP1 PUSH1 0x5 MUL ADD PUSH1 0x4 ADD SLOAD GT PUSH2 0x70C JUMPI PUSH1 0x40 MLOAD PUSH32 0x8C379A000000000000000000000000000000000000000000000000000000000 DUP2 MSTORE PUSH1 0x4 ADD PUSH2 0x703 SWAP1 PUSH2 0x1B46 JUMP JUMPDEST PUSH1 0x40 MLOAD DUP1 SWAP2 SUB SWAP1 REVERT JUMPDEST PUSH1 0x1 PUSH0 DUP5 PUSH20 0xFFFFFFFFFFFFFFFFFFFFFFFFFFFFFFFFFFFFFFFF AND PUSH20 0xFFFFFFFFFFFFFFFFFFFFFFFFFFFFFFFFFFFFFFFF AND DUP2 MSTORE PUSH1 0x20 ADD SWAP1 DUP2 MSTORE PUSH1 0x20 ADD PUSH0 KECCAK256 DUP3 DUP2 SLOAD DUP2 LT PUSH2 0x75B JUMPI PUSH2 0x75A PUSH2 0x1A67 JUMP JUMPDEST JUMPDEST SWAP1 PUSH0 MSTORE PUSH1 0x20 PUSH0 KECCAK256 SWAP1 PUSH1 0x5 MUL ADD PUSH1 0x4 ADD PUSH0 DUP2 SLOAD DUP1 SWAP3 SWAP2 SWAP1 PUSH2 0x77A SWAP1 PUSH2 0x1B91 JUMP JUMPDEST SWAP2 SWAP1 POP SSTORE POP PUSH32 0x762C2616349603AC16EBA0DE8E6141B79129A07AB63BD99E0A80B3A471716943 CALLER DUP5 DUP5 PUSH1 0x1 PUSH0 DUP9 PUSH20 0xFFFFFFFFFFFFFFFFFFFFFFFFFFFFFFFFFFFFFFFF AND PUSH20 0xFFFFFFFFFFFFFFFFFFFFFFFFFFFFFFFFFFFFFFFF AND DUP2 MSTORE PUSH1 0x20 ADD SWAP1 DUP2 MSTORE PUSH1 0x20 ADD PUSH0 KECCAK256 DUP7 DUP2 SLOAD DUP2 LT PUSH2 0x7F2 JUMPI PUSH2 0x7F1 PUSH2 0x1A67 JUMP JUMPDEST JUMPDEST SWAP1 PUSH0 MSTORE PUSH1 0x20 PUSH0 KECCAK256 SWAP1 PUSH1 0x5 MUL ADD PUSH1 0x4 ADD SLOAD PUSH1 0x40 MLOAD PUSH2 0x812 SWAP5 SWAP4 SWAP3 SWAP2 SWAP1 PUSH2 0x1BB8 JUMP JUMPDEST PUSH1 0x40 MLOAD DUP1 SWAP2 SUB SWAP1 LOG1 POP POP POP JUMP JUMPDEST PUSH2 0x827 PUSH2 0x105B JUMP JUMPDEST DUP1 PUSH0 PUSH1 0x14 PUSH2 0x100 EXP DUP2 SLOAD DUP2 PUSH2 0xFFFF MUL NOT AND SWAP1 DUP4 PUSH2 0xFFFF AND MUL OR SWAP1 SSTORE POP POP JUMP JUMPDEST PUSH0 PUSH1 0x2 PUSH0 SWAP1 SLOAD SWAP1 PUSH2 0x100 EXP SWAP1 DIV PUSH20 0xFFFFFFFFFFFFFFFFFFFFFFFFFFFFFFFFFFFFFFFF AND PUSH20 0xFFFFFFFFFFFFFFFFFFFFFFFFFFFFFFFFFFFFFFFF AND PUSH4 0xF53A470 CALLER PUSH1 0x40 MLOAD DUP3 PUSH4 0xFFFFFFFF AND PUSH1 0xE0 SHL DUP2 MSTORE PUSH1 0x4 ADD PUSH2 0x8A1 SWAP2 SWAP1 PUSH2 0x1789 JUMP JUMPDEST PUSH0 PUSH1 0x40 MLOAD DUP1 DUP4 SUB DUP2 DUP7 GAS STATICCALL ISZERO DUP1 ISZERO PUSH2 0x8BB JUMPI RETURNDATASIZE PUSH0 DUP1 RETURNDATACOPY RETURNDATASIZE PUSH0 REVERT JUMPDEST POP POP POP POP PUSH1 0x40 MLOAD RETURNDATASIZE PUSH0 DUP3 RETURNDATACOPY RETURNDATASIZE PUSH1 0x1F NOT PUSH1 0x1F DUP3 ADD AND DUP3 ADD DUP1 PUSH1 0x40 MSTORE POP DUP2 ADD SWAP1 PUSH2 0x8E3 SWAP2 SWAP1 PUSH2 0x19B8 JUMP JUMPDEST SWAP1 POP PUSH0 DUP2 PUSH0 ADD MLOAD MLOAD GT PUSH2 0x92B JUMPI PUSH1 0x40 MLOAD PUSH32 0x8C379A000000000000000000000000000000000000000000000000000000000 DUP2 MSTORE PUSH1 0x4 ADD PUSH2 0x922 SWAP1 PUSH2 0x1A49 JUMP JUMPDEST PUSH1 0x40 MLOAD DUP1 SWAP2 SUB SWAP1 REVERT JUMPDEST PUSH1 0x1 PUSH0 DUP5 PUSH20 0xFFFFFFFFFFFFFFFFFFFFFFFFFFFFFFFFFFFFFFFF AND PUSH20 0xFFFFFFFFFFFFFFFFFFFFFFFFFFFFFFFFFFFFFFFF AND DUP2 MSTORE PUSH1 0x20 ADD SWAP1 DUP2 MSTORE PUSH1 0x20 ADD PUSH0 KECCAK256 DUP1 SLOAD SWAP1 POP DUP3 LT DUP1 ISZERO PUSH2 0x9D6 JUMPI POP DUP2 PUSH1 0x1 PUSH0 DUP6 PUSH20 0xFFFFFFFFFFFFFFFFFFFFFFFFFFFFFFFFFFFFFFFF AND PUSH20 0xFFFFFFFFFFFFFFFFFFFFFFFFFFFFFFFFFFFFFFFF AND DUP2 MSTORE PUSH1 0x20 ADD SWAP1 DUP2 MSTORE PUSH1 0x20 ADD PUSH0 KECCAK256 DUP4 DUP2 SLOAD DUP2 LT PUSH2 0x9C5 JUMPI PUSH2 0x9C4 PUSH2 0x1A67 JUMP JUMPDEST JUMPDEST SWAP1 PUSH0 MSTORE PUSH1 0x20 PUSH0 KECCAK256 SWAP1 PUSH1 0x5 MUL ADD PUSH0 ADD SLOAD EQ JUMPDEST PUSH2 0xA15 JUMPI PUSH1 0x40 MLOAD PUSH32 0x8C379A000000000000000000000000000000000000000000000000000000000 DUP2 MSTORE PUSH1 0x4 ADD PUSH2 0xA0C SWAP1 PUSH2 0x1ADE JUMP JUMPDEST PUSH1 0x40 MLOAD DUP1 SWAP2 SUB SWAP1 REVERT JUMPDEST PUSH1 0x1 PUSH0 DUP5 PUSH20 0xFFFFFFFFFFFFFFFFFFFFFFFFFFFFFFFFFFFFFFFF AND PUSH20 0xFFFFFFFFFFFFFFFFFFFFFFFFFFFFFFFFFFFFFFFF AND DUP2 MSTORE PUSH1 0x20 ADD SWAP1 DUP2 MSTORE PUSH1 0x20 ADD PUSH0 KECCAK256 DUP3 DUP2 SLOAD DUP2 LT PUSH2 0xA64 JUMPI PUSH2 0xA63 PUSH2 0x1A67 JUMP JUMPDEST JUMPDEST SWAP1 PUSH0 MSTORE PUSH1 0x20 PUSH0 KECCAK256 SWAP1 PUSH1 0x5 MUL ADD PUSH1 0x4 ADD PUSH0 DUP2 SLOAD DUP1 SWAP3 SWAP2 SWAP1 PUSH2 0xA83 SWAP1 PUSH2 0x1BFB JUMP JUMPDEST SWAP2 SWAP1 POP SSTORE POP PUSH32 0xE8A76FC0F16D11A00D1E93B689B63D76CF60AF914DD3D915375DC41D01A0C3C8 CALLER DUP5 DUP5 PUSH1 0x1 PUSH0 DUP9 PUSH20 0xFFFFFFFFFFFFFFFFFFFFFFFFFFFFFFFFFFFFFFFF AND PUSH20 0xFFFFFFFFFFFFFFFFFFFFFFFFFFFFFFFFFFFFFFFF AND DUP2 MSTORE PUSH1 0x20 ADD SWAP1 DUP2 MSTORE PUSH1 0x20 ADD PUSH0 KECCAK256 DUP7 DUP2 SLOAD DUP2 LT PUSH2 0xAFB JUMPI PUSH2 0xAFA PUSH2 0x1A67 JUMP JUMPDEST JUMPDEST SWAP1 PUSH0 MSTORE PUSH1 0x20 PUSH0 KECCAK256 SWAP1 PUSH1 0x5 MUL ADD PUSH1 0x4 ADD SLOAD PUSH1 0x40 MLOAD PUSH2 0xB1B SWAP5 SWAP4 SWAP3 SWAP2 SWAP1 PUSH2 0x1BB8 JUMP JUMPDEST PUSH1 0x40 MLOAD DUP1 SWAP2 SUB SWAP1 LOG1 POP POP POP JUMP JUMPDEST PUSH0 PUSH1 0x14 SWAP1 SLOAD SWAP1 PUSH2 0x100 EXP SWAP1 DIV PUSH2 0xFFFF AND DUP2 JUMP JUMPDEST PUSH2 0xB43 PUSH2 0x105B JUMP JUMPDEST PUSH2 0xB4C PUSH0 PUSH2 0x10E2 JUMP JUMPDEST JUMP JUMPDEST PUSH0 PUSH1 0x2 PUSH0 SWAP1 SLOAD SWAP1 PUSH2 0x100 EXP SWAP1 DIV PUSH20 0xFFFFFFFFFFFFFFFFFFFFFFFFFFFFFFFFFFFFFFFF AND PUSH20 0xFFFFFFFFFFFFFFFFFFFFFFFFFFFFFFFFFFFFFFFF AND PUSH4 0xF53A470 CALLER PUSH1 0x40 MLOAD DUP3 PUSH4 0xFFFFFFFF AND PUSH1 0xE0 SHL DUP2 MSTORE PUSH1 0x4 ADD PUSH2 0xBA9 SWAP2 SWAP1 PUSH2 0x1789 JUMP JUMPDEST PUSH0 PUSH1 0x40 MLOAD DUP1 DUP4 SUB DUP2 DUP7 GAS STATICCALL ISZERO DUP1 ISZERO PUSH2 0xBC3 JUMPI RETURNDATASIZE PUSH0 DUP1 RETURNDATACOPY RETURNDATASIZE PUSH0 REVERT JUMPDEST POP POP POP POP PUSH1 0x40 MLOAD RETURNDATASIZE PUSH0 DUP3 RETURNDATACOPY RETURNDATASIZE PUSH1 0x1F NOT PUSH1 0x1F DUP3 ADD AND DUP3 ADD DUP1 PUSH1 0x40 MSTORE POP DUP2 ADD SWAP1 PUSH2 0xBEB SWAP2 SWAP1 PUSH2 0x19B8 JUMP JUMPDEST SWAP1 POP PUSH0 DUP2 PUSH0 ADD MLOAD MLOAD GT PUSH2 0xC33 JUMPI PUSH1 0x40 MLOAD PUSH32 0x8C379A000000000000000000000000000000000000000000000000000000000 DUP2 MSTORE PUSH1 0x4 ADD PUSH2 0xC2A SWAP1 PUSH2 0x1A49 JUMP JUMPDEST PUSH1 0x40 MLOAD DUP1 SWAP2 SUB SWAP1 REVERT JUMPDEST PUSH0 PUSH1 0x14 SWAP1 SLOAD SWAP1 PUSH2 0x100 EXP SWAP1 DIV PUSH2 0xFFFF AND PUSH2 0xFFFF AND DUP3 MLOAD GT ISZERO PUSH2 0xC8A JUMPI PUSH1 0x40 MLOAD PUSH32 0x8C379A000000000000000000000000000000000000000000000000000000000 DUP2 MSTORE PUSH1 0x4 ADD PUSH2 0xC81 SWAP1 PUSH2 0x1C8C JUMP JUMPDEST PUSH1 0x40 MLOAD DUP1 SWAP2 SUB SWAP1 REVERT JUMPDEST PUSH0 PUSH1 0x40 MLOAD DUP1 PUSH1 0xA0 ADD PUSH1 0x40 MSTORE DUP1 PUSH1 0x1 PUSH0 CALLER PUSH20 0xFFFFFFFFFFFFFFFFFFFFFFFFFFFFFFFFFFFFFFFF AND PUSH20 0xFFFFFFFFFFFFFFFFFFFFFFFFFFFFFFFFFFFFFFFF AND DUP2 MSTORE PUSH1 0x20 ADD SWAP1 DUP2 MSTORE PUSH1 0x20 ADD PUSH0 KECCAK256 DUP1 SLOAD SWAP1 POP DUP2 MSTORE PUSH1 0x20 ADD CALLER PUSH20 0xFFFFFFFFFFFFFFFFFFFFFFFFFFFFFFFFFFFFFFFF AND DUP2 MSTORE PUSH1 0x20 ADD DUP5 DUP2 MSTORE PUSH1 0x20 ADD TIMESTAMP DUP2 MSTORE PUSH1 0x20 ADD PUSH0 DUP2 MSTORE POP SWAP1 POP PUSH1 0x1 PUSH0 CALLER PUSH20 0xFFFFFFFFFFFFFFFFFFFFFFFFFFFFFFFFFFFFFFFF AND PUSH20 0xFFFFFFFFFFFFFFFFFFFFFFFFFFFFFFFFFFFFFFFF AND DUP2 MSTORE PUSH1 0x20 ADD SWAP1 DUP2 MSTORE PUSH1 0x20 ADD PUSH0 KECCAK256 DUP2 SWAP1 DUP1 PUSH1 0x1 DUP2 SLOAD ADD DUP1 DUP3 SSTORE DUP1 SWAP2 POP POP PUSH1 0x1 SWAP1 SUB SWAP1 PUSH0 MSTORE PUSH1 0x20 PUSH0 KECCAK256 SWAP1 PUSH1 0x5 MUL ADD PUSH0 SWAP1 SWAP2 SWAP1 SWAP2 SWAP1 SWAP2 POP PUSH0 DUP3 ADD MLOAD DUP2 PUSH0 ADD SSTORE PUSH1 0x20 DUP3 ADD MLOAD DUP2 PUSH1 0x1 ADD PUSH0 PUSH2 0x100 EXP DUP2 SLOAD DUP2 PUSH20 0xFFFFFFFFFFFFFFFFFFFFFFFFFFFFFFFFFFFFFFFF MUL NOT AND SWAP1 DUP4 PUSH20 0xFFFFFFFFFFFFFFFFFFFFFFFFFFFFFFFFFFFFFFFF AND MUL OR SWAP1 SSTORE POP PUSH1 0x40 DUP3 ADD MLOAD DUP2 PUSH1 0x2 ADD SWAP1 DUP2 PUSH2 0xDD1 SWAP2 SWAP1 PUSH2 0x1E47 JUMP JUMPDEST POP PUSH1 0x60 DUP3 ADD MLOAD DUP2 PUSH1 0x3 ADD SSTORE PUSH1 0x80 DUP3 ADD MLOAD DUP2 PUSH1 0x4 ADD SSTORE POP POP PUSH32 0x16FD3C13E9D46923E0A8BCE11C7B473EC508A72E6C96CD2404B29CE972AFC29E DUP2 PUSH0 ADD MLOAD DUP3 PUSH1 0x20 ADD MLOAD DUP4 PUSH1 0x40 ADD MLOAD DUP5 PUSH1 0x60 ADD MLOAD PUSH1 0x40 MLOAD PUSH2 0xE2C SWAP5 SWAP4 SWAP3 SWAP2 SWAP1 PUSH2 0x1F16 JUMP JUMPDEST PUSH1 0x40 MLOAD DUP1 SWAP2 SUB SWAP1 LOG1 POP POP POP JUMP JUMPDEST PUSH0 DUP1 PUSH0 SWAP1 SLOAD SWAP1 PUSH2 0x100 EXP SWAP1 DIV PUSH20 0xFFFFFFFFFFFFFFFFFFFFFFFFFFFFFFFFFFFFFFFF AND SWAP1 POP SWAP1 JUMP JUMPDEST PUSH2 0xE68 PUSH2 0x11AA JUMP JUMPDEST PUSH1 0x1 PUSH0 CALLER PUSH20 0xFFFFFFFFFFFFFFFFFFFFFFFFFFFFFFFFFFFFFFFF AND PUSH20 0xFFFFFFFFFFFFFFFFFFFFFFFFFFFFFFFFFFFFFFFF AND DUP2 MSTORE PUSH1 0x20 ADD SWAP1 DUP2 MSTORE PUSH1 0x20 ADD PUSH0 KECCAK256 DUP3 DUP2 SLOAD DUP2 LT PUSH2 0xEB7 JUMPI PUSH2 0xEB6 PUSH2 0x1A67 JUMP JUMPDEST JUMPDEST SWAP1 PUSH0 MSTORE PUSH1 0x20 PUSH0 KECCAK256 SWAP1 PUSH1 0x5 MUL ADD PUSH1 0x40 MLOAD DUP1 PUSH1 0xA0 ADD PUSH1 0x40 MSTORE SWAP1 DUP2 PUSH0 DUP3 ADD SLOAD DUP2 MSTORE PUSH1 0x20 ADD PUSH1 0x1 DUP3 ADD PUSH0 SWAP1 SLOAD SWAP1 PUSH2 0x100 EXP SWAP1 DIV PUSH20 0xFFFFFFFFFFFFFFFFFFFFFFFFFFFFFFFFFFFFFFFF AND PUSH20 0xFFFFFFFFFFFFFFFFFFFFFFFFFFFFFFFFFFFFFFFF AND PUSH20 0xFFFFFFFFFFFFFFFFFFFFFFFFFFFFFFFFFFFFFFFF AND DUP2 MSTORE PUSH1 0x20 ADD PUSH1 0x2 DUP3 ADD DUP1 SLOAD PUSH2 0xF3C SWAP1 PUSH2 0x188D JUMP JUMPDEST DUP1 PUSH1 0x1F ADD PUSH1 0x20 DUP1 SWAP2 DIV MUL PUSH1 0x20 ADD PUSH1 0x40 MLOAD SWAP1 DUP2 ADD PUSH1 0x40 MSTORE DUP1 SWAP3 SWAP2 SWAP1 DUP2 DUP2 MSTORE PUSH1 0x20 ADD DUP3 DUP1 SLOAD PUSH2 0xF68 SWAP1 PUSH2 0x188D JUMP JUMPDEST DUP1 ISZERO PUSH2 0xFB3 JUMPI DUP1 PUSH1 0x1F LT PUSH2 0xF8A JUMPI PUSH2 0x100 DUP1 DUP4 SLOAD DIV MUL DUP4 MSTORE SWAP2 PUSH1 0x20 ADD SWAP2 PUSH2 0xFB3 JUMP JUMPDEST DUP3 ADD SWAP2 SWAP1 PUSH0 MSTORE PUSH1 0x20 PUSH0 KECCAK256 SWAP1 JUMPDEST DUP2 SLOAD DUP2 MSTORE SWAP1 PUSH1 0x1 ADD SWAP1 PUSH1 0x20 ADD DUP1 DUP4 GT PUSH2 0xF96 JUMPI DUP3 SWAP1 SUB PUSH1 0x1F AND DUP3 ADD SWAP2 JUMPDEST POP POP POP POP POP DUP2 MSTORE PUSH1 0x20 ADD PUSH1 0x3 DUP3 ADD SLOAD DUP2 MSTORE PUSH1 0x20 ADD PUSH1 0x4 DUP3 ADD SLOAD DUP2 MSTORE POP POP SWAP1 POP SWAP2 SWAP1 POP JUMP JUMPDEST PUSH2 0xFDF PUSH2 0x105B JUMP JUMPDEST PUSH0 PUSH20 0xFFFFFFFFFFFFFFFFFFFFFFFFFFFFFFFFFFFFFFFF AND DUP2 PUSH20 0xFFFFFFFFFFFFFFFFFFFFFFFFFFFFFFFFFFFFFFFF AND SUB PUSH2 0x104F JUMPI PUSH0 PUSH1 0x40 MLOAD PUSH32 0x1E4FBDF700000000000000000000000000000000000000000000000000000000 DUP2 MSTORE PUSH1 0x4 ADD PUSH2 0x1046 SWAP2 SWAP1 PUSH2 0x1789 JUMP JUMPDEST PUSH1 0x40 MLOAD DUP1 SWAP2 SUB SWAP1 REVERT JUMPDEST PUSH2 0x1058 DUP2 PUSH2 0x10E2 JUMP JUMPDEST POP JUMP JUMPDEST PUSH2 0x1063 PUSH2 0x11A3 JUMP JUMPDEST PUSH20 0xFFFFFFFFFFFFFFFFFFFFFFFFFFFFFFFFFFFFFFFF AND PUSH2 0x1081 PUSH2 0xE39 JUMP JUMPDEST PUSH20 0xFFFFFFFFFFFFFFFFFFFFFFFFFFFFFFFFFFFFFFFF AND EQ PUSH2 0x10E0 JUMPI PUSH2 0x10A4 PUSH2 0x11A3 JUMP JUMPDEST PUSH1 0x40 MLOAD PUSH32 0x118CDAA700000000000000000000000000000000000000000000000000000000 DUP2 MSTORE PUSH1 0x4 ADD PUSH2 0x10D7 SWAP2 SWAP1 PUSH2 0x1789 JUMP JUMPDEST PUSH1 0x40 MLOAD DUP1 SWAP2 SUB SWAP1 REVERT JUMPDEST JUMP JUMPDEST PUSH0 DUP1 PUSH0 SWAP1 SLOAD SWAP1 PUSH2 0x100 EXP SWAP1 DIV PUSH20 0xFFFFFFFFFFFFFFFFFFFFFFFFFFFFFFFFFFFFFFFF AND SWAP1 POP DUP2 PUSH0 DUP1 PUSH2 0x100 EXP DUP2 SLOAD DUP2 PUSH20 0xFFFFFFFFFFFFFFFFFFFFFFFFFFFFFFFFFFFFFFFF MUL NOT AND SWAP1 DUP4 PUSH20 0xFFFFFFFFFFFFFFFFFFFFFFFFFFFFFFFFFFFFFFFF AND MUL OR SWAP1 SSTORE POP DUP2 PUSH20 0xFFFFFFFFFFFFFFFFFFFFFFFFFFFFFFFFFFFFFFFF AND DUP2 PUSH20 0xFFFFFFFFFFFFFFFFFFFFFFFFFFFFFFFFFFFFFFFF AND PUSH32 0x8BE0079C531659141344CD1FD0A4F28419497F9722A3DAAFE3B4186F6B6457E0 PUSH1 0x40 MLOAD PUSH1 0x40 MLOAD DUP1 SWAP2 SUB SWAP1 LOG3 POP POP JUMP JUMPDEST PUSH0 CALLER SWAP1 POP SWAP1 JUMP JUMPDEST PUSH1 0x40 MLOAD DUP1 PUSH1 0xA0 ADD PUSH1 0x40 MSTORE DUP1 PUSH0 DUP2 MSTORE PUSH1 0x20 ADD PUSH0 PUSH20 0xFFFFFFFFFFFFFFFFFFFFFFFFFFFFFFFFFFFFFFFF AND DUP2 MSTORE PUSH1 0x20 ADD PUSH1 0x60 DUP2 MSTORE PUSH1 0x20 ADD PUSH0 DUP2 MSTORE PUSH1 0x20 ADD PUSH0 DUP2 MSTORE POP SWAP1 JUMP JUMPDEST PUSH0 PUSH1 0x40 MLOAD SWAP1 POP SWAP1 JUMP JUMPDEST PUSH0 DUP1 REVERT JUMPDEST PUSH0 DUP1 REVERT JUMPDEST PUSH0 PUSH20 0xFFFFFFFFFFFFFFFFFFFFFFFFFFFFFFFFFFFFFFFF DUP3 AND SWAP1 POP SWAP2 SWAP1 POP JUMP JUMPDEST PUSH0 PUSH2 0x1225 DUP3 PUSH2 0x11FC JUMP JUMPDEST SWAP1 POP SWAP2 SWAP1 POP JUMP JUMPDEST PUSH2 0x1235 DUP2 PUSH2 0x121B JUMP JUMPDEST DUP2 EQ PUSH2 0x123F JUMPI PUSH0 DUP1 REVERT JUMPDEST POP JUMP JUMPDEST PUSH0 DUP2 CALLDATALOAD SWAP1 POP PUSH2 0x1250 DUP2 PUSH2 0x122C JUMP JUMPDEST SWAP3 SWAP2 POP POP JUMP JUMPDEST PUSH0 DUP2 SWAP1 POP SWAP2 SWAP1 POP JUMP JUMPDEST PUSH2 0x1268 DUP2 PUSH2 0x1256 JUMP JUMPDEST DUP2 EQ PUSH2 0x1272 JUMPI PUSH0 DUP1 REVERT JUMPDEST POP JUMP JUMPDEST PUSH0 DUP2 CALLDATALOAD SWAP1 POP PUSH2 0x1283 DUP2 PUSH2 0x125F JUMP JUMPDEST SWAP3 SWAP2 POP POP JUMP JUMPDEST PUSH0 DUP1 PUSH1 0x40 DUP4 DUP6 SUB SLT ISZERO PUSH2 0x129F JUMPI PUSH2 0x129E PUSH2 0x11F4 JUMP JUMPDEST JUMPDEST PUSH0 PUSH2 0x12AC DUP6 DUP3 DUP7 ADD PUSH2 0x1242 JUMP JUMPDEST SWAP3 POP POP PUSH1 0x20 PUSH2 0x12BD DUP6 DUP3 DUP7 ADD PUSH2 0x1275 JUMP JUMPDEST SWAP2 POP POP SWAP3 POP SWAP3 SWAP1 POP JUMP JUMPDEST PUSH2 0x12D0 DUP2 PUSH2 0x1256 JUMP JUMPDEST DUP3 MSTORE POP POP JUMP JUMPDEST PUSH2 0x12DF DUP2 PUSH2 0x121B JUMP JUMPDEST DUP3 MSTORE POP POP JUMP JUMPDEST PUSH0 DUP2 MLOAD SWAP1 POP SWAP2 SWAP1 POP JUMP JUMPDEST PUSH0 DUP3 DUP3 MSTORE PUSH1 0x20 DUP3 ADD SWAP1 POP SWAP3 SWAP2 POP POP JUMP JUMPDEST DUP3 DUP2 DUP4 MCOPY PUSH0 DUP4 DUP4 ADD MSTORE POP POP POP JUMP JUMPDEST PUSH0 PUSH1 0x1F NOT PUSH1 0x1F DUP4 ADD AND SWAP1 POP SWAP2 SWAP1 POP JUMP JUMPDEST PUSH0 PUSH2 0x1327 DUP3 PUSH2 0x12E5 JUMP JUMPDEST PUSH2 0x1331 DUP2 DUP6 PUSH2 0x12EF JUMP JUMPDEST SWAP4 POP PUSH2 0x1341 DUP2 DUP6 PUSH1 0x20 DUP7 ADD PUSH2 0x12FF JUMP JUMPDEST PUSH2 0x134A DUP2 PUSH2 0x130D JUMP JUMPDEST DUP5 ADD SWAP2 POP POP SWAP3 SWAP2 POP POP JUMP JUMPDEST PUSH0 PUSH1 0xA0 DUP3 ADD SWAP1 POP PUSH2 0x1368 PUSH0 DUP4 ADD DUP9 PUSH2 0x12C7 JUMP JUMPDEST PUSH2 0x1375 PUSH1 0x20 DUP4 ADD DUP8 PUSH2 0x12D6 JUMP JUMPDEST DUP2 DUP2 SUB PUSH1 0x40 DUP4 ADD MSTORE PUSH2 0x1387 DUP2 DUP7 PUSH2 0x131D JUMP JUMPDEST SWAP1 POP PUSH2 0x1396 PUSH1 0x60 DUP4 ADD DUP6 PUSH2 0x12C7 JUMP JUMPDEST PUSH2 0x13A3 PUSH1 0x80 DUP4 ADD DUP5 PUSH2 0x12C7 JUMP JUMPDEST SWAP7 SWAP6 POP POP POP POP POP POP JUMP JUMPDEST PUSH0 PUSH1 0x20 DUP3 DUP5 SUB SLT ISZERO PUSH2 0x13C2 JUMPI PUSH2 0x13C1 PUSH2 0x11F4 JUMP JUMPDEST JUMPDEST PUSH0 PUSH2 0x13CF DUP5 DUP3 DUP6 ADD PUSH2 0x1242 JUMP JUMPDEST SWAP2 POP POP SWAP3 SWAP2 POP POP JUMP JUMPDEST PUSH0 DUP2 MLOAD SWAP1 POP SWAP2 SWAP1 POP JUMP JUMPDEST PUSH0 DUP3 DUP3 MSTORE PUSH1 0x20 DUP3 ADD SWAP1 POP SWAP3 SWAP2 POP POP JUMP JUMPDEST PUSH0 DUP2 SWAP1 POP PUSH1 0x20 DUP3 ADD SWAP1 POP SWAP2 SWAP1 POP JUMP JUMPDEST PUSH2 0x140A DUP2 PUSH2 0x1256 JUMP JUMPDEST DUP3 MSTORE POP POP JUMP JUMPDEST PUSH2 0x1419 DUP2 PUSH2 0x121B JUMP JUMPDEST DUP3 MSTORE POP POP JUMP JUMPDEST PUSH0 DUP3 DUP3 MSTORE PUSH1 0x20 DUP3 ADD SWAP1 POP SWAP3 SWAP2 POP POP JUMP JUMPDEST PUSH0 PUSH2 0x1439 DUP3 PUSH2 0x12E5 JUMP JUMPDEST PUSH2 0x1443 DUP2 DUP6 PUSH2 0x141F JUMP JUMPDEST SWAP4 POP PUSH2 0x1453 DUP2 DUP6 PUSH1 0x20 DUP7 ADD PUSH2 0x12FF JUMP JUMPDEST PUSH2 0x145C DUP2 PUSH2 0x130D JUMP JUMPDEST DUP5 ADD SWAP2 POP POP SWAP3 SWAP2 POP POP JUMP JUMPDEST PUSH0 PUSH1 0xA0 DUP4 ADD PUSH0 DUP4 ADD MLOAD PUSH2 0x147C PUSH0 DUP7 ADD DUP3 PUSH2 0x1401 JUMP JUMPDEST POP PUSH1 0x20 DUP4 ADD MLOAD PUSH2 0x148F PUSH1 0x20 DUP7 ADD DUP3 PUSH2 0x1410 JUMP JUMPDEST POP PUSH1 0x40 DUP4 ADD MLOAD DUP5 DUP3 SUB PUSH1 0x40 DUP7 ADD MSTORE PUSH2 0x14A7 DUP3 DUP3 PUSH2 0x142F JUMP JUMPDEST SWAP2 POP POP PUSH1 0x60 DUP4 ADD MLOAD PUSH2 0x14BC PUSH1 0x60 DUP7 ADD DUP3 PUSH2 0x1401 JUMP JUMPDEST POP PUSH1 0x80 DUP4 ADD MLOAD PUSH2 0x14CF PUSH1 0x80 DUP7 ADD DUP3 PUSH2 0x1401 JUMP JUMPDEST POP DUP1 SWAP2 POP POP SWAP3 SWAP2 POP POP JUMP JUMPDEST PUSH0 PUSH2 0x14E5 DUP4 DUP4 PUSH2 0x1467 JUMP JUMPDEST SWAP1 POP SWAP3 SWAP2 POP POP JUMP JUMPDEST PUSH0 PUSH1 0x20 DUP3 ADD SWAP1 POP SWAP2 SWAP1 POP JUMP JUMPDEST PUSH0 PUSH2 0x1503 DUP3 PUSH2 0x13D8 JUMP JUMPDEST PUSH2 0x150D DUP2 DUP6 PUSH2 0x13E2 JUMP JUMPDEST SWAP4 POP DUP4 PUSH1 0x20 DUP3 MUL DUP6 ADD PUSH2 0x151F DUP6 PUSH2 0x13F2 JUMP JUMPDEST DUP1 PUSH0 JUMPDEST DUP6 DUP2 LT ISZERO PUSH2 0x155A JUMPI DUP5 DUP5 SUB DUP10 MSTORE DUP2 MLOAD PUSH2 0x153B DUP6 DUP3 PUSH2 0x14DA JUMP JUMPDEST SWAP5 POP PUSH2 0x1546 DUP4 PUSH2 0x14ED JUMP JUMPDEST SWAP3 POP PUSH1 0x20 DUP11 ADD SWAP10 POP POP PUSH1 0x1 DUP2 ADD SWAP1 POP PUSH2 0x1522 JUMP JUMPDEST POP DUP3 SWAP8 POP DUP8 SWAP6 POP POP POP POP POP POP SWAP3 SWAP2 POP POP JUMP JUMPDEST PUSH0 PUSH1 0x20 DUP3 ADD SWAP1 POP DUP2 DUP2 SUB PUSH0 DUP4 ADD MSTORE PUSH2 0x1584 DUP2 DUP5 PUSH2 0x14F9 JUMP JUMPDEST SWAP1 POP SWAP3 SWAP2 POP POP JUMP JUMPDEST PUSH0 PUSH2 0xFFFF DUP3 AND SWAP1 POP SWAP2 SWAP1 POP JUMP JUMPDEST PUSH2 0x15A2 DUP2 PUSH2 0x158C JUMP JUMPDEST DUP2 EQ PUSH2 0x15AC JUMPI PUSH0 DUP1 REVERT JUMPDEST POP JUMP JUMPDEST PUSH0 DUP2 CALLDATALOAD SWAP1 POP PUSH2 0x15BD DUP2 PUSH2 0x1599 JUMP JUMPDEST SWAP3 SWAP2 POP POP JUMP JUMPDEST PUSH0 PUSH1 0x20 DUP3 DUP5 SUB SLT ISZERO PUSH2 0x15D8 JUMPI PUSH2 0x15D7 PUSH2 0x11F4 JUMP JUMPDEST JUMPDEST PUSH0 PUSH2 0x15E5 DUP5 DUP3 DUP6 ADD PUSH2 0x15AF JUMP JUMPDEST SWAP2 POP POP SWAP3 SWAP2 POP POP JUMP JUMPDEST PUSH2 0x15F7 DUP2 PUSH2 0x158C JUMP JUMPDEST DUP3 MSTORE POP POP JUMP JUMPDEST PUSH0 PUSH1 0x20 DUP3 ADD SWAP1 POP PUSH2 0x1610 PUSH0 DUP4 ADD DUP5 PUSH2 0x15EE JUMP JUMPDEST SWAP3 SWAP2 POP POP JUMP JUMPDEST PUSH0 DUP1 REVERT JUMPDEST PUSH0 DUP1 REVERT JUMPDEST PUSH32 0x4E487B7100000000000000000000000000000000000000000000000000000000 PUSH0 MSTORE PUSH1 0x41 PUSH1 0x4 MSTORE PUSH1 0x24 PUSH0 REVERT JUMPDEST PUSH2 0x1654 DUP3 PUSH2 0x130D JUMP JUMPDEST DUP2 ADD DUP2 DUP2 LT PUSH8 0xFFFFFFFFFFFFFFFF DUP3 GT OR ISZERO PUSH2 0x1673 JUMPI PUSH2 0x1672 PUSH2 0x161E JUMP JUMPDEST JUMPDEST DUP1 PUSH1 0x40 MSTORE POP POP POP JUMP JUMPDEST PUSH0 PUSH2 0x1685 PUSH2 0x11EB JUMP JUMPDEST SWAP1 POP PUSH2 0x1691 DUP3 DUP3 PUSH2 0x164B JUMP JUMPDEST SWAP2 SWAP1 POP JUMP JUMPDEST PUSH0 PUSH8 0xFFFFFFFFFFFFFFFF DUP3 GT ISZERO PUSH2 0x16B0 JUMPI PUSH2 0x16AF PUSH2 0x161E JUMP JUMPDEST JUMPDEST PUSH2 0x16B9 DUP3 PUSH2 0x130D JUMP JUMPDEST SWAP1 POP PUSH1 0x20 DUP2 ADD SWAP1 POP SWAP2 SWAP1 POP JUMP JUMPDEST DUP3 DUP2 DUP4 CALLDATACOPY PUSH0 DUP4 DUP4 ADD MSTORE POP POP POP JUMP JUMPDEST PUSH0 PUSH2 0x16E6 PUSH2 0x16E1 DUP5 PUSH2 0x1696 JUMP JUMPDEST PUSH2 0x167C JUMP JUMPDEST SWAP1 POP DUP3 DUP2 MSTORE PUSH1 0x20 DUP2 ADD DUP5 DUP5 DUP5 ADD GT ISZERO PUSH2 0x1702 JUMPI PUSH2 0x1701 PUSH2 0x161A JUMP JUMPDEST JUMPDEST PUSH2 0x170D DUP5 DUP3 DUP6 PUSH2 0x16C6 JUMP JUMPDEST POP SWAP4 SWAP3 POP POP POP JUMP JUMPDEST PUSH0 DUP3 PUSH1 0x1F DUP4 ADD SLT PUSH2 0x1729 JUMPI PUSH2 0x1728 PUSH2 0x1616 JUMP JUMPDEST JUMPDEST DUP2 CALLDATALOAD PUSH2 0x1739 DUP5 DUP3 PUSH1 0x20 DUP7 ADD PUSH2 0x16D4 JUMP JUMPDEST SWAP2 POP POP SWAP3 SWAP2 POP POP JUMP JUMPDEST PUSH0 PUSH1 0x20 DUP3 DUP5 SUB SLT ISZERO PUSH2 0x1757 JUMPI PUSH2 0x1756 PUSH2 0x11F4 JUMP JUMPDEST JUMPDEST PUSH0 DUP3 ADD CALLDATALOAD PUSH8 0xFFFFFFFFFFFFFFFF DUP2 GT ISZERO PUSH2 0x1774 JUMPI PUSH2 0x1773 PUSH2 0x11F8 JUMP JUMPDEST JUMPDEST PUSH2 0x1780 DUP5 DUP3 DUP6 ADD PUSH2 0x1715 JUMP JUMPDEST SWAP2 POP POP SWAP3 SWAP2 POP POP JUMP JUMPDEST PUSH0 PUSH1 0x20 DUP3 ADD SWAP1 POP PUSH2 0x179C PUSH0 DUP4 ADD DUP5 PUSH2 0x12D6 JUMP JUMPDEST SWAP3 SWAP2 POP POP JUMP JUMPDEST PUSH0 PUSH1 0x20 DUP3 DUP5 SUB SLT ISZERO PUSH2 0x17B7 JUMPI PUSH2 0x17B6 PUSH2 0x11F4 JUMP JUMPDEST JUMPDEST PUSH0 PUSH2 0x17C4 DUP5 DUP3 DUP6 ADD PUSH2 0x1275 JUMP JUMPDEST SWAP2 POP POP SWAP3 SWAP2 POP POP JUMP JUMPDEST PUSH0 PUSH1 0xA0 DUP4 ADD PUSH0 DUP4 ADD MLOAD PUSH2 0x17E2 PUSH0 DUP7 ADD DUP3 PUSH2 0x1401 JUMP JUMPDEST POP PUSH1 0x20 DUP4 ADD MLOAD PUSH2 0x17F5 PUSH1 0x20 DUP7 ADD DUP3 PUSH2 0x1410 JUMP JUMPDEST POP PUSH1 0x40 DUP4 ADD MLOAD DUP5 DUP3 SUB PUSH1 0x40 DUP7 ADD MSTORE PUSH2 0x180D DUP3 DUP3 PUSH2 0x142F JUMP JUMPDEST SWAP2 POP POP PUSH1 0x60 DUP4 ADD MLOAD PUSH2 0x1822 PUSH1 0x60 DUP7 ADD DUP3 PUSH2 0x1401 JUMP JUMPDEST POP PUSH1 0x80 DUP4 ADD MLOAD PUSH2 0x1835 PUSH1 0x80 DUP7 ADD DUP3 PUSH2 0x1401 JUMP JUMPDEST POP DUP1 SWAP2 POP POP SWAP3 SWAP2 POP POP JUMP JUMPDEST PUSH0 PUSH1 0x20 DUP3 ADD SWAP1 POP DUP2 DUP2 SUB PUSH0 DUP4 ADD MSTORE PUSH2 0x1858 DUP2 DUP5 PUSH2 0x17CD JUMP JUMPDEST SWAP1 POP SWAP3 SWAP2 POP POP JUMP JUMPDEST PUSH32 0x4E487B7100000000000000000000000000000000000000000000000000000000 PUSH0 MSTORE PUSH1 0x22 PUSH1 0x4 MSTORE PUSH1 0x24 PUSH0 REVERT JUMPDEST PUSH0 PUSH1 0x2 DUP3 DIV SWAP1 POP PUSH1 0x1 DUP3 AND DUP1 PUSH2 0x18A4 JUMPI PUSH1 0x7F DUP3 AND SWAP2 POP JUMPDEST PUSH1 0x20 DUP3 LT DUP2 SUB PUSH2 0x18B7 JUMPI PUSH2 0x18B6 PUSH2 0x1860 JUMP JUMPDEST JUMPDEST POP SWAP2 SWAP1 POP JUMP JUMPDEST PUSH0 DUP1 REVERT JUMPDEST PUSH0 DUP1 REVERT JUMPDEST PUSH0 PUSH2 0x18D7 PUSH2 0x18D2 DUP5 PUSH2 0x1696 JUMP JUMPDEST PUSH2 0x167C JUMP JUMPDEST SWAP1 POP DUP3 DUP2 MSTORE PUSH1 0x20 DUP2 ADD DUP5 DUP5 DUP5 ADD GT ISZERO PUSH2 0x18F3 JUMPI PUSH2 0x18F2 PUSH2 0x161A JUMP JUMPDEST JUMPDEST PUSH2 0x18FE DUP5 DUP3 DUP6 PUSH2 0x12FF JUMP JUMPDEST POP SWAP4 SWAP3 POP POP POP JUMP JUMPDEST PUSH0 DUP3 PUSH1 0x1F DUP4 ADD SLT PUSH2 0x191A JUMPI PUSH2 0x1919 PUSH2 0x1616 JUMP JUMPDEST JUMPDEST DUP2 MLOAD PUSH2 0x192A DUP5 DUP3 PUSH1 0x20 DUP7 ADD PUSH2 0x18C5 JUMP JUMPDEST SWAP2 POP POP SWAP3 SWAP2 POP POP JUMP JUMPDEST PUSH0 PUSH1 0x40 DUP3 DUP5 SUB SLT ISZERO PUSH2 0x1948 JUMPI PUSH2 0x1947 PUSH2 0x18BD JUMP JUMPDEST JUMPDEST PUSH2 0x1952 PUSH1 0x40 PUSH2 0x167C JUMP JUMPDEST SWAP1 POP PUSH0 DUP3 ADD MLOAD PUSH8 0xFFFFFFFFFFFFFFFF DUP2 GT ISZERO PUSH2 0x1971 JUMPI PUSH2 0x1970 PUSH2 0x18C1 JUMP JUMPDEST JUMPDEST PUSH2 0x197D DUP5 DUP3 DUP6 ADD PUSH2 0x1906 JUMP JUMPDEST PUSH0 DUP4 ADD MSTORE POP PUSH1 0x20 DUP3 ADD MLOAD PUSH8 0xFFFFFFFFFFFFFFFF DUP2 GT ISZERO PUSH2 0x19A0 JUMPI PUSH2 0x199F PUSH2 0x18C1 JUMP JUMPDEST JUMPDEST PUSH2 0x19AC DUP5 DUP3 DUP6 ADD PUSH2 0x1906 JUMP JUMPDEST PUSH1 0x20 DUP4 ADD MSTORE POP SWAP3 SWAP2 POP POP JUMP JUMPDEST PUSH0 PUSH1 0x20 DUP3 DUP5 SUB SLT ISZERO PUSH2 0x19CD JUMPI PUSH2 0x19CC PUSH2 0x11F4 JUMP JUMPDEST JUMPDEST PUSH0 DUP3 ADD MLOAD PUSH8 0xFFFFFFFFFFFFFFFF DUP2 GT ISZERO PUSH2 0x19EA JUMPI PUSH2 0x19E9 PUSH2 0x11F8 JUMP JUMPDEST JUMPDEST PUSH2 0x19F6 DUP5 DUP3 DUP6 ADD PUSH2 0x1933 JUMP JUMPDEST SWAP2 POP POP SWAP3 SWAP2 POP POP JUMP JUMPDEST PUSH32 0x55736572206E6F74205265676973746572656400000000000000000000000000 PUSH0 DUP3 ADD MSTORE POP JUMP JUMPDEST PUSH0 PUSH2 0x1A33 PUSH1 0x13 DUP4 PUSH2 0x12EF JUMP JUMPDEST SWAP2 POP PUSH2 0x1A3E DUP3 PUSH2 0x19FF JUMP JUMPDEST PUSH1 0x20 DUP3 ADD SWAP1 POP SWAP2 SWAP1 POP JUMP JUMPDEST PUSH0 PUSH1 0x20 DUP3 ADD SWAP1 POP DUP2 DUP2 SUB PUSH0 DUP4 ADD MSTORE PUSH2 0x1A60 DUP2 PUSH2 0x1A27 JUMP JUMPDEST SWAP1 POP SWAP2 SWAP1 POP JUMP JUMPDEST PUSH32 0x4E487B7100000000000000000000000000000000000000000000000000000000 PUSH0 MSTORE PUSH1 0x32 PUSH1 0x4 MSTORE PUSH1 0x24 PUSH0 REVERT JUMPDEST PUSH32 0x547765657420446F6573204E6F74204578697374000000000000000000000000 PUSH0 DUP3 ADD MSTORE POP JUMP JUMPDEST PUSH0 PUSH2 0x1AC8 PUSH1 0x14 DUP4 PUSH2 0x12EF JUMP JUMPDEST SWAP2 POP PUSH2 0x1AD3 DUP3 PUSH2 0x1A94 JUMP JUMPDEST PUSH1 0x20 DUP3 ADD SWAP1 POP SWAP2 SWAP1 POP JUMP JUMPDEST PUSH0 PUSH1 0x20 DUP3 ADD SWAP1 POP DUP2 DUP2 SUB PUSH0 DUP4 ADD MSTORE PUSH2 0x1AF5 DUP2 PUSH2 0x1ABC JUMP JUMPDEST SWAP1 POP SWAP2 SWAP1 POP JUMP JUMPDEST PUSH32 0x54776565747320686173206E6F206C696B657300000000000000000000000000 PUSH0 DUP3 ADD MSTORE POP JUMP JUMPDEST PUSH0 PUSH2 0x1B30 PUSH1 0x13 DUP4 PUSH2 0x12EF JUMP JUMPDEST SWAP2 POP PUSH2 0x1B3B DUP3 PUSH2 0x1AFC JUMP JUMPDEST PUSH1 0x20 DUP3 ADD SWAP1 POP SWAP2 SWAP1 POP JUMP JUMPDEST PUSH0 PUSH1 0x20 DUP3 ADD SWAP1 POP DUP2 DUP2 SUB PUSH0 DUP4 ADD MSTORE PUSH2 0x1B5D DUP2 PUSH2 0x1B24 JUMP JUMPDEST SWAP1 POP SWAP2 SWAP1 POP JUMP JUMPDEST PUSH32 0x4E487B7100000000000000000000000000000000000000000000000000000000 PUSH0 MSTORE PUSH1 0x11 PUSH1 0x4 MSTORE PUSH1 0x24 PUSH0 REVERT JUMPDEST PUSH0 PUSH2 0x1B9B DUP3 PUSH2 0x1256 JUMP JUMPDEST SWAP2 POP PUSH0 DUP3 SUB PUSH2 0x1BAD JUMPI PUSH2 0x1BAC PUSH2 0x1B64 JUMP JUMPDEST JUMPDEST PUSH1 0x1 DUP3 SUB SWAP1 POP SWAP2 SWAP1 POP JUMP JUMPDEST PUSH0 PUSH1 0x80 DUP3 ADD SWAP1 POP PUSH2 0x1BCB PUSH0 DUP4 ADD DUP8 PUSH2 0x12D6 JUMP JUMPDEST PUSH2 0x1BD8 PUSH1 0x20 DUP4 ADD DUP7 PUSH2 0x12D6 JUMP JUMPDEST PUSH2 0x1BE5 PUSH1 0x40 DUP4 ADD DUP6 PUSH2 0x12C7 JUMP JUMPDEST PUSH2 0x1BF2 PUSH1 0x60 DUP4 ADD DUP5 PUSH2 0x12C7 JUMP JUMPDEST SWAP6 SWAP5 POP POP POP POP POP JUMP JUMPDEST PUSH0 PUSH2 0x1C05 DUP3 PUSH2 0x1256 JUMP JUMPDEST SWAP2 POP PUSH32 0xFFFFFFFFFFFFFFFFFFFFFFFFFFFFFFFFFFFFFFFFFFFFFFFFFFFFFFFFFFFFFFFF DUP3 SUB PUSH2 0x1C37 JUMPI PUSH2 0x1C36 PUSH2 0x1B64 JUMP JUMPDEST JUMPDEST PUSH1 0x1 DUP3 ADD SWAP1 POP SWAP2 SWAP1 POP JUMP JUMPDEST PUSH32 0x547765657420697320746F6F206C6F6E672062726F3A20000000000000000000 PUSH0 DUP3 ADD MSTORE POP JUMP JUMPDEST PUSH0 PUSH2 0x1C76 PUSH1 0x17 DUP4 PUSH2 0x12EF JUMP JUMPDEST SWAP2 POP PUSH2 0x1C81 DUP3 PUSH2 0x1C42 JUMP JUMPDEST PUSH1 0x20 DUP3 ADD SWAP1 POP SWAP2 SWAP1 POP JUMP JUMPDEST PUSH0 PUSH1 0x20 DUP3 ADD SWAP1 POP DUP2 DUP2 SUB PUSH0 DUP4 ADD MSTORE PUSH2 0x1CA3 DUP2 PUSH2 0x1C6A JUMP JUMPDEST SWAP1 POP SWAP2 SWAP1 POP JUMP JUMPDEST PUSH0 DUP2 SWAP1 POP DUP2 PUSH0 MSTORE PUSH1 0x20 PUSH0 KECCAK256 SWAP1 POP SWAP2 SWAP1 POP JUMP JUMPDEST PUSH0 PUSH1 0x20 PUSH1 0x1F DUP4 ADD DIV SWAP1 POP SWAP2 SWAP1 POP JUMP JUMPDEST PUSH0 DUP3 DUP3 SHL SWAP1 POP SWAP3 SWAP2 POP POP JUMP JUMPDEST PUSH0 PUSH1 0x8 DUP4 MUL PUSH2 0x1D06 PUSH32 0xFFFFFFFFFFFFFFFFFFFFFFFFFFFFFFFFFFFFFFFFFFFFFFFFFFFFFFFFFFFFFFFF DUP3 PUSH2 0x1CCB JUMP JUMPDEST PUSH2 0x1D10 DUP7 DUP4 PUSH2 0x1CCB JUMP JUMPDEST SWAP6 POP DUP1 NOT DUP5 AND SWAP4 POP DUP1 DUP7 AND DUP5 OR SWAP3 POP POP POP SWAP4 SWAP3 POP POP POP JUMP JUMPDEST PUSH0 DUP2 SWAP1 POP SWAP2 SWAP1 POP JUMP JUMPDEST PUSH0 PUSH2 0x1D4B PUSH2 0x1D46 PUSH2 0x1D41 DUP5 PUSH2 0x1256 JUMP JUMPDEST PUSH2 0x1D28 JUMP JUMPDEST PUSH2 0x1256 JUMP JUMPDEST SWAP1 POP SWAP2 SWAP1 POP JUMP JUMPDEST PUSH0 DUP2 SWAP1 POP SWAP2 SWAP1 POP JUMP JUMPDEST PUSH2 0x1D64 DUP4 PUSH2 0x1D31 JUMP JUMPDEST PUSH2 0x1D78 PUSH2 0x1D70 DUP3 PUSH2 0x1D52 JUMP JUMPDEST DUP5 DUP5 SLOAD PUSH2 0x1CD7 JUMP JUMPDEST DUP3 SSTORE POP POP POP POP JUMP JUMPDEST PUSH0 SWAP1 JUMP JUMPDEST PUSH2 0x1D8C PUSH2 0x1D80 JUMP JUMPDEST PUSH2 0x1D97 DUP2 DUP5 DUP5 PUSH2 0x1D5B JUMP JUMPDEST POP POP POP JUMP JUMPDEST JUMPDEST DUP2 DUP2 LT ISZERO PUSH2 0x1DBA JUMPI PUSH2 0x1DAF PUSH0 DUP3 PUSH2 0x1D84 JUMP JUMPDEST PUSH1 0x1 DUP2 ADD SWAP1 POP PUSH2 0x1D9D JUMP JUMPDEST POP POP JUMP JUMPDEST PUSH1 0x1F DUP3 GT ISZERO PUSH2 0x1DFF JUMPI PUSH2 0x1DD0 DUP2 PUSH2 0x1CAA JUMP JUMPDEST PUSH2 0x1DD9 DUP5 PUSH2 0x1CBC JUMP JUMPDEST DUP2 ADD PUSH1 0x20 DUP6 LT ISZERO PUSH2 0x1DE8 JUMPI DUP2 SWAP1 POP JUMPDEST PUSH2 0x1DFC PUSH2 0x1DF4 DUP6 PUSH2 0x1CBC JUMP JUMPDEST DUP4 ADD DUP3 PUSH2 0x1D9C JUMP JUMPDEST POP POP JUMPDEST POP POP POP JUMP JUMPDEST PUSH0 DUP3 DUP3 SHR SWAP1 POP SWAP3 SWAP2 POP POP JUMP JUMPDEST PUSH0 PUSH2 0x1E1F PUSH0 NOT DUP5 PUSH1 0x8 MUL PUSH2 0x1E04 JUMP JUMPDEST NOT DUP1 DUP4 AND SWAP2 POP POP SWAP3 SWAP2 POP POP JUMP JUMPDEST PUSH0 PUSH2 0x1E37 DUP4 DUP4 PUSH2 0x1E10 JUMP JUMPDEST SWAP2 POP DUP3 PUSH1 0x2 MUL DUP3 OR SWAP1 POP SWAP3 SWAP2 POP POP JUMP JUMPDEST PUSH2 0x1E50 DUP3 PUSH2 0x12E5 JUMP JUMPDEST PUSH8 0xFFFFFFFFFFFFFFFF DUP2 GT ISZERO PUSH2 0x1E69 JUMPI PUSH2 0x1E68 PUSH2 0x161E JUMP JUMPDEST JUMPDEST PUSH2 0x1E73 DUP3 SLOAD PUSH2 0x188D JUMP JUMPDEST PUSH2 0x1E7E DUP3 DUP3 DUP6 PUSH2 0x1DBE JUMP JUMPDEST PUSH0 PUSH1 0x20 SWAP1 POP PUSH1 0x1F DUP4 GT PUSH1 0x1 DUP2 EQ PUSH2 0x1EAF JUMPI PUSH0 DUP5 ISZERO PUSH2 0x1E9D JUMPI DUP3 DUP8 ADD MLOAD SWAP1 POP JUMPDEST PUSH2 0x1EA7 DUP6 DUP3 PUSH2 0x1E2C JUMP JUMPDEST DUP7 SSTORE POP PUSH2 0x1F0E JUMP JUMPDEST PUSH1 0x1F NOT DUP5 AND PUSH2 0x1EBD DUP7 PUSH2 0x1CAA JUMP JUMPDEST PUSH0 JUMPDEST DUP3 DUP2 LT ISZERO PUSH2 0x1EE4 JUMPI DUP5 DUP10 ADD MLOAD DUP3 SSTORE PUSH1 0x1 DUP3 ADD SWAP2 POP PUSH1 0x20 DUP6 ADD SWAP5 POP PUSH1 0x20 DUP2 ADD SWAP1 POP PUSH2 0x1EBF JUMP JUMPDEST DUP7 DUP4 LT ISZERO PUSH2 0x1F01 JUMPI DUP5 DUP10 ADD MLOAD PUSH2 0x1EFD PUSH1 0x1F DUP10 AND DUP3 PUSH2 0x1E10 JUMP JUMPDEST DUP4 SSTORE POP JUMPDEST PUSH1 0x1 PUSH1 0x2 DUP9 MUL ADD DUP9 SSTORE POP POP POP JUMPDEST POP POP POP POP POP POP JUMP JUMPDEST PUSH0 PUSH1 0x80 DUP3 ADD SWAP1 POP PUSH2 0x1F29 PUSH0 DUP4 ADD DUP8 PUSH2 0x12C7 JUMP JUMPDEST PUSH2 0x1F36 PUSH1 0x20 DUP4 ADD DUP7 PUSH2 0x12D6 JUMP JUMPDEST DUP2 DUP2 SUB PUSH1 0x40 DUP4 ADD MSTORE PUSH2 0x1F48 DUP2 DUP6 PUSH2 0x131D JUMP JUMPDEST SWAP1 POP PUSH2 0x1F57 PUSH1 0x60 DUP4 ADD DUP5 PUSH2 0x12C7 JUMP JUMPDEST SWAP6 SWAP5 POP POP POP POP POP JUMP INVALID LOG2 PUSH5 0x6970667358 0x22 SLT KECCAK256 0xC3 SWAP5 PUSH9 0xC4E5BB494D9C3F4662 PUSH17 0x756FB2647A1AD11EEF8C6B87FC5759EA04 XOR 0xCE PUSH5 0x736F6C6343 STOP ADDMOD BYTE STOP CALLER "
				},
				"gasEstimates": {
					"creation": {
						"codeDepositCost": "1617200",
						"executionCost": "infinite",
						"totalCost": "infinite"
					},
					"external": {
						"MAX_TWEET_LENGTH()": "2516",
						"changeTweetLength(uint16)": "infinite",
						"createTweet(string)": "infinite",
						"getAllTweets(address)": "infinite",
						"getTweet(uint256)": "infinite",
						"likeTweet(address,uint256)": "infinite",
						"owner()": "2581",
						"renounceOwnership()": "infinite",
						"transferOwnership(address)": "infinite",
						"tweets(address,uint256)": "infinite",
						"unlikeTweet(address,uint256)": "infinite"
					}
				},
				"methodIdentifiers": {
					"MAX_TWEET_LENGTH()": "6eb10797",
					"changeTweetLength(uint16)": "58bfa4ab",
					"createTweet(string)": "7c9cd2bc",
					"getAllTweets(address)": "12e7ee1c",
					"getTweet(uint256)": "c3ad5ecb",
					"likeTweet(address,uint256)": "63378216",
					"owner()": "8da5cb5b",
					"renounceOwnership()": "715018a6",
					"transferOwnership(address)": "f2fde38b",
					"tweets(address,uint256)": "05a1b4a9",
					"unlikeTweet(address,uint256)": "3d9b569f"
				}
			},
			"storageLayout": {
				"storage": [
					{
						"astId": 8,
						"contract": "contracts/Twitter-Interaction-Main.sol:Twitter",
						"label": "_owner",
						"offset": 0,
						"slot": "0",
						"type": "t_address"
					},
					{
						"astId": 199,
						"contract": "contracts/Twitter-Interaction-Main.sol:Twitter",
						"label": "MAX_TWEET_LENGTH",
						"offset": 20,
						"slot": "0",
						"type": "t_uint16"
					},
					{
						"astId": 216,
						"contract": "contracts/Twitter-Interaction-Main.sol:Twitter",
						"label": "tweets",
						"offset": 0,
						"slot": "1",
						"type": "t_mapping(t_address,t_array(t_struct(Tweet)210_storage)dyn_storage)"
					},
					{
						"astId": 219,
						"contract": "contracts/Twitter-Interaction-Main.sol:Twitter",
						"label": "profileContract",
						"offset": 0,
						"slot": "2",
						"type": "t_contract(IProfile)194"
					}
				],
				"types": {
					"t_address": {
						"encoding": "inplace",
						"label": "address",
						"numberOfBytes": "20"
					},
					"t_array(t_struct(Tweet)210_storage)dyn_storage": {
						"base": "t_struct(Tweet)210_storage",
						"encoding": "dynamic_array",
						"label": "struct Twitter.Tweet[]",
						"numberOfBytes": "32"
					},
					"t_contract(IProfile)194": {
						"encoding": "inplace",
						"label": "contract IProfile",
						"numberOfBytes": "20"
					},
					"t_mapping(t_address,t_array(t_struct(Tweet)210_storage)dyn_storage)": {
						"encoding": "mapping",
						"key": "t_address",
						"label": "mapping(address => struct Twitter.Tweet[])",
						"numberOfBytes": "32",
						"value": "t_array(t_struct(Tweet)210_storage)dyn_storage"
					},
					"t_string_storage": {
						"encoding": "bytes",
						"label": "string",
						"numberOfBytes": "32"
					},
					"t_struct(Tweet)210_storage": {
						"encoding": "inplace",
						"label": "struct Twitter.Tweet",
						"members": [
							{
								"astId": 201,
								"contract": "contracts/Twitter-Interaction-Main.sol:Twitter",
								"label": "id",
								"offset": 0,
								"slot": "0",
								"type": "t_uint256"
							},
							{
								"astId": 203,
								"contract": "contracts/Twitter-Interaction-Main.sol:Twitter",
								"label": "author",
								"offset": 0,
								"slot": "1",
								"type": "t_address"
							},
							{
								"astId": 205,
								"contract": "contracts/Twitter-Interaction-Main.sol:Twitter",
								"label": "content",
								"offset": 0,
								"slot": "2",
								"type": "t_string_storage"
							},
							{
								"astId": 207,
								"contract": "contracts/Twitter-Interaction-Main.sol:Twitter",
								"label": "timestamps",
								"offset": 0,
								"slot": "3",
								"type": "t_uint256"
							},
							{
								"astId": 209,
								"contract": "contracts/Twitter-Interaction-Main.sol:Twitter",
								"label": "likes",
								"offset": 0,
								"slot": "4",
								"type": "t_uint256"
							}
						],
						"numberOfBytes": "160"
					},
					"t_uint16": {
						"encoding": "inplace",
						"label": "uint16",
						"numberOfBytes": "2"
					},
					"t_uint256": {
						"encoding": "inplace",
						"label": "uint256",
						"numberOfBytes": "32"
					}
				}
			},
			"userdoc": {
				"kind": "user",
				"methods": {},
				"version": 1
			}
		}
	}
}