{
	"contracts/Twitter-Interaction-User.sol": {
		"Profile": {
			"abi": [
				{
					"inputs": [
						{
							"internalType": "address",
							"name": "_user",
							"type": "address"
						}
					],
					"name": "getProfile",
					"outputs": [
						{
							"components": [
								{
									"internalType": "string",
									"name": "username",
									"type": "string"
								},
								{
									"internalType": "string",
									"name": "bio",
									"type": "string"
								}
							],
							"internalType": "struct Profile.UserProfile",
							"name": "",
							"type": "tuple"
						}
					],
					"stateMutability": "view",
					"type": "function"
				},
				{
					"inputs": [
						{
							"internalType": "address",
							"name": "",
							"type": "address"
						}
					],
					"name": "profiles",
					"outputs": [
						{
							"internalType": "string",
							"name": "username",
							"type": "string"
						},
						{
							"internalType": "string",
							"name": "bio",
							"type": "string"
						}
					],
					"stateMutability": "view",
					"type": "function"
				},
				{
					"inputs": [
						{
							"internalType": "string",
							"name": "_displayName",
							"type": "string"
						},
						{
							"internalType": "string",
							"name": "_bio",
							"type": "string"
						}
					],
					"name": "setProfile",
					"outputs": [],
					"stateMutability": "nonpayable",
					"type": "function"
				}
			],
			"devdoc": {
				"kind": "dev",
				"methods": {},
				"version": 1
			},
			"evm": {
				"assembly": "    /* \"contracts/Twitter-Interaction-User.sol\":63:525  contract Profile{... */\n  mstore(0x40, 0x80)\n  callvalue\n  dup1\n  iszero\n  tag_1\n  jumpi\n  0x00\n  dup1\n  revert\ntag_1:\n  pop\n  dataSize(sub_0)\n  dup1\n  dataOffset(sub_0)\n  0x00\n  codecopy\n  0x00\n  return\nstop\n\nsub_0: assembly {\n        /* \"contracts/Twitter-Interaction-User.sol\":63:525  contract Profile{... */\n      mstore(0x40, 0x80)\n      callvalue\n      dup1\n      iszero\n      tag_1\n      jumpi\n      0x00\n      dup1\n      revert\n    tag_1:\n      pop\n      jumpi(tag_2, lt(calldatasize, 0x04))\n      shr(0xe0, calldataload(0x00))\n      dup1\n      0x0f53a470\n      eq\n      tag_3\n      jumpi\n      dup1\n      0x719e37ae\n      eq\n      tag_4\n      jumpi\n      dup1\n      0xbbe15627\n      eq\n      tag_5\n      jumpi\n    tag_2:\n      0x00\n      dup1\n      revert\n        /* \"contracts/Twitter-Interaction-User.sol\":404:520  function getProfile(address _user) public view returns(UserProfile memory) {... */\n    tag_3:\n      tag_6\n      0x04\n      dup1\n      calldatasize\n      sub\n      dup2\n      add\n      swap1\n      tag_7\n      swap2\n      swap1\n      tag_8\n      jump\t// in\n    tag_7:\n      tag_9\n      jump\t// in\n    tag_6:\n      mload(0x40)\n      tag_10\n      swap2\n      swap1\n      tag_11\n      jump\t// in\n    tag_10:\n      mload(0x40)\n      dup1\n      swap2\n      sub\n      swap1\n      return\n        /* \"contracts/Twitter-Interaction-User.sol\":227:396  function setProfile(string memory _displayName, string memory _bio) public {... */\n    tag_4:\n      tag_12\n      0x04\n      dup1\n      calldatasize\n      sub\n      dup2\n      add\n      swap1\n      tag_13\n      swap2\n      swap1\n      tag_14\n      jump\t// in\n    tag_13:\n      tag_15\n      jump\t// in\n    tag_12:\n      stop\n        /* \"contracts/Twitter-Interaction-User.sol\":171:218  mapping(address => UserProfile) public profiles */\n    tag_5:\n      tag_16\n      0x04\n      dup1\n      calldatasize\n      sub\n      dup2\n      add\n      swap1\n      tag_17\n      swap2\n      swap1\n      tag_8\n      jump\t// in\n    tag_17:\n      tag_18\n      jump\t// in\n    tag_16:\n      mload(0x40)\n      tag_19\n      swap3\n      swap2\n      swap1\n      tag_20\n      jump\t// in\n    tag_19:\n      mload(0x40)\n      dup1\n      swap2\n      sub\n      swap1\n      return\n        /* \"contracts/Twitter-Interaction-User.sol\":404:520  function getProfile(address _user) public view returns(UserProfile memory) {... */\n    tag_9:\n        /* \"contracts/Twitter-Interaction-User.sol\":459:477  UserProfile memory */\n      tag_21\n      tag_22\n      jump\t// in\n    tag_21:\n        /* \"contracts/Twitter-Interaction-User.sol\":497:505  profiles */\n      0x00\n        /* \"contracts/Twitter-Interaction-User.sol\":497:512  profiles[_user] */\n      dup1\n        /* \"contracts/Twitter-Interaction-User.sol\":506:511  _user */\n      dup4\n        /* \"contracts/Twitter-Interaction-User.sol\":497:512  profiles[_user] */\n      0xffffffffffffffffffffffffffffffffffffffff\n      and\n      0xffffffffffffffffffffffffffffffffffffffff\n      and\n      dup2\n      mstore\n      0x20\n      add\n      swap1\n      dup2\n      mstore\n      0x20\n      add\n      0x00\n      keccak256\n        /* \"contracts/Twitter-Interaction-User.sol\":490:512  return profiles[_user] */\n      mload(0x40)\n      dup1\n      0x40\n      add\n      0x40\n      mstore\n      swap1\n      dup2\n      0x00\n      dup3\n      add\n      dup1\n      sload\n      tag_24\n      swap1\n      tag_25\n      jump\t// in\n    tag_24:\n      dup1\n      0x1f\n      add\n      0x20\n      dup1\n      swap2\n      div\n      mul\n      0x20\n      add\n      mload(0x40)\n      swap1\n      dup2\n      add\n      0x40\n      mstore\n      dup1\n      swap3\n      swap2\n      swap1\n      dup2\n      dup2\n      mstore\n      0x20\n      add\n      dup3\n      dup1\n      sload\n      tag_26\n      swap1\n      tag_25\n      jump\t// in\n    tag_26:\n      dup1\n      iszero\n      tag_27\n      jumpi\n      dup1\n      0x1f\n      lt\n      tag_28\n      jumpi\n      0x0100\n      dup1\n      dup4\n      sload\n      div\n      mul\n      dup4\n      mstore\n      swap2\n      0x20\n      add\n      swap2\n      jump(tag_27)\n    tag_28:\n      dup3\n      add\n      swap2\n      swap1\n      0x00\n      mstore\n      keccak256(0x00, 0x20)\n      swap1\n    tag_29:\n      dup2\n      sload\n      dup2\n      mstore\n      swap1\n      0x01\n      add\n      swap1\n      0x20\n      add\n      dup1\n      dup4\n      gt\n      tag_29\n      jumpi\n      dup3\n      swap1\n      sub\n      0x1f\n      and\n      dup3\n      add\n      swap2\n    tag_27:\n      pop\n      pop\n      pop\n      pop\n      pop\n      dup2\n      mstore\n      0x20\n      add\n      0x01\n      dup3\n      add\n      dup1\n      sload\n      tag_30\n      swap1\n      tag_25\n      jump\t// in\n    tag_30:\n      dup1\n      0x1f\n      add\n      0x20\n      dup1\n      swap2\n      div\n      mul\n      0x20\n      add\n      mload(0x40)\n      swap1\n      dup2\n      add\n      0x40\n      mstore\n      dup1\n      swap3\n      swap2\n      swap1\n      dup2\n      dup2\n      mstore\n      0x20\n      add\n      dup3\n      dup1\n      sload\n      tag_31\n      swap1\n      tag_25\n      jump\t// in\n    tag_31:\n      dup1\n      iszero\n      tag_32\n      jumpi\n      dup1\n      0x1f\n      lt\n      tag_33\n      jumpi\n      0x0100\n      dup1\n      dup4\n      sload\n      div\n      mul\n      dup4\n      mstore\n      swap2\n      0x20\n      add\n      swap2\n      jump(tag_32)\n    tag_33:\n      dup3\n      add\n      swap2\n      swap1\n      0x00\n      mstore\n      keccak256(0x00, 0x20)\n      swap1\n    tag_34:\n      dup2\n      sload\n      dup2\n      mstore\n      swap1\n      0x01\n      add\n      swap1\n      0x20\n      add\n      dup1\n      dup4\n      gt\n      tag_34\n      jumpi\n      dup3\n      swap1\n      sub\n      0x1f\n      and\n      dup3\n      add\n      swap2\n    tag_32:\n      pop\n      pop\n      pop\n      pop\n      pop\n      dup2\n      mstore\n      pop\n      pop\n      swap1\n      pop\n        /* \"contracts/Twitter-Interaction-User.sol\":404:520  function getProfile(address _user) public view returns(UserProfile memory) {... */\n      swap2\n      swap1\n      pop\n      jump\t// out\n        /* \"contracts/Twitter-Interaction-User.sol\":227:396  function setProfile(string memory _displayName, string memory _bio) public {... */\n    tag_15:\n        /* \"contracts/Twitter-Interaction-User.sol\":352:383  UserProfile(_displayName, _bio) */\n      mload(0x40)\n      dup1\n      0x40\n      add\n      0x40\n      mstore\n      dup1\n        /* \"contracts/Twitter-Interaction-User.sol\":364:376  _displayName */\n      dup4\n        /* \"contracts/Twitter-Interaction-User.sol\":352:383  UserProfile(_displayName, _bio) */\n      dup2\n      mstore\n      0x20\n      add\n        /* \"contracts/Twitter-Interaction-User.sol\":378:382  _bio */\n      dup3\n        /* \"contracts/Twitter-Interaction-User.sol\":352:383  UserProfile(_displayName, _bio) */\n      dup2\n      mstore\n      pop\n        /* \"contracts/Twitter-Interaction-User.sol\":329:337  profiles */\n      0x00\n        /* \"contracts/Twitter-Interaction-User.sol\":329:349  profiles[msg.sender] */\n      dup1\n        /* \"contracts/Twitter-Interaction-User.sol\":338:348  msg.sender */\n      caller\n        /* \"contracts/Twitter-Interaction-User.sol\":329:349  profiles[msg.sender] */\n      0xffffffffffffffffffffffffffffffffffffffff\n      and\n      0xffffffffffffffffffffffffffffffffffffffff\n      and\n      dup2\n      mstore\n      0x20\n      add\n      swap1\n      dup2\n      mstore\n      0x20\n      add\n      0x00\n      keccak256\n        /* \"contracts/Twitter-Interaction-User.sol\":329:383  profiles[msg.sender] = UserProfile(_displayName, _bio) */\n      0x00\n      dup3\n      add\n      mload\n      dup2\n      0x00\n      add\n      swap1\n      dup2\n      tag_36\n      swap2\n      swap1\n      tag_37\n      jump\t// in\n    tag_36:\n      pop\n      0x20\n      dup3\n      add\n      mload\n      dup2\n      0x01\n      add\n      swap1\n      dup2\n      tag_38\n      swap2\n      swap1\n      tag_37\n      jump\t// in\n    tag_38:\n      pop\n      swap1\n      pop\n      pop\n        /* \"contracts/Twitter-Interaction-User.sol\":227:396  function setProfile(string memory _displayName, string memory _bio) public {... */\n      pop\n      pop\n      jump\t// out\n        /* \"contracts/Twitter-Interaction-User.sol\":171:218  mapping(address => UserProfile) public profiles */\n    tag_18:\n      mstore(0x20, 0x00)\n      dup1\n      0x00\n      mstore\n      keccak256(0x00, 0x40)\n      0x00\n      swap2\n      pop\n      swap1\n      pop\n      dup1\n      0x00\n      add\n      dup1\n      sload\n      tag_39\n      swap1\n      tag_25\n      jump\t// in\n    tag_39:\n      dup1\n      0x1f\n      add\n      0x20\n      dup1\n      swap2\n      div\n      mul\n      0x20\n      add\n      mload(0x40)\n      swap1\n      dup2\n      add\n      0x40\n      mstore\n      dup1\n      swap3\n      swap2\n      swap1\n      dup2\n      dup2\n      mstore\n      0x20\n      add\n      dup3\n      dup1\n      sload\n      tag_40\n      swap1\n      tag_25\n      jump\t// in\n    tag_40:\n      dup1\n      iszero\n      tag_41\n      jumpi\n      dup1\n      0x1f\n      lt\n      tag_42\n      jumpi\n      0x0100\n      dup1\n      dup4\n      sload\n      div\n      mul\n      dup4\n      mstore\n      swap2\n      0x20\n      add\n      swap2\n      jump(tag_41)\n    tag_42:\n      dup3\n      add\n      swap2\n      swap1\n      0x00\n      mstore\n      keccak256(0x00, 0x20)\n      swap1\n    tag_43:\n      dup2\n      sload\n      dup2\n      mstore\n      swap1\n      0x01\n      add\n      swap1\n      0x20\n      add\n      dup1\n      dup4\n      gt\n      tag_43\n      jumpi\n      dup3\n      swap1\n      sub\n      0x1f\n      and\n      dup3\n      add\n      swap2\n    tag_41:\n      pop\n      pop\n      pop\n      pop\n      pop\n      swap1\n      dup1\n      0x01\n      add\n      dup1\n      sload\n      tag_44\n      swap1\n      tag_25\n      jump\t// in\n    tag_44:\n      dup1\n      0x1f\n      add\n      0x20\n      dup1\n      swap2\n      div\n      mul\n      0x20\n      add\n      mload(0x40)\n      swap1\n      dup2\n      add\n      0x40\n      mstore\n      dup1\n      swap3\n      swap2\n      swap1\n      dup2\n      dup2\n      mstore\n      0x20\n      add\n      dup3\n      dup1\n      sload\n      tag_45\n      swap1\n      tag_25\n      jump\t// in\n    tag_45:\n      dup1\n      iszero\n      tag_46\n      jumpi\n      dup1\n      0x1f\n      lt\n      tag_47\n      jumpi\n      0x0100\n      dup1\n      dup4\n      sload\n      div\n      mul\n      dup4\n      mstore\n      swap2\n      0x20\n      add\n      swap2\n      jump(tag_46)\n    tag_47:\n      dup3\n      add\n      swap2\n      swap1\n      0x00\n      mstore\n      keccak256(0x00, 0x20)\n      swap1\n    tag_48:\n      dup2\n      sload\n      dup2\n      mstore\n      swap1\n      0x01\n      add\n      swap1\n      0x20\n      add\n      dup1\n      dup4\n      gt\n      tag_48\n      jumpi\n      dup3\n      swap1\n      sub\n      0x1f\n      and\n      dup3\n      add\n      swap2\n    tag_46:\n      pop\n      pop\n      pop\n      pop\n      pop\n      swap1\n      pop\n      dup3\n      jump\t// out\n    tag_22:\n      mload(0x40)\n      dup1\n      0x40\n      add\n      0x40\n      mstore\n      dup1\n      0x60\n      dup2\n      mstore\n      0x20\n      add\n      0x60\n      dup2\n      mstore\n      pop\n      swap1\n      jump\t// out\n        /* \"#utility.yul\":7:82   */\n    tag_49:\n        /* \"#utility.yul\":40:46   */\n      0x00\n        /* \"#utility.yul\":73:75   */\n      0x40\n        /* \"#utility.yul\":67:76   */\n      mload\n        /* \"#utility.yul\":57:76   */\n      swap1\n      pop\n        /* \"#utility.yul\":7:82   */\n      swap1\n      jump\t// out\n        /* \"#utility.yul\":88:205   */\n    tag_50:\n        /* \"#utility.yul\":197:198   */\n      0x00\n        /* \"#utility.yul\":194:195   */\n      dup1\n        /* \"#utility.yul\":187:199   */\n      revert\n        /* \"#utility.yul\":211:328   */\n    tag_51:\n        /* \"#utility.yul\":320:321   */\n      0x00\n        /* \"#utility.yul\":317:318   */\n      dup1\n        /* \"#utility.yul\":310:322   */\n      revert\n        /* \"#utility.yul\":334:460   */\n    tag_52:\n        /* \"#utility.yul\":371:378   */\n      0x00\n        /* \"#utility.yul\":411:453   */\n      0xffffffffffffffffffffffffffffffffffffffff\n        /* \"#utility.yul\":404:409   */\n      dup3\n        /* \"#utility.yul\":400:454   */\n      and\n        /* \"#utility.yul\":389:454   */\n      swap1\n      pop\n        /* \"#utility.yul\":334:460   */\n      swap2\n      swap1\n      pop\n      jump\t// out\n        /* \"#utility.yul\":466:562   */\n    tag_53:\n        /* \"#utility.yul\":503:510   */\n      0x00\n        /* \"#utility.yul\":532:556   */\n      tag_96\n        /* \"#utility.yul\":550:555   */\n      dup3\n        /* \"#utility.yul\":532:556   */\n      tag_52\n      jump\t// in\n    tag_96:\n        /* \"#utility.yul\":521:556   */\n      swap1\n      pop\n        /* \"#utility.yul\":466:562   */\n      swap2\n      swap1\n      pop\n      jump\t// out\n        /* \"#utility.yul\":568:690   */\n    tag_54:\n        /* \"#utility.yul\":641:665   */\n      tag_98\n        /* \"#utility.yul\":659:664   */\n      dup2\n        /* \"#utility.yul\":641:665   */\n      tag_53\n      jump\t// in\n    tag_98:\n        /* \"#utility.yul\":634:639   */\n      dup2\n        /* \"#utility.yul\":631:666   */\n      eq\n        /* \"#utility.yul\":621:684   */\n      tag_99\n      jumpi\n        /* \"#utility.yul\":680:681   */\n      0x00\n        /* \"#utility.yul\":677:678   */\n      dup1\n        /* \"#utility.yul\":670:682   */\n      revert\n        /* \"#utility.yul\":621:684   */\n    tag_99:\n        /* \"#utility.yul\":568:690   */\n      pop\n      jump\t// out\n        /* \"#utility.yul\":696:835   */\n    tag_55:\n        /* \"#utility.yul\":742:747   */\n      0x00\n        /* \"#utility.yul\":780:786   */\n      dup2\n        /* \"#utility.yul\":767:787   */\n      calldataload\n        /* \"#utility.yul\":758:787   */\n      swap1\n      pop\n        /* \"#utility.yul\":796:829   */\n      tag_101\n        /* \"#utility.yul\":823:828   */\n      dup2\n        /* \"#utility.yul\":796:829   */\n      tag_54\n      jump\t// in\n    tag_101:\n        /* \"#utility.yul\":696:835   */\n      swap3\n      swap2\n      pop\n      pop\n      jump\t// out\n        /* \"#utility.yul\":841:1170   */\n    tag_8:\n        /* \"#utility.yul\":900:906   */\n      0x00\n        /* \"#utility.yul\":949:951   */\n      0x20\n        /* \"#utility.yul\":937:946   */\n      dup3\n        /* \"#utility.yul\":928:935   */\n      dup5\n        /* \"#utility.yul\":924:947   */\n      sub\n        /* \"#utility.yul\":920:952   */\n      slt\n        /* \"#utility.yul\":917:1036   */\n      iszero\n      tag_103\n      jumpi\n        /* \"#utility.yul\":955:1034   */\n      tag_104\n      tag_50\n      jump\t// in\n    tag_104:\n        /* \"#utility.yul\":917:1036   */\n    tag_103:\n        /* \"#utility.yul\":1075:1076   */\n      0x00\n        /* \"#utility.yul\":1100:1153   */\n      tag_105\n        /* \"#utility.yul\":1145:1152   */\n      dup5\n        /* \"#utility.yul\":1136:1142   */\n      dup3\n        /* \"#utility.yul\":1125:1134   */\n      dup6\n        /* \"#utility.yul\":1121:1143   */\n      add\n        /* \"#utility.yul\":1100:1153   */\n      tag_55\n      jump\t// in\n    tag_105:\n        /* \"#utility.yul\":1090:1153   */\n      swap2\n      pop\n        /* \"#utility.yul\":1046:1163   */\n      pop\n        /* \"#utility.yul\":841:1170   */\n      swap3\n      swap2\n      pop\n      pop\n      jump\t// out\n        /* \"#utility.yul\":1176:1275   */\n    tag_56:\n        /* \"#utility.yul\":1228:1234   */\n      0x00\n        /* \"#utility.yul\":1262:1267   */\n      dup2\n        /* \"#utility.yul\":1256:1268   */\n      mload\n        /* \"#utility.yul\":1246:1268   */\n      swap1\n      pop\n        /* \"#utility.yul\":1176:1275   */\n      swap2\n      swap1\n      pop\n      jump\t// out\n        /* \"#utility.yul\":1281:1440   */\n    tag_57:\n        /* \"#utility.yul\":1355:1366   */\n      0x00\n        /* \"#utility.yul\":1389:1395   */\n      dup3\n        /* \"#utility.yul\":1384:1387   */\n      dup3\n        /* \"#utility.yul\":1377:1396   */\n      mstore\n        /* \"#utility.yul\":1429:1433   */\n      0x20\n        /* \"#utility.yul\":1424:1427   */\n      dup3\n        /* \"#utility.yul\":1420:1434   */\n      add\n        /* \"#utility.yul\":1405:1434   */\n      swap1\n      pop\n        /* \"#utility.yul\":1281:1440   */\n      swap3\n      swap2\n      pop\n      pop\n      jump\t// out\n        /* \"#utility.yul\":1446:1585   */\n    tag_58:\n        /* \"#utility.yul\":1535:1541   */\n      dup3\n        /* \"#utility.yul\":1530:1533   */\n      dup2\n        /* \"#utility.yul\":1525:1528   */\n      dup4\n        /* \"#utility.yul\":1519:1542   */\n      mcopy\n        /* \"#utility.yul\":1576:1577   */\n      0x00\n        /* \"#utility.yul\":1567:1573   */\n      dup4\n        /* \"#utility.yul\":1562:1565   */\n      dup4\n        /* \"#utility.yul\":1558:1574   */\n      add\n        /* \"#utility.yul\":1551:1578   */\n      mstore\n        /* \"#utility.yul\":1446:1585   */\n      pop\n      pop\n      pop\n      jump\t// out\n        /* \"#utility.yul\":1591:1693   */\n    tag_59:\n        /* \"#utility.yul\":1632:1638   */\n      0x00\n        /* \"#utility.yul\":1683:1685   */\n      0x1f\n        /* \"#utility.yul\":1679:1686   */\n      not\n        /* \"#utility.yul\":1674:1676   */\n      0x1f\n        /* \"#utility.yul\":1667:1672   */\n      dup4\n        /* \"#utility.yul\":1663:1677   */\n      add\n        /* \"#utility.yul\":1659:1687   */\n      and\n        /* \"#utility.yul\":1649:1687   */\n      swap1\n      pop\n        /* \"#utility.yul\":1591:1693   */\n      swap2\n      swap1\n      pop\n      jump\t// out\n        /* \"#utility.yul\":1699:2056   */\n    tag_60:\n        /* \"#utility.yul\":1777:1780   */\n      0x00\n        /* \"#utility.yul\":1805:1844   */\n      tag_111\n        /* \"#utility.yul\":1838:1843   */\n      dup3\n        /* \"#utility.yul\":1805:1844   */\n      tag_56\n      jump\t// in\n    tag_111:\n        /* \"#utility.yul\":1860:1921   */\n      tag_112\n        /* \"#utility.yul\":1914:1920   */\n      dup2\n        /* \"#utility.yul\":1909:1912   */\n      dup6\n        /* \"#utility.yul\":1860:1921   */\n      tag_57\n      jump\t// in\n    tag_112:\n        /* \"#utility.yul\":1853:1921   */\n      swap4\n      pop\n        /* \"#utility.yul\":1930:1995   */\n      tag_113\n        /* \"#utility.yul\":1988:1994   */\n      dup2\n        /* \"#utility.yul\":1983:1986   */\n      dup6\n        /* \"#utility.yul\":1976:1980   */\n      0x20\n        /* \"#utility.yul\":1969:1974   */\n      dup7\n        /* \"#utility.yul\":1965:1981   */\n      add\n        /* \"#utility.yul\":1930:1995   */\n      tag_58\n      jump\t// in\n    tag_113:\n        /* \"#utility.yul\":2020:2049   */\n      tag_114\n        /* \"#utility.yul\":2042:2048   */\n      dup2\n        /* \"#utility.yul\":2020:2049   */\n      tag_59\n      jump\t// in\n    tag_114:\n        /* \"#utility.yul\":2015:2018   */\n      dup5\n        /* \"#utility.yul\":2011:2050   */\n      add\n        /* \"#utility.yul\":2004:2050   */\n      swap2\n      pop\n        /* \"#utility.yul\":1781:2056   */\n      pop\n        /* \"#utility.yul\":1699:2056   */\n      swap3\n      swap2\n      pop\n      pop\n      jump\t// out\n        /* \"#utility.yul\":2126:2808   */\n    tag_61:\n        /* \"#utility.yul\":2247:2250   */\n      0x00\n        /* \"#utility.yul\":2283:2287   */\n      0x40\n        /* \"#utility.yul\":2278:2281   */\n      dup4\n        /* \"#utility.yul\":2274:2288   */\n      add\n        /* \"#utility.yul\":2374:2378   */\n      0x00\n        /* \"#utility.yul\":2367:2372   */\n      dup4\n        /* \"#utility.yul\":2363:2379   */\n      add\n        /* \"#utility.yul\":2357:2380   */\n      mload\n        /* \"#utility.yul\":2427:2430   */\n      dup5\n        /* \"#utility.yul\":2421:2425   */\n      dup3\n        /* \"#utility.yul\":2417:2431   */\n      sub\n        /* \"#utility.yul\":2410:2414   */\n      0x00\n        /* \"#utility.yul\":2405:2408   */\n      dup7\n        /* \"#utility.yul\":2401:2415   */\n      add\n        /* \"#utility.yul\":2394:2432   */\n      mstore\n        /* \"#utility.yul\":2453:2526   */\n      tag_116\n        /* \"#utility.yul\":2521:2525   */\n      dup3\n        /* \"#utility.yul\":2507:2519   */\n      dup3\n        /* \"#utility.yul\":2453:2526   */\n      tag_60\n      jump\t// in\n    tag_116:\n        /* \"#utility.yul\":2445:2526   */\n      swap2\n      pop\n        /* \"#utility.yul\":2298:2537   */\n      pop\n        /* \"#utility.yul\":2618:2622   */\n      0x20\n        /* \"#utility.yul\":2611:2616   */\n      dup4\n        /* \"#utility.yul\":2607:2623   */\n      add\n        /* \"#utility.yul\":2601:2624   */\n      mload\n        /* \"#utility.yul\":2671:2674   */\n      dup5\n        /* \"#utility.yul\":2665:2669   */\n      dup3\n        /* \"#utility.yul\":2661:2675   */\n      sub\n        /* \"#utility.yul\":2654:2658   */\n      0x20\n        /* \"#utility.yul\":2649:2652   */\n      dup7\n        /* \"#utility.yul\":2645:2659   */\n      add\n        /* \"#utility.yul\":2638:2676   */\n      mstore\n        /* \"#utility.yul\":2697:2770   */\n      tag_117\n        /* \"#utility.yul\":2765:2769   */\n      dup3\n        /* \"#utility.yul\":2751:2763   */\n      dup3\n        /* \"#utility.yul\":2697:2770   */\n      tag_60\n      jump\t// in\n    tag_117:\n        /* \"#utility.yul\":2689:2770   */\n      swap2\n      pop\n        /* \"#utility.yul\":2547:2781   */\n      pop\n        /* \"#utility.yul\":2798:2802   */\n      dup1\n        /* \"#utility.yul\":2791:2802   */\n      swap2\n      pop\n        /* \"#utility.yul\":2252:2808   */\n      pop\n        /* \"#utility.yul\":2126:2808   */\n      swap3\n      swap2\n      pop\n      pop\n      jump\t// out\n        /* \"#utility.yul\":2814:3191   */\n    tag_11:\n        /* \"#utility.yul\":2959:2963   */\n      0x00\n        /* \"#utility.yul\":2997:2999   */\n      0x20\n        /* \"#utility.yul\":2986:2995   */\n      dup3\n        /* \"#utility.yul\":2982:3000   */\n      add\n        /* \"#utility.yul\":2974:3000   */\n      swap1\n      pop\n        /* \"#utility.yul\":3046:3055   */\n      dup2\n        /* \"#utility.yul\":3040:3044   */\n      dup2\n        /* \"#utility.yul\":3036:3056   */\n      sub\n        /* \"#utility.yul\":3032:3033   */\n      0x00\n        /* \"#utility.yul\":3021:3030   */\n      dup4\n        /* \"#utility.yul\":3017:3034   */\n      add\n        /* \"#utility.yul\":3010:3057   */\n      mstore\n        /* \"#utility.yul\":3074:3184   */\n      tag_119\n        /* \"#utility.yul\":3179:3183   */\n      dup2\n        /* \"#utility.yul\":3170:3176   */\n      dup5\n        /* \"#utility.yul\":3074:3184   */\n      tag_61\n      jump\t// in\n    tag_119:\n        /* \"#utility.yul\":3066:3184   */\n      swap1\n      pop\n        /* \"#utility.yul\":2814:3191   */\n      swap3\n      swap2\n      pop\n      pop\n      jump\t// out\n        /* \"#utility.yul\":3197:3314   */\n    tag_62:\n        /* \"#utility.yul\":3306:3307   */\n      0x00\n        /* \"#utility.yul\":3303:3304   */\n      dup1\n        /* \"#utility.yul\":3296:3308   */\n      revert\n        /* \"#utility.yul\":3320:3437   */\n    tag_63:\n        /* \"#utility.yul\":3429:3430   */\n      0x00\n        /* \"#utility.yul\":3426:3427   */\n      dup1\n        /* \"#utility.yul\":3419:3431   */\n      revert\n        /* \"#utility.yul\":3443:3623   */\n    tag_64:\n        /* \"#utility.yul\":3491:3568   */\n      0x4e487b7100000000000000000000000000000000000000000000000000000000\n        /* \"#utility.yul\":3488:3489   */\n      0x00\n        /* \"#utility.yul\":3481:3569   */\n      mstore\n        /* \"#utility.yul\":3588:3592   */\n      0x41\n        /* \"#utility.yul\":3585:3586   */\n      0x04\n        /* \"#utility.yul\":3578:3593   */\n      mstore\n        /* \"#utility.yul\":3612:3616   */\n      0x24\n        /* \"#utility.yul\":3609:3610   */\n      0x00\n        /* \"#utility.yul\":3602:3617   */\n      revert\n        /* \"#utility.yul\":3629:3910   */\n    tag_65:\n        /* \"#utility.yul\":3712:3739   */\n      tag_124\n        /* \"#utility.yul\":3734:3738   */\n      dup3\n        /* \"#utility.yul\":3712:3739   */\n      tag_59\n      jump\t// in\n    tag_124:\n        /* \"#utility.yul\":3704:3710   */\n      dup2\n        /* \"#utility.yul\":3700:3740   */\n      add\n        /* \"#utility.yul\":3842:3848   */\n      dup2\n        /* \"#utility.yul\":3830:3840   */\n      dup2\n        /* \"#utility.yul\":3827:3849   */\n      lt\n        /* \"#utility.yul\":3806:3824   */\n      0xffffffffffffffff\n        /* \"#utility.yul\":3794:3804   */\n      dup3\n        /* \"#utility.yul\":3791:3825   */\n      gt\n        /* \"#utility.yul\":3788:3850   */\n      or\n        /* \"#utility.yul\":3785:3873   */\n      iszero\n      tag_125\n      jumpi\n        /* \"#utility.yul\":3853:3871   */\n      tag_126\n      tag_64\n      jump\t// in\n    tag_126:\n        /* \"#utility.yul\":3785:3873   */\n    tag_125:\n        /* \"#utility.yul\":3893:3903   */\n      dup1\n        /* \"#utility.yul\":3889:3891   */\n      0x40\n        /* \"#utility.yul\":3882:3904   */\n      mstore\n        /* \"#utility.yul\":3672:3910   */\n      pop\n        /* \"#utility.yul\":3629:3910   */\n      pop\n      pop\n      jump\t// out\n        /* \"#utility.yul\":3916:4045   */\n    tag_66:\n        /* \"#utility.yul\":3950:3956   */\n      0x00\n        /* \"#utility.yul\":3977:3997   */\n      tag_128\n      tag_49\n      jump\t// in\n    tag_128:\n        /* \"#utility.yul\":3967:3997   */\n      swap1\n      pop\n        /* \"#utility.yul\":4006:4039   */\n      tag_129\n        /* \"#utility.yul\":4034:4038   */\n      dup3\n        /* \"#utility.yul\":4026:4032   */\n      dup3\n        /* \"#utility.yul\":4006:4039   */\n      tag_65\n      jump\t// in\n    tag_129:\n        /* \"#utility.yul\":3916:4045   */\n      swap2\n      swap1\n      pop\n      jump\t// out\n        /* \"#utility.yul\":4051:4359   */\n    tag_67:\n        /* \"#utility.yul\":4113:4117   */\n      0x00\n        /* \"#utility.yul\":4203:4221   */\n      0xffffffffffffffff\n        /* \"#utility.yul\":4195:4201   */\n      dup3\n        /* \"#utility.yul\":4192:4222   */\n      gt\n        /* \"#utility.yul\":4189:4245   */\n      iszero\n      tag_131\n      jumpi\n        /* \"#utility.yul\":4225:4243   */\n      tag_132\n      tag_64\n      jump\t// in\n    tag_132:\n        /* \"#utility.yul\":4189:4245   */\n    tag_131:\n        /* \"#utility.yul\":4263:4292   */\n      tag_133\n        /* \"#utility.yul\":4285:4291   */\n      dup3\n        /* \"#utility.yul\":4263:4292   */\n      tag_59\n      jump\t// in\n    tag_133:\n        /* \"#utility.yul\":4255:4292   */\n      swap1\n      pop\n        /* \"#utility.yul\":4347:4351   */\n      0x20\n        /* \"#utility.yul\":4341:4345   */\n      dup2\n        /* \"#utility.yul\":4337:4352   */\n      add\n        /* \"#utility.yul\":4329:4352   */\n      swap1\n      pop\n        /* \"#utility.yul\":4051:4359   */\n      swap2\n      swap1\n      pop\n      jump\t// out\n        /* \"#utility.yul\":4365:4513   */\n    tag_68:\n        /* \"#utility.yul\":4463:4469   */\n      dup3\n        /* \"#utility.yul\":4458:4461   */\n      dup2\n        /* \"#utility.yul\":4453:4456   */\n      dup4\n        /* \"#utility.yul\":4440:4470   */\n      calldatacopy\n        /* \"#utility.yul\":4504:4505   */\n      0x00\n        /* \"#utility.yul\":4495:4501   */\n      dup4\n        /* \"#utility.yul\":4490:4493   */\n      dup4\n        /* \"#utility.yul\":4486:4502   */\n      add\n        /* \"#utility.yul\":4479:4506   */\n      mstore\n        /* \"#utility.yul\":4365:4513   */\n      pop\n      pop\n      pop\n      jump\t// out\n        /* \"#utility.yul\":4519:4944   */\n    tag_69:\n        /* \"#utility.yul\":4597:4602   */\n      0x00\n        /* \"#utility.yul\":4622:4688   */\n      tag_136\n        /* \"#utility.yul\":4638:4687   */\n      tag_137\n        /* \"#utility.yul\":4680:4686   */\n      dup5\n        /* \"#utility.yul\":4638:4687   */\n      tag_67\n      jump\t// in\n    tag_137:\n        /* \"#utility.yul\":4622:4688   */\n      tag_66\n      jump\t// in\n    tag_136:\n        /* \"#utility.yul\":4613:4688   */\n      swap1\n      pop\n        /* \"#utility.yul\":4711:4717   */\n      dup3\n        /* \"#utility.yul\":4704:4709   */\n      dup2\n        /* \"#utility.yul\":4697:4718   */\n      mstore\n        /* \"#utility.yul\":4749:4753   */\n      0x20\n        /* \"#utility.yul\":4742:4747   */\n      dup2\n        /* \"#utility.yul\":4738:4754   */\n      add\n        /* \"#utility.yul\":4787:4790   */\n      dup5\n        /* \"#utility.yul\":4778:4784   */\n      dup5\n        /* \"#utility.yul\":4773:4776   */\n      dup5\n        /* \"#utility.yul\":4769:4785   */\n      add\n        /* \"#utility.yul\":4766:4791   */\n      gt\n        /* \"#utility.yul\":4763:4875   */\n      iszero\n      tag_138\n      jumpi\n        /* \"#utility.yul\":4794:4873   */\n      tag_139\n      tag_63\n      jump\t// in\n    tag_139:\n        /* \"#utility.yul\":4763:4875   */\n    tag_138:\n        /* \"#utility.yul\":4884:4938   */\n      tag_140\n        /* \"#utility.yul\":4931:4937   */\n      dup5\n        /* \"#utility.yul\":4926:4929   */\n      dup3\n        /* \"#utility.yul\":4921:4924   */\n      dup6\n        /* \"#utility.yul\":4884:4938   */\n      tag_68\n      jump\t// in\n    tag_140:\n        /* \"#utility.yul\":4603:4944   */\n      pop\n        /* \"#utility.yul\":4519:4944   */\n      swap4\n      swap3\n      pop\n      pop\n      pop\n      jump\t// out\n        /* \"#utility.yul\":4964:5304   */\n    tag_70:\n        /* \"#utility.yul\":5020:5025   */\n      0x00\n        /* \"#utility.yul\":5069:5072   */\n      dup3\n        /* \"#utility.yul\":5062:5066   */\n      0x1f\n        /* \"#utility.yul\":5054:5060   */\n      dup4\n        /* \"#utility.yul\":5050:5067   */\n      add\n        /* \"#utility.yul\":5046:5073   */\n      slt\n        /* \"#utility.yul\":5036:5158   */\n      tag_142\n      jumpi\n        /* \"#utility.yul\":5077:5156   */\n      tag_143\n      tag_62\n      jump\t// in\n    tag_143:\n        /* \"#utility.yul\":5036:5158   */\n    tag_142:\n        /* \"#utility.yul\":5194:5200   */\n      dup2\n        /* \"#utility.yul\":5181:5201   */\n      calldataload\n        /* \"#utility.yul\":5219:5298   */\n      tag_144\n        /* \"#utility.yul\":5294:5297   */\n      dup5\n        /* \"#utility.yul\":5286:5292   */\n      dup3\n        /* \"#utility.yul\":5279:5283   */\n      0x20\n        /* \"#utility.yul\":5271:5277   */\n      dup7\n        /* \"#utility.yul\":5267:5284   */\n      add\n        /* \"#utility.yul\":5219:5298   */\n      tag_69\n      jump\t// in\n    tag_144:\n        /* \"#utility.yul\":5210:5298   */\n      swap2\n      pop\n        /* \"#utility.yul\":5026:5304   */\n      pop\n        /* \"#utility.yul\":4964:5304   */\n      swap3\n      swap2\n      pop\n      pop\n      jump\t// out\n        /* \"#utility.yul\":5310:6144   */\n    tag_14:\n        /* \"#utility.yul\":5398:5404   */\n      0x00\n        /* \"#utility.yul\":5406:5412   */\n      dup1\n        /* \"#utility.yul\":5455:5457   */\n      0x40\n        /* \"#utility.yul\":5443:5452   */\n      dup4\n        /* \"#utility.yul\":5434:5441   */\n      dup6\n        /* \"#utility.yul\":5430:5453   */\n      sub\n        /* \"#utility.yul\":5426:5458   */\n      slt\n        /* \"#utility.yul\":5423:5542   */\n      iszero\n      tag_146\n      jumpi\n        /* \"#utility.yul\":5461:5540   */\n      tag_147\n      tag_50\n      jump\t// in\n    tag_147:\n        /* \"#utility.yul\":5423:5542   */\n    tag_146:\n        /* \"#utility.yul\":5609:5610   */\n      0x00\n        /* \"#utility.yul\":5598:5607   */\n      dup4\n        /* \"#utility.yul\":5594:5611   */\n      add\n        /* \"#utility.yul\":5581:5612   */\n      calldataload\n        /* \"#utility.yul\":5639:5657   */\n      0xffffffffffffffff\n        /* \"#utility.yul\":5631:5637   */\n      dup2\n        /* \"#utility.yul\":5628:5658   */\n      gt\n        /* \"#utility.yul\":5625:5742   */\n      iszero\n      tag_148\n      jumpi\n        /* \"#utility.yul\":5661:5740   */\n      tag_149\n      tag_51\n      jump\t// in\n    tag_149:\n        /* \"#utility.yul\":5625:5742   */\n    tag_148:\n        /* \"#utility.yul\":5766:5829   */\n      tag_150\n        /* \"#utility.yul\":5821:5828   */\n      dup6\n        /* \"#utility.yul\":5812:5818   */\n      dup3\n        /* \"#utility.yul\":5801:5810   */\n      dup7\n        /* \"#utility.yul\":5797:5819   */\n      add\n        /* \"#utility.yul\":5766:5829   */\n      tag_70\n      jump\t// in\n    tag_150:\n        /* \"#utility.yul\":5756:5829   */\n      swap3\n      pop\n        /* \"#utility.yul\":5552:5839   */\n      pop\n        /* \"#utility.yul\":5906:5908   */\n      0x20\n        /* \"#utility.yul\":5895:5904   */\n      dup4\n        /* \"#utility.yul\":5891:5909   */\n      add\n        /* \"#utility.yul\":5878:5910   */\n      calldataload\n        /* \"#utility.yul\":5937:5955   */\n      0xffffffffffffffff\n        /* \"#utility.yul\":5929:5935   */\n      dup2\n        /* \"#utility.yul\":5926:5956   */\n      gt\n        /* \"#utility.yul\":5923:6040   */\n      iszero\n      tag_151\n      jumpi\n        /* \"#utility.yul\":5959:6038   */\n      tag_152\n      tag_51\n      jump\t// in\n    tag_152:\n        /* \"#utility.yul\":5923:6040   */\n    tag_151:\n        /* \"#utility.yul\":6064:6127   */\n      tag_153\n        /* \"#utility.yul\":6119:6126   */\n      dup6\n        /* \"#utility.yul\":6110:6116   */\n      dup3\n        /* \"#utility.yul\":6099:6108   */\n      dup7\n        /* \"#utility.yul\":6095:6117   */\n      add\n        /* \"#utility.yul\":6064:6127   */\n      tag_70\n      jump\t// in\n    tag_153:\n        /* \"#utility.yul\":6054:6127   */\n      swap2\n      pop\n        /* \"#utility.yul\":5849:6137   */\n      pop\n        /* \"#utility.yul\":5310:6144   */\n      swap3\n      pop\n      swap3\n      swap1\n      pop\n      jump\t// out\n        /* \"#utility.yul\":6150:6319   */\n    tag_71:\n        /* \"#utility.yul\":6234:6245   */\n      0x00\n        /* \"#utility.yul\":6268:6274   */\n      dup3\n        /* \"#utility.yul\":6263:6266   */\n      dup3\n        /* \"#utility.yul\":6256:6275   */\n      mstore\n        /* \"#utility.yul\":6308:6312   */\n      0x20\n        /* \"#utility.yul\":6303:6306   */\n      dup3\n        /* \"#utility.yul\":6299:6313   */\n      add\n        /* \"#utility.yul\":6284:6313   */\n      swap1\n      pop\n        /* \"#utility.yul\":6150:6319   */\n      swap3\n      swap2\n      pop\n      pop\n      jump\t// out\n        /* \"#utility.yul\":6325:6702   */\n    tag_72:\n        /* \"#utility.yul\":6413:6416   */\n      0x00\n        /* \"#utility.yul\":6441:6480   */\n      tag_156\n        /* \"#utility.yul\":6474:6479   */\n      dup3\n        /* \"#utility.yul\":6441:6480   */\n      tag_56\n      jump\t// in\n    tag_156:\n        /* \"#utility.yul\":6496:6567   */\n      tag_157\n        /* \"#utility.yul\":6560:6566   */\n      dup2\n        /* \"#utility.yul\":6555:6558   */\n      dup6\n        /* \"#utility.yul\":6496:6567   */\n      tag_71\n      jump\t// in\n    tag_157:\n        /* \"#utility.yul\":6489:6567   */\n      swap4\n      pop\n        /* \"#utility.yul\":6576:6641   */\n      tag_158\n        /* \"#utility.yul\":6634:6640   */\n      dup2\n        /* \"#utility.yul\":6629:6632   */\n      dup6\n        /* \"#utility.yul\":6622:6626   */\n      0x20\n        /* \"#utility.yul\":6615:6620   */\n      dup7\n        /* \"#utility.yul\":6611:6627   */\n      add\n        /* \"#utility.yul\":6576:6641   */\n      tag_58\n      jump\t// in\n    tag_158:\n        /* \"#utility.yul\":6666:6695   */\n      tag_159\n        /* \"#utility.yul\":6688:6694   */\n      dup2\n        /* \"#utility.yul\":6666:6695   */\n      tag_59\n      jump\t// in\n    tag_159:\n        /* \"#utility.yul\":6661:6664   */\n      dup5\n        /* \"#utility.yul\":6657:6696   */\n      add\n        /* \"#utility.yul\":6650:6696   */\n      swap2\n      pop\n        /* \"#utility.yul\":6417:6702   */\n      pop\n        /* \"#utility.yul\":6325:6702   */\n      swap3\n      swap2\n      pop\n      pop\n      jump\t// out\n        /* \"#utility.yul\":6708:7222   */\n    tag_20:\n        /* \"#utility.yul\":6869:6873   */\n      0x00\n        /* \"#utility.yul\":6907:6909   */\n      0x40\n        /* \"#utility.yul\":6896:6905   */\n      dup3\n        /* \"#utility.yul\":6892:6910   */\n      add\n        /* \"#utility.yul\":6884:6910   */\n      swap1\n      pop\n        /* \"#utility.yul\":6956:6965   */\n      dup2\n        /* \"#utility.yul\":6950:6954   */\n      dup2\n        /* \"#utility.yul\":6946:6966   */\n      sub\n        /* \"#utility.yul\":6942:6943   */\n      0x00\n        /* \"#utility.yul\":6931:6940   */\n      dup4\n        /* \"#utility.yul\":6927:6944   */\n      add\n        /* \"#utility.yul\":6920:6967   */\n      mstore\n        /* \"#utility.yul\":6984:7062   */\n      tag_161\n        /* \"#utility.yul\":7057:7061   */\n      dup2\n        /* \"#utility.yul\":7048:7054   */\n      dup6\n        /* \"#utility.yul\":6984:7062   */\n      tag_72\n      jump\t// in\n    tag_161:\n        /* \"#utility.yul\":6976:7062   */\n      swap1\n      pop\n        /* \"#utility.yul\":7109:7118   */\n      dup2\n        /* \"#utility.yul\":7103:7107   */\n      dup2\n        /* \"#utility.yul\":7099:7119   */\n      sub\n        /* \"#utility.yul\":7094:7096   */\n      0x20\n        /* \"#utility.yul\":7083:7092   */\n      dup4\n        /* \"#utility.yul\":7079:7097   */\n      add\n        /* \"#utility.yul\":7072:7120   */\n      mstore\n        /* \"#utility.yul\":7137:7215   */\n      tag_162\n        /* \"#utility.yul\":7210:7214   */\n      dup2\n        /* \"#utility.yul\":7201:7207   */\n      dup5\n        /* \"#utility.yul\":7137:7215   */\n      tag_72\n      jump\t// in\n    tag_162:\n        /* \"#utility.yul\":7129:7215   */\n      swap1\n      pop\n        /* \"#utility.yul\":6708:7222   */\n      swap4\n      swap3\n      pop\n      pop\n      pop\n      jump\t// out\n        /* \"#utility.yul\":7228:7408   */\n    tag_73:\n        /* \"#utility.yul\":7276:7353   */\n      0x4e487b7100000000000000000000000000000000000000000000000000000000\n        /* \"#utility.yul\":7273:7274   */\n      0x00\n        /* \"#utility.yul\":7266:7354   */\n      mstore\n        /* \"#utility.yul\":7373:7377   */\n      0x22\n        /* \"#utility.yul\":7370:7371   */\n      0x04\n        /* \"#utility.yul\":7363:7378   */\n      mstore\n        /* \"#utility.yul\":7397:7401   */\n      0x24\n        /* \"#utility.yul\":7394:7395   */\n      0x00\n        /* \"#utility.yul\":7387:7402   */\n      revert\n        /* \"#utility.yul\":7414:7734   */\n    tag_25:\n        /* \"#utility.yul\":7458:7464   */\n      0x00\n        /* \"#utility.yul\":7495:7496   */\n      0x02\n        /* \"#utility.yul\":7489:7493   */\n      dup3\n        /* \"#utility.yul\":7485:7497   */\n      div\n        /* \"#utility.yul\":7475:7497   */\n      swap1\n      pop\n        /* \"#utility.yul\":7542:7543   */\n      0x01\n        /* \"#utility.yul\":7536:7540   */\n      dup3\n        /* \"#utility.yul\":7532:7544   */\n      and\n        /* \"#utility.yul\":7563:7581   */\n      dup1\n        /* \"#utility.yul\":7553:7634   */\n      tag_165\n      jumpi\n        /* \"#utility.yul\":7619:7623   */\n      0x7f\n        /* \"#utility.yul\":7611:7617   */\n      dup3\n        /* \"#utility.yul\":7607:7624   */\n      and\n        /* \"#utility.yul\":7597:7624   */\n      swap2\n      pop\n        /* \"#utility.yul\":7553:7634   */\n    tag_165:\n        /* \"#utility.yul\":7681:7683   */\n      0x20\n        /* \"#utility.yul\":7673:7679   */\n      dup3\n        /* \"#utility.yul\":7670:7684   */\n      lt\n        /* \"#utility.yul\":7650:7668   */\n      dup2\n        /* \"#utility.yul\":7647:7685   */\n      sub\n        /* \"#utility.yul\":7644:7728   */\n      tag_166\n      jumpi\n        /* \"#utility.yul\":7700:7718   */\n      tag_167\n      tag_73\n      jump\t// in\n    tag_167:\n        /* \"#utility.yul\":7644:7728   */\n    tag_166:\n        /* \"#utility.yul\":7465:7734   */\n      pop\n        /* \"#utility.yul\":7414:7734   */\n      swap2\n      swap1\n      pop\n      jump\t// out\n        /* \"#utility.yul\":7740:7881   */\n    tag_74:\n        /* \"#utility.yul\":7789:7793   */\n      0x00\n        /* \"#utility.yul\":7812:7815   */\n      dup2\n        /* \"#utility.yul\":7804:7815   */\n      swap1\n      pop\n        /* \"#utility.yul\":7835:7838   */\n      dup2\n        /* \"#utility.yul\":7832:7833   */\n      0x00\n        /* \"#utility.yul\":7825:7839   */\n      mstore\n        /* \"#utility.yul\":7869:7873   */\n      0x20\n        /* \"#utility.yul\":7866:7867   */\n      0x00\n        /* \"#utility.yul\":7856:7874   */\n      keccak256\n        /* \"#utility.yul\":7848:7874   */\n      swap1\n      pop\n        /* \"#utility.yul\":7740:7881   */\n      swap2\n      swap1\n      pop\n      jump\t// out\n        /* \"#utility.yul\":7887:7980   */\n    tag_75:\n        /* \"#utility.yul\":7924:7930   */\n      0x00\n        /* \"#utility.yul\":7971:7973   */\n      0x20\n        /* \"#utility.yul\":7966:7968   */\n      0x1f\n        /* \"#utility.yul\":7959:7964   */\n      dup4\n        /* \"#utility.yul\":7955:7969   */\n      add\n        /* \"#utility.yul\":7951:7974   */\n      div\n        /* \"#utility.yul\":7941:7974   */\n      swap1\n      pop\n        /* \"#utility.yul\":7887:7980   */\n      swap2\n      swap1\n      pop\n      jump\t// out\n        /* \"#utility.yul\":7986:8093   */\n    tag_76:\n        /* \"#utility.yul\":8030:8038   */\n      0x00\n        /* \"#utility.yul\":8080:8085   */\n      dup3\n        /* \"#utility.yul\":8074:8078   */\n      dup3\n        /* \"#utility.yul\":8070:8086   */\n      shl\n        /* \"#utility.yul\":8049:8086   */\n      swap1\n      pop\n        /* \"#utility.yul\":7986:8093   */\n      swap3\n      swap2\n      pop\n      pop\n      jump\t// out\n        /* \"#utility.yul\":8099:8492   */\n    tag_77:\n        /* \"#utility.yul\":8168:8174   */\n      0x00\n        /* \"#utility.yul\":8218:8219   */\n      0x08\n        /* \"#utility.yul\":8206:8216   */\n      dup4\n        /* \"#utility.yul\":8202:8220   */\n      mul\n        /* \"#utility.yul\":8241:8338   */\n      tag_172\n        /* \"#utility.yul\":8271:8337   */\n      0xffffffffffffffffffffffffffffffffffffffffffffffffffffffffffffffff\n        /* \"#utility.yul\":8260:8269   */\n      dup3\n        /* \"#utility.yul\":8241:8338   */\n      tag_76\n      jump\t// in\n    tag_172:\n        /* \"#utility.yul\":8359:8398   */\n      tag_173\n        /* \"#utility.yul\":8389:8397   */\n      dup7\n        /* \"#utility.yul\":8378:8387   */\n      dup4\n        /* \"#utility.yul\":8359:8398   */\n      tag_76\n      jump\t// in\n    tag_173:\n        /* \"#utility.yul\":8347:8398   */\n      swap6\n      pop\n        /* \"#utility.yul\":8431:8435   */\n      dup1\n        /* \"#utility.yul\":8427:8436   */\n      not\n        /* \"#utility.yul\":8420:8425   */\n      dup5\n        /* \"#utility.yul\":8416:8437   */\n      and\n        /* \"#utility.yul\":8407:8437   */\n      swap4\n      pop\n        /* \"#utility.yul\":8480:8484   */\n      dup1\n        /* \"#utility.yul\":8470:8478   */\n      dup7\n        /* \"#utility.yul\":8466:8485   */\n      and\n        /* \"#utility.yul\":8459:8464   */\n      dup5\n        /* \"#utility.yul\":8456:8486   */\n      or\n        /* \"#utility.yul\":8446:8486   */\n      swap3\n      pop\n        /* \"#utility.yul\":8175:8492   */\n      pop\n      pop\n        /* \"#utility.yul\":8099:8492   */\n      swap4\n      swap3\n      pop\n      pop\n      pop\n      jump\t// out\n        /* \"#utility.yul\":8498:8575   */\n    tag_78:\n        /* \"#utility.yul\":8535:8542   */\n      0x00\n        /* \"#utility.yul\":8564:8569   */\n      dup2\n        /* \"#utility.yul\":8553:8569   */\n      swap1\n      pop\n        /* \"#utility.yul\":8498:8575   */\n      swap2\n      swap1\n      pop\n      jump\t// out\n        /* \"#utility.yul\":8581:8641   */\n    tag_79:\n        /* \"#utility.yul\":8609:8612   */\n      0x00\n        /* \"#utility.yul\":8630:8635   */\n      dup2\n        /* \"#utility.yul\":8623:8635   */\n      swap1\n      pop\n        /* \"#utility.yul\":8581:8641   */\n      swap2\n      swap1\n      pop\n      jump\t// out\n        /* \"#utility.yul\":8647:8789   */\n    tag_80:\n        /* \"#utility.yul\":8697:8706   */\n      0x00\n        /* \"#utility.yul\":8730:8783   */\n      tag_177\n        /* \"#utility.yul\":8748:8782   */\n      tag_178\n        /* \"#utility.yul\":8757:8781   */\n      tag_179\n        /* \"#utility.yul\":8775:8780   */\n      dup5\n        /* \"#utility.yul\":8757:8781   */\n      tag_78\n      jump\t// in\n    tag_179:\n        /* \"#utility.yul\":8748:8782   */\n      tag_79\n      jump\t// in\n    tag_178:\n        /* \"#utility.yul\":8730:8783   */\n      tag_78\n      jump\t// in\n    tag_177:\n        /* \"#utility.yul\":8717:8783   */\n      swap1\n      pop\n        /* \"#utility.yul\":8647:8789   */\n      swap2\n      swap1\n      pop\n      jump\t// out\n        /* \"#utility.yul\":8795:8870   */\n    tag_81:\n        /* \"#utility.yul\":8838:8841   */\n      0x00\n        /* \"#utility.yul\":8859:8864   */\n      dup2\n        /* \"#utility.yul\":8852:8864   */\n      swap1\n      pop\n        /* \"#utility.yul\":8795:8870   */\n      swap2\n      swap1\n      pop\n      jump\t// out\n        /* \"#utility.yul\":8876:9145   */\n    tag_82:\n        /* \"#utility.yul\":8986:9025   */\n      tag_182\n        /* \"#utility.yul\":9017:9024   */\n      dup4\n        /* \"#utility.yul\":8986:9025   */\n      tag_80\n      jump\t// in\n    tag_182:\n        /* \"#utility.yul\":9047:9138   */\n      tag_183\n        /* \"#utility.yul\":9096:9137   */\n      tag_184\n        /* \"#utility.yul\":9120:9136   */\n      dup3\n        /* \"#utility.yul\":9096:9137   */\n      tag_81\n      jump\t// in\n    tag_184:\n        /* \"#utility.yul\":9088:9094   */\n      dup5\n        /* \"#utility.yul\":9081:9085   */\n      dup5\n        /* \"#utility.yul\":9075:9086   */\n      sload\n        /* \"#utility.yul\":9047:9138   */\n      tag_77\n      jump\t// in\n    tag_183:\n        /* \"#utility.yul\":9041:9045   */\n      dup3\n        /* \"#utility.yul\":9034:9139   */\n      sstore\n        /* \"#utility.yul\":8952:9145   */\n      pop\n        /* \"#utility.yul\":8876:9145   */\n      pop\n      pop\n      pop\n      jump\t// out\n        /* \"#utility.yul\":9151:9224   */\n    tag_83:\n        /* \"#utility.yul\":9196:9199   */\n      0x00\n        /* \"#utility.yul\":9151:9224   */\n      swap1\n      jump\t// out\n        /* \"#utility.yul\":9230:9419   */\n    tag_84:\n        /* \"#utility.yul\":9307:9339   */\n      tag_187\n      tag_83\n      jump\t// in\n    tag_187:\n        /* \"#utility.yul\":9348:9413   */\n      tag_188\n        /* \"#utility.yul\":9406:9412   */\n      dup2\n        /* \"#utility.yul\":9398:9404   */\n      dup5\n        /* \"#utility.yul\":9392:9396   */\n      dup5\n        /* \"#utility.yul\":9348:9413   */\n      tag_82\n      jump\t// in\n    tag_188:\n        /* \"#utility.yul\":9283:9419   */\n      pop\n        /* \"#utility.yul\":9230:9419   */\n      pop\n      pop\n      jump\t// out\n        /* \"#utility.yul\":9425:9611   */\n    tag_85:\n        /* \"#utility.yul\":9485:9605   */\n    tag_190:\n        /* \"#utility.yul\":9502:9505   */\n      dup2\n        /* \"#utility.yul\":9495:9500   */\n      dup2\n        /* \"#utility.yul\":9492:9506   */\n      lt\n        /* \"#utility.yul\":9485:9605   */\n      iszero\n      tag_192\n      jumpi\n        /* \"#utility.yul\":9556:9595   */\n      tag_193\n        /* \"#utility.yul\":9593:9594   */\n      0x00\n        /* \"#utility.yul\":9586:9591   */\n      dup3\n        /* \"#utility.yul\":9556:9595   */\n      tag_84\n      jump\t// in\n    tag_193:\n        /* \"#utility.yul\":9529:9530   */\n      0x01\n        /* \"#utility.yul\":9522:9527   */\n      dup2\n        /* \"#utility.yul\":9518:9531   */\n      add\n        /* \"#utility.yul\":9509:9531   */\n      swap1\n      pop\n        /* \"#utility.yul\":9485:9605   */\n      jump(tag_190)\n    tag_192:\n        /* \"#utility.yul\":9425:9611   */\n      pop\n      pop\n      jump\t// out\n        /* \"#utility.yul\":9617:10160   */\n    tag_86:\n        /* \"#utility.yul\":9718:9720   */\n      0x1f\n        /* \"#utility.yul\":9713:9716   */\n      dup3\n        /* \"#utility.yul\":9710:9721   */\n      gt\n        /* \"#utility.yul\":9707:10153   */\n      iszero\n      tag_195\n      jumpi\n        /* \"#utility.yul\":9752:9790   */\n      tag_196\n        /* \"#utility.yul\":9784:9789   */\n      dup2\n        /* \"#utility.yul\":9752:9790   */\n      tag_74\n      jump\t// in\n    tag_196:\n        /* \"#utility.yul\":9836:9865   */\n      tag_197\n        /* \"#utility.yul\":9854:9864   */\n      dup5\n        /* \"#utility.yul\":9836:9865   */\n      tag_75\n      jump\t// in\n    tag_197:\n        /* \"#utility.yul\":9826:9834   */\n      dup2\n        /* \"#utility.yul\":9822:9866   */\n      add\n        /* \"#utility.yul\":10019:10021   */\n      0x20\n        /* \"#utility.yul\":10007:10017   */\n      dup6\n        /* \"#utility.yul\":10004:10022   */\n      lt\n        /* \"#utility.yul\":10001:10050   */\n      iszero\n      tag_198\n      jumpi\n        /* \"#utility.yul\":10040:10048   */\n      dup2\n        /* \"#utility.yul\":10025:10048   */\n      swap1\n      pop\n        /* \"#utility.yul\":10001:10050   */\n    tag_198:\n        /* \"#utility.yul\":10063:10143   */\n      tag_199\n        /* \"#utility.yul\":10119:10141   */\n      tag_200\n        /* \"#utility.yul\":10137:10140   */\n      dup6\n        /* \"#utility.yul\":10119:10141   */\n      tag_75\n      jump\t// in\n    tag_200:\n        /* \"#utility.yul\":10109:10117   */\n      dup4\n        /* \"#utility.yul\":10105:10142   */\n      add\n        /* \"#utility.yul\":10092:10103   */\n      dup3\n        /* \"#utility.yul\":10063:10143   */\n      tag_85\n      jump\t// in\n    tag_199:\n        /* \"#utility.yul\":9722:10153   */\n      pop\n      pop\n        /* \"#utility.yul\":9707:10153   */\n    tag_195:\n        /* \"#utility.yul\":9617:10160   */\n      pop\n      pop\n      pop\n      jump\t// out\n        /* \"#utility.yul\":10166:10283   */\n    tag_87:\n        /* \"#utility.yul\":10220:10228   */\n      0x00\n        /* \"#utility.yul\":10270:10275   */\n      dup3\n        /* \"#utility.yul\":10264:10268   */\n      dup3\n        /* \"#utility.yul\":10260:10276   */\n      shr\n        /* \"#utility.yul\":10239:10276   */\n      swap1\n      pop\n        /* \"#utility.yul\":10166:10283   */\n      swap3\n      swap2\n      pop\n      pop\n      jump\t// out\n        /* \"#utility.yul\":10289:10458   */\n    tag_88:\n        /* \"#utility.yul\":10333:10339   */\n      0x00\n        /* \"#utility.yul\":10366:10417   */\n      tag_203\n        /* \"#utility.yul\":10414:10415   */\n      0x00\n        /* \"#utility.yul\":10410:10416   */\n      not\n        /* \"#utility.yul\":10402:10407   */\n      dup5\n        /* \"#utility.yul\":10399:10400   */\n      0x08\n        /* \"#utility.yul\":10395:10408   */\n      mul\n        /* \"#utility.yul\":10366:10417   */\n      tag_87\n      jump\t// in\n    tag_203:\n        /* \"#utility.yul\":10362:10418   */\n      not\n        /* \"#utility.yul\":10447:10451   */\n      dup1\n        /* \"#utility.yul\":10441:10445   */\n      dup4\n        /* \"#utility.yul\":10437:10452   */\n      and\n        /* \"#utility.yul\":10427:10452   */\n      swap2\n      pop\n        /* \"#utility.yul\":10340:10458   */\n      pop\n        /* \"#utility.yul\":10289:10458   */\n      swap3\n      swap2\n      pop\n      pop\n      jump\t// out\n        /* \"#utility.yul\":10463:10758   */\n    tag_89:\n        /* \"#utility.yul\":10539:10543   */\n      0x00\n        /* \"#utility.yul\":10685:10714   */\n      tag_205\n        /* \"#utility.yul\":10710:10713   */\n      dup4\n        /* \"#utility.yul\":10704:10708   */\n      dup4\n        /* \"#utility.yul\":10685:10714   */\n      tag_88\n      jump\t// in\n    tag_205:\n        /* \"#utility.yul\":10677:10714   */\n      swap2\n      pop\n        /* \"#utility.yul\":10747:10750   */\n      dup3\n        /* \"#utility.yul\":10744:10745   */\n      0x02\n        /* \"#utility.yul\":10740:10751   */\n      mul\n        /* \"#utility.yul\":10734:10738   */\n      dup3\n        /* \"#utility.yul\":10731:10752   */\n      or\n        /* \"#utility.yul\":10723:10752   */\n      swap1\n      pop\n        /* \"#utility.yul\":10463:10758   */\n      swap3\n      swap2\n      pop\n      pop\n      jump\t// out\n        /* \"#utility.yul\":10763:12158   */\n    tag_37:\n        /* \"#utility.yul\":10880:10917   */\n      tag_207\n        /* \"#utility.yul\":10913:10916   */\n      dup3\n        /* \"#utility.yul\":10880:10917   */\n      tag_56\n      jump\t// in\n    tag_207:\n        /* \"#utility.yul\":10982:11000   */\n      0xffffffffffffffff\n        /* \"#utility.yul\":10974:10980   */\n      dup2\n        /* \"#utility.yul\":10971:11001   */\n      gt\n        /* \"#utility.yul\":10968:11024   */\n      iszero\n      tag_208\n      jumpi\n        /* \"#utility.yul\":11004:11022   */\n      tag_209\n      tag_64\n      jump\t// in\n    tag_209:\n        /* \"#utility.yul\":10968:11024   */\n    tag_208:\n        /* \"#utility.yul\":11048:11086   */\n      tag_210\n        /* \"#utility.yul\":11080:11084   */\n      dup3\n        /* \"#utility.yul\":11074:11085   */\n      sload\n        /* \"#utility.yul\":11048:11086   */\n      tag_25\n      jump\t// in\n    tag_210:\n        /* \"#utility.yul\":11133:11200   */\n      tag_211\n        /* \"#utility.yul\":11193:11199   */\n      dup3\n        /* \"#utility.yul\":11185:11191   */\n      dup3\n        /* \"#utility.yul\":11179:11183   */\n      dup6\n        /* \"#utility.yul\":11133:11200   */\n      tag_86\n      jump\t// in\n    tag_211:\n        /* \"#utility.yul\":11227:11228   */\n      0x00\n        /* \"#utility.yul\":11251:11255   */\n      0x20\n        /* \"#utility.yul\":11238:11255   */\n      swap1\n      pop\n        /* \"#utility.yul\":11283:11285   */\n      0x1f\n        /* \"#utility.yul\":11275:11281   */\n      dup4\n        /* \"#utility.yul\":11272:11286   */\n      gt\n        /* \"#utility.yul\":11300:11301   */\n      0x01\n        /* \"#utility.yul\":11295:11913   */\n      dup2\n      eq\n      tag_213\n      jumpi\n        /* \"#utility.yul\":11957:11958   */\n      0x00\n        /* \"#utility.yul\":11974:11980   */\n      dup5\n        /* \"#utility.yul\":11971:12048   */\n      iszero\n      tag_214\n      jumpi\n        /* \"#utility.yul\":12023:12032   */\n      dup3\n        /* \"#utility.yul\":12018:12021   */\n      dup8\n        /* \"#utility.yul\":12014:12033   */\n      add\n        /* \"#utility.yul\":12008:12034   */\n      mload\n        /* \"#utility.yul\":11999:12034   */\n      swap1\n      pop\n        /* \"#utility.yul\":11971:12048   */\n    tag_214:\n        /* \"#utility.yul\":12074:12141   */\n      tag_215\n        /* \"#utility.yul\":12134:12140   */\n      dup6\n        /* \"#utility.yul\":12127:12132   */\n      dup3\n        /* \"#utility.yul\":12074:12141   */\n      tag_89\n      jump\t// in\n    tag_215:\n        /* \"#utility.yul\":12068:12072   */\n      dup7\n        /* \"#utility.yul\":12061:12142   */\n      sstore\n        /* \"#utility.yul\":11930:12152   */\n      pop\n        /* \"#utility.yul\":11265:12152   */\n      jump(tag_212)\n        /* \"#utility.yul\":11295:11913   */\n    tag_213:\n        /* \"#utility.yul\":11347:11351   */\n      0x1f\n        /* \"#utility.yul\":11343:11352   */\n      not\n        /* \"#utility.yul\":11335:11341   */\n      dup5\n        /* \"#utility.yul\":11331:11353   */\n      and\n        /* \"#utility.yul\":11381:11418   */\n      tag_216\n        /* \"#utility.yul\":11413:11417   */\n      dup7\n        /* \"#utility.yul\":11381:11418   */\n      tag_74\n      jump\t// in\n    tag_216:\n        /* \"#utility.yul\":11440:11441   */\n      0x00\n        /* \"#utility.yul\":11454:11662   */\n    tag_217:\n        /* \"#utility.yul\":11468:11475   */\n      dup3\n        /* \"#utility.yul\":11465:11466   */\n      dup2\n        /* \"#utility.yul\":11462:11476   */\n      lt\n        /* \"#utility.yul\":11454:11662   */\n      iszero\n      tag_219\n      jumpi\n        /* \"#utility.yul\":11547:11556   */\n      dup5\n        /* \"#utility.yul\":11542:11545   */\n      dup10\n        /* \"#utility.yul\":11538:11557   */\n      add\n        /* \"#utility.yul\":11532:11558   */\n      mload\n        /* \"#utility.yul\":11524:11530   */\n      dup3\n        /* \"#utility.yul\":11517:11559   */\n      sstore\n        /* \"#utility.yul\":11598:11599   */\n      0x01\n        /* \"#utility.yul\":11590:11596   */\n      dup3\n        /* \"#utility.yul\":11586:11600   */\n      add\n        /* \"#utility.yul\":11576:11600   */\n      swap2\n      pop\n        /* \"#utility.yul\":11645:11647   */\n      0x20\n        /* \"#utility.yul\":11634:11643   */\n      dup6\n        /* \"#utility.yul\":11630:11648   */\n      add\n        /* \"#utility.yul\":11617:11648   */\n      swap5\n      pop\n        /* \"#utility.yul\":11491:11495   */\n      0x20\n        /* \"#utility.yul\":11488:11489   */\n      dup2\n        /* \"#utility.yul\":11484:11496   */\n      add\n        /* \"#utility.yul\":11479:11496   */\n      swap1\n      pop\n        /* \"#utility.yul\":11454:11662   */\n      jump(tag_217)\n    tag_219:\n        /* \"#utility.yul\":11690:11696   */\n      dup7\n        /* \"#utility.yul\":11681:11688   */\n      dup4\n        /* \"#utility.yul\":11678:11697   */\n      lt\n        /* \"#utility.yul\":11675:11854   */\n      iszero\n      tag_220\n      jumpi\n        /* \"#utility.yul\":11748:11757   */\n      dup5\n        /* \"#utility.yul\":11743:11746   */\n      dup10\n        /* \"#utility.yul\":11739:11758   */\n      add\n        /* \"#utility.yul\":11733:11759   */\n      mload\n        /* \"#utility.yul\":11791:11839   */\n      tag_221\n        /* \"#utility.yul\":11833:11837   */\n      0x1f\n        /* \"#utility.yul\":11825:11831   */\n      dup10\n        /* \"#utility.yul\":11821:11838   */\n      and\n        /* \"#utility.yul\":11810:11819   */\n      dup3\n        /* \"#utility.yul\":11791:11839   */\n      tag_88\n      jump\t// in\n    tag_221:\n        /* \"#utility.yul\":11783:11789   */\n      dup4\n        /* \"#utility.yul\":11776:11840   */\n      sstore\n        /* \"#utility.yul\":11698:11854   */\n      pop\n        /* \"#utility.yul\":11675:11854   */\n    tag_220:\n        /* \"#utility.yul\":11900:11901   */\n      0x01\n        /* \"#utility.yul\":11896:11897   */\n      0x02\n        /* \"#utility.yul\":11888:11894   */\n      dup9\n        /* \"#utility.yul\":11884:11898   */\n      mul\n        /* \"#utility.yul\":11880:11902   */\n      add\n        /* \"#utility.yul\":11874:11878   */\n      dup9\n        /* \"#utility.yul\":11867:11903   */\n      sstore\n        /* \"#utility.yul\":11302:11913   */\n      pop\n      pop\n      pop\n        /* \"#utility.yul\":11265:12152   */\n    tag_212:\n      pop\n        /* \"#utility.yul\":10855:12158   */\n      pop\n      pop\n      pop\n        /* \"#utility.yul\":10763:12158   */\n      pop\n      pop\n      jump\t// out\n\n    auxdata: 0xa264697066735822122007ca64ea6746594129f68ecf6061c02145e90115b9f1e985a31ebff89209710d64736f6c634300081a0033\n}\n",
				"bytecode": {
					"linkReferences": {},
					"object": "6080604052348015600e575f80fd5b50610a8a8061001c5f395ff3fe608060405234801561000f575f80fd5b506004361061003f575f3560e01c80630f53a47014610043578063719e37ae14610073578063bbe156271461008f575b5f80fd5b61005d60048036038101906100589190610467565b6100c0565b60405161006a9190610543565b60405180910390f35b61008d6004803603810190610088919061068f565b610235565b005b6100a960048036038101906100a49190610467565b6102b7565b6040516100b792919061074d565b60405180910390f35b6100c86103e2565b5f808373ffffffffffffffffffffffffffffffffffffffff1673ffffffffffffffffffffffffffffffffffffffff1681526020019081526020015f206040518060400160405290815f8201805461011e906107af565b80601f016020809104026020016040519081016040528092919081815260200182805461014a906107af565b80156101955780601f1061016c57610100808354040283529160200191610195565b820191905f5260205f20905b81548152906001019060200180831161017857829003601f168201915b505050505081526020016001820180546101ae906107af565b80601f01602080910402602001604051908101604052809291908181526020018280546101da906107af565b80156102255780601f106101fc57610100808354040283529160200191610225565b820191905f5260205f20905b81548152906001019060200180831161020857829003601f168201915b5050505050815250509050919050565b6040518060400160405280838152602001828152505f803373ffffffffffffffffffffffffffffffffffffffff1673ffffffffffffffffffffffffffffffffffffffff1681526020019081526020015f205f820151815f0190816102999190610985565b5060208201518160010190816102af9190610985565b509050505050565b5f602052805f5260405f205f91509050805f0180546102d5906107af565b80601f0160208091040260200160405190810160405280929190818152602001828054610301906107af565b801561034c5780601f106103235761010080835404028352916020019161034c565b820191905f5260205f20905b81548152906001019060200180831161032f57829003601f168201915b505050505090806001018054610361906107af565b80601f016020809104026020016040519081016040528092919081815260200182805461038d906107af565b80156103d85780601f106103af576101008083540402835291602001916103d8565b820191905f5260205f20905b8154815290600101906020018083116103bb57829003601f168201915b5050505050905082565b604051806040016040528060608152602001606081525090565b5f604051905090565b5f80fd5b5f80fd5b5f73ffffffffffffffffffffffffffffffffffffffff82169050919050565b5f6104368261040d565b9050919050565b6104468161042c565b8114610450575f80fd5b50565b5f813590506104618161043d565b92915050565b5f6020828403121561047c5761047b610405565b5b5f61048984828501610453565b91505092915050565b5f81519050919050565b5f82825260208201905092915050565b8281835e5f83830152505050565b5f601f19601f8301169050919050565b5f6104d482610492565b6104de818561049c565b93506104ee8185602086016104ac565b6104f7816104ba565b840191505092915050565b5f604083015f8301518482035f86015261051c82826104ca565b9150506020830151848203602086015261053682826104ca565b9150508091505092915050565b5f6020820190508181035f83015261055b8184610502565b905092915050565b5f80fd5b5f80fd5b7f4e487b71000000000000000000000000000000000000000000000000000000005f52604160045260245ffd5b6105a1826104ba565b810181811067ffffffffffffffff821117156105c0576105bf61056b565b5b80604052505050565b5f6105d26103fc565b90506105de8282610598565b919050565b5f67ffffffffffffffff8211156105fd576105fc61056b565b5b610606826104ba565b9050602081019050919050565b828183375f83830152505050565b5f61063361062e846105e3565b6105c9565b90508281526020810184848401111561064f5761064e610567565b5b61065a848285610613565b509392505050565b5f82601f83011261067657610675610563565b5b8135610686848260208601610621565b91505092915050565b5f80604083850312156106a5576106a4610405565b5b5f83013567ffffffffffffffff8111156106c2576106c1610409565b5b6106ce85828601610662565b925050602083013567ffffffffffffffff8111156106ef576106ee610409565b5b6106fb85828601610662565b9150509250929050565b5f82825260208201905092915050565b5f61071f82610492565b6107298185610705565b93506107398185602086016104ac565b610742816104ba565b840191505092915050565b5f6040820190508181035f8301526107658185610715565b905081810360208301526107798184610715565b90509392505050565b7f4e487b71000000000000000000000000000000000000000000000000000000005f52602260045260245ffd5b5f60028204905060018216806107c657607f821691505b6020821081036107d9576107d8610782565b5b50919050565b5f819050815f5260205f209050919050565b5f6020601f8301049050919050565b5f82821b905092915050565b5f6008830261083b7fffffffffffffffffffffffffffffffffffffffffffffffffffffffffffffffff82610800565b6108458683610800565b95508019841693508086168417925050509392505050565b5f819050919050565b5f819050919050565b5f61088961088461087f8461085d565b610866565b61085d565b9050919050565b5f819050919050565b6108a28361086f565b6108b66108ae82610890565b84845461080c565b825550505050565b5f90565b6108ca6108be565b6108d5818484610899565b505050565b5b818110156108f8576108ed5f826108c2565b6001810190506108db565b5050565b601f82111561093d5761090e816107df565b610917846107f1565b81016020851015610926578190505b61093a610932856107f1565b8301826108da565b50505b505050565b5f82821c905092915050565b5f61095d5f1984600802610942565b1980831691505092915050565b5f610975838361094e565b9150826002028217905092915050565b61098e82610492565b67ffffffffffffffff8111156109a7576109a661056b565b5b6109b182546107af565b6109bc8282856108fc565b5f60209050601f8311600181146109ed575f84156109db578287015190505b6109e5858261096a565b865550610a4c565b601f1984166109fb866107df565b5f5b82811015610a22578489015182556001820191506020850194506020810190506109fd565b86831015610a3f5784890151610a3b601f89168261094e565b8355505b6001600288020188555050505b50505050505056fea264697066735822122007ca64ea6746594129f68ecf6061c02145e90115b9f1e985a31ebff89209710d64736f6c634300081a0033",
					"opcodes": "PUSH1 0x80 PUSH1 0x40 MSTORE CALLVALUE DUP1 ISZERO PUSH1 0xE JUMPI PUSH0 DUP1 REVERT JUMPDEST POP PUSH2 0xA8A DUP1 PUSH2 0x1C PUSH0 CODECOPY PUSH0 RETURN INVALID PUSH1 0x80 PUSH1 0x40 MSTORE CALLVALUE DUP1 ISZERO PUSH2 0xF JUMPI PUSH0 DUP1 REVERT JUMPDEST POP PUSH1 0x4 CALLDATASIZE LT PUSH2 0x3F JUMPI PUSH0 CALLDATALOAD PUSH1 0xE0 SHR DUP1 PUSH4 0xF53A470 EQ PUSH2 0x43 JUMPI DUP1 PUSH4 0x719E37AE EQ PUSH2 0x73 JUMPI DUP1 PUSH4 0xBBE15627 EQ PUSH2 0x8F JUMPI JUMPDEST PUSH0 DUP1 REVERT JUMPDEST PUSH2 0x5D PUSH1 0x4 DUP1 CALLDATASIZE SUB DUP2 ADD SWAP1 PUSH2 0x58 SWAP2 SWAP1 PUSH2 0x467 JUMP JUMPDEST PUSH2 0xC0 JUMP JUMPDEST PUSH1 0x40 MLOAD PUSH2 0x6A SWAP2 SWAP1 PUSH2 0x543 JUMP JUMPDEST PUSH1 0x40 MLOAD DUP1 SWAP2 SUB SWAP1 RETURN JUMPDEST PUSH2 0x8D PUSH1 0x4 DUP1 CALLDATASIZE SUB DUP2 ADD SWAP1 PUSH2 0x88 SWAP2 SWAP1 PUSH2 0x68F JUMP JUMPDEST PUSH2 0x235 JUMP JUMPDEST STOP JUMPDEST PUSH2 0xA9 PUSH1 0x4 DUP1 CALLDATASIZE SUB DUP2 ADD SWAP1 PUSH2 0xA4 SWAP2 SWAP1 PUSH2 0x467 JUMP JUMPDEST PUSH2 0x2B7 JUMP JUMPDEST PUSH1 0x40 MLOAD PUSH2 0xB7 SWAP3 SWAP2 SWAP1 PUSH2 0x74D JUMP JUMPDEST PUSH1 0x40 MLOAD DUP1 SWAP2 SUB SWAP1 RETURN JUMPDEST PUSH2 0xC8 PUSH2 0x3E2 JUMP JUMPDEST PUSH0 DUP1 DUP4 PUSH20 0xFFFFFFFFFFFFFFFFFFFFFFFFFFFFFFFFFFFFFFFF AND PUSH20 0xFFFFFFFFFFFFFFFFFFFFFFFFFFFFFFFFFFFFFFFF AND DUP2 MSTORE PUSH1 0x20 ADD SWAP1 DUP2 MSTORE PUSH1 0x20 ADD PUSH0 KECCAK256 PUSH1 0x40 MLOAD DUP1 PUSH1 0x40 ADD PUSH1 0x40 MSTORE SWAP1 DUP2 PUSH0 DUP3 ADD DUP1 SLOAD PUSH2 0x11E SWAP1 PUSH2 0x7AF JUMP JUMPDEST DUP1 PUSH1 0x1F ADD PUSH1 0x20 DUP1 SWAP2 DIV MUL PUSH1 0x20 ADD PUSH1 0x40 MLOAD SWAP1 DUP2 ADD PUSH1 0x40 MSTORE DUP1 SWAP3 SWAP2 SWAP1 DUP2 DUP2 MSTORE PUSH1 0x20 ADD DUP3 DUP1 SLOAD PUSH2 0x14A SWAP1 PUSH2 0x7AF JUMP JUMPDEST DUP1 ISZERO PUSH2 0x195 JUMPI DUP1 PUSH1 0x1F LT PUSH2 0x16C JUMPI PUSH2 0x100 DUP1 DUP4 SLOAD DIV MUL DUP4 MSTORE SWAP2 PUSH1 0x20 ADD SWAP2 PUSH2 0x195 JUMP JUMPDEST DUP3 ADD SWAP2 SWAP1 PUSH0 MSTORE PUSH1 0x20 PUSH0 KECCAK256 SWAP1 JUMPDEST DUP2 SLOAD DUP2 MSTORE SWAP1 PUSH1 0x1 ADD SWAP1 PUSH1 0x20 ADD DUP1 DUP4 GT PUSH2 0x178 JUMPI DUP3 SWAP1 SUB PUSH1 0x1F AND DUP3 ADD SWAP2 JUMPDEST POP POP POP POP POP DUP2 MSTORE PUSH1 0x20 ADD PUSH1 0x1 DUP3 ADD DUP1 SLOAD PUSH2 0x1AE SWAP1 PUSH2 0x7AF JUMP JUMPDEST DUP1 PUSH1 0x1F ADD PUSH1 0x20 DUP1 SWAP2 DIV MUL PUSH1 0x20 ADD PUSH1 0x40 MLOAD SWAP1 DUP2 ADD PUSH1 0x40 MSTORE DUP1 SWAP3 SWAP2 SWAP1 DUP2 DUP2 MSTORE PUSH1 0x20 ADD DUP3 DUP1 SLOAD PUSH2 0x1DA SWAP1 PUSH2 0x7AF JUMP JUMPDEST DUP1 ISZERO PUSH2 0x225 JUMPI DUP1 PUSH1 0x1F LT PUSH2 0x1FC JUMPI PUSH2 0x100 DUP1 DUP4 SLOAD DIV MUL DUP4 MSTORE SWAP2 PUSH1 0x20 ADD SWAP2 PUSH2 0x225 JUMP JUMPDEST DUP3 ADD SWAP2 SWAP1 PUSH0 MSTORE PUSH1 0x20 PUSH0 KECCAK256 SWAP1 JUMPDEST DUP2 SLOAD DUP2 MSTORE SWAP1 PUSH1 0x1 ADD SWAP1 PUSH1 0x20 ADD DUP1 DUP4 GT PUSH2 0x208 JUMPI DUP3 SWAP1 SUB PUSH1 0x1F AND DUP3 ADD SWAP2 JUMPDEST POP POP POP POP POP DUP2 MSTORE POP POP SWAP1 POP SWAP2 SWAP1 POP JUMP JUMPDEST PUSH1 0x40 MLOAD DUP1 PUSH1 0x40 ADD PUSH1 0x40 MSTORE DUP1 DUP4 DUP2 MSTORE PUSH1 0x20 ADD DUP3 DUP2 MSTORE POP PUSH0 DUP1 CALLER PUSH20 0xFFFFFFFFFFFFFFFFFFFFFFFFFFFFFFFFFFFFFFFF AND PUSH20 0xFFFFFFFFFFFFFFFFFFFFFFFFFFFFFFFFFFFFFFFF AND DUP2 MSTORE PUSH1 0x20 ADD SWAP1 DUP2 MSTORE PUSH1 0x20 ADD PUSH0 KECCAK256 PUSH0 DUP3 ADD MLOAD DUP2 PUSH0 ADD SWAP1 DUP2 PUSH2 0x299 SWAP2 SWAP1 PUSH2 0x985 JUMP JUMPDEST POP PUSH1 0x20 DUP3 ADD MLOAD DUP2 PUSH1 0x1 ADD SWAP1 DUP2 PUSH2 0x2AF SWAP2 SWAP1 PUSH2 0x985 JUMP JUMPDEST POP SWAP1 POP POP POP POP JUMP JUMPDEST PUSH0 PUSH1 0x20 MSTORE DUP1 PUSH0 MSTORE PUSH1 0x40 PUSH0 KECCAK256 PUSH0 SWAP2 POP SWAP1 POP DUP1 PUSH0 ADD DUP1 SLOAD PUSH2 0x2D5 SWAP1 PUSH2 0x7AF JUMP JUMPDEST DUP1 PUSH1 0x1F ADD PUSH1 0x20 DUP1 SWAP2 DIV MUL PUSH1 0x20 ADD PUSH1 0x40 MLOAD SWAP1 DUP2 ADD PUSH1 0x40 MSTORE DUP1 SWAP3 SWAP2 SWAP1 DUP2 DUP2 MSTORE PUSH1 0x20 ADD DUP3 DUP1 SLOAD PUSH2 0x301 SWAP1 PUSH2 0x7AF JUMP JUMPDEST DUP1 ISZERO PUSH2 0x34C JUMPI DUP1 PUSH1 0x1F LT PUSH2 0x323 JUMPI PUSH2 0x100 DUP1 DUP4 SLOAD DIV MUL DUP4 MSTORE SWAP2 PUSH1 0x20 ADD SWAP2 PUSH2 0x34C JUMP JUMPDEST DUP3 ADD SWAP2 SWAP1 PUSH0 MSTORE PUSH1 0x20 PUSH0 KECCAK256 SWAP1 JUMPDEST DUP2 SLOAD DUP2 MSTORE SWAP1 PUSH1 0x1 ADD SWAP1 PUSH1 0x20 ADD DUP1 DUP4 GT PUSH2 0x32F JUMPI DUP3 SWAP1 SUB PUSH1 0x1F AND DUP3 ADD SWAP2 JUMPDEST POP POP POP POP POP SWAP1 DUP1 PUSH1 0x1 ADD DUP1 SLOAD PUSH2 0x361 SWAP1 PUSH2 0x7AF JUMP JUMPDEST DUP1 PUSH1 0x1F ADD PUSH1 0x20 DUP1 SWAP2 DIV MUL PUSH1 0x20 ADD PUSH1 0x40 MLOAD SWAP1 DUP2 ADD PUSH1 0x40 MSTORE DUP1 SWAP3 SWAP2 SWAP1 DUP2 DUP2 MSTORE PUSH1 0x20 ADD DUP3 DUP1 SLOAD PUSH2 0x38D SWAP1 PUSH2 0x7AF JUMP JUMPDEST DUP1 ISZERO PUSH2 0x3D8 JUMPI DUP1 PUSH1 0x1F LT PUSH2 0x3AF JUMPI PUSH2 0x100 DUP1 DUP4 SLOAD DIV MUL DUP4 MSTORE SWAP2 PUSH1 0x20 ADD SWAP2 PUSH2 0x3D8 JUMP JUMPDEST DUP3 ADD SWAP2 SWAP1 PUSH0 MSTORE PUSH1 0x20 PUSH0 KECCAK256 SWAP1 JUMPDEST DUP2 SLOAD DUP2 MSTORE SWAP1 PUSH1 0x1 ADD SWAP1 PUSH1 0x20 ADD DUP1 DUP4 GT PUSH2 0x3BB JUMPI DUP3 SWAP1 SUB PUSH1 0x1F AND DUP3 ADD SWAP2 JUMPDEST POP POP POP POP POP SWAP1 POP DUP3 JUMP JUMPDEST PUSH1 0x40 MLOAD DUP1 PUSH1 0x40 ADD PUSH1 0x40 MSTORE DUP1 PUSH1 0x60 DUP2 MSTORE PUSH1 0x20 ADD PUSH1 0x60 DUP2 MSTORE POP SWAP1 JUMP JUMPDEST PUSH0 PUSH1 0x40 MLOAD SWAP1 POP SWAP1 JUMP JUMPDEST PUSH0 DUP1 REVERT JUMPDEST PUSH0 DUP1 REVERT JUMPDEST PUSH0 PUSH20 0xFFFFFFFFFFFFFFFFFFFFFFFFFFFFFFFFFFFFFFFF DUP3 AND SWAP1 POP SWAP2 SWAP1 POP JUMP JUMPDEST PUSH0 PUSH2 0x436 DUP3 PUSH2 0x40D JUMP JUMPDEST SWAP1 POP SWAP2 SWAP1 POP JUMP JUMPDEST PUSH2 0x446 DUP2 PUSH2 0x42C JUMP JUMPDEST DUP2 EQ PUSH2 0x450 JUMPI PUSH0 DUP1 REVERT JUMPDEST POP JUMP JUMPDEST PUSH0 DUP2 CALLDATALOAD SWAP1 POP PUSH2 0x461 DUP2 PUSH2 0x43D JUMP JUMPDEST SWAP3 SWAP2 POP POP JUMP JUMPDEST PUSH0 PUSH1 0x20 DUP3 DUP5 SUB SLT ISZERO PUSH2 0x47C JUMPI PUSH2 0x47B PUSH2 0x405 JUMP JUMPDEST JUMPDEST PUSH0 PUSH2 0x489 DUP5 DUP3 DUP6 ADD PUSH2 0x453 JUMP JUMPDEST SWAP2 POP POP SWAP3 SWAP2 POP POP JUMP JUMPDEST PUSH0 DUP2 MLOAD SWAP1 POP SWAP2 SWAP1 POP JUMP JUMPDEST PUSH0 DUP3 DUP3 MSTORE PUSH1 0x20 DUP3 ADD SWAP1 POP SWAP3 SWAP2 POP POP JUMP JUMPDEST DUP3 DUP2 DUP4 MCOPY PUSH0 DUP4 DUP4 ADD MSTORE POP POP POP JUMP JUMPDEST PUSH0 PUSH1 0x1F NOT PUSH1 0x1F DUP4 ADD AND SWAP1 POP SWAP2 SWAP1 POP JUMP JUMPDEST PUSH0 PUSH2 0x4D4 DUP3 PUSH2 0x492 JUMP JUMPDEST PUSH2 0x4DE DUP2 DUP6 PUSH2 0x49C JUMP JUMPDEST SWAP4 POP PUSH2 0x4EE DUP2 DUP6 PUSH1 0x20 DUP7 ADD PUSH2 0x4AC JUMP JUMPDEST PUSH2 0x4F7 DUP2 PUSH2 0x4BA JUMP JUMPDEST DUP5 ADD SWAP2 POP POP SWAP3 SWAP2 POP POP JUMP JUMPDEST PUSH0 PUSH1 0x40 DUP4 ADD PUSH0 DUP4 ADD MLOAD DUP5 DUP3 SUB PUSH0 DUP7 ADD MSTORE PUSH2 0x51C DUP3 DUP3 PUSH2 0x4CA JUMP JUMPDEST SWAP2 POP POP PUSH1 0x20 DUP4 ADD MLOAD DUP5 DUP3 SUB PUSH1 0x20 DUP7 ADD MSTORE PUSH2 0x536 DUP3 DUP3 PUSH2 0x4CA JUMP JUMPDEST SWAP2 POP POP DUP1 SWAP2 POP POP SWAP3 SWAP2 POP POP JUMP JUMPDEST PUSH0 PUSH1 0x20 DUP3 ADD SWAP1 POP DUP2 DUP2 SUB PUSH0 DUP4 ADD MSTORE PUSH2 0x55B DUP2 DUP5 PUSH2 0x502 JUMP JUMPDEST SWAP1 POP SWAP3 SWAP2 POP POP JUMP JUMPDEST PUSH0 DUP1 REVERT JUMPDEST PUSH0 DUP1 REVERT JUMPDEST PUSH32 0x4E487B7100000000000000000000000000000000000000000000000000000000 PUSH0 MSTORE PUSH1 0x41 PUSH1 0x4 MSTORE PUSH1 0x24 PUSH0 REVERT JUMPDEST PUSH2 0x5A1 DUP3 PUSH2 0x4BA JUMP JUMPDEST DUP2 ADD DUP2 DUP2 LT PUSH8 0xFFFFFFFFFFFFFFFF DUP3 GT OR ISZERO PUSH2 0x5C0 JUMPI PUSH2 0x5BF PUSH2 0x56B JUMP JUMPDEST JUMPDEST DUP1 PUSH1 0x40 MSTORE POP POP POP JUMP JUMPDEST PUSH0 PUSH2 0x5D2 PUSH2 0x3FC JUMP JUMPDEST SWAP1 POP PUSH2 0x5DE DUP3 DUP3 PUSH2 0x598 JUMP JUMPDEST SWAP2 SWAP1 POP JUMP JUMPDEST PUSH0 PUSH8 0xFFFFFFFFFFFFFFFF DUP3 GT ISZERO PUSH2 0x5FD JUMPI PUSH2 0x5FC PUSH2 0x56B JUMP JUMPDEST JUMPDEST PUSH2 0x606 DUP3 PUSH2 0x4BA JUMP JUMPDEST SWAP1 POP PUSH1 0x20 DUP2 ADD SWAP1 POP SWAP2 SWAP1 POP JUMP JUMPDEST DUP3 DUP2 DUP4 CALLDATACOPY PUSH0 DUP4 DUP4 ADD MSTORE POP POP POP JUMP JUMPDEST PUSH0 PUSH2 0x633 PUSH2 0x62E DUP5 PUSH2 0x5E3 JUMP JUMPDEST PUSH2 0x5C9 JUMP JUMPDEST SWAP1 POP DUP3 DUP2 MSTORE PUSH1 0x20 DUP2 ADD DUP5 DUP5 DUP5 ADD GT ISZERO PUSH2 0x64F JUMPI PUSH2 0x64E PUSH2 0x567 JUMP JUMPDEST JUMPDEST PUSH2 0x65A DUP5 DUP3 DUP6 PUSH2 0x613 JUMP JUMPDEST POP SWAP4 SWAP3 POP POP POP JUMP JUMPDEST PUSH0 DUP3 PUSH1 0x1F DUP4 ADD SLT PUSH2 0x676 JUMPI PUSH2 0x675 PUSH2 0x563 JUMP JUMPDEST JUMPDEST DUP2 CALLDATALOAD PUSH2 0x686 DUP5 DUP3 PUSH1 0x20 DUP7 ADD PUSH2 0x621 JUMP JUMPDEST SWAP2 POP POP SWAP3 SWAP2 POP POP JUMP JUMPDEST PUSH0 DUP1 PUSH1 0x40 DUP4 DUP6 SUB SLT ISZERO PUSH2 0x6A5 JUMPI PUSH2 0x6A4 PUSH2 0x405 JUMP JUMPDEST JUMPDEST PUSH0 DUP4 ADD CALLDATALOAD PUSH8 0xFFFFFFFFFFFFFFFF DUP2 GT ISZERO PUSH2 0x6C2 JUMPI PUSH2 0x6C1 PUSH2 0x409 JUMP JUMPDEST JUMPDEST PUSH2 0x6CE DUP6 DUP3 DUP7 ADD PUSH2 0x662 JUMP JUMPDEST SWAP3 POP POP PUSH1 0x20 DUP4 ADD CALLDATALOAD PUSH8 0xFFFFFFFFFFFFFFFF DUP2 GT ISZERO PUSH2 0x6EF JUMPI PUSH2 0x6EE PUSH2 0x409 JUMP JUMPDEST JUMPDEST PUSH2 0x6FB DUP6 DUP3 DUP7 ADD PUSH2 0x662 JUMP JUMPDEST SWAP2 POP POP SWAP3 POP SWAP3 SWAP1 POP JUMP JUMPDEST PUSH0 DUP3 DUP3 MSTORE PUSH1 0x20 DUP3 ADD SWAP1 POP SWAP3 SWAP2 POP POP JUMP JUMPDEST PUSH0 PUSH2 0x71F DUP3 PUSH2 0x492 JUMP JUMPDEST PUSH2 0x729 DUP2 DUP6 PUSH2 0x705 JUMP JUMPDEST SWAP4 POP PUSH2 0x739 DUP2 DUP6 PUSH1 0x20 DUP7 ADD PUSH2 0x4AC JUMP JUMPDEST PUSH2 0x742 DUP2 PUSH2 0x4BA JUMP JUMPDEST DUP5 ADD SWAP2 POP POP SWAP3 SWAP2 POP POP JUMP JUMPDEST PUSH0 PUSH1 0x40 DUP3 ADD SWAP1 POP DUP2 DUP2 SUB PUSH0 DUP4 ADD MSTORE PUSH2 0x765 DUP2 DUP6 PUSH2 0x715 JUMP JUMPDEST SWAP1 POP DUP2 DUP2 SUB PUSH1 0x20 DUP4 ADD MSTORE PUSH2 0x779 DUP2 DUP5 PUSH2 0x715 JUMP JUMPDEST SWAP1 POP SWAP4 SWAP3 POP POP POP JUMP JUMPDEST PUSH32 0x4E487B7100000000000000000000000000000000000000000000000000000000 PUSH0 MSTORE PUSH1 0x22 PUSH1 0x4 MSTORE PUSH1 0x24 PUSH0 REVERT JUMPDEST PUSH0 PUSH1 0x2 DUP3 DIV SWAP1 POP PUSH1 0x1 DUP3 AND DUP1 PUSH2 0x7C6 JUMPI PUSH1 0x7F DUP3 AND SWAP2 POP JUMPDEST PUSH1 0x20 DUP3 LT DUP2 SUB PUSH2 0x7D9 JUMPI PUSH2 0x7D8 PUSH2 0x782 JUMP JUMPDEST JUMPDEST POP SWAP2 SWAP1 POP JUMP JUMPDEST PUSH0 DUP2 SWAP1 POP DUP2 PUSH0 MSTORE PUSH1 0x20 PUSH0 KECCAK256 SWAP1 POP SWAP2 SWAP1 POP JUMP JUMPDEST PUSH0 PUSH1 0x20 PUSH1 0x1F DUP4 ADD DIV SWAP1 POP SWAP2 SWAP1 POP JUMP JUMPDEST PUSH0 DUP3 DUP3 SHL SWAP1 POP SWAP3 SWAP2 POP POP JUMP JUMPDEST PUSH0 PUSH1 0x8 DUP4 MUL PUSH2 0x83B PUSH32 0xFFFFFFFFFFFFFFFFFFFFFFFFFFFFFFFFFFFFFFFFFFFFFFFFFFFFFFFFFFFFFFFF DUP3 PUSH2 0x800 JUMP JUMPDEST PUSH2 0x845 DUP7 DUP4 PUSH2 0x800 JUMP JUMPDEST SWAP6 POP DUP1 NOT DUP5 AND SWAP4 POP DUP1 DUP7 AND DUP5 OR SWAP3 POP POP POP SWAP4 SWAP3 POP POP POP JUMP JUMPDEST PUSH0 DUP2 SWAP1 POP SWAP2 SWAP1 POP JUMP JUMPDEST PUSH0 DUP2 SWAP1 POP SWAP2 SWAP1 POP JUMP JUMPDEST PUSH0 PUSH2 0x889 PUSH2 0x884 PUSH2 0x87F DUP5 PUSH2 0x85D JUMP JUMPDEST PUSH2 0x866 JUMP JUMPDEST PUSH2 0x85D JUMP JUMPDEST SWAP1 POP SWAP2 SWAP1 POP JUMP JUMPDEST PUSH0 DUP2 SWAP1 POP SWAP2 SWAP1 POP JUMP JUMPDEST PUSH2 0x8A2 DUP4 PUSH2 0x86F JUMP JUMPDEST PUSH2 0x8B6 PUSH2 0x8AE DUP3 PUSH2 0x890 JUMP JUMPDEST DUP5 DUP5 SLOAD PUSH2 0x80C JUMP JUMPDEST DUP3 SSTORE POP POP POP POP JUMP JUMPDEST PUSH0 SWAP1 JUMP JUMPDEST PUSH2 0x8CA PUSH2 0x8BE JUMP JUMPDEST PUSH2 0x8D5 DUP2 DUP5 DUP5 PUSH2 0x899 JUMP JUMPDEST POP POP POP JUMP JUMPDEST JUMPDEST DUP2 DUP2 LT ISZERO PUSH2 0x8F8 JUMPI PUSH2 0x8ED PUSH0 DUP3 PUSH2 0x8C2 JUMP JUMPDEST PUSH1 0x1 DUP2 ADD SWAP1 POP PUSH2 0x8DB JUMP JUMPDEST POP POP JUMP JUMPDEST PUSH1 0x1F DUP3 GT ISZERO PUSH2 0x93D JUMPI PUSH2 0x90E DUP2 PUSH2 0x7DF JUMP JUMPDEST PUSH2 0x917 DUP5 PUSH2 0x7F1 JUMP JUMPDEST DUP2 ADD PUSH1 0x20 DUP6 LT ISZERO PUSH2 0x926 JUMPI DUP2 SWAP1 POP JUMPDEST PUSH2 0x93A PUSH2 0x932 DUP6 PUSH2 0x7F1 JUMP JUMPDEST DUP4 ADD DUP3 PUSH2 0x8DA JUMP JUMPDEST POP POP JUMPDEST POP POP POP JUMP JUMPDEST PUSH0 DUP3 DUP3 SHR SWAP1 POP SWAP3 SWAP2 POP POP JUMP JUMPDEST PUSH0 PUSH2 0x95D PUSH0 NOT DUP5 PUSH1 0x8 MUL PUSH2 0x942 JUMP JUMPDEST NOT DUP1 DUP4 AND SWAP2 POP POP SWAP3 SWAP2 POP POP JUMP JUMPDEST PUSH0 PUSH2 0x975 DUP4 DUP4 PUSH2 0x94E JUMP JUMPDEST SWAP2 POP DUP3 PUSH1 0x2 MUL DUP3 OR SWAP1 POP SWAP3 SWAP2 POP POP JUMP JUMPDEST PUSH2 0x98E DUP3 PUSH2 0x492 JUMP JUMPDEST PUSH8 0xFFFFFFFFFFFFFFFF DUP2 GT ISZERO PUSH2 0x9A7 JUMPI PUSH2 0x9A6 PUSH2 0x56B JUMP JUMPDEST JUMPDEST PUSH2 0x9B1 DUP3 SLOAD PUSH2 0x7AF JUMP JUMPDEST PUSH2 0x9BC DUP3 DUP3 DUP6 PUSH2 0x8FC JUMP JUMPDEST PUSH0 PUSH1 0x20 SWAP1 POP PUSH1 0x1F DUP4 GT PUSH1 0x1 DUP2 EQ PUSH2 0x9ED JUMPI PUSH0 DUP5 ISZERO PUSH2 0x9DB JUMPI DUP3 DUP8 ADD MLOAD SWAP1 POP JUMPDEST PUSH2 0x9E5 DUP6 DUP3 PUSH2 0x96A JUMP JUMPDEST DUP7 SSTORE POP PUSH2 0xA4C JUMP JUMPDEST PUSH1 0x1F NOT DUP5 AND PUSH2 0x9FB DUP7 PUSH2 0x7DF JUMP JUMPDEST PUSH0 JUMPDEST DUP3 DUP2 LT ISZERO PUSH2 0xA22 JUMPI DUP5 DUP10 ADD MLOAD DUP3 SSTORE PUSH1 0x1 DUP3 ADD SWAP2 POP PUSH1 0x20 DUP6 ADD SWAP5 POP PUSH1 0x20 DUP2 ADD SWAP1 POP PUSH2 0x9FD JUMP JUMPDEST DUP7 DUP4 LT ISZERO PUSH2 0xA3F JUMPI DUP5 DUP10 ADD MLOAD PUSH2 0xA3B PUSH1 0x1F DUP10 AND DUP3 PUSH2 0x94E JUMP JUMPDEST DUP4 SSTORE POP JUMPDEST PUSH1 0x1 PUSH1 0x2 DUP9 MUL ADD DUP9 SSTORE POP POP POP JUMPDEST POP POP POP POP POP POP JUMP INVALID LOG2 PUSH5 0x6970667358 0x22 SLT KECCAK256 SMOD 0xCA PUSH5 0xEA67465941 0x29 0xF6 DUP15 0xCF PUSH1 0x61 0xC0 0x21 GASLIMIT 0xE9 ADD ISZERO 0xB9 CALL 0xE9 DUP6 LOG3 0x1E 0xBF 0xF8 SWAP3 MULMOD PUSH18 0xD64736F6C634300081A0033000000000000 "
				},
				"gasEstimates": {
					"creation": {
						"codeDepositCost": "539600",
						"executionCost": "573",
						"totalCost": "540173"
					},
					"external": {
						"getProfile(address)": "infinite",
						"profiles(address)": "infinite",
						"setProfile(string,string)": "infinite"
					}
				},
				"methodIdentifiers": {
					"getProfile(address)": "0f53a470",
					"profiles(address)": "bbe15627",
					"setProfile(string,string)": "719e37ae"
				}
			},
			"storageLayout": {
				"storage": [
					{
						"astId": 11,
						"contract": "contracts/Twitter-Interaction-User.sol:Profile",
						"label": "profiles",
						"offset": 0,
						"slot": "0",
						"type": "t_mapping(t_address,t_struct(UserProfile)6_storage)"
					}
				],
				"types": {
					"t_address": {
						"encoding": "inplace",
						"label": "address",
						"numberOfBytes": "20"
					},
					"t_mapping(t_address,t_struct(UserProfile)6_storage)": {
						"encoding": "mapping",
						"key": "t_address",
						"label": "mapping(address => struct Profile.UserProfile)",
						"numberOfBytes": "32",
						"value": "t_struct(UserProfile)6_storage"
					},
					"t_string_storage": {
						"encoding": "bytes",
						"label": "string",
						"numberOfBytes": "32"
					},
					"t_struct(UserProfile)6_storage": {
						"encoding": "inplace",
						"label": "struct Profile.UserProfile",
						"members": [
							{
								"astId": 3,
								"contract": "contracts/Twitter-Interaction-User.sol:Profile",
								"label": "username",
								"offset": 0,
								"slot": "0",
								"type": "t_string_storage"
							},
							{
								"astId": 5,
								"contract": "contracts/Twitter-Interaction-User.sol:Profile",
								"label": "bio",
								"offset": 0,
								"slot": "1",
								"type": "t_string_storage"
							}
						],
						"numberOfBytes": "64"
					}
				}
			},
			"userdoc": {
				"kind": "user",
				"methods": {},
				"version": 1
			}
		}
	}
}