{
	"contracts/Twitter-Inheritance-Solution.sol": {
		"Twitter": {
			"abi": [
				{
					"inputs": [],
					"stateMutability": "nonpayable",
					"type": "constructor"
				},
				{
					"inputs": [
						{
							"internalType": "address",
							"name": "owner",
							"type": "address"
						}
					],
					"name": "OwnableInvalidOwner",
					"type": "error"
				},
				{
					"inputs": [
						{
							"internalType": "address",
							"name": "account",
							"type": "address"
						}
					],
					"name": "OwnableUnauthorizedAccount",
					"type": "error"
				},
				{
					"anonymous": false,
					"inputs": [
						{
							"indexed": true,
							"internalType": "address",
							"name": "previousOwner",
							"type": "address"
						},
						{
							"indexed": true,
							"internalType": "address",
							"name": "newOwner",
							"type": "address"
						}
					],
					"name": "OwnershipTransferred",
					"type": "event"
				},
				{
					"anonymous": false,
					"inputs": [
						{
							"indexed": false,
							"internalType": "uint256",
							"name": "id",
							"type": "uint256"
						},
						{
							"indexed": false,
							"internalType": "address",
							"name": "author",
							"type": "address"
						},
						{
							"indexed": false,
							"internalType": "string",
							"name": "content",
							"type": "string"
						},
						{
							"indexed": false,
							"internalType": "uint256",
							"name": "timestamps",
							"type": "uint256"
						}
					],
					"name": "TweetCreated",
					"type": "event"
				},
				{
					"anonymous": false,
					"inputs": [
						{
							"indexed": false,
							"internalType": "address",
							"name": "liker",
							"type": "address"
						},
						{
							"indexed": false,
							"internalType": "address",
							"name": "tweetAuthor",
							"type": "address"
						},
						{
							"indexed": false,
							"internalType": "uint256",
							"name": "id",
							"type": "uint256"
						},
						{
							"indexed": false,
							"internalType": "uint256",
							"name": "newLikeCount",
							"type": "uint256"
						}
					],
					"name": "TweetLiked",
					"type": "event"
				},
				{
					"anonymous": false,
					"inputs": [
						{
							"indexed": false,
							"internalType": "address",
							"name": "unliker",
							"type": "address"
						},
						{
							"indexed": false,
							"internalType": "address",
							"name": "tweetAuthor",
							"type": "address"
						},
						{
							"indexed": false,
							"internalType": "uint256",
							"name": "id",
							"type": "uint256"
						},
						{
							"indexed": false,
							"internalType": "uint256",
							"name": "newLikeCount",
							"type": "uint256"
						}
					],
					"name": "TweetUnliked",
					"type": "event"
				},
				{
					"inputs": [],
					"name": "MAX_TWEET_LENGTH",
					"outputs": [
						{
							"internalType": "uint16",
							"name": "",
							"type": "uint16"
						}
					],
					"stateMutability": "view",
					"type": "function"
				},
				{
					"inputs": [
						{
							"internalType": "uint16",
							"name": "newTweetLength",
							"type": "uint16"
						}
					],
					"name": "changeTweetLength",
					"outputs": [],
					"stateMutability": "nonpayable",
					"type": "function"
				},
				{
					"inputs": [
						{
							"internalType": "string",
							"name": "_tweet",
							"type": "string"
						}
					],
					"name": "createTweet",
					"outputs": [],
					"stateMutability": "nonpayable",
					"type": "function"
				},
				{
					"inputs": [
						{
							"internalType": "address",
							"name": "_owner",
							"type": "address"
						}
					],
					"name": "getAllTweets",
					"outputs": [
						{
							"components": [
								{
									"internalType": "uint256",
									"name": "id",
									"type": "uint256"
								},
								{
									"internalType": "address",
									"name": "author",
									"type": "address"
								},
								{
									"internalType": "string",
									"name": "content",
									"type": "string"
								},
								{
									"internalType": "uint256",
									"name": "timestamps",
									"type": "uint256"
								},
								{
									"internalType": "uint256",
									"name": "likes",
									"type": "uint256"
								}
							],
							"internalType": "struct Twitter.Tweet[]",
							"name": "",
							"type": "tuple[]"
						}
					],
					"stateMutability": "view",
					"type": "function"
				},
				{
					"inputs": [
						{
							"internalType": "uint256",
							"name": "_i",
							"type": "uint256"
						}
					],
					"name": "getTweet",
					"outputs": [
						{
							"components": [
								{
									"internalType": "uint256",
									"name": "id",
									"type": "uint256"
								},
								{
									"internalType": "address",
									"name": "author",
									"type": "address"
								},
								{
									"internalType": "string",
									"name": "content",
									"type": "string"
								},
								{
									"internalType": "uint256",
									"name": "timestamps",
									"type": "uint256"
								},
								{
									"internalType": "uint256",
									"name": "likes",
									"type": "uint256"
								}
							],
							"internalType": "struct Twitter.Tweet",
							"name": "",
							"type": "tuple"
						}
					],
					"stateMutability": "view",
					"type": "function"
				},
				{
					"inputs": [
						{
							"internalType": "address",
							"name": "author",
							"type": "address"
						},
						{
							"internalType": "uint256",
							"name": "id",
							"type": "uint256"
						}
					],
					"name": "likeTweet",
					"outputs": [],
					"stateMutability": "nonpayable",
					"type": "function"
				},
				{
					"inputs": [],
					"name": "owner",
					"outputs": [
						{
							"internalType": "address",
							"name": "",
							"type": "address"
						}
					],
					"stateMutability": "view",
					"type": "function"
				},
				{
					"inputs": [],
					"name": "renounceOwnership",
					"outputs": [],
					"stateMutability": "nonpayable",
					"type": "function"
				},
				{
					"inputs": [
						{
							"internalType": "address",
							"name": "newOwner",
							"type": "address"
						}
					],
					"name": "transferOwnership",
					"outputs": [],
					"stateMutability": "nonpayable",
					"type": "function"
				},
				{
					"inputs": [
						{
							"internalType": "address",
							"name": "",
							"type": "address"
						},
						{
							"internalType": "uint256",
							"name": "",
							"type": "uint256"
						}
					],
					"name": "tweets",
					"outputs": [
						{
							"internalType": "uint256",
							"name": "id",
							"type": "uint256"
						},
						{
							"internalType": "address",
							"name": "author",
							"type": "address"
						},
						{
							"internalType": "string",
							"name": "content",
							"type": "string"
						},
						{
							"internalType": "uint256",
							"name": "timestamps",
							"type": "uint256"
						},
						{
							"internalType": "uint256",
							"name": "likes",
							"type": "uint256"
						}
					],
					"stateMutability": "view",
					"type": "function"
				},
				{
					"inputs": [
						{
							"internalType": "address",
							"name": "author",
							"type": "address"
						},
						{
							"internalType": "uint256",
							"name": "id",
							"type": "uint256"
						}
					],
					"name": "unlikeTweet",
					"outputs": [],
					"stateMutability": "nonpayable",
					"type": "function"
				}
			],
			"devdoc": {
				"errors": {
					"OwnableInvalidOwner(address)": [
						{
							"details": "The owner is not a valid owner account. (eg. `address(0)`)"
						}
					],
					"OwnableUnauthorizedAccount(address)": [
						{
							"details": "The caller account is not authorized to perform an operation."
						}
					]
				},
				"kind": "dev",
				"methods": {
					"owner()": {
						"details": "Returns the address of the current owner."
					},
					"renounceOwnership()": {
						"details": "Leaves the contract without owner. It will not be possible to call `onlyOwner` functions. Can only be called by the current owner. NOTE: Renouncing ownership will leave the contract without an owner, thereby disabling any functionality that is only available to the owner."
					},
					"transferOwnership(address)": {
						"details": "Transfers ownership of the contract to a new account (`newOwner`). Can only be called by the current owner."
					}
				},
				"version": 1
			},
			"evm": {
				"assembly": "    /* \"contracts/Twitter-Inheritance-Solution.sol\":119:2481  contract Twitter is Ownable {... */\n  mstore(0x40, 0x80)\n    /* \"contracts/Twitter-Inheritance-Solution.sol\":189:192  280 */\n  0x0118\n    /* \"contracts/Twitter-Inheritance-Solution.sol\":156:192  uint16 public MAX_TWEET_LENGTH = 280 */\n  0x00\n  exp(0x0100, 0x14)\n  dup2\n  sload\n  dup2\n  0xffff\n  mul\n  not\n  and\n  swap1\n  dup4\n  0xffff\n  and\n  mul\n  or\n  swap1\n  sstore\n  pop\n    /* \"contracts/Twitter-Inheritance-Solution.sol\":782:909  constructor() Ownable(msg.sender) {... */\n  callvalue\n  dup1\n  iszero\n  tag_1\n  jumpi\n  0x00\n  dup1\n  revert\ntag_1:\n  pop\n    /* \"contracts/Twitter-Inheritance-Solution.sol\":804:814  msg.sender */\n  caller\n    /* \"@openzeppelin/contracts/access/Ownable.sol\":1297:1298  0 */\n  0x00\n    /* \"@openzeppelin/contracts/access/Ownable.sol\":1273:1299  initialOwner == address(0) */\n  0xffffffffffffffffffffffffffffffffffffffff\n  and\n    /* \"@openzeppelin/contracts/access/Ownable.sol\":1273:1285  initialOwner */\n  dup2\n    /* \"@openzeppelin/contracts/access/Ownable.sol\":1273:1299  initialOwner == address(0) */\n  0xffffffffffffffffffffffffffffffffffffffff\n  and\n  sub\n    /* \"@openzeppelin/contracts/access/Ownable.sol\":1269:1364  if (initialOwner == address(0)) {... */\n  tag_5\n  jumpi\n    /* \"@openzeppelin/contracts/access/Ownable.sol\":1350:1351  0 */\n  0x00\n    /* \"@openzeppelin/contracts/access/Ownable.sol\":1322:1353  OwnableInvalidOwner(address(0)) */\n  mload(0x40)\n  0x1e4fbdf700000000000000000000000000000000000000000000000000000000\n  dup2\n  mstore\n  0x04\n  add\n  tag_6\n  swap2\n  swap1\n  tag_7\n  jump\t// in\ntag_6:\n  mload(0x40)\n  dup1\n  swap2\n  sub\n  swap1\n  revert\n    /* \"@openzeppelin/contracts/access/Ownable.sol\":1269:1364  if (initialOwner == address(0)) {... */\ntag_5:\n    /* \"@openzeppelin/contracts/access/Ownable.sol\":1373:1405  _transferOwnership(initialOwner) */\n  tag_8\n    /* \"@openzeppelin/contracts/access/Ownable.sol\":1392:1404  initialOwner */\n  dup2\n    /* \"@openzeppelin/contracts/access/Ownable.sol\":1373:1391  _transferOwnership */\n  shl(0x20, tag_9)\n    /* \"@openzeppelin/contracts/access/Ownable.sol\":1373:1405  _transferOwnership(initialOwner) */\n  0x20\n  shr\n  jump\t// in\ntag_8:\n    /* \"@openzeppelin/contracts/access/Ownable.sol\":1225:1412  constructor(address initialOwner) {... */\n  pop\n    /* \"contracts/Twitter-Inheritance-Solution.sol\":119:2481  contract Twitter is Ownable {... */\n  jump(tag_11)\n    /* \"@openzeppelin/contracts/access/Ownable.sol\":2912:3099  function _transferOwnership(address newOwner) internal virtual {... */\ntag_9:\n    /* \"@openzeppelin/contracts/access/Ownable.sol\":2985:3001  address oldOwner */\n  0x00\n    /* \"@openzeppelin/contracts/access/Ownable.sol\":3004:3010  _owner */\n  dup1\n  0x00\n  swap1\n  sload\n  swap1\n  0x0100\n  exp\n  swap1\n  div\n  0xffffffffffffffffffffffffffffffffffffffff\n  and\n    /* \"@openzeppelin/contracts/access/Ownable.sol\":2985:3010  address oldOwner = _owner */\n  swap1\n  pop\n    /* \"@openzeppelin/contracts/access/Ownable.sol\":3029:3037  newOwner */\n  dup2\n    /* \"@openzeppelin/contracts/access/Ownable.sol\":3020:3026  _owner */\n  0x00\n  dup1\n    /* \"@openzeppelin/contracts/access/Ownable.sol\":3020:3037  _owner = newOwner */\n  0x0100\n  exp\n  dup2\n  sload\n  dup2\n  0xffffffffffffffffffffffffffffffffffffffff\n  mul\n  not\n  and\n  swap1\n  dup4\n  0xffffffffffffffffffffffffffffffffffffffff\n  and\n  mul\n  or\n  swap1\n  sstore\n  pop\n    /* \"@openzeppelin/contracts/access/Ownable.sol\":3083:3091  newOwner */\n  dup2\n    /* \"@openzeppelin/contracts/access/Ownable.sol\":3052:3092  OwnershipTransferred(oldOwner, newOwner) */\n  0xffffffffffffffffffffffffffffffffffffffff\n  and\n    /* \"@openzeppelin/contracts/access/Ownable.sol\":3073:3081  oldOwner */\n  dup2\n    /* \"@openzeppelin/contracts/access/Ownable.sol\":3052:3092  OwnershipTransferred(oldOwner, newOwner) */\n  0xffffffffffffffffffffffffffffffffffffffff\n  and\n  0x8be0079c531659141344cd1fd0a4f28419497f9722a3daafe3b4186f6b6457e0\n  mload(0x40)\n  mload(0x40)\n  dup1\n  swap2\n  sub\n  swap1\n  log3\n    /* \"@openzeppelin/contracts/access/Ownable.sol\":2975:3099  {... */\n  pop\n    /* \"@openzeppelin/contracts/access/Ownable.sol\":2912:3099  function _transferOwnership(address newOwner) internal virtual {... */\n  pop\n  jump\t// out\n    /* \"#utility.yul\":7:133   */\ntag_13:\n    /* \"#utility.yul\":44:51   */\n  0x00\n    /* \"#utility.yul\":84:126   */\n  0xffffffffffffffffffffffffffffffffffffffff\n    /* \"#utility.yul\":77:82   */\n  dup3\n    /* \"#utility.yul\":73:127   */\n  and\n    /* \"#utility.yul\":62:127   */\n  swap1\n  pop\n    /* \"#utility.yul\":7:133   */\n  swap2\n  swap1\n  pop\n  jump\t// out\n    /* \"#utility.yul\":139:235   */\ntag_14:\n    /* \"#utility.yul\":176:183   */\n  0x00\n    /* \"#utility.yul\":205:229   */\n  tag_19\n    /* \"#utility.yul\":223:228   */\n  dup3\n    /* \"#utility.yul\":205:229   */\n  tag_13\n  jump\t// in\ntag_19:\n    /* \"#utility.yul\":194:229   */\n  swap1\n  pop\n    /* \"#utility.yul\":139:235   */\n  swap2\n  swap1\n  pop\n  jump\t// out\n    /* \"#utility.yul\":241:359   */\ntag_15:\n    /* \"#utility.yul\":328:352   */\n  tag_21\n    /* \"#utility.yul\":346:351   */\n  dup2\n    /* \"#utility.yul\":328:352   */\n  tag_14\n  jump\t// in\ntag_21:\n    /* \"#utility.yul\":323:326   */\n  dup3\n    /* \"#utility.yul\":316:353   */\n  mstore\n    /* \"#utility.yul\":241:359   */\n  pop\n  pop\n  jump\t// out\n    /* \"#utility.yul\":365:587   */\ntag_7:\n    /* \"#utility.yul\":458:462   */\n  0x00\n    /* \"#utility.yul\":496:498   */\n  0x20\n    /* \"#utility.yul\":485:494   */\n  dup3\n    /* \"#utility.yul\":481:499   */\n  add\n    /* \"#utility.yul\":473:499   */\n  swap1\n  pop\n    /* \"#utility.yul\":509:580   */\n  tag_23\n    /* \"#utility.yul\":577:578   */\n  0x00\n    /* \"#utility.yul\":566:575   */\n  dup4\n    /* \"#utility.yul\":562:579   */\n  add\n    /* \"#utility.yul\":553:559   */\n  dup5\n    /* \"#utility.yul\":509:580   */\n  tag_15\n  jump\t// in\ntag_23:\n    /* \"#utility.yul\":365:587   */\n  swap3\n  swap2\n  pop\n  pop\n  jump\t// out\n    /* \"contracts/Twitter-Inheritance-Solution.sol\":119:2481  contract Twitter is Ownable {... */\ntag_11:\n  dataSize(sub_0)\n  dup1\n  dataOffset(sub_0)\n  0x00\n  codecopy\n  0x00\n  return\nstop\n\nsub_0: assembly {\n        /* \"contracts/Twitter-Inheritance-Solution.sol\":119:2481  contract Twitter is Ownable {... */\n      mstore(0x40, 0x80)\n      callvalue\n      dup1\n      iszero\n      tag_1\n      jumpi\n      0x00\n      dup1\n      revert\n    tag_1:\n      pop\n      jumpi(tag_2, lt(calldatasize, 0x04))\n      shr(0xe0, calldataload(0x00))\n      dup1\n      0x6eb10797\n      gt\n      tag_14\n      jumpi\n      dup1\n      0x6eb10797\n      eq\n      tag_8\n      jumpi\n      dup1\n      0x715018a6\n      eq\n      tag_9\n      jumpi\n      dup1\n      0x7c9cd2bc\n      eq\n      tag_10\n      jumpi\n      dup1\n      0x8da5cb5b\n      eq\n      tag_11\n      jumpi\n      dup1\n      0xc3ad5ecb\n      eq\n      tag_12\n      jumpi\n      dup1\n      0xf2fde38b\n      eq\n      tag_13\n      jumpi\n      jump(tag_2)\n    tag_14:\n      dup1\n      0x05a1b4a9\n      eq\n      tag_3\n      jumpi\n      dup1\n      0x12e7ee1c\n      eq\n      tag_4\n      jumpi\n      dup1\n      0x3d9b569f\n      eq\n      tag_5\n      jumpi\n      dup1\n      0x58bfa4ab\n      eq\n      tag_6\n      jumpi\n      dup1\n      0x63378216\n      eq\n      tag_7\n      jumpi\n    tag_2:\n      0x00\n      dup1\n      revert\n        /* \"contracts/Twitter-Inheritance-Solution.sol\":381:422  mapping(address => Tweet[]) public tweets */\n    tag_3:\n      tag_15\n      0x04\n      dup1\n      calldatasize\n      sub\n      dup2\n      add\n      swap1\n      tag_16\n      swap2\n      swap1\n      tag_17\n      jump\t// in\n    tag_16:\n      tag_18\n      jump\t// in\n    tag_15:\n      mload(0x40)\n      tag_19\n      swap6\n      swap5\n      swap4\n      swap3\n      swap2\n      swap1\n      tag_20\n      jump\t// in\n    tag_19:\n      mload(0x40)\n      dup1\n      swap2\n      sub\n      swap1\n      return\n        /* \"contracts/Twitter-Inheritance-Solution.sol\":2363:2478  function getAllTweets(address _owner) public view returns (Tweet[] memory) {... */\n    tag_4:\n      tag_21\n      0x04\n      dup1\n      calldatasize\n      sub\n      dup2\n      add\n      swap1\n      tag_22\n      swap2\n      swap1\n      tag_23\n      jump\t// in\n    tag_22:\n      tag_24\n      jump\t// in\n    tag_21:\n      mload(0x40)\n      tag_25\n      swap2\n      swap1\n      tag_26\n      jump\t// in\n    tag_25:\n      mload(0x40)\n      dup1\n      swap2\n      sub\n      swap1\n      return\n        /* \"contracts/Twitter-Inheritance-Solution.sol\":1871:2234  function unlikeTweet(address author, uint256 id) external {... */\n    tag_5:\n      tag_27\n      0x04\n      dup1\n      calldatasize\n      sub\n      dup2\n      add\n      swap1\n      tag_28\n      swap2\n      swap1\n      tag_17\n      jump\t// in\n    tag_28:\n      tag_29\n      jump\t// in\n    tag_27:\n      stop\n        /* \"contracts/Twitter-Inheritance-Solution.sol\":917:1036  function changeTweetLength(uint16 newTweetLength) public onlyOwner {... */\n    tag_6:\n      tag_30\n      0x04\n      dup1\n      calldatasize\n      sub\n      dup2\n      add\n      swap1\n      tag_31\n      swap2\n      swap1\n      tag_32\n      jump\t// in\n    tag_31:\n      tag_33\n      jump\t// in\n    tag_30:\n      stop\n        /* \"contracts/Twitter-Inheritance-Solution.sol\":1575:1863  function likeTweet(address author, uint256 id) external {... */\n    tag_7:\n      tag_34\n      0x04\n      dup1\n      calldatasize\n      sub\n      dup2\n      add\n      swap1\n      tag_35\n      swap2\n      swap1\n      tag_17\n      jump\t// in\n    tag_35:\n      tag_36\n      jump\t// in\n    tag_34:\n      stop\n        /* \"contracts/Twitter-Inheritance-Solution.sol\":156:192  uint16 public MAX_TWEET_LENGTH = 280 */\n    tag_8:\n      tag_37\n      tag_38\n      jump\t// in\n    tag_37:\n      mload(0x40)\n      tag_39\n      swap2\n      swap1\n      tag_40\n      jump\t// in\n    tag_39:\n      mload(0x40)\n      dup1\n      swap2\n      sub\n      swap1\n      return\n        /* \"@openzeppelin/contracts/access/Ownable.sol\":2293:2394  function renounceOwnership() public virtual onlyOwner {... */\n    tag_9:\n      tag_41\n      tag_42\n      jump\t// in\n    tag_41:\n      stop\n        /* \"contracts/Twitter-Inheritance-Solution.sol\":1044:1567  function createTweet(string memory _tweet) public {... */\n    tag_10:\n      tag_43\n      0x04\n      dup1\n      calldatasize\n      sub\n      dup2\n      add\n      swap1\n      tag_44\n      swap2\n      swap1\n      tag_45\n      jump\t// in\n    tag_44:\n      tag_46\n      jump\t// in\n    tag_43:\n      stop\n        /* \"@openzeppelin/contracts/access/Ownable.sol\":1638:1723  function owner() public view virtual returns (address) {... */\n    tag_11:\n      tag_47\n      tag_48\n      jump\t// in\n    tag_47:\n      mload(0x40)\n      tag_49\n      swap2\n      swap1\n      tag_50\n      jump\t// in\n    tag_49:\n      mload(0x40)\n      dup1\n      swap2\n      sub\n      swap1\n      return\n        /* \"contracts/Twitter-Inheritance-Solution.sol\":2242:2355  function getTweet(uint256 _i) public view returns (Tweet memory) {... */\n    tag_12:\n      tag_51\n      0x04\n      dup1\n      calldatasize\n      sub\n      dup2\n      add\n      swap1\n      tag_52\n      swap2\n      swap1\n      tag_53\n      jump\t// in\n    tag_52:\n      tag_54\n      jump\t// in\n    tag_51:\n      mload(0x40)\n      tag_55\n      swap2\n      swap1\n      tag_56\n      jump\t// in\n    tag_55:\n      mload(0x40)\n      dup1\n      swap2\n      sub\n      swap1\n      return\n        /* \"@openzeppelin/contracts/access/Ownable.sol\":2543:2758  function transferOwnership(address newOwner) public virtual onlyOwner {... */\n    tag_13:\n      tag_57\n      0x04\n      dup1\n      calldatasize\n      sub\n      dup2\n      add\n      swap1\n      tag_58\n      swap2\n      swap1\n      tag_23\n      jump\t// in\n    tag_58:\n      tag_59\n      jump\t// in\n    tag_57:\n      stop\n        /* \"contracts/Twitter-Inheritance-Solution.sol\":381:422  mapping(address => Tweet[]) public tweets */\n    tag_18:\n      mstore(0x20, 0x01)\n      dup2\n      0x00\n      mstore\n      keccak256(0x00, 0x40)\n      dup2\n      dup2\n      sload\n      dup2\n      lt\n      tag_60\n      jumpi\n      0x00\n      dup1\n      revert\n    tag_60:\n      swap1\n      0x00\n      mstore\n      keccak256(0x00, 0x20)\n      swap1\n      0x05\n      mul\n      add\n      0x00\n      swap2\n      pop\n      swap2\n      pop\n      pop\n      dup1\n      0x00\n      add\n      sload\n      swap1\n      dup1\n      0x01\n      add\n      0x00\n      swap1\n      sload\n      swap1\n      0x0100\n      exp\n      swap1\n      div\n      0xffffffffffffffffffffffffffffffffffffffff\n      and\n      swap1\n      dup1\n      0x02\n      add\n      dup1\n      sload\n      tag_62\n      swap1\n      tag_63\n      jump\t// in\n    tag_62:\n      dup1\n      0x1f\n      add\n      0x20\n      dup1\n      swap2\n      div\n      mul\n      0x20\n      add\n      mload(0x40)\n      swap1\n      dup2\n      add\n      0x40\n      mstore\n      dup1\n      swap3\n      swap2\n      swap1\n      dup2\n      dup2\n      mstore\n      0x20\n      add\n      dup3\n      dup1\n      sload\n      tag_64\n      swap1\n      tag_63\n      jump\t// in\n    tag_64:\n      dup1\n      iszero\n      tag_65\n      jumpi\n      dup1\n      0x1f\n      lt\n      tag_66\n      jumpi\n      0x0100\n      dup1\n      dup4\n      sload\n      div\n      mul\n      dup4\n      mstore\n      swap2\n      0x20\n      add\n      swap2\n      jump(tag_65)\n    tag_66:\n      dup3\n      add\n      swap2\n      swap1\n      0x00\n      mstore\n      keccak256(0x00, 0x20)\n      swap1\n    tag_67:\n      dup2\n      sload\n      dup2\n      mstore\n      swap1\n      0x01\n      add\n      swap1\n      0x20\n      add\n      dup1\n      dup4\n      gt\n      tag_67\n      jumpi\n      dup3\n      swap1\n      sub\n      0x1f\n      and\n      dup3\n      add\n      swap2\n    tag_65:\n      pop\n      pop\n      pop\n      pop\n      pop\n      swap1\n      dup1\n      0x03\n      add\n      sload\n      swap1\n      dup1\n      0x04\n      add\n      sload\n      swap1\n      pop\n      dup6\n      jump\t// out\n        /* \"contracts/Twitter-Inheritance-Solution.sol\":2363:2478  function getAllTweets(address _owner) public view returns (Tweet[] memory) {... */\n    tag_24:\n        /* \"contracts/Twitter-Inheritance-Solution.sol\":2422:2436  Tweet[] memory */\n      0x60\n        /* \"contracts/Twitter-Inheritance-Solution.sol\":2456:2462  tweets */\n      0x01\n        /* \"contracts/Twitter-Inheritance-Solution.sol\":2456:2470  tweets[_owner] */\n      0x00\n        /* \"contracts/Twitter-Inheritance-Solution.sol\":2463:2469  _owner */\n      dup4\n        /* \"contracts/Twitter-Inheritance-Solution.sol\":2456:2470  tweets[_owner] */\n      0xffffffffffffffffffffffffffffffffffffffff\n      and\n      0xffffffffffffffffffffffffffffffffffffffff\n      and\n      dup2\n      mstore\n      0x20\n      add\n      swap1\n      dup2\n      mstore\n      0x20\n      add\n      0x00\n      keccak256\n        /* \"contracts/Twitter-Inheritance-Solution.sol\":2449:2470  return tweets[_owner] */\n      dup1\n      sload\n      dup1\n      0x20\n      mul\n      0x20\n      add\n      mload(0x40)\n      swap1\n      dup2\n      add\n      0x40\n      mstore\n      dup1\n      swap3\n      swap2\n      swap1\n      dup2\n      dup2\n      mstore\n      0x20\n      add\n      0x00\n      swap1\n    tag_69:\n      dup3\n      dup3\n      lt\n      iszero\n      tag_70\n      jumpi\n      dup4\n      dup3\n      swap1\n      0x00\n      mstore\n      keccak256(0x00, 0x20)\n      swap1\n      0x05\n      mul\n      add\n      mload(0x40)\n      dup1\n      0xa0\n      add\n      0x40\n      mstore\n      swap1\n      dup2\n      0x00\n      dup3\n      add\n      sload\n      dup2\n      mstore\n      0x20\n      add\n      0x01\n      dup3\n      add\n      0x00\n      swap1\n      sload\n      swap1\n      0x0100\n      exp\n      swap1\n      div\n      0xffffffffffffffffffffffffffffffffffffffff\n      and\n      0xffffffffffffffffffffffffffffffffffffffff\n      and\n      0xffffffffffffffffffffffffffffffffffffffff\n      and\n      dup2\n      mstore\n      0x20\n      add\n      0x02\n      dup3\n      add\n      dup1\n      sload\n      tag_72\n      swap1\n      tag_63\n      jump\t// in\n    tag_72:\n      dup1\n      0x1f\n      add\n      0x20\n      dup1\n      swap2\n      div\n      mul\n      0x20\n      add\n      mload(0x40)\n      swap1\n      dup2\n      add\n      0x40\n      mstore\n      dup1\n      swap3\n      swap2\n      swap1\n      dup2\n      dup2\n      mstore\n      0x20\n      add\n      dup3\n      dup1\n      sload\n      tag_73\n      swap1\n      tag_63\n      jump\t// in\n    tag_73:\n      dup1\n      iszero\n      tag_74\n      jumpi\n      dup1\n      0x1f\n      lt\n      tag_75\n      jumpi\n      0x0100\n      dup1\n      dup4\n      sload\n      div\n      mul\n      dup4\n      mstore\n      swap2\n      0x20\n      add\n      swap2\n      jump(tag_74)\n    tag_75:\n      dup3\n      add\n      swap2\n      swap1\n      0x00\n      mstore\n      keccak256(0x00, 0x20)\n      swap1\n    tag_76:\n      dup2\n      sload\n      dup2\n      mstore\n      swap1\n      0x01\n      add\n      swap1\n      0x20\n      add\n      dup1\n      dup4\n      gt\n      tag_76\n      jumpi\n      dup3\n      swap1\n      sub\n      0x1f\n      and\n      dup3\n      add\n      swap2\n    tag_74:\n      pop\n      pop\n      pop\n      pop\n      pop\n      dup2\n      mstore\n      0x20\n      add\n      0x03\n      dup3\n      add\n      sload\n      dup2\n      mstore\n      0x20\n      add\n      0x04\n      dup3\n      add\n      sload\n      dup2\n      mstore\n      pop\n      pop\n      dup2\n      mstore\n      0x20\n      add\n      swap1\n      0x01\n      add\n      swap1\n      jump(tag_69)\n    tag_70:\n      pop\n      pop\n      pop\n      pop\n      swap1\n      pop\n        /* \"contracts/Twitter-Inheritance-Solution.sol\":2363:2478  function getAllTweets(address _owner) public view returns (Tweet[] memory) {... */\n      swap2\n      swap1\n      pop\n      jump\t// out\n        /* \"contracts/Twitter-Inheritance-Solution.sol\":1871:2234  function unlikeTweet(address author, uint256 id) external {... */\n    tag_29:\n        /* \"contracts/Twitter-Inheritance-Solution.sol\":1953:1959  tweets */\n      0x01\n        /* \"contracts/Twitter-Inheritance-Solution.sol\":1953:1967  tweets[author] */\n      0x00\n        /* \"contracts/Twitter-Inheritance-Solution.sol\":1960:1966  author */\n      dup4\n        /* \"contracts/Twitter-Inheritance-Solution.sol\":1953:1967  tweets[author] */\n      0xffffffffffffffffffffffffffffffffffffffff\n      and\n      0xffffffffffffffffffffffffffffffffffffffff\n      and\n      dup2\n      mstore\n      0x20\n      add\n      swap1\n      dup2\n      mstore\n      0x20\n      add\n      0x00\n      keccak256\n        /* \"contracts/Twitter-Inheritance-Solution.sol\":1953:1974  tweets[author].length */\n      dup1\n      sload\n      swap1\n      pop\n        /* \"contracts/Twitter-Inheritance-Solution.sol\":1948:1950  id */\n      dup2\n        /* \"contracts/Twitter-Inheritance-Solution.sol\":1948:1974  id < tweets[author].length */\n      lt\n        /* \"contracts/Twitter-Inheritance-Solution.sol\":1948:2005  id < tweets[author].length && tweets[author][id].id == id */\n      dup1\n      iszero\n      tag_78\n      jumpi\n      pop\n        /* \"contracts/Twitter-Inheritance-Solution.sol\":2003:2005  id */\n      dup1\n        /* \"contracts/Twitter-Inheritance-Solution.sol\":1978:1984  tweets */\n      0x01\n        /* \"contracts/Twitter-Inheritance-Solution.sol\":1978:1992  tweets[author] */\n      0x00\n        /* \"contracts/Twitter-Inheritance-Solution.sol\":1985:1991  author */\n      dup5\n        /* \"contracts/Twitter-Inheritance-Solution.sol\":1978:1992  tweets[author] */\n      0xffffffffffffffffffffffffffffffffffffffff\n      and\n      0xffffffffffffffffffffffffffffffffffffffff\n      and\n      dup2\n      mstore\n      0x20\n      add\n      swap1\n      dup2\n      mstore\n      0x20\n      add\n      0x00\n      keccak256\n        /* \"contracts/Twitter-Inheritance-Solution.sol\":1993:1995  id */\n      dup3\n        /* \"contracts/Twitter-Inheritance-Solution.sol\":1978:1996  tweets[author][id] */\n      dup2\n      sload\n      dup2\n      lt\n      tag_79\n      jumpi\n      tag_80\n      tag_81\n      jump\t// in\n    tag_80:\n    tag_79:\n      swap1\n      0x00\n      mstore\n      keccak256(0x00, 0x20)\n      swap1\n      0x05\n      mul\n      add\n        /* \"contracts/Twitter-Inheritance-Solution.sol\":1978:1999  tweets[author][id].id */\n      0x00\n      add\n      sload\n        /* \"contracts/Twitter-Inheritance-Solution.sol\":1978:2005  tweets[author][id].id == id */\n      eq\n        /* \"contracts/Twitter-Inheritance-Solution.sol\":1948:2005  id < tweets[author].length && tweets[author][id].id == id */\n    tag_78:\n        /* \"contracts/Twitter-Inheritance-Solution.sol\":1940:2030  require(id < tweets[author].length && tweets[author][id].id == id, \"Tweet Does Not Exist\") */\n      tag_83\n      jumpi\n      mload(0x40)\n      0x08c379a000000000000000000000000000000000000000000000000000000000\n      dup2\n      mstore\n      0x04\n      add\n      tag_84\n      swap1\n      tag_85\n      jump\t// in\n    tag_84:\n      mload(0x40)\n      dup1\n      swap2\n      sub\n      swap1\n      revert\n    tag_83:\n        /* \"contracts/Twitter-Inheritance-Solution.sol\":2076:2077  0 */\n      0x00\n        /* \"contracts/Twitter-Inheritance-Solution.sol\":2049:2055  tweets */\n      0x01\n        /* \"contracts/Twitter-Inheritance-Solution.sol\":2049:2063  tweets[author] */\n      0x00\n        /* \"contracts/Twitter-Inheritance-Solution.sol\":2056:2062  author */\n      dup5\n        /* \"contracts/Twitter-Inheritance-Solution.sol\":2049:2063  tweets[author] */\n      0xffffffffffffffffffffffffffffffffffffffff\n      and\n      0xffffffffffffffffffffffffffffffffffffffff\n      and\n      dup2\n      mstore\n      0x20\n      add\n      swap1\n      dup2\n      mstore\n      0x20\n      add\n      0x00\n      keccak256\n        /* \"contracts/Twitter-Inheritance-Solution.sol\":2064:2066  id */\n      dup3\n        /* \"contracts/Twitter-Inheritance-Solution.sol\":2049:2067  tweets[author][id] */\n      dup2\n      sload\n      dup2\n      lt\n      tag_86\n      jumpi\n      tag_87\n      tag_81\n      jump\t// in\n    tag_87:\n    tag_86:\n      swap1\n      0x00\n      mstore\n      keccak256(0x00, 0x20)\n      swap1\n      0x05\n      mul\n      add\n        /* \"contracts/Twitter-Inheritance-Solution.sol\":2049:2073  tweets[author][id].likes */\n      0x04\n      add\n      sload\n        /* \"contracts/Twitter-Inheritance-Solution.sol\":2049:2077  tweets[author][id].likes > 0 */\n      gt\n        /* \"contracts/Twitter-Inheritance-Solution.sol\":2041:2101  require(tweets[author][id].likes > 0, \"Tweets has no likes\") */\n      tag_89\n      jumpi\n      mload(0x40)\n      0x08c379a000000000000000000000000000000000000000000000000000000000\n      dup2\n      mstore\n      0x04\n      add\n      tag_90\n      swap1\n      tag_91\n      jump\t// in\n    tag_90:\n      mload(0x40)\n      dup1\n      swap2\n      sub\n      swap1\n      revert\n    tag_89:\n        /* \"contracts/Twitter-Inheritance-Solution.sol\":2122:2128  tweets */\n      0x01\n        /* \"contracts/Twitter-Inheritance-Solution.sol\":2122:2136  tweets[author] */\n      0x00\n        /* \"contracts/Twitter-Inheritance-Solution.sol\":2129:2135  author */\n      dup4\n        /* \"contracts/Twitter-Inheritance-Solution.sol\":2122:2136  tweets[author] */\n      0xffffffffffffffffffffffffffffffffffffffff\n      and\n      0xffffffffffffffffffffffffffffffffffffffff\n      and\n      dup2\n      mstore\n      0x20\n      add\n      swap1\n      dup2\n      mstore\n      0x20\n      add\n      0x00\n      keccak256\n        /* \"contracts/Twitter-Inheritance-Solution.sol\":2137:2139  id */\n      dup2\n        /* \"contracts/Twitter-Inheritance-Solution.sol\":2122:2140  tweets[author][id] */\n      dup2\n      sload\n      dup2\n      lt\n      tag_92\n      jumpi\n      tag_93\n      tag_81\n      jump\t// in\n    tag_93:\n    tag_92:\n      swap1\n      0x00\n      mstore\n      keccak256(0x00, 0x20)\n      swap1\n      0x05\n      mul\n      add\n        /* \"contracts/Twitter-Inheritance-Solution.sol\":2122:2146  tweets[author][id].likes */\n      0x04\n      add\n      0x00\n        /* \"contracts/Twitter-Inheritance-Solution.sol\":2122:2148  tweets[author][id].likes-- */\n      dup2\n      sload\n      dup1\n      swap3\n      swap2\n      swap1\n      tag_95\n      swap1\n      tag_96\n      jump\t// in\n    tag_95:\n      swap2\n      swap1\n      pop\n      sstore\n      pop\n        /* \"contracts/Twitter-Inheritance-Solution.sol\":2164:2226  TweetUnliked(msg.sender, author, id, tweets[author][id].likes) */\n      0x762c2616349603ac16eba0de8e6141b79129a07ab63bd99e0a80b3a471716943\n        /* \"contracts/Twitter-Inheritance-Solution.sol\":2177:2187  msg.sender */\n      caller\n        /* \"contracts/Twitter-Inheritance-Solution.sol\":2189:2195  author */\n      dup4\n        /* \"contracts/Twitter-Inheritance-Solution.sol\":2197:2199  id */\n      dup4\n        /* \"contracts/Twitter-Inheritance-Solution.sol\":2201:2207  tweets */\n      0x01\n        /* \"contracts/Twitter-Inheritance-Solution.sol\":2201:2215  tweets[author] */\n      0x00\n        /* \"contracts/Twitter-Inheritance-Solution.sol\":2208:2214  author */\n      dup8\n        /* \"contracts/Twitter-Inheritance-Solution.sol\":2201:2215  tweets[author] */\n      0xffffffffffffffffffffffffffffffffffffffff\n      and\n      0xffffffffffffffffffffffffffffffffffffffff\n      and\n      dup2\n      mstore\n      0x20\n      add\n      swap1\n      dup2\n      mstore\n      0x20\n      add\n      0x00\n      keccak256\n        /* \"contracts/Twitter-Inheritance-Solution.sol\":2216:2218  id */\n      dup6\n        /* \"contracts/Twitter-Inheritance-Solution.sol\":2201:2219  tweets[author][id] */\n      dup2\n      sload\n      dup2\n      lt\n      tag_97\n      jumpi\n      tag_98\n      tag_81\n      jump\t// in\n    tag_98:\n    tag_97:\n      swap1\n      0x00\n      mstore\n      keccak256(0x00, 0x20)\n      swap1\n      0x05\n      mul\n      add\n        /* \"contracts/Twitter-Inheritance-Solution.sol\":2201:2225  tweets[author][id].likes */\n      0x04\n      add\n      sload\n        /* \"contracts/Twitter-Inheritance-Solution.sol\":2164:2226  TweetUnliked(msg.sender, author, id, tweets[author][id].likes) */\n      mload(0x40)\n      tag_100\n      swap5\n      swap4\n      swap3\n      swap2\n      swap1\n      tag_101\n      jump\t// in\n    tag_100:\n      mload(0x40)\n      dup1\n      swap2\n      sub\n      swap1\n      log1\n        /* \"contracts/Twitter-Inheritance-Solution.sol\":1871:2234  function unlikeTweet(address author, uint256 id) external {... */\n      pop\n      pop\n      jump\t// out\n        /* \"contracts/Twitter-Inheritance-Solution.sol\":917:1036  function changeTweetLength(uint16 newTweetLength) public onlyOwner {... */\n    tag_33:\n        /* \"@openzeppelin/contracts/access/Ownable.sol\":1531:1544  _checkOwner() */\n      tag_103\n        /* \"@openzeppelin/contracts/access/Ownable.sol\":1531:1542  _checkOwner */\n      tag_104\n        /* \"@openzeppelin/contracts/access/Ownable.sol\":1531:1544  _checkOwner() */\n      jump\t// in\n    tag_103:\n        /* \"contracts/Twitter-Inheritance-Solution.sol\":1014:1028  newTweetLength */\n      dup1\n        /* \"contracts/Twitter-Inheritance-Solution.sol\":995:1011  MAX_TWEET_LENGTH */\n      0x00\n      0x14\n        /* \"contracts/Twitter-Inheritance-Solution.sol\":995:1028  MAX_TWEET_LENGTH = newTweetLength */\n      0x0100\n      exp\n      dup2\n      sload\n      dup2\n      0xffff\n      mul\n      not\n      and\n      swap1\n      dup4\n      0xffff\n      and\n      mul\n      or\n      swap1\n      sstore\n      pop\n        /* \"contracts/Twitter-Inheritance-Solution.sol\":917:1036  function changeTweetLength(uint16 newTweetLength) public onlyOwner {... */\n      pop\n      jump\t// out\n        /* \"contracts/Twitter-Inheritance-Solution.sol\":1575:1863  function likeTweet(address author, uint256 id) external {... */\n    tag_36:\n        /* \"contracts/Twitter-Inheritance-Solution.sol\":1655:1661  tweets */\n      0x01\n        /* \"contracts/Twitter-Inheritance-Solution.sol\":1655:1669  tweets[author] */\n      0x00\n        /* \"contracts/Twitter-Inheritance-Solution.sol\":1662:1668  author */\n      dup4\n        /* \"contracts/Twitter-Inheritance-Solution.sol\":1655:1669  tweets[author] */\n      0xffffffffffffffffffffffffffffffffffffffff\n      and\n      0xffffffffffffffffffffffffffffffffffffffff\n      and\n      dup2\n      mstore\n      0x20\n      add\n      swap1\n      dup2\n      mstore\n      0x20\n      add\n      0x00\n      keccak256\n        /* \"contracts/Twitter-Inheritance-Solution.sol\":1655:1676  tweets[author].length */\n      dup1\n      sload\n      swap1\n      pop\n        /* \"contracts/Twitter-Inheritance-Solution.sol\":1650:1652  id */\n      dup2\n        /* \"contracts/Twitter-Inheritance-Solution.sol\":1650:1676  id < tweets[author].length */\n      lt\n        /* \"contracts/Twitter-Inheritance-Solution.sol\":1650:1707  id < tweets[author].length && tweets[author][id].id == id */\n      dup1\n      iszero\n      tag_107\n      jumpi\n      pop\n        /* \"contracts/Twitter-Inheritance-Solution.sol\":1705:1707  id */\n      dup1\n        /* \"contracts/Twitter-Inheritance-Solution.sol\":1680:1686  tweets */\n      0x01\n        /* \"contracts/Twitter-Inheritance-Solution.sol\":1680:1694  tweets[author] */\n      0x00\n        /* \"contracts/Twitter-Inheritance-Solution.sol\":1687:1693  author */\n      dup5\n        /* \"contracts/Twitter-Inheritance-Solution.sol\":1680:1694  tweets[author] */\n      0xffffffffffffffffffffffffffffffffffffffff\n      and\n      0xffffffffffffffffffffffffffffffffffffffff\n      and\n      dup2\n      mstore\n      0x20\n      add\n      swap1\n      dup2\n      mstore\n      0x20\n      add\n      0x00\n      keccak256\n        /* \"contracts/Twitter-Inheritance-Solution.sol\":1695:1697  id */\n      dup3\n        /* \"contracts/Twitter-Inheritance-Solution.sol\":1680:1698  tweets[author][id] */\n      dup2\n      sload\n      dup2\n      lt\n      tag_108\n      jumpi\n      tag_109\n      tag_81\n      jump\t// in\n    tag_109:\n    tag_108:\n      swap1\n      0x00\n      mstore\n      keccak256(0x00, 0x20)\n      swap1\n      0x05\n      mul\n      add\n        /* \"contracts/Twitter-Inheritance-Solution.sol\":1680:1701  tweets[author][id].id */\n      0x00\n      add\n      sload\n        /* \"contracts/Twitter-Inheritance-Solution.sol\":1680:1707  tweets[author][id].id == id */\n      eq\n        /* \"contracts/Twitter-Inheritance-Solution.sol\":1650:1707  id < tweets[author].length && tweets[author][id].id == id */\n    tag_107:\n        /* \"contracts/Twitter-Inheritance-Solution.sol\":1642:1732  require(id < tweets[author].length && tweets[author][id].id == id, \"Tweet Does Not Exist\") */\n      tag_111\n      jumpi\n      mload(0x40)\n      0x08c379a000000000000000000000000000000000000000000000000000000000\n      dup2\n      mstore\n      0x04\n      add\n      tag_112\n      swap1\n      tag_85\n      jump\t// in\n    tag_112:\n      mload(0x40)\n      dup1\n      swap2\n      sub\n      swap1\n      revert\n    tag_111:\n        /* \"contracts/Twitter-Inheritance-Solution.sol\":1753:1759  tweets */\n      0x01\n        /* \"contracts/Twitter-Inheritance-Solution.sol\":1753:1767  tweets[author] */\n      0x00\n        /* \"contracts/Twitter-Inheritance-Solution.sol\":1760:1766  author */\n      dup4\n        /* \"contracts/Twitter-Inheritance-Solution.sol\":1753:1767  tweets[author] */\n      0xffffffffffffffffffffffffffffffffffffffff\n      and\n      0xffffffffffffffffffffffffffffffffffffffff\n      and\n      dup2\n      mstore\n      0x20\n      add\n      swap1\n      dup2\n      mstore\n      0x20\n      add\n      0x00\n      keccak256\n        /* \"contracts/Twitter-Inheritance-Solution.sol\":1768:1770  id */\n      dup2\n        /* \"contracts/Twitter-Inheritance-Solution.sol\":1753:1771  tweets[author][id] */\n      dup2\n      sload\n      dup2\n      lt\n      tag_113\n      jumpi\n      tag_114\n      tag_81\n      jump\t// in\n    tag_114:\n    tag_113:\n      swap1\n      0x00\n      mstore\n      keccak256(0x00, 0x20)\n      swap1\n      0x05\n      mul\n      add\n        /* \"contracts/Twitter-Inheritance-Solution.sol\":1753:1777  tweets[author][id].likes */\n      0x04\n      add\n      0x00\n        /* \"contracts/Twitter-Inheritance-Solution.sol\":1753:1779  tweets[author][id].likes++ */\n      dup2\n      sload\n      dup1\n      swap3\n      swap2\n      swap1\n      tag_116\n      swap1\n      tag_117\n      jump\t// in\n    tag_116:\n      swap2\n      swap1\n      pop\n      sstore\n      pop\n        /* \"contracts/Twitter-Inheritance-Solution.sol\":1795:1855  TweetLiked(msg.sender, author, id, tweets[author][id].likes) */\n      0xe8a76fc0f16d11a00d1e93b689b63d76cf60af914dd3d915375dc41d01a0c3c8\n        /* \"contracts/Twitter-Inheritance-Solution.sol\":1806:1816  msg.sender */\n      caller\n        /* \"contracts/Twitter-Inheritance-Solution.sol\":1818:1824  author */\n      dup4\n        /* \"contracts/Twitter-Inheritance-Solution.sol\":1826:1828  id */\n      dup4\n        /* \"contracts/Twitter-Inheritance-Solution.sol\":1830:1836  tweets */\n      0x01\n        /* \"contracts/Twitter-Inheritance-Solution.sol\":1830:1844  tweets[author] */\n      0x00\n        /* \"contracts/Twitter-Inheritance-Solution.sol\":1837:1843  author */\n      dup8\n        /* \"contracts/Twitter-Inheritance-Solution.sol\":1830:1844  tweets[author] */\n      0xffffffffffffffffffffffffffffffffffffffff\n      and\n      0xffffffffffffffffffffffffffffffffffffffff\n      and\n      dup2\n      mstore\n      0x20\n      add\n      swap1\n      dup2\n      mstore\n      0x20\n      add\n      0x00\n      keccak256\n        /* \"contracts/Twitter-Inheritance-Solution.sol\":1845:1847  id */\n      dup6\n        /* \"contracts/Twitter-Inheritance-Solution.sol\":1830:1848  tweets[author][id] */\n      dup2\n      sload\n      dup2\n      lt\n      tag_118\n      jumpi\n      tag_119\n      tag_81\n      jump\t// in\n    tag_119:\n    tag_118:\n      swap1\n      0x00\n      mstore\n      keccak256(0x00, 0x20)\n      swap1\n      0x05\n      mul\n      add\n        /* \"contracts/Twitter-Inheritance-Solution.sol\":1830:1854  tweets[author][id].likes */\n      0x04\n      add\n      sload\n        /* \"contracts/Twitter-Inheritance-Solution.sol\":1795:1855  TweetLiked(msg.sender, author, id, tweets[author][id].likes) */\n      mload(0x40)\n      tag_121\n      swap5\n      swap4\n      swap3\n      swap2\n      swap1\n      tag_101\n      jump\t// in\n    tag_121:\n      mload(0x40)\n      dup1\n      swap2\n      sub\n      swap1\n      log1\n        /* \"contracts/Twitter-Inheritance-Solution.sol\":1575:1863  function likeTweet(address author, uint256 id) external {... */\n      pop\n      pop\n      jump\t// out\n        /* \"contracts/Twitter-Inheritance-Solution.sol\":156:192  uint16 public MAX_TWEET_LENGTH = 280 */\n    tag_38:\n      0x00\n      0x14\n      swap1\n      sload\n      swap1\n      0x0100\n      exp\n      swap1\n      div\n      0xffff\n      and\n      dup2\n      jump\t// out\n        /* \"@openzeppelin/contracts/access/Ownable.sol\":2293:2394  function renounceOwnership() public virtual onlyOwner {... */\n    tag_42:\n        /* \"@openzeppelin/contracts/access/Ownable.sol\":1531:1544  _checkOwner() */\n      tag_123\n        /* \"@openzeppelin/contracts/access/Ownable.sol\":1531:1542  _checkOwner */\n      tag_104\n        /* \"@openzeppelin/contracts/access/Ownable.sol\":1531:1544  _checkOwner() */\n      jump\t// in\n    tag_123:\n        /* \"@openzeppelin/contracts/access/Ownable.sol\":2357:2387  _transferOwnership(address(0)) */\n      tag_125\n        /* \"@openzeppelin/contracts/access/Ownable.sol\":2384:2385  0 */\n      0x00\n        /* \"@openzeppelin/contracts/access/Ownable.sol\":2357:2375  _transferOwnership */\n      tag_126\n        /* \"@openzeppelin/contracts/access/Ownable.sol\":2357:2387  _transferOwnership(address(0)) */\n      jump\t// in\n    tag_125:\n        /* \"@openzeppelin/contracts/access/Ownable.sol\":2293:2394  function renounceOwnership() public virtual onlyOwner {... */\n      jump\t// out\n        /* \"contracts/Twitter-Inheritance-Solution.sol\":1044:1567  function createTweet(string memory _tweet) public {... */\n    tag_46:\n        /* \"contracts/Twitter-Inheritance-Solution.sol\":1137:1153  MAX_TWEET_LENGTH */\n      0x00\n      0x14\n      swap1\n      sload\n      swap1\n      0x0100\n      exp\n      swap1\n      div\n      0xffff\n      and\n        /* \"contracts/Twitter-Inheritance-Solution.sol\":1113:1153  bytes(_tweet).length <= MAX_TWEET_LENGTH */\n      0xffff\n      and\n        /* \"contracts/Twitter-Inheritance-Solution.sol\":1119:1125  _tweet */\n      dup2\n        /* \"contracts/Twitter-Inheritance-Solution.sol\":1113:1133  bytes(_tweet).length */\n      mload\n        /* \"contracts/Twitter-Inheritance-Solution.sol\":1113:1153  bytes(_tweet).length <= MAX_TWEET_LENGTH */\n      gt\n      iszero\n        /* \"contracts/Twitter-Inheritance-Solution.sol\":1105:1181  require(bytes(_tweet).length <= MAX_TWEET_LENGTH, \"Tweet is too long bro: \") */\n      tag_128\n      jumpi\n      mload(0x40)\n      0x08c379a000000000000000000000000000000000000000000000000000000000\n      dup2\n      mstore\n      0x04\n      add\n      tag_129\n      swap1\n      tag_130\n      jump\t// in\n    tag_129:\n      mload(0x40)\n      dup1\n      swap2\n      sub\n      swap1\n      revert\n    tag_128:\n        /* \"contracts/Twitter-Inheritance-Solution.sol\":1202:1223  Tweet memory newTweet */\n      0x00\n        /* \"contracts/Twitter-Inheritance-Solution.sol\":1226:1416  Tweet({... */\n      mload(0x40)\n      dup1\n      0xa0\n      add\n      0x40\n      mstore\n      dup1\n        /* \"contracts/Twitter-Inheritance-Solution.sol\":1251:1257  tweets */\n      0x01\n        /* \"contracts/Twitter-Inheritance-Solution.sol\":1251:1269  tweets[msg.sender] */\n      0x00\n        /* \"contracts/Twitter-Inheritance-Solution.sol\":1258:1268  msg.sender */\n      caller\n        /* \"contracts/Twitter-Inheritance-Solution.sol\":1251:1269  tweets[msg.sender] */\n      0xffffffffffffffffffffffffffffffffffffffff\n      and\n      0xffffffffffffffffffffffffffffffffffffffff\n      and\n      dup2\n      mstore\n      0x20\n      add\n      swap1\n      dup2\n      mstore\n      0x20\n      add\n      0x00\n      keccak256\n        /* \"contracts/Twitter-Inheritance-Solution.sol\":1251:1276  tweets[msg.sender].length */\n      dup1\n      sload\n      swap1\n      pop\n        /* \"contracts/Twitter-Inheritance-Solution.sol\":1226:1416  Tweet({... */\n      dup2\n      mstore\n      0x20\n      add\n        /* \"contracts/Twitter-Inheritance-Solution.sol\":1299:1309  msg.sender */\n      caller\n        /* \"contracts/Twitter-Inheritance-Solution.sol\":1226:1416  Tweet({... */\n      0xffffffffffffffffffffffffffffffffffffffff\n      and\n      dup2\n      mstore\n      0x20\n      add\n        /* \"contracts/Twitter-Inheritance-Solution.sol\":1333:1339  _tweet */\n      dup4\n        /* \"contracts/Twitter-Inheritance-Solution.sol\":1226:1416  Tweet({... */\n      dup2\n      mstore\n      0x20\n      add\n        /* \"contracts/Twitter-Inheritance-Solution.sol\":1366:1381  block.timestamp */\n      timestamp\n        /* \"contracts/Twitter-Inheritance-Solution.sol\":1226:1416  Tweet({... */\n      dup2\n      mstore\n      0x20\n      add\n        /* \"contracts/Twitter-Inheritance-Solution.sol\":1403:1404  0 */\n      0x00\n        /* \"contracts/Twitter-Inheritance-Solution.sol\":1226:1416  Tweet({... */\n      dup2\n      mstore\n      pop\n        /* \"contracts/Twitter-Inheritance-Solution.sol\":1202:1416  Tweet memory newTweet = Tweet({... */\n      swap1\n      pop\n        /* \"contracts/Twitter-Inheritance-Solution.sol\":1429:1435  tweets */\n      0x01\n        /* \"contracts/Twitter-Inheritance-Solution.sol\":1429:1447  tweets[msg.sender] */\n      0x00\n        /* \"contracts/Twitter-Inheritance-Solution.sol\":1436:1446  msg.sender */\n      caller\n        /* \"contracts/Twitter-Inheritance-Solution.sol\":1429:1447  tweets[msg.sender] */\n      0xffffffffffffffffffffffffffffffffffffffff\n      and\n      0xffffffffffffffffffffffffffffffffffffffff\n      and\n      dup2\n      mstore\n      0x20\n      add\n      swap1\n      dup2\n      mstore\n      0x20\n      add\n      0x00\n      keccak256\n        /* \"contracts/Twitter-Inheritance-Solution.sol\":1453:1461  newTweet */\n      dup2\n        /* \"contracts/Twitter-Inheritance-Solution.sol\":1429:1462  tweets[msg.sender].push(newTweet) */\n      swap1\n      dup1\n      0x01\n      dup2\n      sload\n      add\n      dup1\n      dup3\n      sstore\n      dup1\n      swap2\n      pop\n      pop\n      0x01\n      swap1\n      sub\n      swap1\n      0x00\n      mstore\n      keccak256(0x00, 0x20)\n      swap1\n      0x05\n      mul\n      add\n      0x00\n      swap1\n      swap2\n      swap1\n      swap2\n      swap1\n      swap2\n      pop\n      0x00\n      dup3\n      add\n      mload\n      dup2\n      0x00\n      add\n      sstore\n      0x20\n      dup3\n      add\n      mload\n      dup2\n      0x01\n      add\n      exp(0x0100, 0x00)\n      dup2\n      sload\n      dup2\n      0xffffffffffffffffffffffffffffffffffffffff\n      mul\n      not\n      and\n      swap1\n      dup4\n      0xffffffffffffffffffffffffffffffffffffffff\n      and\n      mul\n      or\n      swap1\n      sstore\n      pop\n      0x40\n      dup3\n      add\n      mload\n      dup2\n      0x02\n      add\n      swap1\n      dup2\n      tag_132\n      swap2\n      swap1\n      tag_133\n      jump\t// in\n    tag_132:\n      pop\n      0x60\n      dup3\n      add\n      mload\n      dup2\n      0x03\n      add\n      sstore\n      0x80\n      dup3\n      add\n      mload\n      dup2\n      0x04\n      add\n      sstore\n      pop\n      pop\n        /* \"contracts/Twitter-Inheritance-Solution.sol\":1478:1559  TweetCreated(newTweet.id, newTweet.author, newTweet.content, newTweet.timestamps) */\n      0x16fd3c13e9d46923e0a8bce11c7b473ec508a72e6c96cd2404b29ce972afc29e\n        /* \"contracts/Twitter-Inheritance-Solution.sol\":1491:1499  newTweet */\n      dup2\n        /* \"contracts/Twitter-Inheritance-Solution.sol\":1491:1502  newTweet.id */\n      0x00\n      add\n      mload\n        /* \"contracts/Twitter-Inheritance-Solution.sol\":1504:1512  newTweet */\n      dup3\n        /* \"contracts/Twitter-Inheritance-Solution.sol\":1504:1519  newTweet.author */\n      0x20\n      add\n      mload\n        /* \"contracts/Twitter-Inheritance-Solution.sol\":1521:1529  newTweet */\n      dup4\n        /* \"contracts/Twitter-Inheritance-Solution.sol\":1521:1537  newTweet.content */\n      0x40\n      add\n      mload\n        /* \"contracts/Twitter-Inheritance-Solution.sol\":1539:1547  newTweet */\n      dup5\n        /* \"contracts/Twitter-Inheritance-Solution.sol\":1539:1558  newTweet.timestamps */\n      0x60\n      add\n      mload\n        /* \"contracts/Twitter-Inheritance-Solution.sol\":1478:1559  TweetCreated(newTweet.id, newTweet.author, newTweet.content, newTweet.timestamps) */\n      mload(0x40)\n      tag_134\n      swap5\n      swap4\n      swap3\n      swap2\n      swap1\n      tag_135\n      jump\t// in\n    tag_134:\n      mload(0x40)\n      dup1\n      swap2\n      sub\n      swap1\n      log1\n        /* \"contracts/Twitter-Inheritance-Solution.sol\":1094:1567  {... */\n      pop\n        /* \"contracts/Twitter-Inheritance-Solution.sol\":1044:1567  function createTweet(string memory _tweet) public {... */\n      pop\n      jump\t// out\n        /* \"@openzeppelin/contracts/access/Ownable.sol\":1638:1723  function owner() public view virtual returns (address) {... */\n    tag_48:\n        /* \"@openzeppelin/contracts/access/Ownable.sol\":1684:1691  address */\n      0x00\n        /* \"@openzeppelin/contracts/access/Ownable.sol\":1710:1716  _owner */\n      dup1\n      0x00\n      swap1\n      sload\n      swap1\n      0x0100\n      exp\n      swap1\n      div\n      0xffffffffffffffffffffffffffffffffffffffff\n      and\n        /* \"@openzeppelin/contracts/access/Ownable.sol\":1703:1716  return _owner */\n      swap1\n      pop\n        /* \"@openzeppelin/contracts/access/Ownable.sol\":1638:1723  function owner() public view virtual returns (address) {... */\n      swap1\n      jump\t// out\n        /* \"contracts/Twitter-Inheritance-Solution.sol\":2242:2355  function getTweet(uint256 _i) public view returns (Tweet memory) {... */\n    tag_54:\n        /* \"contracts/Twitter-Inheritance-Solution.sol\":2293:2305  Tweet memory */\n      tag_137\n      tag_138\n      jump\t// in\n    tag_137:\n        /* \"contracts/Twitter-Inheritance-Solution.sol\":2325:2331  tweets */\n      0x01\n        /* \"contracts/Twitter-Inheritance-Solution.sol\":2325:2343  tweets[msg.sender] */\n      0x00\n        /* \"contracts/Twitter-Inheritance-Solution.sol\":2332:2342  msg.sender */\n      caller\n        /* \"contracts/Twitter-Inheritance-Solution.sol\":2325:2343  tweets[msg.sender] */\n      0xffffffffffffffffffffffffffffffffffffffff\n      and\n      0xffffffffffffffffffffffffffffffffffffffff\n      and\n      dup2\n      mstore\n      0x20\n      add\n      swap1\n      dup2\n      mstore\n      0x20\n      add\n      0x00\n      keccak256\n        /* \"contracts/Twitter-Inheritance-Solution.sol\":2344:2346  _i */\n      dup3\n        /* \"contracts/Twitter-Inheritance-Solution.sol\":2325:2347  tweets[msg.sender][_i] */\n      dup2\n      sload\n      dup2\n      lt\n      tag_140\n      jumpi\n      tag_141\n      tag_81\n      jump\t// in\n    tag_141:\n    tag_140:\n      swap1\n      0x00\n      mstore\n      keccak256(0x00, 0x20)\n      swap1\n      0x05\n      mul\n      add\n        /* \"contracts/Twitter-Inheritance-Solution.sol\":2318:2347  return tweets[msg.sender][_i] */\n      mload(0x40)\n      dup1\n      0xa0\n      add\n      0x40\n      mstore\n      swap1\n      dup2\n      0x00\n      dup3\n      add\n      sload\n      dup2\n      mstore\n      0x20\n      add\n      0x01\n      dup3\n      add\n      0x00\n      swap1\n      sload\n      swap1\n      0x0100\n      exp\n      swap1\n      div\n      0xffffffffffffffffffffffffffffffffffffffff\n      and\n      0xffffffffffffffffffffffffffffffffffffffff\n      and\n      0xffffffffffffffffffffffffffffffffffffffff\n      and\n      dup2\n      mstore\n      0x20\n      add\n      0x02\n      dup3\n      add\n      dup1\n      sload\n      tag_143\n      swap1\n      tag_63\n      jump\t// in\n    tag_143:\n      dup1\n      0x1f\n      add\n      0x20\n      dup1\n      swap2\n      div\n      mul\n      0x20\n      add\n      mload(0x40)\n      swap1\n      dup2\n      add\n      0x40\n      mstore\n      dup1\n      swap3\n      swap2\n      swap1\n      dup2\n      dup2\n      mstore\n      0x20\n      add\n      dup3\n      dup1\n      sload\n      tag_144\n      swap1\n      tag_63\n      jump\t// in\n    tag_144:\n      dup1\n      iszero\n      tag_145\n      jumpi\n      dup1\n      0x1f\n      lt\n      tag_146\n      jumpi\n      0x0100\n      dup1\n      dup4\n      sload\n      div\n      mul\n      dup4\n      mstore\n      swap2\n      0x20\n      add\n      swap2\n      jump(tag_145)\n    tag_146:\n      dup3\n      add\n      swap2\n      swap1\n      0x00\n      mstore\n      keccak256(0x00, 0x20)\n      swap1\n    tag_147:\n      dup2\n      sload\n      dup2\n      mstore\n      swap1\n      0x01\n      add\n      swap1\n      0x20\n      add\n      dup1\n      dup4\n      gt\n      tag_147\n      jumpi\n      dup3\n      swap1\n      sub\n      0x1f\n      and\n      dup3\n      add\n      swap2\n    tag_145:\n      pop\n      pop\n      pop\n      pop\n      pop\n      dup2\n      mstore\n      0x20\n      add\n      0x03\n      dup3\n      add\n      sload\n      dup2\n      mstore\n      0x20\n      add\n      0x04\n      dup3\n      add\n      sload\n      dup2\n      mstore\n      pop\n      pop\n      swap1\n      pop\n        /* \"contracts/Twitter-Inheritance-Solution.sol\":2242:2355  function getTweet(uint256 _i) public view returns (Tweet memory) {... */\n      swap2\n      swap1\n      pop\n      jump\t// out\n        /* \"@openzeppelin/contracts/access/Ownable.sol\":2543:2758  function transferOwnership(address newOwner) public virtual onlyOwner {... */\n    tag_59:\n        /* \"@openzeppelin/contracts/access/Ownable.sol\":1531:1544  _checkOwner() */\n      tag_149\n        /* \"@openzeppelin/contracts/access/Ownable.sol\":1531:1542  _checkOwner */\n      tag_104\n        /* \"@openzeppelin/contracts/access/Ownable.sol\":1531:1544  _checkOwner() */\n      jump\t// in\n    tag_149:\n        /* \"@openzeppelin/contracts/access/Ownable.sol\":2647:2648  0 */\n      0x00\n        /* \"@openzeppelin/contracts/access/Ownable.sol\":2627:2649  newOwner == address(0) */\n      0xffffffffffffffffffffffffffffffffffffffff\n      and\n        /* \"@openzeppelin/contracts/access/Ownable.sol\":2627:2635  newOwner */\n      dup2\n        /* \"@openzeppelin/contracts/access/Ownable.sol\":2627:2649  newOwner == address(0) */\n      0xffffffffffffffffffffffffffffffffffffffff\n      and\n      sub\n        /* \"@openzeppelin/contracts/access/Ownable.sol\":2623:2714  if (newOwner == address(0)) {... */\n      tag_151\n      jumpi\n        /* \"@openzeppelin/contracts/access/Ownable.sol\":2700:2701  0 */\n      0x00\n        /* \"@openzeppelin/contracts/access/Ownable.sol\":2672:2703  OwnableInvalidOwner(address(0)) */\n      mload(0x40)\n      0x1e4fbdf700000000000000000000000000000000000000000000000000000000\n      dup2\n      mstore\n      0x04\n      add\n      tag_152\n      swap2\n      swap1\n      tag_50\n      jump\t// in\n    tag_152:\n      mload(0x40)\n      dup1\n      swap2\n      sub\n      swap1\n      revert\n        /* \"@openzeppelin/contracts/access/Ownable.sol\":2623:2714  if (newOwner == address(0)) {... */\n    tag_151:\n        /* \"@openzeppelin/contracts/access/Ownable.sol\":2723:2751  _transferOwnership(newOwner) */\n      tag_153\n        /* \"@openzeppelin/contracts/access/Ownable.sol\":2742:2750  newOwner */\n      dup2\n        /* \"@openzeppelin/contracts/access/Ownable.sol\":2723:2741  _transferOwnership */\n      tag_126\n        /* \"@openzeppelin/contracts/access/Ownable.sol\":2723:2751  _transferOwnership(newOwner) */\n      jump\t// in\n    tag_153:\n        /* \"@openzeppelin/contracts/access/Ownable.sol\":2543:2758  function transferOwnership(address newOwner) public virtual onlyOwner {... */\n      pop\n      jump\t// out\n        /* \"@openzeppelin/contracts/access/Ownable.sol\":1796:1958  function _checkOwner() internal view virtual {... */\n    tag_104:\n        /* \"@openzeppelin/contracts/access/Ownable.sol\":1866:1878  _msgSender() */\n      tag_155\n        /* \"@openzeppelin/contracts/access/Ownable.sol\":1866:1876  _msgSender */\n      tag_156\n        /* \"@openzeppelin/contracts/access/Ownable.sol\":1866:1878  _msgSender() */\n      jump\t// in\n    tag_155:\n        /* \"@openzeppelin/contracts/access/Ownable.sol\":1855:1878  owner() != _msgSender() */\n      0xffffffffffffffffffffffffffffffffffffffff\n      and\n        /* \"@openzeppelin/contracts/access/Ownable.sol\":1855:1862  owner() */\n      tag_157\n        /* \"@openzeppelin/contracts/access/Ownable.sol\":1855:1860  owner */\n      tag_48\n        /* \"@openzeppelin/contracts/access/Ownable.sol\":1855:1862  owner() */\n      jump\t// in\n    tag_157:\n        /* \"@openzeppelin/contracts/access/Ownable.sol\":1855:1878  owner() != _msgSender() */\n      0xffffffffffffffffffffffffffffffffffffffff\n      and\n      eq\n        /* \"@openzeppelin/contracts/access/Ownable.sol\":1851:1952  if (owner() != _msgSender()) {... */\n      tag_158\n      jumpi\n        /* \"@openzeppelin/contracts/access/Ownable.sol\":1928:1940  _msgSender() */\n      tag_159\n        /* \"@openzeppelin/contracts/access/Ownable.sol\":1928:1938  _msgSender */\n      tag_156\n        /* \"@openzeppelin/contracts/access/Ownable.sol\":1928:1940  _msgSender() */\n      jump\t// in\n    tag_159:\n        /* \"@openzeppelin/contracts/access/Ownable.sol\":1901:1941  OwnableUnauthorizedAccount(_msgSender()) */\n      mload(0x40)\n      0x118cdaa700000000000000000000000000000000000000000000000000000000\n      dup2\n      mstore\n      0x04\n      add\n      tag_160\n      swap2\n      swap1\n      tag_50\n      jump\t// in\n    tag_160:\n      mload(0x40)\n      dup1\n      swap2\n      sub\n      swap1\n      revert\n        /* \"@openzeppelin/contracts/access/Ownable.sol\":1851:1952  if (owner() != _msgSender()) {... */\n    tag_158:\n        /* \"@openzeppelin/contracts/access/Ownable.sol\":1796:1958  function _checkOwner() internal view virtual {... */\n      jump\t// out\n        /* \"@openzeppelin/contracts/access/Ownable.sol\":2912:3099  function _transferOwnership(address newOwner) internal virtual {... */\n    tag_126:\n        /* \"@openzeppelin/contracts/access/Ownable.sol\":2985:3001  address oldOwner */\n      0x00\n        /* \"@openzeppelin/contracts/access/Ownable.sol\":3004:3010  _owner */\n      dup1\n      0x00\n      swap1\n      sload\n      swap1\n      0x0100\n      exp\n      swap1\n      div\n      0xffffffffffffffffffffffffffffffffffffffff\n      and\n        /* \"@openzeppelin/contracts/access/Ownable.sol\":2985:3010  address oldOwner = _owner */\n      swap1\n      pop\n        /* \"@openzeppelin/contracts/access/Ownable.sol\":3029:3037  newOwner */\n      dup2\n        /* \"@openzeppelin/contracts/access/Ownable.sol\":3020:3026  _owner */\n      0x00\n      dup1\n        /* \"@openzeppelin/contracts/access/Ownable.sol\":3020:3037  _owner = newOwner */\n      0x0100\n      exp\n      dup2\n      sload\n      dup2\n      0xffffffffffffffffffffffffffffffffffffffff\n      mul\n      not\n      and\n      swap1\n      dup4\n      0xffffffffffffffffffffffffffffffffffffffff\n      and\n      mul\n      or\n      swap1\n      sstore\n      pop\n        /* \"@openzeppelin/contracts/access/Ownable.sol\":3083:3091  newOwner */\n      dup2\n        /* \"@openzeppelin/contracts/access/Ownable.sol\":3052:3092  OwnershipTransferred(oldOwner, newOwner) */\n      0xffffffffffffffffffffffffffffffffffffffff\n      and\n        /* \"@openzeppelin/contracts/access/Ownable.sol\":3073:3081  oldOwner */\n      dup2\n        /* \"@openzeppelin/contracts/access/Ownable.sol\":3052:3092  OwnershipTransferred(oldOwner, newOwner) */\n      0xffffffffffffffffffffffffffffffffffffffff\n      and\n      0x8be0079c531659141344cd1fd0a4f28419497f9722a3daafe3b4186f6b6457e0\n      mload(0x40)\n      mload(0x40)\n      dup1\n      swap2\n      sub\n      swap1\n      log3\n        /* \"@openzeppelin/contracts/access/Ownable.sol\":2975:3099  {... */\n      pop\n        /* \"@openzeppelin/contracts/access/Ownable.sol\":2912:3099  function _transferOwnership(address newOwner) internal virtual {... */\n      pop\n      jump\t// out\n        /* \"@openzeppelin/contracts/utils/Context.sol\":656:752  function _msgSender() internal view virtual returns (address) {... */\n    tag_156:\n        /* \"@openzeppelin/contracts/utils/Context.sol\":709:716  address */\n      0x00\n        /* \"@openzeppelin/contracts/utils/Context.sol\":735:745  msg.sender */\n      caller\n        /* \"@openzeppelin/contracts/utils/Context.sol\":728:745  return msg.sender */\n      swap1\n      pop\n        /* \"@openzeppelin/contracts/utils/Context.sol\":656:752  function _msgSender() internal view virtual returns (address) {... */\n      swap1\n      jump\t// out\n    tag_138:\n      mload(0x40)\n      dup1\n      0xa0\n      add\n      0x40\n      mstore\n      dup1\n      0x00\n      dup2\n      mstore\n      0x20\n      add\n      and(0xffffffffffffffffffffffffffffffffffffffff, 0x00)\n      dup2\n      mstore\n      0x20\n      add\n      0x60\n      dup2\n      mstore\n      0x20\n      add\n      0x00\n      dup2\n      mstore\n      0x20\n      add\n      0x00\n      dup2\n      mstore\n      pop\n      swap1\n      jump\t// out\n        /* \"#utility.yul\":7:82   */\n    tag_163:\n        /* \"#utility.yul\":40:46   */\n      0x00\n        /* \"#utility.yul\":73:75   */\n      0x40\n        /* \"#utility.yul\":67:76   */\n      mload\n        /* \"#utility.yul\":57:76   */\n      swap1\n      pop\n        /* \"#utility.yul\":7:82   */\n      swap1\n      jump\t// out\n        /* \"#utility.yul\":88:205   */\n    tag_164:\n        /* \"#utility.yul\":197:198   */\n      0x00\n        /* \"#utility.yul\":194:195   */\n      dup1\n        /* \"#utility.yul\":187:199   */\n      revert\n        /* \"#utility.yul\":211:328   */\n    tag_165:\n        /* \"#utility.yul\":320:321   */\n      0x00\n        /* \"#utility.yul\":317:318   */\n      dup1\n        /* \"#utility.yul\":310:322   */\n      revert\n        /* \"#utility.yul\":334:460   */\n    tag_166:\n        /* \"#utility.yul\":371:378   */\n      0x00\n        /* \"#utility.yul\":411:453   */\n      0xffffffffffffffffffffffffffffffffffffffff\n        /* \"#utility.yul\":404:409   */\n      dup3\n        /* \"#utility.yul\":400:454   */\n      and\n        /* \"#utility.yul\":389:454   */\n      swap1\n      pop\n        /* \"#utility.yul\":334:460   */\n      swap2\n      swap1\n      pop\n      jump\t// out\n        /* \"#utility.yul\":466:562   */\n    tag_167:\n        /* \"#utility.yul\":503:510   */\n      0x00\n        /* \"#utility.yul\":532:556   */\n      tag_234\n        /* \"#utility.yul\":550:555   */\n      dup3\n        /* \"#utility.yul\":532:556   */\n      tag_166\n      jump\t// in\n    tag_234:\n        /* \"#utility.yul\":521:556   */\n      swap1\n      pop\n        /* \"#utility.yul\":466:562   */\n      swap2\n      swap1\n      pop\n      jump\t// out\n        /* \"#utility.yul\":568:690   */\n    tag_168:\n        /* \"#utility.yul\":641:665   */\n      tag_236\n        /* \"#utility.yul\":659:664   */\n      dup2\n        /* \"#utility.yul\":641:665   */\n      tag_167\n      jump\t// in\n    tag_236:\n        /* \"#utility.yul\":634:639   */\n      dup2\n        /* \"#utility.yul\":631:666   */\n      eq\n        /* \"#utility.yul\":621:684   */\n      tag_237\n      jumpi\n        /* \"#utility.yul\":680:681   */\n      0x00\n        /* \"#utility.yul\":677:678   */\n      dup1\n        /* \"#utility.yul\":670:682   */\n      revert\n        /* \"#utility.yul\":621:684   */\n    tag_237:\n        /* \"#utility.yul\":568:690   */\n      pop\n      jump\t// out\n        /* \"#utility.yul\":696:835   */\n    tag_169:\n        /* \"#utility.yul\":742:747   */\n      0x00\n        /* \"#utility.yul\":780:786   */\n      dup2\n        /* \"#utility.yul\":767:787   */\n      calldataload\n        /* \"#utility.yul\":758:787   */\n      swap1\n      pop\n        /* \"#utility.yul\":796:829   */\n      tag_239\n        /* \"#utility.yul\":823:828   */\n      dup2\n        /* \"#utility.yul\":796:829   */\n      tag_168\n      jump\t// in\n    tag_239:\n        /* \"#utility.yul\":696:835   */\n      swap3\n      swap2\n      pop\n      pop\n      jump\t// out\n        /* \"#utility.yul\":841:918   */\n    tag_170:\n        /* \"#utility.yul\":878:885   */\n      0x00\n        /* \"#utility.yul\":907:912   */\n      dup2\n        /* \"#utility.yul\":896:912   */\n      swap1\n      pop\n        /* \"#utility.yul\":841:918   */\n      swap2\n      swap1\n      pop\n      jump\t// out\n        /* \"#utility.yul\":924:1046   */\n    tag_171:\n        /* \"#utility.yul\":997:1021   */\n      tag_242\n        /* \"#utility.yul\":1015:1020   */\n      dup2\n        /* \"#utility.yul\":997:1021   */\n      tag_170\n      jump\t// in\n    tag_242:\n        /* \"#utility.yul\":990:995   */\n      dup2\n        /* \"#utility.yul\":987:1022   */\n      eq\n        /* \"#utility.yul\":977:1040   */\n      tag_243\n      jumpi\n        /* \"#utility.yul\":1036:1037   */\n      0x00\n        /* \"#utility.yul\":1033:1034   */\n      dup1\n        /* \"#utility.yul\":1026:1038   */\n      revert\n        /* \"#utility.yul\":977:1040   */\n    tag_243:\n        /* \"#utility.yul\":924:1046   */\n      pop\n      jump\t// out\n        /* \"#utility.yul\":1052:1191   */\n    tag_172:\n        /* \"#utility.yul\":1098:1103   */\n      0x00\n        /* \"#utility.yul\":1136:1142   */\n      dup2\n        /* \"#utility.yul\":1123:1143   */\n      calldataload\n        /* \"#utility.yul\":1114:1143   */\n      swap1\n      pop\n        /* \"#utility.yul\":1152:1185   */\n      tag_245\n        /* \"#utility.yul\":1179:1184   */\n      dup2\n        /* \"#utility.yul\":1152:1185   */\n      tag_171\n      jump\t// in\n    tag_245:\n        /* \"#utility.yul\":1052:1191   */\n      swap3\n      swap2\n      pop\n      pop\n      jump\t// out\n        /* \"#utility.yul\":1197:1671   */\n    tag_17:\n        /* \"#utility.yul\":1265:1271   */\n      0x00\n        /* \"#utility.yul\":1273:1279   */\n      dup1\n        /* \"#utility.yul\":1322:1324   */\n      0x40\n        /* \"#utility.yul\":1310:1319   */\n      dup4\n        /* \"#utility.yul\":1301:1308   */\n      dup6\n        /* \"#utility.yul\":1297:1320   */\n      sub\n        /* \"#utility.yul\":1293:1325   */\n      slt\n        /* \"#utility.yul\":1290:1409   */\n      iszero\n      tag_247\n      jumpi\n        /* \"#utility.yul\":1328:1407   */\n      tag_248\n      tag_164\n      jump\t// in\n    tag_248:\n        /* \"#utility.yul\":1290:1409   */\n    tag_247:\n        /* \"#utility.yul\":1448:1449   */\n      0x00\n        /* \"#utility.yul\":1473:1526   */\n      tag_249\n        /* \"#utility.yul\":1518:1525   */\n      dup6\n        /* \"#utility.yul\":1509:1515   */\n      dup3\n        /* \"#utility.yul\":1498:1507   */\n      dup7\n        /* \"#utility.yul\":1494:1516   */\n      add\n        /* \"#utility.yul\":1473:1526   */\n      tag_169\n      jump\t// in\n    tag_249:\n        /* \"#utility.yul\":1463:1526   */\n      swap3\n      pop\n        /* \"#utility.yul\":1419:1536   */\n      pop\n        /* \"#utility.yul\":1575:1577   */\n      0x20\n        /* \"#utility.yul\":1601:1654   */\n      tag_250\n        /* \"#utility.yul\":1646:1653   */\n      dup6\n        /* \"#utility.yul\":1637:1643   */\n      dup3\n        /* \"#utility.yul\":1626:1635   */\n      dup7\n        /* \"#utility.yul\":1622:1644   */\n      add\n        /* \"#utility.yul\":1601:1654   */\n      tag_172\n      jump\t// in\n    tag_250:\n        /* \"#utility.yul\":1591:1654   */\n      swap2\n      pop\n        /* \"#utility.yul\":1546:1664   */\n      pop\n        /* \"#utility.yul\":1197:1671   */\n      swap3\n      pop\n      swap3\n      swap1\n      pop\n      jump\t// out\n        /* \"#utility.yul\":1677:1795   */\n    tag_173:\n        /* \"#utility.yul\":1764:1788   */\n      tag_252\n        /* \"#utility.yul\":1782:1787   */\n      dup2\n        /* \"#utility.yul\":1764:1788   */\n      tag_170\n      jump\t// in\n    tag_252:\n        /* \"#utility.yul\":1759:1762   */\n      dup3\n        /* \"#utility.yul\":1752:1789   */\n      mstore\n        /* \"#utility.yul\":1677:1795   */\n      pop\n      pop\n      jump\t// out\n        /* \"#utility.yul\":1801:1919   */\n    tag_174:\n        /* \"#utility.yul\":1888:1912   */\n      tag_254\n        /* \"#utility.yul\":1906:1911   */\n      dup2\n        /* \"#utility.yul\":1888:1912   */\n      tag_167\n      jump\t// in\n    tag_254:\n        /* \"#utility.yul\":1883:1886   */\n      dup3\n        /* \"#utility.yul\":1876:1913   */\n      mstore\n        /* \"#utility.yul\":1801:1919   */\n      pop\n      pop\n      jump\t// out\n        /* \"#utility.yul\":1925:2024   */\n    tag_175:\n        /* \"#utility.yul\":1977:1983   */\n      0x00\n        /* \"#utility.yul\":2011:2016   */\n      dup2\n        /* \"#utility.yul\":2005:2017   */\n      mload\n        /* \"#utility.yul\":1995:2017   */\n      swap1\n      pop\n        /* \"#utility.yul\":1925:2024   */\n      swap2\n      swap1\n      pop\n      jump\t// out\n        /* \"#utility.yul\":2030:2199   */\n    tag_176:\n        /* \"#utility.yul\":2114:2125   */\n      0x00\n        /* \"#utility.yul\":2148:2154   */\n      dup3\n        /* \"#utility.yul\":2143:2146   */\n      dup3\n        /* \"#utility.yul\":2136:2155   */\n      mstore\n        /* \"#utility.yul\":2188:2192   */\n      0x20\n        /* \"#utility.yul\":2183:2186   */\n      dup3\n        /* \"#utility.yul\":2179:2193   */\n      add\n        /* \"#utility.yul\":2164:2193   */\n      swap1\n      pop\n        /* \"#utility.yul\":2030:2199   */\n      swap3\n      swap2\n      pop\n      pop\n      jump\t// out\n        /* \"#utility.yul\":2205:2344   */\n    tag_177:\n        /* \"#utility.yul\":2294:2300   */\n      dup3\n        /* \"#utility.yul\":2289:2292   */\n      dup2\n        /* \"#utility.yul\":2284:2287   */\n      dup4\n        /* \"#utility.yul\":2278:2301   */\n      mcopy\n        /* \"#utility.yul\":2335:2336   */\n      0x00\n        /* \"#utility.yul\":2326:2332   */\n      dup4\n        /* \"#utility.yul\":2321:2324   */\n      dup4\n        /* \"#utility.yul\":2317:2333   */\n      add\n        /* \"#utility.yul\":2310:2337   */\n      mstore\n        /* \"#utility.yul\":2205:2344   */\n      pop\n      pop\n      pop\n      jump\t// out\n        /* \"#utility.yul\":2350:2452   */\n    tag_178:\n        /* \"#utility.yul\":2391:2397   */\n      0x00\n        /* \"#utility.yul\":2442:2444   */\n      0x1f\n        /* \"#utility.yul\":2438:2445   */\n      not\n        /* \"#utility.yul\":2433:2435   */\n      0x1f\n        /* \"#utility.yul\":2426:2431   */\n      dup4\n        /* \"#utility.yul\":2422:2436   */\n      add\n        /* \"#utility.yul\":2418:2446   */\n      and\n        /* \"#utility.yul\":2408:2446   */\n      swap1\n      pop\n        /* \"#utility.yul\":2350:2452   */\n      swap2\n      swap1\n      pop\n      jump\t// out\n        /* \"#utility.yul\":2458:2835   */\n    tag_179:\n        /* \"#utility.yul\":2546:2549   */\n      0x00\n        /* \"#utility.yul\":2574:2613   */\n      tag_260\n        /* \"#utility.yul\":2607:2612   */\n      dup3\n        /* \"#utility.yul\":2574:2613   */\n      tag_175\n      jump\t// in\n    tag_260:\n        /* \"#utility.yul\":2629:2700   */\n      tag_261\n        /* \"#utility.yul\":2693:2699   */\n      dup2\n        /* \"#utility.yul\":2688:2691   */\n      dup6\n        /* \"#utility.yul\":2629:2700   */\n      tag_176\n      jump\t// in\n    tag_261:\n        /* \"#utility.yul\":2622:2700   */\n      swap4\n      pop\n        /* \"#utility.yul\":2709:2774   */\n      tag_262\n        /* \"#utility.yul\":2767:2773   */\n      dup2\n        /* \"#utility.yul\":2762:2765   */\n      dup6\n        /* \"#utility.yul\":2755:2759   */\n      0x20\n        /* \"#utility.yul\":2748:2753   */\n      dup7\n        /* \"#utility.yul\":2744:2760   */\n      add\n        /* \"#utility.yul\":2709:2774   */\n      tag_177\n      jump\t// in\n    tag_262:\n        /* \"#utility.yul\":2799:2828   */\n      tag_263\n        /* \"#utility.yul\":2821:2827   */\n      dup2\n        /* \"#utility.yul\":2799:2828   */\n      tag_178\n      jump\t// in\n    tag_263:\n        /* \"#utility.yul\":2794:2797   */\n      dup5\n        /* \"#utility.yul\":2790:2829   */\n      add\n        /* \"#utility.yul\":2783:2829   */\n      swap2\n      pop\n        /* \"#utility.yul\":2550:2835   */\n      pop\n        /* \"#utility.yul\":2458:2835   */\n      swap3\n      swap2\n      pop\n      pop\n      jump\t// out\n        /* \"#utility.yul\":2841:3596   */\n    tag_20:\n        /* \"#utility.yul\":3066:3070   */\n      0x00\n        /* \"#utility.yul\":3104:3107   */\n      0xa0\n        /* \"#utility.yul\":3093:3102   */\n      dup3\n        /* \"#utility.yul\":3089:3108   */\n      add\n        /* \"#utility.yul\":3081:3108   */\n      swap1\n      pop\n        /* \"#utility.yul\":3118:3189   */\n      tag_265\n        /* \"#utility.yul\":3186:3187   */\n      0x00\n        /* \"#utility.yul\":3175:3184   */\n      dup4\n        /* \"#utility.yul\":3171:3188   */\n      add\n        /* \"#utility.yul\":3162:3168   */\n      dup9\n        /* \"#utility.yul\":3118:3189   */\n      tag_173\n      jump\t// in\n    tag_265:\n        /* \"#utility.yul\":3199:3271   */\n      tag_266\n        /* \"#utility.yul\":3267:3269   */\n      0x20\n        /* \"#utility.yul\":3256:3265   */\n      dup4\n        /* \"#utility.yul\":3252:3270   */\n      add\n        /* \"#utility.yul\":3243:3249   */\n      dup8\n        /* \"#utility.yul\":3199:3271   */\n      tag_174\n      jump\t// in\n    tag_266:\n        /* \"#utility.yul\":3318:3327   */\n      dup2\n        /* \"#utility.yul\":3312:3316   */\n      dup2\n        /* \"#utility.yul\":3308:3328   */\n      sub\n        /* \"#utility.yul\":3303:3305   */\n      0x40\n        /* \"#utility.yul\":3292:3301   */\n      dup4\n        /* \"#utility.yul\":3288:3306   */\n      add\n        /* \"#utility.yul\":3281:3329   */\n      mstore\n        /* \"#utility.yul\":3346:3424   */\n      tag_267\n        /* \"#utility.yul\":3419:3423   */\n      dup2\n        /* \"#utility.yul\":3410:3416   */\n      dup7\n        /* \"#utility.yul\":3346:3424   */\n      tag_179\n      jump\t// in\n    tag_267:\n        /* \"#utility.yul\":3338:3424   */\n      swap1\n      pop\n        /* \"#utility.yul\":3434:3506   */\n      tag_268\n        /* \"#utility.yul\":3502:3504   */\n      0x60\n        /* \"#utility.yul\":3491:3500   */\n      dup4\n        /* \"#utility.yul\":3487:3505   */\n      add\n        /* \"#utility.yul\":3478:3484   */\n      dup6\n        /* \"#utility.yul\":3434:3506   */\n      tag_173\n      jump\t// in\n    tag_268:\n        /* \"#utility.yul\":3516:3589   */\n      tag_269\n        /* \"#utility.yul\":3584:3587   */\n      0x80\n        /* \"#utility.yul\":3573:3582   */\n      dup4\n        /* \"#utility.yul\":3569:3588   */\n      add\n        /* \"#utility.yul\":3560:3566   */\n      dup5\n        /* \"#utility.yul\":3516:3589   */\n      tag_173\n      jump\t// in\n    tag_269:\n        /* \"#utility.yul\":2841:3596   */\n      swap7\n      swap6\n      pop\n      pop\n      pop\n      pop\n      pop\n      pop\n      jump\t// out\n        /* \"#utility.yul\":3602:3931   */\n    tag_23:\n        /* \"#utility.yul\":3661:3667   */\n      0x00\n        /* \"#utility.yul\":3710:3712   */\n      0x20\n        /* \"#utility.yul\":3698:3707   */\n      dup3\n        /* \"#utility.yul\":3689:3696   */\n      dup5\n        /* \"#utility.yul\":3685:3708   */\n      sub\n        /* \"#utility.yul\":3681:3713   */\n      slt\n        /* \"#utility.yul\":3678:3797   */\n      iszero\n      tag_271\n      jumpi\n        /* \"#utility.yul\":3716:3795   */\n      tag_272\n      tag_164\n      jump\t// in\n    tag_272:\n        /* \"#utility.yul\":3678:3797   */\n    tag_271:\n        /* \"#utility.yul\":3836:3837   */\n      0x00\n        /* \"#utility.yul\":3861:3914   */\n      tag_273\n        /* \"#utility.yul\":3906:3913   */\n      dup5\n        /* \"#utility.yul\":3897:3903   */\n      dup3\n        /* \"#utility.yul\":3886:3895   */\n      dup6\n        /* \"#utility.yul\":3882:3904   */\n      add\n        /* \"#utility.yul\":3861:3914   */\n      tag_169\n      jump\t// in\n    tag_273:\n        /* \"#utility.yul\":3851:3914   */\n      swap2\n      pop\n        /* \"#utility.yul\":3807:3924   */\n      pop\n        /* \"#utility.yul\":3602:3931   */\n      swap3\n      swap2\n      pop\n      pop\n      jump\t// out\n        /* \"#utility.yul\":3937:4073   */\n    tag_180:\n        /* \"#utility.yul\":4026:4032   */\n      0x00\n        /* \"#utility.yul\":4060:4065   */\n      dup2\n        /* \"#utility.yul\":4054:4066   */\n      mload\n        /* \"#utility.yul\":4044:4066   */\n      swap1\n      pop\n        /* \"#utility.yul\":3937:4073   */\n      swap2\n      swap1\n      pop\n      jump\t// out\n        /* \"#utility.yul\":4079:4285   */\n    tag_181:\n        /* \"#utility.yul\":4200:4211   */\n      0x00\n        /* \"#utility.yul\":4234:4240   */\n      dup3\n        /* \"#utility.yul\":4229:4232   */\n      dup3\n        /* \"#utility.yul\":4222:4241   */\n      mstore\n        /* \"#utility.yul\":4274:4278   */\n      0x20\n        /* \"#utility.yul\":4269:4272   */\n      dup3\n        /* \"#utility.yul\":4265:4279   */\n      add\n        /* \"#utility.yul\":4250:4279   */\n      swap1\n      pop\n        /* \"#utility.yul\":4079:4285   */\n      swap3\n      swap2\n      pop\n      pop\n      jump\t// out\n        /* \"#utility.yul\":4291:4445   */\n    tag_182:\n        /* \"#utility.yul\":4380:4384   */\n      0x00\n        /* \"#utility.yul\":4403:4406   */\n      dup2\n        /* \"#utility.yul\":4395:4406   */\n      swap1\n      pop\n        /* \"#utility.yul\":4433:4437   */\n      0x20\n        /* \"#utility.yul\":4428:4431   */\n      dup3\n        /* \"#utility.yul\":4424:4438   */\n      add\n        /* \"#utility.yul\":4416:4438   */\n      swap1\n      pop\n        /* \"#utility.yul\":4291:4445   */\n      swap2\n      swap1\n      pop\n      jump\t// out\n        /* \"#utility.yul\":4451:4559   */\n    tag_183:\n        /* \"#utility.yul\":4528:4552   */\n      tag_278\n        /* \"#utility.yul\":4546:4551   */\n      dup2\n        /* \"#utility.yul\":4528:4552   */\n      tag_170\n      jump\t// in\n    tag_278:\n        /* \"#utility.yul\":4523:4526   */\n      dup3\n        /* \"#utility.yul\":4516:4553   */\n      mstore\n        /* \"#utility.yul\":4451:4559   */\n      pop\n      pop\n      jump\t// out\n        /* \"#utility.yul\":4565:4673   */\n    tag_184:\n        /* \"#utility.yul\":4642:4666   */\n      tag_280\n        /* \"#utility.yul\":4660:4665   */\n      dup2\n        /* \"#utility.yul\":4642:4666   */\n      tag_167\n      jump\t// in\n    tag_280:\n        /* \"#utility.yul\":4637:4640   */\n      dup3\n        /* \"#utility.yul\":4630:4667   */\n      mstore\n        /* \"#utility.yul\":4565:4673   */\n      pop\n      pop\n      jump\t// out\n        /* \"#utility.yul\":4679:4838   */\n    tag_185:\n        /* \"#utility.yul\":4753:4764   */\n      0x00\n        /* \"#utility.yul\":4787:4793   */\n      dup3\n        /* \"#utility.yul\":4782:4785   */\n      dup3\n        /* \"#utility.yul\":4775:4794   */\n      mstore\n        /* \"#utility.yul\":4827:4831   */\n      0x20\n        /* \"#utility.yul\":4822:4825   */\n      dup3\n        /* \"#utility.yul\":4818:4832   */\n      add\n        /* \"#utility.yul\":4803:4832   */\n      swap1\n      pop\n        /* \"#utility.yul\":4679:4838   */\n      swap3\n      swap2\n      pop\n      pop\n      jump\t// out\n        /* \"#utility.yul\":4844:5201   */\n    tag_186:\n        /* \"#utility.yul\":4922:4925   */\n      0x00\n        /* \"#utility.yul\":4950:4989   */\n      tag_283\n        /* \"#utility.yul\":4983:4988   */\n      dup3\n        /* \"#utility.yul\":4950:4989   */\n      tag_175\n      jump\t// in\n    tag_283:\n        /* \"#utility.yul\":5005:5066   */\n      tag_284\n        /* \"#utility.yul\":5059:5065   */\n      dup2\n        /* \"#utility.yul\":5054:5057   */\n      dup6\n        /* \"#utility.yul\":5005:5066   */\n      tag_185\n      jump\t// in\n    tag_284:\n        /* \"#utility.yul\":4998:5066   */\n      swap4\n      pop\n        /* \"#utility.yul\":5075:5140   */\n      tag_285\n        /* \"#utility.yul\":5133:5139   */\n      dup2\n        /* \"#utility.yul\":5128:5131   */\n      dup6\n        /* \"#utility.yul\":5121:5125   */\n      0x20\n        /* \"#utility.yul\":5114:5119   */\n      dup7\n        /* \"#utility.yul\":5110:5126   */\n      add\n        /* \"#utility.yul\":5075:5140   */\n      tag_177\n      jump\t// in\n    tag_285:\n        /* \"#utility.yul\":5165:5194   */\n      tag_286\n        /* \"#utility.yul\":5187:5193   */\n      dup2\n        /* \"#utility.yul\":5165:5194   */\n      tag_178\n      jump\t// in\n    tag_286:\n        /* \"#utility.yul\":5160:5163   */\n      dup5\n        /* \"#utility.yul\":5156:5195   */\n      add\n        /* \"#utility.yul\":5149:5195   */\n      swap2\n      pop\n        /* \"#utility.yul\":4926:5201   */\n      pop\n        /* \"#utility.yul\":4844:5201   */\n      swap3\n      swap2\n      pop\n      pop\n      jump\t// out\n        /* \"#utility.yul\":5259:6381   */\n    tag_187:\n        /* \"#utility.yul\":5362:5365   */\n      0x00\n        /* \"#utility.yul\":5398:5402   */\n      0xa0\n        /* \"#utility.yul\":5393:5396   */\n      dup4\n        /* \"#utility.yul\":5389:5403   */\n      add\n        /* \"#utility.yul\":5483:5487   */\n      0x00\n        /* \"#utility.yul\":5476:5481   */\n      dup4\n        /* \"#utility.yul\":5472:5488   */\n      add\n        /* \"#utility.yul\":5466:5489   */\n      mload\n        /* \"#utility.yul\":5502:5565   */\n      tag_288\n        /* \"#utility.yul\":5559:5563   */\n      0x00\n        /* \"#utility.yul\":5554:5557   */\n      dup7\n        /* \"#utility.yul\":5550:5564   */\n      add\n        /* \"#utility.yul\":5536:5548   */\n      dup3\n        /* \"#utility.yul\":5502:5565   */\n      tag_183\n      jump\t// in\n    tag_288:\n        /* \"#utility.yul\":5413:5575   */\n      pop\n        /* \"#utility.yul\":5659:5663   */\n      0x20\n        /* \"#utility.yul\":5652:5657   */\n      dup4\n        /* \"#utility.yul\":5648:5664   */\n      add\n        /* \"#utility.yul\":5642:5665   */\n      mload\n        /* \"#utility.yul\":5678:5741   */\n      tag_289\n        /* \"#utility.yul\":5735:5739   */\n      0x20\n        /* \"#utility.yul\":5730:5733   */\n      dup7\n        /* \"#utility.yul\":5726:5740   */\n      add\n        /* \"#utility.yul\":5712:5724   */\n      dup3\n        /* \"#utility.yul\":5678:5741   */\n      tag_184\n      jump\t// in\n    tag_289:\n        /* \"#utility.yul\":5585:5751   */\n      pop\n        /* \"#utility.yul\":5836:5840   */\n      0x40\n        /* \"#utility.yul\":5829:5834   */\n      dup4\n        /* \"#utility.yul\":5825:5841   */\n      add\n        /* \"#utility.yul\":5819:5842   */\n      mload\n        /* \"#utility.yul\":5889:5892   */\n      dup5\n        /* \"#utility.yul\":5883:5887   */\n      dup3\n        /* \"#utility.yul\":5879:5893   */\n      sub\n        /* \"#utility.yul\":5872:5876   */\n      0x40\n        /* \"#utility.yul\":5867:5870   */\n      dup7\n        /* \"#utility.yul\":5863:5877   */\n      add\n        /* \"#utility.yul\":5856:5894   */\n      mstore\n        /* \"#utility.yul\":5915:5988   */\n      tag_290\n        /* \"#utility.yul\":5983:5987   */\n      dup3\n        /* \"#utility.yul\":5969:5981   */\n      dup3\n        /* \"#utility.yul\":5915:5988   */\n      tag_186\n      jump\t// in\n    tag_290:\n        /* \"#utility.yul\":5907:5988   */\n      swap2\n      pop\n        /* \"#utility.yul\":5761:5999   */\n      pop\n        /* \"#utility.yul\":6087:6091   */\n      0x60\n        /* \"#utility.yul\":6080:6085   */\n      dup4\n        /* \"#utility.yul\":6076:6092   */\n      add\n        /* \"#utility.yul\":6070:6093   */\n      mload\n        /* \"#utility.yul\":6106:6169   */\n      tag_291\n        /* \"#utility.yul\":6163:6167   */\n      0x60\n        /* \"#utility.yul\":6158:6161   */\n      dup7\n        /* \"#utility.yul\":6154:6168   */\n      add\n        /* \"#utility.yul\":6140:6152   */\n      dup3\n        /* \"#utility.yul\":6106:6169   */\n      tag_183\n      jump\t// in\n    tag_291:\n        /* \"#utility.yul\":6009:6179   */\n      pop\n        /* \"#utility.yul\":6262:6266   */\n      0x80\n        /* \"#utility.yul\":6255:6260   */\n      dup4\n        /* \"#utility.yul\":6251:6267   */\n      add\n        /* \"#utility.yul\":6245:6268   */\n      mload\n        /* \"#utility.yul\":6281:6344   */\n      tag_292\n        /* \"#utility.yul\":6338:6342   */\n      0x80\n        /* \"#utility.yul\":6333:6336   */\n      dup7\n        /* \"#utility.yul\":6329:6343   */\n      add\n        /* \"#utility.yul\":6315:6327   */\n      dup3\n        /* \"#utility.yul\":6281:6344   */\n      tag_183\n      jump\t// in\n    tag_292:\n        /* \"#utility.yul\":6189:6354   */\n      pop\n        /* \"#utility.yul\":6371:6375   */\n      dup1\n        /* \"#utility.yul\":6364:6375   */\n      swap2\n      pop\n        /* \"#utility.yul\":5367:6381   */\n      pop\n        /* \"#utility.yul\":5259:6381   */\n      swap3\n      swap2\n      pop\n      pop\n      jump\t// out\n        /* \"#utility.yul\":6387:6631   */\n    tag_188:\n        /* \"#utility.yul\":6500:6510   */\n      0x00\n        /* \"#utility.yul\":6535:6625   */\n      tag_294\n        /* \"#utility.yul\":6621:6624   */\n      dup4\n        /* \"#utility.yul\":6613:6619   */\n      dup4\n        /* \"#utility.yul\":6535:6625   */\n      tag_187\n      jump\t// in\n    tag_294:\n        /* \"#utility.yul\":6521:6625   */\n      swap1\n      pop\n        /* \"#utility.yul\":6387:6631   */\n      swap3\n      swap2\n      pop\n      pop\n      jump\t// out\n        /* \"#utility.yul\":6637:6772   */\n    tag_189:\n        /* \"#utility.yul\":6729:6733   */\n      0x00\n        /* \"#utility.yul\":6761:6765   */\n      0x20\n        /* \"#utility.yul\":6756:6759   */\n      dup3\n        /* \"#utility.yul\":6752:6766   */\n      add\n        /* \"#utility.yul\":6744:6766   */\n      swap1\n      pop\n        /* \"#utility.yul\":6637:6772   */\n      swap2\n      swap1\n      pop\n      jump\t// out\n        /* \"#utility.yul\":6834:7921   */\n    tag_190:\n        /* \"#utility.yul\":6997:7000   */\n      0x00\n        /* \"#utility.yul\":7026:7102   */\n      tag_297\n        /* \"#utility.yul\":7096:7101   */\n      dup3\n        /* \"#utility.yul\":7026:7102   */\n      tag_180\n      jump\t// in\n    tag_297:\n        /* \"#utility.yul\":7118:7226   */\n      tag_298\n        /* \"#utility.yul\":7219:7225   */\n      dup2\n        /* \"#utility.yul\":7214:7217   */\n      dup6\n        /* \"#utility.yul\":7118:7226   */\n      tag_181\n      jump\t// in\n    tag_298:\n        /* \"#utility.yul\":7111:7226   */\n      swap4\n      pop\n        /* \"#utility.yul\":7252:7255   */\n      dup4\n        /* \"#utility.yul\":7297:7301   */\n      0x20\n        /* \"#utility.yul\":7289:7295   */\n      dup3\n        /* \"#utility.yul\":7285:7302   */\n      mul\n        /* \"#utility.yul\":7280:7283   */\n      dup6\n        /* \"#utility.yul\":7276:7303   */\n      add\n        /* \"#utility.yul\":7327:7405   */\n      tag_299\n        /* \"#utility.yul\":7399:7404   */\n      dup6\n        /* \"#utility.yul\":7327:7405   */\n      tag_182\n      jump\t// in\n    tag_299:\n        /* \"#utility.yul\":7428:7435   */\n      dup1\n        /* \"#utility.yul\":7459:7460   */\n      0x00\n        /* \"#utility.yul\":7444:7876   */\n    tag_300:\n        /* \"#utility.yul\":7469:7475   */\n      dup6\n        /* \"#utility.yul\":7466:7467   */\n      dup2\n        /* \"#utility.yul\":7463:7476   */\n      lt\n        /* \"#utility.yul\":7444:7876   */\n      iszero\n      tag_302\n      jumpi\n        /* \"#utility.yul\":7540:7549   */\n      dup5\n        /* \"#utility.yul\":7534:7538   */\n      dup5\n        /* \"#utility.yul\":7530:7550   */\n      sub\n        /* \"#utility.yul\":7525:7528   */\n      dup10\n        /* \"#utility.yul\":7518:7551   */\n      mstore\n        /* \"#utility.yul\":7591:7597   */\n      dup2\n        /* \"#utility.yul\":7585:7598   */\n      mload\n        /* \"#utility.yul\":7619:7727   */\n      tag_303\n        /* \"#utility.yul\":7722:7726   */\n      dup6\n        /* \"#utility.yul\":7707:7720   */\n      dup3\n        /* \"#utility.yul\":7619:7727   */\n      tag_188\n      jump\t// in\n    tag_303:\n        /* \"#utility.yul\":7611:7727   */\n      swap5\n      pop\n        /* \"#utility.yul\":7750:7832   */\n      tag_304\n        /* \"#utility.yul\":7825:7831   */\n      dup4\n        /* \"#utility.yul\":7750:7832   */\n      tag_189\n      jump\t// in\n    tag_304:\n        /* \"#utility.yul\":7740:7832   */\n      swap3\n      pop\n        /* \"#utility.yul\":7861:7865   */\n      0x20\n        /* \"#utility.yul\":7856:7859   */\n      dup11\n        /* \"#utility.yul\":7852:7866   */\n      add\n        /* \"#utility.yul\":7845:7866   */\n      swap10\n      pop\n        /* \"#utility.yul\":7504:7876   */\n      pop\n        /* \"#utility.yul\":7491:7492   */\n      0x01\n        /* \"#utility.yul\":7488:7489   */\n      dup2\n        /* \"#utility.yul\":7484:7493   */\n      add\n        /* \"#utility.yul\":7479:7493   */\n      swap1\n      pop\n        /* \"#utility.yul\":7444:7876   */\n      jump(tag_300)\n    tag_302:\n        /* \"#utility.yul\":7448:7462   */\n      pop\n        /* \"#utility.yul\":7892:7896   */\n      dup3\n        /* \"#utility.yul\":7885:7896   */\n      swap8\n      pop\n        /* \"#utility.yul\":7912:7915   */\n      dup8\n        /* \"#utility.yul\":7905:7915   */\n      swap6\n      pop\n        /* \"#utility.yul\":7002:7921   */\n      pop\n      pop\n      pop\n      pop\n      pop\n        /* \"#utility.yul\":6834:7921   */\n      swap3\n      swap2\n      pop\n      pop\n      jump\t// out\n        /* \"#utility.yul\":7927:8388   */\n    tag_26:\n        /* \"#utility.yul\":8114:8118   */\n      0x00\n        /* \"#utility.yul\":8152:8154   */\n      0x20\n        /* \"#utility.yul\":8141:8150   */\n      dup3\n        /* \"#utility.yul\":8137:8155   */\n      add\n        /* \"#utility.yul\":8129:8155   */\n      swap1\n      pop\n        /* \"#utility.yul\":8201:8210   */\n      dup2\n        /* \"#utility.yul\":8195:8199   */\n      dup2\n        /* \"#utility.yul\":8191:8211   */\n      sub\n        /* \"#utility.yul\":8187:8188   */\n      0x00\n        /* \"#utility.yul\":8176:8185   */\n      dup4\n        /* \"#utility.yul\":8172:8189   */\n      add\n        /* \"#utility.yul\":8165:8212   */\n      mstore\n        /* \"#utility.yul\":8229:8381   */\n      tag_306\n        /* \"#utility.yul\":8376:8380   */\n      dup2\n        /* \"#utility.yul\":8367:8373   */\n      dup5\n        /* \"#utility.yul\":8229:8381   */\n      tag_190\n      jump\t// in\n    tag_306:\n        /* \"#utility.yul\":8221:8381   */\n      swap1\n      pop\n        /* \"#utility.yul\":7927:8388   */\n      swap3\n      swap2\n      pop\n      pop\n      jump\t// out\n        /* \"#utility.yul\":8394:8483   */\n    tag_191:\n        /* \"#utility.yul\":8430:8437   */\n      0x00\n        /* \"#utility.yul\":8470:8476   */\n      0xffff\n        /* \"#utility.yul\":8463:8468   */\n      dup3\n        /* \"#utility.yul\":8459:8477   */\n      and\n        /* \"#utility.yul\":8448:8477   */\n      swap1\n      pop\n        /* \"#utility.yul\":8394:8483   */\n      swap2\n      swap1\n      pop\n      jump\t// out\n        /* \"#utility.yul\":8489:8609   */\n    tag_192:\n        /* \"#utility.yul\":8561:8584   */\n      tag_309\n        /* \"#utility.yul\":8578:8583   */\n      dup2\n        /* \"#utility.yul\":8561:8584   */\n      tag_191\n      jump\t// in\n    tag_309:\n        /* \"#utility.yul\":8554:8559   */\n      dup2\n        /* \"#utility.yul\":8551:8585   */\n      eq\n        /* \"#utility.yul\":8541:8603   */\n      tag_310\n      jumpi\n        /* \"#utility.yul\":8599:8600   */\n      0x00\n        /* \"#utility.yul\":8596:8597   */\n      dup1\n        /* \"#utility.yul\":8589:8601   */\n      revert\n        /* \"#utility.yul\":8541:8603   */\n    tag_310:\n        /* \"#utility.yul\":8489:8609   */\n      pop\n      jump\t// out\n        /* \"#utility.yul\":8615:8752   */\n    tag_193:\n        /* \"#utility.yul\":8660:8665   */\n      0x00\n        /* \"#utility.yul\":8698:8704   */\n      dup2\n        /* \"#utility.yul\":8685:8705   */\n      calldataload\n        /* \"#utility.yul\":8676:8705   */\n      swap1\n      pop\n        /* \"#utility.yul\":8714:8746   */\n      tag_312\n        /* \"#utility.yul\":8740:8745   */\n      dup2\n        /* \"#utility.yul\":8714:8746   */\n      tag_192\n      jump\t// in\n    tag_312:\n        /* \"#utility.yul\":8615:8752   */\n      swap3\n      swap2\n      pop\n      pop\n      jump\t// out\n        /* \"#utility.yul\":8758:9085   */\n    tag_32:\n        /* \"#utility.yul\":8816:8822   */\n      0x00\n        /* \"#utility.yul\":8865:8867   */\n      0x20\n        /* \"#utility.yul\":8853:8862   */\n      dup3\n        /* \"#utility.yul\":8844:8851   */\n      dup5\n        /* \"#utility.yul\":8840:8863   */\n      sub\n        /* \"#utility.yul\":8836:8868   */\n      slt\n        /* \"#utility.yul\":8833:8952   */\n      iszero\n      tag_314\n      jumpi\n        /* \"#utility.yul\":8871:8950   */\n      tag_315\n      tag_164\n      jump\t// in\n    tag_315:\n        /* \"#utility.yul\":8833:8952   */\n    tag_314:\n        /* \"#utility.yul\":8991:8992   */\n      0x00\n        /* \"#utility.yul\":9016:9068   */\n      tag_316\n        /* \"#utility.yul\":9060:9067   */\n      dup5\n        /* \"#utility.yul\":9051:9057   */\n      dup3\n        /* \"#utility.yul\":9040:9049   */\n      dup6\n        /* \"#utility.yul\":9036:9058   */\n      add\n        /* \"#utility.yul\":9016:9068   */\n      tag_193\n      jump\t// in\n    tag_316:\n        /* \"#utility.yul\":9006:9068   */\n      swap2\n      pop\n        /* \"#utility.yul\":8962:9078   */\n      pop\n        /* \"#utility.yul\":8758:9085   */\n      swap3\n      swap2\n      pop\n      pop\n      jump\t// out\n        /* \"#utility.yul\":9091:9206   */\n    tag_194:\n        /* \"#utility.yul\":9176:9199   */\n      tag_318\n        /* \"#utility.yul\":9193:9198   */\n      dup2\n        /* \"#utility.yul\":9176:9199   */\n      tag_191\n      jump\t// in\n    tag_318:\n        /* \"#utility.yul\":9171:9174   */\n      dup3\n        /* \"#utility.yul\":9164:9200   */\n      mstore\n        /* \"#utility.yul\":9091:9206   */\n      pop\n      pop\n      jump\t// out\n        /* \"#utility.yul\":9212:9430   */\n    tag_40:\n        /* \"#utility.yul\":9303:9307   */\n      0x00\n        /* \"#utility.yul\":9341:9343   */\n      0x20\n        /* \"#utility.yul\":9330:9339   */\n      dup3\n        /* \"#utility.yul\":9326:9344   */\n      add\n        /* \"#utility.yul\":9318:9344   */\n      swap1\n      pop\n        /* \"#utility.yul\":9354:9423   */\n      tag_320\n        /* \"#utility.yul\":9420:9421   */\n      0x00\n        /* \"#utility.yul\":9409:9418   */\n      dup4\n        /* \"#utility.yul\":9405:9422   */\n      add\n        /* \"#utility.yul\":9396:9402   */\n      dup5\n        /* \"#utility.yul\":9354:9423   */\n      tag_194\n      jump\t// in\n    tag_320:\n        /* \"#utility.yul\":9212:9430   */\n      swap3\n      swap2\n      pop\n      pop\n      jump\t// out\n        /* \"#utility.yul\":9436:9553   */\n    tag_195:\n        /* \"#utility.yul\":9545:9546   */\n      0x00\n        /* \"#utility.yul\":9542:9543   */\n      dup1\n        /* \"#utility.yul\":9535:9547   */\n      revert\n        /* \"#utility.yul\":9559:9676   */\n    tag_196:\n        /* \"#utility.yul\":9668:9669   */\n      0x00\n        /* \"#utility.yul\":9665:9666   */\n      dup1\n        /* \"#utility.yul\":9658:9670   */\n      revert\n        /* \"#utility.yul\":9682:9862   */\n    tag_197:\n        /* \"#utility.yul\":9730:9807   */\n      0x4e487b7100000000000000000000000000000000000000000000000000000000\n        /* \"#utility.yul\":9727:9728   */\n      0x00\n        /* \"#utility.yul\":9720:9808   */\n      mstore\n        /* \"#utility.yul\":9827:9831   */\n      0x41\n        /* \"#utility.yul\":9824:9825   */\n      0x04\n        /* \"#utility.yul\":9817:9832   */\n      mstore\n        /* \"#utility.yul\":9851:9855   */\n      0x24\n        /* \"#utility.yul\":9848:9849   */\n      0x00\n        /* \"#utility.yul\":9841:9856   */\n      revert\n        /* \"#utility.yul\":9868:10149   */\n    tag_198:\n        /* \"#utility.yul\":9951:9978   */\n      tag_325\n        /* \"#utility.yul\":9973:9977   */\n      dup3\n        /* \"#utility.yul\":9951:9978   */\n      tag_178\n      jump\t// in\n    tag_325:\n        /* \"#utility.yul\":9943:9949   */\n      dup2\n        /* \"#utility.yul\":9939:9979   */\n      add\n        /* \"#utility.yul\":10081:10087   */\n      dup2\n        /* \"#utility.yul\":10069:10079   */\n      dup2\n        /* \"#utility.yul\":10066:10088   */\n      lt\n        /* \"#utility.yul\":10045:10063   */\n      0xffffffffffffffff\n        /* \"#utility.yul\":10033:10043   */\n      dup3\n        /* \"#utility.yul\":10030:10064   */\n      gt\n        /* \"#utility.yul\":10027:10089   */\n      or\n        /* \"#utility.yul\":10024:10112   */\n      iszero\n      tag_326\n      jumpi\n        /* \"#utility.yul\":10092:10110   */\n      tag_327\n      tag_197\n      jump\t// in\n    tag_327:\n        /* \"#utility.yul\":10024:10112   */\n    tag_326:\n        /* \"#utility.yul\":10132:10142   */\n      dup1\n        /* \"#utility.yul\":10128:10130   */\n      0x40\n        /* \"#utility.yul\":10121:10143   */\n      mstore\n        /* \"#utility.yul\":9911:10149   */\n      pop\n        /* \"#utility.yul\":9868:10149   */\n      pop\n      pop\n      jump\t// out\n        /* \"#utility.yul\":10155:10284   */\n    tag_199:\n        /* \"#utility.yul\":10189:10195   */\n      0x00\n        /* \"#utility.yul\":10216:10236   */\n      tag_329\n      tag_163\n      jump\t// in\n    tag_329:\n        /* \"#utility.yul\":10206:10236   */\n      swap1\n      pop\n        /* \"#utility.yul\":10245:10278   */\n      tag_330\n        /* \"#utility.yul\":10273:10277   */\n      dup3\n        /* \"#utility.yul\":10265:10271   */\n      dup3\n        /* \"#utility.yul\":10245:10278   */\n      tag_198\n      jump\t// in\n    tag_330:\n        /* \"#utility.yul\":10155:10284   */\n      swap2\n      swap1\n      pop\n      jump\t// out\n        /* \"#utility.yul\":10290:10598   */\n    tag_200:\n        /* \"#utility.yul\":10352:10356   */\n      0x00\n        /* \"#utility.yul\":10442:10460   */\n      0xffffffffffffffff\n        /* \"#utility.yul\":10434:10440   */\n      dup3\n        /* \"#utility.yul\":10431:10461   */\n      gt\n        /* \"#utility.yul\":10428:10484   */\n      iszero\n      tag_332\n      jumpi\n        /* \"#utility.yul\":10464:10482   */\n      tag_333\n      tag_197\n      jump\t// in\n    tag_333:\n        /* \"#utility.yul\":10428:10484   */\n    tag_332:\n        /* \"#utility.yul\":10502:10531   */\n      tag_334\n        /* \"#utility.yul\":10524:10530   */\n      dup3\n        /* \"#utility.yul\":10502:10531   */\n      tag_178\n      jump\t// in\n    tag_334:\n        /* \"#utility.yul\":10494:10531   */\n      swap1\n      pop\n        /* \"#utility.yul\":10586:10590   */\n      0x20\n        /* \"#utility.yul\":10580:10584   */\n      dup2\n        /* \"#utility.yul\":10576:10591   */\n      add\n        /* \"#utility.yul\":10568:10591   */\n      swap1\n      pop\n        /* \"#utility.yul\":10290:10598   */\n      swap2\n      swap1\n      pop\n      jump\t// out\n        /* \"#utility.yul\":10604:10752   */\n    tag_201:\n        /* \"#utility.yul\":10702:10708   */\n      dup3\n        /* \"#utility.yul\":10697:10700   */\n      dup2\n        /* \"#utility.yul\":10692:10695   */\n      dup4\n        /* \"#utility.yul\":10679:10709   */\n      calldatacopy\n        /* \"#utility.yul\":10743:10744   */\n      0x00\n        /* \"#utility.yul\":10734:10740   */\n      dup4\n        /* \"#utility.yul\":10729:10732   */\n      dup4\n        /* \"#utility.yul\":10725:10741   */\n      add\n        /* \"#utility.yul\":10718:10745   */\n      mstore\n        /* \"#utility.yul\":10604:10752   */\n      pop\n      pop\n      pop\n      jump\t// out\n        /* \"#utility.yul\":10758:11183   */\n    tag_202:\n        /* \"#utility.yul\":10836:10841   */\n      0x00\n        /* \"#utility.yul\":10861:10927   */\n      tag_337\n        /* \"#utility.yul\":10877:10926   */\n      tag_338\n        /* \"#utility.yul\":10919:10925   */\n      dup5\n        /* \"#utility.yul\":10877:10926   */\n      tag_200\n      jump\t// in\n    tag_338:\n        /* \"#utility.yul\":10861:10927   */\n      tag_199\n      jump\t// in\n    tag_337:\n        /* \"#utility.yul\":10852:10927   */\n      swap1\n      pop\n        /* \"#utility.yul\":10950:10956   */\n      dup3\n        /* \"#utility.yul\":10943:10948   */\n      dup2\n        /* \"#utility.yul\":10936:10957   */\n      mstore\n        /* \"#utility.yul\":10988:10992   */\n      0x20\n        /* \"#utility.yul\":10981:10986   */\n      dup2\n        /* \"#utility.yul\":10977:10993   */\n      add\n        /* \"#utility.yul\":11026:11029   */\n      dup5\n        /* \"#utility.yul\":11017:11023   */\n      dup5\n        /* \"#utility.yul\":11012:11015   */\n      dup5\n        /* \"#utility.yul\":11008:11024   */\n      add\n        /* \"#utility.yul\":11005:11030   */\n      gt\n        /* \"#utility.yul\":11002:11114   */\n      iszero\n      tag_339\n      jumpi\n        /* \"#utility.yul\":11033:11112   */\n      tag_340\n      tag_196\n      jump\t// in\n    tag_340:\n        /* \"#utility.yul\":11002:11114   */\n    tag_339:\n        /* \"#utility.yul\":11123:11177   */\n      tag_341\n        /* \"#utility.yul\":11170:11176   */\n      dup5\n        /* \"#utility.yul\":11165:11168   */\n      dup3\n        /* \"#utility.yul\":11160:11163   */\n      dup6\n        /* \"#utility.yul\":11123:11177   */\n      tag_201\n      jump\t// in\n    tag_341:\n        /* \"#utility.yul\":10842:11183   */\n      pop\n        /* \"#utility.yul\":10758:11183   */\n      swap4\n      swap3\n      pop\n      pop\n      pop\n      jump\t// out\n        /* \"#utility.yul\":11203:11543   */\n    tag_203:\n        /* \"#utility.yul\":11259:11264   */\n      0x00\n        /* \"#utility.yul\":11308:11311   */\n      dup3\n        /* \"#utility.yul\":11301:11305   */\n      0x1f\n        /* \"#utility.yul\":11293:11299   */\n      dup4\n        /* \"#utility.yul\":11289:11306   */\n      add\n        /* \"#utility.yul\":11285:11312   */\n      slt\n        /* \"#utility.yul\":11275:11397   */\n      tag_343\n      jumpi\n        /* \"#utility.yul\":11316:11395   */\n      tag_344\n      tag_195\n      jump\t// in\n    tag_344:\n        /* \"#utility.yul\":11275:11397   */\n    tag_343:\n        /* \"#utility.yul\":11433:11439   */\n      dup2\n        /* \"#utility.yul\":11420:11440   */\n      calldataload\n        /* \"#utility.yul\":11458:11537   */\n      tag_345\n        /* \"#utility.yul\":11533:11536   */\n      dup5\n        /* \"#utility.yul\":11525:11531   */\n      dup3\n        /* \"#utility.yul\":11518:11522   */\n      0x20\n        /* \"#utility.yul\":11510:11516   */\n      dup7\n        /* \"#utility.yul\":11506:11523   */\n      add\n        /* \"#utility.yul\":11458:11537   */\n      tag_202\n      jump\t// in\n    tag_345:\n        /* \"#utility.yul\":11449:11537   */\n      swap2\n      pop\n        /* \"#utility.yul\":11265:11543   */\n      pop\n        /* \"#utility.yul\":11203:11543   */\n      swap3\n      swap2\n      pop\n      pop\n      jump\t// out\n        /* \"#utility.yul\":11549:12058   */\n    tag_45:\n        /* \"#utility.yul\":11618:11624   */\n      0x00\n        /* \"#utility.yul\":11667:11669   */\n      0x20\n        /* \"#utility.yul\":11655:11664   */\n      dup3\n        /* \"#utility.yul\":11646:11653   */\n      dup5\n        /* \"#utility.yul\":11642:11665   */\n      sub\n        /* \"#utility.yul\":11638:11670   */\n      slt\n        /* \"#utility.yul\":11635:11754   */\n      iszero\n      tag_347\n      jumpi\n        /* \"#utility.yul\":11673:11752   */\n      tag_348\n      tag_164\n      jump\t// in\n    tag_348:\n        /* \"#utility.yul\":11635:11754   */\n    tag_347:\n        /* \"#utility.yul\":11821:11822   */\n      0x00\n        /* \"#utility.yul\":11810:11819   */\n      dup3\n        /* \"#utility.yul\":11806:11823   */\n      add\n        /* \"#utility.yul\":11793:11824   */\n      calldataload\n        /* \"#utility.yul\":11851:11869   */\n      0xffffffffffffffff\n        /* \"#utility.yul\":11843:11849   */\n      dup2\n        /* \"#utility.yul\":11840:11870   */\n      gt\n        /* \"#utility.yul\":11837:11954   */\n      iszero\n      tag_349\n      jumpi\n        /* \"#utility.yul\":11873:11952   */\n      tag_350\n      tag_165\n      jump\t// in\n    tag_350:\n        /* \"#utility.yul\":11837:11954   */\n    tag_349:\n        /* \"#utility.yul\":11978:12041   */\n      tag_351\n        /* \"#utility.yul\":12033:12040   */\n      dup5\n        /* \"#utility.yul\":12024:12030   */\n      dup3\n        /* \"#utility.yul\":12013:12022   */\n      dup6\n        /* \"#utility.yul\":12009:12031   */\n      add\n        /* \"#utility.yul\":11978:12041   */\n      tag_203\n      jump\t// in\n    tag_351:\n        /* \"#utility.yul\":11968:12041   */\n      swap2\n      pop\n        /* \"#utility.yul\":11764:12051   */\n      pop\n        /* \"#utility.yul\":11549:12058   */\n      swap3\n      swap2\n      pop\n      pop\n      jump\t// out\n        /* \"#utility.yul\":12064:12286   */\n    tag_50:\n        /* \"#utility.yul\":12157:12161   */\n      0x00\n        /* \"#utility.yul\":12195:12197   */\n      0x20\n        /* \"#utility.yul\":12184:12193   */\n      dup3\n        /* \"#utility.yul\":12180:12198   */\n      add\n        /* \"#utility.yul\":12172:12198   */\n      swap1\n      pop\n        /* \"#utility.yul\":12208:12279   */\n      tag_353\n        /* \"#utility.yul\":12276:12277   */\n      0x00\n        /* \"#utility.yul\":12265:12274   */\n      dup4\n        /* \"#utility.yul\":12261:12278   */\n      add\n        /* \"#utility.yul\":12252:12258   */\n      dup5\n        /* \"#utility.yul\":12208:12279   */\n      tag_174\n      jump\t// in\n    tag_353:\n        /* \"#utility.yul\":12064:12286   */\n      swap3\n      swap2\n      pop\n      pop\n      jump\t// out\n        /* \"#utility.yul\":12292:12621   */\n    tag_53:\n        /* \"#utility.yul\":12351:12357   */\n      0x00\n        /* \"#utility.yul\":12400:12402   */\n      0x20\n        /* \"#utility.yul\":12388:12397   */\n      dup3\n        /* \"#utility.yul\":12379:12386   */\n      dup5\n        /* \"#utility.yul\":12375:12398   */\n      sub\n        /* \"#utility.yul\":12371:12403   */\n      slt\n        /* \"#utility.yul\":12368:12487   */\n      iszero\n      tag_355\n      jumpi\n        /* \"#utility.yul\":12406:12485   */\n      tag_356\n      tag_164\n      jump\t// in\n    tag_356:\n        /* \"#utility.yul\":12368:12487   */\n    tag_355:\n        /* \"#utility.yul\":12526:12527   */\n      0x00\n        /* \"#utility.yul\":12551:12604   */\n      tag_357\n        /* \"#utility.yul\":12596:12603   */\n      dup5\n        /* \"#utility.yul\":12587:12593   */\n      dup3\n        /* \"#utility.yul\":12576:12585   */\n      dup6\n        /* \"#utility.yul\":12572:12594   */\n      add\n        /* \"#utility.yul\":12551:12604   */\n      tag_172\n      jump\t// in\n    tag_357:\n        /* \"#utility.yul\":12541:12604   */\n      swap2\n      pop\n        /* \"#utility.yul\":12497:12614   */\n      pop\n        /* \"#utility.yul\":12292:12621   */\n      swap3\n      swap2\n      pop\n      pop\n      jump\t// out\n        /* \"#utility.yul\":12679:13811   */\n    tag_204:\n        /* \"#utility.yul\":12792:12795   */\n      0x00\n        /* \"#utility.yul\":12828:12832   */\n      0xa0\n        /* \"#utility.yul\":12823:12826   */\n      dup4\n        /* \"#utility.yul\":12819:12833   */\n      add\n        /* \"#utility.yul\":12913:12917   */\n      0x00\n        /* \"#utility.yul\":12906:12911   */\n      dup4\n        /* \"#utility.yul\":12902:12918   */\n      add\n        /* \"#utility.yul\":12896:12919   */\n      mload\n        /* \"#utility.yul\":12932:12995   */\n      tag_359\n        /* \"#utility.yul\":12989:12993   */\n      0x00\n        /* \"#utility.yul\":12984:12987   */\n      dup7\n        /* \"#utility.yul\":12980:12994   */\n      add\n        /* \"#utility.yul\":12966:12978   */\n      dup3\n        /* \"#utility.yul\":12932:12995   */\n      tag_183\n      jump\t// in\n    tag_359:\n        /* \"#utility.yul\":12843:13005   */\n      pop\n        /* \"#utility.yul\":13089:13093   */\n      0x20\n        /* \"#utility.yul\":13082:13087   */\n      dup4\n        /* \"#utility.yul\":13078:13094   */\n      add\n        /* \"#utility.yul\":13072:13095   */\n      mload\n        /* \"#utility.yul\":13108:13171   */\n      tag_360\n        /* \"#utility.yul\":13165:13169   */\n      0x20\n        /* \"#utility.yul\":13160:13163   */\n      dup7\n        /* \"#utility.yul\":13156:13170   */\n      add\n        /* \"#utility.yul\":13142:13154   */\n      dup3\n        /* \"#utility.yul\":13108:13171   */\n      tag_184\n      jump\t// in\n    tag_360:\n        /* \"#utility.yul\":13015:13181   */\n      pop\n        /* \"#utility.yul\":13266:13270   */\n      0x40\n        /* \"#utility.yul\":13259:13264   */\n      dup4\n        /* \"#utility.yul\":13255:13271   */\n      add\n        /* \"#utility.yul\":13249:13272   */\n      mload\n        /* \"#utility.yul\":13319:13322   */\n      dup5\n        /* \"#utility.yul\":13313:13317   */\n      dup3\n        /* \"#utility.yul\":13309:13323   */\n      sub\n        /* \"#utility.yul\":13302:13306   */\n      0x40\n        /* \"#utility.yul\":13297:13300   */\n      dup7\n        /* \"#utility.yul\":13293:13307   */\n      add\n        /* \"#utility.yul\":13286:13324   */\n      mstore\n        /* \"#utility.yul\":13345:13418   */\n      tag_361\n        /* \"#utility.yul\":13413:13417   */\n      dup3\n        /* \"#utility.yul\":13399:13411   */\n      dup3\n        /* \"#utility.yul\":13345:13418   */\n      tag_186\n      jump\t// in\n    tag_361:\n        /* \"#utility.yul\":13337:13418   */\n      swap2\n      pop\n        /* \"#utility.yul\":13191:13429   */\n      pop\n        /* \"#utility.yul\":13517:13521   */\n      0x60\n        /* \"#utility.yul\":13510:13515   */\n      dup4\n        /* \"#utility.yul\":13506:13522   */\n      add\n        /* \"#utility.yul\":13500:13523   */\n      mload\n        /* \"#utility.yul\":13536:13599   */\n      tag_362\n        /* \"#utility.yul\":13593:13597   */\n      0x60\n        /* \"#utility.yul\":13588:13591   */\n      dup7\n        /* \"#utility.yul\":13584:13598   */\n      add\n        /* \"#utility.yul\":13570:13582   */\n      dup3\n        /* \"#utility.yul\":13536:13599   */\n      tag_183\n      jump\t// in\n    tag_362:\n        /* \"#utility.yul\":13439:13609   */\n      pop\n        /* \"#utility.yul\":13692:13696   */\n      0x80\n        /* \"#utility.yul\":13685:13690   */\n      dup4\n        /* \"#utility.yul\":13681:13697   */\n      add\n        /* \"#utility.yul\":13675:13698   */\n      mload\n        /* \"#utility.yul\":13711:13774   */\n      tag_363\n        /* \"#utility.yul\":13768:13772   */\n      0x80\n        /* \"#utility.yul\":13763:13766   */\n      dup7\n        /* \"#utility.yul\":13759:13773   */\n      add\n        /* \"#utility.yul\":13745:13757   */\n      dup3\n        /* \"#utility.yul\":13711:13774   */\n      tag_183\n      jump\t// in\n    tag_363:\n        /* \"#utility.yul\":13619:13784   */\n      pop\n        /* \"#utility.yul\":13801:13805   */\n      dup1\n        /* \"#utility.yul\":13794:13805   */\n      swap2\n      pop\n        /* \"#utility.yul\":12797:13811   */\n      pop\n        /* \"#utility.yul\":12679:13811   */\n      swap3\n      swap2\n      pop\n      pop\n      jump\t// out\n        /* \"#utility.yul\":13817:14178   */\n    tag_56:\n        /* \"#utility.yul\":13954:13958   */\n      0x00\n        /* \"#utility.yul\":13992:13994   */\n      0x20\n        /* \"#utility.yul\":13981:13990   */\n      dup3\n        /* \"#utility.yul\":13977:13995   */\n      add\n        /* \"#utility.yul\":13969:13995   */\n      swap1\n      pop\n        /* \"#utility.yul\":14041:14050   */\n      dup2\n        /* \"#utility.yul\":14035:14039   */\n      dup2\n        /* \"#utility.yul\":14031:14051   */\n      sub\n        /* \"#utility.yul\":14027:14028   */\n      0x00\n        /* \"#utility.yul\":14016:14025   */\n      dup4\n        /* \"#utility.yul\":14012:14029   */\n      add\n        /* \"#utility.yul\":14005:14052   */\n      mstore\n        /* \"#utility.yul\":14069:14171   */\n      tag_365\n        /* \"#utility.yul\":14166:14170   */\n      dup2\n        /* \"#utility.yul\":14157:14163   */\n      dup5\n        /* \"#utility.yul\":14069:14171   */\n      tag_204\n      jump\t// in\n    tag_365:\n        /* \"#utility.yul\":14061:14171   */\n      swap1\n      pop\n        /* \"#utility.yul\":13817:14178   */\n      swap3\n      swap2\n      pop\n      pop\n      jump\t// out\n        /* \"#utility.yul\":14184:14364   */\n    tag_205:\n        /* \"#utility.yul\":14232:14309   */\n      0x4e487b7100000000000000000000000000000000000000000000000000000000\n        /* \"#utility.yul\":14229:14230   */\n      0x00\n        /* \"#utility.yul\":14222:14310   */\n      mstore\n        /* \"#utility.yul\":14329:14333   */\n      0x22\n        /* \"#utility.yul\":14326:14327   */\n      0x04\n        /* \"#utility.yul\":14319:14334   */\n      mstore\n        /* \"#utility.yul\":14353:14357   */\n      0x24\n        /* \"#utility.yul\":14350:14351   */\n      0x00\n        /* \"#utility.yul\":14343:14358   */\n      revert\n        /* \"#utility.yul\":14370:14690   */\n    tag_63:\n        /* \"#utility.yul\":14414:14420   */\n      0x00\n        /* \"#utility.yul\":14451:14452   */\n      0x02\n        /* \"#utility.yul\":14445:14449   */\n      dup3\n        /* \"#utility.yul\":14441:14453   */\n      div\n        /* \"#utility.yul\":14431:14453   */\n      swap1\n      pop\n        /* \"#utility.yul\":14498:14499   */\n      0x01\n        /* \"#utility.yul\":14492:14496   */\n      dup3\n        /* \"#utility.yul\":14488:14500   */\n      and\n        /* \"#utility.yul\":14519:14537   */\n      dup1\n        /* \"#utility.yul\":14509:14590   */\n      tag_368\n      jumpi\n        /* \"#utility.yul\":14575:14579   */\n      0x7f\n        /* \"#utility.yul\":14567:14573   */\n      dup3\n        /* \"#utility.yul\":14563:14580   */\n      and\n        /* \"#utility.yul\":14553:14580   */\n      swap2\n      pop\n        /* \"#utility.yul\":14509:14590   */\n    tag_368:\n        /* \"#utility.yul\":14637:14639   */\n      0x20\n        /* \"#utility.yul\":14629:14635   */\n      dup3\n        /* \"#utility.yul\":14626:14640   */\n      lt\n        /* \"#utility.yul\":14606:14624   */\n      dup2\n        /* \"#utility.yul\":14603:14641   */\n      sub\n        /* \"#utility.yul\":14600:14684   */\n      tag_369\n      jumpi\n        /* \"#utility.yul\":14656:14674   */\n      tag_370\n      tag_205\n      jump\t// in\n    tag_370:\n        /* \"#utility.yul\":14600:14684   */\n    tag_369:\n        /* \"#utility.yul\":14421:14690   */\n      pop\n        /* \"#utility.yul\":14370:14690   */\n      swap2\n      swap1\n      pop\n      jump\t// out\n        /* \"#utility.yul\":14696:14876   */\n    tag_81:\n        /* \"#utility.yul\":14744:14821   */\n      0x4e487b7100000000000000000000000000000000000000000000000000000000\n        /* \"#utility.yul\":14741:14742   */\n      0x00\n        /* \"#utility.yul\":14734:14822   */\n      mstore\n        /* \"#utility.yul\":14841:14845   */\n      0x32\n        /* \"#utility.yul\":14838:14839   */\n      0x04\n        /* \"#utility.yul\":14831:14846   */\n      mstore\n        /* \"#utility.yul\":14865:14869   */\n      0x24\n        /* \"#utility.yul\":14862:14863   */\n      0x00\n        /* \"#utility.yul\":14855:14870   */\n      revert\n        /* \"#utility.yul\":14882:15052   */\n    tag_206:\n        /* \"#utility.yul\":15022:15044   */\n      0x547765657420446f6573204e6f74204578697374000000000000000000000000\n        /* \"#utility.yul\":15018:15019   */\n      0x00\n        /* \"#utility.yul\":15010:15016   */\n      dup3\n        /* \"#utility.yul\":15006:15020   */\n      add\n        /* \"#utility.yul\":14999:15045   */\n      mstore\n        /* \"#utility.yul\":14882:15052   */\n      pop\n      jump\t// out\n        /* \"#utility.yul\":15058:15424   */\n    tag_207:\n        /* \"#utility.yul\":15200:15203   */\n      0x00\n        /* \"#utility.yul\":15221:15288   */\n      tag_374\n        /* \"#utility.yul\":15285:15287   */\n      0x14\n        /* \"#utility.yul\":15280:15283   */\n      dup4\n        /* \"#utility.yul\":15221:15288   */\n      tag_176\n      jump\t// in\n    tag_374:\n        /* \"#utility.yul\":15214:15288   */\n      swap2\n      pop\n        /* \"#utility.yul\":15297:15390   */\n      tag_375\n        /* \"#utility.yul\":15386:15389   */\n      dup3\n        /* \"#utility.yul\":15297:15390   */\n      tag_206\n      jump\t// in\n    tag_375:\n        /* \"#utility.yul\":15415:15417   */\n      0x20\n        /* \"#utility.yul\":15410:15413   */\n      dup3\n        /* \"#utility.yul\":15406:15418   */\n      add\n        /* \"#utility.yul\":15399:15418   */\n      swap1\n      pop\n        /* \"#utility.yul\":15058:15424   */\n      swap2\n      swap1\n      pop\n      jump\t// out\n        /* \"#utility.yul\":15430:15849   */\n    tag_85:\n        /* \"#utility.yul\":15596:15600   */\n      0x00\n        /* \"#utility.yul\":15634:15636   */\n      0x20\n        /* \"#utility.yul\":15623:15632   */\n      dup3\n        /* \"#utility.yul\":15619:15637   */\n      add\n        /* \"#utility.yul\":15611:15637   */\n      swap1\n      pop\n        /* \"#utility.yul\":15683:15692   */\n      dup2\n        /* \"#utility.yul\":15677:15681   */\n      dup2\n        /* \"#utility.yul\":15673:15693   */\n      sub\n        /* \"#utility.yul\":15669:15670   */\n      0x00\n        /* \"#utility.yul\":15658:15667   */\n      dup4\n        /* \"#utility.yul\":15654:15671   */\n      add\n        /* \"#utility.yul\":15647:15694   */\n      mstore\n        /* \"#utility.yul\":15711:15842   */\n      tag_377\n        /* \"#utility.yul\":15837:15841   */\n      dup2\n        /* \"#utility.yul\":15711:15842   */\n      tag_207\n      jump\t// in\n    tag_377:\n        /* \"#utility.yul\":15703:15842   */\n      swap1\n      pop\n        /* \"#utility.yul\":15430:15849   */\n      swap2\n      swap1\n      pop\n      jump\t// out\n        /* \"#utility.yul\":15855:16024   */\n    tag_208:\n        /* \"#utility.yul\":15995:16016   */\n      0x54776565747320686173206e6f206c696b657300000000000000000000000000\n        /* \"#utility.yul\":15991:15992   */\n      0x00\n        /* \"#utility.yul\":15983:15989   */\n      dup3\n        /* \"#utility.yul\":15979:15993   */\n      add\n        /* \"#utility.yul\":15972:16017   */\n      mstore\n        /* \"#utility.yul\":15855:16024   */\n      pop\n      jump\t// out\n        /* \"#utility.yul\":16030:16396   */\n    tag_209:\n        /* \"#utility.yul\":16172:16175   */\n      0x00\n        /* \"#utility.yul\":16193:16260   */\n      tag_380\n        /* \"#utility.yul\":16257:16259   */\n      0x13\n        /* \"#utility.yul\":16252:16255   */\n      dup4\n        /* \"#utility.yul\":16193:16260   */\n      tag_176\n      jump\t// in\n    tag_380:\n        /* \"#utility.yul\":16186:16260   */\n      swap2\n      pop\n        /* \"#utility.yul\":16269:16362   */\n      tag_381\n        /* \"#utility.yul\":16358:16361   */\n      dup3\n        /* \"#utility.yul\":16269:16362   */\n      tag_208\n      jump\t// in\n    tag_381:\n        /* \"#utility.yul\":16387:16389   */\n      0x20\n        /* \"#utility.yul\":16382:16385   */\n      dup3\n        /* \"#utility.yul\":16378:16390   */\n      add\n        /* \"#utility.yul\":16371:16390   */\n      swap1\n      pop\n        /* \"#utility.yul\":16030:16396   */\n      swap2\n      swap1\n      pop\n      jump\t// out\n        /* \"#utility.yul\":16402:16821   */\n    tag_91:\n        /* \"#utility.yul\":16568:16572   */\n      0x00\n        /* \"#utility.yul\":16606:16608   */\n      0x20\n        /* \"#utility.yul\":16595:16604   */\n      dup3\n        /* \"#utility.yul\":16591:16609   */\n      add\n        /* \"#utility.yul\":16583:16609   */\n      swap1\n      pop\n        /* \"#utility.yul\":16655:16664   */\n      dup2\n        /* \"#utility.yul\":16649:16653   */\n      dup2\n        /* \"#utility.yul\":16645:16665   */\n      sub\n        /* \"#utility.yul\":16641:16642   */\n      0x00\n        /* \"#utility.yul\":16630:16639   */\n      dup4\n        /* \"#utility.yul\":16626:16643   */\n      add\n        /* \"#utility.yul\":16619:16666   */\n      mstore\n        /* \"#utility.yul\":16683:16814   */\n      tag_383\n        /* \"#utility.yul\":16809:16813   */\n      dup2\n        /* \"#utility.yul\":16683:16814   */\n      tag_209\n      jump\t// in\n    tag_383:\n        /* \"#utility.yul\":16675:16814   */\n      swap1\n      pop\n        /* \"#utility.yul\":16402:16821   */\n      swap2\n      swap1\n      pop\n      jump\t// out\n        /* \"#utility.yul\":16827:17007   */\n    tag_210:\n        /* \"#utility.yul\":16875:16952   */\n      0x4e487b7100000000000000000000000000000000000000000000000000000000\n        /* \"#utility.yul\":16872:16873   */\n      0x00\n        /* \"#utility.yul\":16865:16953   */\n      mstore\n        /* \"#utility.yul\":16972:16976   */\n      0x11\n        /* \"#utility.yul\":16969:16970   */\n      0x04\n        /* \"#utility.yul\":16962:16977   */\n      mstore\n        /* \"#utility.yul\":16996:17000   */\n      0x24\n        /* \"#utility.yul\":16993:16994   */\n      0x00\n        /* \"#utility.yul\":16986:17001   */\n      revert\n        /* \"#utility.yul\":17013:17184   */\n    tag_96:\n        /* \"#utility.yul\":17052:17055   */\n      0x00\n        /* \"#utility.yul\":17075:17099   */\n      tag_386\n        /* \"#utility.yul\":17093:17098   */\n      dup3\n        /* \"#utility.yul\":17075:17099   */\n      tag_170\n      jump\t// in\n    tag_386:\n        /* \"#utility.yul\":17066:17099   */\n      swap2\n      pop\n        /* \"#utility.yul\":17121:17125   */\n      0x00\n        /* \"#utility.yul\":17114:17119   */\n      dup3\n        /* \"#utility.yul\":17111:17126   */\n      sub\n        /* \"#utility.yul\":17108:17149   */\n      tag_387\n      jumpi\n        /* \"#utility.yul\":17129:17147   */\n      tag_388\n      tag_210\n      jump\t// in\n    tag_388:\n        /* \"#utility.yul\":17108:17149   */\n    tag_387:\n        /* \"#utility.yul\":17176:17177   */\n      0x01\n        /* \"#utility.yul\":17169:17174   */\n      dup3\n        /* \"#utility.yul\":17165:17178   */\n      sub\n        /* \"#utility.yul\":17158:17178   */\n      swap1\n      pop\n        /* \"#utility.yul\":17013:17184   */\n      swap2\n      swap1\n      pop\n      jump\t// out\n        /* \"#utility.yul\":17190:17743   */\n    tag_101:\n        /* \"#utility.yul\":17367:17371   */\n      0x00\n        /* \"#utility.yul\":17405:17408   */\n      0x80\n        /* \"#utility.yul\":17394:17403   */\n      dup3\n        /* \"#utility.yul\":17390:17409   */\n      add\n        /* \"#utility.yul\":17382:17409   */\n      swap1\n      pop\n        /* \"#utility.yul\":17419:17490   */\n      tag_390\n        /* \"#utility.yul\":17487:17488   */\n      0x00\n        /* \"#utility.yul\":17476:17485   */\n      dup4\n        /* \"#utility.yul\":17472:17489   */\n      add\n        /* \"#utility.yul\":17463:17469   */\n      dup8\n        /* \"#utility.yul\":17419:17490   */\n      tag_174\n      jump\t// in\n    tag_390:\n        /* \"#utility.yul\":17500:17572   */\n      tag_391\n        /* \"#utility.yul\":17568:17570   */\n      0x20\n        /* \"#utility.yul\":17557:17566   */\n      dup4\n        /* \"#utility.yul\":17553:17571   */\n      add\n        /* \"#utility.yul\":17544:17550   */\n      dup7\n        /* \"#utility.yul\":17500:17572   */\n      tag_174\n      jump\t// in\n    tag_391:\n        /* \"#utility.yul\":17582:17654   */\n      tag_392\n        /* \"#utility.yul\":17650:17652   */\n      0x40\n        /* \"#utility.yul\":17639:17648   */\n      dup4\n        /* \"#utility.yul\":17635:17653   */\n      add\n        /* \"#utility.yul\":17626:17632   */\n      dup6\n        /* \"#utility.yul\":17582:17654   */\n      tag_173\n      jump\t// in\n    tag_392:\n        /* \"#utility.yul\":17664:17736   */\n      tag_393\n        /* \"#utility.yul\":17732:17734   */\n      0x60\n        /* \"#utility.yul\":17721:17730   */\n      dup4\n        /* \"#utility.yul\":17717:17735   */\n      add\n        /* \"#utility.yul\":17708:17714   */\n      dup5\n        /* \"#utility.yul\":17664:17736   */\n      tag_173\n      jump\t// in\n    tag_393:\n        /* \"#utility.yul\":17190:17743   */\n      swap6\n      swap5\n      pop\n      pop\n      pop\n      pop\n      pop\n      jump\t// out\n        /* \"#utility.yul\":17749:17982   */\n    tag_117:\n        /* \"#utility.yul\":17788:17791   */\n      0x00\n        /* \"#utility.yul\":17811:17835   */\n      tag_395\n        /* \"#utility.yul\":17829:17834   */\n      dup3\n        /* \"#utility.yul\":17811:17835   */\n      tag_170\n      jump\t// in\n    tag_395:\n        /* \"#utility.yul\":17802:17835   */\n      swap2\n      pop\n        /* \"#utility.yul\":17857:17923   */\n      0xffffffffffffffffffffffffffffffffffffffffffffffffffffffffffffffff\n        /* \"#utility.yul\":17850:17855   */\n      dup3\n        /* \"#utility.yul\":17847:17924   */\n      sub\n        /* \"#utility.yul\":17844:17947   */\n      tag_396\n      jumpi\n        /* \"#utility.yul\":17927:17945   */\n      tag_397\n      tag_210\n      jump\t// in\n    tag_397:\n        /* \"#utility.yul\":17844:17947   */\n    tag_396:\n        /* \"#utility.yul\":17974:17975   */\n      0x01\n        /* \"#utility.yul\":17967:17972   */\n      dup3\n        /* \"#utility.yul\":17963:17976   */\n      add\n        /* \"#utility.yul\":17956:17976   */\n      swap1\n      pop\n        /* \"#utility.yul\":17749:17982   */\n      swap2\n      swap1\n      pop\n      jump\t// out\n        /* \"#utility.yul\":17988:18161   */\n    tag_211:\n        /* \"#utility.yul\":18128:18153   */\n      0x547765657420697320746f6f206c6f6e672062726f3a20000000000000000000\n        /* \"#utility.yul\":18124:18125   */\n      0x00\n        /* \"#utility.yul\":18116:18122   */\n      dup3\n        /* \"#utility.yul\":18112:18126   */\n      add\n        /* \"#utility.yul\":18105:18154   */\n      mstore\n        /* \"#utility.yul\":17988:18161   */\n      pop\n      jump\t// out\n        /* \"#utility.yul\":18167:18533   */\n    tag_212:\n        /* \"#utility.yul\":18309:18312   */\n      0x00\n        /* \"#utility.yul\":18330:18397   */\n      tag_400\n        /* \"#utility.yul\":18394:18396   */\n      0x17\n        /* \"#utility.yul\":18389:18392   */\n      dup4\n        /* \"#utility.yul\":18330:18397   */\n      tag_176\n      jump\t// in\n    tag_400:\n        /* \"#utility.yul\":18323:18397   */\n      swap2\n      pop\n        /* \"#utility.yul\":18406:18499   */\n      tag_401\n        /* \"#utility.yul\":18495:18498   */\n      dup3\n        /* \"#utility.yul\":18406:18499   */\n      tag_211\n      jump\t// in\n    tag_401:\n        /* \"#utility.yul\":18524:18526   */\n      0x20\n        /* \"#utility.yul\":18519:18522   */\n      dup3\n        /* \"#utility.yul\":18515:18527   */\n      add\n        /* \"#utility.yul\":18508:18527   */\n      swap1\n      pop\n        /* \"#utility.yul\":18167:18533   */\n      swap2\n      swap1\n      pop\n      jump\t// out\n        /* \"#utility.yul\":18539:18958   */\n    tag_130:\n        /* \"#utility.yul\":18705:18709   */\n      0x00\n        /* \"#utility.yul\":18743:18745   */\n      0x20\n        /* \"#utility.yul\":18732:18741   */\n      dup3\n        /* \"#utility.yul\":18728:18746   */\n      add\n        /* \"#utility.yul\":18720:18746   */\n      swap1\n      pop\n        /* \"#utility.yul\":18792:18801   */\n      dup2\n        /* \"#utility.yul\":18786:18790   */\n      dup2\n        /* \"#utility.yul\":18782:18802   */\n      sub\n        /* \"#utility.yul\":18778:18779   */\n      0x00\n        /* \"#utility.yul\":18767:18776   */\n      dup4\n        /* \"#utility.yul\":18763:18780   */\n      add\n        /* \"#utility.yul\":18756:18803   */\n      mstore\n        /* \"#utility.yul\":18820:18951   */\n      tag_403\n        /* \"#utility.yul\":18946:18950   */\n      dup2\n        /* \"#utility.yul\":18820:18951   */\n      tag_212\n      jump\t// in\n    tag_403:\n        /* \"#utility.yul\":18812:18951   */\n      swap1\n      pop\n        /* \"#utility.yul\":18539:18958   */\n      swap2\n      swap1\n      pop\n      jump\t// out\n        /* \"#utility.yul\":18964:19105   */\n    tag_213:\n        /* \"#utility.yul\":19013:19017   */\n      0x00\n        /* \"#utility.yul\":19036:19039   */\n      dup2\n        /* \"#utility.yul\":19028:19039   */\n      swap1\n      pop\n        /* \"#utility.yul\":19059:19062   */\n      dup2\n        /* \"#utility.yul\":19056:19057   */\n      0x00\n        /* \"#utility.yul\":19049:19063   */\n      mstore\n        /* \"#utility.yul\":19093:19097   */\n      0x20\n        /* \"#utility.yul\":19090:19091   */\n      0x00\n        /* \"#utility.yul\":19080:19098   */\n      keccak256\n        /* \"#utility.yul\":19072:19098   */\n      swap1\n      pop\n        /* \"#utility.yul\":18964:19105   */\n      swap2\n      swap1\n      pop\n      jump\t// out\n        /* \"#utility.yul\":19111:19204   */\n    tag_214:\n        /* \"#utility.yul\":19148:19154   */\n      0x00\n        /* \"#utility.yul\":19195:19197   */\n      0x20\n        /* \"#utility.yul\":19190:19192   */\n      0x1f\n        /* \"#utility.yul\":19183:19188   */\n      dup4\n        /* \"#utility.yul\":19179:19193   */\n      add\n        /* \"#utility.yul\":19175:19198   */\n      div\n        /* \"#utility.yul\":19165:19198   */\n      swap1\n      pop\n        /* \"#utility.yul\":19111:19204   */\n      swap2\n      swap1\n      pop\n      jump\t// out\n        /* \"#utility.yul\":19210:19317   */\n    tag_215:\n        /* \"#utility.yul\":19254:19262   */\n      0x00\n        /* \"#utility.yul\":19304:19309   */\n      dup3\n        /* \"#utility.yul\":19298:19302   */\n      dup3\n        /* \"#utility.yul\":19294:19310   */\n      shl\n        /* \"#utility.yul\":19273:19310   */\n      swap1\n      pop\n        /* \"#utility.yul\":19210:19317   */\n      swap3\n      swap2\n      pop\n      pop\n      jump\t// out\n        /* \"#utility.yul\":19323:19716   */\n    tag_216:\n        /* \"#utility.yul\":19392:19398   */\n      0x00\n        /* \"#utility.yul\":19442:19443   */\n      0x08\n        /* \"#utility.yul\":19430:19440   */\n      dup4\n        /* \"#utility.yul\":19426:19444   */\n      mul\n        /* \"#utility.yul\":19465:19562   */\n      tag_408\n        /* \"#utility.yul\":19495:19561   */\n      0xffffffffffffffffffffffffffffffffffffffffffffffffffffffffffffffff\n        /* \"#utility.yul\":19484:19493   */\n      dup3\n        /* \"#utility.yul\":19465:19562   */\n      tag_215\n      jump\t// in\n    tag_408:\n        /* \"#utility.yul\":19583:19622   */\n      tag_409\n        /* \"#utility.yul\":19613:19621   */\n      dup7\n        /* \"#utility.yul\":19602:19611   */\n      dup4\n        /* \"#utility.yul\":19583:19622   */\n      tag_215\n      jump\t// in\n    tag_409:\n        /* \"#utility.yul\":19571:19622   */\n      swap6\n      pop\n        /* \"#utility.yul\":19655:19659   */\n      dup1\n        /* \"#utility.yul\":19651:19660   */\n      not\n        /* \"#utility.yul\":19644:19649   */\n      dup5\n        /* \"#utility.yul\":19640:19661   */\n      and\n        /* \"#utility.yul\":19631:19661   */\n      swap4\n      pop\n        /* \"#utility.yul\":19704:19708   */\n      dup1\n        /* \"#utility.yul\":19694:19702   */\n      dup7\n        /* \"#utility.yul\":19690:19709   */\n      and\n        /* \"#utility.yul\":19683:19688   */\n      dup5\n        /* \"#utility.yul\":19680:19710   */\n      or\n        /* \"#utility.yul\":19670:19710   */\n      swap3\n      pop\n        /* \"#utility.yul\":19399:19716   */\n      pop\n      pop\n        /* \"#utility.yul\":19323:19716   */\n      swap4\n      swap3\n      pop\n      pop\n      pop\n      jump\t// out\n        /* \"#utility.yul\":19722:19782   */\n    tag_217:\n        /* \"#utility.yul\":19750:19753   */\n      0x00\n        /* \"#utility.yul\":19771:19776   */\n      dup2\n        /* \"#utility.yul\":19764:19776   */\n      swap1\n      pop\n        /* \"#utility.yul\":19722:19782   */\n      swap2\n      swap1\n      pop\n      jump\t// out\n        /* \"#utility.yul\":19788:19930   */\n    tag_218:\n        /* \"#utility.yul\":19838:19847   */\n      0x00\n        /* \"#utility.yul\":19871:19924   */\n      tag_412\n        /* \"#utility.yul\":19889:19923   */\n      tag_413\n        /* \"#utility.yul\":19898:19922   */\n      tag_414\n        /* \"#utility.yul\":19916:19921   */\n      dup5\n        /* \"#utility.yul\":19898:19922   */\n      tag_170\n      jump\t// in\n    tag_414:\n        /* \"#utility.yul\":19889:19923   */\n      tag_217\n      jump\t// in\n    tag_413:\n        /* \"#utility.yul\":19871:19924   */\n      tag_170\n      jump\t// in\n    tag_412:\n        /* \"#utility.yul\":19858:19924   */\n      swap1\n      pop\n        /* \"#utility.yul\":19788:19930   */\n      swap2\n      swap1\n      pop\n      jump\t// out\n        /* \"#utility.yul\":19936:20011   */\n    tag_219:\n        /* \"#utility.yul\":19979:19982   */\n      0x00\n        /* \"#utility.yul\":20000:20005   */\n      dup2\n        /* \"#utility.yul\":19993:20005   */\n      swap1\n      pop\n        /* \"#utility.yul\":19936:20011   */\n      swap2\n      swap1\n      pop\n      jump\t// out\n        /* \"#utility.yul\":20017:20286   */\n    tag_220:\n        /* \"#utility.yul\":20127:20166   */\n      tag_417\n        /* \"#utility.yul\":20158:20165   */\n      dup4\n        /* \"#utility.yul\":20127:20166   */\n      tag_218\n      jump\t// in\n    tag_417:\n        /* \"#utility.yul\":20188:20279   */\n      tag_418\n        /* \"#utility.yul\":20237:20278   */\n      tag_419\n        /* \"#utility.yul\":20261:20277   */\n      dup3\n        /* \"#utility.yul\":20237:20278   */\n      tag_219\n      jump\t// in\n    tag_419:\n        /* \"#utility.yul\":20229:20235   */\n      dup5\n        /* \"#utility.yul\":20222:20226   */\n      dup5\n        /* \"#utility.yul\":20216:20227   */\n      sload\n        /* \"#utility.yul\":20188:20279   */\n      tag_216\n      jump\t// in\n    tag_418:\n        /* \"#utility.yul\":20182:20186   */\n      dup3\n        /* \"#utility.yul\":20175:20280   */\n      sstore\n        /* \"#utility.yul\":20093:20286   */\n      pop\n        /* \"#utility.yul\":20017:20286   */\n      pop\n      pop\n      pop\n      jump\t// out\n        /* \"#utility.yul\":20292:20365   */\n    tag_221:\n        /* \"#utility.yul\":20337:20340   */\n      0x00\n        /* \"#utility.yul\":20292:20365   */\n      swap1\n      jump\t// out\n        /* \"#utility.yul\":20371:20560   */\n    tag_222:\n        /* \"#utility.yul\":20448:20480   */\n      tag_422\n      tag_221\n      jump\t// in\n    tag_422:\n        /* \"#utility.yul\":20489:20554   */\n      tag_423\n        /* \"#utility.yul\":20547:20553   */\n      dup2\n        /* \"#utility.yul\":20539:20545   */\n      dup5\n        /* \"#utility.yul\":20533:20537   */\n      dup5\n        /* \"#utility.yul\":20489:20554   */\n      tag_220\n      jump\t// in\n    tag_423:\n        /* \"#utility.yul\":20424:20560   */\n      pop\n        /* \"#utility.yul\":20371:20560   */\n      pop\n      pop\n      jump\t// out\n        /* \"#utility.yul\":20566:20752   */\n    tag_223:\n        /* \"#utility.yul\":20626:20746   */\n    tag_425:\n        /* \"#utility.yul\":20643:20646   */\n      dup2\n        /* \"#utility.yul\":20636:20641   */\n      dup2\n        /* \"#utility.yul\":20633:20647   */\n      lt\n        /* \"#utility.yul\":20626:20746   */\n      iszero\n      tag_427\n      jumpi\n        /* \"#utility.yul\":20697:20736   */\n      tag_428\n        /* \"#utility.yul\":20734:20735   */\n      0x00\n        /* \"#utility.yul\":20727:20732   */\n      dup3\n        /* \"#utility.yul\":20697:20736   */\n      tag_222\n      jump\t// in\n    tag_428:\n        /* \"#utility.yul\":20670:20671   */\n      0x01\n        /* \"#utility.yul\":20663:20668   */\n      dup2\n        /* \"#utility.yul\":20659:20672   */\n      add\n        /* \"#utility.yul\":20650:20672   */\n      swap1\n      pop\n        /* \"#utility.yul\":20626:20746   */\n      jump(tag_425)\n    tag_427:\n        /* \"#utility.yul\":20566:20752   */\n      pop\n      pop\n      jump\t// out\n        /* \"#utility.yul\":20758:21301   */\n    tag_224:\n        /* \"#utility.yul\":20859:20861   */\n      0x1f\n        /* \"#utility.yul\":20854:20857   */\n      dup3\n        /* \"#utility.yul\":20851:20862   */\n      gt\n        /* \"#utility.yul\":20848:21294   */\n      iszero\n      tag_430\n      jumpi\n        /* \"#utility.yul\":20893:20931   */\n      tag_431\n        /* \"#utility.yul\":20925:20930   */\n      dup2\n        /* \"#utility.yul\":20893:20931   */\n      tag_213\n      jump\t// in\n    tag_431:\n        /* \"#utility.yul\":20977:21006   */\n      tag_432\n        /* \"#utility.yul\":20995:21005   */\n      dup5\n        /* \"#utility.yul\":20977:21006   */\n      tag_214\n      jump\t// in\n    tag_432:\n        /* \"#utility.yul\":20967:20975   */\n      dup2\n        /* \"#utility.yul\":20963:21007   */\n      add\n        /* \"#utility.yul\":21160:21162   */\n      0x20\n        /* \"#utility.yul\":21148:21158   */\n      dup6\n        /* \"#utility.yul\":21145:21163   */\n      lt\n        /* \"#utility.yul\":21142:21191   */\n      iszero\n      tag_433\n      jumpi\n        /* \"#utility.yul\":21181:21189   */\n      dup2\n        /* \"#utility.yul\":21166:21189   */\n      swap1\n      pop\n        /* \"#utility.yul\":21142:21191   */\n    tag_433:\n        /* \"#utility.yul\":21204:21284   */\n      tag_434\n        /* \"#utility.yul\":21260:21282   */\n      tag_435\n        /* \"#utility.yul\":21278:21281   */\n      dup6\n        /* \"#utility.yul\":21260:21282   */\n      tag_214\n      jump\t// in\n    tag_435:\n        /* \"#utility.yul\":21250:21258   */\n      dup4\n        /* \"#utility.yul\":21246:21283   */\n      add\n        /* \"#utility.yul\":21233:21244   */\n      dup3\n        /* \"#utility.yul\":21204:21284   */\n      tag_223\n      jump\t// in\n    tag_434:\n        /* \"#utility.yul\":20863:21294   */\n      pop\n      pop\n        /* \"#utility.yul\":20848:21294   */\n    tag_430:\n        /* \"#utility.yul\":20758:21301   */\n      pop\n      pop\n      pop\n      jump\t// out\n        /* \"#utility.yul\":21307:21424   */\n    tag_225:\n        /* \"#utility.yul\":21361:21369   */\n      0x00\n        /* \"#utility.yul\":21411:21416   */\n      dup3\n        /* \"#utility.yul\":21405:21409   */\n      dup3\n        /* \"#utility.yul\":21401:21417   */\n      shr\n        /* \"#utility.yul\":21380:21417   */\n      swap1\n      pop\n        /* \"#utility.yul\":21307:21424   */\n      swap3\n      swap2\n      pop\n      pop\n      jump\t// out\n        /* \"#utility.yul\":21430:21599   */\n    tag_226:\n        /* \"#utility.yul\":21474:21480   */\n      0x00\n        /* \"#utility.yul\":21507:21558   */\n      tag_438\n        /* \"#utility.yul\":21555:21556   */\n      0x00\n        /* \"#utility.yul\":21551:21557   */\n      not\n        /* \"#utility.yul\":21543:21548   */\n      dup5\n        /* \"#utility.yul\":21540:21541   */\n      0x08\n        /* \"#utility.yul\":21536:21549   */\n      mul\n        /* \"#utility.yul\":21507:21558   */\n      tag_225\n      jump\t// in\n    tag_438:\n        /* \"#utility.yul\":21503:21559   */\n      not\n        /* \"#utility.yul\":21588:21592   */\n      dup1\n        /* \"#utility.yul\":21582:21586   */\n      dup4\n        /* \"#utility.yul\":21578:21593   */\n      and\n        /* \"#utility.yul\":21568:21593   */\n      swap2\n      pop\n        /* \"#utility.yul\":21481:21599   */\n      pop\n        /* \"#utility.yul\":21430:21599   */\n      swap3\n      swap2\n      pop\n      pop\n      jump\t// out\n        /* \"#utility.yul\":21604:21899   */\n    tag_227:\n        /* \"#utility.yul\":21680:21684   */\n      0x00\n        /* \"#utility.yul\":21826:21855   */\n      tag_440\n        /* \"#utility.yul\":21851:21854   */\n      dup4\n        /* \"#utility.yul\":21845:21849   */\n      dup4\n        /* \"#utility.yul\":21826:21855   */\n      tag_226\n      jump\t// in\n    tag_440:\n        /* \"#utility.yul\":21818:21855   */\n      swap2\n      pop\n        /* \"#utility.yul\":21888:21891   */\n      dup3\n        /* \"#utility.yul\":21885:21886   */\n      0x02\n        /* \"#utility.yul\":21881:21892   */\n      mul\n        /* \"#utility.yul\":21875:21879   */\n      dup3\n        /* \"#utility.yul\":21872:21893   */\n      or\n        /* \"#utility.yul\":21864:21893   */\n      swap1\n      pop\n        /* \"#utility.yul\":21604:21899   */\n      swap3\n      swap2\n      pop\n      pop\n      jump\t// out\n        /* \"#utility.yul\":21904:23299   */\n    tag_133:\n        /* \"#utility.yul\":22021:22058   */\n      tag_442\n        /* \"#utility.yul\":22054:22057   */\n      dup3\n        /* \"#utility.yul\":22021:22058   */\n      tag_175\n      jump\t// in\n    tag_442:\n        /* \"#utility.yul\":22123:22141   */\n      0xffffffffffffffff\n        /* \"#utility.yul\":22115:22121   */\n      dup2\n        /* \"#utility.yul\":22112:22142   */\n      gt\n        /* \"#utility.yul\":22109:22165   */\n      iszero\n      tag_443\n      jumpi\n        /* \"#utility.yul\":22145:22163   */\n      tag_444\n      tag_197\n      jump\t// in\n    tag_444:\n        /* \"#utility.yul\":22109:22165   */\n    tag_443:\n        /* \"#utility.yul\":22189:22227   */\n      tag_445\n        /* \"#utility.yul\":22221:22225   */\n      dup3\n        /* \"#utility.yul\":22215:22226   */\n      sload\n        /* \"#utility.yul\":22189:22227   */\n      tag_63\n      jump\t// in\n    tag_445:\n        /* \"#utility.yul\":22274:22341   */\n      tag_446\n        /* \"#utility.yul\":22334:22340   */\n      dup3\n        /* \"#utility.yul\":22326:22332   */\n      dup3\n        /* \"#utility.yul\":22320:22324   */\n      dup6\n        /* \"#utility.yul\":22274:22341   */\n      tag_224\n      jump\t// in\n    tag_446:\n        /* \"#utility.yul\":22368:22369   */\n      0x00\n        /* \"#utility.yul\":22392:22396   */\n      0x20\n        /* \"#utility.yul\":22379:22396   */\n      swap1\n      pop\n        /* \"#utility.yul\":22424:22426   */\n      0x1f\n        /* \"#utility.yul\":22416:22422   */\n      dup4\n        /* \"#utility.yul\":22413:22427   */\n      gt\n        /* \"#utility.yul\":22441:22442   */\n      0x01\n        /* \"#utility.yul\":22436:23054   */\n      dup2\n      eq\n      tag_448\n      jumpi\n        /* \"#utility.yul\":23098:23099   */\n      0x00\n        /* \"#utility.yul\":23115:23121   */\n      dup5\n        /* \"#utility.yul\":23112:23189   */\n      iszero\n      tag_449\n      jumpi\n        /* \"#utility.yul\":23164:23173   */\n      dup3\n        /* \"#utility.yul\":23159:23162   */\n      dup8\n        /* \"#utility.yul\":23155:23174   */\n      add\n        /* \"#utility.yul\":23149:23175   */\n      mload\n        /* \"#utility.yul\":23140:23175   */\n      swap1\n      pop\n        /* \"#utility.yul\":23112:23189   */\n    tag_449:\n        /* \"#utility.yul\":23215:23282   */\n      tag_450\n        /* \"#utility.yul\":23275:23281   */\n      dup6\n        /* \"#utility.yul\":23268:23273   */\n      dup3\n        /* \"#utility.yul\":23215:23282   */\n      tag_227\n      jump\t// in\n    tag_450:\n        /* \"#utility.yul\":23209:23213   */\n      dup7\n        /* \"#utility.yul\":23202:23283   */\n      sstore\n        /* \"#utility.yul\":23071:23293   */\n      pop\n        /* \"#utility.yul\":22406:23293   */\n      jump(tag_447)\n        /* \"#utility.yul\":22436:23054   */\n    tag_448:\n        /* \"#utility.yul\":22488:22492   */\n      0x1f\n        /* \"#utility.yul\":22484:22493   */\n      not\n        /* \"#utility.yul\":22476:22482   */\n      dup5\n        /* \"#utility.yul\":22472:22494   */\n      and\n        /* \"#utility.yul\":22522:22559   */\n      tag_451\n        /* \"#utility.yul\":22554:22558   */\n      dup7\n        /* \"#utility.yul\":22522:22559   */\n      tag_213\n      jump\t// in\n    tag_451:\n        /* \"#utility.yul\":22581:22582   */\n      0x00\n        /* \"#utility.yul\":22595:22803   */\n    tag_452:\n        /* \"#utility.yul\":22609:22616   */\n      dup3\n        /* \"#utility.yul\":22606:22607   */\n      dup2\n        /* \"#utility.yul\":22603:22617   */\n      lt\n        /* \"#utility.yul\":22595:22803   */\n      iszero\n      tag_454\n      jumpi\n        /* \"#utility.yul\":22688:22697   */\n      dup5\n        /* \"#utility.yul\":22683:22686   */\n      dup10\n        /* \"#utility.yul\":22679:22698   */\n      add\n        /* \"#utility.yul\":22673:22699   */\n      mload\n        /* \"#utility.yul\":22665:22671   */\n      dup3\n        /* \"#utility.yul\":22658:22700   */\n      sstore\n        /* \"#utility.yul\":22739:22740   */\n      0x01\n        /* \"#utility.yul\":22731:22737   */\n      dup3\n        /* \"#utility.yul\":22727:22741   */\n      add\n        /* \"#utility.yul\":22717:22741   */\n      swap2\n      pop\n        /* \"#utility.yul\":22786:22788   */\n      0x20\n        /* \"#utility.yul\":22775:22784   */\n      dup6\n        /* \"#utility.yul\":22771:22789   */\n      add\n        /* \"#utility.yul\":22758:22789   */\n      swap5\n      pop\n        /* \"#utility.yul\":22632:22636   */\n      0x20\n        /* \"#utility.yul\":22629:22630   */\n      dup2\n        /* \"#utility.yul\":22625:22637   */\n      add\n        /* \"#utility.yul\":22620:22637   */\n      swap1\n      pop\n        /* \"#utility.yul\":22595:22803   */\n      jump(tag_452)\n    tag_454:\n        /* \"#utility.yul\":22831:22837   */\n      dup7\n        /* \"#utility.yul\":22822:22829   */\n      dup4\n        /* \"#utility.yul\":22819:22838   */\n      lt\n        /* \"#utility.yul\":22816:22995   */\n      iszero\n      tag_455\n      jumpi\n        /* \"#utility.yul\":22889:22898   */\n      dup5\n        /* \"#utility.yul\":22884:22887   */\n      dup10\n        /* \"#utility.yul\":22880:22899   */\n      add\n        /* \"#utility.yul\":22874:22900   */\n      mload\n        /* \"#utility.yul\":22932:22980   */\n      tag_456\n        /* \"#utility.yul\":22974:22978   */\n      0x1f\n        /* \"#utility.yul\":22966:22972   */\n      dup10\n        /* \"#utility.yul\":22962:22979   */\n      and\n        /* \"#utility.yul\":22951:22960   */\n      dup3\n        /* \"#utility.yul\":22932:22980   */\n      tag_226\n      jump\t// in\n    tag_456:\n        /* \"#utility.yul\":22924:22930   */\n      dup4\n        /* \"#utility.yul\":22917:22981   */\n      sstore\n        /* \"#utility.yul\":22839:22995   */\n      pop\n        /* \"#utility.yul\":22816:22995   */\n    tag_455:\n        /* \"#utility.yul\":23041:23042   */\n      0x01\n        /* \"#utility.yul\":23037:23038   */\n      0x02\n        /* \"#utility.yul\":23029:23035   */\n      dup9\n        /* \"#utility.yul\":23025:23039   */\n      mul\n        /* \"#utility.yul\":23021:23043   */\n      add\n        /* \"#utility.yul\":23015:23019   */\n      dup9\n        /* \"#utility.yul\":23008:23044   */\n      sstore\n        /* \"#utility.yul\":22443:23054   */\n      pop\n      pop\n      pop\n        /* \"#utility.yul\":22406:23293   */\n    tag_447:\n      pop\n        /* \"#utility.yul\":21996:23299   */\n      pop\n      pop\n      pop\n        /* \"#utility.yul\":21904:23299   */\n      pop\n      pop\n      jump\t// out\n        /* \"#utility.yul\":23305:23949   */\n    tag_135:\n        /* \"#utility.yul\":23502:23506   */\n      0x00\n        /* \"#utility.yul\":23540:23543   */\n      0x80\n        /* \"#utility.yul\":23529:23538   */\n      dup3\n        /* \"#utility.yul\":23525:23544   */\n      add\n        /* \"#utility.yul\":23517:23544   */\n      swap1\n      pop\n        /* \"#utility.yul\":23554:23625   */\n      tag_458\n        /* \"#utility.yul\":23622:23623   */\n      0x00\n        /* \"#utility.yul\":23611:23620   */\n      dup4\n        /* \"#utility.yul\":23607:23624   */\n      add\n        /* \"#utility.yul\":23598:23604   */\n      dup8\n        /* \"#utility.yul\":23554:23625   */\n      tag_173\n      jump\t// in\n    tag_458:\n        /* \"#utility.yul\":23635:23707   */\n      tag_459\n        /* \"#utility.yul\":23703:23705   */\n      0x20\n        /* \"#utility.yul\":23692:23701   */\n      dup4\n        /* \"#utility.yul\":23688:23706   */\n      add\n        /* \"#utility.yul\":23679:23685   */\n      dup7\n        /* \"#utility.yul\":23635:23707   */\n      tag_174\n      jump\t// in\n    tag_459:\n        /* \"#utility.yul\":23754:23763   */\n      dup2\n        /* \"#utility.yul\":23748:23752   */\n      dup2\n        /* \"#utility.yul\":23744:23764   */\n      sub\n        /* \"#utility.yul\":23739:23741   */\n      0x40\n        /* \"#utility.yul\":23728:23737   */\n      dup4\n        /* \"#utility.yul\":23724:23742   */\n      add\n        /* \"#utility.yul\":23717:23765   */\n      mstore\n        /* \"#utility.yul\":23782:23860   */\n      tag_460\n        /* \"#utility.yul\":23855:23859   */\n      dup2\n        /* \"#utility.yul\":23846:23852   */\n      dup6\n        /* \"#utility.yul\":23782:23860   */\n      tag_179\n      jump\t// in\n    tag_460:\n        /* \"#utility.yul\":23774:23860   */\n      swap1\n      pop\n        /* \"#utility.yul\":23870:23942   */\n      tag_461\n        /* \"#utility.yul\":23938:23940   */\n      0x60\n        /* \"#utility.yul\":23927:23936   */\n      dup4\n        /* \"#utility.yul\":23923:23941   */\n      add\n        /* \"#utility.yul\":23914:23920   */\n      dup5\n        /* \"#utility.yul\":23870:23942   */\n      tag_173\n      jump\t// in\n    tag_461:\n        /* \"#utility.yul\":23305:23949   */\n      swap6\n      swap5\n      pop\n      pop\n      pop\n      pop\n      pop\n      jump\t// out\n\n    auxdata: 0xa264697066735822122047aadcfefb6f6e09e91cc3e3aa1e49e3fd55a32a081f9da3ce9bb5ad89e018c164736f6c634300081a0033\n}\n",
				"bytecode": {
					"linkReferences": {},
					"object": "60806040526101185f60146101000a81548161ffff021916908361ffff16021790555034801561002d575f80fd5b50335f73ffffffffffffffffffffffffffffffffffffffff168173ffffffffffffffffffffffffffffffffffffffff160361009f575f6040517f1e4fbdf700000000000000000000000000000000000000000000000000000000815260040161009691906101b4565b60405180910390fd5b6100ae816100b460201b60201c565b506101cd565b5f805f9054906101000a900473ffffffffffffffffffffffffffffffffffffffff169050815f806101000a81548173ffffffffffffffffffffffffffffffffffffffff021916908373ffffffffffffffffffffffffffffffffffffffff1602179055508173ffffffffffffffffffffffffffffffffffffffff168173ffffffffffffffffffffffffffffffffffffffff167f8be0079c531659141344cd1fd0a4f28419497f9722a3daafe3b4186f6b6457e060405160405180910390a35050565b5f73ffffffffffffffffffffffffffffffffffffffff82169050919050565b5f61019e82610175565b9050919050565b6101ae81610194565b82525050565b5f6020820190506101c75f8301846101a5565b92915050565b611b3a806101da5f395ff3fe608060405234801561000f575f80fd5b50600436106100a7575f3560e01c80636eb107971161006f5780636eb1079714610163578063715018a6146101815780637c9cd2bc1461018b5780638da5cb5b146101a7578063c3ad5ecb146101c5578063f2fde38b146101f5576100a7565b806305a1b4a9146100ab57806312e7ee1c146100df5780633d9b569f1461010f57806358bfa4ab1461012b5780636337821614610147575b5f80fd5b6100c560048036038101906100c09190610fd7565b610211565b6040516100d69594939291906110a3565b60405180910390f35b6100f960048036038101906100f491906110fb565b610302565b60405161010691906112ba565b60405180910390f35b61012960048036038101906101249190610fd7565b61049d565b005b61014560048036038101906101409190611311565b610739565b005b610161600480360381019061015c9190610fd7565b610760565b005b61016b61095c565b604051610178919061134b565b60405180910390f35b61018961096f565b005b6101a560048036038101906101a09190611490565b610982565b005b6101af610b87565b6040516101bc91906114d7565b60405180910390f35b6101df60048036038101906101da91906114f0565b610bae565b6040516101ec919061158e565b60405180910390f35b61020f600480360381019061020a91906110fb565b610d25565b005b6001602052815f5260405f20818154811061022a575f80fd5b905f5260205f2090600502015f9150915050805f015490806001015f9054906101000a900473ffffffffffffffffffffffffffffffffffffffff1690806002018054610275906115db565b80601f01602080910402602001604051908101604052809291908181526020018280546102a1906115db565b80156102ec5780601f106102c3576101008083540402835291602001916102ec565b820191905f5260205f20905b8154815290600101906020018083116102cf57829003601f168201915b5050505050908060030154908060040154905085565b606060015f8373ffffffffffffffffffffffffffffffffffffffff1673ffffffffffffffffffffffffffffffffffffffff1681526020019081526020015f20805480602002602001604051908101604052809291908181526020015f905b82821015610492578382905f5260205f2090600502016040518060a00160405290815f8201548152602001600182015f9054906101000a900473ffffffffffffffffffffffffffffffffffffffff1673ffffffffffffffffffffffffffffffffffffffff1673ffffffffffffffffffffffffffffffffffffffff1681526020016002820180546103ef906115db565b80601f016020809104026020016040519081016040528092919081815260200182805461041b906115db565b80156104665780601f1061043d57610100808354040283529160200191610466565b820191905f5260205f20905b81548152906001019060200180831161044957829003601f168201915b505050505081526020016003820154815260200160048201548152505081526020019060010190610360565b505050509050919050565b60015f8373ffffffffffffffffffffffffffffffffffffffff1673ffffffffffffffffffffffffffffffffffffffff1681526020019081526020015f20805490508110801561054857508060015f8473ffffffffffffffffffffffffffffffffffffffff1673ffffffffffffffffffffffffffffffffffffffff1681526020019081526020015f2082815481106105375761053661160b565b5b905f5260205f2090600502015f0154145b610587576040517f08c379a000000000000000000000000000000000000000000000000000000000815260040161057e90611682565b60405180910390fd5b5f60015f8473ffffffffffffffffffffffffffffffffffffffff1673ffffffffffffffffffffffffffffffffffffffff1681526020019081526020015f2082815481106105d7576105d661160b565b5b905f5260205f2090600502016004015411610627576040517f08c379a000000000000000000000000000000000000000000000000000000000815260040161061e906116ea565b60405180910390fd5b60015f8373ffffffffffffffffffffffffffffffffffffffff1673ffffffffffffffffffffffffffffffffffffffff1681526020019081526020015f2081815481106106765761067561160b565b5b905f5260205f2090600502016004015f81548092919061069590611735565b91905055507f762c2616349603ac16eba0de8e6141b79129a07ab63bd99e0a80b3a47171694333838360015f8773ffffffffffffffffffffffffffffffffffffffff1673ffffffffffffffffffffffffffffffffffffffff1681526020019081526020015f20858154811061070d5761070c61160b565b5b905f5260205f2090600502016004015460405161072d949392919061175c565b60405180910390a15050565b610741610da9565b805f60146101000a81548161ffff021916908361ffff16021790555050565b60015f8373ffffffffffffffffffffffffffffffffffffffff1673ffffffffffffffffffffffffffffffffffffffff1681526020019081526020015f20805490508110801561080b57508060015f8473ffffffffffffffffffffffffffffffffffffffff1673ffffffffffffffffffffffffffffffffffffffff1681526020019081526020015f2082815481106107fa576107f961160b565b5b905f5260205f2090600502015f0154145b61084a576040517f08c379a000000000000000000000000000000000000000000000000000000000815260040161084190611682565b60405180910390fd5b60015f8373ffffffffffffffffffffffffffffffffffffffff1673ffffffffffffffffffffffffffffffffffffffff1681526020019081526020015f2081815481106108995761089861160b565b5b905f5260205f2090600502016004015f8154809291906108b89061179f565b91905055507fe8a76fc0f16d11a00d1e93b689b63d76cf60af914dd3d915375dc41d01a0c3c833838360015f8773ffffffffffffffffffffffffffffffffffffffff1673ffffffffffffffffffffffffffffffffffffffff1681526020019081526020015f2085815481106109305761092f61160b565b5b905f5260205f20906005020160040154604051610950949392919061175c565b60405180910390a15050565b5f60149054906101000a900461ffff1681565b610977610da9565b6109805f610e30565b565b5f60149054906101000a900461ffff1661ffff16815111156109d9576040517f08c379a00000000000000000000000000000000000000000000000000000000081526004016109d090611830565b60405180910390fd5b5f6040518060a0016040528060015f3373ffffffffffffffffffffffffffffffffffffffff1673ffffffffffffffffffffffffffffffffffffffff1681526020019081526020015f208054905081526020013373ffffffffffffffffffffffffffffffffffffffff1681526020018381526020014281526020015f815250905060015f3373ffffffffffffffffffffffffffffffffffffffff1673ffffffffffffffffffffffffffffffffffffffff1681526020019081526020015f2081908060018154018082558091505060019003905f5260205f2090600502015f909190919091505f820151815f01556020820151816001015f6101000a81548173ffffffffffffffffffffffffffffffffffffffff021916908373ffffffffffffffffffffffffffffffffffffffff1602179055506040820151816002019081610b2091906119eb565b50606082015181600301556080820151816004015550507f16fd3c13e9d46923e0a8bce11c7b473ec508a72e6c96cd2404b29ce972afc29e815f0151826020015183604001518460600151604051610b7b9493929190611aba565b60405180910390a15050565b5f805f9054906101000a900473ffffffffffffffffffffffffffffffffffffffff16905090565b610bb6610ef8565b60015f3373ffffffffffffffffffffffffffffffffffffffff1673ffffffffffffffffffffffffffffffffffffffff1681526020019081526020015f208281548110610c0557610c0461160b565b5b905f5260205f2090600502016040518060a00160405290815f8201548152602001600182015f9054906101000a900473ffffffffffffffffffffffffffffffffffffffff1673ffffffffffffffffffffffffffffffffffffffff1673ffffffffffffffffffffffffffffffffffffffff168152602001600282018054610c8a906115db565b80601f0160208091040260200160405190810160405280929190818152602001828054610cb6906115db565b8015610d015780601f10610cd857610100808354040283529160200191610d01565b820191905f5260205f20905b815481529060010190602001808311610ce457829003601f168201915b50505050508152602001600382015481526020016004820154815250509050919050565b610d2d610da9565b5f73ffffffffffffffffffffffffffffffffffffffff168173ffffffffffffffffffffffffffffffffffffffff1603610d9d575f6040517f1e4fbdf7000000000000000000000000000000000000000000000000000000008152600401610d9491906114d7565b60405180910390fd5b610da681610e30565b50565b610db1610ef1565b73ffffffffffffffffffffffffffffffffffffffff16610dcf610b87565b73ffffffffffffffffffffffffffffffffffffffff1614610e2e57610df2610ef1565b6040517f118cdaa7000000000000000000000000000000000000000000000000000000008152600401610e2591906114d7565b60405180910390fd5b565b5f805f9054906101000a900473ffffffffffffffffffffffffffffffffffffffff169050815f806101000a81548173ffffffffffffffffffffffffffffffffffffffff021916908373ffffffffffffffffffffffffffffffffffffffff1602179055508173ffffffffffffffffffffffffffffffffffffffff168173ffffffffffffffffffffffffffffffffffffffff167f8be0079c531659141344cd1fd0a4f28419497f9722a3daafe3b4186f6b6457e060405160405180910390a35050565b5f33905090565b6040518060a001604052805f81526020015f73ffffffffffffffffffffffffffffffffffffffff168152602001606081526020015f81526020015f81525090565b5f604051905090565b5f80fd5b5f80fd5b5f73ffffffffffffffffffffffffffffffffffffffff82169050919050565b5f610f7382610f4a565b9050919050565b610f8381610f69565b8114610f8d575f80fd5b50565b5f81359050610f9e81610f7a565b92915050565b5f819050919050565b610fb681610fa4565b8114610fc0575f80fd5b50565b5f81359050610fd181610fad565b92915050565b5f8060408385031215610fed57610fec610f42565b5b5f610ffa85828601610f90565b925050602061100b85828601610fc3565b9150509250929050565b61101e81610fa4565b82525050565b61102d81610f69565b82525050565b5f81519050919050565b5f82825260208201905092915050565b8281835e5f83830152505050565b5f601f19601f8301169050919050565b5f61107582611033565b61107f818561103d565b935061108f81856020860161104d565b6110988161105b565b840191505092915050565b5f60a0820190506110b65f830188611015565b6110c36020830187611024565b81810360408301526110d5818661106b565b90506110e46060830185611015565b6110f16080830184611015565b9695505050505050565b5f602082840312156111105761110f610f42565b5b5f61111d84828501610f90565b91505092915050565b5f81519050919050565b5f82825260208201905092915050565b5f819050602082019050919050565b61115881610fa4565b82525050565b61116781610f69565b82525050565b5f82825260208201905092915050565b5f61118782611033565b611191818561116d565b93506111a181856020860161104d565b6111aa8161105b565b840191505092915050565b5f60a083015f8301516111ca5f86018261114f565b5060208301516111dd602086018261115e565b50604083015184820360408601526111f5828261117d565b915050606083015161120a606086018261114f565b50608083015161121d608086018261114f565b508091505092915050565b5f61123383836111b5565b905092915050565b5f602082019050919050565b5f61125182611126565b61125b8185611130565b93508360208202850161126d85611140565b805f5b858110156112a857848403895281516112898582611228565b94506112948361123b565b925060208a01995050600181019050611270565b50829750879550505050505092915050565b5f6020820190508181035f8301526112d28184611247565b905092915050565b5f61ffff82169050919050565b6112f0816112da565b81146112fa575f80fd5b50565b5f8135905061130b816112e7565b92915050565b5f6020828403121561132657611325610f42565b5b5f611333848285016112fd565b91505092915050565b611345816112da565b82525050565b5f60208201905061135e5f83018461133c565b92915050565b5f80fd5b5f80fd5b7f4e487b71000000000000000000000000000000000000000000000000000000005f52604160045260245ffd5b6113a28261105b565b810181811067ffffffffffffffff821117156113c1576113c061136c565b5b80604052505050565b5f6113d3610f39565b90506113df8282611399565b919050565b5f67ffffffffffffffff8211156113fe576113fd61136c565b5b6114078261105b565b9050602081019050919050565b828183375f83830152505050565b5f61143461142f846113e4565b6113ca565b9050828152602081018484840111156114505761144f611368565b5b61145b848285611414565b509392505050565b5f82601f83011261147757611476611364565b5b8135611487848260208601611422565b91505092915050565b5f602082840312156114a5576114a4610f42565b5b5f82013567ffffffffffffffff8111156114c2576114c1610f46565b5b6114ce84828501611463565b91505092915050565b5f6020820190506114ea5f830184611024565b92915050565b5f6020828403121561150557611504610f42565b5b5f61151284828501610fc3565b91505092915050565b5f60a083015f8301516115305f86018261114f565b506020830151611543602086018261115e565b506040830151848203604086015261155b828261117d565b9150506060830151611570606086018261114f565b506080830151611583608086018261114f565b508091505092915050565b5f6020820190508181035f8301526115a6818461151b565b905092915050565b7f4e487b71000000000000000000000000000000000000000000000000000000005f52602260045260245ffd5b5f60028204905060018216806115f257607f821691505b602082108103611605576116046115ae565b5b50919050565b7f4e487b71000000000000000000000000000000000000000000000000000000005f52603260045260245ffd5b7f547765657420446f6573204e6f742045786973740000000000000000000000005f82015250565b5f61166c60148361103d565b915061167782611638565b602082019050919050565b5f6020820190508181035f83015261169981611660565b9050919050565b7f54776565747320686173206e6f206c696b6573000000000000000000000000005f82015250565b5f6116d460138361103d565b91506116df826116a0565b602082019050919050565b5f6020820190508181035f830152611701816116c8565b9050919050565b7f4e487b71000000000000000000000000000000000000000000000000000000005f52601160045260245ffd5b5f61173f82610fa4565b91505f820361175157611750611708565b5b600182039050919050565b5f60808201905061176f5f830187611024565b61177c6020830186611024565b6117896040830185611015565b6117966060830184611015565b95945050505050565b5f6117a982610fa4565b91507fffffffffffffffffffffffffffffffffffffffffffffffffffffffffffffffff82036117db576117da611708565b5b600182019050919050565b7f547765657420697320746f6f206c6f6e672062726f3a200000000000000000005f82015250565b5f61181a60178361103d565b9150611825826117e6565b602082019050919050565b5f6020820190508181035f8301526118478161180e565b9050919050565b5f819050815f5260205f209050919050565b5f6020601f8301049050919050565b5f82821b905092915050565b5f600883026118aa7fffffffffffffffffffffffffffffffffffffffffffffffffffffffffffffffff8261186f565b6118b4868361186f565b95508019841693508086168417925050509392505050565b5f819050919050565b5f6118ef6118ea6118e584610fa4565b6118cc565b610fa4565b9050919050565b5f819050919050565b611908836118d5565b61191c611914826118f6565b84845461187b565b825550505050565b5f90565b611930611924565b61193b8184846118ff565b505050565b5b8181101561195e576119535f82611928565b600181019050611941565b5050565b601f8211156119a3576119748161184e565b61197d84611860565b8101602085101561198c578190505b6119a061199885611860565b830182611940565b50505b505050565b5f82821c905092915050565b5f6119c35f19846008026119a8565b1980831691505092915050565b5f6119db83836119b4565b9150826002028217905092915050565b6119f482611033565b67ffffffffffffffff811115611a0d57611a0c61136c565b5b611a1782546115db565b611a22828285611962565b5f60209050601f831160018114611a53575f8415611a41578287015190505b611a4b85826119d0565b865550611ab2565b601f198416611a618661184e565b5f5b82811015611a8857848901518255600182019150602085019450602081019050611a63565b86831015611aa55784890151611aa1601f8916826119b4565b8355505b6001600288020188555050505b505050505050565b5f608082019050611acd5f830187611015565b611ada6020830186611024565b8181036040830152611aec818561106b565b9050611afb6060830184611015565b9594505050505056fea264697066735822122047aadcfefb6f6e09e91cc3e3aa1e49e3fd55a32a081f9da3ce9bb5ad89e018c164736f6c634300081a0033",
					"opcodes": "PUSH1 0x80 PUSH1 0x40 MSTORE PUSH2 0x118 PUSH0 PUSH1 0x14 PUSH2 0x100 EXP DUP2 SLOAD DUP2 PUSH2 0xFFFF MUL NOT AND SWAP1 DUP4 PUSH2 0xFFFF AND MUL OR SWAP1 SSTORE POP CALLVALUE DUP1 ISZERO PUSH2 0x2D JUMPI PUSH0 DUP1 REVERT JUMPDEST POP CALLER PUSH0 PUSH20 0xFFFFFFFFFFFFFFFFFFFFFFFFFFFFFFFFFFFFFFFF AND DUP2 PUSH20 0xFFFFFFFFFFFFFFFFFFFFFFFFFFFFFFFFFFFFFFFF AND SUB PUSH2 0x9F JUMPI PUSH0 PUSH1 0x40 MLOAD PUSH32 0x1E4FBDF700000000000000000000000000000000000000000000000000000000 DUP2 MSTORE PUSH1 0x4 ADD PUSH2 0x96 SWAP2 SWAP1 PUSH2 0x1B4 JUMP JUMPDEST PUSH1 0x40 MLOAD DUP1 SWAP2 SUB SWAP1 REVERT JUMPDEST PUSH2 0xAE DUP2 PUSH2 0xB4 PUSH1 0x20 SHL PUSH1 0x20 SHR JUMP JUMPDEST POP PUSH2 0x1CD JUMP JUMPDEST PUSH0 DUP1 PUSH0 SWAP1 SLOAD SWAP1 PUSH2 0x100 EXP SWAP1 DIV PUSH20 0xFFFFFFFFFFFFFFFFFFFFFFFFFFFFFFFFFFFFFFFF AND SWAP1 POP DUP2 PUSH0 DUP1 PUSH2 0x100 EXP DUP2 SLOAD DUP2 PUSH20 0xFFFFFFFFFFFFFFFFFFFFFFFFFFFFFFFFFFFFFFFF MUL NOT AND SWAP1 DUP4 PUSH20 0xFFFFFFFFFFFFFFFFFFFFFFFFFFFFFFFFFFFFFFFF AND MUL OR SWAP1 SSTORE POP DUP2 PUSH20 0xFFFFFFFFFFFFFFFFFFFFFFFFFFFFFFFFFFFFFFFF AND DUP2 PUSH20 0xFFFFFFFFFFFFFFFFFFFFFFFFFFFFFFFFFFFFFFFF AND PUSH32 0x8BE0079C531659141344CD1FD0A4F28419497F9722A3DAAFE3B4186F6B6457E0 PUSH1 0x40 MLOAD PUSH1 0x40 MLOAD DUP1 SWAP2 SUB SWAP1 LOG3 POP POP JUMP JUMPDEST PUSH0 PUSH20 0xFFFFFFFFFFFFFFFFFFFFFFFFFFFFFFFFFFFFFFFF DUP3 AND SWAP1 POP SWAP2 SWAP1 POP JUMP JUMPDEST PUSH0 PUSH2 0x19E DUP3 PUSH2 0x175 JUMP JUMPDEST SWAP1 POP SWAP2 SWAP1 POP JUMP JUMPDEST PUSH2 0x1AE DUP2 PUSH2 0x194 JUMP JUMPDEST DUP3 MSTORE POP POP JUMP JUMPDEST PUSH0 PUSH1 0x20 DUP3 ADD SWAP1 POP PUSH2 0x1C7 PUSH0 DUP4 ADD DUP5 PUSH2 0x1A5 JUMP JUMPDEST SWAP3 SWAP2 POP POP JUMP JUMPDEST PUSH2 0x1B3A DUP1 PUSH2 0x1DA PUSH0 CODECOPY PUSH0 RETURN INVALID PUSH1 0x80 PUSH1 0x40 MSTORE CALLVALUE DUP1 ISZERO PUSH2 0xF JUMPI PUSH0 DUP1 REVERT JUMPDEST POP PUSH1 0x4 CALLDATASIZE LT PUSH2 0xA7 JUMPI PUSH0 CALLDATALOAD PUSH1 0xE0 SHR DUP1 PUSH4 0x6EB10797 GT PUSH2 0x6F JUMPI DUP1 PUSH4 0x6EB10797 EQ PUSH2 0x163 JUMPI DUP1 PUSH4 0x715018A6 EQ PUSH2 0x181 JUMPI DUP1 PUSH4 0x7C9CD2BC EQ PUSH2 0x18B JUMPI DUP1 PUSH4 0x8DA5CB5B EQ PUSH2 0x1A7 JUMPI DUP1 PUSH4 0xC3AD5ECB EQ PUSH2 0x1C5 JUMPI DUP1 PUSH4 0xF2FDE38B EQ PUSH2 0x1F5 JUMPI PUSH2 0xA7 JUMP JUMPDEST DUP1 PUSH4 0x5A1B4A9 EQ PUSH2 0xAB JUMPI DUP1 PUSH4 0x12E7EE1C EQ PUSH2 0xDF JUMPI DUP1 PUSH4 0x3D9B569F EQ PUSH2 0x10F JUMPI DUP1 PUSH4 0x58BFA4AB EQ PUSH2 0x12B JUMPI DUP1 PUSH4 0x63378216 EQ PUSH2 0x147 JUMPI JUMPDEST PUSH0 DUP1 REVERT JUMPDEST PUSH2 0xC5 PUSH1 0x4 DUP1 CALLDATASIZE SUB DUP2 ADD SWAP1 PUSH2 0xC0 SWAP2 SWAP1 PUSH2 0xFD7 JUMP JUMPDEST PUSH2 0x211 JUMP JUMPDEST PUSH1 0x40 MLOAD PUSH2 0xD6 SWAP6 SWAP5 SWAP4 SWAP3 SWAP2 SWAP1 PUSH2 0x10A3 JUMP JUMPDEST PUSH1 0x40 MLOAD DUP1 SWAP2 SUB SWAP1 RETURN JUMPDEST PUSH2 0xF9 PUSH1 0x4 DUP1 CALLDATASIZE SUB DUP2 ADD SWAP1 PUSH2 0xF4 SWAP2 SWAP1 PUSH2 0x10FB JUMP JUMPDEST PUSH2 0x302 JUMP JUMPDEST PUSH1 0x40 MLOAD PUSH2 0x106 SWAP2 SWAP1 PUSH2 0x12BA JUMP JUMPDEST PUSH1 0x40 MLOAD DUP1 SWAP2 SUB SWAP1 RETURN JUMPDEST PUSH2 0x129 PUSH1 0x4 DUP1 CALLDATASIZE SUB DUP2 ADD SWAP1 PUSH2 0x124 SWAP2 SWAP1 PUSH2 0xFD7 JUMP JUMPDEST PUSH2 0x49D JUMP JUMPDEST STOP JUMPDEST PUSH2 0x145 PUSH1 0x4 DUP1 CALLDATASIZE SUB DUP2 ADD SWAP1 PUSH2 0x140 SWAP2 SWAP1 PUSH2 0x1311 JUMP JUMPDEST PUSH2 0x739 JUMP JUMPDEST STOP JUMPDEST PUSH2 0x161 PUSH1 0x4 DUP1 CALLDATASIZE SUB DUP2 ADD SWAP1 PUSH2 0x15C SWAP2 SWAP1 PUSH2 0xFD7 JUMP JUMPDEST PUSH2 0x760 JUMP JUMPDEST STOP JUMPDEST PUSH2 0x16B PUSH2 0x95C JUMP JUMPDEST PUSH1 0x40 MLOAD PUSH2 0x178 SWAP2 SWAP1 PUSH2 0x134B JUMP JUMPDEST PUSH1 0x40 MLOAD DUP1 SWAP2 SUB SWAP1 RETURN JUMPDEST PUSH2 0x189 PUSH2 0x96F JUMP JUMPDEST STOP JUMPDEST PUSH2 0x1A5 PUSH1 0x4 DUP1 CALLDATASIZE SUB DUP2 ADD SWAP1 PUSH2 0x1A0 SWAP2 SWAP1 PUSH2 0x1490 JUMP JUMPDEST PUSH2 0x982 JUMP JUMPDEST STOP JUMPDEST PUSH2 0x1AF PUSH2 0xB87 JUMP JUMPDEST PUSH1 0x40 MLOAD PUSH2 0x1BC SWAP2 SWAP1 PUSH2 0x14D7 JUMP JUMPDEST PUSH1 0x40 MLOAD DUP1 SWAP2 SUB SWAP1 RETURN JUMPDEST PUSH2 0x1DF PUSH1 0x4 DUP1 CALLDATASIZE SUB DUP2 ADD SWAP1 PUSH2 0x1DA SWAP2 SWAP1 PUSH2 0x14F0 JUMP JUMPDEST PUSH2 0xBAE JUMP JUMPDEST PUSH1 0x40 MLOAD PUSH2 0x1EC SWAP2 SWAP1 PUSH2 0x158E JUMP JUMPDEST PUSH1 0x40 MLOAD DUP1 SWAP2 SUB SWAP1 RETURN JUMPDEST PUSH2 0x20F PUSH1 0x4 DUP1 CALLDATASIZE SUB DUP2 ADD SWAP1 PUSH2 0x20A SWAP2 SWAP1 PUSH2 0x10FB JUMP JUMPDEST PUSH2 0xD25 JUMP JUMPDEST STOP JUMPDEST PUSH1 0x1 PUSH1 0x20 MSTORE DUP2 PUSH0 MSTORE PUSH1 0x40 PUSH0 KECCAK256 DUP2 DUP2 SLOAD DUP2 LT PUSH2 0x22A JUMPI PUSH0 DUP1 REVERT JUMPDEST SWAP1 PUSH0 MSTORE PUSH1 0x20 PUSH0 KECCAK256 SWAP1 PUSH1 0x5 MUL ADD PUSH0 SWAP2 POP SWAP2 POP POP DUP1 PUSH0 ADD SLOAD SWAP1 DUP1 PUSH1 0x1 ADD PUSH0 SWAP1 SLOAD SWAP1 PUSH2 0x100 EXP SWAP1 DIV PUSH20 0xFFFFFFFFFFFFFFFFFFFFFFFFFFFFFFFFFFFFFFFF AND SWAP1 DUP1 PUSH1 0x2 ADD DUP1 SLOAD PUSH2 0x275 SWAP1 PUSH2 0x15DB JUMP JUMPDEST DUP1 PUSH1 0x1F ADD PUSH1 0x20 DUP1 SWAP2 DIV MUL PUSH1 0x20 ADD PUSH1 0x40 MLOAD SWAP1 DUP2 ADD PUSH1 0x40 MSTORE DUP1 SWAP3 SWAP2 SWAP1 DUP2 DUP2 MSTORE PUSH1 0x20 ADD DUP3 DUP1 SLOAD PUSH2 0x2A1 SWAP1 PUSH2 0x15DB JUMP JUMPDEST DUP1 ISZERO PUSH2 0x2EC JUMPI DUP1 PUSH1 0x1F LT PUSH2 0x2C3 JUMPI PUSH2 0x100 DUP1 DUP4 SLOAD DIV MUL DUP4 MSTORE SWAP2 PUSH1 0x20 ADD SWAP2 PUSH2 0x2EC JUMP JUMPDEST DUP3 ADD SWAP2 SWAP1 PUSH0 MSTORE PUSH1 0x20 PUSH0 KECCAK256 SWAP1 JUMPDEST DUP2 SLOAD DUP2 MSTORE SWAP1 PUSH1 0x1 ADD SWAP1 PUSH1 0x20 ADD DUP1 DUP4 GT PUSH2 0x2CF JUMPI DUP3 SWAP1 SUB PUSH1 0x1F AND DUP3 ADD SWAP2 JUMPDEST POP POP POP POP POP SWAP1 DUP1 PUSH1 0x3 ADD SLOAD SWAP1 DUP1 PUSH1 0x4 ADD SLOAD SWAP1 POP DUP6 JUMP JUMPDEST PUSH1 0x60 PUSH1 0x1 PUSH0 DUP4 PUSH20 0xFFFFFFFFFFFFFFFFFFFFFFFFFFFFFFFFFFFFFFFF AND PUSH20 0xFFFFFFFFFFFFFFFFFFFFFFFFFFFFFFFFFFFFFFFF AND DUP2 MSTORE PUSH1 0x20 ADD SWAP1 DUP2 MSTORE PUSH1 0x20 ADD PUSH0 KECCAK256 DUP1 SLOAD DUP1 PUSH1 0x20 MUL PUSH1 0x20 ADD PUSH1 0x40 MLOAD SWAP1 DUP2 ADD PUSH1 0x40 MSTORE DUP1 SWAP3 SWAP2 SWAP1 DUP2 DUP2 MSTORE PUSH1 0x20 ADD PUSH0 SWAP1 JUMPDEST DUP3 DUP3 LT ISZERO PUSH2 0x492 JUMPI DUP4 DUP3 SWAP1 PUSH0 MSTORE PUSH1 0x20 PUSH0 KECCAK256 SWAP1 PUSH1 0x5 MUL ADD PUSH1 0x40 MLOAD DUP1 PUSH1 0xA0 ADD PUSH1 0x40 MSTORE SWAP1 DUP2 PUSH0 DUP3 ADD SLOAD DUP2 MSTORE PUSH1 0x20 ADD PUSH1 0x1 DUP3 ADD PUSH0 SWAP1 SLOAD SWAP1 PUSH2 0x100 EXP SWAP1 DIV PUSH20 0xFFFFFFFFFFFFFFFFFFFFFFFFFFFFFFFFFFFFFFFF AND PUSH20 0xFFFFFFFFFFFFFFFFFFFFFFFFFFFFFFFFFFFFFFFF AND PUSH20 0xFFFFFFFFFFFFFFFFFFFFFFFFFFFFFFFFFFFFFFFF AND DUP2 MSTORE PUSH1 0x20 ADD PUSH1 0x2 DUP3 ADD DUP1 SLOAD PUSH2 0x3EF SWAP1 PUSH2 0x15DB JUMP JUMPDEST DUP1 PUSH1 0x1F ADD PUSH1 0x20 DUP1 SWAP2 DIV MUL PUSH1 0x20 ADD PUSH1 0x40 MLOAD SWAP1 DUP2 ADD PUSH1 0x40 MSTORE DUP1 SWAP3 SWAP2 SWAP1 DUP2 DUP2 MSTORE PUSH1 0x20 ADD DUP3 DUP1 SLOAD PUSH2 0x41B SWAP1 PUSH2 0x15DB JUMP JUMPDEST DUP1 ISZERO PUSH2 0x466 JUMPI DUP1 PUSH1 0x1F LT PUSH2 0x43D JUMPI PUSH2 0x100 DUP1 DUP4 SLOAD DIV MUL DUP4 MSTORE SWAP2 PUSH1 0x20 ADD SWAP2 PUSH2 0x466 JUMP JUMPDEST DUP3 ADD SWAP2 SWAP1 PUSH0 MSTORE PUSH1 0x20 PUSH0 KECCAK256 SWAP1 JUMPDEST DUP2 SLOAD DUP2 MSTORE SWAP1 PUSH1 0x1 ADD SWAP1 PUSH1 0x20 ADD DUP1 DUP4 GT PUSH2 0x449 JUMPI DUP3 SWAP1 SUB PUSH1 0x1F AND DUP3 ADD SWAP2 JUMPDEST POP POP POP POP POP DUP2 MSTORE PUSH1 0x20 ADD PUSH1 0x3 DUP3 ADD SLOAD DUP2 MSTORE PUSH1 0x20 ADD PUSH1 0x4 DUP3 ADD SLOAD DUP2 MSTORE POP POP DUP2 MSTORE PUSH1 0x20 ADD SWAP1 PUSH1 0x1 ADD SWAP1 PUSH2 0x360 JUMP JUMPDEST POP POP POP POP SWAP1 POP SWAP2 SWAP1 POP JUMP JUMPDEST PUSH1 0x1 PUSH0 DUP4 PUSH20 0xFFFFFFFFFFFFFFFFFFFFFFFFFFFFFFFFFFFFFFFF AND PUSH20 0xFFFFFFFFFFFFFFFFFFFFFFFFFFFFFFFFFFFFFFFF AND DUP2 MSTORE PUSH1 0x20 ADD SWAP1 DUP2 MSTORE PUSH1 0x20 ADD PUSH0 KECCAK256 DUP1 SLOAD SWAP1 POP DUP2 LT DUP1 ISZERO PUSH2 0x548 JUMPI POP DUP1 PUSH1 0x1 PUSH0 DUP5 PUSH20 0xFFFFFFFFFFFFFFFFFFFFFFFFFFFFFFFFFFFFFFFF AND PUSH20 0xFFFFFFFFFFFFFFFFFFFFFFFFFFFFFFFFFFFFFFFF AND DUP2 MSTORE PUSH1 0x20 ADD SWAP1 DUP2 MSTORE PUSH1 0x20 ADD PUSH0 KECCAK256 DUP3 DUP2 SLOAD DUP2 LT PUSH2 0x537 JUMPI PUSH2 0x536 PUSH2 0x160B JUMP JUMPDEST JUMPDEST SWAP1 PUSH0 MSTORE PUSH1 0x20 PUSH0 KECCAK256 SWAP1 PUSH1 0x5 MUL ADD PUSH0 ADD SLOAD EQ JUMPDEST PUSH2 0x587 JUMPI PUSH1 0x40 MLOAD PUSH32 0x8C379A000000000000000000000000000000000000000000000000000000000 DUP2 MSTORE PUSH1 0x4 ADD PUSH2 0x57E SWAP1 PUSH2 0x1682 JUMP JUMPDEST PUSH1 0x40 MLOAD DUP1 SWAP2 SUB SWAP1 REVERT JUMPDEST PUSH0 PUSH1 0x1 PUSH0 DUP5 PUSH20 0xFFFFFFFFFFFFFFFFFFFFFFFFFFFFFFFFFFFFFFFF AND PUSH20 0xFFFFFFFFFFFFFFFFFFFFFFFFFFFFFFFFFFFFFFFF AND DUP2 MSTORE PUSH1 0x20 ADD SWAP1 DUP2 MSTORE PUSH1 0x20 ADD PUSH0 KECCAK256 DUP3 DUP2 SLOAD DUP2 LT PUSH2 0x5D7 JUMPI PUSH2 0x5D6 PUSH2 0x160B JUMP JUMPDEST JUMPDEST SWAP1 PUSH0 MSTORE PUSH1 0x20 PUSH0 KECCAK256 SWAP1 PUSH1 0x5 MUL ADD PUSH1 0x4 ADD SLOAD GT PUSH2 0x627 JUMPI PUSH1 0x40 MLOAD PUSH32 0x8C379A000000000000000000000000000000000000000000000000000000000 DUP2 MSTORE PUSH1 0x4 ADD PUSH2 0x61E SWAP1 PUSH2 0x16EA JUMP JUMPDEST PUSH1 0x40 MLOAD DUP1 SWAP2 SUB SWAP1 REVERT JUMPDEST PUSH1 0x1 PUSH0 DUP4 PUSH20 0xFFFFFFFFFFFFFFFFFFFFFFFFFFFFFFFFFFFFFFFF AND PUSH20 0xFFFFFFFFFFFFFFFFFFFFFFFFFFFFFFFFFFFFFFFF AND DUP2 MSTORE PUSH1 0x20 ADD SWAP1 DUP2 MSTORE PUSH1 0x20 ADD PUSH0 KECCAK256 DUP2 DUP2 SLOAD DUP2 LT PUSH2 0x676 JUMPI PUSH2 0x675 PUSH2 0x160B JUMP JUMPDEST JUMPDEST SWAP1 PUSH0 MSTORE PUSH1 0x20 PUSH0 KECCAK256 SWAP1 PUSH1 0x5 MUL ADD PUSH1 0x4 ADD PUSH0 DUP2 SLOAD DUP1 SWAP3 SWAP2 SWAP1 PUSH2 0x695 SWAP1 PUSH2 0x1735 JUMP JUMPDEST SWAP2 SWAP1 POP SSTORE POP PUSH32 0x762C2616349603AC16EBA0DE8E6141B79129A07AB63BD99E0A80B3A471716943 CALLER DUP4 DUP4 PUSH1 0x1 PUSH0 DUP8 PUSH20 0xFFFFFFFFFFFFFFFFFFFFFFFFFFFFFFFFFFFFFFFF AND PUSH20 0xFFFFFFFFFFFFFFFFFFFFFFFFFFFFFFFFFFFFFFFF AND DUP2 MSTORE PUSH1 0x20 ADD SWAP1 DUP2 MSTORE PUSH1 0x20 ADD PUSH0 KECCAK256 DUP6 DUP2 SLOAD DUP2 LT PUSH2 0x70D JUMPI PUSH2 0x70C PUSH2 0x160B JUMP JUMPDEST JUMPDEST SWAP1 PUSH0 MSTORE PUSH1 0x20 PUSH0 KECCAK256 SWAP1 PUSH1 0x5 MUL ADD PUSH1 0x4 ADD SLOAD PUSH1 0x40 MLOAD PUSH2 0x72D SWAP5 SWAP4 SWAP3 SWAP2 SWAP1 PUSH2 0x175C JUMP JUMPDEST PUSH1 0x40 MLOAD DUP1 SWAP2 SUB SWAP1 LOG1 POP POP JUMP JUMPDEST PUSH2 0x741 PUSH2 0xDA9 JUMP JUMPDEST DUP1 PUSH0 PUSH1 0x14 PUSH2 0x100 EXP DUP2 SLOAD DUP2 PUSH2 0xFFFF MUL NOT AND SWAP1 DUP4 PUSH2 0xFFFF AND MUL OR SWAP1 SSTORE POP POP JUMP JUMPDEST PUSH1 0x1 PUSH0 DUP4 PUSH20 0xFFFFFFFFFFFFFFFFFFFFFFFFFFFFFFFFFFFFFFFF AND PUSH20 0xFFFFFFFFFFFFFFFFFFFFFFFFFFFFFFFFFFFFFFFF AND DUP2 MSTORE PUSH1 0x20 ADD SWAP1 DUP2 MSTORE PUSH1 0x20 ADD PUSH0 KECCAK256 DUP1 SLOAD SWAP1 POP DUP2 LT DUP1 ISZERO PUSH2 0x80B JUMPI POP DUP1 PUSH1 0x1 PUSH0 DUP5 PUSH20 0xFFFFFFFFFFFFFFFFFFFFFFFFFFFFFFFFFFFFFFFF AND PUSH20 0xFFFFFFFFFFFFFFFFFFFFFFFFFFFFFFFFFFFFFFFF AND DUP2 MSTORE PUSH1 0x20 ADD SWAP1 DUP2 MSTORE PUSH1 0x20 ADD PUSH0 KECCAK256 DUP3 DUP2 SLOAD DUP2 LT PUSH2 0x7FA JUMPI PUSH2 0x7F9 PUSH2 0x160B JUMP JUMPDEST JUMPDEST SWAP1 PUSH0 MSTORE PUSH1 0x20 PUSH0 KECCAK256 SWAP1 PUSH1 0x5 MUL ADD PUSH0 ADD SLOAD EQ JUMPDEST PUSH2 0x84A JUMPI PUSH1 0x40 MLOAD PUSH32 0x8C379A000000000000000000000000000000000000000000000000000000000 DUP2 MSTORE PUSH1 0x4 ADD PUSH2 0x841 SWAP1 PUSH2 0x1682 JUMP JUMPDEST PUSH1 0x40 MLOAD DUP1 SWAP2 SUB SWAP1 REVERT JUMPDEST PUSH1 0x1 PUSH0 DUP4 PUSH20 0xFFFFFFFFFFFFFFFFFFFFFFFFFFFFFFFFFFFFFFFF AND PUSH20 0xFFFFFFFFFFFFFFFFFFFFFFFFFFFFFFFFFFFFFFFF AND DUP2 MSTORE PUSH1 0x20 ADD SWAP1 DUP2 MSTORE PUSH1 0x20 ADD PUSH0 KECCAK256 DUP2 DUP2 SLOAD DUP2 LT PUSH2 0x899 JUMPI PUSH2 0x898 PUSH2 0x160B JUMP JUMPDEST JUMPDEST SWAP1 PUSH0 MSTORE PUSH1 0x20 PUSH0 KECCAK256 SWAP1 PUSH1 0x5 MUL ADD PUSH1 0x4 ADD PUSH0 DUP2 SLOAD DUP1 SWAP3 SWAP2 SWAP1 PUSH2 0x8B8 SWAP1 PUSH2 0x179F JUMP JUMPDEST SWAP2 SWAP1 POP SSTORE POP PUSH32 0xE8A76FC0F16D11A00D1E93B689B63D76CF60AF914DD3D915375DC41D01A0C3C8 CALLER DUP4 DUP4 PUSH1 0x1 PUSH0 DUP8 PUSH20 0xFFFFFFFFFFFFFFFFFFFFFFFFFFFFFFFFFFFFFFFF AND PUSH20 0xFFFFFFFFFFFFFFFFFFFFFFFFFFFFFFFFFFFFFFFF AND DUP2 MSTORE PUSH1 0x20 ADD SWAP1 DUP2 MSTORE PUSH1 0x20 ADD PUSH0 KECCAK256 DUP6 DUP2 SLOAD DUP2 LT PUSH2 0x930 JUMPI PUSH2 0x92F PUSH2 0x160B JUMP JUMPDEST JUMPDEST SWAP1 PUSH0 MSTORE PUSH1 0x20 PUSH0 KECCAK256 SWAP1 PUSH1 0x5 MUL ADD PUSH1 0x4 ADD SLOAD PUSH1 0x40 MLOAD PUSH2 0x950 SWAP5 SWAP4 SWAP3 SWAP2 SWAP1 PUSH2 0x175C JUMP JUMPDEST PUSH1 0x40 MLOAD DUP1 SWAP2 SUB SWAP1 LOG1 POP POP JUMP JUMPDEST PUSH0 PUSH1 0x14 SWAP1 SLOAD SWAP1 PUSH2 0x100 EXP SWAP1 DIV PUSH2 0xFFFF AND DUP2 JUMP JUMPDEST PUSH2 0x977 PUSH2 0xDA9 JUMP JUMPDEST PUSH2 0x980 PUSH0 PUSH2 0xE30 JUMP JUMPDEST JUMP JUMPDEST PUSH0 PUSH1 0x14 SWAP1 SLOAD SWAP1 PUSH2 0x100 EXP SWAP1 DIV PUSH2 0xFFFF AND PUSH2 0xFFFF AND DUP2 MLOAD GT ISZERO PUSH2 0x9D9 JUMPI PUSH1 0x40 MLOAD PUSH32 0x8C379A000000000000000000000000000000000000000000000000000000000 DUP2 MSTORE PUSH1 0x4 ADD PUSH2 0x9D0 SWAP1 PUSH2 0x1830 JUMP JUMPDEST PUSH1 0x40 MLOAD DUP1 SWAP2 SUB SWAP1 REVERT JUMPDEST PUSH0 PUSH1 0x40 MLOAD DUP1 PUSH1 0xA0 ADD PUSH1 0x40 MSTORE DUP1 PUSH1 0x1 PUSH0 CALLER PUSH20 0xFFFFFFFFFFFFFFFFFFFFFFFFFFFFFFFFFFFFFFFF AND PUSH20 0xFFFFFFFFFFFFFFFFFFFFFFFFFFFFFFFFFFFFFFFF AND DUP2 MSTORE PUSH1 0x20 ADD SWAP1 DUP2 MSTORE PUSH1 0x20 ADD PUSH0 KECCAK256 DUP1 SLOAD SWAP1 POP DUP2 MSTORE PUSH1 0x20 ADD CALLER PUSH20 0xFFFFFFFFFFFFFFFFFFFFFFFFFFFFFFFFFFFFFFFF AND DUP2 MSTORE PUSH1 0x20 ADD DUP4 DUP2 MSTORE PUSH1 0x20 ADD TIMESTAMP DUP2 MSTORE PUSH1 0x20 ADD PUSH0 DUP2 MSTORE POP SWAP1 POP PUSH1 0x1 PUSH0 CALLER PUSH20 0xFFFFFFFFFFFFFFFFFFFFFFFFFFFFFFFFFFFFFFFF AND PUSH20 0xFFFFFFFFFFFFFFFFFFFFFFFFFFFFFFFFFFFFFFFF AND DUP2 MSTORE PUSH1 0x20 ADD SWAP1 DUP2 MSTORE PUSH1 0x20 ADD PUSH0 KECCAK256 DUP2 SWAP1 DUP1 PUSH1 0x1 DUP2 SLOAD ADD DUP1 DUP3 SSTORE DUP1 SWAP2 POP POP PUSH1 0x1 SWAP1 SUB SWAP1 PUSH0 MSTORE PUSH1 0x20 PUSH0 KECCAK256 SWAP1 PUSH1 0x5 MUL ADD PUSH0 SWAP1 SWAP2 SWAP1 SWAP2 SWAP1 SWAP2 POP PUSH0 DUP3 ADD MLOAD DUP2 PUSH0 ADD SSTORE PUSH1 0x20 DUP3 ADD MLOAD DUP2 PUSH1 0x1 ADD PUSH0 PUSH2 0x100 EXP DUP2 SLOAD DUP2 PUSH20 0xFFFFFFFFFFFFFFFFFFFFFFFFFFFFFFFFFFFFFFFF MUL NOT AND SWAP1 DUP4 PUSH20 0xFFFFFFFFFFFFFFFFFFFFFFFFFFFFFFFFFFFFFFFF AND MUL OR SWAP1 SSTORE POP PUSH1 0x40 DUP3 ADD MLOAD DUP2 PUSH1 0x2 ADD SWAP1 DUP2 PUSH2 0xB20 SWAP2 SWAP1 PUSH2 0x19EB JUMP JUMPDEST POP PUSH1 0x60 DUP3 ADD MLOAD DUP2 PUSH1 0x3 ADD SSTORE PUSH1 0x80 DUP3 ADD MLOAD DUP2 PUSH1 0x4 ADD SSTORE POP POP PUSH32 0x16FD3C13E9D46923E0A8BCE11C7B473EC508A72E6C96CD2404B29CE972AFC29E DUP2 PUSH0 ADD MLOAD DUP3 PUSH1 0x20 ADD MLOAD DUP4 PUSH1 0x40 ADD MLOAD DUP5 PUSH1 0x60 ADD MLOAD PUSH1 0x40 MLOAD PUSH2 0xB7B SWAP5 SWAP4 SWAP3 SWAP2 SWAP1 PUSH2 0x1ABA JUMP JUMPDEST PUSH1 0x40 MLOAD DUP1 SWAP2 SUB SWAP1 LOG1 POP POP JUMP JUMPDEST PUSH0 DUP1 PUSH0 SWAP1 SLOAD SWAP1 PUSH2 0x100 EXP SWAP1 DIV PUSH20 0xFFFFFFFFFFFFFFFFFFFFFFFFFFFFFFFFFFFFFFFF AND SWAP1 POP SWAP1 JUMP JUMPDEST PUSH2 0xBB6 PUSH2 0xEF8 JUMP JUMPDEST PUSH1 0x1 PUSH0 CALLER PUSH20 0xFFFFFFFFFFFFFFFFFFFFFFFFFFFFFFFFFFFFFFFF AND PUSH20 0xFFFFFFFFFFFFFFFFFFFFFFFFFFFFFFFFFFFFFFFF AND DUP2 MSTORE PUSH1 0x20 ADD SWAP1 DUP2 MSTORE PUSH1 0x20 ADD PUSH0 KECCAK256 DUP3 DUP2 SLOAD DUP2 LT PUSH2 0xC05 JUMPI PUSH2 0xC04 PUSH2 0x160B JUMP JUMPDEST JUMPDEST SWAP1 PUSH0 MSTORE PUSH1 0x20 PUSH0 KECCAK256 SWAP1 PUSH1 0x5 MUL ADD PUSH1 0x40 MLOAD DUP1 PUSH1 0xA0 ADD PUSH1 0x40 MSTORE SWAP1 DUP2 PUSH0 DUP3 ADD SLOAD DUP2 MSTORE PUSH1 0x20 ADD PUSH1 0x1 DUP3 ADD PUSH0 SWAP1 SLOAD SWAP1 PUSH2 0x100 EXP SWAP1 DIV PUSH20 0xFFFFFFFFFFFFFFFFFFFFFFFFFFFFFFFFFFFFFFFF AND PUSH20 0xFFFFFFFFFFFFFFFFFFFFFFFFFFFFFFFFFFFFFFFF AND PUSH20 0xFFFFFFFFFFFFFFFFFFFFFFFFFFFFFFFFFFFFFFFF AND DUP2 MSTORE PUSH1 0x20 ADD PUSH1 0x2 DUP3 ADD DUP1 SLOAD PUSH2 0xC8A SWAP1 PUSH2 0x15DB JUMP JUMPDEST DUP1 PUSH1 0x1F ADD PUSH1 0x20 DUP1 SWAP2 DIV MUL PUSH1 0x20 ADD PUSH1 0x40 MLOAD SWAP1 DUP2 ADD PUSH1 0x40 MSTORE DUP1 SWAP3 SWAP2 SWAP1 DUP2 DUP2 MSTORE PUSH1 0x20 ADD DUP3 DUP1 SLOAD PUSH2 0xCB6 SWAP1 PUSH2 0x15DB JUMP JUMPDEST DUP1 ISZERO PUSH2 0xD01 JUMPI DUP1 PUSH1 0x1F LT PUSH2 0xCD8 JUMPI PUSH2 0x100 DUP1 DUP4 SLOAD DIV MUL DUP4 MSTORE SWAP2 PUSH1 0x20 ADD SWAP2 PUSH2 0xD01 JUMP JUMPDEST DUP3 ADD SWAP2 SWAP1 PUSH0 MSTORE PUSH1 0x20 PUSH0 KECCAK256 SWAP1 JUMPDEST DUP2 SLOAD DUP2 MSTORE SWAP1 PUSH1 0x1 ADD SWAP1 PUSH1 0x20 ADD DUP1 DUP4 GT PUSH2 0xCE4 JUMPI DUP3 SWAP1 SUB PUSH1 0x1F AND DUP3 ADD SWAP2 JUMPDEST POP POP POP POP POP DUP2 MSTORE PUSH1 0x20 ADD PUSH1 0x3 DUP3 ADD SLOAD DUP2 MSTORE PUSH1 0x20 ADD PUSH1 0x4 DUP3 ADD SLOAD DUP2 MSTORE POP POP SWAP1 POP SWAP2 SWAP1 POP JUMP JUMPDEST PUSH2 0xD2D PUSH2 0xDA9 JUMP JUMPDEST PUSH0 PUSH20 0xFFFFFFFFFFFFFFFFFFFFFFFFFFFFFFFFFFFFFFFF AND DUP2 PUSH20 0xFFFFFFFFFFFFFFFFFFFFFFFFFFFFFFFFFFFFFFFF AND SUB PUSH2 0xD9D JUMPI PUSH0 PUSH1 0x40 MLOAD PUSH32 0x1E4FBDF700000000000000000000000000000000000000000000000000000000 DUP2 MSTORE PUSH1 0x4 ADD PUSH2 0xD94 SWAP2 SWAP1 PUSH2 0x14D7 JUMP JUMPDEST PUSH1 0x40 MLOAD DUP1 SWAP2 SUB SWAP1 REVERT JUMPDEST PUSH2 0xDA6 DUP2 PUSH2 0xE30 JUMP JUMPDEST POP JUMP JUMPDEST PUSH2 0xDB1 PUSH2 0xEF1 JUMP JUMPDEST PUSH20 0xFFFFFFFFFFFFFFFFFFFFFFFFFFFFFFFFFFFFFFFF AND PUSH2 0xDCF PUSH2 0xB87 JUMP JUMPDEST PUSH20 0xFFFFFFFFFFFFFFFFFFFFFFFFFFFFFFFFFFFFFFFF AND EQ PUSH2 0xE2E JUMPI PUSH2 0xDF2 PUSH2 0xEF1 JUMP JUMPDEST PUSH1 0x40 MLOAD PUSH32 0x118CDAA700000000000000000000000000000000000000000000000000000000 DUP2 MSTORE PUSH1 0x4 ADD PUSH2 0xE25 SWAP2 SWAP1 PUSH2 0x14D7 JUMP JUMPDEST PUSH1 0x40 MLOAD DUP1 SWAP2 SUB SWAP1 REVERT JUMPDEST JUMP JUMPDEST PUSH0 DUP1 PUSH0 SWAP1 SLOAD SWAP1 PUSH2 0x100 EXP SWAP1 DIV PUSH20 0xFFFFFFFFFFFFFFFFFFFFFFFFFFFFFFFFFFFFFFFF AND SWAP1 POP DUP2 PUSH0 DUP1 PUSH2 0x100 EXP DUP2 SLOAD DUP2 PUSH20 0xFFFFFFFFFFFFFFFFFFFFFFFFFFFFFFFFFFFFFFFF MUL NOT AND SWAP1 DUP4 PUSH20 0xFFFFFFFFFFFFFFFFFFFFFFFFFFFFFFFFFFFFFFFF AND MUL OR SWAP1 SSTORE POP DUP2 PUSH20 0xFFFFFFFFFFFFFFFFFFFFFFFFFFFFFFFFFFFFFFFF AND DUP2 PUSH20 0xFFFFFFFFFFFFFFFFFFFFFFFFFFFFFFFFFFFFFFFF AND PUSH32 0x8BE0079C531659141344CD1FD0A4F28419497F9722A3DAAFE3B4186F6B6457E0 PUSH1 0x40 MLOAD PUSH1 0x40 MLOAD DUP1 SWAP2 SUB SWAP1 LOG3 POP POP JUMP JUMPDEST PUSH0 CALLER SWAP1 POP SWAP1 JUMP JUMPDEST PUSH1 0x40 MLOAD DUP1 PUSH1 0xA0 ADD PUSH1 0x40 MSTORE DUP1 PUSH0 DUP2 MSTORE PUSH1 0x20 ADD PUSH0 PUSH20 0xFFFFFFFFFFFFFFFFFFFFFFFFFFFFFFFFFFFFFFFF AND DUP2 MSTORE PUSH1 0x20 ADD PUSH1 0x60 DUP2 MSTORE PUSH1 0x20 ADD PUSH0 DUP2 MSTORE PUSH1 0x20 ADD PUSH0 DUP2 MSTORE POP SWAP1 JUMP JUMPDEST PUSH0 PUSH1 0x40 MLOAD SWAP1 POP SWAP1 JUMP JUMPDEST PUSH0 DUP1 REVERT JUMPDEST PUSH0 DUP1 REVERT JUMPDEST PUSH0 PUSH20 0xFFFFFFFFFFFFFFFFFFFFFFFFFFFFFFFFFFFFFFFF DUP3 AND SWAP1 POP SWAP2 SWAP1 POP JUMP JUMPDEST PUSH0 PUSH2 0xF73 DUP3 PUSH2 0xF4A JUMP JUMPDEST SWAP1 POP SWAP2 SWAP1 POP JUMP JUMPDEST PUSH2 0xF83 DUP2 PUSH2 0xF69 JUMP JUMPDEST DUP2 EQ PUSH2 0xF8D JUMPI PUSH0 DUP1 REVERT JUMPDEST POP JUMP JUMPDEST PUSH0 DUP2 CALLDATALOAD SWAP1 POP PUSH2 0xF9E DUP2 PUSH2 0xF7A JUMP JUMPDEST SWAP3 SWAP2 POP POP JUMP JUMPDEST PUSH0 DUP2 SWAP1 POP SWAP2 SWAP1 POP JUMP JUMPDEST PUSH2 0xFB6 DUP2 PUSH2 0xFA4 JUMP JUMPDEST DUP2 EQ PUSH2 0xFC0 JUMPI PUSH0 DUP1 REVERT JUMPDEST POP JUMP JUMPDEST PUSH0 DUP2 CALLDATALOAD SWAP1 POP PUSH2 0xFD1 DUP2 PUSH2 0xFAD JUMP JUMPDEST SWAP3 SWAP2 POP POP JUMP JUMPDEST PUSH0 DUP1 PUSH1 0x40 DUP4 DUP6 SUB SLT ISZERO PUSH2 0xFED JUMPI PUSH2 0xFEC PUSH2 0xF42 JUMP JUMPDEST JUMPDEST PUSH0 PUSH2 0xFFA DUP6 DUP3 DUP7 ADD PUSH2 0xF90 JUMP JUMPDEST SWAP3 POP POP PUSH1 0x20 PUSH2 0x100B DUP6 DUP3 DUP7 ADD PUSH2 0xFC3 JUMP JUMPDEST SWAP2 POP POP SWAP3 POP SWAP3 SWAP1 POP JUMP JUMPDEST PUSH2 0x101E DUP2 PUSH2 0xFA4 JUMP JUMPDEST DUP3 MSTORE POP POP JUMP JUMPDEST PUSH2 0x102D DUP2 PUSH2 0xF69 JUMP JUMPDEST DUP3 MSTORE POP POP JUMP JUMPDEST PUSH0 DUP2 MLOAD SWAP1 POP SWAP2 SWAP1 POP JUMP JUMPDEST PUSH0 DUP3 DUP3 MSTORE PUSH1 0x20 DUP3 ADD SWAP1 POP SWAP3 SWAP2 POP POP JUMP JUMPDEST DUP3 DUP2 DUP4 MCOPY PUSH0 DUP4 DUP4 ADD MSTORE POP POP POP JUMP JUMPDEST PUSH0 PUSH1 0x1F NOT PUSH1 0x1F DUP4 ADD AND SWAP1 POP SWAP2 SWAP1 POP JUMP JUMPDEST PUSH0 PUSH2 0x1075 DUP3 PUSH2 0x1033 JUMP JUMPDEST PUSH2 0x107F DUP2 DUP6 PUSH2 0x103D JUMP JUMPDEST SWAP4 POP PUSH2 0x108F DUP2 DUP6 PUSH1 0x20 DUP7 ADD PUSH2 0x104D JUMP JUMPDEST PUSH2 0x1098 DUP2 PUSH2 0x105B JUMP JUMPDEST DUP5 ADD SWAP2 POP POP SWAP3 SWAP2 POP POP JUMP JUMPDEST PUSH0 PUSH1 0xA0 DUP3 ADD SWAP1 POP PUSH2 0x10B6 PUSH0 DUP4 ADD DUP9 PUSH2 0x1015 JUMP JUMPDEST PUSH2 0x10C3 PUSH1 0x20 DUP4 ADD DUP8 PUSH2 0x1024 JUMP JUMPDEST DUP2 DUP2 SUB PUSH1 0x40 DUP4 ADD MSTORE PUSH2 0x10D5 DUP2 DUP7 PUSH2 0x106B JUMP JUMPDEST SWAP1 POP PUSH2 0x10E4 PUSH1 0x60 DUP4 ADD DUP6 PUSH2 0x1015 JUMP JUMPDEST PUSH2 0x10F1 PUSH1 0x80 DUP4 ADD DUP5 PUSH2 0x1015 JUMP JUMPDEST SWAP7 SWAP6 POP POP POP POP POP POP JUMP JUMPDEST PUSH0 PUSH1 0x20 DUP3 DUP5 SUB SLT ISZERO PUSH2 0x1110 JUMPI PUSH2 0x110F PUSH2 0xF42 JUMP JUMPDEST JUMPDEST PUSH0 PUSH2 0x111D DUP5 DUP3 DUP6 ADD PUSH2 0xF90 JUMP JUMPDEST SWAP2 POP POP SWAP3 SWAP2 POP POP JUMP JUMPDEST PUSH0 DUP2 MLOAD SWAP1 POP SWAP2 SWAP1 POP JUMP JUMPDEST PUSH0 DUP3 DUP3 MSTORE PUSH1 0x20 DUP3 ADD SWAP1 POP SWAP3 SWAP2 POP POP JUMP JUMPDEST PUSH0 DUP2 SWAP1 POP PUSH1 0x20 DUP3 ADD SWAP1 POP SWAP2 SWAP1 POP JUMP JUMPDEST PUSH2 0x1158 DUP2 PUSH2 0xFA4 JUMP JUMPDEST DUP3 MSTORE POP POP JUMP JUMPDEST PUSH2 0x1167 DUP2 PUSH2 0xF69 JUMP JUMPDEST DUP3 MSTORE POP POP JUMP JUMPDEST PUSH0 DUP3 DUP3 MSTORE PUSH1 0x20 DUP3 ADD SWAP1 POP SWAP3 SWAP2 POP POP JUMP JUMPDEST PUSH0 PUSH2 0x1187 DUP3 PUSH2 0x1033 JUMP JUMPDEST PUSH2 0x1191 DUP2 DUP6 PUSH2 0x116D JUMP JUMPDEST SWAP4 POP PUSH2 0x11A1 DUP2 DUP6 PUSH1 0x20 DUP7 ADD PUSH2 0x104D JUMP JUMPDEST PUSH2 0x11AA DUP2 PUSH2 0x105B JUMP JUMPDEST DUP5 ADD SWAP2 POP POP SWAP3 SWAP2 POP POP JUMP JUMPDEST PUSH0 PUSH1 0xA0 DUP4 ADD PUSH0 DUP4 ADD MLOAD PUSH2 0x11CA PUSH0 DUP7 ADD DUP3 PUSH2 0x114F JUMP JUMPDEST POP PUSH1 0x20 DUP4 ADD MLOAD PUSH2 0x11DD PUSH1 0x20 DUP7 ADD DUP3 PUSH2 0x115E JUMP JUMPDEST POP PUSH1 0x40 DUP4 ADD MLOAD DUP5 DUP3 SUB PUSH1 0x40 DUP7 ADD MSTORE PUSH2 0x11F5 DUP3 DUP3 PUSH2 0x117D JUMP JUMPDEST SWAP2 POP POP PUSH1 0x60 DUP4 ADD MLOAD PUSH2 0x120A PUSH1 0x60 DUP7 ADD DUP3 PUSH2 0x114F JUMP JUMPDEST POP PUSH1 0x80 DUP4 ADD MLOAD PUSH2 0x121D PUSH1 0x80 DUP7 ADD DUP3 PUSH2 0x114F JUMP JUMPDEST POP DUP1 SWAP2 POP POP SWAP3 SWAP2 POP POP JUMP JUMPDEST PUSH0 PUSH2 0x1233 DUP4 DUP4 PUSH2 0x11B5 JUMP JUMPDEST SWAP1 POP SWAP3 SWAP2 POP POP JUMP JUMPDEST PUSH0 PUSH1 0x20 DUP3 ADD SWAP1 POP SWAP2 SWAP1 POP JUMP JUMPDEST PUSH0 PUSH2 0x1251 DUP3 PUSH2 0x1126 JUMP JUMPDEST PUSH2 0x125B DUP2 DUP6 PUSH2 0x1130 JUMP JUMPDEST SWAP4 POP DUP4 PUSH1 0x20 DUP3 MUL DUP6 ADD PUSH2 0x126D DUP6 PUSH2 0x1140 JUMP JUMPDEST DUP1 PUSH0 JUMPDEST DUP6 DUP2 LT ISZERO PUSH2 0x12A8 JUMPI DUP5 DUP5 SUB DUP10 MSTORE DUP2 MLOAD PUSH2 0x1289 DUP6 DUP3 PUSH2 0x1228 JUMP JUMPDEST SWAP5 POP PUSH2 0x1294 DUP4 PUSH2 0x123B JUMP JUMPDEST SWAP3 POP PUSH1 0x20 DUP11 ADD SWAP10 POP POP PUSH1 0x1 DUP2 ADD SWAP1 POP PUSH2 0x1270 JUMP JUMPDEST POP DUP3 SWAP8 POP DUP8 SWAP6 POP POP POP POP POP POP SWAP3 SWAP2 POP POP JUMP JUMPDEST PUSH0 PUSH1 0x20 DUP3 ADD SWAP1 POP DUP2 DUP2 SUB PUSH0 DUP4 ADD MSTORE PUSH2 0x12D2 DUP2 DUP5 PUSH2 0x1247 JUMP JUMPDEST SWAP1 POP SWAP3 SWAP2 POP POP JUMP JUMPDEST PUSH0 PUSH2 0xFFFF DUP3 AND SWAP1 POP SWAP2 SWAP1 POP JUMP JUMPDEST PUSH2 0x12F0 DUP2 PUSH2 0x12DA JUMP JUMPDEST DUP2 EQ PUSH2 0x12FA JUMPI PUSH0 DUP1 REVERT JUMPDEST POP JUMP JUMPDEST PUSH0 DUP2 CALLDATALOAD SWAP1 POP PUSH2 0x130B DUP2 PUSH2 0x12E7 JUMP JUMPDEST SWAP3 SWAP2 POP POP JUMP JUMPDEST PUSH0 PUSH1 0x20 DUP3 DUP5 SUB SLT ISZERO PUSH2 0x1326 JUMPI PUSH2 0x1325 PUSH2 0xF42 JUMP JUMPDEST JUMPDEST PUSH0 PUSH2 0x1333 DUP5 DUP3 DUP6 ADD PUSH2 0x12FD JUMP JUMPDEST SWAP2 POP POP SWAP3 SWAP2 POP POP JUMP JUMPDEST PUSH2 0x1345 DUP2 PUSH2 0x12DA JUMP JUMPDEST DUP3 MSTORE POP POP JUMP JUMPDEST PUSH0 PUSH1 0x20 DUP3 ADD SWAP1 POP PUSH2 0x135E PUSH0 DUP4 ADD DUP5 PUSH2 0x133C JUMP JUMPDEST SWAP3 SWAP2 POP POP JUMP JUMPDEST PUSH0 DUP1 REVERT JUMPDEST PUSH0 DUP1 REVERT JUMPDEST PUSH32 0x4E487B7100000000000000000000000000000000000000000000000000000000 PUSH0 MSTORE PUSH1 0x41 PUSH1 0x4 MSTORE PUSH1 0x24 PUSH0 REVERT JUMPDEST PUSH2 0x13A2 DUP3 PUSH2 0x105B JUMP JUMPDEST DUP2 ADD DUP2 DUP2 LT PUSH8 0xFFFFFFFFFFFFFFFF DUP3 GT OR ISZERO PUSH2 0x13C1 JUMPI PUSH2 0x13C0 PUSH2 0x136C JUMP JUMPDEST JUMPDEST DUP1 PUSH1 0x40 MSTORE POP POP POP JUMP JUMPDEST PUSH0 PUSH2 0x13D3 PUSH2 0xF39 JUMP JUMPDEST SWAP1 POP PUSH2 0x13DF DUP3 DUP3 PUSH2 0x1399 JUMP JUMPDEST SWAP2 SWAP1 POP JUMP JUMPDEST PUSH0 PUSH8 0xFFFFFFFFFFFFFFFF DUP3 GT ISZERO PUSH2 0x13FE JUMPI PUSH2 0x13FD PUSH2 0x136C JUMP JUMPDEST JUMPDEST PUSH2 0x1407 DUP3 PUSH2 0x105B JUMP JUMPDEST SWAP1 POP PUSH1 0x20 DUP2 ADD SWAP1 POP SWAP2 SWAP1 POP JUMP JUMPDEST DUP3 DUP2 DUP4 CALLDATACOPY PUSH0 DUP4 DUP4 ADD MSTORE POP POP POP JUMP JUMPDEST PUSH0 PUSH2 0x1434 PUSH2 0x142F DUP5 PUSH2 0x13E4 JUMP JUMPDEST PUSH2 0x13CA JUMP JUMPDEST SWAP1 POP DUP3 DUP2 MSTORE PUSH1 0x20 DUP2 ADD DUP5 DUP5 DUP5 ADD GT ISZERO PUSH2 0x1450 JUMPI PUSH2 0x144F PUSH2 0x1368 JUMP JUMPDEST JUMPDEST PUSH2 0x145B DUP5 DUP3 DUP6 PUSH2 0x1414 JUMP JUMPDEST POP SWAP4 SWAP3 POP POP POP JUMP JUMPDEST PUSH0 DUP3 PUSH1 0x1F DUP4 ADD SLT PUSH2 0x1477 JUMPI PUSH2 0x1476 PUSH2 0x1364 JUMP JUMPDEST JUMPDEST DUP2 CALLDATALOAD PUSH2 0x1487 DUP5 DUP3 PUSH1 0x20 DUP7 ADD PUSH2 0x1422 JUMP JUMPDEST SWAP2 POP POP SWAP3 SWAP2 POP POP JUMP JUMPDEST PUSH0 PUSH1 0x20 DUP3 DUP5 SUB SLT ISZERO PUSH2 0x14A5 JUMPI PUSH2 0x14A4 PUSH2 0xF42 JUMP JUMPDEST JUMPDEST PUSH0 DUP3 ADD CALLDATALOAD PUSH8 0xFFFFFFFFFFFFFFFF DUP2 GT ISZERO PUSH2 0x14C2 JUMPI PUSH2 0x14C1 PUSH2 0xF46 JUMP JUMPDEST JUMPDEST PUSH2 0x14CE DUP5 DUP3 DUP6 ADD PUSH2 0x1463 JUMP JUMPDEST SWAP2 POP POP SWAP3 SWAP2 POP POP JUMP JUMPDEST PUSH0 PUSH1 0x20 DUP3 ADD SWAP1 POP PUSH2 0x14EA PUSH0 DUP4 ADD DUP5 PUSH2 0x1024 JUMP JUMPDEST SWAP3 SWAP2 POP POP JUMP JUMPDEST PUSH0 PUSH1 0x20 DUP3 DUP5 SUB SLT ISZERO PUSH2 0x1505 JUMPI PUSH2 0x1504 PUSH2 0xF42 JUMP JUMPDEST JUMPDEST PUSH0 PUSH2 0x1512 DUP5 DUP3 DUP6 ADD PUSH2 0xFC3 JUMP JUMPDEST SWAP2 POP POP SWAP3 SWAP2 POP POP JUMP JUMPDEST PUSH0 PUSH1 0xA0 DUP4 ADD PUSH0 DUP4 ADD MLOAD PUSH2 0x1530 PUSH0 DUP7 ADD DUP3 PUSH2 0x114F JUMP JUMPDEST POP PUSH1 0x20 DUP4 ADD MLOAD PUSH2 0x1543 PUSH1 0x20 DUP7 ADD DUP3 PUSH2 0x115E JUMP JUMPDEST POP PUSH1 0x40 DUP4 ADD MLOAD DUP5 DUP3 SUB PUSH1 0x40 DUP7 ADD MSTORE PUSH2 0x155B DUP3 DUP3 PUSH2 0x117D JUMP JUMPDEST SWAP2 POP POP PUSH1 0x60 DUP4 ADD MLOAD PUSH2 0x1570 PUSH1 0x60 DUP7 ADD DUP3 PUSH2 0x114F JUMP JUMPDEST POP PUSH1 0x80 DUP4 ADD MLOAD PUSH2 0x1583 PUSH1 0x80 DUP7 ADD DUP3 PUSH2 0x114F JUMP JUMPDEST POP DUP1 SWAP2 POP POP SWAP3 SWAP2 POP POP JUMP JUMPDEST PUSH0 PUSH1 0x20 DUP3 ADD SWAP1 POP DUP2 DUP2 SUB PUSH0 DUP4 ADD MSTORE PUSH2 0x15A6 DUP2 DUP5 PUSH2 0x151B JUMP JUMPDEST SWAP1 POP SWAP3 SWAP2 POP POP JUMP JUMPDEST PUSH32 0x4E487B7100000000000000000000000000000000000000000000000000000000 PUSH0 MSTORE PUSH1 0x22 PUSH1 0x4 MSTORE PUSH1 0x24 PUSH0 REVERT JUMPDEST PUSH0 PUSH1 0x2 DUP3 DIV SWAP1 POP PUSH1 0x1 DUP3 AND DUP1 PUSH2 0x15F2 JUMPI PUSH1 0x7F DUP3 AND SWAP2 POP JUMPDEST PUSH1 0x20 DUP3 LT DUP2 SUB PUSH2 0x1605 JUMPI PUSH2 0x1604 PUSH2 0x15AE JUMP JUMPDEST JUMPDEST POP SWAP2 SWAP1 POP JUMP JUMPDEST PUSH32 0x4E487B7100000000000000000000000000000000000000000000000000000000 PUSH0 MSTORE PUSH1 0x32 PUSH1 0x4 MSTORE PUSH1 0x24 PUSH0 REVERT JUMPDEST PUSH32 0x547765657420446F6573204E6F74204578697374000000000000000000000000 PUSH0 DUP3 ADD MSTORE POP JUMP JUMPDEST PUSH0 PUSH2 0x166C PUSH1 0x14 DUP4 PUSH2 0x103D JUMP JUMPDEST SWAP2 POP PUSH2 0x1677 DUP3 PUSH2 0x1638 JUMP JUMPDEST PUSH1 0x20 DUP3 ADD SWAP1 POP SWAP2 SWAP1 POP JUMP JUMPDEST PUSH0 PUSH1 0x20 DUP3 ADD SWAP1 POP DUP2 DUP2 SUB PUSH0 DUP4 ADD MSTORE PUSH2 0x1699 DUP2 PUSH2 0x1660 JUMP JUMPDEST SWAP1 POP SWAP2 SWAP1 POP JUMP JUMPDEST PUSH32 0x54776565747320686173206E6F206C696B657300000000000000000000000000 PUSH0 DUP3 ADD MSTORE POP JUMP JUMPDEST PUSH0 PUSH2 0x16D4 PUSH1 0x13 DUP4 PUSH2 0x103D JUMP JUMPDEST SWAP2 POP PUSH2 0x16DF DUP3 PUSH2 0x16A0 JUMP JUMPDEST PUSH1 0x20 DUP3 ADD SWAP1 POP SWAP2 SWAP1 POP JUMP JUMPDEST PUSH0 PUSH1 0x20 DUP3 ADD SWAP1 POP DUP2 DUP2 SUB PUSH0 DUP4 ADD MSTORE PUSH2 0x1701 DUP2 PUSH2 0x16C8 JUMP JUMPDEST SWAP1 POP SWAP2 SWAP1 POP JUMP JUMPDEST PUSH32 0x4E487B7100000000000000000000000000000000000000000000000000000000 PUSH0 MSTORE PUSH1 0x11 PUSH1 0x4 MSTORE PUSH1 0x24 PUSH0 REVERT JUMPDEST PUSH0 PUSH2 0x173F DUP3 PUSH2 0xFA4 JUMP JUMPDEST SWAP2 POP PUSH0 DUP3 SUB PUSH2 0x1751 JUMPI PUSH2 0x1750 PUSH2 0x1708 JUMP JUMPDEST JUMPDEST PUSH1 0x1 DUP3 SUB SWAP1 POP SWAP2 SWAP1 POP JUMP JUMPDEST PUSH0 PUSH1 0x80 DUP3 ADD SWAP1 POP PUSH2 0x176F PUSH0 DUP4 ADD DUP8 PUSH2 0x1024 JUMP JUMPDEST PUSH2 0x177C PUSH1 0x20 DUP4 ADD DUP7 PUSH2 0x1024 JUMP JUMPDEST PUSH2 0x1789 PUSH1 0x40 DUP4 ADD DUP6 PUSH2 0x1015 JUMP JUMPDEST PUSH2 0x1796 PUSH1 0x60 DUP4 ADD DUP5 PUSH2 0x1015 JUMP JUMPDEST SWAP6 SWAP5 POP POP POP POP POP JUMP JUMPDEST PUSH0 PUSH2 0x17A9 DUP3 PUSH2 0xFA4 JUMP JUMPDEST SWAP2 POP PUSH32 0xFFFFFFFFFFFFFFFFFFFFFFFFFFFFFFFFFFFFFFFFFFFFFFFFFFFFFFFFFFFFFFFF DUP3 SUB PUSH2 0x17DB JUMPI PUSH2 0x17DA PUSH2 0x1708 JUMP JUMPDEST JUMPDEST PUSH1 0x1 DUP3 ADD SWAP1 POP SWAP2 SWAP1 POP JUMP JUMPDEST PUSH32 0x547765657420697320746F6F206C6F6E672062726F3A20000000000000000000 PUSH0 DUP3 ADD MSTORE POP JUMP JUMPDEST PUSH0 PUSH2 0x181A PUSH1 0x17 DUP4 PUSH2 0x103D JUMP JUMPDEST SWAP2 POP PUSH2 0x1825 DUP3 PUSH2 0x17E6 JUMP JUMPDEST PUSH1 0x20 DUP3 ADD SWAP1 POP SWAP2 SWAP1 POP JUMP JUMPDEST PUSH0 PUSH1 0x20 DUP3 ADD SWAP1 POP DUP2 DUP2 SUB PUSH0 DUP4 ADD MSTORE PUSH2 0x1847 DUP2 PUSH2 0x180E JUMP JUMPDEST SWAP1 POP SWAP2 SWAP1 POP JUMP JUMPDEST PUSH0 DUP2 SWAP1 POP DUP2 PUSH0 MSTORE PUSH1 0x20 PUSH0 KECCAK256 SWAP1 POP SWAP2 SWAP1 POP JUMP JUMPDEST PUSH0 PUSH1 0x20 PUSH1 0x1F DUP4 ADD DIV SWAP1 POP SWAP2 SWAP1 POP JUMP JUMPDEST PUSH0 DUP3 DUP3 SHL SWAP1 POP SWAP3 SWAP2 POP POP JUMP JUMPDEST PUSH0 PUSH1 0x8 DUP4 MUL PUSH2 0x18AA PUSH32 0xFFFFFFFFFFFFFFFFFFFFFFFFFFFFFFFFFFFFFFFFFFFFFFFFFFFFFFFFFFFFFFFF DUP3 PUSH2 0x186F JUMP JUMPDEST PUSH2 0x18B4 DUP7 DUP4 PUSH2 0x186F JUMP JUMPDEST SWAP6 POP DUP1 NOT DUP5 AND SWAP4 POP DUP1 DUP7 AND DUP5 OR SWAP3 POP POP POP SWAP4 SWAP3 POP POP POP JUMP JUMPDEST PUSH0 DUP2 SWAP1 POP SWAP2 SWAP1 POP JUMP JUMPDEST PUSH0 PUSH2 0x18EF PUSH2 0x18EA PUSH2 0x18E5 DUP5 PUSH2 0xFA4 JUMP JUMPDEST PUSH2 0x18CC JUMP JUMPDEST PUSH2 0xFA4 JUMP JUMPDEST SWAP1 POP SWAP2 SWAP1 POP JUMP JUMPDEST PUSH0 DUP2 SWAP1 POP SWAP2 SWAP1 POP JUMP JUMPDEST PUSH2 0x1908 DUP4 PUSH2 0x18D5 JUMP JUMPDEST PUSH2 0x191C PUSH2 0x1914 DUP3 PUSH2 0x18F6 JUMP JUMPDEST DUP5 DUP5 SLOAD PUSH2 0x187B JUMP JUMPDEST DUP3 SSTORE POP POP POP POP JUMP JUMPDEST PUSH0 SWAP1 JUMP JUMPDEST PUSH2 0x1930 PUSH2 0x1924 JUMP JUMPDEST PUSH2 0x193B DUP2 DUP5 DUP5 PUSH2 0x18FF JUMP JUMPDEST POP POP POP JUMP JUMPDEST JUMPDEST DUP2 DUP2 LT ISZERO PUSH2 0x195E JUMPI PUSH2 0x1953 PUSH0 DUP3 PUSH2 0x1928 JUMP JUMPDEST PUSH1 0x1 DUP2 ADD SWAP1 POP PUSH2 0x1941 JUMP JUMPDEST POP POP JUMP JUMPDEST PUSH1 0x1F DUP3 GT ISZERO PUSH2 0x19A3 JUMPI PUSH2 0x1974 DUP2 PUSH2 0x184E JUMP JUMPDEST PUSH2 0x197D DUP5 PUSH2 0x1860 JUMP JUMPDEST DUP2 ADD PUSH1 0x20 DUP6 LT ISZERO PUSH2 0x198C JUMPI DUP2 SWAP1 POP JUMPDEST PUSH2 0x19A0 PUSH2 0x1998 DUP6 PUSH2 0x1860 JUMP JUMPDEST DUP4 ADD DUP3 PUSH2 0x1940 JUMP JUMPDEST POP POP JUMPDEST POP POP POP JUMP JUMPDEST PUSH0 DUP3 DUP3 SHR SWAP1 POP SWAP3 SWAP2 POP POP JUMP JUMPDEST PUSH0 PUSH2 0x19C3 PUSH0 NOT DUP5 PUSH1 0x8 MUL PUSH2 0x19A8 JUMP JUMPDEST NOT DUP1 DUP4 AND SWAP2 POP POP SWAP3 SWAP2 POP POP JUMP JUMPDEST PUSH0 PUSH2 0x19DB DUP4 DUP4 PUSH2 0x19B4 JUMP JUMPDEST SWAP2 POP DUP3 PUSH1 0x2 MUL DUP3 OR SWAP1 POP SWAP3 SWAP2 POP POP JUMP JUMPDEST PUSH2 0x19F4 DUP3 PUSH2 0x1033 JUMP JUMPDEST PUSH8 0xFFFFFFFFFFFFFFFF DUP2 GT ISZERO PUSH2 0x1A0D JUMPI PUSH2 0x1A0C PUSH2 0x136C JUMP JUMPDEST JUMPDEST PUSH2 0x1A17 DUP3 SLOAD PUSH2 0x15DB JUMP JUMPDEST PUSH2 0x1A22 DUP3 DUP3 DUP6 PUSH2 0x1962 JUMP JUMPDEST PUSH0 PUSH1 0x20 SWAP1 POP PUSH1 0x1F DUP4 GT PUSH1 0x1 DUP2 EQ PUSH2 0x1A53 JUMPI PUSH0 DUP5 ISZERO PUSH2 0x1A41 JUMPI DUP3 DUP8 ADD MLOAD SWAP1 POP JUMPDEST PUSH2 0x1A4B DUP6 DUP3 PUSH2 0x19D0 JUMP JUMPDEST DUP7 SSTORE POP PUSH2 0x1AB2 JUMP JUMPDEST PUSH1 0x1F NOT DUP5 AND PUSH2 0x1A61 DUP7 PUSH2 0x184E JUMP JUMPDEST PUSH0 JUMPDEST DUP3 DUP2 LT ISZERO PUSH2 0x1A88 JUMPI DUP5 DUP10 ADD MLOAD DUP3 SSTORE PUSH1 0x1 DUP3 ADD SWAP2 POP PUSH1 0x20 DUP6 ADD SWAP5 POP PUSH1 0x20 DUP2 ADD SWAP1 POP PUSH2 0x1A63 JUMP JUMPDEST DUP7 DUP4 LT ISZERO PUSH2 0x1AA5 JUMPI DUP5 DUP10 ADD MLOAD PUSH2 0x1AA1 PUSH1 0x1F DUP10 AND DUP3 PUSH2 0x19B4 JUMP JUMPDEST DUP4 SSTORE POP JUMPDEST PUSH1 0x1 PUSH1 0x2 DUP9 MUL ADD DUP9 SSTORE POP POP POP JUMPDEST POP POP POP POP POP POP JUMP JUMPDEST PUSH0 PUSH1 0x80 DUP3 ADD SWAP1 POP PUSH2 0x1ACD PUSH0 DUP4 ADD DUP8 PUSH2 0x1015 JUMP JUMPDEST PUSH2 0x1ADA PUSH1 0x20 DUP4 ADD DUP7 PUSH2 0x1024 JUMP JUMPDEST DUP2 DUP2 SUB PUSH1 0x40 DUP4 ADD MSTORE PUSH2 0x1AEC DUP2 DUP6 PUSH2 0x106B JUMP JUMPDEST SWAP1 POP PUSH2 0x1AFB PUSH1 0x60 DUP4 ADD DUP5 PUSH2 0x1015 JUMP JUMPDEST SWAP6 SWAP5 POP POP POP POP POP JUMP INVALID LOG2 PUSH5 0x6970667358 0x22 SLT KECCAK256 SELFBALANCE 0xAA 0xDC INVALID 0xFB PUSH16 0x6E09E91CC3E3AA1E49E3FD55A32A081F SWAP14 LOG3 0xCE SWAP12 0xB5 0xAD DUP10 0xE0 XOR 0xC1 PUSH5 0x736F6C6343 STOP ADDMOD BYTE STOP CALLER "
				},
				"gasEstimates": {
					"creation": {
						"codeDepositCost": "1394000",
						"executionCost": "infinite",
						"totalCost": "infinite"
					},
					"external": {
						"MAX_TWEET_LENGTH()": "2516",
						"changeTweetLength(uint16)": "infinite",
						"createTweet(string)": "infinite",
						"getAllTweets(address)": "infinite",
						"getTweet(uint256)": "infinite",
						"likeTweet(address,uint256)": "infinite",
						"owner()": "2581",
						"renounceOwnership()": "infinite",
						"transferOwnership(address)": "infinite",
						"tweets(address,uint256)": "infinite",
						"unlikeTweet(address,uint256)": "infinite"
					}
				},
				"methodIdentifiers": {
					"MAX_TWEET_LENGTH()": "6eb10797",
					"changeTweetLength(uint16)": "58bfa4ab",
					"createTweet(string)": "7c9cd2bc",
					"getAllTweets(address)": "12e7ee1c",
					"getTweet(uint256)": "c3ad5ecb",
					"likeTweet(address,uint256)": "63378216",
					"owner()": "8da5cb5b",
					"renounceOwnership()": "715018a6",
					"transferOwnership(address)": "f2fde38b",
					"tweets(address,uint256)": "05a1b4a9",
					"unlikeTweet(address,uint256)": "3d9b569f"
				}
			},
			"storageLayout": {
				"storage": [
					{
						"astId": 8,
						"contract": "contracts/Twitter-Inheritance-Solution.sol:Twitter",
						"label": "_owner",
						"offset": 0,
						"slot": "0",
						"type": "t_address"
					},
					{
						"astId": 185,
						"contract": "contracts/Twitter-Inheritance-Solution.sol:Twitter",
						"label": "MAX_TWEET_LENGTH",
						"offset": 20,
						"slot": "0",
						"type": "t_uint16"
					},
					{
						"astId": 202,
						"contract": "contracts/Twitter-Inheritance-Solution.sol:Twitter",
						"label": "tweets",
						"offset": 0,
						"slot": "1",
						"type": "t_mapping(t_address,t_array(t_struct(Tweet)196_storage)dyn_storage)"
					}
				],
				"types": {
					"t_address": {
						"encoding": "inplace",
						"label": "address",
						"numberOfBytes": "20"
					},
					"t_array(t_struct(Tweet)196_storage)dyn_storage": {
						"base": "t_struct(Tweet)196_storage",
						"encoding": "dynamic_array",
						"label": "struct Twitter.Tweet[]",
						"numberOfBytes": "32"
					},
					"t_mapping(t_address,t_array(t_struct(Tweet)196_storage)dyn_storage)": {
						"encoding": "mapping",
						"key": "t_address",
						"label": "mapping(address => struct Twitter.Tweet[])",
						"numberOfBytes": "32",
						"value": "t_array(t_struct(Tweet)196_storage)dyn_storage"
					},
					"t_string_storage": {
						"encoding": "bytes",
						"label": "string",
						"numberOfBytes": "32"
					},
					"t_struct(Tweet)196_storage": {
						"encoding": "inplace",
						"label": "struct Twitter.Tweet",
						"members": [
							{
								"astId": 187,
								"contract": "contracts/Twitter-Inheritance-Solution.sol:Twitter",
								"label": "id",
								"offset": 0,
								"slot": "0",
								"type": "t_uint256"
							},
							{
								"astId": 189,
								"contract": "contracts/Twitter-Inheritance-Solution.sol:Twitter",
								"label": "author",
								"offset": 0,
								"slot": "1",
								"type": "t_address"
							},
							{
								"astId": 191,
								"contract": "contracts/Twitter-Inheritance-Solution.sol:Twitter",
								"label": "content",
								"offset": 0,
								"slot": "2",
								"type": "t_string_storage"
							},
							{
								"astId": 193,
								"contract": "contracts/Twitter-Inheritance-Solution.sol:Twitter",
								"label": "timestamps",
								"offset": 0,
								"slot": "3",
								"type": "t_uint256"
							},
							{
								"astId": 195,
								"contract": "contracts/Twitter-Inheritance-Solution.sol:Twitter",
								"label": "likes",
								"offset": 0,
								"slot": "4",
								"type": "t_uint256"
							}
						],
						"numberOfBytes": "160"
					},
					"t_uint16": {
						"encoding": "inplace",
						"label": "uint16",
						"numberOfBytes": "2"
					},
					"t_uint256": {
						"encoding": "inplace",
						"label": "uint256",
						"numberOfBytes": "32"
					}
				}
			},
			"userdoc": {
				"kind": "user",
				"methods": {},
				"version": 1
			}
		}
	}
}