{
	"contracts/Twitter-AddEvent.sol": {
		"Twitter": {
			"abi": [
				{
					"inputs": [],
					"stateMutability": "nonpayable",
					"type": "constructor"
				},
				{
					"anonymous": false,
					"inputs": [
						{
							"indexed": false,
							"internalType": "uint256",
							"name": "id",
							"type": "uint256"
						},
						{
							"indexed": false,
							"internalType": "address",
							"name": "author",
							"type": "address"
						},
						{
							"indexed": false,
							"internalType": "string",
							"name": "content",
							"type": "string"
						},
						{
							"indexed": false,
							"internalType": "uint256",
							"name": "timestamps",
							"type": "uint256"
						}
					],
					"name": "TweetCreated",
					"type": "event"
				},
				{
					"anonymous": false,
					"inputs": [
						{
							"indexed": false,
							"internalType": "address",
							"name": "liker",
							"type": "address"
						},
						{
							"indexed": false,
							"internalType": "address",
							"name": "tweetAuthor",
							"type": "address"
						},
						{
							"indexed": false,
							"internalType": "uint256",
							"name": "id",
							"type": "uint256"
						},
						{
							"indexed": false,
							"internalType": "uint256",
							"name": "newLikeCount",
							"type": "uint256"
						}
					],
					"name": "TweetLiked",
					"type": "event"
				},
				{
					"anonymous": false,
					"inputs": [
						{
							"indexed": false,
							"internalType": "address",
							"name": "unliker",
							"type": "address"
						},
						{
							"indexed": false,
							"internalType": "address",
							"name": "tweetAuthor",
							"type": "address"
						},
						{
							"indexed": false,
							"internalType": "uint256",
							"name": "id",
							"type": "uint256"
						},
						{
							"indexed": false,
							"internalType": "uint256",
							"name": "newLikeCount",
							"type": "uint256"
						}
					],
					"name": "TweetUnliked",
					"type": "event"
				},
				{
					"inputs": [],
					"name": "MAX_TWEET_LENGTH",
					"outputs": [
						{
							"internalType": "uint16",
							"name": "",
							"type": "uint16"
						}
					],
					"stateMutability": "view",
					"type": "function"
				},
				{
					"inputs": [
						{
							"internalType": "uint16",
							"name": "newTweetLength",
							"type": "uint16"
						}
					],
					"name": "changeTweetLength",
					"outputs": [],
					"stateMutability": "nonpayable",
					"type": "function"
				},
				{
					"inputs": [
						{
							"internalType": "string",
							"name": "_tweet",
							"type": "string"
						}
					],
					"name": "createTweet",
					"outputs": [],
					"stateMutability": "nonpayable",
					"type": "function"
				},
				{
					"inputs": [
						{
							"internalType": "address",
							"name": "_owner",
							"type": "address"
						}
					],
					"name": "getAllTweets",
					"outputs": [
						{
							"components": [
								{
									"internalType": "uint256",
									"name": "id",
									"type": "uint256"
								},
								{
									"internalType": "address",
									"name": "author",
									"type": "address"
								},
								{
									"internalType": "string",
									"name": "content",
									"type": "string"
								},
								{
									"internalType": "uint256",
									"name": "timestamps",
									"type": "uint256"
								},
								{
									"internalType": "uint256",
									"name": "likes",
									"type": "uint256"
								}
							],
							"internalType": "struct Twitter.Tweet[]",
							"name": "",
							"type": "tuple[]"
						}
					],
					"stateMutability": "view",
					"type": "function"
				},
				{
					"inputs": [
						{
							"internalType": "uint256",
							"name": "_i",
							"type": "uint256"
						}
					],
					"name": "getTweet",
					"outputs": [
						{
							"components": [
								{
									"internalType": "uint256",
									"name": "id",
									"type": "uint256"
								},
								{
									"internalType": "address",
									"name": "author",
									"type": "address"
								},
								{
									"internalType": "string",
									"name": "content",
									"type": "string"
								},
								{
									"internalType": "uint256",
									"name": "timestamps",
									"type": "uint256"
								},
								{
									"internalType": "uint256",
									"name": "likes",
									"type": "uint256"
								}
							],
							"internalType": "struct Twitter.Tweet",
							"name": "",
							"type": "tuple"
						}
					],
					"stateMutability": "view",
					"type": "function"
				},
				{
					"inputs": [
						{
							"internalType": "address",
							"name": "author",
							"type": "address"
						},
						{
							"internalType": "uint256",
							"name": "id",
							"type": "uint256"
						}
					],
					"name": "likeTweet",
					"outputs": [],
					"stateMutability": "nonpayable",
					"type": "function"
				},
				{
					"inputs": [],
					"name": "owner",
					"outputs": [
						{
							"internalType": "address",
							"name": "",
							"type": "address"
						}
					],
					"stateMutability": "view",
					"type": "function"
				},
				{
					"inputs": [
						{
							"internalType": "address",
							"name": "",
							"type": "address"
						},
						{
							"internalType": "uint256",
							"name": "",
							"type": "uint256"
						}
					],
					"name": "tweets",
					"outputs": [
						{
							"internalType": "uint256",
							"name": "id",
							"type": "uint256"
						},
						{
							"internalType": "address",
							"name": "author",
							"type": "address"
						},
						{
							"internalType": "string",
							"name": "content",
							"type": "string"
						},
						{
							"internalType": "uint256",
							"name": "timestamps",
							"type": "uint256"
						},
						{
							"internalType": "uint256",
							"name": "likes",
							"type": "uint256"
						}
					],
					"stateMutability": "view",
					"type": "function"
				},
				{
					"inputs": [
						{
							"internalType": "address",
							"name": "author",
							"type": "address"
						},
						{
							"internalType": "uint256",
							"name": "id",
							"type": "uint256"
						}
					],
					"name": "unlikeTweet",
					"outputs": [],
					"stateMutability": "nonpayable",
					"type": "function"
				}
			],
			"devdoc": {
				"kind": "dev",
				"methods": {},
				"version": 1
			},
			"evm": {
				"assembly": "    /* \"contracts/Twitter-AddEvent.sol\":63:2533  contract Twitter {... */\n  mstore(0x40, 0x80)\n    /* \"contracts/Twitter-AddEvent.sol\":122:125  280 */\n  0x0118\n    /* \"contracts/Twitter-AddEvent.sol\":89:125  uint16 public MAX_TWEET_LENGTH = 280 */\n  0x00\n  dup1\n  0x0100\n  exp\n  dup2\n  sload\n  dup2\n  0xffff\n  mul\n  not\n  and\n  swap1\n  dup4\n  0xffff\n  and\n  mul\n  or\n  swap1\n  sstore\n  pop\n    /* \"contracts/Twitter-AddEvent.sol\":680:730  constructor(){... */\n  callvalue\n  dup1\n  iszero\n  tag_1\n  jumpi\n  0x00\n  dup1\n  revert\ntag_1:\n  pop\n    /* \"contracts/Twitter-AddEvent.sol\":712:722  msg.sender */\n  caller\n    /* \"contracts/Twitter-AddEvent.sol\":704:709  owner */\n  0x02\n  0x00\n    /* \"contracts/Twitter-AddEvent.sol\":704:722  owner = msg.sender */\n  0x0100\n  exp\n  dup2\n  sload\n  dup2\n  0xffffffffffffffffffffffffffffffffffffffff\n  mul\n  not\n  and\n  swap1\n  dup4\n  0xffffffffffffffffffffffffffffffffffffffff\n  and\n  mul\n  or\n  swap1\n  sstore\n  pop\n    /* \"contracts/Twitter-AddEvent.sol\":63:2533  contract Twitter {... */\n  dataSize(sub_0)\n  dup1\n  dataOffset(sub_0)\n  0x00\n  codecopy\n  0x00\n  return\nstop\n\nsub_0: assembly {\n        /* \"contracts/Twitter-AddEvent.sol\":63:2533  contract Twitter {... */\n      mstore(0x40, 0x80)\n      callvalue\n      dup1\n      iszero\n      tag_1\n      jumpi\n      0x00\n      dup1\n      revert\n    tag_1:\n      pop\n      jumpi(tag_2, lt(calldatasize, 0x04))\n      shr(0xe0, calldataload(0x00))\n      dup1\n      0x63378216\n      gt\n      tag_12\n      jumpi\n      dup1\n      0x63378216\n      eq\n      tag_7\n      jumpi\n      dup1\n      0x6eb10797\n      eq\n      tag_8\n      jumpi\n      dup1\n      0x7c9cd2bc\n      eq\n      tag_9\n      jumpi\n      dup1\n      0x8da5cb5b\n      eq\n      tag_10\n      jumpi\n      dup1\n      0xc3ad5ecb\n      eq\n      tag_11\n      jumpi\n      jump(tag_2)\n    tag_12:\n      dup1\n      0x05a1b4a9\n      eq\n      tag_3\n      jumpi\n      dup1\n      0x12e7ee1c\n      eq\n      tag_4\n      jumpi\n      dup1\n      0x3d9b569f\n      eq\n      tag_5\n      jumpi\n      dup1\n      0x58bfa4ab\n      eq\n      tag_6\n      jumpi\n    tag_2:\n      0x00\n      dup1\n      revert\n        /* \"contracts/Twitter-AddEvent.sol\":314:355  mapping(address => Tweet[]) public tweets */\n    tag_3:\n      tag_13\n      0x04\n      dup1\n      calldatasize\n      sub\n      dup2\n      add\n      swap1\n      tag_14\n      swap2\n      swap1\n      tag_15\n      jump\t// in\n    tag_14:\n      tag_16\n      jump\t// in\n    tag_13:\n      mload(0x40)\n      tag_17\n      swap6\n      swap5\n      swap4\n      swap3\n      swap2\n      swap1\n      tag_18\n      jump\t// in\n    tag_17:\n      mload(0x40)\n      dup1\n      swap2\n      sub\n      swap1\n      return\n        /* \"contracts/Twitter-AddEvent.sol\":2413:2530  function getAllTweets(address _owner) public view returns (Tweet[] memory) {... */\n    tag_4:\n      tag_19\n      0x04\n      dup1\n      calldatasize\n      sub\n      dup2\n      add\n      swap1\n      tag_20\n      swap2\n      swap1\n      tag_21\n      jump\t// in\n    tag_20:\n      tag_22\n      jump\t// in\n    tag_19:\n      mload(0x40)\n      tag_23\n      swap2\n      swap1\n      tag_24\n      jump\t// in\n    tag_23:\n      mload(0x40)\n      dup1\n      swap2\n      sub\n      swap1\n      return\n        /* \"contracts/Twitter-AddEvent.sol\":1933:2264  function unlikeTweet(address author, uint256 id) external {... */\n    tag_5:\n      tag_25\n      0x04\n      dup1\n      calldatasize\n      sub\n      dup2\n      add\n      swap1\n      tag_26\n      swap2\n      swap1\n      tag_15\n      jump\t// in\n    tag_26:\n      tag_27\n      jump\t// in\n    tag_25:\n      stop\n        /* \"contracts/Twitter-AddEvent.sol\":850:970  function changeTweetLength(uint16 newTweetLength ) public onlyOwner {... */\n    tag_6:\n      tag_28\n      0x04\n      dup1\n      calldatasize\n      sub\n      dup2\n      add\n      swap1\n      tag_29\n      swap2\n      swap1\n      tag_30\n      jump\t// in\n    tag_29:\n      tag_31\n      jump\t// in\n    tag_28:\n      stop\n        /* \"contracts/Twitter-AddEvent.sol\":1670:1925  function likeTweet(address author, uint256 id) external {... */\n    tag_7:\n      tag_32\n      0x04\n      dup1\n      calldatasize\n      sub\n      dup2\n      add\n      swap1\n      tag_33\n      swap2\n      swap1\n      tag_15\n      jump\t// in\n    tag_33:\n      tag_34\n      jump\t// in\n    tag_32:\n      stop\n        /* \"contracts/Twitter-AddEvent.sol\":89:125  uint16 public MAX_TWEET_LENGTH = 280 */\n    tag_8:\n      tag_35\n      tag_36\n      jump\t// in\n    tag_35:\n      mload(0x40)\n      tag_37\n      swap2\n      swap1\n      tag_38\n      jump\t// in\n    tag_37:\n      mload(0x40)\n      dup1\n      swap2\n      sub\n      swap1\n      return\n        /* \"contracts/Twitter-AddEvent.sol\":983:1662  function createTweet(string memory _tweet) public {... */\n    tag_9:\n      tag_39\n      0x04\n      dup1\n      calldatasize\n      sub\n      dup2\n      add\n      swap1\n      tag_40\n      swap2\n      swap1\n      tag_41\n      jump\t// in\n    tag_40:\n      tag_42\n      jump\t// in\n    tag_39:\n      stop\n        /* \"contracts/Twitter-AddEvent.sol\":364:384  address public owner */\n    tag_10:\n      tag_43\n      tag_44\n      jump\t// in\n    tag_43:\n      mload(0x40)\n      tag_45\n      swap2\n      swap1\n      tag_46\n      jump\t// in\n    tag_45:\n      mload(0x40)\n      dup1\n      swap2\n      sub\n      swap1\n      return\n        /* \"contracts/Twitter-AddEvent.sol\":2276:2401  function getTweet( uint256 _i) public view returns (Tweet memory) {... */\n    tag_11:\n      tag_47\n      0x04\n      dup1\n      calldatasize\n      sub\n      dup2\n      add\n      swap1\n      tag_48\n      swap2\n      swap1\n      tag_49\n      jump\t// in\n    tag_48:\n      tag_50\n      jump\t// in\n    tag_47:\n      mload(0x40)\n      tag_51\n      swap2\n      swap1\n      tag_52\n      jump\t// in\n    tag_51:\n      mload(0x40)\n      dup1\n      swap2\n      sub\n      swap1\n      return\n        /* \"contracts/Twitter-AddEvent.sol\":314:355  mapping(address => Tweet[]) public tweets */\n    tag_16:\n      mstore(0x20, 0x01)\n      dup2\n      0x00\n      mstore\n      keccak256(0x00, 0x40)\n      dup2\n      dup2\n      sload\n      dup2\n      lt\n      tag_53\n      jumpi\n      0x00\n      dup1\n      revert\n    tag_53:\n      swap1\n      0x00\n      mstore\n      keccak256(0x00, 0x20)\n      swap1\n      0x05\n      mul\n      add\n      0x00\n      swap2\n      pop\n      swap2\n      pop\n      pop\n      dup1\n      0x00\n      add\n      sload\n      swap1\n      dup1\n      0x01\n      add\n      0x00\n      swap1\n      sload\n      swap1\n      0x0100\n      exp\n      swap1\n      div\n      0xffffffffffffffffffffffffffffffffffffffff\n      and\n      swap1\n      dup1\n      0x02\n      add\n      dup1\n      sload\n      tag_55\n      swap1\n      tag_56\n      jump\t// in\n    tag_55:\n      dup1\n      0x1f\n      add\n      0x20\n      dup1\n      swap2\n      div\n      mul\n      0x20\n      add\n      mload(0x40)\n      swap1\n      dup2\n      add\n      0x40\n      mstore\n      dup1\n      swap3\n      swap2\n      swap1\n      dup2\n      dup2\n      mstore\n      0x20\n      add\n      dup3\n      dup1\n      sload\n      tag_57\n      swap1\n      tag_56\n      jump\t// in\n    tag_57:\n      dup1\n      iszero\n      tag_58\n      jumpi\n      dup1\n      0x1f\n      lt\n      tag_59\n      jumpi\n      0x0100\n      dup1\n      dup4\n      sload\n      div\n      mul\n      dup4\n      mstore\n      swap2\n      0x20\n      add\n      swap2\n      jump(tag_58)\n    tag_59:\n      dup3\n      add\n      swap2\n      swap1\n      0x00\n      mstore\n      keccak256(0x00, 0x20)\n      swap1\n    tag_60:\n      dup2\n      sload\n      dup2\n      mstore\n      swap1\n      0x01\n      add\n      swap1\n      0x20\n      add\n      dup1\n      dup4\n      gt\n      tag_60\n      jumpi\n      dup3\n      swap1\n      sub\n      0x1f\n      and\n      dup3\n      add\n      swap2\n    tag_58:\n      pop\n      pop\n      pop\n      pop\n      pop\n      swap1\n      dup1\n      0x03\n      add\n      sload\n      swap1\n      dup1\n      0x04\n      add\n      sload\n      swap1\n      pop\n      dup6\n      jump\t// out\n        /* \"contracts/Twitter-AddEvent.sol\":2413:2530  function getAllTweets(address _owner) public view returns (Tweet[] memory) {... */\n    tag_22:\n        /* \"contracts/Twitter-AddEvent.sol\":2472:2486  Tweet[] memory */\n      0x60\n        /* \"contracts/Twitter-AddEvent.sol\":2508:2514  tweets */\n      0x01\n        /* \"contracts/Twitter-AddEvent.sol\":2508:2522  tweets[_owner] */\n      0x00\n        /* \"contracts/Twitter-AddEvent.sol\":2515:2521  _owner */\n      dup4\n        /* \"contracts/Twitter-AddEvent.sol\":2508:2522  tweets[_owner] */\n      0xffffffffffffffffffffffffffffffffffffffff\n      and\n      0xffffffffffffffffffffffffffffffffffffffff\n      and\n      dup2\n      mstore\n      0x20\n      add\n      swap1\n      dup2\n      mstore\n      0x20\n      add\n      0x00\n      keccak256\n        /* \"contracts/Twitter-AddEvent.sol\":2501:2522  return tweets[_owner] */\n      dup1\n      sload\n      dup1\n      0x20\n      mul\n      0x20\n      add\n      mload(0x40)\n      swap1\n      dup2\n      add\n      0x40\n      mstore\n      dup1\n      swap3\n      swap2\n      swap1\n      dup2\n      dup2\n      mstore\n      0x20\n      add\n      0x00\n      swap1\n    tag_62:\n      dup3\n      dup3\n      lt\n      iszero\n      tag_63\n      jumpi\n      dup4\n      dup3\n      swap1\n      0x00\n      mstore\n      keccak256(0x00, 0x20)\n      swap1\n      0x05\n      mul\n      add\n      mload(0x40)\n      dup1\n      0xa0\n      add\n      0x40\n      mstore\n      swap1\n      dup2\n      0x00\n      dup3\n      add\n      sload\n      dup2\n      mstore\n      0x20\n      add\n      0x01\n      dup3\n      add\n      0x00\n      swap1\n      sload\n      swap1\n      0x0100\n      exp\n      swap1\n      div\n      0xffffffffffffffffffffffffffffffffffffffff\n      and\n      0xffffffffffffffffffffffffffffffffffffffff\n      and\n      0xffffffffffffffffffffffffffffffffffffffff\n      and\n      dup2\n      mstore\n      0x20\n      add\n      0x02\n      dup3\n      add\n      dup1\n      sload\n      tag_65\n      swap1\n      tag_56\n      jump\t// in\n    tag_65:\n      dup1\n      0x1f\n      add\n      0x20\n      dup1\n      swap2\n      div\n      mul\n      0x20\n      add\n      mload(0x40)\n      swap1\n      dup2\n      add\n      0x40\n      mstore\n      dup1\n      swap3\n      swap2\n      swap1\n      dup2\n      dup2\n      mstore\n      0x20\n      add\n      dup3\n      dup1\n      sload\n      tag_66\n      swap1\n      tag_56\n      jump\t// in\n    tag_66:\n      dup1\n      iszero\n      tag_67\n      jumpi\n      dup1\n      0x1f\n      lt\n      tag_68\n      jumpi\n      0x0100\n      dup1\n      dup4\n      sload\n      div\n      mul\n      dup4\n      mstore\n      swap2\n      0x20\n      add\n      swap2\n      jump(tag_67)\n    tag_68:\n      dup3\n      add\n      swap2\n      swap1\n      0x00\n      mstore\n      keccak256(0x00, 0x20)\n      swap1\n    tag_69:\n      dup2\n      sload\n      dup2\n      mstore\n      swap1\n      0x01\n      add\n      swap1\n      0x20\n      add\n      dup1\n      dup4\n      gt\n      tag_69\n      jumpi\n      dup3\n      swap1\n      sub\n      0x1f\n      and\n      dup3\n      add\n      swap2\n    tag_67:\n      pop\n      pop\n      pop\n      pop\n      pop\n      dup2\n      mstore\n      0x20\n      add\n      0x03\n      dup3\n      add\n      sload\n      dup2\n      mstore\n      0x20\n      add\n      0x04\n      dup3\n      add\n      sload\n      dup2\n      mstore\n      pop\n      pop\n      dup2\n      mstore\n      0x20\n      add\n      swap1\n      0x01\n      add\n      swap1\n      jump(tag_62)\n    tag_63:\n      pop\n      pop\n      pop\n      pop\n      swap1\n      pop\n        /* \"contracts/Twitter-AddEvent.sol\":2413:2530  function getAllTweets(address _owner) public view returns (Tweet[] memory) {... */\n      swap2\n      swap1\n      pop\n      jump\t// out\n        /* \"contracts/Twitter-AddEvent.sol\":1933:2264  function unlikeTweet(address author, uint256 id) external {... */\n    tag_27:\n        /* \"contracts/Twitter-AddEvent.sol\":2041:2043  id */\n      dup1\n        /* \"contracts/Twitter-AddEvent.sol\":2016:2022  tweets */\n      0x01\n        /* \"contracts/Twitter-AddEvent.sol\":2016:2030  tweets[author] */\n      0x00\n        /* \"contracts/Twitter-AddEvent.sol\":2023:2029  author */\n      dup5\n        /* \"contracts/Twitter-AddEvent.sol\":2016:2030  tweets[author] */\n      0xffffffffffffffffffffffffffffffffffffffff\n      and\n      0xffffffffffffffffffffffffffffffffffffffff\n      and\n      dup2\n      mstore\n      0x20\n      add\n      swap1\n      dup2\n      mstore\n      0x20\n      add\n      0x00\n      keccak256\n        /* \"contracts/Twitter-AddEvent.sol\":2031:2033  id */\n      dup3\n        /* \"contracts/Twitter-AddEvent.sol\":2016:2034  tweets[author][id] */\n      dup2\n      sload\n      dup2\n      lt\n      tag_71\n      jumpi\n      tag_72\n      tag_73\n      jump\t// in\n    tag_72:\n    tag_71:\n      swap1\n      0x00\n      mstore\n      keccak256(0x00, 0x20)\n      swap1\n      0x05\n      mul\n      add\n        /* \"contracts/Twitter-AddEvent.sol\":2016:2037  tweets[author][id].id */\n      0x00\n      add\n      sload\n        /* \"contracts/Twitter-AddEvent.sol\":2016:2043  tweets[author][id].id == id */\n      eq\n        /* \"contracts/Twitter-AddEvent.sol\":2008:2068  require(tweets[author][id].id == id, \"Tweet Does Not Exist\") */\n      tag_75\n      jumpi\n      mload(0x40)\n      0x08c379a000000000000000000000000000000000000000000000000000000000\n      dup2\n      mstore\n      0x04\n      add\n      tag_76\n      swap1\n      tag_77\n      jump\t// in\n    tag_76:\n      mload(0x40)\n      dup1\n      swap2\n      sub\n      swap1\n      revert\n    tag_75:\n        /* \"contracts/Twitter-AddEvent.sol\":2114:2115  0 */\n      0x00\n        /* \"contracts/Twitter-AddEvent.sol\":2087:2093  tweets */\n      0x01\n        /* \"contracts/Twitter-AddEvent.sol\":2087:2101  tweets[author] */\n      0x00\n        /* \"contracts/Twitter-AddEvent.sol\":2094:2100  author */\n      dup5\n        /* \"contracts/Twitter-AddEvent.sol\":2087:2101  tweets[author] */\n      0xffffffffffffffffffffffffffffffffffffffff\n      and\n      0xffffffffffffffffffffffffffffffffffffffff\n      and\n      dup2\n      mstore\n      0x20\n      add\n      swap1\n      dup2\n      mstore\n      0x20\n      add\n      0x00\n      keccak256\n        /* \"contracts/Twitter-AddEvent.sol\":2102:2104  id */\n      dup3\n        /* \"contracts/Twitter-AddEvent.sol\":2087:2105  tweets[author][id] */\n      dup2\n      sload\n      dup2\n      lt\n      tag_78\n      jumpi\n      tag_79\n      tag_73\n      jump\t// in\n    tag_79:\n    tag_78:\n      swap1\n      0x00\n      mstore\n      keccak256(0x00, 0x20)\n      swap1\n      0x05\n      mul\n      add\n        /* \"contracts/Twitter-AddEvent.sol\":2087:2111  tweets[author][id].likes */\n      0x04\n      add\n      sload\n        /* \"contracts/Twitter-AddEvent.sol\":2087:2115  tweets[author][id].likes > 0 */\n      gt\n        /* \"contracts/Twitter-AddEvent.sol\":2079:2139  require(tweets[author][id].likes > 0, \"Tweets has no likes\") */\n      tag_81\n      jumpi\n      mload(0x40)\n      0x08c379a000000000000000000000000000000000000000000000000000000000\n      dup2\n      mstore\n      0x04\n      add\n      tag_82\n      swap1\n      tag_83\n      jump\t// in\n    tag_82:\n      mload(0x40)\n      dup1\n      swap2\n      sub\n      swap1\n      revert\n    tag_81:\n        /* \"contracts/Twitter-AddEvent.sol\":2150:2156  tweets */\n      0x01\n        /* \"contracts/Twitter-AddEvent.sol\":2150:2164  tweets[author] */\n      0x00\n        /* \"contracts/Twitter-AddEvent.sol\":2157:2163  author */\n      dup4\n        /* \"contracts/Twitter-AddEvent.sol\":2150:2164  tweets[author] */\n      0xffffffffffffffffffffffffffffffffffffffff\n      and\n      0xffffffffffffffffffffffffffffffffffffffff\n      and\n      dup2\n      mstore\n      0x20\n      add\n      swap1\n      dup2\n      mstore\n      0x20\n      add\n      0x00\n      keccak256\n        /* \"contracts/Twitter-AddEvent.sol\":2165:2167  id */\n      dup2\n        /* \"contracts/Twitter-AddEvent.sol\":2150:2168  tweets[author][id] */\n      dup2\n      sload\n      dup2\n      lt\n      tag_84\n      jumpi\n      tag_85\n      tag_73\n      jump\t// in\n    tag_85:\n    tag_84:\n      swap1\n      0x00\n      mstore\n      keccak256(0x00, 0x20)\n      swap1\n      0x05\n      mul\n      add\n        /* \"contracts/Twitter-AddEvent.sol\":2150:2174  tweets[author][id].likes */\n      0x04\n      add\n      0x00\n        /* \"contracts/Twitter-AddEvent.sol\":2150:2176  tweets[author][id].likes-- */\n      dup2\n      sload\n      dup1\n      swap3\n      swap2\n      swap1\n      tag_87\n      swap1\n      tag_88\n      jump\t// in\n    tag_87:\n      swap2\n      swap1\n      pop\n      sstore\n      pop\n        /* \"contracts/Twitter-AddEvent.sol\":2194:2256  TweetUnliked(msg.sender, author, id, tweets[author][id].likes) */\n      0x762c2616349603ac16eba0de8e6141b79129a07ab63bd99e0a80b3a471716943\n        /* \"contracts/Twitter-AddEvent.sol\":2207:2217  msg.sender */\n      caller\n        /* \"contracts/Twitter-AddEvent.sol\":2219:2225  author */\n      dup4\n        /* \"contracts/Twitter-AddEvent.sol\":2227:2229  id */\n      dup4\n        /* \"contracts/Twitter-AddEvent.sol\":2231:2237  tweets */\n      0x01\n        /* \"contracts/Twitter-AddEvent.sol\":2231:2245  tweets[author] */\n      0x00\n        /* \"contracts/Twitter-AddEvent.sol\":2238:2244  author */\n      dup8\n        /* \"contracts/Twitter-AddEvent.sol\":2231:2245  tweets[author] */\n      0xffffffffffffffffffffffffffffffffffffffff\n      and\n      0xffffffffffffffffffffffffffffffffffffffff\n      and\n      dup2\n      mstore\n      0x20\n      add\n      swap1\n      dup2\n      mstore\n      0x20\n      add\n      0x00\n      keccak256\n        /* \"contracts/Twitter-AddEvent.sol\":2246:2248  id */\n      dup6\n        /* \"contracts/Twitter-AddEvent.sol\":2231:2249  tweets[author][id] */\n      dup2\n      sload\n      dup2\n      lt\n      tag_89\n      jumpi\n      tag_90\n      tag_73\n      jump\t// in\n    tag_90:\n    tag_89:\n      swap1\n      0x00\n      mstore\n      keccak256(0x00, 0x20)\n      swap1\n      0x05\n      mul\n      add\n        /* \"contracts/Twitter-AddEvent.sol\":2231:2255  tweets[author][id].likes */\n      0x04\n      add\n      sload\n        /* \"contracts/Twitter-AddEvent.sol\":2194:2256  TweetUnliked(msg.sender, author, id, tweets[author][id].likes) */\n      mload(0x40)\n      tag_92\n      swap5\n      swap4\n      swap3\n      swap2\n      swap1\n      tag_93\n      jump\t// in\n    tag_92:\n      mload(0x40)\n      dup1\n      swap2\n      sub\n      swap1\n      log1\n        /* \"contracts/Twitter-AddEvent.sol\":1933:2264  function unlikeTweet(address author, uint256 id) external {... */\n      pop\n      pop\n      jump\t// out\n        /* \"contracts/Twitter-AddEvent.sol\":850:970  function changeTweetLength(uint16 newTweetLength ) public onlyOwner {... */\n    tag_31:\n        /* \"contracts/Twitter-AddEvent.sol\":791:796  owner */\n      0x02\n      0x00\n      swap1\n      sload\n      swap1\n      0x0100\n      exp\n      swap1\n      div\n      0xffffffffffffffffffffffffffffffffffffffff\n      and\n        /* \"contracts/Twitter-AddEvent.sol\":777:796  msg.sender == owner */\n      0xffffffffffffffffffffffffffffffffffffffff\n      and\n        /* \"contracts/Twitter-AddEvent.sol\":777:787  msg.sender */\n      caller\n        /* \"contracts/Twitter-AddEvent.sol\":777:796  msg.sender == owner */\n      0xffffffffffffffffffffffffffffffffffffffff\n      and\n      eq\n        /* \"contracts/Twitter-AddEvent.sol\":769:822  require(msg.sender == owner, \"YOU ARE NOT THE OWNER\") */\n      tag_95\n      jumpi\n      mload(0x40)\n      0x08c379a000000000000000000000000000000000000000000000000000000000\n      dup2\n      mstore\n      0x04\n      add\n      tag_96\n      swap1\n      tag_97\n      jump\t// in\n    tag_96:\n      mload(0x40)\n      dup1\n      swap2\n      sub\n      swap1\n      revert\n    tag_95:\n        /* \"contracts/Twitter-AddEvent.sol\":948:962  newTweetLength */\n      dup1\n        /* \"contracts/Twitter-AddEvent.sol\":929:945  MAX_TWEET_LENGTH */\n      0x00\n      dup1\n        /* \"contracts/Twitter-AddEvent.sol\":929:962  MAX_TWEET_LENGTH = newTweetLength */\n      0x0100\n      exp\n      dup2\n      sload\n      dup2\n      0xffff\n      mul\n      not\n      and\n      swap1\n      dup4\n      0xffff\n      and\n      mul\n      or\n      swap1\n      sstore\n      pop\n        /* \"contracts/Twitter-AddEvent.sol\":850:970  function changeTweetLength(uint16 newTweetLength ) public onlyOwner {... */\n      pop\n      jump\t// out\n        /* \"contracts/Twitter-AddEvent.sol\":1670:1925  function likeTweet(address author, uint256 id) external {... */\n    tag_34:\n        /* \"contracts/Twitter-AddEvent.sol\":1772:1774  id */\n      dup1\n        /* \"contracts/Twitter-AddEvent.sol\":1747:1753  tweets */\n      0x01\n        /* \"contracts/Twitter-AddEvent.sol\":1747:1761  tweets[author] */\n      0x00\n        /* \"contracts/Twitter-AddEvent.sol\":1754:1760  author */\n      dup5\n        /* \"contracts/Twitter-AddEvent.sol\":1747:1761  tweets[author] */\n      0xffffffffffffffffffffffffffffffffffffffff\n      and\n      0xffffffffffffffffffffffffffffffffffffffff\n      and\n      dup2\n      mstore\n      0x20\n      add\n      swap1\n      dup2\n      mstore\n      0x20\n      add\n      0x00\n      keccak256\n        /* \"contracts/Twitter-AddEvent.sol\":1762:1764  id */\n      dup3\n        /* \"contracts/Twitter-AddEvent.sol\":1747:1765  tweets[author][id] */\n      dup2\n      sload\n      dup2\n      lt\n      tag_100\n      jumpi\n      tag_101\n      tag_73\n      jump\t// in\n    tag_101:\n    tag_100:\n      swap1\n      0x00\n      mstore\n      keccak256(0x00, 0x20)\n      swap1\n      0x05\n      mul\n      add\n        /* \"contracts/Twitter-AddEvent.sol\":1747:1768  tweets[author][id].id */\n      0x00\n      add\n      sload\n        /* \"contracts/Twitter-AddEvent.sol\":1747:1774  tweets[author][id].id == id */\n      eq\n        /* \"contracts/Twitter-AddEvent.sol\":1739:1799  require(tweets[author][id].id == id, \"Tweet Does Not Exist\") */\n      tag_103\n      jumpi\n      mload(0x40)\n      0x08c379a000000000000000000000000000000000000000000000000000000000\n      dup2\n      mstore\n      0x04\n      add\n      tag_104\n      swap1\n      tag_77\n      jump\t// in\n    tag_104:\n      mload(0x40)\n      dup1\n      swap2\n      sub\n      swap1\n      revert\n    tag_103:\n        /* \"contracts/Twitter-AddEvent.sol\":1812:1818  tweets */\n      0x01\n        /* \"contracts/Twitter-AddEvent.sol\":1812:1826  tweets[author] */\n      0x00\n        /* \"contracts/Twitter-AddEvent.sol\":1819:1825  author */\n      dup4\n        /* \"contracts/Twitter-AddEvent.sol\":1812:1826  tweets[author] */\n      0xffffffffffffffffffffffffffffffffffffffff\n      and\n      0xffffffffffffffffffffffffffffffffffffffff\n      and\n      dup2\n      mstore\n      0x20\n      add\n      swap1\n      dup2\n      mstore\n      0x20\n      add\n      0x00\n      keccak256\n        /* \"contracts/Twitter-AddEvent.sol\":1827:1829  id */\n      dup2\n        /* \"contracts/Twitter-AddEvent.sol\":1812:1830  tweets[author][id] */\n      dup2\n      sload\n      dup2\n      lt\n      tag_105\n      jumpi\n      tag_106\n      tag_73\n      jump\t// in\n    tag_106:\n    tag_105:\n      swap1\n      0x00\n      mstore\n      keccak256(0x00, 0x20)\n      swap1\n      0x05\n      mul\n      add\n        /* \"contracts/Twitter-AddEvent.sol\":1812:1836  tweets[author][id].likes */\n      0x04\n      add\n      0x00\n        /* \"contracts/Twitter-AddEvent.sol\":1812:1838  tweets[author][id].likes++ */\n      dup2\n      sload\n      dup1\n      swap3\n      swap2\n      swap1\n      tag_108\n      swap1\n      tag_109\n      jump\t// in\n    tag_108:\n      swap2\n      swap1\n      pop\n      sstore\n      pop\n        /* \"contracts/Twitter-AddEvent.sol\":1856:1917  TweetLiked( msg.sender, author, id, tweets[author][id].likes) */\n      0xe8a76fc0f16d11a00d1e93b689b63d76cf60af914dd3d915375dc41d01a0c3c8\n        /* \"contracts/Twitter-AddEvent.sol\":1868:1878  msg.sender */\n      caller\n        /* \"contracts/Twitter-AddEvent.sol\":1880:1886  author */\n      dup4\n        /* \"contracts/Twitter-AddEvent.sol\":1888:1890  id */\n      dup4\n        /* \"contracts/Twitter-AddEvent.sol\":1892:1898  tweets */\n      0x01\n        /* \"contracts/Twitter-AddEvent.sol\":1892:1906  tweets[author] */\n      0x00\n        /* \"contracts/Twitter-AddEvent.sol\":1899:1905  author */\n      dup8\n        /* \"contracts/Twitter-AddEvent.sol\":1892:1906  tweets[author] */\n      0xffffffffffffffffffffffffffffffffffffffff\n      and\n      0xffffffffffffffffffffffffffffffffffffffff\n      and\n      dup2\n      mstore\n      0x20\n      add\n      swap1\n      dup2\n      mstore\n      0x20\n      add\n      0x00\n      keccak256\n        /* \"contracts/Twitter-AddEvent.sol\":1907:1909  id */\n      dup6\n        /* \"contracts/Twitter-AddEvent.sol\":1892:1910  tweets[author][id] */\n      dup2\n      sload\n      dup2\n      lt\n      tag_110\n      jumpi\n      tag_111\n      tag_73\n      jump\t// in\n    tag_111:\n    tag_110:\n      swap1\n      0x00\n      mstore\n      keccak256(0x00, 0x20)\n      swap1\n      0x05\n      mul\n      add\n        /* \"contracts/Twitter-AddEvent.sol\":1892:1916  tweets[author][id].likes */\n      0x04\n      add\n      sload\n        /* \"contracts/Twitter-AddEvent.sol\":1856:1917  TweetLiked( msg.sender, author, id, tweets[author][id].likes) */\n      mload(0x40)\n      tag_113\n      swap5\n      swap4\n      swap3\n      swap2\n      swap1\n      tag_93\n      jump\t// in\n    tag_113:\n      mload(0x40)\n      dup1\n      swap2\n      sub\n      swap1\n      log1\n        /* \"contracts/Twitter-AddEvent.sol\":1670:1925  function likeTweet(address author, uint256 id) external {... */\n      pop\n      pop\n      jump\t// out\n        /* \"contracts/Twitter-AddEvent.sol\":89:125  uint16 public MAX_TWEET_LENGTH = 280 */\n    tag_36:\n      0x00\n      dup1\n      sload\n      swap1\n      0x0100\n      exp\n      swap1\n      div\n      0xffff\n      and\n      dup2\n      jump\t// out\n        /* \"contracts/Twitter-AddEvent.sol\":983:1662  function createTweet(string memory _tweet) public {... */\n    tag_42:\n        /* \"contracts/Twitter-AddEvent.sol\":1078:1094  MAX_TWEET_LENGTH */\n      0x00\n      dup1\n      sload\n      swap1\n      0x0100\n      exp\n      swap1\n      div\n      0xffff\n      and\n        /* \"contracts/Twitter-AddEvent.sol\":1054:1094  bytes(_tweet).length <= MAX_TWEET_LENGTH */\n      0xffff\n      and\n        /* \"contracts/Twitter-AddEvent.sol\":1060:1066  _tweet */\n      dup2\n        /* \"contracts/Twitter-AddEvent.sol\":1054:1074  bytes(_tweet).length */\n      mload\n        /* \"contracts/Twitter-AddEvent.sol\":1054:1094  bytes(_tweet).length <= MAX_TWEET_LENGTH */\n      gt\n      iszero\n        /* \"contracts/Twitter-AddEvent.sol\":1046:1123  require(bytes(_tweet).length <= MAX_TWEET_LENGTH, \"Tweet is too long bro: \" ) */\n      tag_115\n      jumpi\n      mload(0x40)\n      0x08c379a000000000000000000000000000000000000000000000000000000000\n      dup2\n      mstore\n      0x04\n      add\n      tag_116\n      swap1\n      tag_117\n      jump\t// in\n    tag_116:\n      mload(0x40)\n      dup1\n      swap2\n      sub\n      swap1\n      revert\n    tag_115:\n        /* \"contracts/Twitter-AddEvent.sol\":1146:1167  Tweet memory newTweet */\n      0x00\n        /* \"contracts/Twitter-AddEvent.sol\":1170:1397  Tweet({... */\n      mload(0x40)\n      dup1\n      0xa0\n      add\n      0x40\n      mstore\n      dup1\n        /* \"contracts/Twitter-AddEvent.sol\":1195:1201  tweets */\n      0x01\n        /* \"contracts/Twitter-AddEvent.sol\":1195:1213  tweets[msg.sender] */\n      0x00\n        /* \"contracts/Twitter-AddEvent.sol\":1202:1212  msg.sender */\n      caller\n        /* \"contracts/Twitter-AddEvent.sol\":1195:1213  tweets[msg.sender] */\n      0xffffffffffffffffffffffffffffffffffffffff\n      and\n      0xffffffffffffffffffffffffffffffffffffffff\n      and\n      dup2\n      mstore\n      0x20\n      add\n      swap1\n      dup2\n      mstore\n      0x20\n      add\n      0x00\n      keccak256\n        /* \"contracts/Twitter-AddEvent.sol\":1195:1220  tweets[msg.sender].length */\n      dup1\n      sload\n      swap1\n      pop\n        /* \"contracts/Twitter-AddEvent.sol\":1170:1397  Tweet({... */\n      dup2\n      mstore\n      0x20\n      add\n        /* \"contracts/Twitter-AddEvent.sol\":1243:1253  msg.sender */\n      caller\n        /* \"contracts/Twitter-AddEvent.sol\":1170:1397  Tweet({... */\n      0xffffffffffffffffffffffffffffffffffffffff\n      and\n      dup2\n      mstore\n      0x20\n      add\n        /* \"contracts/Twitter-AddEvent.sol\":1283:1289  _tweet */\n      dup4\n        /* \"contracts/Twitter-AddEvent.sol\":1170:1397  Tweet({... */\n      dup2\n      mstore\n      0x20\n      add\n        /* \"contracts/Twitter-AddEvent.sol\":1327:1342  block.timestamp */\n      timestamp\n        /* \"contracts/Twitter-AddEvent.sol\":1170:1397  Tweet({... */\n      dup2\n      mstore\n      0x20\n      add\n        /* \"contracts/Twitter-AddEvent.sol\":1365:1366  0 */\n      0x00\n        /* \"contracts/Twitter-AddEvent.sol\":1170:1397  Tweet({... */\n      dup2\n      mstore\n      pop\n        /* \"contracts/Twitter-AddEvent.sol\":1146:1397  Tweet memory newTweet = Tweet({... */\n      swap1\n      pop\n        /* \"contracts/Twitter-AddEvent.sol\":1512:1518  tweets */\n      0x01\n        /* \"contracts/Twitter-AddEvent.sol\":1512:1530  tweets[msg.sender] */\n      0x00\n        /* \"contracts/Twitter-AddEvent.sol\":1519:1529  msg.sender */\n      caller\n        /* \"contracts/Twitter-AddEvent.sol\":1512:1530  tweets[msg.sender] */\n      0xffffffffffffffffffffffffffffffffffffffff\n      and\n      0xffffffffffffffffffffffffffffffffffffffff\n      and\n      dup2\n      mstore\n      0x20\n      add\n      swap1\n      dup2\n      mstore\n      0x20\n      add\n      0x00\n      keccak256\n        /* \"contracts/Twitter-AddEvent.sol\":1536:1544  newTweet */\n      dup2\n        /* \"contracts/Twitter-AddEvent.sol\":1512:1545  tweets[msg.sender].push(newTweet) */\n      swap1\n      dup1\n      0x01\n      dup2\n      sload\n      add\n      dup1\n      dup3\n      sstore\n      dup1\n      swap2\n      pop\n      pop\n      0x01\n      swap1\n      sub\n      swap1\n      0x00\n      mstore\n      keccak256(0x00, 0x20)\n      swap1\n      0x05\n      mul\n      add\n      0x00\n      swap1\n      swap2\n      swap1\n      swap2\n      swap1\n      swap2\n      pop\n      0x00\n      dup3\n      add\n      mload\n      dup2\n      0x00\n      add\n      sstore\n      0x20\n      dup3\n      add\n      mload\n      dup2\n      0x01\n      add\n      exp(0x0100, 0x00)\n      dup2\n      sload\n      dup2\n      0xffffffffffffffffffffffffffffffffffffffff\n      mul\n      not\n      and\n      swap1\n      dup4\n      0xffffffffffffffffffffffffffffffffffffffff\n      and\n      mul\n      or\n      swap1\n      sstore\n      pop\n      0x40\n      dup3\n      add\n      mload\n      dup2\n      0x02\n      add\n      swap1\n      dup2\n      tag_119\n      swap2\n      swap1\n      tag_120\n      jump\t// in\n    tag_119:\n      pop\n      0x60\n      dup3\n      add\n      mload\n      dup2\n      0x03\n      add\n      sstore\n      0x80\n      dup3\n      add\n      mload\n      dup2\n      0x04\n      add\n      sstore\n      pop\n      pop\n        /* \"contracts/Twitter-AddEvent.sol\":1563:1654  TweetCreated(newTweet.id, newTweet.author, newTweet.content,... */\n      0x16fd3c13e9d46923e0a8bce11c7b473ec508a72e6c96cd2404b29ce972afc29e\n        /* \"contracts/Twitter-AddEvent.sol\":1576:1584  newTweet */\n      dup2\n        /* \"contracts/Twitter-AddEvent.sol\":1576:1587  newTweet.id */\n      0x00\n      add\n      mload\n        /* \"contracts/Twitter-AddEvent.sol\":1589:1597  newTweet */\n      dup3\n        /* \"contracts/Twitter-AddEvent.sol\":1589:1604  newTweet.author */\n      0x20\n      add\n      mload\n        /* \"contracts/Twitter-AddEvent.sol\":1606:1614  newTweet */\n      dup4\n        /* \"contracts/Twitter-AddEvent.sol\":1606:1622  newTweet.content */\n      0x40\n      add\n      mload\n        /* \"contracts/Twitter-AddEvent.sol\":1634:1642  newTweet */\n      dup5\n        /* \"contracts/Twitter-AddEvent.sol\":1634:1653  newTweet.timestamps */\n      0x60\n      add\n      mload\n        /* \"contracts/Twitter-AddEvent.sol\":1563:1654  TweetCreated(newTweet.id, newTweet.author, newTweet.content,... */\n      mload(0x40)\n      tag_121\n      swap5\n      swap4\n      swap3\n      swap2\n      swap1\n      tag_122\n      jump\t// in\n    tag_121:\n      mload(0x40)\n      dup1\n      swap2\n      sub\n      swap1\n      log1\n        /* \"contracts/Twitter-AddEvent.sol\":1033:1662  {... */\n      pop\n        /* \"contracts/Twitter-AddEvent.sol\":983:1662  function createTweet(string memory _tweet) public {... */\n      pop\n      jump\t// out\n        /* \"contracts/Twitter-AddEvent.sol\":364:384  address public owner */\n    tag_44:\n      0x02\n      0x00\n      swap1\n      sload\n      swap1\n      0x0100\n      exp\n      swap1\n      div\n      0xffffffffffffffffffffffffffffffffffffffff\n      and\n      dup2\n      jump\t// out\n        /* \"contracts/Twitter-AddEvent.sol\":2276:2401  function getTweet( uint256 _i) public view returns (Tweet memory) {... */\n    tag_50:\n        /* \"contracts/Twitter-AddEvent.sol\":2328:2340  Tweet memory */\n      tag_123\n      tag_124\n      jump\t// in\n    tag_123:\n        /* \"contracts/Twitter-AddEvent.sol\":2371:2377  tweets */\n      0x01\n        /* \"contracts/Twitter-AddEvent.sol\":2371:2389  tweets[msg.sender] */\n      0x00\n        /* \"contracts/Twitter-AddEvent.sol\":2378:2388  msg.sender */\n      caller\n        /* \"contracts/Twitter-AddEvent.sol\":2371:2389  tweets[msg.sender] */\n      0xffffffffffffffffffffffffffffffffffffffff\n      and\n      0xffffffffffffffffffffffffffffffffffffffff\n      and\n      dup2\n      mstore\n      0x20\n      add\n      swap1\n      dup2\n      mstore\n      0x20\n      add\n      0x00\n      keccak256\n        /* \"contracts/Twitter-AddEvent.sol\":2390:2392  _i */\n      dup3\n        /* \"contracts/Twitter-AddEvent.sol\":2371:2393  tweets[msg.sender][_i] */\n      dup2\n      sload\n      dup2\n      lt\n      tag_126\n      jumpi\n      tag_127\n      tag_73\n      jump\t// in\n    tag_127:\n    tag_126:\n      swap1\n      0x00\n      mstore\n      keccak256(0x00, 0x20)\n      swap1\n      0x05\n      mul\n      add\n        /* \"contracts/Twitter-AddEvent.sol\":2364:2393  return tweets[msg.sender][_i] */\n      mload(0x40)\n      dup1\n      0xa0\n      add\n      0x40\n      mstore\n      swap1\n      dup2\n      0x00\n      dup3\n      add\n      sload\n      dup2\n      mstore\n      0x20\n      add\n      0x01\n      dup3\n      add\n      0x00\n      swap1\n      sload\n      swap1\n      0x0100\n      exp\n      swap1\n      div\n      0xffffffffffffffffffffffffffffffffffffffff\n      and\n      0xffffffffffffffffffffffffffffffffffffffff\n      and\n      0xffffffffffffffffffffffffffffffffffffffff\n      and\n      dup2\n      mstore\n      0x20\n      add\n      0x02\n      dup3\n      add\n      dup1\n      sload\n      tag_129\n      swap1\n      tag_56\n      jump\t// in\n    tag_129:\n      dup1\n      0x1f\n      add\n      0x20\n      dup1\n      swap2\n      div\n      mul\n      0x20\n      add\n      mload(0x40)\n      swap1\n      dup2\n      add\n      0x40\n      mstore\n      dup1\n      swap3\n      swap2\n      swap1\n      dup2\n      dup2\n      mstore\n      0x20\n      add\n      dup3\n      dup1\n      sload\n      tag_130\n      swap1\n      tag_56\n      jump\t// in\n    tag_130:\n      dup1\n      iszero\n      tag_131\n      jumpi\n      dup1\n      0x1f\n      lt\n      tag_132\n      jumpi\n      0x0100\n      dup1\n      dup4\n      sload\n      div\n      mul\n      dup4\n      mstore\n      swap2\n      0x20\n      add\n      swap2\n      jump(tag_131)\n    tag_132:\n      dup3\n      add\n      swap2\n      swap1\n      0x00\n      mstore\n      keccak256(0x00, 0x20)\n      swap1\n    tag_133:\n      dup2\n      sload\n      dup2\n      mstore\n      swap1\n      0x01\n      add\n      swap1\n      0x20\n      add\n      dup1\n      dup4\n      gt\n      tag_133\n      jumpi\n      dup3\n      swap1\n      sub\n      0x1f\n      and\n      dup3\n      add\n      swap2\n    tag_131:\n      pop\n      pop\n      pop\n      pop\n      pop\n      dup2\n      mstore\n      0x20\n      add\n      0x03\n      dup3\n      add\n      sload\n      dup2\n      mstore\n      0x20\n      add\n      0x04\n      dup3\n      add\n      sload\n      dup2\n      mstore\n      pop\n      pop\n      swap1\n      pop\n        /* \"contracts/Twitter-AddEvent.sol\":2276:2401  function getTweet( uint256 _i) public view returns (Tweet memory) {... */\n      swap2\n      swap1\n      pop\n      jump\t// out\n    tag_124:\n      mload(0x40)\n      dup1\n      0xa0\n      add\n      0x40\n      mstore\n      dup1\n      0x00\n      dup2\n      mstore\n      0x20\n      add\n      and(0xffffffffffffffffffffffffffffffffffffffff, 0x00)\n      dup2\n      mstore\n      0x20\n      add\n      0x60\n      dup2\n      mstore\n      0x20\n      add\n      0x00\n      dup2\n      mstore\n      0x20\n      add\n      0x00\n      dup2\n      mstore\n      pop\n      swap1\n      jump\t// out\n        /* \"#utility.yul\":7:82   */\n    tag_134:\n        /* \"#utility.yul\":40:46   */\n      0x00\n        /* \"#utility.yul\":73:75   */\n      0x40\n        /* \"#utility.yul\":67:76   */\n      mload\n        /* \"#utility.yul\":57:76   */\n      swap1\n      pop\n        /* \"#utility.yul\":7:82   */\n      swap1\n      jump\t// out\n        /* \"#utility.yul\":88:205   */\n    tag_135:\n        /* \"#utility.yul\":197:198   */\n      0x00\n        /* \"#utility.yul\":194:195   */\n      dup1\n        /* \"#utility.yul\":187:199   */\n      revert\n        /* \"#utility.yul\":211:328   */\n    tag_136:\n        /* \"#utility.yul\":320:321   */\n      0x00\n        /* \"#utility.yul\":317:318   */\n      dup1\n        /* \"#utility.yul\":310:322   */\n      revert\n        /* \"#utility.yul\":334:460   */\n    tag_137:\n        /* \"#utility.yul\":371:378   */\n      0x00\n        /* \"#utility.yul\":411:453   */\n      0xffffffffffffffffffffffffffffffffffffffff\n        /* \"#utility.yul\":404:409   */\n      dup3\n        /* \"#utility.yul\":400:454   */\n      and\n        /* \"#utility.yul\":389:454   */\n      swap1\n      pop\n        /* \"#utility.yul\":334:460   */\n      swap2\n      swap1\n      pop\n      jump\t// out\n        /* \"#utility.yul\":466:562   */\n    tag_138:\n        /* \"#utility.yul\":503:510   */\n      0x00\n        /* \"#utility.yul\":532:556   */\n      tag_207\n        /* \"#utility.yul\":550:555   */\n      dup3\n        /* \"#utility.yul\":532:556   */\n      tag_137\n      jump\t// in\n    tag_207:\n        /* \"#utility.yul\":521:556   */\n      swap1\n      pop\n        /* \"#utility.yul\":466:562   */\n      swap2\n      swap1\n      pop\n      jump\t// out\n        /* \"#utility.yul\":568:690   */\n    tag_139:\n        /* \"#utility.yul\":641:665   */\n      tag_209\n        /* \"#utility.yul\":659:664   */\n      dup2\n        /* \"#utility.yul\":641:665   */\n      tag_138\n      jump\t// in\n    tag_209:\n        /* \"#utility.yul\":634:639   */\n      dup2\n        /* \"#utility.yul\":631:666   */\n      eq\n        /* \"#utility.yul\":621:684   */\n      tag_210\n      jumpi\n        /* \"#utility.yul\":680:681   */\n      0x00\n        /* \"#utility.yul\":677:678   */\n      dup1\n        /* \"#utility.yul\":670:682   */\n      revert\n        /* \"#utility.yul\":621:684   */\n    tag_210:\n        /* \"#utility.yul\":568:690   */\n      pop\n      jump\t// out\n        /* \"#utility.yul\":696:835   */\n    tag_140:\n        /* \"#utility.yul\":742:747   */\n      0x00\n        /* \"#utility.yul\":780:786   */\n      dup2\n        /* \"#utility.yul\":767:787   */\n      calldataload\n        /* \"#utility.yul\":758:787   */\n      swap1\n      pop\n        /* \"#utility.yul\":796:829   */\n      tag_212\n        /* \"#utility.yul\":823:828   */\n      dup2\n        /* \"#utility.yul\":796:829   */\n      tag_139\n      jump\t// in\n    tag_212:\n        /* \"#utility.yul\":696:835   */\n      swap3\n      swap2\n      pop\n      pop\n      jump\t// out\n        /* \"#utility.yul\":841:918   */\n    tag_141:\n        /* \"#utility.yul\":878:885   */\n      0x00\n        /* \"#utility.yul\":907:912   */\n      dup2\n        /* \"#utility.yul\":896:912   */\n      swap1\n      pop\n        /* \"#utility.yul\":841:918   */\n      swap2\n      swap1\n      pop\n      jump\t// out\n        /* \"#utility.yul\":924:1046   */\n    tag_142:\n        /* \"#utility.yul\":997:1021   */\n      tag_215\n        /* \"#utility.yul\":1015:1020   */\n      dup2\n        /* \"#utility.yul\":997:1021   */\n      tag_141\n      jump\t// in\n    tag_215:\n        /* \"#utility.yul\":990:995   */\n      dup2\n        /* \"#utility.yul\":987:1022   */\n      eq\n        /* \"#utility.yul\":977:1040   */\n      tag_216\n      jumpi\n        /* \"#utility.yul\":1036:1037   */\n      0x00\n        /* \"#utility.yul\":1033:1034   */\n      dup1\n        /* \"#utility.yul\":1026:1038   */\n      revert\n        /* \"#utility.yul\":977:1040   */\n    tag_216:\n        /* \"#utility.yul\":924:1046   */\n      pop\n      jump\t// out\n        /* \"#utility.yul\":1052:1191   */\n    tag_143:\n        /* \"#utility.yul\":1098:1103   */\n      0x00\n        /* \"#utility.yul\":1136:1142   */\n      dup2\n        /* \"#utility.yul\":1123:1143   */\n      calldataload\n        /* \"#utility.yul\":1114:1143   */\n      swap1\n      pop\n        /* \"#utility.yul\":1152:1185   */\n      tag_218\n        /* \"#utility.yul\":1179:1184   */\n      dup2\n        /* \"#utility.yul\":1152:1185   */\n      tag_142\n      jump\t// in\n    tag_218:\n        /* \"#utility.yul\":1052:1191   */\n      swap3\n      swap2\n      pop\n      pop\n      jump\t// out\n        /* \"#utility.yul\":1197:1671   */\n    tag_15:\n        /* \"#utility.yul\":1265:1271   */\n      0x00\n        /* \"#utility.yul\":1273:1279   */\n      dup1\n        /* \"#utility.yul\":1322:1324   */\n      0x40\n        /* \"#utility.yul\":1310:1319   */\n      dup4\n        /* \"#utility.yul\":1301:1308   */\n      dup6\n        /* \"#utility.yul\":1297:1320   */\n      sub\n        /* \"#utility.yul\":1293:1325   */\n      slt\n        /* \"#utility.yul\":1290:1409   */\n      iszero\n      tag_220\n      jumpi\n        /* \"#utility.yul\":1328:1407   */\n      tag_221\n      tag_135\n      jump\t// in\n    tag_221:\n        /* \"#utility.yul\":1290:1409   */\n    tag_220:\n        /* \"#utility.yul\":1448:1449   */\n      0x00\n        /* \"#utility.yul\":1473:1526   */\n      tag_222\n        /* \"#utility.yul\":1518:1525   */\n      dup6\n        /* \"#utility.yul\":1509:1515   */\n      dup3\n        /* \"#utility.yul\":1498:1507   */\n      dup7\n        /* \"#utility.yul\":1494:1516   */\n      add\n        /* \"#utility.yul\":1473:1526   */\n      tag_140\n      jump\t// in\n    tag_222:\n        /* \"#utility.yul\":1463:1526   */\n      swap3\n      pop\n        /* \"#utility.yul\":1419:1536   */\n      pop\n        /* \"#utility.yul\":1575:1577   */\n      0x20\n        /* \"#utility.yul\":1601:1654   */\n      tag_223\n        /* \"#utility.yul\":1646:1653   */\n      dup6\n        /* \"#utility.yul\":1637:1643   */\n      dup3\n        /* \"#utility.yul\":1626:1635   */\n      dup7\n        /* \"#utility.yul\":1622:1644   */\n      add\n        /* \"#utility.yul\":1601:1654   */\n      tag_143\n      jump\t// in\n    tag_223:\n        /* \"#utility.yul\":1591:1654   */\n      swap2\n      pop\n        /* \"#utility.yul\":1546:1664   */\n      pop\n        /* \"#utility.yul\":1197:1671   */\n      swap3\n      pop\n      swap3\n      swap1\n      pop\n      jump\t// out\n        /* \"#utility.yul\":1677:1795   */\n    tag_144:\n        /* \"#utility.yul\":1764:1788   */\n      tag_225\n        /* \"#utility.yul\":1782:1787   */\n      dup2\n        /* \"#utility.yul\":1764:1788   */\n      tag_141\n      jump\t// in\n    tag_225:\n        /* \"#utility.yul\":1759:1762   */\n      dup3\n        /* \"#utility.yul\":1752:1789   */\n      mstore\n        /* \"#utility.yul\":1677:1795   */\n      pop\n      pop\n      jump\t// out\n        /* \"#utility.yul\":1801:1919   */\n    tag_145:\n        /* \"#utility.yul\":1888:1912   */\n      tag_227\n        /* \"#utility.yul\":1906:1911   */\n      dup2\n        /* \"#utility.yul\":1888:1912   */\n      tag_138\n      jump\t// in\n    tag_227:\n        /* \"#utility.yul\":1883:1886   */\n      dup3\n        /* \"#utility.yul\":1876:1913   */\n      mstore\n        /* \"#utility.yul\":1801:1919   */\n      pop\n      pop\n      jump\t// out\n        /* \"#utility.yul\":1925:2024   */\n    tag_146:\n        /* \"#utility.yul\":1977:1983   */\n      0x00\n        /* \"#utility.yul\":2011:2016   */\n      dup2\n        /* \"#utility.yul\":2005:2017   */\n      mload\n        /* \"#utility.yul\":1995:2017   */\n      swap1\n      pop\n        /* \"#utility.yul\":1925:2024   */\n      swap2\n      swap1\n      pop\n      jump\t// out\n        /* \"#utility.yul\":2030:2199   */\n    tag_147:\n        /* \"#utility.yul\":2114:2125   */\n      0x00\n        /* \"#utility.yul\":2148:2154   */\n      dup3\n        /* \"#utility.yul\":2143:2146   */\n      dup3\n        /* \"#utility.yul\":2136:2155   */\n      mstore\n        /* \"#utility.yul\":2188:2192   */\n      0x20\n        /* \"#utility.yul\":2183:2186   */\n      dup3\n        /* \"#utility.yul\":2179:2193   */\n      add\n        /* \"#utility.yul\":2164:2193   */\n      swap1\n      pop\n        /* \"#utility.yul\":2030:2199   */\n      swap3\n      swap2\n      pop\n      pop\n      jump\t// out\n        /* \"#utility.yul\":2205:2344   */\n    tag_148:\n        /* \"#utility.yul\":2294:2300   */\n      dup3\n        /* \"#utility.yul\":2289:2292   */\n      dup2\n        /* \"#utility.yul\":2284:2287   */\n      dup4\n        /* \"#utility.yul\":2278:2301   */\n      mcopy\n        /* \"#utility.yul\":2335:2336   */\n      0x00\n        /* \"#utility.yul\":2326:2332   */\n      dup4\n        /* \"#utility.yul\":2321:2324   */\n      dup4\n        /* \"#utility.yul\":2317:2333   */\n      add\n        /* \"#utility.yul\":2310:2337   */\n      mstore\n        /* \"#utility.yul\":2205:2344   */\n      pop\n      pop\n      pop\n      jump\t// out\n        /* \"#utility.yul\":2350:2452   */\n    tag_149:\n        /* \"#utility.yul\":2391:2397   */\n      0x00\n        /* \"#utility.yul\":2442:2444   */\n      0x1f\n        /* \"#utility.yul\":2438:2445   */\n      not\n        /* \"#utility.yul\":2433:2435   */\n      0x1f\n        /* \"#utility.yul\":2426:2431   */\n      dup4\n        /* \"#utility.yul\":2422:2436   */\n      add\n        /* \"#utility.yul\":2418:2446   */\n      and\n        /* \"#utility.yul\":2408:2446   */\n      swap1\n      pop\n        /* \"#utility.yul\":2350:2452   */\n      swap2\n      swap1\n      pop\n      jump\t// out\n        /* \"#utility.yul\":2458:2835   */\n    tag_150:\n        /* \"#utility.yul\":2546:2549   */\n      0x00\n        /* \"#utility.yul\":2574:2613   */\n      tag_233\n        /* \"#utility.yul\":2607:2612   */\n      dup3\n        /* \"#utility.yul\":2574:2613   */\n      tag_146\n      jump\t// in\n    tag_233:\n        /* \"#utility.yul\":2629:2700   */\n      tag_234\n        /* \"#utility.yul\":2693:2699   */\n      dup2\n        /* \"#utility.yul\":2688:2691   */\n      dup6\n        /* \"#utility.yul\":2629:2700   */\n      tag_147\n      jump\t// in\n    tag_234:\n        /* \"#utility.yul\":2622:2700   */\n      swap4\n      pop\n        /* \"#utility.yul\":2709:2774   */\n      tag_235\n        /* \"#utility.yul\":2767:2773   */\n      dup2\n        /* \"#utility.yul\":2762:2765   */\n      dup6\n        /* \"#utility.yul\":2755:2759   */\n      0x20\n        /* \"#utility.yul\":2748:2753   */\n      dup7\n        /* \"#utility.yul\":2744:2760   */\n      add\n        /* \"#utility.yul\":2709:2774   */\n      tag_148\n      jump\t// in\n    tag_235:\n        /* \"#utility.yul\":2799:2828   */\n      tag_236\n        /* \"#utility.yul\":2821:2827   */\n      dup2\n        /* \"#utility.yul\":2799:2828   */\n      tag_149\n      jump\t// in\n    tag_236:\n        /* \"#utility.yul\":2794:2797   */\n      dup5\n        /* \"#utility.yul\":2790:2829   */\n      add\n        /* \"#utility.yul\":2783:2829   */\n      swap2\n      pop\n        /* \"#utility.yul\":2550:2835   */\n      pop\n        /* \"#utility.yul\":2458:2835   */\n      swap3\n      swap2\n      pop\n      pop\n      jump\t// out\n        /* \"#utility.yul\":2841:3596   */\n    tag_18:\n        /* \"#utility.yul\":3066:3070   */\n      0x00\n        /* \"#utility.yul\":3104:3107   */\n      0xa0\n        /* \"#utility.yul\":3093:3102   */\n      dup3\n        /* \"#utility.yul\":3089:3108   */\n      add\n        /* \"#utility.yul\":3081:3108   */\n      swap1\n      pop\n        /* \"#utility.yul\":3118:3189   */\n      tag_238\n        /* \"#utility.yul\":3186:3187   */\n      0x00\n        /* \"#utility.yul\":3175:3184   */\n      dup4\n        /* \"#utility.yul\":3171:3188   */\n      add\n        /* \"#utility.yul\":3162:3168   */\n      dup9\n        /* \"#utility.yul\":3118:3189   */\n      tag_144\n      jump\t// in\n    tag_238:\n        /* \"#utility.yul\":3199:3271   */\n      tag_239\n        /* \"#utility.yul\":3267:3269   */\n      0x20\n        /* \"#utility.yul\":3256:3265   */\n      dup4\n        /* \"#utility.yul\":3252:3270   */\n      add\n        /* \"#utility.yul\":3243:3249   */\n      dup8\n        /* \"#utility.yul\":3199:3271   */\n      tag_145\n      jump\t// in\n    tag_239:\n        /* \"#utility.yul\":3318:3327   */\n      dup2\n        /* \"#utility.yul\":3312:3316   */\n      dup2\n        /* \"#utility.yul\":3308:3328   */\n      sub\n        /* \"#utility.yul\":3303:3305   */\n      0x40\n        /* \"#utility.yul\":3292:3301   */\n      dup4\n        /* \"#utility.yul\":3288:3306   */\n      add\n        /* \"#utility.yul\":3281:3329   */\n      mstore\n        /* \"#utility.yul\":3346:3424   */\n      tag_240\n        /* \"#utility.yul\":3419:3423   */\n      dup2\n        /* \"#utility.yul\":3410:3416   */\n      dup7\n        /* \"#utility.yul\":3346:3424   */\n      tag_150\n      jump\t// in\n    tag_240:\n        /* \"#utility.yul\":3338:3424   */\n      swap1\n      pop\n        /* \"#utility.yul\":3434:3506   */\n      tag_241\n        /* \"#utility.yul\":3502:3504   */\n      0x60\n        /* \"#utility.yul\":3491:3500   */\n      dup4\n        /* \"#utility.yul\":3487:3505   */\n      add\n        /* \"#utility.yul\":3478:3484   */\n      dup6\n        /* \"#utility.yul\":3434:3506   */\n      tag_144\n      jump\t// in\n    tag_241:\n        /* \"#utility.yul\":3516:3589   */\n      tag_242\n        /* \"#utility.yul\":3584:3587   */\n      0x80\n        /* \"#utility.yul\":3573:3582   */\n      dup4\n        /* \"#utility.yul\":3569:3588   */\n      add\n        /* \"#utility.yul\":3560:3566   */\n      dup5\n        /* \"#utility.yul\":3516:3589   */\n      tag_144\n      jump\t// in\n    tag_242:\n        /* \"#utility.yul\":2841:3596   */\n      swap7\n      swap6\n      pop\n      pop\n      pop\n      pop\n      pop\n      pop\n      jump\t// out\n        /* \"#utility.yul\":3602:3931   */\n    tag_21:\n        /* \"#utility.yul\":3661:3667   */\n      0x00\n        /* \"#utility.yul\":3710:3712   */\n      0x20\n        /* \"#utility.yul\":3698:3707   */\n      dup3\n        /* \"#utility.yul\":3689:3696   */\n      dup5\n        /* \"#utility.yul\":3685:3708   */\n      sub\n        /* \"#utility.yul\":3681:3713   */\n      slt\n        /* \"#utility.yul\":3678:3797   */\n      iszero\n      tag_244\n      jumpi\n        /* \"#utility.yul\":3716:3795   */\n      tag_245\n      tag_135\n      jump\t// in\n    tag_245:\n        /* \"#utility.yul\":3678:3797   */\n    tag_244:\n        /* \"#utility.yul\":3836:3837   */\n      0x00\n        /* \"#utility.yul\":3861:3914   */\n      tag_246\n        /* \"#utility.yul\":3906:3913   */\n      dup5\n        /* \"#utility.yul\":3897:3903   */\n      dup3\n        /* \"#utility.yul\":3886:3895   */\n      dup6\n        /* \"#utility.yul\":3882:3904   */\n      add\n        /* \"#utility.yul\":3861:3914   */\n      tag_140\n      jump\t// in\n    tag_246:\n        /* \"#utility.yul\":3851:3914   */\n      swap2\n      pop\n        /* \"#utility.yul\":3807:3924   */\n      pop\n        /* \"#utility.yul\":3602:3931   */\n      swap3\n      swap2\n      pop\n      pop\n      jump\t// out\n        /* \"#utility.yul\":3937:4072   */\n    tag_151:\n        /* \"#utility.yul\":4025:4031   */\n      0x00\n        /* \"#utility.yul\":4059:4064   */\n      dup2\n        /* \"#utility.yul\":4053:4065   */\n      mload\n        /* \"#utility.yul\":4043:4065   */\n      swap1\n      pop\n        /* \"#utility.yul\":3937:4072   */\n      swap2\n      swap1\n      pop\n      jump\t// out\n        /* \"#utility.yul\":4078:4283   */\n    tag_152:\n        /* \"#utility.yul\":4198:4209   */\n      0x00\n        /* \"#utility.yul\":4232:4238   */\n      dup3\n        /* \"#utility.yul\":4227:4230   */\n      dup3\n        /* \"#utility.yul\":4220:4239   */\n      mstore\n        /* \"#utility.yul\":4272:4276   */\n      0x20\n        /* \"#utility.yul\":4267:4270   */\n      dup3\n        /* \"#utility.yul\":4263:4277   */\n      add\n        /* \"#utility.yul\":4248:4277   */\n      swap1\n      pop\n        /* \"#utility.yul\":4078:4283   */\n      swap3\n      swap2\n      pop\n      pop\n      jump\t// out\n        /* \"#utility.yul\":4289:4442   */\n    tag_153:\n        /* \"#utility.yul\":4377:4381   */\n      0x00\n        /* \"#utility.yul\":4400:4403   */\n      dup2\n        /* \"#utility.yul\":4392:4403   */\n      swap1\n      pop\n        /* \"#utility.yul\":4430:4434   */\n      0x20\n        /* \"#utility.yul\":4425:4428   */\n      dup3\n        /* \"#utility.yul\":4421:4435   */\n      add\n        /* \"#utility.yul\":4413:4435   */\n      swap1\n      pop\n        /* \"#utility.yul\":4289:4442   */\n      swap2\n      swap1\n      pop\n      jump\t// out\n        /* \"#utility.yul\":4448:4556   */\n    tag_154:\n        /* \"#utility.yul\":4525:4549   */\n      tag_251\n        /* \"#utility.yul\":4543:4548   */\n      dup2\n        /* \"#utility.yul\":4525:4549   */\n      tag_141\n      jump\t// in\n    tag_251:\n        /* \"#utility.yul\":4520:4523   */\n      dup3\n        /* \"#utility.yul\":4513:4550   */\n      mstore\n        /* \"#utility.yul\":4448:4556   */\n      pop\n      pop\n      jump\t// out\n        /* \"#utility.yul\":4562:4670   */\n    tag_155:\n        /* \"#utility.yul\":4639:4663   */\n      tag_253\n        /* \"#utility.yul\":4657:4662   */\n      dup2\n        /* \"#utility.yul\":4639:4663   */\n      tag_138\n      jump\t// in\n    tag_253:\n        /* \"#utility.yul\":4634:4637   */\n      dup3\n        /* \"#utility.yul\":4627:4664   */\n      mstore\n        /* \"#utility.yul\":4562:4670   */\n      pop\n      pop\n      jump\t// out\n        /* \"#utility.yul\":4676:4835   */\n    tag_156:\n        /* \"#utility.yul\":4750:4761   */\n      0x00\n        /* \"#utility.yul\":4784:4790   */\n      dup3\n        /* \"#utility.yul\":4779:4782   */\n      dup3\n        /* \"#utility.yul\":4772:4791   */\n      mstore\n        /* \"#utility.yul\":4824:4828   */\n      0x20\n        /* \"#utility.yul\":4819:4822   */\n      dup3\n        /* \"#utility.yul\":4815:4829   */\n      add\n        /* \"#utility.yul\":4800:4829   */\n      swap1\n      pop\n        /* \"#utility.yul\":4676:4835   */\n      swap3\n      swap2\n      pop\n      pop\n      jump\t// out\n        /* \"#utility.yul\":4841:5198   */\n    tag_157:\n        /* \"#utility.yul\":4919:4922   */\n      0x00\n        /* \"#utility.yul\":4947:4986   */\n      tag_256\n        /* \"#utility.yul\":4980:4985   */\n      dup3\n        /* \"#utility.yul\":4947:4986   */\n      tag_146\n      jump\t// in\n    tag_256:\n        /* \"#utility.yul\":5002:5063   */\n      tag_257\n        /* \"#utility.yul\":5056:5062   */\n      dup2\n        /* \"#utility.yul\":5051:5054   */\n      dup6\n        /* \"#utility.yul\":5002:5063   */\n      tag_156\n      jump\t// in\n    tag_257:\n        /* \"#utility.yul\":4995:5063   */\n      swap4\n      pop\n        /* \"#utility.yul\":5072:5137   */\n      tag_258\n        /* \"#utility.yul\":5130:5136   */\n      dup2\n        /* \"#utility.yul\":5125:5128   */\n      dup6\n        /* \"#utility.yul\":5118:5122   */\n      0x20\n        /* \"#utility.yul\":5111:5116   */\n      dup7\n        /* \"#utility.yul\":5107:5123   */\n      add\n        /* \"#utility.yul\":5072:5137   */\n      tag_148\n      jump\t// in\n    tag_258:\n        /* \"#utility.yul\":5162:5191   */\n      tag_259\n        /* \"#utility.yul\":5184:5190   */\n      dup2\n        /* \"#utility.yul\":5162:5191   */\n      tag_149\n      jump\t// in\n    tag_259:\n        /* \"#utility.yul\":5157:5160   */\n      dup5\n        /* \"#utility.yul\":5153:5192   */\n      add\n        /* \"#utility.yul\":5146:5192   */\n      swap2\n      pop\n        /* \"#utility.yul\":4923:5198   */\n      pop\n        /* \"#utility.yul\":4841:5198   */\n      swap3\n      swap2\n      pop\n      pop\n      jump\t// out\n        /* \"#utility.yul\":5256:6376   */\n    tag_158:\n        /* \"#utility.yul\":5357:5360   */\n      0x00\n        /* \"#utility.yul\":5393:5397   */\n      0xa0\n        /* \"#utility.yul\":5388:5391   */\n      dup4\n        /* \"#utility.yul\":5384:5398   */\n      add\n        /* \"#utility.yul\":5478:5482   */\n      0x00\n        /* \"#utility.yul\":5471:5476   */\n      dup4\n        /* \"#utility.yul\":5467:5483   */\n      add\n        /* \"#utility.yul\":5461:5484   */\n      mload\n        /* \"#utility.yul\":5497:5560   */\n      tag_261\n        /* \"#utility.yul\":5554:5558   */\n      0x00\n        /* \"#utility.yul\":5549:5552   */\n      dup7\n        /* \"#utility.yul\":5545:5559   */\n      add\n        /* \"#utility.yul\":5531:5543   */\n      dup3\n        /* \"#utility.yul\":5497:5560   */\n      tag_154\n      jump\t// in\n    tag_261:\n        /* \"#utility.yul\":5408:5570   */\n      pop\n        /* \"#utility.yul\":5654:5658   */\n      0x20\n        /* \"#utility.yul\":5647:5652   */\n      dup4\n        /* \"#utility.yul\":5643:5659   */\n      add\n        /* \"#utility.yul\":5637:5660   */\n      mload\n        /* \"#utility.yul\":5673:5736   */\n      tag_262\n        /* \"#utility.yul\":5730:5734   */\n      0x20\n        /* \"#utility.yul\":5725:5728   */\n      dup7\n        /* \"#utility.yul\":5721:5735   */\n      add\n        /* \"#utility.yul\":5707:5719   */\n      dup3\n        /* \"#utility.yul\":5673:5736   */\n      tag_155\n      jump\t// in\n    tag_262:\n        /* \"#utility.yul\":5580:5746   */\n      pop\n        /* \"#utility.yul\":5831:5835   */\n      0x40\n        /* \"#utility.yul\":5824:5829   */\n      dup4\n        /* \"#utility.yul\":5820:5836   */\n      add\n        /* \"#utility.yul\":5814:5837   */\n      mload\n        /* \"#utility.yul\":5884:5887   */\n      dup5\n        /* \"#utility.yul\":5878:5882   */\n      dup3\n        /* \"#utility.yul\":5874:5888   */\n      sub\n        /* \"#utility.yul\":5867:5871   */\n      0x40\n        /* \"#utility.yul\":5862:5865   */\n      dup7\n        /* \"#utility.yul\":5858:5872   */\n      add\n        /* \"#utility.yul\":5851:5889   */\n      mstore\n        /* \"#utility.yul\":5910:5983   */\n      tag_263\n        /* \"#utility.yul\":5978:5982   */\n      dup3\n        /* \"#utility.yul\":5964:5976   */\n      dup3\n        /* \"#utility.yul\":5910:5983   */\n      tag_157\n      jump\t// in\n    tag_263:\n        /* \"#utility.yul\":5902:5983   */\n      swap2\n      pop\n        /* \"#utility.yul\":5756:5994   */\n      pop\n        /* \"#utility.yul\":6082:6086   */\n      0x60\n        /* \"#utility.yul\":6075:6080   */\n      dup4\n        /* \"#utility.yul\":6071:6087   */\n      add\n        /* \"#utility.yul\":6065:6088   */\n      mload\n        /* \"#utility.yul\":6101:6164   */\n      tag_264\n        /* \"#utility.yul\":6158:6162   */\n      0x60\n        /* \"#utility.yul\":6153:6156   */\n      dup7\n        /* \"#utility.yul\":6149:6163   */\n      add\n        /* \"#utility.yul\":6135:6147   */\n      dup3\n        /* \"#utility.yul\":6101:6164   */\n      tag_154\n      jump\t// in\n    tag_264:\n        /* \"#utility.yul\":6004:6174   */\n      pop\n        /* \"#utility.yul\":6257:6261   */\n      0x80\n        /* \"#utility.yul\":6250:6255   */\n      dup4\n        /* \"#utility.yul\":6246:6262   */\n      add\n        /* \"#utility.yul\":6240:6263   */\n      mload\n        /* \"#utility.yul\":6276:6339   */\n      tag_265\n        /* \"#utility.yul\":6333:6337   */\n      0x80\n        /* \"#utility.yul\":6328:6331   */\n      dup7\n        /* \"#utility.yul\":6324:6338   */\n      add\n        /* \"#utility.yul\":6310:6322   */\n      dup3\n        /* \"#utility.yul\":6276:6339   */\n      tag_154\n      jump\t// in\n    tag_265:\n        /* \"#utility.yul\":6184:6349   */\n      pop\n        /* \"#utility.yul\":6366:6370   */\n      dup1\n        /* \"#utility.yul\":6359:6370   */\n      swap2\n      pop\n        /* \"#utility.yul\":5362:6376   */\n      pop\n        /* \"#utility.yul\":5256:6376   */\n      swap3\n      swap2\n      pop\n      pop\n      jump\t// out\n        /* \"#utility.yul\":6382:6622   */\n    tag_159:\n        /* \"#utility.yul\":6493:6503   */\n      0x00\n        /* \"#utility.yul\":6528:6616   */\n      tag_267\n        /* \"#utility.yul\":6612:6615   */\n      dup4\n        /* \"#utility.yul\":6604:6610   */\n      dup4\n        /* \"#utility.yul\":6528:6616   */\n      tag_158\n      jump\t// in\n    tag_267:\n        /* \"#utility.yul\":6514:6616   */\n      swap1\n      pop\n        /* \"#utility.yul\":6382:6622   */\n      swap3\n      swap2\n      pop\n      pop\n      jump\t// out\n        /* \"#utility.yul\":6628:6762   */\n    tag_160:\n        /* \"#utility.yul\":6719:6723   */\n      0x00\n        /* \"#utility.yul\":6751:6755   */\n      0x20\n        /* \"#utility.yul\":6746:6749   */\n      dup3\n        /* \"#utility.yul\":6742:6756   */\n      add\n        /* \"#utility.yul\":6734:6756   */\n      swap1\n      pop\n        /* \"#utility.yul\":6628:6762   */\n      swap2\n      swap1\n      pop\n      jump\t// out\n        /* \"#utility.yul\":6824:7903   */\n    tag_161:\n        /* \"#utility.yul\":6985:6988   */\n      0x00\n        /* \"#utility.yul\":7014:7089   */\n      tag_270\n        /* \"#utility.yul\":7083:7088   */\n      dup3\n        /* \"#utility.yul\":7014:7089   */\n      tag_151\n      jump\t// in\n    tag_270:\n        /* \"#utility.yul\":7105:7212   */\n      tag_271\n        /* \"#utility.yul\":7205:7211   */\n      dup2\n        /* \"#utility.yul\":7200:7203   */\n      dup6\n        /* \"#utility.yul\":7105:7212   */\n      tag_152\n      jump\t// in\n    tag_271:\n        /* \"#utility.yul\":7098:7212   */\n      swap4\n      pop\n        /* \"#utility.yul\":7238:7241   */\n      dup4\n        /* \"#utility.yul\":7283:7287   */\n      0x20\n        /* \"#utility.yul\":7275:7281   */\n      dup3\n        /* \"#utility.yul\":7271:7288   */\n      mul\n        /* \"#utility.yul\":7266:7269   */\n      dup6\n        /* \"#utility.yul\":7262:7289   */\n      add\n        /* \"#utility.yul\":7313:7390   */\n      tag_272\n        /* \"#utility.yul\":7384:7389   */\n      dup6\n        /* \"#utility.yul\":7313:7390   */\n      tag_153\n      jump\t// in\n    tag_272:\n        /* \"#utility.yul\":7413:7420   */\n      dup1\n        /* \"#utility.yul\":7444:7445   */\n      0x00\n        /* \"#utility.yul\":7429:7858   */\n    tag_273:\n        /* \"#utility.yul\":7454:7460   */\n      dup6\n        /* \"#utility.yul\":7451:7452   */\n      dup2\n        /* \"#utility.yul\":7448:7461   */\n      lt\n        /* \"#utility.yul\":7429:7858   */\n      iszero\n      tag_275\n      jumpi\n        /* \"#utility.yul\":7525:7534   */\n      dup5\n        /* \"#utility.yul\":7519:7523   */\n      dup5\n        /* \"#utility.yul\":7515:7535   */\n      sub\n        /* \"#utility.yul\":7510:7513   */\n      dup10\n        /* \"#utility.yul\":7503:7536   */\n      mstore\n        /* \"#utility.yul\":7576:7582   */\n      dup2\n        /* \"#utility.yul\":7570:7583   */\n      mload\n        /* \"#utility.yul\":7604:7710   */\n      tag_276\n        /* \"#utility.yul\":7705:7709   */\n      dup6\n        /* \"#utility.yul\":7690:7703   */\n      dup3\n        /* \"#utility.yul\":7604:7710   */\n      tag_159\n      jump\t// in\n    tag_276:\n        /* \"#utility.yul\":7596:7710   */\n      swap5\n      pop\n        /* \"#utility.yul\":7733:7814   */\n      tag_277\n        /* \"#utility.yul\":7807:7813   */\n      dup4\n        /* \"#utility.yul\":7733:7814   */\n      tag_160\n      jump\t// in\n    tag_277:\n        /* \"#utility.yul\":7723:7814   */\n      swap3\n      pop\n        /* \"#utility.yul\":7843:7847   */\n      0x20\n        /* \"#utility.yul\":7838:7841   */\n      dup11\n        /* \"#utility.yul\":7834:7848   */\n      add\n        /* \"#utility.yul\":7827:7848   */\n      swap10\n      pop\n        /* \"#utility.yul\":7489:7858   */\n      pop\n        /* \"#utility.yul\":7476:7477   */\n      0x01\n        /* \"#utility.yul\":7473:7474   */\n      dup2\n        /* \"#utility.yul\":7469:7478   */\n      add\n        /* \"#utility.yul\":7464:7478   */\n      swap1\n      pop\n        /* \"#utility.yul\":7429:7858   */\n      jump(tag_273)\n    tag_275:\n        /* \"#utility.yul\":7433:7447   */\n      pop\n        /* \"#utility.yul\":7874:7878   */\n      dup3\n        /* \"#utility.yul\":7867:7878   */\n      swap8\n      pop\n        /* \"#utility.yul\":7894:7897   */\n      dup8\n        /* \"#utility.yul\":7887:7897   */\n      swap6\n      pop\n        /* \"#utility.yul\":6990:7903   */\n      pop\n      pop\n      pop\n      pop\n      pop\n        /* \"#utility.yul\":6824:7903   */\n      swap3\n      swap2\n      pop\n      pop\n      jump\t// out\n        /* \"#utility.yul\":7909:8366   */\n    tag_24:\n        /* \"#utility.yul\":8094:8098   */\n      0x00\n        /* \"#utility.yul\":8132:8134   */\n      0x20\n        /* \"#utility.yul\":8121:8130   */\n      dup3\n        /* \"#utility.yul\":8117:8135   */\n      add\n        /* \"#utility.yul\":8109:8135   */\n      swap1\n      pop\n        /* \"#utility.yul\":8181:8190   */\n      dup2\n        /* \"#utility.yul\":8175:8179   */\n      dup2\n        /* \"#utility.yul\":8171:8191   */\n      sub\n        /* \"#utility.yul\":8167:8168   */\n      0x00\n        /* \"#utility.yul\":8156:8165   */\n      dup4\n        /* \"#utility.yul\":8152:8169   */\n      add\n        /* \"#utility.yul\":8145:8192   */\n      mstore\n        /* \"#utility.yul\":8209:8359   */\n      tag_279\n        /* \"#utility.yul\":8354:8358   */\n      dup2\n        /* \"#utility.yul\":8345:8351   */\n      dup5\n        /* \"#utility.yul\":8209:8359   */\n      tag_161\n      jump\t// in\n    tag_279:\n        /* \"#utility.yul\":8201:8359   */\n      swap1\n      pop\n        /* \"#utility.yul\":7909:8366   */\n      swap3\n      swap2\n      pop\n      pop\n      jump\t// out\n        /* \"#utility.yul\":8372:8461   */\n    tag_162:\n        /* \"#utility.yul\":8408:8415   */\n      0x00\n        /* \"#utility.yul\":8448:8454   */\n      0xffff\n        /* \"#utility.yul\":8441:8446   */\n      dup3\n        /* \"#utility.yul\":8437:8455   */\n      and\n        /* \"#utility.yul\":8426:8455   */\n      swap1\n      pop\n        /* \"#utility.yul\":8372:8461   */\n      swap2\n      swap1\n      pop\n      jump\t// out\n        /* \"#utility.yul\":8467:8587   */\n    tag_163:\n        /* \"#utility.yul\":8539:8562   */\n      tag_282\n        /* \"#utility.yul\":8556:8561   */\n      dup2\n        /* \"#utility.yul\":8539:8562   */\n      tag_162\n      jump\t// in\n    tag_282:\n        /* \"#utility.yul\":8532:8537   */\n      dup2\n        /* \"#utility.yul\":8529:8563   */\n      eq\n        /* \"#utility.yul\":8519:8581   */\n      tag_283\n      jumpi\n        /* \"#utility.yul\":8577:8578   */\n      0x00\n        /* \"#utility.yul\":8574:8575   */\n      dup1\n        /* \"#utility.yul\":8567:8579   */\n      revert\n        /* \"#utility.yul\":8519:8581   */\n    tag_283:\n        /* \"#utility.yul\":8467:8587   */\n      pop\n      jump\t// out\n        /* \"#utility.yul\":8593:8730   */\n    tag_164:\n        /* \"#utility.yul\":8638:8643   */\n      0x00\n        /* \"#utility.yul\":8676:8682   */\n      dup2\n        /* \"#utility.yul\":8663:8683   */\n      calldataload\n        /* \"#utility.yul\":8654:8683   */\n      swap1\n      pop\n        /* \"#utility.yul\":8692:8724   */\n      tag_285\n        /* \"#utility.yul\":8718:8723   */\n      dup2\n        /* \"#utility.yul\":8692:8724   */\n      tag_163\n      jump\t// in\n    tag_285:\n        /* \"#utility.yul\":8593:8730   */\n      swap3\n      swap2\n      pop\n      pop\n      jump\t// out\n        /* \"#utility.yul\":8736:9063   */\n    tag_30:\n        /* \"#utility.yul\":8794:8800   */\n      0x00\n        /* \"#utility.yul\":8843:8845   */\n      0x20\n        /* \"#utility.yul\":8831:8840   */\n      dup3\n        /* \"#utility.yul\":8822:8829   */\n      dup5\n        /* \"#utility.yul\":8818:8841   */\n      sub\n        /* \"#utility.yul\":8814:8846   */\n      slt\n        /* \"#utility.yul\":8811:8930   */\n      iszero\n      tag_287\n      jumpi\n        /* \"#utility.yul\":8849:8928   */\n      tag_288\n      tag_135\n      jump\t// in\n    tag_288:\n        /* \"#utility.yul\":8811:8930   */\n    tag_287:\n        /* \"#utility.yul\":8969:8970   */\n      0x00\n        /* \"#utility.yul\":8994:9046   */\n      tag_289\n        /* \"#utility.yul\":9038:9045   */\n      dup5\n        /* \"#utility.yul\":9029:9035   */\n      dup3\n        /* \"#utility.yul\":9018:9027   */\n      dup6\n        /* \"#utility.yul\":9014:9036   */\n      add\n        /* \"#utility.yul\":8994:9046   */\n      tag_164\n      jump\t// in\n    tag_289:\n        /* \"#utility.yul\":8984:9046   */\n      swap2\n      pop\n        /* \"#utility.yul\":8940:9056   */\n      pop\n        /* \"#utility.yul\":8736:9063   */\n      swap3\n      swap2\n      pop\n      pop\n      jump\t// out\n        /* \"#utility.yul\":9069:9184   */\n    tag_165:\n        /* \"#utility.yul\":9154:9177   */\n      tag_291\n        /* \"#utility.yul\":9171:9176   */\n      dup2\n        /* \"#utility.yul\":9154:9177   */\n      tag_162\n      jump\t// in\n    tag_291:\n        /* \"#utility.yul\":9149:9152   */\n      dup3\n        /* \"#utility.yul\":9142:9178   */\n      mstore\n        /* \"#utility.yul\":9069:9184   */\n      pop\n      pop\n      jump\t// out\n        /* \"#utility.yul\":9190:9408   */\n    tag_38:\n        /* \"#utility.yul\":9281:9285   */\n      0x00\n        /* \"#utility.yul\":9319:9321   */\n      0x20\n        /* \"#utility.yul\":9308:9317   */\n      dup3\n        /* \"#utility.yul\":9304:9322   */\n      add\n        /* \"#utility.yul\":9296:9322   */\n      swap1\n      pop\n        /* \"#utility.yul\":9332:9401   */\n      tag_293\n        /* \"#utility.yul\":9398:9399   */\n      0x00\n        /* \"#utility.yul\":9387:9396   */\n      dup4\n        /* \"#utility.yul\":9383:9400   */\n      add\n        /* \"#utility.yul\":9374:9380   */\n      dup5\n        /* \"#utility.yul\":9332:9401   */\n      tag_165\n      jump\t// in\n    tag_293:\n        /* \"#utility.yul\":9190:9408   */\n      swap3\n      swap2\n      pop\n      pop\n      jump\t// out\n        /* \"#utility.yul\":9414:9531   */\n    tag_166:\n        /* \"#utility.yul\":9523:9524   */\n      0x00\n        /* \"#utility.yul\":9520:9521   */\n      dup1\n        /* \"#utility.yul\":9513:9525   */\n      revert\n        /* \"#utility.yul\":9537:9654   */\n    tag_167:\n        /* \"#utility.yul\":9646:9647   */\n      0x00\n        /* \"#utility.yul\":9643:9644   */\n      dup1\n        /* \"#utility.yul\":9636:9648   */\n      revert\n        /* \"#utility.yul\":9660:9840   */\n    tag_168:\n        /* \"#utility.yul\":9708:9785   */\n      0x4e487b7100000000000000000000000000000000000000000000000000000000\n        /* \"#utility.yul\":9705:9706   */\n      0x00\n        /* \"#utility.yul\":9698:9786   */\n      mstore\n        /* \"#utility.yul\":9805:9809   */\n      0x41\n        /* \"#utility.yul\":9802:9803   */\n      0x04\n        /* \"#utility.yul\":9795:9810   */\n      mstore\n        /* \"#utility.yul\":9829:9833   */\n      0x24\n        /* \"#utility.yul\":9826:9827   */\n      0x00\n        /* \"#utility.yul\":9819:9834   */\n      revert\n        /* \"#utility.yul\":9846:10127   */\n    tag_169:\n        /* \"#utility.yul\":9929:9956   */\n      tag_298\n        /* \"#utility.yul\":9951:9955   */\n      dup3\n        /* \"#utility.yul\":9929:9956   */\n      tag_149\n      jump\t// in\n    tag_298:\n        /* \"#utility.yul\":9921:9927   */\n      dup2\n        /* \"#utility.yul\":9917:9957   */\n      add\n        /* \"#utility.yul\":10059:10065   */\n      dup2\n        /* \"#utility.yul\":10047:10057   */\n      dup2\n        /* \"#utility.yul\":10044:10066   */\n      lt\n        /* \"#utility.yul\":10023:10041   */\n      0xffffffffffffffff\n        /* \"#utility.yul\":10011:10021   */\n      dup3\n        /* \"#utility.yul\":10008:10042   */\n      gt\n        /* \"#utility.yul\":10005:10067   */\n      or\n        /* \"#utility.yul\":10002:10090   */\n      iszero\n      tag_299\n      jumpi\n        /* \"#utility.yul\":10070:10088   */\n      tag_300\n      tag_168\n      jump\t// in\n    tag_300:\n        /* \"#utility.yul\":10002:10090   */\n    tag_299:\n        /* \"#utility.yul\":10110:10120   */\n      dup1\n        /* \"#utility.yul\":10106:10108   */\n      0x40\n        /* \"#utility.yul\":10099:10121   */\n      mstore\n        /* \"#utility.yul\":9889:10127   */\n      pop\n        /* \"#utility.yul\":9846:10127   */\n      pop\n      pop\n      jump\t// out\n        /* \"#utility.yul\":10133:10262   */\n    tag_170:\n        /* \"#utility.yul\":10167:10173   */\n      0x00\n        /* \"#utility.yul\":10194:10214   */\n      tag_302\n      tag_134\n      jump\t// in\n    tag_302:\n        /* \"#utility.yul\":10184:10214   */\n      swap1\n      pop\n        /* \"#utility.yul\":10223:10256   */\n      tag_303\n        /* \"#utility.yul\":10251:10255   */\n      dup3\n        /* \"#utility.yul\":10243:10249   */\n      dup3\n        /* \"#utility.yul\":10223:10256   */\n      tag_169\n      jump\t// in\n    tag_303:\n        /* \"#utility.yul\":10133:10262   */\n      swap2\n      swap1\n      pop\n      jump\t// out\n        /* \"#utility.yul\":10268:10576   */\n    tag_171:\n        /* \"#utility.yul\":10330:10334   */\n      0x00\n        /* \"#utility.yul\":10420:10438   */\n      0xffffffffffffffff\n        /* \"#utility.yul\":10412:10418   */\n      dup3\n        /* \"#utility.yul\":10409:10439   */\n      gt\n        /* \"#utility.yul\":10406:10462   */\n      iszero\n      tag_305\n      jumpi\n        /* \"#utility.yul\":10442:10460   */\n      tag_306\n      tag_168\n      jump\t// in\n    tag_306:\n        /* \"#utility.yul\":10406:10462   */\n    tag_305:\n        /* \"#utility.yul\":10480:10509   */\n      tag_307\n        /* \"#utility.yul\":10502:10508   */\n      dup3\n        /* \"#utility.yul\":10480:10509   */\n      tag_149\n      jump\t// in\n    tag_307:\n        /* \"#utility.yul\":10472:10509   */\n      swap1\n      pop\n        /* \"#utility.yul\":10564:10568   */\n      0x20\n        /* \"#utility.yul\":10558:10562   */\n      dup2\n        /* \"#utility.yul\":10554:10569   */\n      add\n        /* \"#utility.yul\":10546:10569   */\n      swap1\n      pop\n        /* \"#utility.yul\":10268:10576   */\n      swap2\n      swap1\n      pop\n      jump\t// out\n        /* \"#utility.yul\":10582:10730   */\n    tag_172:\n        /* \"#utility.yul\":10680:10686   */\n      dup3\n        /* \"#utility.yul\":10675:10678   */\n      dup2\n        /* \"#utility.yul\":10670:10673   */\n      dup4\n        /* \"#utility.yul\":10657:10687   */\n      calldatacopy\n        /* \"#utility.yul\":10721:10722   */\n      0x00\n        /* \"#utility.yul\":10712:10718   */\n      dup4\n        /* \"#utility.yul\":10707:10710   */\n      dup4\n        /* \"#utility.yul\":10703:10719   */\n      add\n        /* \"#utility.yul\":10696:10723   */\n      mstore\n        /* \"#utility.yul\":10582:10730   */\n      pop\n      pop\n      pop\n      jump\t// out\n        /* \"#utility.yul\":10736:11161   */\n    tag_173:\n        /* \"#utility.yul\":10814:10819   */\n      0x00\n        /* \"#utility.yul\":10839:10905   */\n      tag_310\n        /* \"#utility.yul\":10855:10904   */\n      tag_311\n        /* \"#utility.yul\":10897:10903   */\n      dup5\n        /* \"#utility.yul\":10855:10904   */\n      tag_171\n      jump\t// in\n    tag_311:\n        /* \"#utility.yul\":10839:10905   */\n      tag_170\n      jump\t// in\n    tag_310:\n        /* \"#utility.yul\":10830:10905   */\n      swap1\n      pop\n        /* \"#utility.yul\":10928:10934   */\n      dup3\n        /* \"#utility.yul\":10921:10926   */\n      dup2\n        /* \"#utility.yul\":10914:10935   */\n      mstore\n        /* \"#utility.yul\":10966:10970   */\n      0x20\n        /* \"#utility.yul\":10959:10964   */\n      dup2\n        /* \"#utility.yul\":10955:10971   */\n      add\n        /* \"#utility.yul\":11004:11007   */\n      dup5\n        /* \"#utility.yul\":10995:11001   */\n      dup5\n        /* \"#utility.yul\":10990:10993   */\n      dup5\n        /* \"#utility.yul\":10986:11002   */\n      add\n        /* \"#utility.yul\":10983:11008   */\n      gt\n        /* \"#utility.yul\":10980:11092   */\n      iszero\n      tag_312\n      jumpi\n        /* \"#utility.yul\":11011:11090   */\n      tag_313\n      tag_167\n      jump\t// in\n    tag_313:\n        /* \"#utility.yul\":10980:11092   */\n    tag_312:\n        /* \"#utility.yul\":11101:11155   */\n      tag_314\n        /* \"#utility.yul\":11148:11154   */\n      dup5\n        /* \"#utility.yul\":11143:11146   */\n      dup3\n        /* \"#utility.yul\":11138:11141   */\n      dup6\n        /* \"#utility.yul\":11101:11155   */\n      tag_172\n      jump\t// in\n    tag_314:\n        /* \"#utility.yul\":10820:11161   */\n      pop\n        /* \"#utility.yul\":10736:11161   */\n      swap4\n      swap3\n      pop\n      pop\n      pop\n      jump\t// out\n        /* \"#utility.yul\":11181:11521   */\n    tag_174:\n        /* \"#utility.yul\":11237:11242   */\n      0x00\n        /* \"#utility.yul\":11286:11289   */\n      dup3\n        /* \"#utility.yul\":11279:11283   */\n      0x1f\n        /* \"#utility.yul\":11271:11277   */\n      dup4\n        /* \"#utility.yul\":11267:11284   */\n      add\n        /* \"#utility.yul\":11263:11290   */\n      slt\n        /* \"#utility.yul\":11253:11375   */\n      tag_316\n      jumpi\n        /* \"#utility.yul\":11294:11373   */\n      tag_317\n      tag_166\n      jump\t// in\n    tag_317:\n        /* \"#utility.yul\":11253:11375   */\n    tag_316:\n        /* \"#utility.yul\":11411:11417   */\n      dup2\n        /* \"#utility.yul\":11398:11418   */\n      calldataload\n        /* \"#utility.yul\":11436:11515   */\n      tag_318\n        /* \"#utility.yul\":11511:11514   */\n      dup5\n        /* \"#utility.yul\":11503:11509   */\n      dup3\n        /* \"#utility.yul\":11496:11500   */\n      0x20\n        /* \"#utility.yul\":11488:11494   */\n      dup7\n        /* \"#utility.yul\":11484:11501   */\n      add\n        /* \"#utility.yul\":11436:11515   */\n      tag_173\n      jump\t// in\n    tag_318:\n        /* \"#utility.yul\":11427:11515   */\n      swap2\n      pop\n        /* \"#utility.yul\":11243:11521   */\n      pop\n        /* \"#utility.yul\":11181:11521   */\n      swap3\n      swap2\n      pop\n      pop\n      jump\t// out\n        /* \"#utility.yul\":11527:12036   */\n    tag_41:\n        /* \"#utility.yul\":11596:11602   */\n      0x00\n        /* \"#utility.yul\":11645:11647   */\n      0x20\n        /* \"#utility.yul\":11633:11642   */\n      dup3\n        /* \"#utility.yul\":11624:11631   */\n      dup5\n        /* \"#utility.yul\":11620:11643   */\n      sub\n        /* \"#utility.yul\":11616:11648   */\n      slt\n        /* \"#utility.yul\":11613:11732   */\n      iszero\n      tag_320\n      jumpi\n        /* \"#utility.yul\":11651:11730   */\n      tag_321\n      tag_135\n      jump\t// in\n    tag_321:\n        /* \"#utility.yul\":11613:11732   */\n    tag_320:\n        /* \"#utility.yul\":11799:11800   */\n      0x00\n        /* \"#utility.yul\":11788:11797   */\n      dup3\n        /* \"#utility.yul\":11784:11801   */\n      add\n        /* \"#utility.yul\":11771:11802   */\n      calldataload\n        /* \"#utility.yul\":11829:11847   */\n      0xffffffffffffffff\n        /* \"#utility.yul\":11821:11827   */\n      dup2\n        /* \"#utility.yul\":11818:11848   */\n      gt\n        /* \"#utility.yul\":11815:11932   */\n      iszero\n      tag_322\n      jumpi\n        /* \"#utility.yul\":11851:11930   */\n      tag_323\n      tag_136\n      jump\t// in\n    tag_323:\n        /* \"#utility.yul\":11815:11932   */\n    tag_322:\n        /* \"#utility.yul\":11956:12019   */\n      tag_324\n        /* \"#utility.yul\":12011:12018   */\n      dup5\n        /* \"#utility.yul\":12002:12008   */\n      dup3\n        /* \"#utility.yul\":11991:12000   */\n      dup6\n        /* \"#utility.yul\":11987:12009   */\n      add\n        /* \"#utility.yul\":11956:12019   */\n      tag_174\n      jump\t// in\n    tag_324:\n        /* \"#utility.yul\":11946:12019   */\n      swap2\n      pop\n        /* \"#utility.yul\":11742:12029   */\n      pop\n        /* \"#utility.yul\":11527:12036   */\n      swap3\n      swap2\n      pop\n      pop\n      jump\t// out\n        /* \"#utility.yul\":12042:12264   */\n    tag_46:\n        /* \"#utility.yul\":12135:12139   */\n      0x00\n        /* \"#utility.yul\":12173:12175   */\n      0x20\n        /* \"#utility.yul\":12162:12171   */\n      dup3\n        /* \"#utility.yul\":12158:12176   */\n      add\n        /* \"#utility.yul\":12150:12176   */\n      swap1\n      pop\n        /* \"#utility.yul\":12186:12257   */\n      tag_326\n        /* \"#utility.yul\":12254:12255   */\n      0x00\n        /* \"#utility.yul\":12243:12252   */\n      dup4\n        /* \"#utility.yul\":12239:12256   */\n      add\n        /* \"#utility.yul\":12230:12236   */\n      dup5\n        /* \"#utility.yul\":12186:12257   */\n      tag_145\n      jump\t// in\n    tag_326:\n        /* \"#utility.yul\":12042:12264   */\n      swap3\n      swap2\n      pop\n      pop\n      jump\t// out\n        /* \"#utility.yul\":12270:12599   */\n    tag_49:\n        /* \"#utility.yul\":12329:12335   */\n      0x00\n        /* \"#utility.yul\":12378:12380   */\n      0x20\n        /* \"#utility.yul\":12366:12375   */\n      dup3\n        /* \"#utility.yul\":12357:12364   */\n      dup5\n        /* \"#utility.yul\":12353:12376   */\n      sub\n        /* \"#utility.yul\":12349:12381   */\n      slt\n        /* \"#utility.yul\":12346:12465   */\n      iszero\n      tag_328\n      jumpi\n        /* \"#utility.yul\":12384:12463   */\n      tag_329\n      tag_135\n      jump\t// in\n    tag_329:\n        /* \"#utility.yul\":12346:12465   */\n    tag_328:\n        /* \"#utility.yul\":12504:12505   */\n      0x00\n        /* \"#utility.yul\":12529:12582   */\n      tag_330\n        /* \"#utility.yul\":12574:12581   */\n      dup5\n        /* \"#utility.yul\":12565:12571   */\n      dup3\n        /* \"#utility.yul\":12554:12563   */\n      dup6\n        /* \"#utility.yul\":12550:12572   */\n      add\n        /* \"#utility.yul\":12529:12582   */\n      tag_143\n      jump\t// in\n    tag_330:\n        /* \"#utility.yul\":12519:12582   */\n      swap2\n      pop\n        /* \"#utility.yul\":12475:12592   */\n      pop\n        /* \"#utility.yul\":12270:12599   */\n      swap3\n      swap2\n      pop\n      pop\n      jump\t// out\n        /* \"#utility.yul\":12657:13787   */\n    tag_175:\n        /* \"#utility.yul\":12768:12771   */\n      0x00\n        /* \"#utility.yul\":12804:12808   */\n      0xa0\n        /* \"#utility.yul\":12799:12802   */\n      dup4\n        /* \"#utility.yul\":12795:12809   */\n      add\n        /* \"#utility.yul\":12889:12893   */\n      0x00\n        /* \"#utility.yul\":12882:12887   */\n      dup4\n        /* \"#utility.yul\":12878:12894   */\n      add\n        /* \"#utility.yul\":12872:12895   */\n      mload\n        /* \"#utility.yul\":12908:12971   */\n      tag_332\n        /* \"#utility.yul\":12965:12969   */\n      0x00\n        /* \"#utility.yul\":12960:12963   */\n      dup7\n        /* \"#utility.yul\":12956:12970   */\n      add\n        /* \"#utility.yul\":12942:12954   */\n      dup3\n        /* \"#utility.yul\":12908:12971   */\n      tag_154\n      jump\t// in\n    tag_332:\n        /* \"#utility.yul\":12819:12981   */\n      pop\n        /* \"#utility.yul\":13065:13069   */\n      0x20\n        /* \"#utility.yul\":13058:13063   */\n      dup4\n        /* \"#utility.yul\":13054:13070   */\n      add\n        /* \"#utility.yul\":13048:13071   */\n      mload\n        /* \"#utility.yul\":13084:13147   */\n      tag_333\n        /* \"#utility.yul\":13141:13145   */\n      0x20\n        /* \"#utility.yul\":13136:13139   */\n      dup7\n        /* \"#utility.yul\":13132:13146   */\n      add\n        /* \"#utility.yul\":13118:13130   */\n      dup3\n        /* \"#utility.yul\":13084:13147   */\n      tag_155\n      jump\t// in\n    tag_333:\n        /* \"#utility.yul\":12991:13157   */\n      pop\n        /* \"#utility.yul\":13242:13246   */\n      0x40\n        /* \"#utility.yul\":13235:13240   */\n      dup4\n        /* \"#utility.yul\":13231:13247   */\n      add\n        /* \"#utility.yul\":13225:13248   */\n      mload\n        /* \"#utility.yul\":13295:13298   */\n      dup5\n        /* \"#utility.yul\":13289:13293   */\n      dup3\n        /* \"#utility.yul\":13285:13299   */\n      sub\n        /* \"#utility.yul\":13278:13282   */\n      0x40\n        /* \"#utility.yul\":13273:13276   */\n      dup7\n        /* \"#utility.yul\":13269:13283   */\n      add\n        /* \"#utility.yul\":13262:13300   */\n      mstore\n        /* \"#utility.yul\":13321:13394   */\n      tag_334\n        /* \"#utility.yul\":13389:13393   */\n      dup3\n        /* \"#utility.yul\":13375:13387   */\n      dup3\n        /* \"#utility.yul\":13321:13394   */\n      tag_157\n      jump\t// in\n    tag_334:\n        /* \"#utility.yul\":13313:13394   */\n      swap2\n      pop\n        /* \"#utility.yul\":13167:13405   */\n      pop\n        /* \"#utility.yul\":13493:13497   */\n      0x60\n        /* \"#utility.yul\":13486:13491   */\n      dup4\n        /* \"#utility.yul\":13482:13498   */\n      add\n        /* \"#utility.yul\":13476:13499   */\n      mload\n        /* \"#utility.yul\":13512:13575   */\n      tag_335\n        /* \"#utility.yul\":13569:13573   */\n      0x60\n        /* \"#utility.yul\":13564:13567   */\n      dup7\n        /* \"#utility.yul\":13560:13574   */\n      add\n        /* \"#utility.yul\":13546:13558   */\n      dup3\n        /* \"#utility.yul\":13512:13575   */\n      tag_154\n      jump\t// in\n    tag_335:\n        /* \"#utility.yul\":13415:13585   */\n      pop\n        /* \"#utility.yul\":13668:13672   */\n      0x80\n        /* \"#utility.yul\":13661:13666   */\n      dup4\n        /* \"#utility.yul\":13657:13673   */\n      add\n        /* \"#utility.yul\":13651:13674   */\n      mload\n        /* \"#utility.yul\":13687:13750   */\n      tag_336\n        /* \"#utility.yul\":13744:13748   */\n      0x80\n        /* \"#utility.yul\":13739:13742   */\n      dup7\n        /* \"#utility.yul\":13735:13749   */\n      add\n        /* \"#utility.yul\":13721:13733   */\n      dup3\n        /* \"#utility.yul\":13687:13750   */\n      tag_154\n      jump\t// in\n    tag_336:\n        /* \"#utility.yul\":13595:13760   */\n      pop\n        /* \"#utility.yul\":13777:13781   */\n      dup1\n        /* \"#utility.yul\":13770:13781   */\n      swap2\n      pop\n        /* \"#utility.yul\":12773:13787   */\n      pop\n        /* \"#utility.yul\":12657:13787   */\n      swap3\n      swap2\n      pop\n      pop\n      jump\t// out\n        /* \"#utility.yul\":13793:14150   */\n    tag_52:\n        /* \"#utility.yul\":13928:13932   */\n      0x00\n        /* \"#utility.yul\":13966:13968   */\n      0x20\n        /* \"#utility.yul\":13955:13964   */\n      dup3\n        /* \"#utility.yul\":13951:13969   */\n      add\n        /* \"#utility.yul\":13943:13969   */\n      swap1\n      pop\n        /* \"#utility.yul\":14015:14024   */\n      dup2\n        /* \"#utility.yul\":14009:14013   */\n      dup2\n        /* \"#utility.yul\":14005:14025   */\n      sub\n        /* \"#utility.yul\":14001:14002   */\n      0x00\n        /* \"#utility.yul\":13990:13999   */\n      dup4\n        /* \"#utility.yul\":13986:14003   */\n      add\n        /* \"#utility.yul\":13979:14026   */\n      mstore\n        /* \"#utility.yul\":14043:14143   */\n      tag_338\n        /* \"#utility.yul\":14138:14142   */\n      dup2\n        /* \"#utility.yul\":14129:14135   */\n      dup5\n        /* \"#utility.yul\":14043:14143   */\n      tag_175\n      jump\t// in\n    tag_338:\n        /* \"#utility.yul\":14035:14143   */\n      swap1\n      pop\n        /* \"#utility.yul\":13793:14150   */\n      swap3\n      swap2\n      pop\n      pop\n      jump\t// out\n        /* \"#utility.yul\":14156:14336   */\n    tag_176:\n        /* \"#utility.yul\":14204:14281   */\n      0x4e487b7100000000000000000000000000000000000000000000000000000000\n        /* \"#utility.yul\":14201:14202   */\n      0x00\n        /* \"#utility.yul\":14194:14282   */\n      mstore\n        /* \"#utility.yul\":14301:14305   */\n      0x22\n        /* \"#utility.yul\":14298:14299   */\n      0x04\n        /* \"#utility.yul\":14291:14306   */\n      mstore\n        /* \"#utility.yul\":14325:14329   */\n      0x24\n        /* \"#utility.yul\":14322:14323   */\n      0x00\n        /* \"#utility.yul\":14315:14330   */\n      revert\n        /* \"#utility.yul\":14342:14662   */\n    tag_56:\n        /* \"#utility.yul\":14386:14392   */\n      0x00\n        /* \"#utility.yul\":14423:14424   */\n      0x02\n        /* \"#utility.yul\":14417:14421   */\n      dup3\n        /* \"#utility.yul\":14413:14425   */\n      div\n        /* \"#utility.yul\":14403:14425   */\n      swap1\n      pop\n        /* \"#utility.yul\":14470:14471   */\n      0x01\n        /* \"#utility.yul\":14464:14468   */\n      dup3\n        /* \"#utility.yul\":14460:14472   */\n      and\n        /* \"#utility.yul\":14491:14509   */\n      dup1\n        /* \"#utility.yul\":14481:14562   */\n      tag_341\n      jumpi\n        /* \"#utility.yul\":14547:14551   */\n      0x7f\n        /* \"#utility.yul\":14539:14545   */\n      dup3\n        /* \"#utility.yul\":14535:14552   */\n      and\n        /* \"#utility.yul\":14525:14552   */\n      swap2\n      pop\n        /* \"#utility.yul\":14481:14562   */\n    tag_341:\n        /* \"#utility.yul\":14609:14611   */\n      0x20\n        /* \"#utility.yul\":14601:14607   */\n      dup3\n        /* \"#utility.yul\":14598:14612   */\n      lt\n        /* \"#utility.yul\":14578:14596   */\n      dup2\n        /* \"#utility.yul\":14575:14613   */\n      sub\n        /* \"#utility.yul\":14572:14656   */\n      tag_342\n      jumpi\n        /* \"#utility.yul\":14628:14646   */\n      tag_343\n      tag_176\n      jump\t// in\n    tag_343:\n        /* \"#utility.yul\":14572:14656   */\n    tag_342:\n        /* \"#utility.yul\":14393:14662   */\n      pop\n        /* \"#utility.yul\":14342:14662   */\n      swap2\n      swap1\n      pop\n      jump\t// out\n        /* \"#utility.yul\":14668:14848   */\n    tag_73:\n        /* \"#utility.yul\":14716:14793   */\n      0x4e487b7100000000000000000000000000000000000000000000000000000000\n        /* \"#utility.yul\":14713:14714   */\n      0x00\n        /* \"#utility.yul\":14706:14794   */\n      mstore\n        /* \"#utility.yul\":14813:14817   */\n      0x32\n        /* \"#utility.yul\":14810:14811   */\n      0x04\n        /* \"#utility.yul\":14803:14818   */\n      mstore\n        /* \"#utility.yul\":14837:14841   */\n      0x24\n        /* \"#utility.yul\":14834:14835   */\n      0x00\n        /* \"#utility.yul\":14827:14842   */\n      revert\n        /* \"#utility.yul\":14854:15024   */\n    tag_177:\n        /* \"#utility.yul\":14994:15016   */\n      0x547765657420446f6573204e6f74204578697374000000000000000000000000\n        /* \"#utility.yul\":14990:14991   */\n      0x00\n        /* \"#utility.yul\":14982:14988   */\n      dup3\n        /* \"#utility.yul\":14978:14992   */\n      add\n        /* \"#utility.yul\":14971:15017   */\n      mstore\n        /* \"#utility.yul\":14854:15024   */\n      pop\n      jump\t// out\n        /* \"#utility.yul\":15030:15396   */\n    tag_178:\n        /* \"#utility.yul\":15172:15175   */\n      0x00\n        /* \"#utility.yul\":15193:15260   */\n      tag_347\n        /* \"#utility.yul\":15257:15259   */\n      0x14\n        /* \"#utility.yul\":15252:15255   */\n      dup4\n        /* \"#utility.yul\":15193:15260   */\n      tag_147\n      jump\t// in\n    tag_347:\n        /* \"#utility.yul\":15186:15260   */\n      swap2\n      pop\n        /* \"#utility.yul\":15269:15362   */\n      tag_348\n        /* \"#utility.yul\":15358:15361   */\n      dup3\n        /* \"#utility.yul\":15269:15362   */\n      tag_177\n      jump\t// in\n    tag_348:\n        /* \"#utility.yul\":15387:15389   */\n      0x20\n        /* \"#utility.yul\":15382:15385   */\n      dup3\n        /* \"#utility.yul\":15378:15390   */\n      add\n        /* \"#utility.yul\":15371:15390   */\n      swap1\n      pop\n        /* \"#utility.yul\":15030:15396   */\n      swap2\n      swap1\n      pop\n      jump\t// out\n        /* \"#utility.yul\":15402:15821   */\n    tag_77:\n        /* \"#utility.yul\":15568:15572   */\n      0x00\n        /* \"#utility.yul\":15606:15608   */\n      0x20\n        /* \"#utility.yul\":15595:15604   */\n      dup3\n        /* \"#utility.yul\":15591:15609   */\n      add\n        /* \"#utility.yul\":15583:15609   */\n      swap1\n      pop\n        /* \"#utility.yul\":15655:15664   */\n      dup2\n        /* \"#utility.yul\":15649:15653   */\n      dup2\n        /* \"#utility.yul\":15645:15665   */\n      sub\n        /* \"#utility.yul\":15641:15642   */\n      0x00\n        /* \"#utility.yul\":15630:15639   */\n      dup4\n        /* \"#utility.yul\":15626:15643   */\n      add\n        /* \"#utility.yul\":15619:15666   */\n      mstore\n        /* \"#utility.yul\":15683:15814   */\n      tag_350\n        /* \"#utility.yul\":15809:15813   */\n      dup2\n        /* \"#utility.yul\":15683:15814   */\n      tag_178\n      jump\t// in\n    tag_350:\n        /* \"#utility.yul\":15675:15814   */\n      swap1\n      pop\n        /* \"#utility.yul\":15402:15821   */\n      swap2\n      swap1\n      pop\n      jump\t// out\n        /* \"#utility.yul\":15827:15996   */\n    tag_179:\n        /* \"#utility.yul\":15967:15988   */\n      0x54776565747320686173206e6f206c696b657300000000000000000000000000\n        /* \"#utility.yul\":15963:15964   */\n      0x00\n        /* \"#utility.yul\":15955:15961   */\n      dup3\n        /* \"#utility.yul\":15951:15965   */\n      add\n        /* \"#utility.yul\":15944:15989   */\n      mstore\n        /* \"#utility.yul\":15827:15996   */\n      pop\n      jump\t// out\n        /* \"#utility.yul\":16002:16368   */\n    tag_180:\n        /* \"#utility.yul\":16144:16147   */\n      0x00\n        /* \"#utility.yul\":16165:16232   */\n      tag_353\n        /* \"#utility.yul\":16229:16231   */\n      0x13\n        /* \"#utility.yul\":16224:16227   */\n      dup4\n        /* \"#utility.yul\":16165:16232   */\n      tag_147\n      jump\t// in\n    tag_353:\n        /* \"#utility.yul\":16158:16232   */\n      swap2\n      pop\n        /* \"#utility.yul\":16241:16334   */\n      tag_354\n        /* \"#utility.yul\":16330:16333   */\n      dup3\n        /* \"#utility.yul\":16241:16334   */\n      tag_179\n      jump\t// in\n    tag_354:\n        /* \"#utility.yul\":16359:16361   */\n      0x20\n        /* \"#utility.yul\":16354:16357   */\n      dup3\n        /* \"#utility.yul\":16350:16362   */\n      add\n        /* \"#utility.yul\":16343:16362   */\n      swap1\n      pop\n        /* \"#utility.yul\":16002:16368   */\n      swap2\n      swap1\n      pop\n      jump\t// out\n        /* \"#utility.yul\":16374:16793   */\n    tag_83:\n        /* \"#utility.yul\":16540:16544   */\n      0x00\n        /* \"#utility.yul\":16578:16580   */\n      0x20\n        /* \"#utility.yul\":16567:16576   */\n      dup3\n        /* \"#utility.yul\":16563:16581   */\n      add\n        /* \"#utility.yul\":16555:16581   */\n      swap1\n      pop\n        /* \"#utility.yul\":16627:16636   */\n      dup2\n        /* \"#utility.yul\":16621:16625   */\n      dup2\n        /* \"#utility.yul\":16617:16637   */\n      sub\n        /* \"#utility.yul\":16613:16614   */\n      0x00\n        /* \"#utility.yul\":16602:16611   */\n      dup4\n        /* \"#utility.yul\":16598:16615   */\n      add\n        /* \"#utility.yul\":16591:16638   */\n      mstore\n        /* \"#utility.yul\":16655:16786   */\n      tag_356\n        /* \"#utility.yul\":16781:16785   */\n      dup2\n        /* \"#utility.yul\":16655:16786   */\n      tag_180\n      jump\t// in\n    tag_356:\n        /* \"#utility.yul\":16647:16786   */\n      swap1\n      pop\n        /* \"#utility.yul\":16374:16793   */\n      swap2\n      swap1\n      pop\n      jump\t// out\n        /* \"#utility.yul\":16799:16979   */\n    tag_181:\n        /* \"#utility.yul\":16847:16924   */\n      0x4e487b7100000000000000000000000000000000000000000000000000000000\n        /* \"#utility.yul\":16844:16845   */\n      0x00\n        /* \"#utility.yul\":16837:16925   */\n      mstore\n        /* \"#utility.yul\":16944:16948   */\n      0x11\n        /* \"#utility.yul\":16941:16942   */\n      0x04\n        /* \"#utility.yul\":16934:16949   */\n      mstore\n        /* \"#utility.yul\":16968:16972   */\n      0x24\n        /* \"#utility.yul\":16965:16966   */\n      0x00\n        /* \"#utility.yul\":16958:16973   */\n      revert\n        /* \"#utility.yul\":16985:17156   */\n    tag_88:\n        /* \"#utility.yul\":17024:17027   */\n      0x00\n        /* \"#utility.yul\":17047:17071   */\n      tag_359\n        /* \"#utility.yul\":17065:17070   */\n      dup3\n        /* \"#utility.yul\":17047:17071   */\n      tag_141\n      jump\t// in\n    tag_359:\n        /* \"#utility.yul\":17038:17071   */\n      swap2\n      pop\n        /* \"#utility.yul\":17093:17097   */\n      0x00\n        /* \"#utility.yul\":17086:17091   */\n      dup3\n        /* \"#utility.yul\":17083:17098   */\n      sub\n        /* \"#utility.yul\":17080:17121   */\n      tag_360\n      jumpi\n        /* \"#utility.yul\":17101:17119   */\n      tag_361\n      tag_181\n      jump\t// in\n    tag_361:\n        /* \"#utility.yul\":17080:17121   */\n    tag_360:\n        /* \"#utility.yul\":17148:17149   */\n      0x01\n        /* \"#utility.yul\":17141:17146   */\n      dup3\n        /* \"#utility.yul\":17137:17150   */\n      sub\n        /* \"#utility.yul\":17130:17150   */\n      swap1\n      pop\n        /* \"#utility.yul\":16985:17156   */\n      swap2\n      swap1\n      pop\n      jump\t// out\n        /* \"#utility.yul\":17162:17715   */\n    tag_93:\n        /* \"#utility.yul\":17339:17343   */\n      0x00\n        /* \"#utility.yul\":17377:17380   */\n      0x80\n        /* \"#utility.yul\":17366:17375   */\n      dup3\n        /* \"#utility.yul\":17362:17381   */\n      add\n        /* \"#utility.yul\":17354:17381   */\n      swap1\n      pop\n        /* \"#utility.yul\":17391:17462   */\n      tag_363\n        /* \"#utility.yul\":17459:17460   */\n      0x00\n        /* \"#utility.yul\":17448:17457   */\n      dup4\n        /* \"#utility.yul\":17444:17461   */\n      add\n        /* \"#utility.yul\":17435:17441   */\n      dup8\n        /* \"#utility.yul\":17391:17462   */\n      tag_145\n      jump\t// in\n    tag_363:\n        /* \"#utility.yul\":17472:17544   */\n      tag_364\n        /* \"#utility.yul\":17540:17542   */\n      0x20\n        /* \"#utility.yul\":17529:17538   */\n      dup4\n        /* \"#utility.yul\":17525:17543   */\n      add\n        /* \"#utility.yul\":17516:17522   */\n      dup7\n        /* \"#utility.yul\":17472:17544   */\n      tag_145\n      jump\t// in\n    tag_364:\n        /* \"#utility.yul\":17554:17626   */\n      tag_365\n        /* \"#utility.yul\":17622:17624   */\n      0x40\n        /* \"#utility.yul\":17611:17620   */\n      dup4\n        /* \"#utility.yul\":17607:17625   */\n      add\n        /* \"#utility.yul\":17598:17604   */\n      dup6\n        /* \"#utility.yul\":17554:17626   */\n      tag_144\n      jump\t// in\n    tag_365:\n        /* \"#utility.yul\":17636:17708   */\n      tag_366\n        /* \"#utility.yul\":17704:17706   */\n      0x60\n        /* \"#utility.yul\":17693:17702   */\n      dup4\n        /* \"#utility.yul\":17689:17707   */\n      add\n        /* \"#utility.yul\":17680:17686   */\n      dup5\n        /* \"#utility.yul\":17636:17708   */\n      tag_144\n      jump\t// in\n    tag_366:\n        /* \"#utility.yul\":17162:17715   */\n      swap6\n      swap5\n      pop\n      pop\n      pop\n      pop\n      pop\n      jump\t// out\n        /* \"#utility.yul\":17721:17892   */\n    tag_182:\n        /* \"#utility.yul\":17861:17884   */\n      0x594f5520415245204e4f5420544845204f574e45520000000000000000000000\n        /* \"#utility.yul\":17857:17858   */\n      0x00\n        /* \"#utility.yul\":17849:17855   */\n      dup3\n        /* \"#utility.yul\":17845:17859   */\n      add\n        /* \"#utility.yul\":17838:17885   */\n      mstore\n        /* \"#utility.yul\":17721:17892   */\n      pop\n      jump\t// out\n        /* \"#utility.yul\":17898:18264   */\n    tag_183:\n        /* \"#utility.yul\":18040:18043   */\n      0x00\n        /* \"#utility.yul\":18061:18128   */\n      tag_369\n        /* \"#utility.yul\":18125:18127   */\n      0x15\n        /* \"#utility.yul\":18120:18123   */\n      dup4\n        /* \"#utility.yul\":18061:18128   */\n      tag_147\n      jump\t// in\n    tag_369:\n        /* \"#utility.yul\":18054:18128   */\n      swap2\n      pop\n        /* \"#utility.yul\":18137:18230   */\n      tag_370\n        /* \"#utility.yul\":18226:18229   */\n      dup3\n        /* \"#utility.yul\":18137:18230   */\n      tag_182\n      jump\t// in\n    tag_370:\n        /* \"#utility.yul\":18255:18257   */\n      0x20\n        /* \"#utility.yul\":18250:18253   */\n      dup3\n        /* \"#utility.yul\":18246:18258   */\n      add\n        /* \"#utility.yul\":18239:18258   */\n      swap1\n      pop\n        /* \"#utility.yul\":17898:18264   */\n      swap2\n      swap1\n      pop\n      jump\t// out\n        /* \"#utility.yul\":18270:18689   */\n    tag_97:\n        /* \"#utility.yul\":18436:18440   */\n      0x00\n        /* \"#utility.yul\":18474:18476   */\n      0x20\n        /* \"#utility.yul\":18463:18472   */\n      dup3\n        /* \"#utility.yul\":18459:18477   */\n      add\n        /* \"#utility.yul\":18451:18477   */\n      swap1\n      pop\n        /* \"#utility.yul\":18523:18532   */\n      dup2\n        /* \"#utility.yul\":18517:18521   */\n      dup2\n        /* \"#utility.yul\":18513:18533   */\n      sub\n        /* \"#utility.yul\":18509:18510   */\n      0x00\n        /* \"#utility.yul\":18498:18507   */\n      dup4\n        /* \"#utility.yul\":18494:18511   */\n      add\n        /* \"#utility.yul\":18487:18534   */\n      mstore\n        /* \"#utility.yul\":18551:18682   */\n      tag_372\n        /* \"#utility.yul\":18677:18681   */\n      dup2\n        /* \"#utility.yul\":18551:18682   */\n      tag_183\n      jump\t// in\n    tag_372:\n        /* \"#utility.yul\":18543:18682   */\n      swap1\n      pop\n        /* \"#utility.yul\":18270:18689   */\n      swap2\n      swap1\n      pop\n      jump\t// out\n        /* \"#utility.yul\":18695:18928   */\n    tag_109:\n        /* \"#utility.yul\":18734:18737   */\n      0x00\n        /* \"#utility.yul\":18757:18781   */\n      tag_374\n        /* \"#utility.yul\":18775:18780   */\n      dup3\n        /* \"#utility.yul\":18757:18781   */\n      tag_141\n      jump\t// in\n    tag_374:\n        /* \"#utility.yul\":18748:18781   */\n      swap2\n      pop\n        /* \"#utility.yul\":18803:18869   */\n      0xffffffffffffffffffffffffffffffffffffffffffffffffffffffffffffffff\n        /* \"#utility.yul\":18796:18801   */\n      dup3\n        /* \"#utility.yul\":18793:18870   */\n      sub\n        /* \"#utility.yul\":18790:18893   */\n      tag_375\n      jumpi\n        /* \"#utility.yul\":18873:18891   */\n      tag_376\n      tag_181\n      jump\t// in\n    tag_376:\n        /* \"#utility.yul\":18790:18893   */\n    tag_375:\n        /* \"#utility.yul\":18920:18921   */\n      0x01\n        /* \"#utility.yul\":18913:18918   */\n      dup3\n        /* \"#utility.yul\":18909:18922   */\n      add\n        /* \"#utility.yul\":18902:18922   */\n      swap1\n      pop\n        /* \"#utility.yul\":18695:18928   */\n      swap2\n      swap1\n      pop\n      jump\t// out\n        /* \"#utility.yul\":18934:19107   */\n    tag_184:\n        /* \"#utility.yul\":19074:19099   */\n      0x547765657420697320746f6f206c6f6e672062726f3a20000000000000000000\n        /* \"#utility.yul\":19070:19071   */\n      0x00\n        /* \"#utility.yul\":19062:19068   */\n      dup3\n        /* \"#utility.yul\":19058:19072   */\n      add\n        /* \"#utility.yul\":19051:19100   */\n      mstore\n        /* \"#utility.yul\":18934:19107   */\n      pop\n      jump\t// out\n        /* \"#utility.yul\":19113:19479   */\n    tag_185:\n        /* \"#utility.yul\":19255:19258   */\n      0x00\n        /* \"#utility.yul\":19276:19343   */\n      tag_379\n        /* \"#utility.yul\":19340:19342   */\n      0x17\n        /* \"#utility.yul\":19335:19338   */\n      dup4\n        /* \"#utility.yul\":19276:19343   */\n      tag_147\n      jump\t// in\n    tag_379:\n        /* \"#utility.yul\":19269:19343   */\n      swap2\n      pop\n        /* \"#utility.yul\":19352:19445   */\n      tag_380\n        /* \"#utility.yul\":19441:19444   */\n      dup3\n        /* \"#utility.yul\":19352:19445   */\n      tag_184\n      jump\t// in\n    tag_380:\n        /* \"#utility.yul\":19470:19472   */\n      0x20\n        /* \"#utility.yul\":19465:19468   */\n      dup3\n        /* \"#utility.yul\":19461:19473   */\n      add\n        /* \"#utility.yul\":19454:19473   */\n      swap1\n      pop\n        /* \"#utility.yul\":19113:19479   */\n      swap2\n      swap1\n      pop\n      jump\t// out\n        /* \"#utility.yul\":19485:19904   */\n    tag_117:\n        /* \"#utility.yul\":19651:19655   */\n      0x00\n        /* \"#utility.yul\":19689:19691   */\n      0x20\n        /* \"#utility.yul\":19678:19687   */\n      dup3\n        /* \"#utility.yul\":19674:19692   */\n      add\n        /* \"#utility.yul\":19666:19692   */\n      swap1\n      pop\n        /* \"#utility.yul\":19738:19747   */\n      dup2\n        /* \"#utility.yul\":19732:19736   */\n      dup2\n        /* \"#utility.yul\":19728:19748   */\n      sub\n        /* \"#utility.yul\":19724:19725   */\n      0x00\n        /* \"#utility.yul\":19713:19722   */\n      dup4\n        /* \"#utility.yul\":19709:19726   */\n      add\n        /* \"#utility.yul\":19702:19749   */\n      mstore\n        /* \"#utility.yul\":19766:19897   */\n      tag_382\n        /* \"#utility.yul\":19892:19896   */\n      dup2\n        /* \"#utility.yul\":19766:19897   */\n      tag_185\n      jump\t// in\n    tag_382:\n        /* \"#utility.yul\":19758:19897   */\n      swap1\n      pop\n        /* \"#utility.yul\":19485:19904   */\n      swap2\n      swap1\n      pop\n      jump\t// out\n        /* \"#utility.yul\":19910:20051   */\n    tag_186:\n        /* \"#utility.yul\":19959:19963   */\n      0x00\n        /* \"#utility.yul\":19982:19985   */\n      dup2\n        /* \"#utility.yul\":19974:19985   */\n      swap1\n      pop\n        /* \"#utility.yul\":20005:20008   */\n      dup2\n        /* \"#utility.yul\":20002:20003   */\n      0x00\n        /* \"#utility.yul\":19995:20009   */\n      mstore\n        /* \"#utility.yul\":20039:20043   */\n      0x20\n        /* \"#utility.yul\":20036:20037   */\n      0x00\n        /* \"#utility.yul\":20026:20044   */\n      keccak256\n        /* \"#utility.yul\":20018:20044   */\n      swap1\n      pop\n        /* \"#utility.yul\":19910:20051   */\n      swap2\n      swap1\n      pop\n      jump\t// out\n        /* \"#utility.yul\":20057:20150   */\n    tag_187:\n        /* \"#utility.yul\":20094:20100   */\n      0x00\n        /* \"#utility.yul\":20141:20143   */\n      0x20\n        /* \"#utility.yul\":20136:20138   */\n      0x1f\n        /* \"#utility.yul\":20129:20134   */\n      dup4\n        /* \"#utility.yul\":20125:20139   */\n      add\n        /* \"#utility.yul\":20121:20144   */\n      div\n        /* \"#utility.yul\":20111:20144   */\n      swap1\n      pop\n        /* \"#utility.yul\":20057:20150   */\n      swap2\n      swap1\n      pop\n      jump\t// out\n        /* \"#utility.yul\":20156:20263   */\n    tag_188:\n        /* \"#utility.yul\":20200:20208   */\n      0x00\n        /* \"#utility.yul\":20250:20255   */\n      dup3\n        /* \"#utility.yul\":20244:20248   */\n      dup3\n        /* \"#utility.yul\":20240:20256   */\n      shl\n        /* \"#utility.yul\":20219:20256   */\n      swap1\n      pop\n        /* \"#utility.yul\":20156:20263   */\n      swap3\n      swap2\n      pop\n      pop\n      jump\t// out\n        /* \"#utility.yul\":20269:20662   */\n    tag_189:\n        /* \"#utility.yul\":20338:20344   */\n      0x00\n        /* \"#utility.yul\":20388:20389   */\n      0x08\n        /* \"#utility.yul\":20376:20386   */\n      dup4\n        /* \"#utility.yul\":20372:20390   */\n      mul\n        /* \"#utility.yul\":20411:20508   */\n      tag_387\n        /* \"#utility.yul\":20441:20507   */\n      0xffffffffffffffffffffffffffffffffffffffffffffffffffffffffffffffff\n        /* \"#utility.yul\":20430:20439   */\n      dup3\n        /* \"#utility.yul\":20411:20508   */\n      tag_188\n      jump\t// in\n    tag_387:\n        /* \"#utility.yul\":20529:20568   */\n      tag_388\n        /* \"#utility.yul\":20559:20567   */\n      dup7\n        /* \"#utility.yul\":20548:20557   */\n      dup4\n        /* \"#utility.yul\":20529:20568   */\n      tag_188\n      jump\t// in\n    tag_388:\n        /* \"#utility.yul\":20517:20568   */\n      swap6\n      pop\n        /* \"#utility.yul\":20601:20605   */\n      dup1\n        /* \"#utility.yul\":20597:20606   */\n      not\n        /* \"#utility.yul\":20590:20595   */\n      dup5\n        /* \"#utility.yul\":20586:20607   */\n      and\n        /* \"#utility.yul\":20577:20607   */\n      swap4\n      pop\n        /* \"#utility.yul\":20650:20654   */\n      dup1\n        /* \"#utility.yul\":20640:20648   */\n      dup7\n        /* \"#utility.yul\":20636:20655   */\n      and\n        /* \"#utility.yul\":20629:20634   */\n      dup5\n        /* \"#utility.yul\":20626:20656   */\n      or\n        /* \"#utility.yul\":20616:20656   */\n      swap3\n      pop\n        /* \"#utility.yul\":20345:20662   */\n      pop\n      pop\n        /* \"#utility.yul\":20269:20662   */\n      swap4\n      swap3\n      pop\n      pop\n      pop\n      jump\t// out\n        /* \"#utility.yul\":20668:20728   */\n    tag_190:\n        /* \"#utility.yul\":20696:20699   */\n      0x00\n        /* \"#utility.yul\":20717:20722   */\n      dup2\n        /* \"#utility.yul\":20710:20722   */\n      swap1\n      pop\n        /* \"#utility.yul\":20668:20728   */\n      swap2\n      swap1\n      pop\n      jump\t// out\n        /* \"#utility.yul\":20734:20876   */\n    tag_191:\n        /* \"#utility.yul\":20784:20793   */\n      0x00\n        /* \"#utility.yul\":20817:20870   */\n      tag_391\n        /* \"#utility.yul\":20835:20869   */\n      tag_392\n        /* \"#utility.yul\":20844:20868   */\n      tag_393\n        /* \"#utility.yul\":20862:20867   */\n      dup5\n        /* \"#utility.yul\":20844:20868   */\n      tag_141\n      jump\t// in\n    tag_393:\n        /* \"#utility.yul\":20835:20869   */\n      tag_190\n      jump\t// in\n    tag_392:\n        /* \"#utility.yul\":20817:20870   */\n      tag_141\n      jump\t// in\n    tag_391:\n        /* \"#utility.yul\":20804:20870   */\n      swap1\n      pop\n        /* \"#utility.yul\":20734:20876   */\n      swap2\n      swap1\n      pop\n      jump\t// out\n        /* \"#utility.yul\":20882:20957   */\n    tag_192:\n        /* \"#utility.yul\":20925:20928   */\n      0x00\n        /* \"#utility.yul\":20946:20951   */\n      dup2\n        /* \"#utility.yul\":20939:20951   */\n      swap1\n      pop\n        /* \"#utility.yul\":20882:20957   */\n      swap2\n      swap1\n      pop\n      jump\t// out\n        /* \"#utility.yul\":20963:21232   */\n    tag_193:\n        /* \"#utility.yul\":21073:21112   */\n      tag_396\n        /* \"#utility.yul\":21104:21111   */\n      dup4\n        /* \"#utility.yul\":21073:21112   */\n      tag_191\n      jump\t// in\n    tag_396:\n        /* \"#utility.yul\":21134:21225   */\n      tag_397\n        /* \"#utility.yul\":21183:21224   */\n      tag_398\n        /* \"#utility.yul\":21207:21223   */\n      dup3\n        /* \"#utility.yul\":21183:21224   */\n      tag_192\n      jump\t// in\n    tag_398:\n        /* \"#utility.yul\":21175:21181   */\n      dup5\n        /* \"#utility.yul\":21168:21172   */\n      dup5\n        /* \"#utility.yul\":21162:21173   */\n      sload\n        /* \"#utility.yul\":21134:21225   */\n      tag_189\n      jump\t// in\n    tag_397:\n        /* \"#utility.yul\":21128:21132   */\n      dup3\n        /* \"#utility.yul\":21121:21226   */\n      sstore\n        /* \"#utility.yul\":21039:21232   */\n      pop\n        /* \"#utility.yul\":20963:21232   */\n      pop\n      pop\n      pop\n      jump\t// out\n        /* \"#utility.yul\":21238:21311   */\n    tag_194:\n        /* \"#utility.yul\":21283:21286   */\n      0x00\n        /* \"#utility.yul\":21238:21311   */\n      swap1\n      jump\t// out\n        /* \"#utility.yul\":21317:21506   */\n    tag_195:\n        /* \"#utility.yul\":21394:21426   */\n      tag_401\n      tag_194\n      jump\t// in\n    tag_401:\n        /* \"#utility.yul\":21435:21500   */\n      tag_402\n        /* \"#utility.yul\":21493:21499   */\n      dup2\n        /* \"#utility.yul\":21485:21491   */\n      dup5\n        /* \"#utility.yul\":21479:21483   */\n      dup5\n        /* \"#utility.yul\":21435:21500   */\n      tag_193\n      jump\t// in\n    tag_402:\n        /* \"#utility.yul\":21370:21506   */\n      pop\n        /* \"#utility.yul\":21317:21506   */\n      pop\n      pop\n      jump\t// out\n        /* \"#utility.yul\":21512:21698   */\n    tag_196:\n        /* \"#utility.yul\":21572:21692   */\n    tag_404:\n        /* \"#utility.yul\":21589:21592   */\n      dup2\n        /* \"#utility.yul\":21582:21587   */\n      dup2\n        /* \"#utility.yul\":21579:21593   */\n      lt\n        /* \"#utility.yul\":21572:21692   */\n      iszero\n      tag_406\n      jumpi\n        /* \"#utility.yul\":21643:21682   */\n      tag_407\n        /* \"#utility.yul\":21680:21681   */\n      0x00\n        /* \"#utility.yul\":21673:21678   */\n      dup3\n        /* \"#utility.yul\":21643:21682   */\n      tag_195\n      jump\t// in\n    tag_407:\n        /* \"#utility.yul\":21616:21617   */\n      0x01\n        /* \"#utility.yul\":21609:21614   */\n      dup2\n        /* \"#utility.yul\":21605:21618   */\n      add\n        /* \"#utility.yul\":21596:21618   */\n      swap1\n      pop\n        /* \"#utility.yul\":21572:21692   */\n      jump(tag_404)\n    tag_406:\n        /* \"#utility.yul\":21512:21698   */\n      pop\n      pop\n      jump\t// out\n        /* \"#utility.yul\":21704:22247   */\n    tag_197:\n        /* \"#utility.yul\":21805:21807   */\n      0x1f\n        /* \"#utility.yul\":21800:21803   */\n      dup3\n        /* \"#utility.yul\":21797:21808   */\n      gt\n        /* \"#utility.yul\":21794:22240   */\n      iszero\n      tag_409\n      jumpi\n        /* \"#utility.yul\":21839:21877   */\n      tag_410\n        /* \"#utility.yul\":21871:21876   */\n      dup2\n        /* \"#utility.yul\":21839:21877   */\n      tag_186\n      jump\t// in\n    tag_410:\n        /* \"#utility.yul\":21923:21952   */\n      tag_411\n        /* \"#utility.yul\":21941:21951   */\n      dup5\n        /* \"#utility.yul\":21923:21952   */\n      tag_187\n      jump\t// in\n    tag_411:\n        /* \"#utility.yul\":21913:21921   */\n      dup2\n        /* \"#utility.yul\":21909:21953   */\n      add\n        /* \"#utility.yul\":22106:22108   */\n      0x20\n        /* \"#utility.yul\":22094:22104   */\n      dup6\n        /* \"#utility.yul\":22091:22109   */\n      lt\n        /* \"#utility.yul\":22088:22137   */\n      iszero\n      tag_412\n      jumpi\n        /* \"#utility.yul\":22127:22135   */\n      dup2\n        /* \"#utility.yul\":22112:22135   */\n      swap1\n      pop\n        /* \"#utility.yul\":22088:22137   */\n    tag_412:\n        /* \"#utility.yul\":22150:22230   */\n      tag_413\n        /* \"#utility.yul\":22206:22228   */\n      tag_414\n        /* \"#utility.yul\":22224:22227   */\n      dup6\n        /* \"#utility.yul\":22206:22228   */\n      tag_187\n      jump\t// in\n    tag_414:\n        /* \"#utility.yul\":22196:22204   */\n      dup4\n        /* \"#utility.yul\":22192:22229   */\n      add\n        /* \"#utility.yul\":22179:22190   */\n      dup3\n        /* \"#utility.yul\":22150:22230   */\n      tag_196\n      jump\t// in\n    tag_413:\n        /* \"#utility.yul\":21809:22240   */\n      pop\n      pop\n        /* \"#utility.yul\":21794:22240   */\n    tag_409:\n        /* \"#utility.yul\":21704:22247   */\n      pop\n      pop\n      pop\n      jump\t// out\n        /* \"#utility.yul\":22253:22370   */\n    tag_198:\n        /* \"#utility.yul\":22307:22315   */\n      0x00\n        /* \"#utility.yul\":22357:22362   */\n      dup3\n        /* \"#utility.yul\":22351:22355   */\n      dup3\n        /* \"#utility.yul\":22347:22363   */\n      shr\n        /* \"#utility.yul\":22326:22363   */\n      swap1\n      pop\n        /* \"#utility.yul\":22253:22370   */\n      swap3\n      swap2\n      pop\n      pop\n      jump\t// out\n        /* \"#utility.yul\":22376:22545   */\n    tag_199:\n        /* \"#utility.yul\":22420:22426   */\n      0x00\n        /* \"#utility.yul\":22453:22504   */\n      tag_417\n        /* \"#utility.yul\":22501:22502   */\n      0x00\n        /* \"#utility.yul\":22497:22503   */\n      not\n        /* \"#utility.yul\":22489:22494   */\n      dup5\n        /* \"#utility.yul\":22486:22487   */\n      0x08\n        /* \"#utility.yul\":22482:22495   */\n      mul\n        /* \"#utility.yul\":22453:22504   */\n      tag_198\n      jump\t// in\n    tag_417:\n        /* \"#utility.yul\":22449:22505   */\n      not\n        /* \"#utility.yul\":22534:22538   */\n      dup1\n        /* \"#utility.yul\":22528:22532   */\n      dup4\n        /* \"#utility.yul\":22524:22539   */\n      and\n        /* \"#utility.yul\":22514:22539   */\n      swap2\n      pop\n        /* \"#utility.yul\":22427:22545   */\n      pop\n        /* \"#utility.yul\":22376:22545   */\n      swap3\n      swap2\n      pop\n      pop\n      jump\t// out\n        /* \"#utility.yul\":22550:22845   */\n    tag_200:\n        /* \"#utility.yul\":22626:22630   */\n      0x00\n        /* \"#utility.yul\":22772:22801   */\n      tag_419\n        /* \"#utility.yul\":22797:22800   */\n      dup4\n        /* \"#utility.yul\":22791:22795   */\n      dup4\n        /* \"#utility.yul\":22772:22801   */\n      tag_199\n      jump\t// in\n    tag_419:\n        /* \"#utility.yul\":22764:22801   */\n      swap2\n      pop\n        /* \"#utility.yul\":22834:22837   */\n      dup3\n        /* \"#utility.yul\":22831:22832   */\n      0x02\n        /* \"#utility.yul\":22827:22838   */\n      mul\n        /* \"#utility.yul\":22821:22825   */\n      dup3\n        /* \"#utility.yul\":22818:22839   */\n      or\n        /* \"#utility.yul\":22810:22839   */\n      swap1\n      pop\n        /* \"#utility.yul\":22550:22845   */\n      swap3\n      swap2\n      pop\n      pop\n      jump\t// out\n        /* \"#utility.yul\":22850:24245   */\n    tag_120:\n        /* \"#utility.yul\":22967:23004   */\n      tag_421\n        /* \"#utility.yul\":23000:23003   */\n      dup3\n        /* \"#utility.yul\":22967:23004   */\n      tag_146\n      jump\t// in\n    tag_421:\n        /* \"#utility.yul\":23069:23087   */\n      0xffffffffffffffff\n        /* \"#utility.yul\":23061:23067   */\n      dup2\n        /* \"#utility.yul\":23058:23088   */\n      gt\n        /* \"#utility.yul\":23055:23111   */\n      iszero\n      tag_422\n      jumpi\n        /* \"#utility.yul\":23091:23109   */\n      tag_423\n      tag_168\n      jump\t// in\n    tag_423:\n        /* \"#utility.yul\":23055:23111   */\n    tag_422:\n        /* \"#utility.yul\":23135:23173   */\n      tag_424\n        /* \"#utility.yul\":23167:23171   */\n      dup3\n        /* \"#utility.yul\":23161:23172   */\n      sload\n        /* \"#utility.yul\":23135:23173   */\n      tag_56\n      jump\t// in\n    tag_424:\n        /* \"#utility.yul\":23220:23287   */\n      tag_425\n        /* \"#utility.yul\":23280:23286   */\n      dup3\n        /* \"#utility.yul\":23272:23278   */\n      dup3\n        /* \"#utility.yul\":23266:23270   */\n      dup6\n        /* \"#utility.yul\":23220:23287   */\n      tag_197\n      jump\t// in\n    tag_425:\n        /* \"#utility.yul\":23314:23315   */\n      0x00\n        /* \"#utility.yul\":23338:23342   */\n      0x20\n        /* \"#utility.yul\":23325:23342   */\n      swap1\n      pop\n        /* \"#utility.yul\":23370:23372   */\n      0x1f\n        /* \"#utility.yul\":23362:23368   */\n      dup4\n        /* \"#utility.yul\":23359:23373   */\n      gt\n        /* \"#utility.yul\":23387:23388   */\n      0x01\n        /* \"#utility.yul\":23382:24000   */\n      dup2\n      eq\n      tag_427\n      jumpi\n        /* \"#utility.yul\":24044:24045   */\n      0x00\n        /* \"#utility.yul\":24061:24067   */\n      dup5\n        /* \"#utility.yul\":24058:24135   */\n      iszero\n      tag_428\n      jumpi\n        /* \"#utility.yul\":24110:24119   */\n      dup3\n        /* \"#utility.yul\":24105:24108   */\n      dup8\n        /* \"#utility.yul\":24101:24120   */\n      add\n        /* \"#utility.yul\":24095:24121   */\n      mload\n        /* \"#utility.yul\":24086:24121   */\n      swap1\n      pop\n        /* \"#utility.yul\":24058:24135   */\n    tag_428:\n        /* \"#utility.yul\":24161:24228   */\n      tag_429\n        /* \"#utility.yul\":24221:24227   */\n      dup6\n        /* \"#utility.yul\":24214:24219   */\n      dup3\n        /* \"#utility.yul\":24161:24228   */\n      tag_200\n      jump\t// in\n    tag_429:\n        /* \"#utility.yul\":24155:24159   */\n      dup7\n        /* \"#utility.yul\":24148:24229   */\n      sstore\n        /* \"#utility.yul\":24017:24239   */\n      pop\n        /* \"#utility.yul\":23352:24239   */\n      jump(tag_426)\n        /* \"#utility.yul\":23382:24000   */\n    tag_427:\n        /* \"#utility.yul\":23434:23438   */\n      0x1f\n        /* \"#utility.yul\":23430:23439   */\n      not\n        /* \"#utility.yul\":23422:23428   */\n      dup5\n        /* \"#utility.yul\":23418:23440   */\n      and\n        /* \"#utility.yul\":23468:23505   */\n      tag_430\n        /* \"#utility.yul\":23500:23504   */\n      dup7\n        /* \"#utility.yul\":23468:23505   */\n      tag_186\n      jump\t// in\n    tag_430:\n        /* \"#utility.yul\":23527:23528   */\n      0x00\n        /* \"#utility.yul\":23541:23749   */\n    tag_431:\n        /* \"#utility.yul\":23555:23562   */\n      dup3\n        /* \"#utility.yul\":23552:23553   */\n      dup2\n        /* \"#utility.yul\":23549:23563   */\n      lt\n        /* \"#utility.yul\":23541:23749   */\n      iszero\n      tag_433\n      jumpi\n        /* \"#utility.yul\":23634:23643   */\n      dup5\n        /* \"#utility.yul\":23629:23632   */\n      dup10\n        /* \"#utility.yul\":23625:23644   */\n      add\n        /* \"#utility.yul\":23619:23645   */\n      mload\n        /* \"#utility.yul\":23611:23617   */\n      dup3\n        /* \"#utility.yul\":23604:23646   */\n      sstore\n        /* \"#utility.yul\":23685:23686   */\n      0x01\n        /* \"#utility.yul\":23677:23683   */\n      dup3\n        /* \"#utility.yul\":23673:23687   */\n      add\n        /* \"#utility.yul\":23663:23687   */\n      swap2\n      pop\n        /* \"#utility.yul\":23732:23734   */\n      0x20\n        /* \"#utility.yul\":23721:23730   */\n      dup6\n        /* \"#utility.yul\":23717:23735   */\n      add\n        /* \"#utility.yul\":23704:23735   */\n      swap5\n      pop\n        /* \"#utility.yul\":23578:23582   */\n      0x20\n        /* \"#utility.yul\":23575:23576   */\n      dup2\n        /* \"#utility.yul\":23571:23583   */\n      add\n        /* \"#utility.yul\":23566:23583   */\n      swap1\n      pop\n        /* \"#utility.yul\":23541:23749   */\n      jump(tag_431)\n    tag_433:\n        /* \"#utility.yul\":23777:23783   */\n      dup7\n        /* \"#utility.yul\":23768:23775   */\n      dup4\n        /* \"#utility.yul\":23765:23784   */\n      lt\n        /* \"#utility.yul\":23762:23941   */\n      iszero\n      tag_434\n      jumpi\n        /* \"#utility.yul\":23835:23844   */\n      dup5\n        /* \"#utility.yul\":23830:23833   */\n      dup10\n        /* \"#utility.yul\":23826:23845   */\n      add\n        /* \"#utility.yul\":23820:23846   */\n      mload\n        /* \"#utility.yul\":23878:23926   */\n      tag_435\n        /* \"#utility.yul\":23920:23924   */\n      0x1f\n        /* \"#utility.yul\":23912:23918   */\n      dup10\n        /* \"#utility.yul\":23908:23925   */\n      and\n        /* \"#utility.yul\":23897:23906   */\n      dup3\n        /* \"#utility.yul\":23878:23926   */\n      tag_199\n      jump\t// in\n    tag_435:\n        /* \"#utility.yul\":23870:23876   */\n      dup4\n        /* \"#utility.yul\":23863:23927   */\n      sstore\n        /* \"#utility.yul\":23785:23941   */\n      pop\n        /* \"#utility.yul\":23762:23941   */\n    tag_434:\n        /* \"#utility.yul\":23987:23988   */\n      0x01\n        /* \"#utility.yul\":23983:23984   */\n      0x02\n        /* \"#utility.yul\":23975:23981   */\n      dup9\n        /* \"#utility.yul\":23971:23985   */\n      mul\n        /* \"#utility.yul\":23967:23989   */\n      add\n        /* \"#utility.yul\":23961:23965   */\n      dup9\n        /* \"#utility.yul\":23954:23990   */\n      sstore\n        /* \"#utility.yul\":23389:24000   */\n      pop\n      pop\n      pop\n        /* \"#utility.yul\":23352:24239   */\n    tag_426:\n      pop\n        /* \"#utility.yul\":22942:24245   */\n      pop\n      pop\n      pop\n        /* \"#utility.yul\":22850:24245   */\n      pop\n      pop\n      jump\t// out\n        /* \"#utility.yul\":24251:24895   */\n    tag_122:\n        /* \"#utility.yul\":24448:24452   */\n      0x00\n        /* \"#utility.yul\":24486:24489   */\n      0x80\n        /* \"#utility.yul\":24475:24484   */\n      dup3\n        /* \"#utility.yul\":24471:24490   */\n      add\n        /* \"#utility.yul\":24463:24490   */\n      swap1\n      pop\n        /* \"#utility.yul\":24500:24571   */\n      tag_437\n        /* \"#utility.yul\":24568:24569   */\n      0x00\n        /* \"#utility.yul\":24557:24566   */\n      dup4\n        /* \"#utility.yul\":24553:24570   */\n      add\n        /* \"#utility.yul\":24544:24550   */\n      dup8\n        /* \"#utility.yul\":24500:24571   */\n      tag_144\n      jump\t// in\n    tag_437:\n        /* \"#utility.yul\":24581:24653   */\n      tag_438\n        /* \"#utility.yul\":24649:24651   */\n      0x20\n        /* \"#utility.yul\":24638:24647   */\n      dup4\n        /* \"#utility.yul\":24634:24652   */\n      add\n        /* \"#utility.yul\":24625:24631   */\n      dup7\n        /* \"#utility.yul\":24581:24653   */\n      tag_145\n      jump\t// in\n    tag_438:\n        /* \"#utility.yul\":24700:24709   */\n      dup2\n        /* \"#utility.yul\":24694:24698   */\n      dup2\n        /* \"#utility.yul\":24690:24710   */\n      sub\n        /* \"#utility.yul\":24685:24687   */\n      0x40\n        /* \"#utility.yul\":24674:24683   */\n      dup4\n        /* \"#utility.yul\":24670:24688   */\n      add\n        /* \"#utility.yul\":24663:24711   */\n      mstore\n        /* \"#utility.yul\":24728:24806   */\n      tag_439\n        /* \"#utility.yul\":24801:24805   */\n      dup2\n        /* \"#utility.yul\":24792:24798   */\n      dup6\n        /* \"#utility.yul\":24728:24806   */\n      tag_150\n      jump\t// in\n    tag_439:\n        /* \"#utility.yul\":24720:24806   */\n      swap1\n      pop\n        /* \"#utility.yul\":24816:24888   */\n      tag_440\n        /* \"#utility.yul\":24884:24886   */\n      0x60\n        /* \"#utility.yul\":24873:24882   */\n      dup4\n        /* \"#utility.yul\":24869:24887   */\n      add\n        /* \"#utility.yul\":24860:24866   */\n      dup5\n        /* \"#utility.yul\":24816:24888   */\n      tag_144\n      jump\t// in\n    tag_440:\n        /* \"#utility.yul\":24251:24895   */\n      swap6\n      swap5\n      pop\n      pop\n      pop\n      pop\n      pop\n      jump\t// out\n\n    auxdata: 0xa2646970667358221220766391e12f08d272fa44bef9e26cac32c41a757167c5801ad8430505daaa3a9e64736f6c634300081a0033\n}\n",
				"bytecode": {
					"linkReferences": {},
					"object": "60806040526101185f806101000a81548161ffff021916908361ffff160217905550348015602b575f80fd5b503360025f6101000a81548173ffffffffffffffffffffffffffffffffffffffff021916908373ffffffffffffffffffffffffffffffffffffffff16021790555061196a806100795f395ff3fe608060405234801561000f575f80fd5b5060043610610091575f3560e01c8063633782161161006457806363378216146101315780636eb107971461014d5780637c9cd2bc1461016b5780638da5cb5b14610187578063c3ad5ecb146101a557610091565b806305a1b4a91461009557806312e7ee1c146100c95780633d9b569f146100f957806358bfa4ab14610115575b5f80fd5b6100af60048036038101906100aa9190610d9f565b6101d5565b6040516100c0959493929190610e6b565b60405180910390f35b6100e360048036038101906100de9190610ec3565b6102c6565b6040516100f09190611082565b60405180910390f35b610113600480360381019061010e9190610d9f565b610461565b005b61012f600480360381019061012a91906110d9565b6106b2565b005b61014b60048036038101906101469190610d9f565b61075f565b005b610155610910565b6040516101629190611113565b60405180910390f35b61018560048036038101906101809190611258565b610921565b005b61018f610b24565b60405161019c919061129f565b60405180910390f35b6101bf60048036038101906101ba91906112b8565b610b49565b6040516101cc9190611356565b60405180910390f35b6001602052815f5260405f2081815481106101ee575f80fd5b905f5260205f2090600502015f9150915050805f015490806001015f9054906101000a900473ffffffffffffffffffffffffffffffffffffffff1690806002018054610239906113a3565b80601f0160208091040260200160405190810160405280929190818152602001828054610265906113a3565b80156102b05780601f10610287576101008083540402835291602001916102b0565b820191905f5260205f20905b81548152906001019060200180831161029357829003601f168201915b5050505050908060030154908060040154905085565b606060015f8373ffffffffffffffffffffffffffffffffffffffff1673ffffffffffffffffffffffffffffffffffffffff1681526020019081526020015f20805480602002602001604051908101604052809291908181526020015f905b82821015610456578382905f5260205f2090600502016040518060a00160405290815f8201548152602001600182015f9054906101000a900473ffffffffffffffffffffffffffffffffffffffff1673ffffffffffffffffffffffffffffffffffffffff1673ffffffffffffffffffffffffffffffffffffffff1681526020016002820180546103b3906113a3565b80601f01602080910402602001604051908101604052809291908181526020018280546103df906113a3565b801561042a5780601f106104015761010080835404028352916020019161042a565b820191905f5260205f20905b81548152906001019060200180831161040d57829003601f168201915b505050505081526020016003820154815260200160048201548152505081526020019060010190610324565b505050509050919050565b8060015f8473ffffffffffffffffffffffffffffffffffffffff1673ffffffffffffffffffffffffffffffffffffffff1681526020019081526020015f2082815481106104b1576104b06113d3565b5b905f5260205f2090600502015f015414610500576040517f08c379a00000000000000000000000000000000000000000000000000000000081526004016104f79061144a565b60405180910390fd5b5f60015f8473ffffffffffffffffffffffffffffffffffffffff1673ffffffffffffffffffffffffffffffffffffffff1681526020019081526020015f2082815481106105505761054f6113d3565b5b905f5260205f20906005020160040154116105a0576040517f08c379a0000000000000000000000000000000000000000000000000000000008152600401610597906114b2565b60405180910390fd5b60015f8373ffffffffffffffffffffffffffffffffffffffff1673ffffffffffffffffffffffffffffffffffffffff1681526020019081526020015f2081815481106105ef576105ee6113d3565b5b905f5260205f2090600502016004015f81548092919061060e906114fd565b91905055507f762c2616349603ac16eba0de8e6141b79129a07ab63bd99e0a80b3a47171694333838360015f8773ffffffffffffffffffffffffffffffffffffffff1673ffffffffffffffffffffffffffffffffffffffff1681526020019081526020015f208581548110610686576106856113d3565b5b905f5260205f209060050201600401546040516106a69493929190611524565b60405180910390a15050565b60025f9054906101000a900473ffffffffffffffffffffffffffffffffffffffff1673ffffffffffffffffffffffffffffffffffffffff163373ffffffffffffffffffffffffffffffffffffffff1614610741576040517f08c379a0000000000000000000000000000000000000000000000000000000008152600401610738906115b1565b60405180910390fd5b805f806101000a81548161ffff021916908361ffff16021790555050565b8060015f8473ffffffffffffffffffffffffffffffffffffffff1673ffffffffffffffffffffffffffffffffffffffff1681526020019081526020015f2082815481106107af576107ae6113d3565b5b905f5260205f2090600502015f0154146107fe576040517f08c379a00000000000000000000000000000000000000000000000000000000081526004016107f59061144a565b60405180910390fd5b60015f8373ffffffffffffffffffffffffffffffffffffffff1673ffffffffffffffffffffffffffffffffffffffff1681526020019081526020015f20818154811061084d5761084c6113d3565b5b905f5260205f2090600502016004015f81548092919061086c906115cf565b91905055507fe8a76fc0f16d11a00d1e93b689b63d76cf60af914dd3d915375dc41d01a0c3c833838360015f8773ffffffffffffffffffffffffffffffffffffffff1673ffffffffffffffffffffffffffffffffffffffff1681526020019081526020015f2085815481106108e4576108e36113d3565b5b905f5260205f209060050201600401546040516109049493929190611524565b60405180910390a15050565b5f8054906101000a900461ffff1681565b5f8054906101000a900461ffff1661ffff1681511115610976576040517f08c379a000000000000000000000000000000000000000000000000000000000815260040161096d90611660565b60405180910390fd5b5f6040518060a0016040528060015f3373ffffffffffffffffffffffffffffffffffffffff1673ffffffffffffffffffffffffffffffffffffffff1681526020019081526020015f208054905081526020013373ffffffffffffffffffffffffffffffffffffffff1681526020018381526020014281526020015f815250905060015f3373ffffffffffffffffffffffffffffffffffffffff1673ffffffffffffffffffffffffffffffffffffffff1681526020019081526020015f2081908060018154018082558091505060019003905f5260205f2090600502015f909190919091505f820151815f01556020820151816001015f6101000a81548173ffffffffffffffffffffffffffffffffffffffff021916908373ffffffffffffffffffffffffffffffffffffffff1602179055506040820151816002019081610abd919061181b565b50606082015181600301556080820151816004015550507f16fd3c13e9d46923e0a8bce11c7b473ec508a72e6c96cd2404b29ce972afc29e815f0151826020015183604001518460600151604051610b1894939291906118ea565b60405180910390a15050565b60025f9054906101000a900473ffffffffffffffffffffffffffffffffffffffff1681565b610b51610cc0565b60015f3373ffffffffffffffffffffffffffffffffffffffff1673ffffffffffffffffffffffffffffffffffffffff1681526020019081526020015f208281548110610ba057610b9f6113d3565b5b905f5260205f2090600502016040518060a00160405290815f8201548152602001600182015f9054906101000a900473ffffffffffffffffffffffffffffffffffffffff1673ffffffffffffffffffffffffffffffffffffffff1673ffffffffffffffffffffffffffffffffffffffff168152602001600282018054610c25906113a3565b80601f0160208091040260200160405190810160405280929190818152602001828054610c51906113a3565b8015610c9c5780601f10610c7357610100808354040283529160200191610c9c565b820191905f5260205f20905b815481529060010190602001808311610c7f57829003601f168201915b50505050508152602001600382015481526020016004820154815250509050919050565b6040518060a001604052805f81526020015f73ffffffffffffffffffffffffffffffffffffffff168152602001606081526020015f81526020015f81525090565b5f604051905090565b5f80fd5b5f80fd5b5f73ffffffffffffffffffffffffffffffffffffffff82169050919050565b5f610d3b82610d12565b9050919050565b610d4b81610d31565b8114610d55575f80fd5b50565b5f81359050610d6681610d42565b92915050565b5f819050919050565b610d7e81610d6c565b8114610d88575f80fd5b50565b5f81359050610d9981610d75565b92915050565b5f8060408385031215610db557610db4610d0a565b5b5f610dc285828601610d58565b9250506020610dd385828601610d8b565b9150509250929050565b610de681610d6c565b82525050565b610df581610d31565b82525050565b5f81519050919050565b5f82825260208201905092915050565b8281835e5f83830152505050565b5f601f19601f8301169050919050565b5f610e3d82610dfb565b610e478185610e05565b9350610e57818560208601610e15565b610e6081610e23565b840191505092915050565b5f60a082019050610e7e5f830188610ddd565b610e8b6020830187610dec565b8181036040830152610e9d8186610e33565b9050610eac6060830185610ddd565b610eb96080830184610ddd565b9695505050505050565b5f60208284031215610ed857610ed7610d0a565b5b5f610ee584828501610d58565b91505092915050565b5f81519050919050565b5f82825260208201905092915050565b5f819050602082019050919050565b610f2081610d6c565b82525050565b610f2f81610d31565b82525050565b5f82825260208201905092915050565b5f610f4f82610dfb565b610f598185610f35565b9350610f69818560208601610e15565b610f7281610e23565b840191505092915050565b5f60a083015f830151610f925f860182610f17565b506020830151610fa56020860182610f26565b5060408301518482036040860152610fbd8282610f45565b9150506060830151610fd26060860182610f17565b506080830151610fe56080860182610f17565b508091505092915050565b5f610ffb8383610f7d565b905092915050565b5f602082019050919050565b5f61101982610eee565b6110238185610ef8565b93508360208202850161103585610f08565b805f5b8581101561107057848403895281516110518582610ff0565b945061105c83611003565b925060208a01995050600181019050611038565b50829750879550505050505092915050565b5f6020820190508181035f83015261109a818461100f565b905092915050565b5f61ffff82169050919050565b6110b8816110a2565b81146110c2575f80fd5b50565b5f813590506110d3816110af565b92915050565b5f602082840312156110ee576110ed610d0a565b5b5f6110fb848285016110c5565b91505092915050565b61110d816110a2565b82525050565b5f6020820190506111265f830184611104565b92915050565b5f80fd5b5f80fd5b7f4e487b71000000000000000000000000000000000000000000000000000000005f52604160045260245ffd5b61116a82610e23565b810181811067ffffffffffffffff8211171561118957611188611134565b5b80604052505050565b5f61119b610d01565b90506111a78282611161565b919050565b5f67ffffffffffffffff8211156111c6576111c5611134565b5b6111cf82610e23565b9050602081019050919050565b828183375f83830152505050565b5f6111fc6111f7846111ac565b611192565b90508281526020810184848401111561121857611217611130565b5b6112238482856111dc565b509392505050565b5f82601f83011261123f5761123e61112c565b5b813561124f8482602086016111ea565b91505092915050565b5f6020828403121561126d5761126c610d0a565b5b5f82013567ffffffffffffffff81111561128a57611289610d0e565b5b6112968482850161122b565b91505092915050565b5f6020820190506112b25f830184610dec565b92915050565b5f602082840312156112cd576112cc610d0a565b5b5f6112da84828501610d8b565b91505092915050565b5f60a083015f8301516112f85f860182610f17565b50602083015161130b6020860182610f26565b50604083015184820360408601526113238282610f45565b91505060608301516113386060860182610f17565b50608083015161134b6080860182610f17565b508091505092915050565b5f6020820190508181035f83015261136e81846112e3565b905092915050565b7f4e487b71000000000000000000000000000000000000000000000000000000005f52602260045260245ffd5b5f60028204905060018216806113ba57607f821691505b6020821081036113cd576113cc611376565b5b50919050565b7f4e487b71000000000000000000000000000000000000000000000000000000005f52603260045260245ffd5b7f547765657420446f6573204e6f742045786973740000000000000000000000005f82015250565b5f611434601483610e05565b915061143f82611400565b602082019050919050565b5f6020820190508181035f83015261146181611428565b9050919050565b7f54776565747320686173206e6f206c696b6573000000000000000000000000005f82015250565b5f61149c601383610e05565b91506114a782611468565b602082019050919050565b5f6020820190508181035f8301526114c981611490565b9050919050565b7f4e487b71000000000000000000000000000000000000000000000000000000005f52601160045260245ffd5b5f61150782610d6c565b91505f8203611519576115186114d0565b5b600182039050919050565b5f6080820190506115375f830187610dec565b6115446020830186610dec565b6115516040830185610ddd565b61155e6060830184610ddd565b95945050505050565b7f594f5520415245204e4f5420544845204f574e455200000000000000000000005f82015250565b5f61159b601583610e05565b91506115a682611567565b602082019050919050565b5f6020820190508181035f8301526115c88161158f565b9050919050565b5f6115d982610d6c565b91507fffffffffffffffffffffffffffffffffffffffffffffffffffffffffffffffff820361160b5761160a6114d0565b5b600182019050919050565b7f547765657420697320746f6f206c6f6e672062726f3a200000000000000000005f82015250565b5f61164a601783610e05565b915061165582611616565b602082019050919050565b5f6020820190508181035f8301526116778161163e565b9050919050565b5f819050815f5260205f209050919050565b5f6020601f8301049050919050565b5f82821b905092915050565b5f600883026116da7fffffffffffffffffffffffffffffffffffffffffffffffffffffffffffffffff8261169f565b6116e4868361169f565b95508019841693508086168417925050509392505050565b5f819050919050565b5f61171f61171a61171584610d6c565b6116fc565b610d6c565b9050919050565b5f819050919050565b61173883611705565b61174c61174482611726565b8484546116ab565b825550505050565b5f90565b611760611754565b61176b81848461172f565b505050565b5b8181101561178e576117835f82611758565b600181019050611771565b5050565b601f8211156117d3576117a48161167e565b6117ad84611690565b810160208510156117bc578190505b6117d06117c885611690565b830182611770565b50505b505050565b5f82821c905092915050565b5f6117f35f19846008026117d8565b1980831691505092915050565b5f61180b83836117e4565b9150826002028217905092915050565b61182482610dfb565b67ffffffffffffffff81111561183d5761183c611134565b5b61184782546113a3565b611852828285611792565b5f60209050601f831160018114611883575f8415611871578287015190505b61187b8582611800565b8655506118e2565b601f1984166118918661167e565b5f5b828110156118b857848901518255600182019150602085019450602081019050611893565b868310156118d557848901516118d1601f8916826117e4565b8355505b6001600288020188555050505b505050505050565b5f6080820190506118fd5f830187610ddd565b61190a6020830186610dec565b818103604083015261191c8185610e33565b905061192b6060830184610ddd565b9594505050505056fea2646970667358221220766391e12f08d272fa44bef9e26cac32c41a757167c5801ad8430505daaa3a9e64736f6c634300081a0033",
					"opcodes": "PUSH1 0x80 PUSH1 0x40 MSTORE PUSH2 0x118 PUSH0 DUP1 PUSH2 0x100 EXP DUP2 SLOAD DUP2 PUSH2 0xFFFF MUL NOT AND SWAP1 DUP4 PUSH2 0xFFFF AND MUL OR SWAP1 SSTORE POP CALLVALUE DUP1 ISZERO PUSH1 0x2B JUMPI PUSH0 DUP1 REVERT JUMPDEST POP CALLER PUSH1 0x2 PUSH0 PUSH2 0x100 EXP DUP2 SLOAD DUP2 PUSH20 0xFFFFFFFFFFFFFFFFFFFFFFFFFFFFFFFFFFFFFFFF MUL NOT AND SWAP1 DUP4 PUSH20 0xFFFFFFFFFFFFFFFFFFFFFFFFFFFFFFFFFFFFFFFF AND MUL OR SWAP1 SSTORE POP PUSH2 0x196A DUP1 PUSH2 0x79 PUSH0 CODECOPY PUSH0 RETURN INVALID PUSH1 0x80 PUSH1 0x40 MSTORE CALLVALUE DUP1 ISZERO PUSH2 0xF JUMPI PUSH0 DUP1 REVERT JUMPDEST POP PUSH1 0x4 CALLDATASIZE LT PUSH2 0x91 JUMPI PUSH0 CALLDATALOAD PUSH1 0xE0 SHR DUP1 PUSH4 0x63378216 GT PUSH2 0x64 JUMPI DUP1 PUSH4 0x63378216 EQ PUSH2 0x131 JUMPI DUP1 PUSH4 0x6EB10797 EQ PUSH2 0x14D JUMPI DUP1 PUSH4 0x7C9CD2BC EQ PUSH2 0x16B JUMPI DUP1 PUSH4 0x8DA5CB5B EQ PUSH2 0x187 JUMPI DUP1 PUSH4 0xC3AD5ECB EQ PUSH2 0x1A5 JUMPI PUSH2 0x91 JUMP JUMPDEST DUP1 PUSH4 0x5A1B4A9 EQ PUSH2 0x95 JUMPI DUP1 PUSH4 0x12E7EE1C EQ PUSH2 0xC9 JUMPI DUP1 PUSH4 0x3D9B569F EQ PUSH2 0xF9 JUMPI DUP1 PUSH4 0x58BFA4AB EQ PUSH2 0x115 JUMPI JUMPDEST PUSH0 DUP1 REVERT JUMPDEST PUSH2 0xAF PUSH1 0x4 DUP1 CALLDATASIZE SUB DUP2 ADD SWAP1 PUSH2 0xAA SWAP2 SWAP1 PUSH2 0xD9F JUMP JUMPDEST PUSH2 0x1D5 JUMP JUMPDEST PUSH1 0x40 MLOAD PUSH2 0xC0 SWAP6 SWAP5 SWAP4 SWAP3 SWAP2 SWAP1 PUSH2 0xE6B JUMP JUMPDEST PUSH1 0x40 MLOAD DUP1 SWAP2 SUB SWAP1 RETURN JUMPDEST PUSH2 0xE3 PUSH1 0x4 DUP1 CALLDATASIZE SUB DUP2 ADD SWAP1 PUSH2 0xDE SWAP2 SWAP1 PUSH2 0xEC3 JUMP JUMPDEST PUSH2 0x2C6 JUMP JUMPDEST PUSH1 0x40 MLOAD PUSH2 0xF0 SWAP2 SWAP1 PUSH2 0x1082 JUMP JUMPDEST PUSH1 0x40 MLOAD DUP1 SWAP2 SUB SWAP1 RETURN JUMPDEST PUSH2 0x113 PUSH1 0x4 DUP1 CALLDATASIZE SUB DUP2 ADD SWAP1 PUSH2 0x10E SWAP2 SWAP1 PUSH2 0xD9F JUMP JUMPDEST PUSH2 0x461 JUMP JUMPDEST STOP JUMPDEST PUSH2 0x12F PUSH1 0x4 DUP1 CALLDATASIZE SUB DUP2 ADD SWAP1 PUSH2 0x12A SWAP2 SWAP1 PUSH2 0x10D9 JUMP JUMPDEST PUSH2 0x6B2 JUMP JUMPDEST STOP JUMPDEST PUSH2 0x14B PUSH1 0x4 DUP1 CALLDATASIZE SUB DUP2 ADD SWAP1 PUSH2 0x146 SWAP2 SWAP1 PUSH2 0xD9F JUMP JUMPDEST PUSH2 0x75F JUMP JUMPDEST STOP JUMPDEST PUSH2 0x155 PUSH2 0x910 JUMP JUMPDEST PUSH1 0x40 MLOAD PUSH2 0x162 SWAP2 SWAP1 PUSH2 0x1113 JUMP JUMPDEST PUSH1 0x40 MLOAD DUP1 SWAP2 SUB SWAP1 RETURN JUMPDEST PUSH2 0x185 PUSH1 0x4 DUP1 CALLDATASIZE SUB DUP2 ADD SWAP1 PUSH2 0x180 SWAP2 SWAP1 PUSH2 0x1258 JUMP JUMPDEST PUSH2 0x921 JUMP JUMPDEST STOP JUMPDEST PUSH2 0x18F PUSH2 0xB24 JUMP JUMPDEST PUSH1 0x40 MLOAD PUSH2 0x19C SWAP2 SWAP1 PUSH2 0x129F JUMP JUMPDEST PUSH1 0x40 MLOAD DUP1 SWAP2 SUB SWAP1 RETURN JUMPDEST PUSH2 0x1BF PUSH1 0x4 DUP1 CALLDATASIZE SUB DUP2 ADD SWAP1 PUSH2 0x1BA SWAP2 SWAP1 PUSH2 0x12B8 JUMP JUMPDEST PUSH2 0xB49 JUMP JUMPDEST PUSH1 0x40 MLOAD PUSH2 0x1CC SWAP2 SWAP1 PUSH2 0x1356 JUMP JUMPDEST PUSH1 0x40 MLOAD DUP1 SWAP2 SUB SWAP1 RETURN JUMPDEST PUSH1 0x1 PUSH1 0x20 MSTORE DUP2 PUSH0 MSTORE PUSH1 0x40 PUSH0 KECCAK256 DUP2 DUP2 SLOAD DUP2 LT PUSH2 0x1EE JUMPI PUSH0 DUP1 REVERT JUMPDEST SWAP1 PUSH0 MSTORE PUSH1 0x20 PUSH0 KECCAK256 SWAP1 PUSH1 0x5 MUL ADD PUSH0 SWAP2 POP SWAP2 POP POP DUP1 PUSH0 ADD SLOAD SWAP1 DUP1 PUSH1 0x1 ADD PUSH0 SWAP1 SLOAD SWAP1 PUSH2 0x100 EXP SWAP1 DIV PUSH20 0xFFFFFFFFFFFFFFFFFFFFFFFFFFFFFFFFFFFFFFFF AND SWAP1 DUP1 PUSH1 0x2 ADD DUP1 SLOAD PUSH2 0x239 SWAP1 PUSH2 0x13A3 JUMP JUMPDEST DUP1 PUSH1 0x1F ADD PUSH1 0x20 DUP1 SWAP2 DIV MUL PUSH1 0x20 ADD PUSH1 0x40 MLOAD SWAP1 DUP2 ADD PUSH1 0x40 MSTORE DUP1 SWAP3 SWAP2 SWAP1 DUP2 DUP2 MSTORE PUSH1 0x20 ADD DUP3 DUP1 SLOAD PUSH2 0x265 SWAP1 PUSH2 0x13A3 JUMP JUMPDEST DUP1 ISZERO PUSH2 0x2B0 JUMPI DUP1 PUSH1 0x1F LT PUSH2 0x287 JUMPI PUSH2 0x100 DUP1 DUP4 SLOAD DIV MUL DUP4 MSTORE SWAP2 PUSH1 0x20 ADD SWAP2 PUSH2 0x2B0 JUMP JUMPDEST DUP3 ADD SWAP2 SWAP1 PUSH0 MSTORE PUSH1 0x20 PUSH0 KECCAK256 SWAP1 JUMPDEST DUP2 SLOAD DUP2 MSTORE SWAP1 PUSH1 0x1 ADD SWAP1 PUSH1 0x20 ADD DUP1 DUP4 GT PUSH2 0x293 JUMPI DUP3 SWAP1 SUB PUSH1 0x1F AND DUP3 ADD SWAP2 JUMPDEST POP POP POP POP POP SWAP1 DUP1 PUSH1 0x3 ADD SLOAD SWAP1 DUP1 PUSH1 0x4 ADD SLOAD SWAP1 POP DUP6 JUMP JUMPDEST PUSH1 0x60 PUSH1 0x1 PUSH0 DUP4 PUSH20 0xFFFFFFFFFFFFFFFFFFFFFFFFFFFFFFFFFFFFFFFF AND PUSH20 0xFFFFFFFFFFFFFFFFFFFFFFFFFFFFFFFFFFFFFFFF AND DUP2 MSTORE PUSH1 0x20 ADD SWAP1 DUP2 MSTORE PUSH1 0x20 ADD PUSH0 KECCAK256 DUP1 SLOAD DUP1 PUSH1 0x20 MUL PUSH1 0x20 ADD PUSH1 0x40 MLOAD SWAP1 DUP2 ADD PUSH1 0x40 MSTORE DUP1 SWAP3 SWAP2 SWAP1 DUP2 DUP2 MSTORE PUSH1 0x20 ADD PUSH0 SWAP1 JUMPDEST DUP3 DUP3 LT ISZERO PUSH2 0x456 JUMPI DUP4 DUP3 SWAP1 PUSH0 MSTORE PUSH1 0x20 PUSH0 KECCAK256 SWAP1 PUSH1 0x5 MUL ADD PUSH1 0x40 MLOAD DUP1 PUSH1 0xA0 ADD PUSH1 0x40 MSTORE SWAP1 DUP2 PUSH0 DUP3 ADD SLOAD DUP2 MSTORE PUSH1 0x20 ADD PUSH1 0x1 DUP3 ADD PUSH0 SWAP1 SLOAD SWAP1 PUSH2 0x100 EXP SWAP1 DIV PUSH20 0xFFFFFFFFFFFFFFFFFFFFFFFFFFFFFFFFFFFFFFFF AND PUSH20 0xFFFFFFFFFFFFFFFFFFFFFFFFFFFFFFFFFFFFFFFF AND PUSH20 0xFFFFFFFFFFFFFFFFFFFFFFFFFFFFFFFFFFFFFFFF AND DUP2 MSTORE PUSH1 0x20 ADD PUSH1 0x2 DUP3 ADD DUP1 SLOAD PUSH2 0x3B3 SWAP1 PUSH2 0x13A3 JUMP JUMPDEST DUP1 PUSH1 0x1F ADD PUSH1 0x20 DUP1 SWAP2 DIV MUL PUSH1 0x20 ADD PUSH1 0x40 MLOAD SWAP1 DUP2 ADD PUSH1 0x40 MSTORE DUP1 SWAP3 SWAP2 SWAP1 DUP2 DUP2 MSTORE PUSH1 0x20 ADD DUP3 DUP1 SLOAD PUSH2 0x3DF SWAP1 PUSH2 0x13A3 JUMP JUMPDEST DUP1 ISZERO PUSH2 0x42A JUMPI DUP1 PUSH1 0x1F LT PUSH2 0x401 JUMPI PUSH2 0x100 DUP1 DUP4 SLOAD DIV MUL DUP4 MSTORE SWAP2 PUSH1 0x20 ADD SWAP2 PUSH2 0x42A JUMP JUMPDEST DUP3 ADD SWAP2 SWAP1 PUSH0 MSTORE PUSH1 0x20 PUSH0 KECCAK256 SWAP1 JUMPDEST DUP2 SLOAD DUP2 MSTORE SWAP1 PUSH1 0x1 ADD SWAP1 PUSH1 0x20 ADD DUP1 DUP4 GT PUSH2 0x40D JUMPI DUP3 SWAP1 SUB PUSH1 0x1F AND DUP3 ADD SWAP2 JUMPDEST POP POP POP POP POP DUP2 MSTORE PUSH1 0x20 ADD PUSH1 0x3 DUP3 ADD SLOAD DUP2 MSTORE PUSH1 0x20 ADD PUSH1 0x4 DUP3 ADD SLOAD DUP2 MSTORE POP POP DUP2 MSTORE PUSH1 0x20 ADD SWAP1 PUSH1 0x1 ADD SWAP1 PUSH2 0x324 JUMP JUMPDEST POP POP POP POP SWAP1 POP SWAP2 SWAP1 POP JUMP JUMPDEST DUP1 PUSH1 0x1 PUSH0 DUP5 PUSH20 0xFFFFFFFFFFFFFFFFFFFFFFFFFFFFFFFFFFFFFFFF AND PUSH20 0xFFFFFFFFFFFFFFFFFFFFFFFFFFFFFFFFFFFFFFFF AND DUP2 MSTORE PUSH1 0x20 ADD SWAP1 DUP2 MSTORE PUSH1 0x20 ADD PUSH0 KECCAK256 DUP3 DUP2 SLOAD DUP2 LT PUSH2 0x4B1 JUMPI PUSH2 0x4B0 PUSH2 0x13D3 JUMP JUMPDEST JUMPDEST SWAP1 PUSH0 MSTORE PUSH1 0x20 PUSH0 KECCAK256 SWAP1 PUSH1 0x5 MUL ADD PUSH0 ADD SLOAD EQ PUSH2 0x500 JUMPI PUSH1 0x40 MLOAD PUSH32 0x8C379A000000000000000000000000000000000000000000000000000000000 DUP2 MSTORE PUSH1 0x4 ADD PUSH2 0x4F7 SWAP1 PUSH2 0x144A JUMP JUMPDEST PUSH1 0x40 MLOAD DUP1 SWAP2 SUB SWAP1 REVERT JUMPDEST PUSH0 PUSH1 0x1 PUSH0 DUP5 PUSH20 0xFFFFFFFFFFFFFFFFFFFFFFFFFFFFFFFFFFFFFFFF AND PUSH20 0xFFFFFFFFFFFFFFFFFFFFFFFFFFFFFFFFFFFFFFFF AND DUP2 MSTORE PUSH1 0x20 ADD SWAP1 DUP2 MSTORE PUSH1 0x20 ADD PUSH0 KECCAK256 DUP3 DUP2 SLOAD DUP2 LT PUSH2 0x550 JUMPI PUSH2 0x54F PUSH2 0x13D3 JUMP JUMPDEST JUMPDEST SWAP1 PUSH0 MSTORE PUSH1 0x20 PUSH0 KECCAK256 SWAP1 PUSH1 0x5 MUL ADD PUSH1 0x4 ADD SLOAD GT PUSH2 0x5A0 JUMPI PUSH1 0x40 MLOAD PUSH32 0x8C379A000000000000000000000000000000000000000000000000000000000 DUP2 MSTORE PUSH1 0x4 ADD PUSH2 0x597 SWAP1 PUSH2 0x14B2 JUMP JUMPDEST PUSH1 0x40 MLOAD DUP1 SWAP2 SUB SWAP1 REVERT JUMPDEST PUSH1 0x1 PUSH0 DUP4 PUSH20 0xFFFFFFFFFFFFFFFFFFFFFFFFFFFFFFFFFFFFFFFF AND PUSH20 0xFFFFFFFFFFFFFFFFFFFFFFFFFFFFFFFFFFFFFFFF AND DUP2 MSTORE PUSH1 0x20 ADD SWAP1 DUP2 MSTORE PUSH1 0x20 ADD PUSH0 KECCAK256 DUP2 DUP2 SLOAD DUP2 LT PUSH2 0x5EF JUMPI PUSH2 0x5EE PUSH2 0x13D3 JUMP JUMPDEST JUMPDEST SWAP1 PUSH0 MSTORE PUSH1 0x20 PUSH0 KECCAK256 SWAP1 PUSH1 0x5 MUL ADD PUSH1 0x4 ADD PUSH0 DUP2 SLOAD DUP1 SWAP3 SWAP2 SWAP1 PUSH2 0x60E SWAP1 PUSH2 0x14FD JUMP JUMPDEST SWAP2 SWAP1 POP SSTORE POP PUSH32 0x762C2616349603AC16EBA0DE8E6141B79129A07AB63BD99E0A80B3A471716943 CALLER DUP4 DUP4 PUSH1 0x1 PUSH0 DUP8 PUSH20 0xFFFFFFFFFFFFFFFFFFFFFFFFFFFFFFFFFFFFFFFF AND PUSH20 0xFFFFFFFFFFFFFFFFFFFFFFFFFFFFFFFFFFFFFFFF AND DUP2 MSTORE PUSH1 0x20 ADD SWAP1 DUP2 MSTORE PUSH1 0x20 ADD PUSH0 KECCAK256 DUP6 DUP2 SLOAD DUP2 LT PUSH2 0x686 JUMPI PUSH2 0x685 PUSH2 0x13D3 JUMP JUMPDEST JUMPDEST SWAP1 PUSH0 MSTORE PUSH1 0x20 PUSH0 KECCAK256 SWAP1 PUSH1 0x5 MUL ADD PUSH1 0x4 ADD SLOAD PUSH1 0x40 MLOAD PUSH2 0x6A6 SWAP5 SWAP4 SWAP3 SWAP2 SWAP1 PUSH2 0x1524 JUMP JUMPDEST PUSH1 0x40 MLOAD DUP1 SWAP2 SUB SWAP1 LOG1 POP POP JUMP JUMPDEST PUSH1 0x2 PUSH0 SWAP1 SLOAD SWAP1 PUSH2 0x100 EXP SWAP1 DIV PUSH20 0xFFFFFFFFFFFFFFFFFFFFFFFFFFFFFFFFFFFFFFFF AND PUSH20 0xFFFFFFFFFFFFFFFFFFFFFFFFFFFFFFFFFFFFFFFF AND CALLER PUSH20 0xFFFFFFFFFFFFFFFFFFFFFFFFFFFFFFFFFFFFFFFF AND EQ PUSH2 0x741 JUMPI PUSH1 0x40 MLOAD PUSH32 0x8C379A000000000000000000000000000000000000000000000000000000000 DUP2 MSTORE PUSH1 0x4 ADD PUSH2 0x738 SWAP1 PUSH2 0x15B1 JUMP JUMPDEST PUSH1 0x40 MLOAD DUP1 SWAP2 SUB SWAP1 REVERT JUMPDEST DUP1 PUSH0 DUP1 PUSH2 0x100 EXP DUP2 SLOAD DUP2 PUSH2 0xFFFF MUL NOT AND SWAP1 DUP4 PUSH2 0xFFFF AND MUL OR SWAP1 SSTORE POP POP JUMP JUMPDEST DUP1 PUSH1 0x1 PUSH0 DUP5 PUSH20 0xFFFFFFFFFFFFFFFFFFFFFFFFFFFFFFFFFFFFFFFF AND PUSH20 0xFFFFFFFFFFFFFFFFFFFFFFFFFFFFFFFFFFFFFFFF AND DUP2 MSTORE PUSH1 0x20 ADD SWAP1 DUP2 MSTORE PUSH1 0x20 ADD PUSH0 KECCAK256 DUP3 DUP2 SLOAD DUP2 LT PUSH2 0x7AF JUMPI PUSH2 0x7AE PUSH2 0x13D3 JUMP JUMPDEST JUMPDEST SWAP1 PUSH0 MSTORE PUSH1 0x20 PUSH0 KECCAK256 SWAP1 PUSH1 0x5 MUL ADD PUSH0 ADD SLOAD EQ PUSH2 0x7FE JUMPI PUSH1 0x40 MLOAD PUSH32 0x8C379A000000000000000000000000000000000000000000000000000000000 DUP2 MSTORE PUSH1 0x4 ADD PUSH2 0x7F5 SWAP1 PUSH2 0x144A JUMP JUMPDEST PUSH1 0x40 MLOAD DUP1 SWAP2 SUB SWAP1 REVERT JUMPDEST PUSH1 0x1 PUSH0 DUP4 PUSH20 0xFFFFFFFFFFFFFFFFFFFFFFFFFFFFFFFFFFFFFFFF AND PUSH20 0xFFFFFFFFFFFFFFFFFFFFFFFFFFFFFFFFFFFFFFFF AND DUP2 MSTORE PUSH1 0x20 ADD SWAP1 DUP2 MSTORE PUSH1 0x20 ADD PUSH0 KECCAK256 DUP2 DUP2 SLOAD DUP2 LT PUSH2 0x84D JUMPI PUSH2 0x84C PUSH2 0x13D3 JUMP JUMPDEST JUMPDEST SWAP1 PUSH0 MSTORE PUSH1 0x20 PUSH0 KECCAK256 SWAP1 PUSH1 0x5 MUL ADD PUSH1 0x4 ADD PUSH0 DUP2 SLOAD DUP1 SWAP3 SWAP2 SWAP1 PUSH2 0x86C SWAP1 PUSH2 0x15CF JUMP JUMPDEST SWAP2 SWAP1 POP SSTORE POP PUSH32 0xE8A76FC0F16D11A00D1E93B689B63D76CF60AF914DD3D915375DC41D01A0C3C8 CALLER DUP4 DUP4 PUSH1 0x1 PUSH0 DUP8 PUSH20 0xFFFFFFFFFFFFFFFFFFFFFFFFFFFFFFFFFFFFFFFF AND PUSH20 0xFFFFFFFFFFFFFFFFFFFFFFFFFFFFFFFFFFFFFFFF AND DUP2 MSTORE PUSH1 0x20 ADD SWAP1 DUP2 MSTORE PUSH1 0x20 ADD PUSH0 KECCAK256 DUP6 DUP2 SLOAD DUP2 LT PUSH2 0x8E4 JUMPI PUSH2 0x8E3 PUSH2 0x13D3 JUMP JUMPDEST JUMPDEST SWAP1 PUSH0 MSTORE PUSH1 0x20 PUSH0 KECCAK256 SWAP1 PUSH1 0x5 MUL ADD PUSH1 0x4 ADD SLOAD PUSH1 0x40 MLOAD PUSH2 0x904 SWAP5 SWAP4 SWAP3 SWAP2 SWAP1 PUSH2 0x1524 JUMP JUMPDEST PUSH1 0x40 MLOAD DUP1 SWAP2 SUB SWAP1 LOG1 POP POP JUMP JUMPDEST PUSH0 DUP1 SLOAD SWAP1 PUSH2 0x100 EXP SWAP1 DIV PUSH2 0xFFFF AND DUP2 JUMP JUMPDEST PUSH0 DUP1 SLOAD SWAP1 PUSH2 0x100 EXP SWAP1 DIV PUSH2 0xFFFF AND PUSH2 0xFFFF AND DUP2 MLOAD GT ISZERO PUSH2 0x976 JUMPI PUSH1 0x40 MLOAD PUSH32 0x8C379A000000000000000000000000000000000000000000000000000000000 DUP2 MSTORE PUSH1 0x4 ADD PUSH2 0x96D SWAP1 PUSH2 0x1660 JUMP JUMPDEST PUSH1 0x40 MLOAD DUP1 SWAP2 SUB SWAP1 REVERT JUMPDEST PUSH0 PUSH1 0x40 MLOAD DUP1 PUSH1 0xA0 ADD PUSH1 0x40 MSTORE DUP1 PUSH1 0x1 PUSH0 CALLER PUSH20 0xFFFFFFFFFFFFFFFFFFFFFFFFFFFFFFFFFFFFFFFF AND PUSH20 0xFFFFFFFFFFFFFFFFFFFFFFFFFFFFFFFFFFFFFFFF AND DUP2 MSTORE PUSH1 0x20 ADD SWAP1 DUP2 MSTORE PUSH1 0x20 ADD PUSH0 KECCAK256 DUP1 SLOAD SWAP1 POP DUP2 MSTORE PUSH1 0x20 ADD CALLER PUSH20 0xFFFFFFFFFFFFFFFFFFFFFFFFFFFFFFFFFFFFFFFF AND DUP2 MSTORE PUSH1 0x20 ADD DUP4 DUP2 MSTORE PUSH1 0x20 ADD TIMESTAMP DUP2 MSTORE PUSH1 0x20 ADD PUSH0 DUP2 MSTORE POP SWAP1 POP PUSH1 0x1 PUSH0 CALLER PUSH20 0xFFFFFFFFFFFFFFFFFFFFFFFFFFFFFFFFFFFFFFFF AND PUSH20 0xFFFFFFFFFFFFFFFFFFFFFFFFFFFFFFFFFFFFFFFF AND DUP2 MSTORE PUSH1 0x20 ADD SWAP1 DUP2 MSTORE PUSH1 0x20 ADD PUSH0 KECCAK256 DUP2 SWAP1 DUP1 PUSH1 0x1 DUP2 SLOAD ADD DUP1 DUP3 SSTORE DUP1 SWAP2 POP POP PUSH1 0x1 SWAP1 SUB SWAP1 PUSH0 MSTORE PUSH1 0x20 PUSH0 KECCAK256 SWAP1 PUSH1 0x5 MUL ADD PUSH0 SWAP1 SWAP2 SWAP1 SWAP2 SWAP1 SWAP2 POP PUSH0 DUP3 ADD MLOAD DUP2 PUSH0 ADD SSTORE PUSH1 0x20 DUP3 ADD MLOAD DUP2 PUSH1 0x1 ADD PUSH0 PUSH2 0x100 EXP DUP2 SLOAD DUP2 PUSH20 0xFFFFFFFFFFFFFFFFFFFFFFFFFFFFFFFFFFFFFFFF MUL NOT AND SWAP1 DUP4 PUSH20 0xFFFFFFFFFFFFFFFFFFFFFFFFFFFFFFFFFFFFFFFF AND MUL OR SWAP1 SSTORE POP PUSH1 0x40 DUP3 ADD MLOAD DUP2 PUSH1 0x2 ADD SWAP1 DUP2 PUSH2 0xABD SWAP2 SWAP1 PUSH2 0x181B JUMP JUMPDEST POP PUSH1 0x60 DUP3 ADD MLOAD DUP2 PUSH1 0x3 ADD SSTORE PUSH1 0x80 DUP3 ADD MLOAD DUP2 PUSH1 0x4 ADD SSTORE POP POP PUSH32 0x16FD3C13E9D46923E0A8BCE11C7B473EC508A72E6C96CD2404B29CE972AFC29E DUP2 PUSH0 ADD MLOAD DUP3 PUSH1 0x20 ADD MLOAD DUP4 PUSH1 0x40 ADD MLOAD DUP5 PUSH1 0x60 ADD MLOAD PUSH1 0x40 MLOAD PUSH2 0xB18 SWAP5 SWAP4 SWAP3 SWAP2 SWAP1 PUSH2 0x18EA JUMP JUMPDEST PUSH1 0x40 MLOAD DUP1 SWAP2 SUB SWAP1 LOG1 POP POP JUMP JUMPDEST PUSH1 0x2 PUSH0 SWAP1 SLOAD SWAP1 PUSH2 0x100 EXP SWAP1 DIV PUSH20 0xFFFFFFFFFFFFFFFFFFFFFFFFFFFFFFFFFFFFFFFF AND DUP2 JUMP JUMPDEST PUSH2 0xB51 PUSH2 0xCC0 JUMP JUMPDEST PUSH1 0x1 PUSH0 CALLER PUSH20 0xFFFFFFFFFFFFFFFFFFFFFFFFFFFFFFFFFFFFFFFF AND PUSH20 0xFFFFFFFFFFFFFFFFFFFFFFFFFFFFFFFFFFFFFFFF AND DUP2 MSTORE PUSH1 0x20 ADD SWAP1 DUP2 MSTORE PUSH1 0x20 ADD PUSH0 KECCAK256 DUP3 DUP2 SLOAD DUP2 LT PUSH2 0xBA0 JUMPI PUSH2 0xB9F PUSH2 0x13D3 JUMP JUMPDEST JUMPDEST SWAP1 PUSH0 MSTORE PUSH1 0x20 PUSH0 KECCAK256 SWAP1 PUSH1 0x5 MUL ADD PUSH1 0x40 MLOAD DUP1 PUSH1 0xA0 ADD PUSH1 0x40 MSTORE SWAP1 DUP2 PUSH0 DUP3 ADD SLOAD DUP2 MSTORE PUSH1 0x20 ADD PUSH1 0x1 DUP3 ADD PUSH0 SWAP1 SLOAD SWAP1 PUSH2 0x100 EXP SWAP1 DIV PUSH20 0xFFFFFFFFFFFFFFFFFFFFFFFFFFFFFFFFFFFFFFFF AND PUSH20 0xFFFFFFFFFFFFFFFFFFFFFFFFFFFFFFFFFFFFFFFF AND PUSH20 0xFFFFFFFFFFFFFFFFFFFFFFFFFFFFFFFFFFFFFFFF AND DUP2 MSTORE PUSH1 0x20 ADD PUSH1 0x2 DUP3 ADD DUP1 SLOAD PUSH2 0xC25 SWAP1 PUSH2 0x13A3 JUMP JUMPDEST DUP1 PUSH1 0x1F ADD PUSH1 0x20 DUP1 SWAP2 DIV MUL PUSH1 0x20 ADD PUSH1 0x40 MLOAD SWAP1 DUP2 ADD PUSH1 0x40 MSTORE DUP1 SWAP3 SWAP2 SWAP1 DUP2 DUP2 MSTORE PUSH1 0x20 ADD DUP3 DUP1 SLOAD PUSH2 0xC51 SWAP1 PUSH2 0x13A3 JUMP JUMPDEST DUP1 ISZERO PUSH2 0xC9C JUMPI DUP1 PUSH1 0x1F LT PUSH2 0xC73 JUMPI PUSH2 0x100 DUP1 DUP4 SLOAD DIV MUL DUP4 MSTORE SWAP2 PUSH1 0x20 ADD SWAP2 PUSH2 0xC9C JUMP JUMPDEST DUP3 ADD SWAP2 SWAP1 PUSH0 MSTORE PUSH1 0x20 PUSH0 KECCAK256 SWAP1 JUMPDEST DUP2 SLOAD DUP2 MSTORE SWAP1 PUSH1 0x1 ADD SWAP1 PUSH1 0x20 ADD DUP1 DUP4 GT PUSH2 0xC7F JUMPI DUP3 SWAP1 SUB PUSH1 0x1F AND DUP3 ADD SWAP2 JUMPDEST POP POP POP POP POP DUP2 MSTORE PUSH1 0x20 ADD PUSH1 0x3 DUP3 ADD SLOAD DUP2 MSTORE PUSH1 0x20 ADD PUSH1 0x4 DUP3 ADD SLOAD DUP2 MSTORE POP POP SWAP1 POP SWAP2 SWAP1 POP JUMP JUMPDEST PUSH1 0x40 MLOAD DUP1 PUSH1 0xA0 ADD PUSH1 0x40 MSTORE DUP1 PUSH0 DUP2 MSTORE PUSH1 0x20 ADD PUSH0 PUSH20 0xFFFFFFFFFFFFFFFFFFFFFFFFFFFFFFFFFFFFFFFF AND DUP2 MSTORE PUSH1 0x20 ADD PUSH1 0x60 DUP2 MSTORE PUSH1 0x20 ADD PUSH0 DUP2 MSTORE PUSH1 0x20 ADD PUSH0 DUP2 MSTORE POP SWAP1 JUMP JUMPDEST PUSH0 PUSH1 0x40 MLOAD SWAP1 POP SWAP1 JUMP JUMPDEST PUSH0 DUP1 REVERT JUMPDEST PUSH0 DUP1 REVERT JUMPDEST PUSH0 PUSH20 0xFFFFFFFFFFFFFFFFFFFFFFFFFFFFFFFFFFFFFFFF DUP3 AND SWAP1 POP SWAP2 SWAP1 POP JUMP JUMPDEST PUSH0 PUSH2 0xD3B DUP3 PUSH2 0xD12 JUMP JUMPDEST SWAP1 POP SWAP2 SWAP1 POP JUMP JUMPDEST PUSH2 0xD4B DUP2 PUSH2 0xD31 JUMP JUMPDEST DUP2 EQ PUSH2 0xD55 JUMPI PUSH0 DUP1 REVERT JUMPDEST POP JUMP JUMPDEST PUSH0 DUP2 CALLDATALOAD SWAP1 POP PUSH2 0xD66 DUP2 PUSH2 0xD42 JUMP JUMPDEST SWAP3 SWAP2 POP POP JUMP JUMPDEST PUSH0 DUP2 SWAP1 POP SWAP2 SWAP1 POP JUMP JUMPDEST PUSH2 0xD7E DUP2 PUSH2 0xD6C JUMP JUMPDEST DUP2 EQ PUSH2 0xD88 JUMPI PUSH0 DUP1 REVERT JUMPDEST POP JUMP JUMPDEST PUSH0 DUP2 CALLDATALOAD SWAP1 POP PUSH2 0xD99 DUP2 PUSH2 0xD75 JUMP JUMPDEST SWAP3 SWAP2 POP POP JUMP JUMPDEST PUSH0 DUP1 PUSH1 0x40 DUP4 DUP6 SUB SLT ISZERO PUSH2 0xDB5 JUMPI PUSH2 0xDB4 PUSH2 0xD0A JUMP JUMPDEST JUMPDEST PUSH0 PUSH2 0xDC2 DUP6 DUP3 DUP7 ADD PUSH2 0xD58 JUMP JUMPDEST SWAP3 POP POP PUSH1 0x20 PUSH2 0xDD3 DUP6 DUP3 DUP7 ADD PUSH2 0xD8B JUMP JUMPDEST SWAP2 POP POP SWAP3 POP SWAP3 SWAP1 POP JUMP JUMPDEST PUSH2 0xDE6 DUP2 PUSH2 0xD6C JUMP JUMPDEST DUP3 MSTORE POP POP JUMP JUMPDEST PUSH2 0xDF5 DUP2 PUSH2 0xD31 JUMP JUMPDEST DUP3 MSTORE POP POP JUMP JUMPDEST PUSH0 DUP2 MLOAD SWAP1 POP SWAP2 SWAP1 POP JUMP JUMPDEST PUSH0 DUP3 DUP3 MSTORE PUSH1 0x20 DUP3 ADD SWAP1 POP SWAP3 SWAP2 POP POP JUMP JUMPDEST DUP3 DUP2 DUP4 MCOPY PUSH0 DUP4 DUP4 ADD MSTORE POP POP POP JUMP JUMPDEST PUSH0 PUSH1 0x1F NOT PUSH1 0x1F DUP4 ADD AND SWAP1 POP SWAP2 SWAP1 POP JUMP JUMPDEST PUSH0 PUSH2 0xE3D DUP3 PUSH2 0xDFB JUMP JUMPDEST PUSH2 0xE47 DUP2 DUP6 PUSH2 0xE05 JUMP JUMPDEST SWAP4 POP PUSH2 0xE57 DUP2 DUP6 PUSH1 0x20 DUP7 ADD PUSH2 0xE15 JUMP JUMPDEST PUSH2 0xE60 DUP2 PUSH2 0xE23 JUMP JUMPDEST DUP5 ADD SWAP2 POP POP SWAP3 SWAP2 POP POP JUMP JUMPDEST PUSH0 PUSH1 0xA0 DUP3 ADD SWAP1 POP PUSH2 0xE7E PUSH0 DUP4 ADD DUP9 PUSH2 0xDDD JUMP JUMPDEST PUSH2 0xE8B PUSH1 0x20 DUP4 ADD DUP8 PUSH2 0xDEC JUMP JUMPDEST DUP2 DUP2 SUB PUSH1 0x40 DUP4 ADD MSTORE PUSH2 0xE9D DUP2 DUP7 PUSH2 0xE33 JUMP JUMPDEST SWAP1 POP PUSH2 0xEAC PUSH1 0x60 DUP4 ADD DUP6 PUSH2 0xDDD JUMP JUMPDEST PUSH2 0xEB9 PUSH1 0x80 DUP4 ADD DUP5 PUSH2 0xDDD JUMP JUMPDEST SWAP7 SWAP6 POP POP POP POP POP POP JUMP JUMPDEST PUSH0 PUSH1 0x20 DUP3 DUP5 SUB SLT ISZERO PUSH2 0xED8 JUMPI PUSH2 0xED7 PUSH2 0xD0A JUMP JUMPDEST JUMPDEST PUSH0 PUSH2 0xEE5 DUP5 DUP3 DUP6 ADD PUSH2 0xD58 JUMP JUMPDEST SWAP2 POP POP SWAP3 SWAP2 POP POP JUMP JUMPDEST PUSH0 DUP2 MLOAD SWAP1 POP SWAP2 SWAP1 POP JUMP JUMPDEST PUSH0 DUP3 DUP3 MSTORE PUSH1 0x20 DUP3 ADD SWAP1 POP SWAP3 SWAP2 POP POP JUMP JUMPDEST PUSH0 DUP2 SWAP1 POP PUSH1 0x20 DUP3 ADD SWAP1 POP SWAP2 SWAP1 POP JUMP JUMPDEST PUSH2 0xF20 DUP2 PUSH2 0xD6C JUMP JUMPDEST DUP3 MSTORE POP POP JUMP JUMPDEST PUSH2 0xF2F DUP2 PUSH2 0xD31 JUMP JUMPDEST DUP3 MSTORE POP POP JUMP JUMPDEST PUSH0 DUP3 DUP3 MSTORE PUSH1 0x20 DUP3 ADD SWAP1 POP SWAP3 SWAP2 POP POP JUMP JUMPDEST PUSH0 PUSH2 0xF4F DUP3 PUSH2 0xDFB JUMP JUMPDEST PUSH2 0xF59 DUP2 DUP6 PUSH2 0xF35 JUMP JUMPDEST SWAP4 POP PUSH2 0xF69 DUP2 DUP6 PUSH1 0x20 DUP7 ADD PUSH2 0xE15 JUMP JUMPDEST PUSH2 0xF72 DUP2 PUSH2 0xE23 JUMP JUMPDEST DUP5 ADD SWAP2 POP POP SWAP3 SWAP2 POP POP JUMP JUMPDEST PUSH0 PUSH1 0xA0 DUP4 ADD PUSH0 DUP4 ADD MLOAD PUSH2 0xF92 PUSH0 DUP7 ADD DUP3 PUSH2 0xF17 JUMP JUMPDEST POP PUSH1 0x20 DUP4 ADD MLOAD PUSH2 0xFA5 PUSH1 0x20 DUP7 ADD DUP3 PUSH2 0xF26 JUMP JUMPDEST POP PUSH1 0x40 DUP4 ADD MLOAD DUP5 DUP3 SUB PUSH1 0x40 DUP7 ADD MSTORE PUSH2 0xFBD DUP3 DUP3 PUSH2 0xF45 JUMP JUMPDEST SWAP2 POP POP PUSH1 0x60 DUP4 ADD MLOAD PUSH2 0xFD2 PUSH1 0x60 DUP7 ADD DUP3 PUSH2 0xF17 JUMP JUMPDEST POP PUSH1 0x80 DUP4 ADD MLOAD PUSH2 0xFE5 PUSH1 0x80 DUP7 ADD DUP3 PUSH2 0xF17 JUMP JUMPDEST POP DUP1 SWAP2 POP POP SWAP3 SWAP2 POP POP JUMP JUMPDEST PUSH0 PUSH2 0xFFB DUP4 DUP4 PUSH2 0xF7D JUMP JUMPDEST SWAP1 POP SWAP3 SWAP2 POP POP JUMP JUMPDEST PUSH0 PUSH1 0x20 DUP3 ADD SWAP1 POP SWAP2 SWAP1 POP JUMP JUMPDEST PUSH0 PUSH2 0x1019 DUP3 PUSH2 0xEEE JUMP JUMPDEST PUSH2 0x1023 DUP2 DUP6 PUSH2 0xEF8 JUMP JUMPDEST SWAP4 POP DUP4 PUSH1 0x20 DUP3 MUL DUP6 ADD PUSH2 0x1035 DUP6 PUSH2 0xF08 JUMP JUMPDEST DUP1 PUSH0 JUMPDEST DUP6 DUP2 LT ISZERO PUSH2 0x1070 JUMPI DUP5 DUP5 SUB DUP10 MSTORE DUP2 MLOAD PUSH2 0x1051 DUP6 DUP3 PUSH2 0xFF0 JUMP JUMPDEST SWAP5 POP PUSH2 0x105C DUP4 PUSH2 0x1003 JUMP JUMPDEST SWAP3 POP PUSH1 0x20 DUP11 ADD SWAP10 POP POP PUSH1 0x1 DUP2 ADD SWAP1 POP PUSH2 0x1038 JUMP JUMPDEST POP DUP3 SWAP8 POP DUP8 SWAP6 POP POP POP POP POP POP SWAP3 SWAP2 POP POP JUMP JUMPDEST PUSH0 PUSH1 0x20 DUP3 ADD SWAP1 POP DUP2 DUP2 SUB PUSH0 DUP4 ADD MSTORE PUSH2 0x109A DUP2 DUP5 PUSH2 0x100F JUMP JUMPDEST SWAP1 POP SWAP3 SWAP2 POP POP JUMP JUMPDEST PUSH0 PUSH2 0xFFFF DUP3 AND SWAP1 POP SWAP2 SWAP1 POP JUMP JUMPDEST PUSH2 0x10B8 DUP2 PUSH2 0x10A2 JUMP JUMPDEST DUP2 EQ PUSH2 0x10C2 JUMPI PUSH0 DUP1 REVERT JUMPDEST POP JUMP JUMPDEST PUSH0 DUP2 CALLDATALOAD SWAP1 POP PUSH2 0x10D3 DUP2 PUSH2 0x10AF JUMP JUMPDEST SWAP3 SWAP2 POP POP JUMP JUMPDEST PUSH0 PUSH1 0x20 DUP3 DUP5 SUB SLT ISZERO PUSH2 0x10EE JUMPI PUSH2 0x10ED PUSH2 0xD0A JUMP JUMPDEST JUMPDEST PUSH0 PUSH2 0x10FB DUP5 DUP3 DUP6 ADD PUSH2 0x10C5 JUMP JUMPDEST SWAP2 POP POP SWAP3 SWAP2 POP POP JUMP JUMPDEST PUSH2 0x110D DUP2 PUSH2 0x10A2 JUMP JUMPDEST DUP3 MSTORE POP POP JUMP JUMPDEST PUSH0 PUSH1 0x20 DUP3 ADD SWAP1 POP PUSH2 0x1126 PUSH0 DUP4 ADD DUP5 PUSH2 0x1104 JUMP JUMPDEST SWAP3 SWAP2 POP POP JUMP JUMPDEST PUSH0 DUP1 REVERT JUMPDEST PUSH0 DUP1 REVERT JUMPDEST PUSH32 0x4E487B7100000000000000000000000000000000000000000000000000000000 PUSH0 MSTORE PUSH1 0x41 PUSH1 0x4 MSTORE PUSH1 0x24 PUSH0 REVERT JUMPDEST PUSH2 0x116A DUP3 PUSH2 0xE23 JUMP JUMPDEST DUP2 ADD DUP2 DUP2 LT PUSH8 0xFFFFFFFFFFFFFFFF DUP3 GT OR ISZERO PUSH2 0x1189 JUMPI PUSH2 0x1188 PUSH2 0x1134 JUMP JUMPDEST JUMPDEST DUP1 PUSH1 0x40 MSTORE POP POP POP JUMP JUMPDEST PUSH0 PUSH2 0x119B PUSH2 0xD01 JUMP JUMPDEST SWAP1 POP PUSH2 0x11A7 DUP3 DUP3 PUSH2 0x1161 JUMP JUMPDEST SWAP2 SWAP1 POP JUMP JUMPDEST PUSH0 PUSH8 0xFFFFFFFFFFFFFFFF DUP3 GT ISZERO PUSH2 0x11C6 JUMPI PUSH2 0x11C5 PUSH2 0x1134 JUMP JUMPDEST JUMPDEST PUSH2 0x11CF DUP3 PUSH2 0xE23 JUMP JUMPDEST SWAP1 POP PUSH1 0x20 DUP2 ADD SWAP1 POP SWAP2 SWAP1 POP JUMP JUMPDEST DUP3 DUP2 DUP4 CALLDATACOPY PUSH0 DUP4 DUP4 ADD MSTORE POP POP POP JUMP JUMPDEST PUSH0 PUSH2 0x11FC PUSH2 0x11F7 DUP5 PUSH2 0x11AC JUMP JUMPDEST PUSH2 0x1192 JUMP JUMPDEST SWAP1 POP DUP3 DUP2 MSTORE PUSH1 0x20 DUP2 ADD DUP5 DUP5 DUP5 ADD GT ISZERO PUSH2 0x1218 JUMPI PUSH2 0x1217 PUSH2 0x1130 JUMP JUMPDEST JUMPDEST PUSH2 0x1223 DUP5 DUP3 DUP6 PUSH2 0x11DC JUMP JUMPDEST POP SWAP4 SWAP3 POP POP POP JUMP JUMPDEST PUSH0 DUP3 PUSH1 0x1F DUP4 ADD SLT PUSH2 0x123F JUMPI PUSH2 0x123E PUSH2 0x112C JUMP JUMPDEST JUMPDEST DUP2 CALLDATALOAD PUSH2 0x124F DUP5 DUP3 PUSH1 0x20 DUP7 ADD PUSH2 0x11EA JUMP JUMPDEST SWAP2 POP POP SWAP3 SWAP2 POP POP JUMP JUMPDEST PUSH0 PUSH1 0x20 DUP3 DUP5 SUB SLT ISZERO PUSH2 0x126D JUMPI PUSH2 0x126C PUSH2 0xD0A JUMP JUMPDEST JUMPDEST PUSH0 DUP3 ADD CALLDATALOAD PUSH8 0xFFFFFFFFFFFFFFFF DUP2 GT ISZERO PUSH2 0x128A JUMPI PUSH2 0x1289 PUSH2 0xD0E JUMP JUMPDEST JUMPDEST PUSH2 0x1296 DUP5 DUP3 DUP6 ADD PUSH2 0x122B JUMP JUMPDEST SWAP2 POP POP SWAP3 SWAP2 POP POP JUMP JUMPDEST PUSH0 PUSH1 0x20 DUP3 ADD SWAP1 POP PUSH2 0x12B2 PUSH0 DUP4 ADD DUP5 PUSH2 0xDEC JUMP JUMPDEST SWAP3 SWAP2 POP POP JUMP JUMPDEST PUSH0 PUSH1 0x20 DUP3 DUP5 SUB SLT ISZERO PUSH2 0x12CD JUMPI PUSH2 0x12CC PUSH2 0xD0A JUMP JUMPDEST JUMPDEST PUSH0 PUSH2 0x12DA DUP5 DUP3 DUP6 ADD PUSH2 0xD8B JUMP JUMPDEST SWAP2 POP POP SWAP3 SWAP2 POP POP JUMP JUMPDEST PUSH0 PUSH1 0xA0 DUP4 ADD PUSH0 DUP4 ADD MLOAD PUSH2 0x12F8 PUSH0 DUP7 ADD DUP3 PUSH2 0xF17 JUMP JUMPDEST POP PUSH1 0x20 DUP4 ADD MLOAD PUSH2 0x130B PUSH1 0x20 DUP7 ADD DUP3 PUSH2 0xF26 JUMP JUMPDEST POP PUSH1 0x40 DUP4 ADD MLOAD DUP5 DUP3 SUB PUSH1 0x40 DUP7 ADD MSTORE PUSH2 0x1323 DUP3 DUP3 PUSH2 0xF45 JUMP JUMPDEST SWAP2 POP POP PUSH1 0x60 DUP4 ADD MLOAD PUSH2 0x1338 PUSH1 0x60 DUP7 ADD DUP3 PUSH2 0xF17 JUMP JUMPDEST POP PUSH1 0x80 DUP4 ADD MLOAD PUSH2 0x134B PUSH1 0x80 DUP7 ADD DUP3 PUSH2 0xF17 JUMP JUMPDEST POP DUP1 SWAP2 POP POP SWAP3 SWAP2 POP POP JUMP JUMPDEST PUSH0 PUSH1 0x20 DUP3 ADD SWAP1 POP DUP2 DUP2 SUB PUSH0 DUP4 ADD MSTORE PUSH2 0x136E DUP2 DUP5 PUSH2 0x12E3 JUMP JUMPDEST SWAP1 POP SWAP3 SWAP2 POP POP JUMP JUMPDEST PUSH32 0x4E487B7100000000000000000000000000000000000000000000000000000000 PUSH0 MSTORE PUSH1 0x22 PUSH1 0x4 MSTORE PUSH1 0x24 PUSH0 REVERT JUMPDEST PUSH0 PUSH1 0x2 DUP3 DIV SWAP1 POP PUSH1 0x1 DUP3 AND DUP1 PUSH2 0x13BA JUMPI PUSH1 0x7F DUP3 AND SWAP2 POP JUMPDEST PUSH1 0x20 DUP3 LT DUP2 SUB PUSH2 0x13CD JUMPI PUSH2 0x13CC PUSH2 0x1376 JUMP JUMPDEST JUMPDEST POP SWAP2 SWAP1 POP JUMP JUMPDEST PUSH32 0x4E487B7100000000000000000000000000000000000000000000000000000000 PUSH0 MSTORE PUSH1 0x32 PUSH1 0x4 MSTORE PUSH1 0x24 PUSH0 REVERT JUMPDEST PUSH32 0x547765657420446F6573204E6F74204578697374000000000000000000000000 PUSH0 DUP3 ADD MSTORE POP JUMP JUMPDEST PUSH0 PUSH2 0x1434 PUSH1 0x14 DUP4 PUSH2 0xE05 JUMP JUMPDEST SWAP2 POP PUSH2 0x143F DUP3 PUSH2 0x1400 JUMP JUMPDEST PUSH1 0x20 DUP3 ADD SWAP1 POP SWAP2 SWAP1 POP JUMP JUMPDEST PUSH0 PUSH1 0x20 DUP3 ADD SWAP1 POP DUP2 DUP2 SUB PUSH0 DUP4 ADD MSTORE PUSH2 0x1461 DUP2 PUSH2 0x1428 JUMP JUMPDEST SWAP1 POP SWAP2 SWAP1 POP JUMP JUMPDEST PUSH32 0x54776565747320686173206E6F206C696B657300000000000000000000000000 PUSH0 DUP3 ADD MSTORE POP JUMP JUMPDEST PUSH0 PUSH2 0x149C PUSH1 0x13 DUP4 PUSH2 0xE05 JUMP JUMPDEST SWAP2 POP PUSH2 0x14A7 DUP3 PUSH2 0x1468 JUMP JUMPDEST PUSH1 0x20 DUP3 ADD SWAP1 POP SWAP2 SWAP1 POP JUMP JUMPDEST PUSH0 PUSH1 0x20 DUP3 ADD SWAP1 POP DUP2 DUP2 SUB PUSH0 DUP4 ADD MSTORE PUSH2 0x14C9 DUP2 PUSH2 0x1490 JUMP JUMPDEST SWAP1 POP SWAP2 SWAP1 POP JUMP JUMPDEST PUSH32 0x4E487B7100000000000000000000000000000000000000000000000000000000 PUSH0 MSTORE PUSH1 0x11 PUSH1 0x4 MSTORE PUSH1 0x24 PUSH0 REVERT JUMPDEST PUSH0 PUSH2 0x1507 DUP3 PUSH2 0xD6C JUMP JUMPDEST SWAP2 POP PUSH0 DUP3 SUB PUSH2 0x1519 JUMPI PUSH2 0x1518 PUSH2 0x14D0 JUMP JUMPDEST JUMPDEST PUSH1 0x1 DUP3 SUB SWAP1 POP SWAP2 SWAP1 POP JUMP JUMPDEST PUSH0 PUSH1 0x80 DUP3 ADD SWAP1 POP PUSH2 0x1537 PUSH0 DUP4 ADD DUP8 PUSH2 0xDEC JUMP JUMPDEST PUSH2 0x1544 PUSH1 0x20 DUP4 ADD DUP7 PUSH2 0xDEC JUMP JUMPDEST PUSH2 0x1551 PUSH1 0x40 DUP4 ADD DUP6 PUSH2 0xDDD JUMP JUMPDEST PUSH2 0x155E PUSH1 0x60 DUP4 ADD DUP5 PUSH2 0xDDD JUMP JUMPDEST SWAP6 SWAP5 POP POP POP POP POP JUMP JUMPDEST PUSH32 0x594F5520415245204E4F5420544845204F574E45520000000000000000000000 PUSH0 DUP3 ADD MSTORE POP JUMP JUMPDEST PUSH0 PUSH2 0x159B PUSH1 0x15 DUP4 PUSH2 0xE05 JUMP JUMPDEST SWAP2 POP PUSH2 0x15A6 DUP3 PUSH2 0x1567 JUMP JUMPDEST PUSH1 0x20 DUP3 ADD SWAP1 POP SWAP2 SWAP1 POP JUMP JUMPDEST PUSH0 PUSH1 0x20 DUP3 ADD SWAP1 POP DUP2 DUP2 SUB PUSH0 DUP4 ADD MSTORE PUSH2 0x15C8 DUP2 PUSH2 0x158F JUMP JUMPDEST SWAP1 POP SWAP2 SWAP1 POP JUMP JUMPDEST PUSH0 PUSH2 0x15D9 DUP3 PUSH2 0xD6C JUMP JUMPDEST SWAP2 POP PUSH32 0xFFFFFFFFFFFFFFFFFFFFFFFFFFFFFFFFFFFFFFFFFFFFFFFFFFFFFFFFFFFFFFFF DUP3 SUB PUSH2 0x160B JUMPI PUSH2 0x160A PUSH2 0x14D0 JUMP JUMPDEST JUMPDEST PUSH1 0x1 DUP3 ADD SWAP1 POP SWAP2 SWAP1 POP JUMP JUMPDEST PUSH32 0x547765657420697320746F6F206C6F6E672062726F3A20000000000000000000 PUSH0 DUP3 ADD MSTORE POP JUMP JUMPDEST PUSH0 PUSH2 0x164A PUSH1 0x17 DUP4 PUSH2 0xE05 JUMP JUMPDEST SWAP2 POP PUSH2 0x1655 DUP3 PUSH2 0x1616 JUMP JUMPDEST PUSH1 0x20 DUP3 ADD SWAP1 POP SWAP2 SWAP1 POP JUMP JUMPDEST PUSH0 PUSH1 0x20 DUP3 ADD SWAP1 POP DUP2 DUP2 SUB PUSH0 DUP4 ADD MSTORE PUSH2 0x1677 DUP2 PUSH2 0x163E JUMP JUMPDEST SWAP1 POP SWAP2 SWAP1 POP JUMP JUMPDEST PUSH0 DUP2 SWAP1 POP DUP2 PUSH0 MSTORE PUSH1 0x20 PUSH0 KECCAK256 SWAP1 POP SWAP2 SWAP1 POP JUMP JUMPDEST PUSH0 PUSH1 0x20 PUSH1 0x1F DUP4 ADD DIV SWAP1 POP SWAP2 SWAP1 POP JUMP JUMPDEST PUSH0 DUP3 DUP3 SHL SWAP1 POP SWAP3 SWAP2 POP POP JUMP JUMPDEST PUSH0 PUSH1 0x8 DUP4 MUL PUSH2 0x16DA PUSH32 0xFFFFFFFFFFFFFFFFFFFFFFFFFFFFFFFFFFFFFFFFFFFFFFFFFFFFFFFFFFFFFFFF DUP3 PUSH2 0x169F JUMP JUMPDEST PUSH2 0x16E4 DUP7 DUP4 PUSH2 0x169F JUMP JUMPDEST SWAP6 POP DUP1 NOT DUP5 AND SWAP4 POP DUP1 DUP7 AND DUP5 OR SWAP3 POP POP POP SWAP4 SWAP3 POP POP POP JUMP JUMPDEST PUSH0 DUP2 SWAP1 POP SWAP2 SWAP1 POP JUMP JUMPDEST PUSH0 PUSH2 0x171F PUSH2 0x171A PUSH2 0x1715 DUP5 PUSH2 0xD6C JUMP JUMPDEST PUSH2 0x16FC JUMP JUMPDEST PUSH2 0xD6C JUMP JUMPDEST SWAP1 POP SWAP2 SWAP1 POP JUMP JUMPDEST PUSH0 DUP2 SWAP1 POP SWAP2 SWAP1 POP JUMP JUMPDEST PUSH2 0x1738 DUP4 PUSH2 0x1705 JUMP JUMPDEST PUSH2 0x174C PUSH2 0x1744 DUP3 PUSH2 0x1726 JUMP JUMPDEST DUP5 DUP5 SLOAD PUSH2 0x16AB JUMP JUMPDEST DUP3 SSTORE POP POP POP POP JUMP JUMPDEST PUSH0 SWAP1 JUMP JUMPDEST PUSH2 0x1760 PUSH2 0x1754 JUMP JUMPDEST PUSH2 0x176B DUP2 DUP5 DUP5 PUSH2 0x172F JUMP JUMPDEST POP POP POP JUMP JUMPDEST JUMPDEST DUP2 DUP2 LT ISZERO PUSH2 0x178E JUMPI PUSH2 0x1783 PUSH0 DUP3 PUSH2 0x1758 JUMP JUMPDEST PUSH1 0x1 DUP2 ADD SWAP1 POP PUSH2 0x1771 JUMP JUMPDEST POP POP JUMP JUMPDEST PUSH1 0x1F DUP3 GT ISZERO PUSH2 0x17D3 JUMPI PUSH2 0x17A4 DUP2 PUSH2 0x167E JUMP JUMPDEST PUSH2 0x17AD DUP5 PUSH2 0x1690 JUMP JUMPDEST DUP2 ADD PUSH1 0x20 DUP6 LT ISZERO PUSH2 0x17BC JUMPI DUP2 SWAP1 POP JUMPDEST PUSH2 0x17D0 PUSH2 0x17C8 DUP6 PUSH2 0x1690 JUMP JUMPDEST DUP4 ADD DUP3 PUSH2 0x1770 JUMP JUMPDEST POP POP JUMPDEST POP POP POP JUMP JUMPDEST PUSH0 DUP3 DUP3 SHR SWAP1 POP SWAP3 SWAP2 POP POP JUMP JUMPDEST PUSH0 PUSH2 0x17F3 PUSH0 NOT DUP5 PUSH1 0x8 MUL PUSH2 0x17D8 JUMP JUMPDEST NOT DUP1 DUP4 AND SWAP2 POP POP SWAP3 SWAP2 POP POP JUMP JUMPDEST PUSH0 PUSH2 0x180B DUP4 DUP4 PUSH2 0x17E4 JUMP JUMPDEST SWAP2 POP DUP3 PUSH1 0x2 MUL DUP3 OR SWAP1 POP SWAP3 SWAP2 POP POP JUMP JUMPDEST PUSH2 0x1824 DUP3 PUSH2 0xDFB JUMP JUMPDEST PUSH8 0xFFFFFFFFFFFFFFFF DUP2 GT ISZERO PUSH2 0x183D JUMPI PUSH2 0x183C PUSH2 0x1134 JUMP JUMPDEST JUMPDEST PUSH2 0x1847 DUP3 SLOAD PUSH2 0x13A3 JUMP JUMPDEST PUSH2 0x1852 DUP3 DUP3 DUP6 PUSH2 0x1792 JUMP JUMPDEST PUSH0 PUSH1 0x20 SWAP1 POP PUSH1 0x1F DUP4 GT PUSH1 0x1 DUP2 EQ PUSH2 0x1883 JUMPI PUSH0 DUP5 ISZERO PUSH2 0x1871 JUMPI DUP3 DUP8 ADD MLOAD SWAP1 POP JUMPDEST PUSH2 0x187B DUP6 DUP3 PUSH2 0x1800 JUMP JUMPDEST DUP7 SSTORE POP PUSH2 0x18E2 JUMP JUMPDEST PUSH1 0x1F NOT DUP5 AND PUSH2 0x1891 DUP7 PUSH2 0x167E JUMP JUMPDEST PUSH0 JUMPDEST DUP3 DUP2 LT ISZERO PUSH2 0x18B8 JUMPI DUP5 DUP10 ADD MLOAD DUP3 SSTORE PUSH1 0x1 DUP3 ADD SWAP2 POP PUSH1 0x20 DUP6 ADD SWAP5 POP PUSH1 0x20 DUP2 ADD SWAP1 POP PUSH2 0x1893 JUMP JUMPDEST DUP7 DUP4 LT ISZERO PUSH2 0x18D5 JUMPI DUP5 DUP10 ADD MLOAD PUSH2 0x18D1 PUSH1 0x1F DUP10 AND DUP3 PUSH2 0x17E4 JUMP JUMPDEST DUP4 SSTORE POP JUMPDEST PUSH1 0x1 PUSH1 0x2 DUP9 MUL ADD DUP9 SSTORE POP POP POP JUMPDEST POP POP POP POP POP POP JUMP JUMPDEST PUSH0 PUSH1 0x80 DUP3 ADD SWAP1 POP PUSH2 0x18FD PUSH0 DUP4 ADD DUP8 PUSH2 0xDDD JUMP JUMPDEST PUSH2 0x190A PUSH1 0x20 DUP4 ADD DUP7 PUSH2 0xDEC JUMP JUMPDEST DUP2 DUP2 SUB PUSH1 0x40 DUP4 ADD MSTORE PUSH2 0x191C DUP2 DUP6 PUSH2 0xE33 JUMP JUMPDEST SWAP1 POP PUSH2 0x192B PUSH1 0x60 DUP4 ADD DUP5 PUSH2 0xDDD JUMP JUMPDEST SWAP6 SWAP5 POP POP POP POP POP JUMP INVALID LOG2 PUSH5 0x6970667358 0x22 SLT KECCAK256 PUSH23 0x6391E12F08D272FA44BEF9E26CAC32C41A757167C5801A 0xD8 NUMBER SDIV SDIV 0xDA 0xAA GASPRICE SWAP15 PUSH5 0x736F6C6343 STOP ADDMOD BYTE STOP CALLER "
				},
				"gasEstimates": {
					"creation": {
						"codeDepositCost": "1301200",
						"executionCost": "49885",
						"totalCost": "1351085"
					},
					"external": {
						"MAX_TWEET_LENGTH()": "2485",
						"changeTweetLength(uint16)": "26909",
						"createTweet(string)": "infinite",
						"getAllTweets(address)": "infinite",
						"getTweet(uint256)": "infinite",
						"likeTweet(address,uint256)": "infinite",
						"owner()": "2574",
						"tweets(address,uint256)": "infinite",
						"unlikeTweet(address,uint256)": "infinite"
					}
				},
				"methodIdentifiers": {
					"MAX_TWEET_LENGTH()": "6eb10797",
					"changeTweetLength(uint16)": "58bfa4ab",
					"createTweet(string)": "7c9cd2bc",
					"getAllTweets(address)": "12e7ee1c",
					"getTweet(uint256)": "c3ad5ecb",
					"likeTweet(address,uint256)": "63378216",
					"owner()": "8da5cb5b",
					"tweets(address,uint256)": "05a1b4a9",
					"unlikeTweet(address,uint256)": "3d9b569f"
				}
			},
			"storageLayout": {
				"storage": [
					{
						"astId": 4,
						"contract": "contracts/Twitter-AddEvent.sol:Twitter",
						"label": "MAX_TWEET_LENGTH",
						"offset": 0,
						"slot": "0",
						"type": "t_uint16"
					},
					{
						"astId": 21,
						"contract": "contracts/Twitter-AddEvent.sol:Twitter",
						"label": "tweets",
						"offset": 0,
						"slot": "1",
						"type": "t_mapping(t_address,t_array(t_struct(Tweet)15_storage)dyn_storage)"
					},
					{
						"astId": 23,
						"contract": "contracts/Twitter-AddEvent.sol:Twitter",
						"label": "owner",
						"offset": 0,
						"slot": "2",
						"type": "t_address"
					}
				],
				"types": {
					"t_address": {
						"encoding": "inplace",
						"label": "address",
						"numberOfBytes": "20"
					},
					"t_array(t_struct(Tweet)15_storage)dyn_storage": {
						"base": "t_struct(Tweet)15_storage",
						"encoding": "dynamic_array",
						"label": "struct Twitter.Tweet[]",
						"numberOfBytes": "32"
					},
					"t_mapping(t_address,t_array(t_struct(Tweet)15_storage)dyn_storage)": {
						"encoding": "mapping",
						"key": "t_address",
						"label": "mapping(address => struct Twitter.Tweet[])",
						"numberOfBytes": "32",
						"value": "t_array(t_struct(Tweet)15_storage)dyn_storage"
					},
					"t_string_storage": {
						"encoding": "bytes",
						"label": "string",
						"numberOfBytes": "32"
					},
					"t_struct(Tweet)15_storage": {
						"encoding": "inplace",
						"label": "struct Twitter.Tweet",
						"members": [
							{
								"astId": 6,
								"contract": "contracts/Twitter-AddEvent.sol:Twitter",
								"label": "id",
								"offset": 0,
								"slot": "0",
								"type": "t_uint256"
							},
							{
								"astId": 8,
								"contract": "contracts/Twitter-AddEvent.sol:Twitter",
								"label": "author",
								"offset": 0,
								"slot": "1",
								"type": "t_address"
							},
							{
								"astId": 10,
								"contract": "contracts/Twitter-AddEvent.sol:Twitter",
								"label": "content",
								"offset": 0,
								"slot": "2",
								"type": "t_string_storage"
							},
							{
								"astId": 12,
								"contract": "contracts/Twitter-AddEvent.sol:Twitter",
								"label": "timestamps",
								"offset": 0,
								"slot": "3",
								"type": "t_uint256"
							},
							{
								"astId": 14,
								"contract": "contracts/Twitter-AddEvent.sol:Twitter",
								"label": "likes",
								"offset": 0,
								"slot": "4",
								"type": "t_uint256"
							}
						],
						"numberOfBytes": "160"
					},
					"t_uint16": {
						"encoding": "inplace",
						"label": "uint16",
						"numberOfBytes": "2"
					},
					"t_uint256": {
						"encoding": "inplace",
						"label": "uint256",
						"numberOfBytes": "32"
					}
				}
			},
			"userdoc": {
				"kind": "user",
				"methods": {},
				"version": 1
			}
		}
	}
}